{
	"contracts/storageChain.sol": {
		"StakingContract": {
			"abi": [
				{
					"anonymous": false,
					"inputs": [
						{
							"indexed": true,
							"internalType": "address",
							"name": "sender",
							"type": "address"
						},
						{
							"indexed": false,
							"internalType": "uint256",
							"name": "value",
							"type": "uint256"
						}
					],
					"name": "EtherReceived",
					"type": "event"
				},
				{
					"anonymous": false,
					"inputs": [
						{
							"indexed": false,
							"internalType": "bytes",
							"name": "data",
							"type": "bytes"
						},
						{
							"indexed": false,
							"internalType": "address",
							"name": "sender",
							"type": "address"
						},
						{
							"indexed": false,
							"internalType": "uint256",
							"name": "value",
							"type": "uint256"
						}
					],
					"name": "FallbackTriggered",
					"type": "event"
				},
				{
					"anonymous": false,
					"inputs": [
						{
							"indexed": true,
							"internalType": "address",
							"name": "previousOwner",
							"type": "address"
						},
						{
							"indexed": true,
							"internalType": "address",
							"name": "newOwner",
							"type": "address"
						}
					],
					"name": "OwnershipTransferred",
					"type": "event"
				},
				{
					"anonymous": false,
					"inputs": [
						{
							"indexed": true,
							"internalType": "address",
							"name": "user",
							"type": "address"
						},
						{
							"indexed": false,
							"internalType": "uint256",
							"name": "validationRatio",
							"type": "uint256"
						},
						{
							"indexed": false,
							"internalType": "uint256",
							"name": "upTime",
							"type": "uint256"
						},
						{
							"indexed": false,
							"internalType": "uint256",
							"name": "bandWidth",
							"type": "uint256"
						},
						{
							"indexed": false,
							"internalType": "uint256",
							"name": "storageGB",
							"type": "uint256"
						}
					],
					"name": "StatsUpdated",
					"type": "event"
				},
				{
					"anonymous": false,
					"inputs": [
						{
							"indexed": true,
							"internalType": "address",
							"name": "add",
							"type": "address"
						},
						{
							"indexed": false,
							"internalType": "uint256",
							"name": "value",
							"type": "uint256"
						}
					],
					"name": "TokenTransfer",
					"type": "event"
				},
				{
					"inputs": [],
					"name": "FlipPauseStatus",
					"outputs": [],
					"stateMutability": "nonpayable",
					"type": "function"
				},
				{
					"inputs": [
						{
							"internalType": "address",
							"name": "",
							"type": "address"
						}
					],
					"name": "NodeStats",
					"outputs": [
						{
							"internalType": "bool",
							"name": "oldUser",
							"type": "bool"
						}
					],
					"stateMutability": "view",
					"type": "function"
				},
				{
					"inputs": [],
					"name": "adminTreasury",
					"outputs": [
						{
							"internalType": "uint256",
							"name": "",
							"type": "uint256"
						}
					],
					"stateMutability": "view",
					"type": "function"
				},
				{
					"inputs": [],
					"name": "fillTreasury",
					"outputs": [],
					"stateMutability": "payable",
					"type": "function"
				},
				{
					"inputs": [],
					"name": "getContractBalance",
					"outputs": [
						{
							"internalType": "uint256",
							"name": "",
							"type": "uint256"
						}
					],
					"stateMutability": "view",
					"type": "function"
				},
				{
					"inputs": [
						{
							"internalType": "address",
							"name": "user",
							"type": "address"
						}
					],
					"name": "getNodeStats",
					"outputs": [
						{
							"components": [
								{
									"internalType": "uint256[]",
									"name": "validationRatio",
									"type": "uint256[]"
								},
								{
									"internalType": "uint256[]",
									"name": "upTime",
									"type": "uint256[]"
								},
								{
									"internalType": "uint256[]",
									"name": "bandWidth",
									"type": "uint256[]"
								},
								{
									"internalType": "uint256[]",
									"name": "storageGB",
									"type": "uint256[]"
								},
								{
									"internalType": "bool",
									"name": "oldUser",
									"type": "bool"
								}
							],
							"internalType": "struct StakingContract.Stats",
							"name": "",
							"type": "tuple"
						}
					],
					"stateMutability": "view",
					"type": "function"
				},
				{
					"inputs": [
						{
							"internalType": "address",
							"name": "user",
							"type": "address"
						}
					],
					"name": "getStake",
					"outputs": [
						{
							"internalType": "uint256",
							"name": "",
							"type": "uint256"
						}
					],
					"stateMutability": "view",
					"type": "function"
				},
				{
					"inputs": [],
					"name": "owner",
					"outputs": [
						{
							"internalType": "address",
							"name": "",
							"type": "address"
						}
					],
					"stateMutability": "view",
					"type": "function"
				},
				{
					"inputs": [],
					"name": "paused",
					"outputs": [
						{
							"internalType": "bool",
							"name": "",
							"type": "bool"
						}
					],
					"stateMutability": "view",
					"type": "function"
				},
				{
					"inputs": [],
					"name": "renounceOwnership",
					"outputs": [],
					"stateMutability": "nonpayable",
					"type": "function"
				},
				{
					"inputs": [],
					"name": "stakeTokens",
					"outputs": [],
					"stateMutability": "payable",
					"type": "function"
				},
				{
					"inputs": [
						{
							"internalType": "address",
							"name": "",
							"type": "address"
						}
					],
					"name": "tokenAmount",
					"outputs": [
						{
							"internalType": "uint256",
							"name": "",
							"type": "uint256"
						}
					],
					"stateMutability": "view",
					"type": "function"
				},
				{
					"inputs": [],
					"name": "totalHoldings",
					"outputs": [],
					"stateMutability": "nonpayable",
					"type": "function"
				},
				{
					"inputs": [],
					"name": "totalStakedTokens",
					"outputs": [
						{
							"internalType": "uint256",
							"name": "",
							"type": "uint256"
						}
					],
					"stateMutability": "view",
					"type": "function"
				},
				{
					"inputs": [
						{
							"internalType": "address",
							"name": "newOwner",
							"type": "address"
						}
					],
					"name": "transferOwnership",
					"outputs": [],
					"stateMutability": "nonpayable",
					"type": "function"
				},
				{
					"inputs": [
						{
							"internalType": "address payable",
							"name": "receiverAddress",
							"type": "address"
						},
						{
							"internalType": "uint256",
							"name": "rewardAmount",
							"type": "uint256"
						}
					],
					"name": "transferRewards",
					"outputs": [],
					"stateMutability": "nonpayable",
					"type": "function"
				},
				{
					"inputs": [
						{
							"internalType": "uint256",
							"name": "_tokenAmount",
							"type": "uint256"
						},
						{
							"internalType": "address payable",
							"name": "toAccount",
							"type": "address"
						}
					],
					"name": "unStakeTokens",
					"outputs": [],
					"stateMutability": "nonpayable",
					"type": "function"
				},
				{
					"inputs": [
						{
							"internalType": "address",
							"name": "user",
							"type": "address"
						},
						{
							"internalType": "uint256",
							"name": "_validationRatio",
							"type": "uint256"
						},
						{
							"internalType": "uint256",
							"name": "_upTime",
							"type": "uint256"
						},
						{
							"internalType": "uint256",
							"name": "_bandWidth",
							"type": "uint256"
						},
						{
							"internalType": "uint256",
							"name": "_storageGB",
							"type": "uint256"
						}
					],
					"name": "updateStats",
					"outputs": [],
					"stateMutability": "nonpayable",
					"type": "function"
				},
				{
					"inputs": [
						{
							"internalType": "uint256",
							"name": "amount",
							"type": "uint256"
						},
						{
							"internalType": "address payable",
							"name": "_receiverAddress",
							"type": "address"
						}
					],
					"name": "withDrawFromTreasury",
					"outputs": [],
					"stateMutability": "nonpayable",
					"type": "function"
				},
				{
					"stateMutability": "payable",
					"type": "receive"
				}
			],
			"devdoc": {
				"kind": "dev",
				"methods": {
					"owner()": {
						"details": "Returns the address of the current owner."
					},
					"renounceOwnership()": {
						"details": "Leaves the contract without owner. It will not be possible to call `onlyOwner` functions anymore. Can only be called by the current owner. NOTE: Renouncing ownership will leave the contract without an owner, thereby removing any functionality that is only available to the owner."
					},
					"transferOwnership(address)": {
						"details": "Transfers ownership of the contract to a new account (`newOwner`). Can only be called by the current owner."
					}
				},
				"version": 1
			},
			"evm": {
				"assembly": "    /* \"contracts/storageChain.sol\":110:4637  contract StakingContract is Ownable {... */\n  mstore(0x40, 0x80)\n  callvalue\n  dup1\n  iszero\n  tag_1\n  jumpi\n  0x00\n  dup1\n  revert\ntag_1:\n  pop\n    /* \"@openzeppelin/contracts/access/Ownable.sol\":936:968  _transferOwnership(_msgSender()) */\n  tag_4\n    /* \"@openzeppelin/contracts/access/Ownable.sol\":955:967  _msgSender() */\n  tag_5\n    /* \"@openzeppelin/contracts/access/Ownable.sol\":955:965  _msgSender */\n  shl(0x20, tag_6)\n    /* \"@openzeppelin/contracts/access/Ownable.sol\":955:967  _msgSender() */\n  0x20\n  shr\n  jump\t// in\ntag_5:\n    /* \"@openzeppelin/contracts/access/Ownable.sol\":936:954  _transferOwnership */\n  shl(0x20, tag_7)\n    /* \"@openzeppelin/contracts/access/Ownable.sol\":936:968  _transferOwnership(_msgSender()) */\n  0x20\n  shr\n  jump\t// in\ntag_4:\n    /* \"contracts/storageChain.sol\":110:4637  contract StakingContract is Ownable {... */\n  jump(tag_8)\n    /* \"@openzeppelin/contracts/utils/Context.sol\":640:736  function _msgSender() internal view virtual returns (address) {... */\ntag_6:\n    /* \"@openzeppelin/contracts/utils/Context.sol\":693:700  address */\n  0x00\n    /* \"@openzeppelin/contracts/utils/Context.sol\":719:729  msg.sender */\n  caller\n    /* \"@openzeppelin/contracts/utils/Context.sol\":712:729  return msg.sender */\n  swap1\n  pop\n    /* \"@openzeppelin/contracts/utils/Context.sol\":640:736  function _msgSender() internal view virtual returns (address) {... */\n  swap1\n  jump\t// out\n    /* \"@openzeppelin/contracts/access/Ownable.sol\":2433:2620  function _transferOwnership(address newOwner) internal virtual {... */\ntag_7:\n    /* \"@openzeppelin/contracts/access/Ownable.sol\":2506:2522  address oldOwner */\n  0x00\n    /* \"@openzeppelin/contracts/access/Ownable.sol\":2525:2531  _owner */\n  dup1\n  0x00\n  swap1\n  sload\n  swap1\n  0x0100\n  exp\n  swap1\n  div\n  0xffffffffffffffffffffffffffffffffffffffff\n  and\n    /* \"@openzeppelin/contracts/access/Ownable.sol\":2506:2531  address oldOwner = _owner */\n  swap1\n  pop\n    /* \"@openzeppelin/contracts/access/Ownable.sol\":2550:2558  newOwner */\n  dup2\n    /* \"@openzeppelin/contracts/access/Ownable.sol\":2541:2547  _owner */\n  0x00\n  dup1\n    /* \"@openzeppelin/contracts/access/Ownable.sol\":2541:2558  _owner = newOwner */\n  0x0100\n  exp\n  dup2\n  sload\n  dup2\n  0xffffffffffffffffffffffffffffffffffffffff\n  mul\n  not\n  and\n  swap1\n  dup4\n  0xffffffffffffffffffffffffffffffffffffffff\n  and\n  mul\n  or\n  swap1\n  sstore\n  pop\n    /* \"@openzeppelin/contracts/access/Ownable.sol\":2604:2612  newOwner */\n  dup2\n    /* \"@openzeppelin/contracts/access/Ownable.sol\":2573:2613  OwnershipTransferred(oldOwner, newOwner) */\n  0xffffffffffffffffffffffffffffffffffffffff\n  and\n    /* \"@openzeppelin/contracts/access/Ownable.sol\":2594:2602  oldOwner */\n  dup2\n    /* \"@openzeppelin/contracts/access/Ownable.sol\":2573:2613  OwnershipTransferred(oldOwner, newOwner) */\n  0xffffffffffffffffffffffffffffffffffffffff\n  and\n  0x8be0079c531659141344cd1fd0a4f28419497f9722a3daafe3b4186f6b6457e0\n  mload(0x40)\n  mload(0x40)\n  dup1\n  swap2\n  sub\n  swap1\n  log3\n    /* \"@openzeppelin/contracts/access/Ownable.sol\":2496:2620  {... */\n  pop\n    /* \"@openzeppelin/contracts/access/Ownable.sol\":2433:2620  function _transferOwnership(address newOwner) internal virtual {... */\n  pop\n  jump\t// out\n    /* \"contracts/storageChain.sol\":110:4637  contract StakingContract is Ownable {... */\ntag_8:\n  dataSize(sub_0)\n  dup1\n  dataOffset(sub_0)\n  0x00\n  codecopy\n  0x00\n  return\nstop\n\nsub_0: assembly {\n        /* \"contracts/storageChain.sol\":110:4637  contract StakingContract is Ownable {... */\n      mstore(0x40, 0x80)\n      jumpi(tag_1, lt(calldatasize, 0x04))\n      shr(0xe0, calldataload(0x00))\n      dup1\n      0x82723192\n      gt\n      tag_22\n      jumpi\n      dup1\n      0xa96b7f05\n      gt\n      tag_23\n      jumpi\n      dup1\n      0xa96b7f05\n      eq\n      tag_17\n      jumpi\n      dup1\n      0xadc07c6f\n      eq\n      tag_18\n      jumpi\n      dup1\n      0xce46643b\n      eq\n      tag_19\n      jumpi\n      dup1\n      0xe9ec2e99\n      eq\n      tag_20\n      jumpi\n      dup1\n      0xf2fde38b\n      eq\n      tag_21\n      jumpi\n      jump(tag_2)\n    tag_23:\n      dup1\n      0x82723192\n      eq\n      tag_12\n      jumpi\n      dup1\n      0x8da5cb5b\n      eq\n      tag_13\n      jumpi\n      dup1\n      0x8e080dee\n      eq\n      tag_14\n      jumpi\n      dup1\n      0x96cad0db\n      eq\n      tag_15\n      jumpi\n      dup1\n      0xa405b048\n      eq\n      tag_16\n      jumpi\n      jump(tag_2)\n    tag_22:\n      dup1\n      0x52b391b2\n      gt\n      tag_24\n      jumpi\n      dup1\n      0x52b391b2\n      eq\n      tag_7\n      jumpi\n      dup1\n      0x5c975abb\n      eq\n      tag_8\n      jumpi\n      dup1\n      0x6f9fb98a\n      eq\n      tag_9\n      jumpi\n      dup1\n      0x715018a6\n      eq\n      tag_10\n      jumpi\n      dup1\n      0x7a766460\n      eq\n      tag_11\n      jumpi\n      jump(tag_2)\n    tag_24:\n      dup1\n      0x06608c3c\n      eq\n      tag_3\n      jumpi\n      dup1\n      0x0d8f7614\n      eq\n      tag_4\n      jumpi\n      dup1\n      0x1241a45a\n      eq\n      tag_5\n      jumpi\n      dup1\n      0x3ae73259\n      eq\n      tag_6\n      jumpi\n      jump(tag_2)\n    tag_1:\n      jumpi(tag_2, calldatasize)\n        /* \"contracts/storageChain.sol\":4270:4280  msg.sender */\n      caller\n        /* \"contracts/storageChain.sol\":4256:4292  EtherReceived(msg.sender, msg.value) */\n      0xffffffffffffffffffffffffffffffffffffffff\n      and\n      0x1e57e3bb474320be3d2c77138f75b7c3941292d647f5f9634e33a8e94e0e069b\n        /* \"contracts/storageChain.sol\":4282:4291  msg.value */\n      callvalue\n        /* \"contracts/storageChain.sol\":4256:4292  EtherReceived(msg.sender, msg.value) */\n      mload(0x40)\n      tag_27\n      swap2\n      swap1\n      tag_28\n      jump\t// in\n    tag_27:\n      mload(0x40)\n      dup1\n      swap2\n      sub\n      swap1\n      log2\n        /* \"contracts/storageChain.sol\":110:4637  contract StakingContract is Ownable {... */\n      stop\n    tag_2:\n      0x00\n      dup1\n      revert\n        /* \"contracts/storageChain.sol\":1961:2390  function unStakeTokens(uint256 _tokenAmount, address payable toAccount)... */\n    tag_3:\n      callvalue\n      dup1\n      iszero\n      tag_29\n      jumpi\n      0x00\n      dup1\n      revert\n    tag_29:\n      pop\n      tag_30\n      0x04\n      dup1\n      calldatasize\n      sub\n      dup2\n      add\n      swap1\n      tag_31\n      swap2\n      swap1\n      tag_32\n      jump\t// in\n    tag_31:\n      tag_33\n      jump\t// in\n    tag_30:\n      stop\n        /* \"contracts/storageChain.sol\":3271:3416  function fillTreasury() external payable onlyOwner {... */\n    tag_4:\n      tag_34\n      tag_35\n      jump\t// in\n    tag_34:\n      stop\n        /* \"contracts/storageChain.sol\":836:1409  function updateStats(... */\n    tag_5:\n      callvalue\n      dup1\n      iszero\n      tag_36\n      jumpi\n      0x00\n      dup1\n      revert\n    tag_36:\n      pop\n      tag_37\n      0x04\n      dup1\n      calldatasize\n      sub\n      dup2\n      add\n      swap1\n      tag_38\n      swap2\n      swap1\n      tag_39\n      jump\t// in\n    tag_38:\n      tag_40\n      jump\t// in\n    tag_37:\n      stop\n        /* \"contracts/storageChain.sol\":311:343  uint256 public totalStakedTokens */\n    tag_6:\n      callvalue\n      dup1\n      iszero\n      tag_41\n      jumpi\n      0x00\n      dup1\n      revert\n    tag_41:\n      pop\n      tag_42\n      tag_43\n      jump\t// in\n    tag_42:\n      mload(0x40)\n      tag_44\n      swap2\n      swap1\n      tag_28\n      jump\t// in\n    tag_44:\n      mload(0x40)\n      dup1\n      swap2\n      sub\n      swap1\n      return\n        /* \"contracts/storageChain.sol\":4068:4181  function getNodeStats(address user) external view returns (Stats memory) {... */\n    tag_7:\n      callvalue\n      dup1\n      iszero\n      tag_45\n      jumpi\n      0x00\n      dup1\n      revert\n    tag_45:\n      pop\n      tag_46\n      0x04\n      dup1\n      calldatasize\n      sub\n      dup2\n      add\n      swap1\n      tag_47\n      swap2\n      swap1\n      tag_48\n      jump\t// in\n    tag_47:\n      tag_49\n      jump\t// in\n    tag_46:\n      mload(0x40)\n      tag_50\n      swap2\n      swap1\n      tag_51\n      jump\t// in\n    tag_50:\n      mload(0x40)\n      dup1\n      swap2\n      sub\n      swap1\n      return\n        /* \"contracts/storageChain.sol\":286:304  bool public paused */\n    tag_8:\n      callvalue\n      dup1\n      iszero\n      tag_52\n      jumpi\n      0x00\n      dup1\n      revert\n    tag_52:\n      pop\n      tag_53\n      tag_54\n      jump\t// in\n    tag_53:\n      mload(0x40)\n      tag_55\n      swap2\n      swap1\n      tag_56\n      jump\t// in\n    tag_55:\n      mload(0x40)\n      dup1\n      swap2\n      sub\n      swap1\n      return\n        /* \"contracts/storageChain.sol\":1455:1560  function getContractBalance() public view returns (uint256) {... */\n    tag_9:\n      callvalue\n      dup1\n      iszero\n      tag_57\n      jumpi\n      0x00\n      dup1\n      revert\n    tag_57:\n      pop\n      tag_58\n      tag_59\n      jump\t// in\n    tag_58:\n      mload(0x40)\n      tag_60\n      swap2\n      swap1\n      tag_28\n      jump\t// in\n    tag_60:\n      mload(0x40)\n      dup1\n      swap2\n      sub\n      swap1\n      return\n        /* \"@openzeppelin/contracts/access/Ownable.sol\":1831:1932  function renounceOwnership() public virtual onlyOwner {... */\n    tag_10:\n      callvalue\n      dup1\n      iszero\n      tag_61\n      jumpi\n      0x00\n      dup1\n      revert\n    tag_61:\n      pop\n      tag_62\n      tag_63\n      jump\t// in\n    tag_62:\n      stop\n        /* \"contracts/storageChain.sol\":3907:4012  function getStake(address user) external view returns (uint256) {... */\n    tag_11:\n      callvalue\n      dup1\n      iszero\n      tag_64\n      jumpi\n      0x00\n      dup1\n      revert\n    tag_64:\n      pop\n      tag_65\n      0x04\n      dup1\n      calldatasize\n      sub\n      dup2\n      add\n      swap1\n      tag_66\n      swap2\n      swap1\n      tag_48\n      jump\t// in\n    tag_66:\n      tag_67\n      jump\t// in\n    tag_65:\n      mload(0x40)\n      tag_68\n      swap2\n      swap1\n      tag_28\n      jump\t// in\n    tag_68:\n      mload(0x40)\n      dup1\n      swap2\n      sub\n      swap1\n      return\n        /* \"contracts/storageChain.sol\":2692:3206  function transferRewards(... */\n    tag_12:\n      callvalue\n      dup1\n      iszero\n      tag_69\n      jumpi\n      0x00\n      dup1\n      revert\n    tag_69:\n      pop\n      tag_70\n      0x04\n      dup1\n      calldatasize\n      sub\n      dup2\n      add\n      swap1\n      tag_71\n      swap2\n      swap1\n      tag_72\n      jump\t// in\n    tag_71:\n      tag_73\n      jump\t// in\n    tag_70:\n      stop\n        /* \"@openzeppelin/contracts/access/Ownable.sol\":1201:1286  function owner() public view virtual returns (address) {... */\n    tag_13:\n      callvalue\n      dup1\n      iszero\n      tag_74\n      jumpi\n      0x00\n      dup1\n      revert\n    tag_74:\n      pop\n      tag_75\n      tag_76\n      jump\t// in\n    tag_75:\n      mload(0x40)\n      tag_77\n      swap2\n      swap1\n      tag_78\n      jump\t// in\n    tag_77:\n      mload(0x40)\n      dup1\n      swap2\n      sub\n      swap1\n      return\n        /* \"contracts/storageChain.sol\":3482:3816  function withDrawFromTreasury(... */\n    tag_14:\n      callvalue\n      dup1\n      iszero\n      tag_79\n      jumpi\n      0x00\n      dup1\n      revert\n    tag_79:\n      pop\n      tag_80\n      0x04\n      dup1\n      calldatasize\n      sub\n      dup2\n      add\n      swap1\n      tag_81\n      swap2\n      swap1\n      tag_32\n      jump\t// in\n    tag_81:\n      tag_82\n      jump\t// in\n    tag_80:\n      stop\n        /* \"contracts/storageChain.sol\":252:280  uint256 public adminTreasury */\n    tag_15:\n      callvalue\n      dup1\n      iszero\n      tag_83\n      jumpi\n      0x00\n      dup1\n      revert\n    tag_83:\n      pop\n      tag_84\n      tag_85\n      jump\t// in\n    tag_84:\n      mload(0x40)\n      tag_86\n      swap2\n      swap1\n      tag_28\n      jump\t// in\n    tag_86:\n      mload(0x40)\n      dup1\n      swap2\n      sub\n      swap1\n      return\n        /* \"contracts/storageChain.sol\":2441:2606  function FlipPauseStatus() external onlyOwner {... */\n    tag_16:\n      callvalue\n      dup1\n      iszero\n      tag_87\n      jumpi\n      0x00\n      dup1\n      revert\n    tag_87:\n      pop\n      tag_88\n      tag_89\n      jump\t// in\n    tag_88:\n      stop\n        /* \"contracts/storageChain.sol\":152:198  mapping(address => uint256) public tokenAmount */\n    tag_17:\n      callvalue\n      dup1\n      iszero\n      tag_90\n      jumpi\n      0x00\n      dup1\n      revert\n    tag_90:\n      pop\n      tag_91\n      0x04\n      dup1\n      calldatasize\n      sub\n      dup2\n      add\n      swap1\n      tag_92\n      swap2\n      swap1\n      tag_48\n      jump\t// in\n    tag_92:\n      tag_93\n      jump\t// in\n    tag_91:\n      mload(0x40)\n      tag_94\n      swap2\n      swap1\n      tag_28\n      jump\t// in\n    tag_94:\n      mload(0x40)\n      dup1\n      swap2\n      sub\n      swap1\n      return\n        /* \"contracts/storageChain.sol\":204:246  mapping(address => Stats) public NodeStats */\n    tag_18:\n      callvalue\n      dup1\n      iszero\n      tag_95\n      jumpi\n      0x00\n      dup1\n      revert\n    tag_95:\n      pop\n      tag_96\n      0x04\n      dup1\n      calldatasize\n      sub\n      dup2\n      add\n      swap1\n      tag_97\n      swap2\n      swap1\n      tag_48\n      jump\t// in\n    tag_97:\n      tag_98\n      jump\t// in\n    tag_96:\n      mload(0x40)\n      tag_99\n      swap2\n      swap1\n      tag_56\n      jump\t// in\n    tag_99:\n      mload(0x40)\n      dup1\n      swap2\n      sub\n      swap1\n      return\n        /* \"contracts/storageChain.sol\":1613:1894  function stakeTokens() external payable {... */\n    tag_19:\n      tag_100\n      tag_101\n      jump\t// in\n    tag_100:\n      stop\n        /* \"contracts/storageChain.sol\":3822:3856  function totalHoldings() public {} */\n    tag_20:\n      callvalue\n      dup1\n      iszero\n      tag_102\n      jumpi\n      0x00\n      dup1\n      revert\n    tag_102:\n      pop\n      tag_103\n      tag_104\n      jump\t// in\n    tag_103:\n      stop\n        /* \"@openzeppelin/contracts/access/Ownable.sol\":2081:2279  function transferOwnership(address newOwner) public virtual onlyOwner {... */\n    tag_21:\n      callvalue\n      dup1\n      iszero\n      tag_105\n      jumpi\n      0x00\n      dup1\n      revert\n    tag_105:\n      pop\n      tag_106\n      0x04\n      dup1\n      calldatasize\n      sub\n      dup2\n      add\n      swap1\n      tag_107\n      swap2\n      swap1\n      tag_48\n      jump\t// in\n    tag_107:\n      tag_108\n      jump\t// in\n    tag_106:\n      stop\n        /* \"contracts/storageChain.sol\":1961:2390  function unStakeTokens(uint256 _tokenAmount, address payable toAccount)... */\n    tag_33:\n        /* \"contracts/storageChain.sol\":2073:2079  paused */\n      0x04\n      0x00\n      swap1\n      sload\n      swap1\n      0x0100\n      exp\n      swap1\n      div\n      0xff\n      and\n        /* \"contracts/storageChain.sol\":2072:2079  !paused */\n      iszero\n        /* \"contracts/storageChain.sol\":2064:2102  require(!paused, \"Contract is Paused\") */\n      tag_110\n      jumpi\n      mload(0x40)\n      0x08c379a000000000000000000000000000000000000000000000000000000000\n      dup2\n      mstore\n      0x04\n      add\n      tag_111\n      swap1\n      tag_112\n      jump\t// in\n    tag_111:\n      mload(0x40)\n      dup1\n      swap2\n      sub\n      swap1\n      revert\n    tag_110:\n        /* \"contracts/storageChain.sol\":2163:2175  _tokenAmount */\n      dup2\n        /* \"contracts/storageChain.sol\":2134:2145  tokenAmount */\n      0x01\n        /* \"contracts/storageChain.sol\":2134:2159  tokenAmount[_msgSender()] */\n      0x00\n        /* \"contracts/storageChain.sol\":2146:2158  _msgSender() */\n      tag_113\n        /* \"contracts/storageChain.sol\":2146:2156  _msgSender */\n      tag_114\n        /* \"contracts/storageChain.sol\":2146:2158  _msgSender() */\n      jump\t// in\n    tag_113:\n        /* \"contracts/storageChain.sol\":2134:2159  tokenAmount[_msgSender()] */\n      0xffffffffffffffffffffffffffffffffffffffff\n      and\n      0xffffffffffffffffffffffffffffffffffffffff\n      and\n      dup2\n      mstore\n      0x20\n      add\n      swap1\n      dup2\n      mstore\n      0x20\n      add\n      0x00\n      keccak256\n      sload\n        /* \"contracts/storageChain.sol\":2134:2175  tokenAmount[_msgSender()] >= _tokenAmount */\n      lt\n      iszero\n        /* \"contracts/storageChain.sol\":2113:2232  require(... */\n      tag_115\n      jumpi\n      mload(0x40)\n      0x08c379a000000000000000000000000000000000000000000000000000000000\n      dup2\n      mstore\n      0x04\n      add\n      tag_116\n      swap1\n      tag_117\n      jump\t// in\n    tag_116:\n      mload(0x40)\n      dup1\n      swap2\n      sub\n      swap1\n      revert\n    tag_115:\n        /* \"contracts/storageChain.sol\":2243:2252  toAccount */\n      dup1\n        /* \"contracts/storageChain.sol\":2243:2261  toAccount.transfer */\n      0xffffffffffffffffffffffffffffffffffffffff\n      and\n        /* \"contracts/storageChain.sol\":2243:2275  toAccount.transfer(_tokenAmount) */\n      0x08fc\n        /* \"contracts/storageChain.sol\":2262:2274  _tokenAmount */\n      dup4\n        /* \"contracts/storageChain.sol\":2243:2275  toAccount.transfer(_tokenAmount) */\n      swap1\n      dup2\n      iszero\n      mul\n      swap1\n      mload(0x40)\n      0x00\n      mload(0x40)\n      dup1\n      dup4\n      sub\n      dup2\n      dup6\n      dup9\n      dup9\n      call\n      swap4\n      pop\n      pop\n      pop\n      pop\n      iszero\n      dup1\n      iszero\n      tag_119\n      jumpi\n      returndatasize\n      0x00\n      dup1\n      returndatacopy\n      revert(0x00, returndatasize)\n    tag_119:\n      pop\n        /* \"contracts/storageChain.sol\":2314:2326  _tokenAmount */\n      dup2\n        /* \"contracts/storageChain.sol\":2285:2296  tokenAmount */\n      0x01\n        /* \"contracts/storageChain.sol\":2285:2310  tokenAmount[_msgSender()] */\n      0x00\n        /* \"contracts/storageChain.sol\":2297:2309  _msgSender() */\n      tag_120\n        /* \"contracts/storageChain.sol\":2297:2307  _msgSender */\n      tag_114\n        /* \"contracts/storageChain.sol\":2297:2309  _msgSender() */\n      jump\t// in\n    tag_120:\n        /* \"contracts/storageChain.sol\":2285:2310  tokenAmount[_msgSender()] */\n      0xffffffffffffffffffffffffffffffffffffffff\n      and\n      0xffffffffffffffffffffffffffffffffffffffff\n      and\n      dup2\n      mstore\n      0x20\n      add\n      swap1\n      dup2\n      mstore\n      0x20\n      add\n      0x00\n      keccak256\n      0x00\n        /* \"contracts/storageChain.sol\":2285:2326  tokenAmount[_msgSender()] -= _tokenAmount */\n      dup3\n      dup3\n      sload\n      tag_121\n      swap2\n      swap1\n      tag_122\n      jump\t// in\n    tag_121:\n      swap3\n      pop\n      pop\n      dup2\n      swap1\n      sstore\n      pop\n        /* \"contracts/storageChain.sol\":2356:2368  _msgSender() */\n      tag_123\n        /* \"contracts/storageChain.sol\":2356:2366  _msgSender */\n      tag_114\n        /* \"contracts/storageChain.sol\":2356:2368  _msgSender() */\n      jump\t// in\n    tag_123:\n        /* \"contracts/storageChain.sol\":2342:2383  TokenTransfer(_msgSender(), _tokenAmount) */\n      0xffffffffffffffffffffffffffffffffffffffff\n      and\n      0x1d72140a7ccdb496bef50918d2598dd7edefb514f70e6d4beb528cbd16c80b7d\n        /* \"contracts/storageChain.sol\":2370:2382  _tokenAmount */\n      dup4\n        /* \"contracts/storageChain.sol\":2342:2383  TokenTransfer(_msgSender(), _tokenAmount) */\n      mload(0x40)\n      tag_124\n      swap2\n      swap1\n      tag_28\n      jump\t// in\n    tag_124:\n      mload(0x40)\n      dup1\n      swap2\n      sub\n      swap1\n      log2\n        /* \"contracts/storageChain.sol\":1961:2390  function unStakeTokens(uint256 _tokenAmount, address payable toAccount)... */\n      pop\n      pop\n      jump\t// out\n        /* \"contracts/storageChain.sol\":3271:3416  function fillTreasury() external payable onlyOwner {... */\n    tag_35:\n        /* \"@openzeppelin/contracts/access/Ownable.sol\":1094:1107  _checkOwner() */\n      tag_126\n        /* \"@openzeppelin/contracts/access/Ownable.sol\":1094:1105  _checkOwner */\n      tag_127\n        /* \"@openzeppelin/contracts/access/Ownable.sol\":1094:1107  _checkOwner() */\n      jump\t// in\n    tag_126:\n        /* \"contracts/storageChain.sol\":3352:3353  0 */\n      0x00\n        /* \"contracts/storageChain.sol\":3340:3349  msg.value */\n      callvalue\n        /* \"contracts/storageChain.sol\":3340:3353  msg.value > 0 */\n      gt\n        /* \"contracts/storageChain.sol\":3332:3372  require(msg.value > 0, \"Invalid Amount\") */\n      tag_129\n      jumpi\n      mload(0x40)\n      0x08c379a000000000000000000000000000000000000000000000000000000000\n      dup2\n      mstore\n      0x04\n      add\n      tag_130\n      swap1\n      tag_131\n      jump\t// in\n    tag_130:\n      mload(0x40)\n      dup1\n      swap2\n      sub\n      swap1\n      revert\n    tag_129:\n        /* \"contracts/storageChain.sol\":3399:3408  msg.value */\n      callvalue\n        /* \"contracts/storageChain.sol\":3382:3395  adminTreasury */\n      0x03\n      0x00\n        /* \"contracts/storageChain.sol\":3382:3408  adminTreasury += msg.value */\n      dup3\n      dup3\n      sload\n      tag_132\n      swap2\n      swap1\n      tag_133\n      jump\t// in\n    tag_132:\n      swap3\n      pop\n      pop\n      dup2\n      swap1\n      sstore\n      pop\n        /* \"contracts/storageChain.sol\":3271:3416  function fillTreasury() external payable onlyOwner {... */\n      jump\t// out\n        /* \"contracts/storageChain.sol\":836:1409  function updateStats(... */\n    tag_40:\n        /* \"@openzeppelin/contracts/access/Ownable.sol\":1094:1107  _checkOwner() */\n      tag_135\n        /* \"@openzeppelin/contracts/access/Ownable.sol\":1094:1105  _checkOwner */\n      tag_127\n        /* \"@openzeppelin/contracts/access/Ownable.sol\":1094:1107  _checkOwner() */\n      jump\t// in\n    tag_135:\n        /* \"contracts/storageChain.sol\":1063:1064  0 */\n      0x00\n        /* \"contracts/storageChain.sol\":1043:1054  tokenAmount */\n      0x01\n        /* \"contracts/storageChain.sol\":1043:1060  tokenAmount[user] */\n      0x00\n        /* \"contracts/storageChain.sol\":1055:1059  user */\n      dup8\n        /* \"contracts/storageChain.sol\":1043:1060  tokenAmount[user] */\n      0xffffffffffffffffffffffffffffffffffffffff\n      and\n      0xffffffffffffffffffffffffffffffffffffffff\n      and\n      dup2\n      mstore\n      0x20\n      add\n      swap1\n      dup2\n      mstore\n      0x20\n      add\n      0x00\n      keccak256\n      sload\n        /* \"contracts/storageChain.sol\":1043:1064  tokenAmount[user] > 0 */\n      gt\n        /* \"contracts/storageChain.sol\":1035:1103  require(tokenAmount[user] > 0, \"No Staked amount against this user\") */\n      tag_137\n      jumpi\n      mload(0x40)\n      0x08c379a000000000000000000000000000000000000000000000000000000000\n      dup2\n      mstore\n      0x04\n      add\n      tag_138\n      swap1\n      tag_139\n      jump\t// in\n    tag_138:\n      mload(0x40)\n      dup1\n      swap2\n      sub\n      swap1\n      revert\n    tag_137:\n        /* \"contracts/storageChain.sol\":1113:1122  NodeStats */\n      0x02\n        /* \"contracts/storageChain.sol\":1113:1128  NodeStats[user] */\n      0x00\n        /* \"contracts/storageChain.sol\":1123:1127  user */\n      dup7\n        /* \"contracts/storageChain.sol\":1113:1128  NodeStats[user] */\n      0xffffffffffffffffffffffffffffffffffffffff\n      and\n      0xffffffffffffffffffffffffffffffffffffffff\n      and\n      dup2\n      mstore\n      0x20\n      add\n      swap1\n      dup2\n      mstore\n      0x20\n      add\n      0x00\n      keccak256\n        /* \"contracts/storageChain.sol\":1113:1144  NodeStats[user].validationRatio */\n      0x00\n      add\n        /* \"contracts/storageChain.sol\":1150:1166  _validationRatio */\n      dup5\n        /* \"contracts/storageChain.sol\":1113:1167  NodeStats[user].validationRatio.push(_validationRatio) */\n      swap1\n      dup1\n      0x01\n      dup2\n      sload\n      add\n      dup1\n      dup3\n      sstore\n      dup1\n      swap2\n      pop\n      pop\n      0x01\n      swap1\n      sub\n      swap1\n      0x00\n      mstore\n      keccak256(0x00, 0x20)\n      add\n      0x00\n      swap1\n      swap2\n      swap1\n      swap2\n      swap1\n      swap2\n      pop\n      sstore\n        /* \"contracts/storageChain.sol\":1177:1186  NodeStats */\n      0x02\n        /* \"contracts/storageChain.sol\":1177:1192  NodeStats[user] */\n      0x00\n        /* \"contracts/storageChain.sol\":1187:1191  user */\n      dup7\n        /* \"contracts/storageChain.sol\":1177:1192  NodeStats[user] */\n      0xffffffffffffffffffffffffffffffffffffffff\n      and\n      0xffffffffffffffffffffffffffffffffffffffff\n      and\n      dup2\n      mstore\n      0x20\n      add\n      swap1\n      dup2\n      mstore\n      0x20\n      add\n      0x00\n      keccak256\n        /* \"contracts/storageChain.sol\":1177:1199  NodeStats[user].upTime */\n      0x01\n      add\n        /* \"contracts/storageChain.sol\":1205:1212  _upTime */\n      dup4\n        /* \"contracts/storageChain.sol\":1177:1213  NodeStats[user].upTime.push(_upTime) */\n      swap1\n      dup1\n      0x01\n      dup2\n      sload\n      add\n      dup1\n      dup3\n      sstore\n      dup1\n      swap2\n      pop\n      pop\n      0x01\n      swap1\n      sub\n      swap1\n      0x00\n      mstore\n      keccak256(0x00, 0x20)\n      add\n      0x00\n      swap1\n      swap2\n      swap1\n      swap2\n      swap1\n      swap2\n      pop\n      sstore\n        /* \"contracts/storageChain.sol\":1223:1232  NodeStats */\n      0x02\n        /* \"contracts/storageChain.sol\":1223:1238  NodeStats[user] */\n      0x00\n        /* \"contracts/storageChain.sol\":1233:1237  user */\n      dup7\n        /* \"contracts/storageChain.sol\":1223:1238  NodeStats[user] */\n      0xffffffffffffffffffffffffffffffffffffffff\n      and\n      0xffffffffffffffffffffffffffffffffffffffff\n      and\n      dup2\n      mstore\n      0x20\n      add\n      swap1\n      dup2\n      mstore\n      0x20\n      add\n      0x00\n      keccak256\n        /* \"contracts/storageChain.sol\":1223:1248  NodeStats[user].bandWidth */\n      0x02\n      add\n        /* \"contracts/storageChain.sol\":1254:1264  _bandWidth */\n      dup3\n        /* \"contracts/storageChain.sol\":1223:1265  NodeStats[user].bandWidth.push(_bandWidth) */\n      swap1\n      dup1\n      0x01\n      dup2\n      sload\n      add\n      dup1\n      dup3\n      sstore\n      dup1\n      swap2\n      pop\n      pop\n      0x01\n      swap1\n      sub\n      swap1\n      0x00\n      mstore\n      keccak256(0x00, 0x20)\n      add\n      0x00\n      swap1\n      swap2\n      swap1\n      swap2\n      swap1\n      swap2\n      pop\n      sstore\n        /* \"contracts/storageChain.sol\":1275:1284  NodeStats */\n      0x02\n        /* \"contracts/storageChain.sol\":1275:1290  NodeStats[user] */\n      0x00\n        /* \"contracts/storageChain.sol\":1285:1289  user */\n      dup7\n        /* \"contracts/storageChain.sol\":1275:1290  NodeStats[user] */\n      0xffffffffffffffffffffffffffffffffffffffff\n      and\n      0xffffffffffffffffffffffffffffffffffffffff\n      and\n      dup2\n      mstore\n      0x20\n      add\n      swap1\n      dup2\n      mstore\n      0x20\n      add\n      0x00\n      keccak256\n        /* \"contracts/storageChain.sol\":1275:1300  NodeStats[user].storageGB */\n      0x03\n      add\n        /* \"contracts/storageChain.sol\":1306:1316  _storageGB */\n      dup2\n        /* \"contracts/storageChain.sol\":1275:1317  NodeStats[user].storageGB.push(_storageGB) */\n      swap1\n      dup1\n      0x01\n      dup2\n      sload\n      add\n      dup1\n      dup3\n      sstore\n      dup1\n      swap2\n      pop\n      pop\n      0x01\n      swap1\n      sub\n      swap1\n      0x00\n      mstore\n      keccak256(0x00, 0x20)\n      add\n      0x00\n      swap1\n      swap2\n      swap1\n      swap2\n      swap1\n      swap2\n      pop\n      sstore\n        /* \"contracts/storageChain.sol\":1345:1349  user */\n      dup5\n        /* \"contracts/storageChain.sol\":1332:1401  StatsUpdated(user, _validationRatio, _upTime, _bandWidth, _storageGB) */\n      0xffffffffffffffffffffffffffffffffffffffff\n      and\n      0xb4dc03f150e6d614b4a64b5aa6600a4f413726a20001138df59ecc01bb8f7983\n        /* \"contracts/storageChain.sol\":1351:1367  _validationRatio */\n      dup6\n        /* \"contracts/storageChain.sol\":1369:1376  _upTime */\n      dup6\n        /* \"contracts/storageChain.sol\":1378:1388  _bandWidth */\n      dup6\n        /* \"contracts/storageChain.sol\":1390:1400  _storageGB */\n      dup6\n        /* \"contracts/storageChain.sol\":1332:1401  StatsUpdated(user, _validationRatio, _upTime, _bandWidth, _storageGB) */\n      mload(0x40)\n      tag_144\n      swap5\n      swap4\n      swap3\n      swap2\n      swap1\n      tag_145\n      jump\t// in\n    tag_144:\n      mload(0x40)\n      dup1\n      swap2\n      sub\n      swap1\n      log2\n        /* \"contracts/storageChain.sol\":836:1409  function updateStats(... */\n      pop\n      pop\n      pop\n      pop\n      pop\n      jump\t// out\n        /* \"contracts/storageChain.sol\":311:343  uint256 public totalStakedTokens */\n    tag_43:\n      sload(0x05)\n      dup2\n      jump\t// out\n        /* \"contracts/storageChain.sol\":4068:4181  function getNodeStats(address user) external view returns (Stats memory) {... */\n    tag_49:\n        /* \"contracts/storageChain.sol\":4127:4139  Stats memory */\n      tag_146\n      tag_147\n      jump\t// in\n    tag_146:\n        /* \"contracts/storageChain.sol\":4158:4167  NodeStats */\n      0x02\n        /* \"contracts/storageChain.sol\":4158:4173  NodeStats[user] */\n      0x00\n        /* \"contracts/storageChain.sol\":4168:4172  user */\n      dup4\n        /* \"contracts/storageChain.sol\":4158:4173  NodeStats[user] */\n      0xffffffffffffffffffffffffffffffffffffffff\n      and\n      0xffffffffffffffffffffffffffffffffffffffff\n      and\n      dup2\n      mstore\n      0x20\n      add\n      swap1\n      dup2\n      mstore\n      0x20\n      add\n      0x00\n      keccak256\n        /* \"contracts/storageChain.sol\":4151:4173  return NodeStats[user] */\n      mload(0x40)\n      dup1\n      0xa0\n      add\n      0x40\n      mstore\n      swap1\n      dup2\n      0x00\n      dup3\n      add\n      dup1\n      sload\n      dup1\n      0x20\n      mul\n      0x20\n      add\n      mload(0x40)\n      swap1\n      dup2\n      add\n      0x40\n      mstore\n      dup1\n      swap3\n      swap2\n      swap1\n      dup2\n      dup2\n      mstore\n      0x20\n      add\n      dup3\n      dup1\n      sload\n      dup1\n      iszero\n      tag_149\n      jumpi\n      0x20\n      mul\n      dup3\n      add\n      swap2\n      swap1\n      0x00\n      mstore\n      keccak256(0x00, 0x20)\n      swap1\n    tag_150:\n      dup2\n      sload\n      dup2\n      mstore\n      0x20\n      add\n      swap1\n      0x01\n      add\n      swap1\n      dup1\n      dup4\n      gt\n      tag_150\n      jumpi\n    tag_149:\n      pop\n      pop\n      pop\n      pop\n      pop\n      dup2\n      mstore\n      0x20\n      add\n      0x01\n      dup3\n      add\n      dup1\n      sload\n      dup1\n      0x20\n      mul\n      0x20\n      add\n      mload(0x40)\n      swap1\n      dup2\n      add\n      0x40\n      mstore\n      dup1\n      swap3\n      swap2\n      swap1\n      dup2\n      dup2\n      mstore\n      0x20\n      add\n      dup3\n      dup1\n      sload\n      dup1\n      iszero\n      tag_151\n      jumpi\n      0x20\n      mul\n      dup3\n      add\n      swap2\n      swap1\n      0x00\n      mstore\n      keccak256(0x00, 0x20)\n      swap1\n    tag_152:\n      dup2\n      sload\n      dup2\n      mstore\n      0x20\n      add\n      swap1\n      0x01\n      add\n      swap1\n      dup1\n      dup4\n      gt\n      tag_152\n      jumpi\n    tag_151:\n      pop\n      pop\n      pop\n      pop\n      pop\n      dup2\n      mstore\n      0x20\n      add\n      0x02\n      dup3\n      add\n      dup1\n      sload\n      dup1\n      0x20\n      mul\n      0x20\n      add\n      mload(0x40)\n      swap1\n      dup2\n      add\n      0x40\n      mstore\n      dup1\n      swap3\n      swap2\n      swap1\n      dup2\n      dup2\n      mstore\n      0x20\n      add\n      dup3\n      dup1\n      sload\n      dup1\n      iszero\n      tag_153\n      jumpi\n      0x20\n      mul\n      dup3\n      add\n      swap2\n      swap1\n      0x00\n      mstore\n      keccak256(0x00, 0x20)\n      swap1\n    tag_154:\n      dup2\n      sload\n      dup2\n      mstore\n      0x20\n      add\n      swap1\n      0x01\n      add\n      swap1\n      dup1\n      dup4\n      gt\n      tag_154\n      jumpi\n    tag_153:\n      pop\n      pop\n      pop\n      pop\n      pop\n      dup2\n      mstore\n      0x20\n      add\n      0x03\n      dup3\n      add\n      dup1\n      sload\n      dup1\n      0x20\n      mul\n      0x20\n      add\n      mload(0x40)\n      swap1\n      dup2\n      add\n      0x40\n      mstore\n      dup1\n      swap3\n      swap2\n      swap1\n      dup2\n      dup2\n      mstore\n      0x20\n      add\n      dup3\n      dup1\n      sload\n      dup1\n      iszero\n      tag_155\n      jumpi\n      0x20\n      mul\n      dup3\n      add\n      swap2\n      swap1\n      0x00\n      mstore\n      keccak256(0x00, 0x20)\n      swap1\n    tag_156:\n      dup2\n      sload\n      dup2\n      mstore\n      0x20\n      add\n      swap1\n      0x01\n      add\n      swap1\n      dup1\n      dup4\n      gt\n      tag_156\n      jumpi\n    tag_155:\n      pop\n      pop\n      pop\n      pop\n      pop\n      dup2\n      mstore\n      0x20\n      add\n      0x04\n      dup3\n      add\n      0x00\n      swap1\n      sload\n      swap1\n      0x0100\n      exp\n      swap1\n      div\n      0xff\n      and\n      iszero\n      iszero\n      iszero\n      iszero\n      dup2\n      mstore\n      pop\n      pop\n      swap1\n      pop\n        /* \"contracts/storageChain.sol\":4068:4181  function getNodeStats(address user) external view returns (Stats memory) {... */\n      swap2\n      swap1\n      pop\n      jump\t// out\n        /* \"contracts/storageChain.sol\":286:304  bool public paused */\n    tag_54:\n      0x04\n      0x00\n      swap1\n      sload\n      swap1\n      0x0100\n      exp\n      swap1\n      div\n      0xff\n      and\n      dup2\n      jump\t// out\n        /* \"contracts/storageChain.sol\":1455:1560  function getContractBalance() public view returns (uint256) {... */\n    tag_59:\n        /* \"contracts/storageChain.sol\":1506:1513  uint256 */\n      0x00\n        /* \"contracts/storageChain.sol\":1532:1553  address(this).balance */\n      selfbalance\n        /* \"contracts/storageChain.sol\":1525:1553  return address(this).balance */\n      swap1\n      pop\n        /* \"contracts/storageChain.sol\":1455:1560  function getContractBalance() public view returns (uint256) {... */\n      swap1\n      jump\t// out\n        /* \"@openzeppelin/contracts/access/Ownable.sol\":1831:1932  function renounceOwnership() public virtual onlyOwner {... */\n    tag_63:\n        /* \"@openzeppelin/contracts/access/Ownable.sol\":1094:1107  _checkOwner() */\n      tag_159\n        /* \"@openzeppelin/contracts/access/Ownable.sol\":1094:1105  _checkOwner */\n      tag_127\n        /* \"@openzeppelin/contracts/access/Ownable.sol\":1094:1107  _checkOwner() */\n      jump\t// in\n    tag_159:\n        /* \"@openzeppelin/contracts/access/Ownable.sol\":1895:1925  _transferOwnership(address(0)) */\n      tag_161\n        /* \"@openzeppelin/contracts/access/Ownable.sol\":1922:1923  0 */\n      0x00\n        /* \"@openzeppelin/contracts/access/Ownable.sol\":1895:1913  _transferOwnership */\n      tag_162\n        /* \"@openzeppelin/contracts/access/Ownable.sol\":1895:1925  _transferOwnership(address(0)) */\n      jump\t// in\n    tag_161:\n        /* \"@openzeppelin/contracts/access/Ownable.sol\":1831:1932  function renounceOwnership() public virtual onlyOwner {... */\n      jump\t// out\n        /* \"contracts/storageChain.sol\":3907:4012  function getStake(address user) external view returns (uint256) {... */\n    tag_67:\n        /* \"contracts/storageChain.sol\":3962:3969  uint256 */\n      0x00\n        /* \"contracts/storageChain.sol\":3988:3999  tokenAmount */\n      0x01\n        /* \"contracts/storageChain.sol\":3988:4005  tokenAmount[user] */\n      0x00\n        /* \"contracts/storageChain.sol\":4000:4004  user */\n      dup4\n        /* \"contracts/storageChain.sol\":3988:4005  tokenAmount[user] */\n      0xffffffffffffffffffffffffffffffffffffffff\n      and\n      0xffffffffffffffffffffffffffffffffffffffff\n      and\n      dup2\n      mstore\n      0x20\n      add\n      swap1\n      dup2\n      mstore\n      0x20\n      add\n      0x00\n      keccak256\n      sload\n        /* \"contracts/storageChain.sol\":3981:4005  return tokenAmount[user] */\n      swap1\n      pop\n        /* \"contracts/storageChain.sol\":3907:4012  function getStake(address user) external view returns (uint256) {... */\n      swap2\n      swap1\n      pop\n      jump\t// out\n        /* \"contracts/storageChain.sol\":2692:3206  function transferRewards(... */\n    tag_73:\n        /* \"@openzeppelin/contracts/access/Ownable.sol\":1094:1107  _checkOwner() */\n      tag_165\n        /* \"@openzeppelin/contracts/access/Ownable.sol\":1094:1105  _checkOwner */\n      tag_127\n        /* \"@openzeppelin/contracts/access/Ownable.sol\":1094:1107  _checkOwner() */\n      jump\t// in\n    tag_165:\n        /* \"contracts/storageChain.sol\":2832:2838  paused */\n      0x04\n      0x00\n      swap1\n      sload\n      swap1\n      0x0100\n      exp\n      swap1\n      div\n      0xff\n      and\n        /* \"contracts/storageChain.sol\":2831:2838  !paused */\n      iszero\n        /* \"contracts/storageChain.sol\":2823:2860  require(!paused, \"Staking is paused\") */\n      tag_167\n      jumpi\n      mload(0x40)\n      0x08c379a000000000000000000000000000000000000000000000000000000000\n      dup2\n      mstore\n      0x04\n      add\n      tag_168\n      swap1\n      tag_169\n      jump\t// in\n    tag_168:\n      mload(0x40)\n      dup1\n      swap2\n      sub\n      swap1\n      revert\n    tag_167:\n        /* \"contracts/storageChain.sol\":2907:2920  adminTreasury */\n      sload(0x03)\n        /* \"contracts/storageChain.sol\":2891:2903  rewardAmount */\n      dup2\n        /* \"contracts/storageChain.sol\":2891:2920  rewardAmount <= adminTreasury */\n      gt\n      iszero\n        /* \"contracts/storageChain.sol\":2870:2978  require(... */\n      tag_170\n      jumpi\n      mload(0x40)\n      0x08c379a000000000000000000000000000000000000000000000000000000000\n      dup2\n      mstore\n      0x04\n      add\n      tag_171\n      swap1\n      tag_172\n      jump\t// in\n    tag_171:\n      mload(0x40)\n      dup1\n      swap2\n      sub\n      swap1\n      revert\n    tag_170:\n        /* \"contracts/storageChain.sol\":3024:3025  0 */\n      0x00\n        /* \"contracts/storageChain.sol\":2996:3007  tokenAmount */\n      0x01\n        /* \"contracts/storageChain.sol\":2996:3021  tokenAmount[_msgSender()] */\n      0x00\n        /* \"contracts/storageChain.sol\":3008:3020  _msgSender() */\n      tag_173\n        /* \"contracts/storageChain.sol\":3008:3018  _msgSender */\n      tag_114\n        /* \"contracts/storageChain.sol\":3008:3020  _msgSender() */\n      jump\t// in\n    tag_173:\n        /* \"contracts/storageChain.sol\":2996:3021  tokenAmount[_msgSender()] */\n      0xffffffffffffffffffffffffffffffffffffffff\n      and\n      0xffffffffffffffffffffffffffffffffffffffff\n      and\n      dup2\n      mstore\n      0x20\n      add\n      swap1\n      dup2\n      mstore\n      0x20\n      add\n      0x00\n      keccak256\n      sload\n        /* \"contracts/storageChain.sol\":2996:3025  tokenAmount[_msgSender()] > 0 */\n      gt\n        /* \"contracts/storageChain.sol\":2988:3053  require(tokenAmount[_msgSender()] > 0, \"User Does't have Staked\") */\n      tag_174\n      jumpi\n      mload(0x40)\n      0x08c379a000000000000000000000000000000000000000000000000000000000\n      dup2\n      mstore\n      0x04\n      add\n      tag_175\n      swap1\n      tag_176\n      jump\t// in\n    tag_175:\n      mload(0x40)\n      dup1\n      swap2\n      sub\n      swap1\n      revert\n    tag_174:\n        /* \"contracts/storageChain.sol\":3063:3078  receiverAddress */\n      dup2\n        /* \"contracts/storageChain.sol\":3063:3087  receiverAddress.transfer */\n      0xffffffffffffffffffffffffffffffffffffffff\n      and\n        /* \"contracts/storageChain.sol\":3063:3101  receiverAddress.transfer(rewardAmount) */\n      0x08fc\n        /* \"contracts/storageChain.sol\":3088:3100  rewardAmount */\n      dup3\n        /* \"contracts/storageChain.sol\":3063:3101  receiverAddress.transfer(rewardAmount) */\n      swap1\n      dup2\n      iszero\n      mul\n      swap1\n      mload(0x40)\n      0x00\n      mload(0x40)\n      dup1\n      dup4\n      sub\n      dup2\n      dup6\n      dup9\n      dup9\n      call\n      swap4\n      pop\n      pop\n      pop\n      pop\n      iszero\n      dup1\n      iszero\n      tag_178\n      jumpi\n      returndatasize\n      0x00\n      dup1\n      returndatacopy\n      revert(0x00, returndatasize)\n    tag_178:\n      pop\n        /* \"contracts/storageChain.sol\":3128:3140  rewardAmount */\n      dup1\n        /* \"contracts/storageChain.sol\":3111:3124  adminTreasury */\n      0x03\n      0x00\n        /* \"contracts/storageChain.sol\":3111:3140  adminTreasury -= rewardAmount */\n      dup3\n      dup3\n      sload\n      tag_179\n      swap2\n      swap1\n      tag_122\n      jump\t// in\n    tag_179:\n      swap3\n      pop\n      pop\n      dup2\n      swap1\n      sstore\n      pop\n        /* \"contracts/storageChain.sol\":3169:3184  receiverAddress */\n      dup2\n        /* \"contracts/storageChain.sol\":3155:3199  TokenTransfer(receiverAddress, rewardAmount) */\n      0xffffffffffffffffffffffffffffffffffffffff\n      and\n      0x1d72140a7ccdb496bef50918d2598dd7edefb514f70e6d4beb528cbd16c80b7d\n        /* \"contracts/storageChain.sol\":3186:3198  rewardAmount */\n      dup3\n        /* \"contracts/storageChain.sol\":3155:3199  TokenTransfer(receiverAddress, rewardAmount) */\n      mload(0x40)\n      tag_180\n      swap2\n      swap1\n      tag_28\n      jump\t// in\n    tag_180:\n      mload(0x40)\n      dup1\n      swap2\n      sub\n      swap1\n      log2\n        /* \"contracts/storageChain.sol\":2692:3206  function transferRewards(... */\n      pop\n      pop\n      jump\t// out\n        /* \"@openzeppelin/contracts/access/Ownable.sol\":1201:1286  function owner() public view virtual returns (address) {... */\n    tag_76:\n        /* \"@openzeppelin/contracts/access/Ownable.sol\":1247:1254  address */\n      0x00\n        /* \"@openzeppelin/contracts/access/Ownable.sol\":1273:1279  _owner */\n      dup1\n      0x00\n      swap1\n      sload\n      swap1\n      0x0100\n      exp\n      swap1\n      div\n      0xffffffffffffffffffffffffffffffffffffffff\n      and\n        /* \"@openzeppelin/contracts/access/Ownable.sol\":1266:1279  return _owner */\n      swap1\n      pop\n        /* \"@openzeppelin/contracts/access/Ownable.sol\":1201:1286  function owner() public view virtual returns (address) {... */\n      swap1\n      jump\t// out\n        /* \"contracts/storageChain.sol\":3482:3816  function withDrawFromTreasury(... */\n    tag_82:\n        /* \"@openzeppelin/contracts/access/Ownable.sol\":1094:1107  _checkOwner() */\n      tag_183\n        /* \"@openzeppelin/contracts/access/Ownable.sol\":1094:1105  _checkOwner */\n      tag_127\n        /* \"@openzeppelin/contracts/access/Ownable.sol\":1094:1107  _checkOwner() */\n      jump\t// in\n    tag_183:\n        /* \"contracts/storageChain.sol\":3638:3644  amount */\n      dup2\n        /* \"contracts/storageChain.sol\":3621:3634  adminTreasury */\n      sload(0x03)\n        /* \"contracts/storageChain.sol\":3621:3644  adminTreasury >= amount */\n      lt\n      iszero\n        /* \"contracts/storageChain.sol\":3613:3679  require(adminTreasury >= amount, \"Insufficient Funds to Withdraw\") */\n      tag_185\n      jumpi\n      mload(0x40)\n      0x08c379a000000000000000000000000000000000000000000000000000000000\n      dup2\n      mstore\n      0x04\n      add\n      tag_186\n      swap1\n      tag_187\n      jump\t// in\n    tag_186:\n      mload(0x40)\n      dup1\n      swap2\n      sub\n      swap1\n      revert\n    tag_185:\n        /* \"contracts/storageChain.sol\":3689:3705  _receiverAddress */\n      dup1\n        /* \"contracts/storageChain.sol\":3689:3714  _receiverAddress.transfer */\n      0xffffffffffffffffffffffffffffffffffffffff\n      and\n        /* \"contracts/storageChain.sol\":3689:3722  _receiverAddress.transfer(amount) */\n      0x08fc\n        /* \"contracts/storageChain.sol\":3715:3721  amount */\n      dup4\n        /* \"contracts/storageChain.sol\":3689:3722  _receiverAddress.transfer(amount) */\n      swap1\n      dup2\n      iszero\n      mul\n      swap1\n      mload(0x40)\n      0x00\n      mload(0x40)\n      dup1\n      dup4\n      sub\n      dup2\n      dup6\n      dup9\n      dup9\n      call\n      swap4\n      pop\n      pop\n      pop\n      pop\n      iszero\n      dup1\n      iszero\n      tag_189\n      jumpi\n      returndatasize\n      0x00\n      dup1\n      returndatacopy\n      revert(0x00, returndatasize)\n    tag_189:\n      pop\n        /* \"contracts/storageChain.sol\":3749:3755  amount */\n      dup2\n        /* \"contracts/storageChain.sol\":3732:3745  adminTreasury */\n      0x03\n      0x00\n        /* \"contracts/storageChain.sol\":3732:3755  adminTreasury -= amount */\n      dup3\n      dup3\n      sload\n      tag_190\n      swap2\n      swap1\n      tag_122\n      jump\t// in\n    tag_190:\n      swap3\n      pop\n      pop\n      dup2\n      swap1\n      sstore\n      pop\n        /* \"contracts/storageChain.sol\":3784:3800  _receiverAddress */\n      dup1\n        /* \"contracts/storageChain.sol\":3770:3809  TokenTransfer(_receiverAddress, amount) */\n      0xffffffffffffffffffffffffffffffffffffffff\n      and\n      0x1d72140a7ccdb496bef50918d2598dd7edefb514f70e6d4beb528cbd16c80b7d\n        /* \"contracts/storageChain.sol\":3802:3808  amount */\n      dup4\n        /* \"contracts/storageChain.sol\":3770:3809  TokenTransfer(_receiverAddress, amount) */\n      mload(0x40)\n      tag_191\n      swap2\n      swap1\n      tag_28\n      jump\t// in\n    tag_191:\n      mload(0x40)\n      dup1\n      swap2\n      sub\n      swap1\n      log2\n        /* \"contracts/storageChain.sol\":3482:3816  function withDrawFromTreasury(... */\n      pop\n      pop\n      jump\t// out\n        /* \"contracts/storageChain.sol\":252:280  uint256 public adminTreasury */\n    tag_85:\n      sload(0x03)\n      dup2\n      jump\t// out\n        /* \"contracts/storageChain.sol\":2441:2606  function FlipPauseStatus() external onlyOwner {... */\n    tag_89:\n        /* \"@openzeppelin/contracts/access/Ownable.sol\":1094:1107  _checkOwner() */\n      tag_193\n        /* \"@openzeppelin/contracts/access/Ownable.sol\":1094:1105  _checkOwner */\n      tag_127\n        /* \"@openzeppelin/contracts/access/Ownable.sol\":1094:1107  _checkOwner() */\n      jump\t// in\n    tag_193:\n        /* \"contracts/storageChain.sol\":2511:2515  true */\n      0x01\n        /* \"contracts/storageChain.sol\":2501:2515  paused == true */\n      iszero\n      iszero\n        /* \"contracts/storageChain.sol\":2501:2507  paused */\n      0x04\n      0x00\n      swap1\n      sload\n      swap1\n      0x0100\n      exp\n      swap1\n      div\n      0xff\n      and\n        /* \"contracts/storageChain.sol\":2501:2515  paused == true */\n      iszero\n      iszero\n      sub\n        /* \"contracts/storageChain.sol\":2497:2600  if (paused == true) {... */\n      tag_195\n      jumpi\n        /* \"contracts/storageChain.sol\":2540:2545  false */\n      0x00\n        /* \"contracts/storageChain.sol\":2531:2537  paused */\n      0x04\n      0x00\n        /* \"contracts/storageChain.sol\":2531:2545  paused = false */\n      0x0100\n      exp\n      dup2\n      sload\n      dup2\n      0xff\n      mul\n      not\n      and\n      swap1\n      dup4\n      iszero\n      iszero\n      mul\n      or\n      swap1\n      sstore\n      pop\n        /* \"contracts/storageChain.sol\":2497:2600  if (paused == true) {... */\n      jump(tag_196)\n    tag_195:\n        /* \"contracts/storageChain.sol\":2585:2589  true */\n      0x01\n        /* \"contracts/storageChain.sol\":2576:2582  paused */\n      0x04\n      0x00\n        /* \"contracts/storageChain.sol\":2576:2589  paused = true */\n      0x0100\n      exp\n      dup2\n      sload\n      dup2\n      0xff\n      mul\n      not\n      and\n      swap1\n      dup4\n      iszero\n      iszero\n      mul\n      or\n      swap1\n      sstore\n      pop\n        /* \"contracts/storageChain.sol\":2497:2600  if (paused == true) {... */\n    tag_196:\n        /* \"contracts/storageChain.sol\":2441:2606  function FlipPauseStatus() external onlyOwner {... */\n      jump\t// out\n        /* \"contracts/storageChain.sol\":152:198  mapping(address => uint256) public tokenAmount */\n    tag_93:\n      mstore(0x20, 0x01)\n      dup1\n      0x00\n      mstore\n      keccak256(0x00, 0x40)\n      0x00\n      swap2\n      pop\n      swap1\n      pop\n      sload\n      dup2\n      jump\t// out\n        /* \"contracts/storageChain.sol\":204:246  mapping(address => Stats) public NodeStats */\n    tag_98:\n      mstore(0x20, 0x02)\n      dup1\n      0x00\n      mstore\n      keccak256(0x00, 0x40)\n      0x00\n      swap2\n      pop\n      swap1\n      pop\n      dup1\n      0x04\n      add\n      0x00\n      swap1\n      sload\n      swap1\n      0x0100\n      exp\n      swap1\n      div\n      0xff\n      and\n      swap1\n      pop\n      dup2\n      jump\t// out\n        /* \"contracts/storageChain.sol\":1613:1894  function stakeTokens() external payable {... */\n    tag_101:\n        /* \"contracts/storageChain.sol\":1672:1678  paused */\n      0x04\n      0x00\n      swap1\n      sload\n      swap1\n      0x0100\n      exp\n      swap1\n      div\n      0xff\n      and\n        /* \"contracts/storageChain.sol\":1671:1678  !paused */\n      iszero\n        /* \"contracts/storageChain.sol\":1663:1700  require(!paused, \"Staking is paused\") */\n      tag_198\n      jumpi\n      mload(0x40)\n      0x08c379a000000000000000000000000000000000000000000000000000000000\n      dup2\n      mstore\n      0x04\n      add\n      tag_199\n      swap1\n      tag_169\n      jump\t// in\n    tag_199:\n      mload(0x40)\n      dup1\n      swap2\n      sub\n      swap1\n      revert\n    tag_198:\n        /* \"contracts/storageChain.sol\":1730:1731  0 */\n      0x00\n        /* \"contracts/storageChain.sol\":1718:1727  msg.value */\n      callvalue\n        /* \"contracts/storageChain.sol\":1718:1731  msg.value > 0 */\n      gt\n        /* \"contracts/storageChain.sol\":1710:1750  require(msg.value > 0, \"Cannot stake 0\") */\n      tag_200\n      jumpi\n      mload(0x40)\n      0x08c379a000000000000000000000000000000000000000000000000000000000\n      dup2\n      mstore\n      0x04\n      add\n      tag_201\n      swap1\n      tag_202\n      jump\t// in\n    tag_201:\n      mload(0x40)\n      dup1\n      swap2\n      sub\n      swap1\n      revert\n    tag_200:\n        /* \"contracts/storageChain.sol\":1789:1798  msg.value */\n      callvalue\n        /* \"contracts/storageChain.sol\":1760:1771  tokenAmount */\n      0x01\n        /* \"contracts/storageChain.sol\":1760:1785  tokenAmount[_msgSender()] */\n      0x00\n        /* \"contracts/storageChain.sol\":1772:1784  _msgSender() */\n      tag_203\n        /* \"contracts/storageChain.sol\":1772:1782  _msgSender */\n      tag_114\n        /* \"contracts/storageChain.sol\":1772:1784  _msgSender() */\n      jump\t// in\n    tag_203:\n        /* \"contracts/storageChain.sol\":1760:1785  tokenAmount[_msgSender()] */\n      0xffffffffffffffffffffffffffffffffffffffff\n      and\n      0xffffffffffffffffffffffffffffffffffffffff\n      and\n      dup2\n      mstore\n      0x20\n      add\n      swap1\n      dup2\n      mstore\n      0x20\n      add\n      0x00\n      keccak256\n      0x00\n        /* \"contracts/storageChain.sol\":1760:1798  tokenAmount[_msgSender()] += msg.value */\n      dup3\n      dup3\n      sload\n      tag_204\n      swap2\n      swap1\n      tag_133\n      jump\t// in\n    tag_204:\n      swap3\n      pop\n      pop\n      dup2\n      swap1\n      sstore\n      pop\n        /* \"contracts/storageChain.sol\":1829:1838  msg.value */\n      callvalue\n        /* \"contracts/storageChain.sol\":1808:1825  totalStakedTokens */\n      0x05\n      0x00\n        /* \"contracts/storageChain.sol\":1808:1838  totalStakedTokens += msg.value */\n      dup3\n      dup3\n      sload\n      tag_205\n      swap2\n      swap1\n      tag_133\n      jump\t// in\n    tag_205:\n      swap3\n      pop\n      pop\n      dup2\n      swap1\n      sstore\n      pop\n        /* \"contracts/storageChain.sol\":1882:1886  true */\n      0x01\n        /* \"contracts/storageChain.sol\":1848:1857  NodeStats */\n      0x02\n        /* \"contracts/storageChain.sol\":1848:1871  NodeStats[_msgSender()] */\n      0x00\n        /* \"contracts/storageChain.sol\":1858:1870  _msgSender() */\n      tag_206\n        /* \"contracts/storageChain.sol\":1858:1868  _msgSender */\n      tag_114\n        /* \"contracts/storageChain.sol\":1858:1870  _msgSender() */\n      jump\t// in\n    tag_206:\n        /* \"contracts/storageChain.sol\":1848:1871  NodeStats[_msgSender()] */\n      0xffffffffffffffffffffffffffffffffffffffff\n      and\n      0xffffffffffffffffffffffffffffffffffffffff\n      and\n      dup2\n      mstore\n      0x20\n      add\n      swap1\n      dup2\n      mstore\n      0x20\n      add\n      0x00\n      keccak256\n        /* \"contracts/storageChain.sol\":1848:1879  NodeStats[_msgSender()].oldUser */\n      0x04\n      add\n      0x00\n        /* \"contracts/storageChain.sol\":1848:1886  NodeStats[_msgSender()].oldUser = true */\n      0x0100\n      exp\n      dup2\n      sload\n      dup2\n      0xff\n      mul\n      not\n      and\n      swap1\n      dup4\n      iszero\n      iszero\n      mul\n      or\n      swap1\n      sstore\n      pop\n        /* \"contracts/storageChain.sol\":1613:1894  function stakeTokens() external payable {... */\n      jump\t// out\n        /* \"contracts/storageChain.sol\":3822:3856  function totalHoldings() public {} */\n    tag_104:\n      jump\t// out\n        /* \"@openzeppelin/contracts/access/Ownable.sol\":2081:2279  function transferOwnership(address newOwner) public virtual onlyOwner {... */\n    tag_108:\n        /* \"@openzeppelin/contracts/access/Ownable.sol\":1094:1107  _checkOwner() */\n      tag_209\n        /* \"@openzeppelin/contracts/access/Ownable.sol\":1094:1105  _checkOwner */\n      tag_127\n        /* \"@openzeppelin/contracts/access/Ownable.sol\":1094:1107  _checkOwner() */\n      jump\t// in\n    tag_209:\n        /* \"@openzeppelin/contracts/access/Ownable.sol\":2189:2190  0 */\n      0x00\n        /* \"@openzeppelin/contracts/access/Ownable.sol\":2169:2191  newOwner != address(0) */\n      0xffffffffffffffffffffffffffffffffffffffff\n      and\n        /* \"@openzeppelin/contracts/access/Ownable.sol\":2169:2177  newOwner */\n      dup2\n        /* \"@openzeppelin/contracts/access/Ownable.sol\":2169:2191  newOwner != address(0) */\n      0xffffffffffffffffffffffffffffffffffffffff\n      and\n      sub\n        /* \"@openzeppelin/contracts/access/Ownable.sol\":2161:2234  require(newOwner != address(0), \"Ownable: new owner is the zero address\") */\n      tag_211\n      jumpi\n      mload(0x40)\n      0x08c379a000000000000000000000000000000000000000000000000000000000\n      dup2\n      mstore\n      0x04\n      add\n      tag_212\n      swap1\n      tag_213\n      jump\t// in\n    tag_212:\n      mload(0x40)\n      dup1\n      swap2\n      sub\n      swap1\n      revert\n    tag_211:\n        /* \"@openzeppelin/contracts/access/Ownable.sol\":2244:2272  _transferOwnership(newOwner) */\n      tag_214\n        /* \"@openzeppelin/contracts/access/Ownable.sol\":2263:2271  newOwner */\n      dup2\n        /* \"@openzeppelin/contracts/access/Ownable.sol\":2244:2262  _transferOwnership */\n      tag_162\n        /* \"@openzeppelin/contracts/access/Ownable.sol\":2244:2272  _transferOwnership(newOwner) */\n      jump\t// in\n    tag_214:\n        /* \"@openzeppelin/contracts/access/Ownable.sol\":2081:2279  function transferOwnership(address newOwner) public virtual onlyOwner {... */\n      pop\n      jump\t// out\n        /* \"@openzeppelin/contracts/utils/Context.sol\":640:736  function _msgSender() internal view virtual returns (address) {... */\n    tag_114:\n        /* \"@openzeppelin/contracts/utils/Context.sol\":693:700  address */\n      0x00\n        /* \"@openzeppelin/contracts/utils/Context.sol\":719:729  msg.sender */\n      caller\n        /* \"@openzeppelin/contracts/utils/Context.sol\":712:729  return msg.sender */\n      swap1\n      pop\n        /* \"@openzeppelin/contracts/utils/Context.sol\":640:736  function _msgSender() internal view virtual returns (address) {... */\n      swap1\n      jump\t// out\n        /* \"@openzeppelin/contracts/access/Ownable.sol\":1359:1489  function _checkOwner() internal view virtual {... */\n    tag_127:\n        /* \"@openzeppelin/contracts/access/Ownable.sol\":1433:1445  _msgSender() */\n      tag_217\n        /* \"@openzeppelin/contracts/access/Ownable.sol\":1433:1443  _msgSender */\n      tag_114\n        /* \"@openzeppelin/contracts/access/Ownable.sol\":1433:1445  _msgSender() */\n      jump\t// in\n    tag_217:\n        /* \"@openzeppelin/contracts/access/Ownable.sol\":1422:1445  owner() == _msgSender() */\n      0xffffffffffffffffffffffffffffffffffffffff\n      and\n        /* \"@openzeppelin/contracts/access/Ownable.sol\":1422:1429  owner() */\n      tag_218\n        /* \"@openzeppelin/contracts/access/Ownable.sol\":1422:1427  owner */\n      tag_76\n        /* \"@openzeppelin/contracts/access/Ownable.sol\":1422:1429  owner() */\n      jump\t// in\n    tag_218:\n        /* \"@openzeppelin/contracts/access/Ownable.sol\":1422:1445  owner() == _msgSender() */\n      0xffffffffffffffffffffffffffffffffffffffff\n      and\n      eq\n        /* \"@openzeppelin/contracts/access/Ownable.sol\":1414:1482  require(owner() == _msgSender(), \"Ownable: caller is not the owner\") */\n      tag_219\n      jumpi\n      mload(0x40)\n      0x08c379a000000000000000000000000000000000000000000000000000000000\n      dup2\n      mstore\n      0x04\n      add\n      tag_220\n      swap1\n      tag_221\n      jump\t// in\n    tag_220:\n      mload(0x40)\n      dup1\n      swap2\n      sub\n      swap1\n      revert\n    tag_219:\n        /* \"@openzeppelin/contracts/access/Ownable.sol\":1359:1489  function _checkOwner() internal view virtual {... */\n      jump\t// out\n        /* \"@openzeppelin/contracts/access/Ownable.sol\":2433:2620  function _transferOwnership(address newOwner) internal virtual {... */\n    tag_162:\n        /* \"@openzeppelin/contracts/access/Ownable.sol\":2506:2522  address oldOwner */\n      0x00\n        /* \"@openzeppelin/contracts/access/Ownable.sol\":2525:2531  _owner */\n      dup1\n      0x00\n      swap1\n      sload\n      swap1\n      0x0100\n      exp\n      swap1\n      div\n      0xffffffffffffffffffffffffffffffffffffffff\n      and\n        /* \"@openzeppelin/contracts/access/Ownable.sol\":2506:2531  address oldOwner = _owner */\n      swap1\n      pop\n        /* \"@openzeppelin/contracts/access/Ownable.sol\":2550:2558  newOwner */\n      dup2\n        /* \"@openzeppelin/contracts/access/Ownable.sol\":2541:2547  _owner */\n      0x00\n      dup1\n        /* \"@openzeppelin/contracts/access/Ownable.sol\":2541:2558  _owner = newOwner */\n      0x0100\n      exp\n      dup2\n      sload\n      dup2\n      0xffffffffffffffffffffffffffffffffffffffff\n      mul\n      not\n      and\n      swap1\n      dup4\n      0xffffffffffffffffffffffffffffffffffffffff\n      and\n      mul\n      or\n      swap1\n      sstore\n      pop\n        /* \"@openzeppelin/contracts/access/Ownable.sol\":2604:2612  newOwner */\n      dup2\n        /* \"@openzeppelin/contracts/access/Ownable.sol\":2573:2613  OwnershipTransferred(oldOwner, newOwner) */\n      0xffffffffffffffffffffffffffffffffffffffff\n      and\n        /* \"@openzeppelin/contracts/access/Ownable.sol\":2594:2602  oldOwner */\n      dup2\n        /* \"@openzeppelin/contracts/access/Ownable.sol\":2573:2613  OwnershipTransferred(oldOwner, newOwner) */\n      0xffffffffffffffffffffffffffffffffffffffff\n      and\n      0x8be0079c531659141344cd1fd0a4f28419497f9722a3daafe3b4186f6b6457e0\n      mload(0x40)\n      mload(0x40)\n      dup1\n      swap2\n      sub\n      swap1\n      log3\n        /* \"@openzeppelin/contracts/access/Ownable.sol\":2496:2620  {... */\n      pop\n        /* \"@openzeppelin/contracts/access/Ownable.sol\":2433:2620  function _transferOwnership(address newOwner) internal virtual {... */\n      pop\n      jump\t// out\n    tag_147:\n      mload(0x40)\n      dup1\n      0xa0\n      add\n      0x40\n      mstore\n      dup1\n      0x60\n      dup2\n      mstore\n      0x20\n      add\n      0x60\n      dup2\n      mstore\n      0x20\n      add\n      0x60\n      dup2\n      mstore\n      0x20\n      add\n      0x60\n      dup2\n      mstore\n      0x20\n      add\n      iszero(iszero(0x00))\n      dup2\n      mstore\n      pop\n      swap1\n      jump\t// out\n        /* \"#utility.yul\":7:84   */\n    tag_223:\n        /* \"#utility.yul\":44:51   */\n      0x00\n        /* \"#utility.yul\":73:78   */\n      dup2\n        /* \"#utility.yul\":62:78   */\n      swap1\n      pop\n        /* \"#utility.yul\":7:84   */\n      swap2\n      swap1\n      pop\n      jump\t// out\n        /* \"#utility.yul\":90:208   */\n    tag_224:\n        /* \"#utility.yul\":177:201   */\n      tag_276\n        /* \"#utility.yul\":195:200   */\n      dup2\n        /* \"#utility.yul\":177:201   */\n      tag_223\n      jump\t// in\n    tag_276:\n        /* \"#utility.yul\":172:175   */\n      dup3\n        /* \"#utility.yul\":165:202   */\n      mstore\n        /* \"#utility.yul\":90:208   */\n      pop\n      pop\n      jump\t// out\n        /* \"#utility.yul\":214:436   */\n    tag_28:\n        /* \"#utility.yul\":307:311   */\n      0x00\n        /* \"#utility.yul\":345:347   */\n      0x20\n        /* \"#utility.yul\":334:343   */\n      dup3\n        /* \"#utility.yul\":330:348   */\n      add\n        /* \"#utility.yul\":322:348   */\n      swap1\n      pop\n        /* \"#utility.yul\":358:429   */\n      tag_278\n        /* \"#utility.yul\":426:427   */\n      0x00\n        /* \"#utility.yul\":415:424   */\n      dup4\n        /* \"#utility.yul\":411:428   */\n      add\n        /* \"#utility.yul\":402:408   */\n      dup5\n        /* \"#utility.yul\":358:429   */\n      tag_224\n      jump\t// in\n    tag_278:\n        /* \"#utility.yul\":214:436   */\n      swap3\n      swap2\n      pop\n      pop\n      jump\t// out\n        /* \"#utility.yul\":523:640   */\n    tag_226:\n        /* \"#utility.yul\":632:633   */\n      0x00\n        /* \"#utility.yul\":629:630   */\n      dup1\n        /* \"#utility.yul\":622:634   */\n      revert\n        /* \"#utility.yul\":769:891   */\n    tag_228:\n        /* \"#utility.yul\":842:866   */\n      tag_283\n        /* \"#utility.yul\":860:865   */\n      dup2\n        /* \"#utility.yul\":842:866   */\n      tag_223\n      jump\t// in\n    tag_283:\n        /* \"#utility.yul\":835:840   */\n      dup2\n        /* \"#utility.yul\":832:867   */\n      eq\n        /* \"#utility.yul\":822:885   */\n      tag_284\n      jumpi\n        /* \"#utility.yul\":881:882   */\n      0x00\n        /* \"#utility.yul\":878:879   */\n      dup1\n        /* \"#utility.yul\":871:883   */\n      revert\n        /* \"#utility.yul\":822:885   */\n    tag_284:\n        /* \"#utility.yul\":769:891   */\n      pop\n      jump\t// out\n        /* \"#utility.yul\":897:1036   */\n    tag_229:\n        /* \"#utility.yul\":943:948   */\n      0x00\n        /* \"#utility.yul\":981:987   */\n      dup2\n        /* \"#utility.yul\":968:988   */\n      calldataload\n        /* \"#utility.yul\":959:988   */\n      swap1\n      pop\n        /* \"#utility.yul\":997:1030   */\n      tag_286\n        /* \"#utility.yul\":1024:1029   */\n      dup2\n        /* \"#utility.yul\":997:1030   */\n      tag_228\n      jump\t// in\n    tag_286:\n        /* \"#utility.yul\":897:1036   */\n      swap3\n      swap2\n      pop\n      pop\n      jump\t// out\n        /* \"#utility.yul\":1042:1168   */\n    tag_230:\n        /* \"#utility.yul\":1079:1086   */\n      0x00\n        /* \"#utility.yul\":1119:1161   */\n      0xffffffffffffffffffffffffffffffffffffffff\n        /* \"#utility.yul\":1112:1117   */\n      dup3\n        /* \"#utility.yul\":1108:1162   */\n      and\n        /* \"#utility.yul\":1097:1162   */\n      swap1\n      pop\n        /* \"#utility.yul\":1042:1168   */\n      swap2\n      swap1\n      pop\n      jump\t// out\n        /* \"#utility.yul\":1174:1278   */\n    tag_231:\n        /* \"#utility.yul\":1219:1226   */\n      0x00\n        /* \"#utility.yul\":1248:1272   */\n      tag_289\n        /* \"#utility.yul\":1266:1271   */\n      dup3\n        /* \"#utility.yul\":1248:1272   */\n      tag_230\n      jump\t// in\n    tag_289:\n        /* \"#utility.yul\":1237:1272   */\n      swap1\n      pop\n        /* \"#utility.yul\":1174:1278   */\n      swap2\n      swap1\n      pop\n      jump\t// out\n        /* \"#utility.yul\":1284:1422   */\n    tag_232:\n        /* \"#utility.yul\":1365:1397   */\n      tag_291\n        /* \"#utility.yul\":1391:1396   */\n      dup2\n        /* \"#utility.yul\":1365:1397   */\n      tag_231\n      jump\t// in\n    tag_291:\n        /* \"#utility.yul\":1358:1363   */\n      dup2\n        /* \"#utility.yul\":1355:1398   */\n      eq\n        /* \"#utility.yul\":1345:1416   */\n      tag_292\n      jumpi\n        /* \"#utility.yul\":1412:1413   */\n      0x00\n        /* \"#utility.yul\":1409:1410   */\n      dup1\n        /* \"#utility.yul\":1402:1414   */\n      revert\n        /* \"#utility.yul\":1345:1416   */\n    tag_292:\n        /* \"#utility.yul\":1284:1422   */\n      pop\n      jump\t// out\n        /* \"#utility.yul\":1428:1583   */\n    tag_233:\n        /* \"#utility.yul\":1482:1487   */\n      0x00\n        /* \"#utility.yul\":1520:1526   */\n      dup2\n        /* \"#utility.yul\":1507:1527   */\n      calldataload\n        /* \"#utility.yul\":1498:1527   */\n      swap1\n      pop\n        /* \"#utility.yul\":1536:1577   */\n      tag_294\n        /* \"#utility.yul\":1571:1576   */\n      dup2\n        /* \"#utility.yul\":1536:1577   */\n      tag_232\n      jump\t// in\n    tag_294:\n        /* \"#utility.yul\":1428:1583   */\n      swap3\n      swap2\n      pop\n      pop\n      jump\t// out\n        /* \"#utility.yul\":1589:2079   */\n    tag_32:\n        /* \"#utility.yul\":1665:1671   */\n      0x00\n        /* \"#utility.yul\":1673:1679   */\n      dup1\n        /* \"#utility.yul\":1722:1724   */\n      0x40\n        /* \"#utility.yul\":1710:1719   */\n      dup4\n        /* \"#utility.yul\":1701:1708   */\n      dup6\n        /* \"#utility.yul\":1697:1720   */\n      sub\n        /* \"#utility.yul\":1693:1725   */\n      slt\n        /* \"#utility.yul\":1690:1809   */\n      iszero\n      tag_296\n      jumpi\n        /* \"#utility.yul\":1728:1807   */\n      tag_297\n      tag_226\n      jump\t// in\n    tag_297:\n        /* \"#utility.yul\":1690:1809   */\n    tag_296:\n        /* \"#utility.yul\":1848:1849   */\n      0x00\n        /* \"#utility.yul\":1873:1926   */\n      tag_298\n        /* \"#utility.yul\":1918:1925   */\n      dup6\n        /* \"#utility.yul\":1909:1915   */\n      dup3\n        /* \"#utility.yul\":1898:1907   */\n      dup7\n        /* \"#utility.yul\":1894:1916   */\n      add\n        /* \"#utility.yul\":1873:1926   */\n      tag_229\n      jump\t// in\n    tag_298:\n        /* \"#utility.yul\":1863:1926   */\n      swap3\n      pop\n        /* \"#utility.yul\":1819:1936   */\n      pop\n        /* \"#utility.yul\":1975:1977   */\n      0x20\n        /* \"#utility.yul\":2001:2062   */\n      tag_299\n        /* \"#utility.yul\":2054:2061   */\n      dup6\n        /* \"#utility.yul\":2045:2051   */\n      dup3\n        /* \"#utility.yul\":2034:2043   */\n      dup7\n        /* \"#utility.yul\":2030:2052   */\n      add\n        /* \"#utility.yul\":2001:2062   */\n      tag_233\n      jump\t// in\n    tag_299:\n        /* \"#utility.yul\":1991:2062   */\n      swap2\n      pop\n        /* \"#utility.yul\":1946:2072   */\n      pop\n        /* \"#utility.yul\":1589:2079   */\n      swap3\n      pop\n      swap3\n      swap1\n      pop\n      jump\t// out\n        /* \"#utility.yul\":2085:2181   */\n    tag_234:\n        /* \"#utility.yul\":2122:2129   */\n      0x00\n        /* \"#utility.yul\":2151:2175   */\n      tag_301\n        /* \"#utility.yul\":2169:2174   */\n      dup3\n        /* \"#utility.yul\":2151:2175   */\n      tag_230\n      jump\t// in\n    tag_301:\n        /* \"#utility.yul\":2140:2175   */\n      swap1\n      pop\n        /* \"#utility.yul\":2085:2181   */\n      swap2\n      swap1\n      pop\n      jump\t// out\n        /* \"#utility.yul\":2187:2309   */\n    tag_235:\n        /* \"#utility.yul\":2260:2284   */\n      tag_303\n        /* \"#utility.yul\":2278:2283   */\n      dup2\n        /* \"#utility.yul\":2260:2284   */\n      tag_234\n      jump\t// in\n    tag_303:\n        /* \"#utility.yul\":2253:2258   */\n      dup2\n        /* \"#utility.yul\":2250:2285   */\n      eq\n        /* \"#utility.yul\":2240:2303   */\n      tag_304\n      jumpi\n        /* \"#utility.yul\":2299:2300   */\n      0x00\n        /* \"#utility.yul\":2296:2297   */\n      dup1\n        /* \"#utility.yul\":2289:2301   */\n      revert\n        /* \"#utility.yul\":2240:2303   */\n    tag_304:\n        /* \"#utility.yul\":2187:2309   */\n      pop\n      jump\t// out\n        /* \"#utility.yul\":2315:2454   */\n    tag_236:\n        /* \"#utility.yul\":2361:2366   */\n      0x00\n        /* \"#utility.yul\":2399:2405   */\n      dup2\n        /* \"#utility.yul\":2386:2406   */\n      calldataload\n        /* \"#utility.yul\":2377:2406   */\n      swap1\n      pop\n        /* \"#utility.yul\":2415:2448   */\n      tag_306\n        /* \"#utility.yul\":2442:2447   */\n      dup2\n        /* \"#utility.yul\":2415:2448   */\n      tag_235\n      jump\t// in\n    tag_306:\n        /* \"#utility.yul\":2315:2454   */\n      swap3\n      swap2\n      pop\n      pop\n      jump\t// out\n        /* \"#utility.yul\":2460:3371   */\n    tag_39:\n        /* \"#utility.yul\":2555:2561   */\n      0x00\n        /* \"#utility.yul\":2563:2569   */\n      dup1\n        /* \"#utility.yul\":2571:2577   */\n      0x00\n        /* \"#utility.yul\":2579:2585   */\n      dup1\n        /* \"#utility.yul\":2587:2593   */\n      0x00\n        /* \"#utility.yul\":2636:2639   */\n      0xa0\n        /* \"#utility.yul\":2624:2633   */\n      dup7\n        /* \"#utility.yul\":2615:2622   */\n      dup9\n        /* \"#utility.yul\":2611:2634   */\n      sub\n        /* \"#utility.yul\":2607:2640   */\n      slt\n        /* \"#utility.yul\":2604:2724   */\n      iszero\n      tag_308\n      jumpi\n        /* \"#utility.yul\":2643:2722   */\n      tag_309\n      tag_226\n      jump\t// in\n    tag_309:\n        /* \"#utility.yul\":2604:2724   */\n    tag_308:\n        /* \"#utility.yul\":2763:2764   */\n      0x00\n        /* \"#utility.yul\":2788:2841   */\n      tag_310\n        /* \"#utility.yul\":2833:2840   */\n      dup9\n        /* \"#utility.yul\":2824:2830   */\n      dup3\n        /* \"#utility.yul\":2813:2822   */\n      dup10\n        /* \"#utility.yul\":2809:2831   */\n      add\n        /* \"#utility.yul\":2788:2841   */\n      tag_236\n      jump\t// in\n    tag_310:\n        /* \"#utility.yul\":2778:2841   */\n      swap6\n      pop\n        /* \"#utility.yul\":2734:2851   */\n      pop\n        /* \"#utility.yul\":2890:2892   */\n      0x20\n        /* \"#utility.yul\":2916:2969   */\n      tag_311\n        /* \"#utility.yul\":2961:2968   */\n      dup9\n        /* \"#utility.yul\":2952:2958   */\n      dup3\n        /* \"#utility.yul\":2941:2950   */\n      dup10\n        /* \"#utility.yul\":2937:2959   */\n      add\n        /* \"#utility.yul\":2916:2969   */\n      tag_229\n      jump\t// in\n    tag_311:\n        /* \"#utility.yul\":2906:2969   */\n      swap5\n      pop\n        /* \"#utility.yul\":2861:2979   */\n      pop\n        /* \"#utility.yul\":3018:3020   */\n      0x40\n        /* \"#utility.yul\":3044:3097   */\n      tag_312\n        /* \"#utility.yul\":3089:3096   */\n      dup9\n        /* \"#utility.yul\":3080:3086   */\n      dup3\n        /* \"#utility.yul\":3069:3078   */\n      dup10\n        /* \"#utility.yul\":3065:3087   */\n      add\n        /* \"#utility.yul\":3044:3097   */\n      tag_229\n      jump\t// in\n    tag_312:\n        /* \"#utility.yul\":3034:3097   */\n      swap4\n      pop\n        /* \"#utility.yul\":2989:3107   */\n      pop\n        /* \"#utility.yul\":3146:3148   */\n      0x60\n        /* \"#utility.yul\":3172:3225   */\n      tag_313\n        /* \"#utility.yul\":3217:3224   */\n      dup9\n        /* \"#utility.yul\":3208:3214   */\n      dup3\n        /* \"#utility.yul\":3197:3206   */\n      dup10\n        /* \"#utility.yul\":3193:3215   */\n      add\n        /* \"#utility.yul\":3172:3225   */\n      tag_229\n      jump\t// in\n    tag_313:\n        /* \"#utility.yul\":3162:3225   */\n      swap3\n      pop\n        /* \"#utility.yul\":3117:3235   */\n      pop\n        /* \"#utility.yul\":3274:3277   */\n      0x80\n        /* \"#utility.yul\":3301:3354   */\n      tag_314\n        /* \"#utility.yul\":3346:3353   */\n      dup9\n        /* \"#utility.yul\":3337:3343   */\n      dup3\n        /* \"#utility.yul\":3326:3335   */\n      dup10\n        /* \"#utility.yul\":3322:3344   */\n      add\n        /* \"#utility.yul\":3301:3354   */\n      tag_229\n      jump\t// in\n    tag_314:\n        /* \"#utility.yul\":3291:3354   */\n      swap2\n      pop\n        /* \"#utility.yul\":3245:3364   */\n      pop\n        /* \"#utility.yul\":2460:3371   */\n      swap3\n      swap6\n      pop\n      swap3\n      swap6\n      swap1\n      swap4\n      pop\n      jump\t// out\n        /* \"#utility.yul\":3377:3706   */\n    tag_48:\n        /* \"#utility.yul\":3436:3442   */\n      0x00\n        /* \"#utility.yul\":3485:3487   */\n      0x20\n        /* \"#utility.yul\":3473:3482   */\n      dup3\n        /* \"#utility.yul\":3464:3471   */\n      dup5\n        /* \"#utility.yul\":3460:3483   */\n      sub\n        /* \"#utility.yul\":3456:3488   */\n      slt\n        /* \"#utility.yul\":3453:3572   */\n      iszero\n      tag_316\n      jumpi\n        /* \"#utility.yul\":3491:3570   */\n      tag_317\n      tag_226\n      jump\t// in\n    tag_317:\n        /* \"#utility.yul\":3453:3572   */\n    tag_316:\n        /* \"#utility.yul\":3611:3612   */\n      0x00\n        /* \"#utility.yul\":3636:3689   */\n      tag_318\n        /* \"#utility.yul\":3681:3688   */\n      dup5\n        /* \"#utility.yul\":3672:3678   */\n      dup3\n        /* \"#utility.yul\":3661:3670   */\n      dup6\n        /* \"#utility.yul\":3657:3679   */\n      add\n        /* \"#utility.yul\":3636:3689   */\n      tag_236\n      jump\t// in\n    tag_318:\n        /* \"#utility.yul\":3626:3689   */\n      swap2\n      pop\n        /* \"#utility.yul\":3582:3699   */\n      pop\n        /* \"#utility.yul\":3377:3706   */\n      swap3\n      swap2\n      pop\n      pop\n      jump\t// out\n        /* \"#utility.yul\":3712:3826   */\n    tag_237:\n        /* \"#utility.yul\":3779:3785   */\n      0x00\n        /* \"#utility.yul\":3813:3818   */\n      dup2\n        /* \"#utility.yul\":3807:3819   */\n      mload\n        /* \"#utility.yul\":3797:3819   */\n      swap1\n      pop\n        /* \"#utility.yul\":3712:3826   */\n      swap2\n      swap1\n      pop\n      jump\t// out\n        /* \"#utility.yul\":3832:4006   */\n    tag_238:\n        /* \"#utility.yul\":3921:3932   */\n      0x00\n        /* \"#utility.yul\":3955:3961   */\n      dup3\n        /* \"#utility.yul\":3950:3953   */\n      dup3\n        /* \"#utility.yul\":3943:3962   */\n      mstore\n        /* \"#utility.yul\":3995:3999   */\n      0x20\n        /* \"#utility.yul\":3990:3993   */\n      dup3\n        /* \"#utility.yul\":3986:4000   */\n      add\n        /* \"#utility.yul\":3971:4000   */\n      swap1\n      pop\n        /* \"#utility.yul\":3832:4006   */\n      swap3\n      swap2\n      pop\n      pop\n      jump\t// out\n        /* \"#utility.yul\":4012:4144   */\n    tag_239:\n        /* \"#utility.yul\":4079:4083   */\n      0x00\n        /* \"#utility.yul\":4102:4105   */\n      dup2\n        /* \"#utility.yul\":4094:4105   */\n      swap1\n      pop\n        /* \"#utility.yul\":4132:4136   */\n      0x20\n        /* \"#utility.yul\":4127:4130   */\n      dup3\n        /* \"#utility.yul\":4123:4137   */\n      add\n        /* \"#utility.yul\":4115:4137   */\n      swap1\n      pop\n        /* \"#utility.yul\":4012:4144   */\n      swap2\n      swap1\n      pop\n      jump\t// out\n        /* \"#utility.yul\":4150:4258   */\n    tag_240:\n        /* \"#utility.yul\":4227:4251   */\n      tag_323\n        /* \"#utility.yul\":4245:4250   */\n      dup2\n        /* \"#utility.yul\":4227:4251   */\n      tag_223\n      jump\t// in\n    tag_323:\n        /* \"#utility.yul\":4222:4225   */\n      dup3\n        /* \"#utility.yul\":4215:4252   */\n      mstore\n        /* \"#utility.yul\":4150:4258   */\n      pop\n      pop\n      jump\t// out\n        /* \"#utility.yul\":4264:4443   */\n    tag_241:\n        /* \"#utility.yul\":4333:4343   */\n      0x00\n        /* \"#utility.yul\":4354:4400   */\n      tag_325\n        /* \"#utility.yul\":4396:4399   */\n      dup4\n        /* \"#utility.yul\":4388:4394   */\n      dup4\n        /* \"#utility.yul\":4354:4400   */\n      tag_240\n      jump\t// in\n    tag_325:\n        /* \"#utility.yul\":4432:4436   */\n      0x20\n        /* \"#utility.yul\":4427:4430   */\n      dup4\n        /* \"#utility.yul\":4423:4437   */\n      add\n        /* \"#utility.yul\":4409:4437   */\n      swap1\n      pop\n        /* \"#utility.yul\":4264:4443   */\n      swap3\n      swap2\n      pop\n      pop\n      jump\t// out\n        /* \"#utility.yul\":4449:4562   */\n    tag_242:\n        /* \"#utility.yul\":4519:4523   */\n      0x00\n        /* \"#utility.yul\":4551:4555   */\n      0x20\n        /* \"#utility.yul\":4546:4549   */\n      dup3\n        /* \"#utility.yul\":4542:4556   */\n      add\n        /* \"#utility.yul\":4534:4556   */\n      swap1\n      pop\n        /* \"#utility.yul\":4449:4562   */\n      swap2\n      swap1\n      pop\n      jump\t// out\n        /* \"#utility.yul\":4598:5310   */\n    tag_243:\n        /* \"#utility.yul\":4707:4710   */\n      0x00\n        /* \"#utility.yul\":4736:4790   */\n      tag_328\n        /* \"#utility.yul\":4784:4789   */\n      dup3\n        /* \"#utility.yul\":4736:4790   */\n      tag_237\n      jump\t// in\n    tag_328:\n        /* \"#utility.yul\":4806:4882   */\n      tag_329\n        /* \"#utility.yul\":4875:4881   */\n      dup2\n        /* \"#utility.yul\":4870:4873   */\n      dup6\n        /* \"#utility.yul\":4806:4882   */\n      tag_238\n      jump\t// in\n    tag_329:\n        /* \"#utility.yul\":4799:4882   */\n      swap4\n      pop\n        /* \"#utility.yul\":4906:4962   */\n      tag_330\n        /* \"#utility.yul\":4956:4961   */\n      dup4\n        /* \"#utility.yul\":4906:4962   */\n      tag_239\n      jump\t// in\n    tag_330:\n        /* \"#utility.yul\":4985:4992   */\n      dup1\n        /* \"#utility.yul\":5016:5017   */\n      0x00\n        /* \"#utility.yul\":5001:5285   */\n    tag_331:\n        /* \"#utility.yul\":5026:5032   */\n      dup4\n        /* \"#utility.yul\":5023:5024   */\n      dup2\n        /* \"#utility.yul\":5020:5033   */\n      lt\n        /* \"#utility.yul\":5001:5285   */\n      iszero\n      tag_333\n      jumpi\n        /* \"#utility.yul\":5102:5108   */\n      dup2\n        /* \"#utility.yul\":5096:5109   */\n      mload\n        /* \"#utility.yul\":5129:5192   */\n      tag_334\n        /* \"#utility.yul\":5188:5191   */\n      dup9\n        /* \"#utility.yul\":5173:5186   */\n      dup3\n        /* \"#utility.yul\":5129:5192   */\n      tag_241\n      jump\t// in\n    tag_334:\n        /* \"#utility.yul\":5122:5192   */\n      swap8\n      pop\n        /* \"#utility.yul\":5215:5275   */\n      tag_335\n        /* \"#utility.yul\":5268:5274   */\n      dup4\n        /* \"#utility.yul\":5215:5275   */\n      tag_242\n      jump\t// in\n    tag_335:\n        /* \"#utility.yul\":5205:5275   */\n      swap3\n      pop\n        /* \"#utility.yul\":5061:5285   */\n      pop\n        /* \"#utility.yul\":5048:5049   */\n      0x01\n        /* \"#utility.yul\":5045:5046   */\n      dup2\n        /* \"#utility.yul\":5041:5050   */\n      add\n        /* \"#utility.yul\":5036:5050   */\n      swap1\n      pop\n        /* \"#utility.yul\":5001:5285   */\n      jump(tag_331)\n    tag_333:\n        /* \"#utility.yul\":5005:5019   */\n      pop\n        /* \"#utility.yul\":5301:5304   */\n      dup6\n        /* \"#utility.yul\":5294:5304   */\n      swap4\n      pop\n        /* \"#utility.yul\":4712:5310   */\n      pop\n      pop\n      pop\n        /* \"#utility.yul\":4598:5310   */\n      swap3\n      swap2\n      pop\n      pop\n      jump\t// out\n        /* \"#utility.yul\":5316:5406   */\n    tag_244:\n        /* \"#utility.yul\":5350:5357   */\n      0x00\n        /* \"#utility.yul\":5393:5398   */\n      dup2\n        /* \"#utility.yul\":5386:5399   */\n      iszero\n        /* \"#utility.yul\":5379:5400   */\n      iszero\n        /* \"#utility.yul\":5368:5400   */\n      swap1\n      pop\n        /* \"#utility.yul\":5316:5406   */\n      swap2\n      swap1\n      pop\n      jump\t// out\n        /* \"#utility.yul\":5412:5511   */\n    tag_245:\n        /* \"#utility.yul\":5483:5504   */\n      tag_338\n        /* \"#utility.yul\":5498:5503   */\n      dup2\n        /* \"#utility.yul\":5483:5504   */\n      tag_244\n      jump\t// in\n    tag_338:\n        /* \"#utility.yul\":5478:5481   */\n      dup3\n        /* \"#utility.yul\":5471:5505   */\n      mstore\n        /* \"#utility.yul\":5412:5511   */\n      pop\n      pop\n      jump\t// out\n        /* \"#utility.yul\":5585:7060   */\n    tag_246:\n        /* \"#utility.yul\":5698:5701   */\n      0x00\n        /* \"#utility.yul\":5734:5738   */\n      0xa0\n        /* \"#utility.yul\":5729:5732   */\n      dup4\n        /* \"#utility.yul\":5725:5739   */\n      add\n        /* \"#utility.yul\":5832:5836   */\n      0x00\n        /* \"#utility.yul\":5825:5830   */\n      dup4\n        /* \"#utility.yul\":5821:5837   */\n      add\n        /* \"#utility.yul\":5815:5838   */\n      mload\n        /* \"#utility.yul\":5885:5888   */\n      dup5\n        /* \"#utility.yul\":5879:5883   */\n      dup3\n        /* \"#utility.yul\":5875:5889   */\n      sub\n        /* \"#utility.yul\":5868:5872   */\n      0x00\n        /* \"#utility.yul\":5863:5866   */\n      dup7\n        /* \"#utility.yul\":5859:5873   */\n      add\n        /* \"#utility.yul\":5852:5890   */\n      mstore\n        /* \"#utility.yul\":5911:6014   */\n      tag_340\n        /* \"#utility.yul\":6009:6013   */\n      dup3\n        /* \"#utility.yul\":5995:6007   */\n      dup3\n        /* \"#utility.yul\":5911:6014   */\n      tag_243\n      jump\t// in\n    tag_340:\n        /* \"#utility.yul\":5903:6014   */\n      swap2\n      pop\n        /* \"#utility.yul\":5749:6025   */\n      pop\n        /* \"#utility.yul\":6109:6113   */\n      0x20\n        /* \"#utility.yul\":6102:6107   */\n      dup4\n        /* \"#utility.yul\":6098:6114   */\n      add\n        /* \"#utility.yul\":6092:6115   */\n      mload\n        /* \"#utility.yul\":6162:6165   */\n      dup5\n        /* \"#utility.yul\":6156:6160   */\n      dup3\n        /* \"#utility.yul\":6152:6166   */\n      sub\n        /* \"#utility.yul\":6145:6149   */\n      0x20\n        /* \"#utility.yul\":6140:6143   */\n      dup7\n        /* \"#utility.yul\":6136:6150   */\n      add\n        /* \"#utility.yul\":6129:6167   */\n      mstore\n        /* \"#utility.yul\":6188:6291   */\n      tag_341\n        /* \"#utility.yul\":6286:6290   */\n      dup3\n        /* \"#utility.yul\":6272:6284   */\n      dup3\n        /* \"#utility.yul\":6188:6291   */\n      tag_243\n      jump\t// in\n    tag_341:\n        /* \"#utility.yul\":6180:6291   */\n      swap2\n      pop\n        /* \"#utility.yul\":6035:6302   */\n      pop\n        /* \"#utility.yul\":6389:6393   */\n      0x40\n        /* \"#utility.yul\":6382:6387   */\n      dup4\n        /* \"#utility.yul\":6378:6394   */\n      add\n        /* \"#utility.yul\":6372:6395   */\n      mload\n        /* \"#utility.yul\":6442:6445   */\n      dup5\n        /* \"#utility.yul\":6436:6440   */\n      dup3\n        /* \"#utility.yul\":6432:6446   */\n      sub\n        /* \"#utility.yul\":6425:6429   */\n      0x40\n        /* \"#utility.yul\":6420:6423   */\n      dup7\n        /* \"#utility.yul\":6416:6430   */\n      add\n        /* \"#utility.yul\":6409:6447   */\n      mstore\n        /* \"#utility.yul\":6468:6571   */\n      tag_342\n        /* \"#utility.yul\":6566:6570   */\n      dup3\n        /* \"#utility.yul\":6552:6564   */\n      dup3\n        /* \"#utility.yul\":6468:6571   */\n      tag_243\n      jump\t// in\n    tag_342:\n        /* \"#utility.yul\":6460:6571   */\n      swap2\n      pop\n        /* \"#utility.yul\":6312:6582   */\n      pop\n        /* \"#utility.yul\":6669:6673   */\n      0x60\n        /* \"#utility.yul\":6662:6667   */\n      dup4\n        /* \"#utility.yul\":6658:6674   */\n      add\n        /* \"#utility.yul\":6652:6675   */\n      mload\n        /* \"#utility.yul\":6722:6725   */\n      dup5\n        /* \"#utility.yul\":6716:6720   */\n      dup3\n        /* \"#utility.yul\":6712:6726   */\n      sub\n        /* \"#utility.yul\":6705:6709   */\n      0x60\n        /* \"#utility.yul\":6700:6703   */\n      dup7\n        /* \"#utility.yul\":6696:6710   */\n      add\n        /* \"#utility.yul\":6689:6727   */\n      mstore\n        /* \"#utility.yul\":6748:6851   */\n      tag_343\n        /* \"#utility.yul\":6846:6850   */\n      dup3\n        /* \"#utility.yul\":6832:6844   */\n      dup3\n        /* \"#utility.yul\":6748:6851   */\n      tag_243\n      jump\t// in\n    tag_343:\n        /* \"#utility.yul\":6740:6851   */\n      swap2\n      pop\n        /* \"#utility.yul\":6592:6862   */\n      pop\n        /* \"#utility.yul\":6947:6951   */\n      0x80\n        /* \"#utility.yul\":6940:6945   */\n      dup4\n        /* \"#utility.yul\":6936:6952   */\n      add\n        /* \"#utility.yul\":6930:6953   */\n      mload\n        /* \"#utility.yul\":6966:7023   */\n      tag_344\n        /* \"#utility.yul\":7017:7021   */\n      0x80\n        /* \"#utility.yul\":7012:7015   */\n      dup7\n        /* \"#utility.yul\":7008:7022   */\n      add\n        /* \"#utility.yul\":6994:7006   */\n      dup3\n        /* \"#utility.yul\":6966:7023   */\n      tag_245\n      jump\t// in\n    tag_344:\n        /* \"#utility.yul\":6872:7033   */\n      pop\n        /* \"#utility.yul\":7050:7054   */\n      dup1\n        /* \"#utility.yul\":7043:7054   */\n      swap2\n      pop\n        /* \"#utility.yul\":5703:7060   */\n      pop\n        /* \"#utility.yul\":5585:7060   */\n      swap3\n      swap2\n      pop\n      pop\n      jump\t// out\n        /* \"#utility.yul\":7066:7427   */\n    tag_51:\n        /* \"#utility.yul\":7203:7207   */\n      0x00\n        /* \"#utility.yul\":7241:7243   */\n      0x20\n        /* \"#utility.yul\":7230:7239   */\n      dup3\n        /* \"#utility.yul\":7226:7244   */\n      add\n        /* \"#utility.yul\":7218:7244   */\n      swap1\n      pop\n        /* \"#utility.yul\":7290:7299   */\n      dup2\n        /* \"#utility.yul\":7284:7288   */\n      dup2\n        /* \"#utility.yul\":7280:7300   */\n      sub\n        /* \"#utility.yul\":7276:7277   */\n      0x00\n        /* \"#utility.yul\":7265:7274   */\n      dup4\n        /* \"#utility.yul\":7261:7278   */\n      add\n        /* \"#utility.yul\":7254:7301   */\n      mstore\n        /* \"#utility.yul\":7318:7420   */\n      tag_346\n        /* \"#utility.yul\":7415:7419   */\n      dup2\n        /* \"#utility.yul\":7406:7412   */\n      dup5\n        /* \"#utility.yul\":7318:7420   */\n      tag_246\n      jump\t// in\n    tag_346:\n        /* \"#utility.yul\":7310:7420   */\n      swap1\n      pop\n        /* \"#utility.yul\":7066:7427   */\n      swap3\n      swap2\n      pop\n      pop\n      jump\t// out\n        /* \"#utility.yul\":7433:7542   */\n    tag_247:\n        /* \"#utility.yul\":7514:7535   */\n      tag_348\n        /* \"#utility.yul\":7529:7534   */\n      dup2\n        /* \"#utility.yul\":7514:7535   */\n      tag_244\n      jump\t// in\n    tag_348:\n        /* \"#utility.yul\":7509:7512   */\n      dup3\n        /* \"#utility.yul\":7502:7536   */\n      mstore\n        /* \"#utility.yul\":7433:7542   */\n      pop\n      pop\n      jump\t// out\n        /* \"#utility.yul\":7548:7758   */\n    tag_56:\n        /* \"#utility.yul\":7635:7639   */\n      0x00\n        /* \"#utility.yul\":7673:7675   */\n      0x20\n        /* \"#utility.yul\":7662:7671   */\n      dup3\n        /* \"#utility.yul\":7658:7676   */\n      add\n        /* \"#utility.yul\":7650:7676   */\n      swap1\n      pop\n        /* \"#utility.yul\":7686:7751   */\n      tag_350\n        /* \"#utility.yul\":7748:7749   */\n      0x00\n        /* \"#utility.yul\":7737:7746   */\n      dup4\n        /* \"#utility.yul\":7733:7750   */\n      add\n        /* \"#utility.yul\":7724:7730   */\n      dup5\n        /* \"#utility.yul\":7686:7751   */\n      tag_247\n      jump\t// in\n    tag_350:\n        /* \"#utility.yul\":7548:7758   */\n      swap3\n      swap2\n      pop\n      pop\n      jump\t// out\n        /* \"#utility.yul\":7764:8254   */\n    tag_72:\n        /* \"#utility.yul\":7840:7846   */\n      0x00\n        /* \"#utility.yul\":7848:7854   */\n      dup1\n        /* \"#utility.yul\":7897:7899   */\n      0x40\n        /* \"#utility.yul\":7885:7894   */\n      dup4\n        /* \"#utility.yul\":7876:7883   */\n      dup6\n        /* \"#utility.yul\":7872:7895   */\n      sub\n        /* \"#utility.yul\":7868:7900   */\n      slt\n        /* \"#utility.yul\":7865:7984   */\n      iszero\n      tag_352\n      jumpi\n        /* \"#utility.yul\":7903:7982   */\n      tag_353\n      tag_226\n      jump\t// in\n    tag_353:\n        /* \"#utility.yul\":7865:7984   */\n    tag_352:\n        /* \"#utility.yul\":8023:8024   */\n      0x00\n        /* \"#utility.yul\":8048:8109   */\n      tag_354\n        /* \"#utility.yul\":8101:8108   */\n      dup6\n        /* \"#utility.yul\":8092:8098   */\n      dup3\n        /* \"#utility.yul\":8081:8090   */\n      dup7\n        /* \"#utility.yul\":8077:8099   */\n      add\n        /* \"#utility.yul\":8048:8109   */\n      tag_233\n      jump\t// in\n    tag_354:\n        /* \"#utility.yul\":8038:8109   */\n      swap3\n      pop\n        /* \"#utility.yul\":7994:8119   */\n      pop\n        /* \"#utility.yul\":8158:8160   */\n      0x20\n        /* \"#utility.yul\":8184:8237   */\n      tag_355\n        /* \"#utility.yul\":8229:8236   */\n      dup6\n        /* \"#utility.yul\":8220:8226   */\n      dup3\n        /* \"#utility.yul\":8209:8218   */\n      dup7\n        /* \"#utility.yul\":8205:8227   */\n      add\n        /* \"#utility.yul\":8184:8237   */\n      tag_229\n      jump\t// in\n    tag_355:\n        /* \"#utility.yul\":8174:8237   */\n      swap2\n      pop\n        /* \"#utility.yul\":8129:8247   */\n      pop\n        /* \"#utility.yul\":7764:8254   */\n      swap3\n      pop\n      swap3\n      swap1\n      pop\n      jump\t// out\n        /* \"#utility.yul\":8260:8378   */\n    tag_248:\n        /* \"#utility.yul\":8347:8371   */\n      tag_357\n        /* \"#utility.yul\":8365:8370   */\n      dup2\n        /* \"#utility.yul\":8347:8371   */\n      tag_234\n      jump\t// in\n    tag_357:\n        /* \"#utility.yul\":8342:8345   */\n      dup3\n        /* \"#utility.yul\":8335:8372   */\n      mstore\n        /* \"#utility.yul\":8260:8378   */\n      pop\n      pop\n      jump\t// out\n        /* \"#utility.yul\":8384:8606   */\n    tag_78:\n        /* \"#utility.yul\":8477:8481   */\n      0x00\n        /* \"#utility.yul\":8515:8517   */\n      0x20\n        /* \"#utility.yul\":8504:8513   */\n      dup3\n        /* \"#utility.yul\":8500:8518   */\n      add\n        /* \"#utility.yul\":8492:8518   */\n      swap1\n      pop\n        /* \"#utility.yul\":8528:8599   */\n      tag_359\n        /* \"#utility.yul\":8596:8597   */\n      0x00\n        /* \"#utility.yul\":8585:8594   */\n      dup4\n        /* \"#utility.yul\":8581:8598   */\n      add\n        /* \"#utility.yul\":8572:8578   */\n      dup5\n        /* \"#utility.yul\":8528:8599   */\n      tag_248\n      jump\t// in\n    tag_359:\n        /* \"#utility.yul\":8384:8606   */\n      swap3\n      swap2\n      pop\n      pop\n      jump\t// out\n        /* \"#utility.yul\":8612:8781   */\n    tag_249:\n        /* \"#utility.yul\":8696:8707   */\n      0x00\n        /* \"#utility.yul\":8730:8736   */\n      dup3\n        /* \"#utility.yul\":8725:8728   */\n      dup3\n        /* \"#utility.yul\":8718:8737   */\n      mstore\n        /* \"#utility.yul\":8770:8774   */\n      0x20\n        /* \"#utility.yul\":8765:8768   */\n      dup3\n        /* \"#utility.yul\":8761:8775   */\n      add\n        /* \"#utility.yul\":8746:8775   */\n      swap1\n      pop\n        /* \"#utility.yul\":8612:8781   */\n      swap3\n      swap2\n      pop\n      pop\n      jump\t// out\n        /* \"#utility.yul\":8787:8955   */\n    tag_250:\n        /* \"#utility.yul\":8927:8947   */\n      0x436f6e7472616374206973205061757365640000000000000000000000000000\n        /* \"#utility.yul\":8923:8924   */\n      0x00\n        /* \"#utility.yul\":8915:8921   */\n      dup3\n        /* \"#utility.yul\":8911:8925   */\n      add\n        /* \"#utility.yul\":8904:8948   */\n      mstore\n        /* \"#utility.yul\":8787:8955   */\n      pop\n      jump\t// out\n        /* \"#utility.yul\":8961:9327   */\n    tag_251:\n        /* \"#utility.yul\":9103:9106   */\n      0x00\n        /* \"#utility.yul\":9124:9191   */\n      tag_363\n        /* \"#utility.yul\":9188:9190   */\n      0x12\n        /* \"#utility.yul\":9183:9186   */\n      dup4\n        /* \"#utility.yul\":9124:9191   */\n      tag_249\n      jump\t// in\n    tag_363:\n        /* \"#utility.yul\":9117:9191   */\n      swap2\n      pop\n        /* \"#utility.yul\":9200:9293   */\n      tag_364\n        /* \"#utility.yul\":9289:9292   */\n      dup3\n        /* \"#utility.yul\":9200:9293   */\n      tag_250\n      jump\t// in\n    tag_364:\n        /* \"#utility.yul\":9318:9320   */\n      0x20\n        /* \"#utility.yul\":9313:9316   */\n      dup3\n        /* \"#utility.yul\":9309:9321   */\n      add\n        /* \"#utility.yul\":9302:9321   */\n      swap1\n      pop\n        /* \"#utility.yul\":8961:9327   */\n      swap2\n      swap1\n      pop\n      jump\t// out\n        /* \"#utility.yul\":9333:9752   */\n    tag_112:\n        /* \"#utility.yul\":9499:9503   */\n      0x00\n        /* \"#utility.yul\":9537:9539   */\n      0x20\n        /* \"#utility.yul\":9526:9535   */\n      dup3\n        /* \"#utility.yul\":9522:9540   */\n      add\n        /* \"#utility.yul\":9514:9540   */\n      swap1\n      pop\n        /* \"#utility.yul\":9586:9595   */\n      dup2\n        /* \"#utility.yul\":9580:9584   */\n      dup2\n        /* \"#utility.yul\":9576:9596   */\n      sub\n        /* \"#utility.yul\":9572:9573   */\n      0x00\n        /* \"#utility.yul\":9561:9570   */\n      dup4\n        /* \"#utility.yul\":9557:9574   */\n      add\n        /* \"#utility.yul\":9550:9597   */\n      mstore\n        /* \"#utility.yul\":9614:9745   */\n      tag_366\n        /* \"#utility.yul\":9740:9744   */\n      dup2\n        /* \"#utility.yul\":9614:9745   */\n      tag_251\n      jump\t// in\n    tag_366:\n        /* \"#utility.yul\":9606:9745   */\n      swap1\n      pop\n        /* \"#utility.yul\":9333:9752   */\n      swap2\n      swap1\n      pop\n      jump\t// out\n        /* \"#utility.yul\":9758:9939   */\n    tag_252:\n        /* \"#utility.yul\":9898:9931   */\n      0x496e73756666696369656e7420546f6b656e7320746f20576974684472617700\n        /* \"#utility.yul\":9894:9895   */\n      0x00\n        /* \"#utility.yul\":9886:9892   */\n      dup3\n        /* \"#utility.yul\":9882:9896   */\n      add\n        /* \"#utility.yul\":9875:9932   */\n      mstore\n        /* \"#utility.yul\":9758:9939   */\n      pop\n      jump\t// out\n        /* \"#utility.yul\":9945:10311   */\n    tag_253:\n        /* \"#utility.yul\":10087:10090   */\n      0x00\n        /* \"#utility.yul\":10108:10175   */\n      tag_369\n        /* \"#utility.yul\":10172:10174   */\n      0x1f\n        /* \"#utility.yul\":10167:10170   */\n      dup4\n        /* \"#utility.yul\":10108:10175   */\n      tag_249\n      jump\t// in\n    tag_369:\n        /* \"#utility.yul\":10101:10175   */\n      swap2\n      pop\n        /* \"#utility.yul\":10184:10277   */\n      tag_370\n        /* \"#utility.yul\":10273:10276   */\n      dup3\n        /* \"#utility.yul\":10184:10277   */\n      tag_252\n      jump\t// in\n    tag_370:\n        /* \"#utility.yul\":10302:10304   */\n      0x20\n        /* \"#utility.yul\":10297:10300   */\n      dup3\n        /* \"#utility.yul\":10293:10305   */\n      add\n        /* \"#utility.yul\":10286:10305   */\n      swap1\n      pop\n        /* \"#utility.yul\":9945:10311   */\n      swap2\n      swap1\n      pop\n      jump\t// out\n        /* \"#utility.yul\":10317:10736   */\n    tag_117:\n        /* \"#utility.yul\":10483:10487   */\n      0x00\n        /* \"#utility.yul\":10521:10523   */\n      0x20\n        /* \"#utility.yul\":10510:10519   */\n      dup3\n        /* \"#utility.yul\":10506:10524   */\n      add\n        /* \"#utility.yul\":10498:10524   */\n      swap1\n      pop\n        /* \"#utility.yul\":10570:10579   */\n      dup2\n        /* \"#utility.yul\":10564:10568   */\n      dup2\n        /* \"#utility.yul\":10560:10580   */\n      sub\n        /* \"#utility.yul\":10556:10557   */\n      0x00\n        /* \"#utility.yul\":10545:10554   */\n      dup4\n        /* \"#utility.yul\":10541:10558   */\n      add\n        /* \"#utility.yul\":10534:10581   */\n      mstore\n        /* \"#utility.yul\":10598:10729   */\n      tag_372\n        /* \"#utility.yul\":10724:10728   */\n      dup2\n        /* \"#utility.yul\":10598:10729   */\n      tag_253\n      jump\t// in\n    tag_372:\n        /* \"#utility.yul\":10590:10729   */\n      swap1\n      pop\n        /* \"#utility.yul\":10317:10736   */\n      swap2\n      swap1\n      pop\n      jump\t// out\n        /* \"#utility.yul\":10742:10922   */\n    tag_254:\n        /* \"#utility.yul\":10790:10867   */\n      0x4e487b7100000000000000000000000000000000000000000000000000000000\n        /* \"#utility.yul\":10787:10788   */\n      0x00\n        /* \"#utility.yul\":10780:10868   */\n      mstore\n        /* \"#utility.yul\":10887:10891   */\n      0x11\n        /* \"#utility.yul\":10884:10885   */\n      0x04\n        /* \"#utility.yul\":10877:10892   */\n      mstore\n        /* \"#utility.yul\":10911:10915   */\n      0x24\n        /* \"#utility.yul\":10908:10909   */\n      0x00\n        /* \"#utility.yul\":10901:10916   */\n      revert\n        /* \"#utility.yul\":10928:11122   */\n    tag_122:\n        /* \"#utility.yul\":10968:10972   */\n      0x00\n        /* \"#utility.yul\":10988:11008   */\n      tag_375\n        /* \"#utility.yul\":11006:11007   */\n      dup3\n        /* \"#utility.yul\":10988:11008   */\n      tag_223\n      jump\t// in\n    tag_375:\n        /* \"#utility.yul\":10983:11008   */\n      swap2\n      pop\n        /* \"#utility.yul\":11022:11042   */\n      tag_376\n        /* \"#utility.yul\":11040:11041   */\n      dup4\n        /* \"#utility.yul\":11022:11042   */\n      tag_223\n      jump\t// in\n    tag_376:\n        /* \"#utility.yul\":11017:11042   */\n      swap3\n      pop\n        /* \"#utility.yul\":11066:11067   */\n      dup3\n        /* \"#utility.yul\":11063:11064   */\n      dup3\n        /* \"#utility.yul\":11059:11068   */\n      sub\n        /* \"#utility.yul\":11051:11068   */\n      swap1\n      pop\n        /* \"#utility.yul\":11090:11091   */\n      dup2\n        /* \"#utility.yul\":11084:11088   */\n      dup2\n        /* \"#utility.yul\":11081:11092   */\n      gt\n        /* \"#utility.yul\":11078:11115   */\n      iszero\n      tag_377\n      jumpi\n        /* \"#utility.yul\":11095:11113   */\n      tag_378\n      tag_254\n      jump\t// in\n    tag_378:\n        /* \"#utility.yul\":11078:11115   */\n    tag_377:\n        /* \"#utility.yul\":10928:11122   */\n      swap3\n      swap2\n      pop\n      pop\n      jump\t// out\n        /* \"#utility.yul\":11128:11292   */\n    tag_255:\n        /* \"#utility.yul\":11268:11284   */\n      0x496e76616c696420416d6f756e74000000000000000000000000000000000000\n        /* \"#utility.yul\":11264:11265   */\n      0x00\n        /* \"#utility.yul\":11256:11262   */\n      dup3\n        /* \"#utility.yul\":11252:11266   */\n      add\n        /* \"#utility.yul\":11245:11285   */\n      mstore\n        /* \"#utility.yul\":11128:11292   */\n      pop\n      jump\t// out\n        /* \"#utility.yul\":11298:11664   */\n    tag_256:\n        /* \"#utility.yul\":11440:11443   */\n      0x00\n        /* \"#utility.yul\":11461:11528   */\n      tag_381\n        /* \"#utility.yul\":11525:11527   */\n      0x0e\n        /* \"#utility.yul\":11520:11523   */\n      dup4\n        /* \"#utility.yul\":11461:11528   */\n      tag_249\n      jump\t// in\n    tag_381:\n        /* \"#utility.yul\":11454:11528   */\n      swap2\n      pop\n        /* \"#utility.yul\":11537:11630   */\n      tag_382\n        /* \"#utility.yul\":11626:11629   */\n      dup3\n        /* \"#utility.yul\":11537:11630   */\n      tag_255\n      jump\t// in\n    tag_382:\n        /* \"#utility.yul\":11655:11657   */\n      0x20\n        /* \"#utility.yul\":11650:11653   */\n      dup3\n        /* \"#utility.yul\":11646:11658   */\n      add\n        /* \"#utility.yul\":11639:11658   */\n      swap1\n      pop\n        /* \"#utility.yul\":11298:11664   */\n      swap2\n      swap1\n      pop\n      jump\t// out\n        /* \"#utility.yul\":11670:12089   */\n    tag_131:\n        /* \"#utility.yul\":11836:11840   */\n      0x00\n        /* \"#utility.yul\":11874:11876   */\n      0x20\n        /* \"#utility.yul\":11863:11872   */\n      dup3\n        /* \"#utility.yul\":11859:11877   */\n      add\n        /* \"#utility.yul\":11851:11877   */\n      swap1\n      pop\n        /* \"#utility.yul\":11923:11932   */\n      dup2\n        /* \"#utility.yul\":11917:11921   */\n      dup2\n        /* \"#utility.yul\":11913:11933   */\n      sub\n        /* \"#utility.yul\":11909:11910   */\n      0x00\n        /* \"#utility.yul\":11898:11907   */\n      dup4\n        /* \"#utility.yul\":11894:11911   */\n      add\n        /* \"#utility.yul\":11887:11934   */\n      mstore\n        /* \"#utility.yul\":11951:12082   */\n      tag_384\n        /* \"#utility.yul\":12077:12081   */\n      dup2\n        /* \"#utility.yul\":11951:12082   */\n      tag_256\n      jump\t// in\n    tag_384:\n        /* \"#utility.yul\":11943:12082   */\n      swap1\n      pop\n        /* \"#utility.yul\":11670:12089   */\n      swap2\n      swap1\n      pop\n      jump\t// out\n        /* \"#utility.yul\":12095:12286   */\n    tag_133:\n        /* \"#utility.yul\":12135:12138   */\n      0x00\n        /* \"#utility.yul\":12154:12174   */\n      tag_386\n        /* \"#utility.yul\":12172:12173   */\n      dup3\n        /* \"#utility.yul\":12154:12174   */\n      tag_223\n      jump\t// in\n    tag_386:\n        /* \"#utility.yul\":12149:12174   */\n      swap2\n      pop\n        /* \"#utility.yul\":12188:12208   */\n      tag_387\n        /* \"#utility.yul\":12206:12207   */\n      dup4\n        /* \"#utility.yul\":12188:12208   */\n      tag_223\n      jump\t// in\n    tag_387:\n        /* \"#utility.yul\":12183:12208   */\n      swap3\n      pop\n        /* \"#utility.yul\":12231:12232   */\n      dup3\n        /* \"#utility.yul\":12228:12229   */\n      dup3\n        /* \"#utility.yul\":12224:12233   */\n      add\n        /* \"#utility.yul\":12217:12233   */\n      swap1\n      pop\n        /* \"#utility.yul\":12252:12255   */\n      dup1\n        /* \"#utility.yul\":12249:12250   */\n      dup3\n        /* \"#utility.yul\":12246:12256   */\n      gt\n        /* \"#utility.yul\":12243:12279   */\n      iszero\n      tag_388\n      jumpi\n        /* \"#utility.yul\":12259:12277   */\n      tag_389\n      tag_254\n      jump\t// in\n    tag_389:\n        /* \"#utility.yul\":12243:12279   */\n    tag_388:\n        /* \"#utility.yul\":12095:12286   */\n      swap3\n      swap2\n      pop\n      pop\n      jump\t// out\n        /* \"#utility.yul\":12292:12513   */\n    tag_257:\n        /* \"#utility.yul\":12432:12466   */\n      0x4e6f205374616b656420616d6f756e7420616761696e73742074686973207573\n        /* \"#utility.yul\":12428:12429   */\n      0x00\n        /* \"#utility.yul\":12420:12426   */\n      dup3\n        /* \"#utility.yul\":12416:12430   */\n      add\n        /* \"#utility.yul\":12409:12467   */\n      mstore\n        /* \"#utility.yul\":12501:12505   */\n      0x6572000000000000000000000000000000000000000000000000000000000000\n        /* \"#utility.yul\":12496:12498   */\n      0x20\n        /* \"#utility.yul\":12488:12494   */\n      dup3\n        /* \"#utility.yul\":12484:12499   */\n      add\n        /* \"#utility.yul\":12477:12506   */\n      mstore\n        /* \"#utility.yul\":12292:12513   */\n      pop\n      jump\t// out\n        /* \"#utility.yul\":12519:12885   */\n    tag_258:\n        /* \"#utility.yul\":12661:12664   */\n      0x00\n        /* \"#utility.yul\":12682:12749   */\n      tag_392\n        /* \"#utility.yul\":12746:12748   */\n      0x22\n        /* \"#utility.yul\":12741:12744   */\n      dup4\n        /* \"#utility.yul\":12682:12749   */\n      tag_249\n      jump\t// in\n    tag_392:\n        /* \"#utility.yul\":12675:12749   */\n      swap2\n      pop\n        /* \"#utility.yul\":12758:12851   */\n      tag_393\n        /* \"#utility.yul\":12847:12850   */\n      dup3\n        /* \"#utility.yul\":12758:12851   */\n      tag_257\n      jump\t// in\n    tag_393:\n        /* \"#utility.yul\":12876:12878   */\n      0x40\n        /* \"#utility.yul\":12871:12874   */\n      dup3\n        /* \"#utility.yul\":12867:12879   */\n      add\n        /* \"#utility.yul\":12860:12879   */\n      swap1\n      pop\n        /* \"#utility.yul\":12519:12885   */\n      swap2\n      swap1\n      pop\n      jump\t// out\n        /* \"#utility.yul\":12891:13310   */\n    tag_139:\n        /* \"#utility.yul\":13057:13061   */\n      0x00\n        /* \"#utility.yul\":13095:13097   */\n      0x20\n        /* \"#utility.yul\":13084:13093   */\n      dup3\n        /* \"#utility.yul\":13080:13098   */\n      add\n        /* \"#utility.yul\":13072:13098   */\n      swap1\n      pop\n        /* \"#utility.yul\":13144:13153   */\n      dup2\n        /* \"#utility.yul\":13138:13142   */\n      dup2\n        /* \"#utility.yul\":13134:13154   */\n      sub\n        /* \"#utility.yul\":13130:13131   */\n      0x00\n        /* \"#utility.yul\":13119:13128   */\n      dup4\n        /* \"#utility.yul\":13115:13132   */\n      add\n        /* \"#utility.yul\":13108:13155   */\n      mstore\n        /* \"#utility.yul\":13172:13303   */\n      tag_395\n        /* \"#utility.yul\":13298:13302   */\n      dup2\n        /* \"#utility.yul\":13172:13303   */\n      tag_258\n      jump\t// in\n    tag_395:\n        /* \"#utility.yul\":13164:13303   */\n      swap1\n      pop\n        /* \"#utility.yul\":12891:13310   */\n      swap2\n      swap1\n      pop\n      jump\t// out\n        /* \"#utility.yul\":13316:13869   */\n    tag_145:\n        /* \"#utility.yul\":13493:13497   */\n      0x00\n        /* \"#utility.yul\":13531:13534   */\n      0x80\n        /* \"#utility.yul\":13520:13529   */\n      dup3\n        /* \"#utility.yul\":13516:13535   */\n      add\n        /* \"#utility.yul\":13508:13535   */\n      swap1\n      pop\n        /* \"#utility.yul\":13545:13616   */\n      tag_397\n        /* \"#utility.yul\":13613:13614   */\n      0x00\n        /* \"#utility.yul\":13602:13611   */\n      dup4\n        /* \"#utility.yul\":13598:13615   */\n      add\n        /* \"#utility.yul\":13589:13595   */\n      dup8\n        /* \"#utility.yul\":13545:13616   */\n      tag_224\n      jump\t// in\n    tag_397:\n        /* \"#utility.yul\":13626:13698   */\n      tag_398\n        /* \"#utility.yul\":13694:13696   */\n      0x20\n        /* \"#utility.yul\":13683:13692   */\n      dup4\n        /* \"#utility.yul\":13679:13697   */\n      add\n        /* \"#utility.yul\":13670:13676   */\n      dup7\n        /* \"#utility.yul\":13626:13698   */\n      tag_224\n      jump\t// in\n    tag_398:\n        /* \"#utility.yul\":13708:13780   */\n      tag_399\n        /* \"#utility.yul\":13776:13778   */\n      0x40\n        /* \"#utility.yul\":13765:13774   */\n      dup4\n        /* \"#utility.yul\":13761:13779   */\n      add\n        /* \"#utility.yul\":13752:13758   */\n      dup6\n        /* \"#utility.yul\":13708:13780   */\n      tag_224\n      jump\t// in\n    tag_399:\n        /* \"#utility.yul\":13790:13862   */\n      tag_400\n        /* \"#utility.yul\":13858:13860   */\n      0x60\n        /* \"#utility.yul\":13847:13856   */\n      dup4\n        /* \"#utility.yul\":13843:13861   */\n      add\n        /* \"#utility.yul\":13834:13840   */\n      dup5\n        /* \"#utility.yul\":13790:13862   */\n      tag_224\n      jump\t// in\n    tag_400:\n        /* \"#utility.yul\":13316:13869   */\n      swap6\n      swap5\n      pop\n      pop\n      pop\n      pop\n      pop\n      jump\t// out\n        /* \"#utility.yul\":13875:14042   */\n    tag_259:\n        /* \"#utility.yul\":14015:14034   */\n      0x5374616b696e6720697320706175736564000000000000000000000000000000\n        /* \"#utility.yul\":14011:14012   */\n      0x00\n        /* \"#utility.yul\":14003:14009   */\n      dup3\n        /* \"#utility.yul\":13999:14013   */\n      add\n        /* \"#utility.yul\":13992:14035   */\n      mstore\n        /* \"#utility.yul\":13875:14042   */\n      pop\n      jump\t// out\n        /* \"#utility.yul\":14048:14414   */\n    tag_260:\n        /* \"#utility.yul\":14190:14193   */\n      0x00\n        /* \"#utility.yul\":14211:14278   */\n      tag_403\n        /* \"#utility.yul\":14275:14277   */\n      0x11\n        /* \"#utility.yul\":14270:14273   */\n      dup4\n        /* \"#utility.yul\":14211:14278   */\n      tag_249\n      jump\t// in\n    tag_403:\n        /* \"#utility.yul\":14204:14278   */\n      swap2\n      pop\n        /* \"#utility.yul\":14287:14380   */\n      tag_404\n        /* \"#utility.yul\":14376:14379   */\n      dup3\n        /* \"#utility.yul\":14287:14380   */\n      tag_259\n      jump\t// in\n    tag_404:\n        /* \"#utility.yul\":14405:14407   */\n      0x20\n        /* \"#utility.yul\":14400:14403   */\n      dup3\n        /* \"#utility.yul\":14396:14408   */\n      add\n        /* \"#utility.yul\":14389:14408   */\n      swap1\n      pop\n        /* \"#utility.yul\":14048:14414   */\n      swap2\n      swap1\n      pop\n      jump\t// out\n        /* \"#utility.yul\":14420:14839   */\n    tag_169:\n        /* \"#utility.yul\":14586:14590   */\n      0x00\n        /* \"#utility.yul\":14624:14626   */\n      0x20\n        /* \"#utility.yul\":14613:14622   */\n      dup3\n        /* \"#utility.yul\":14609:14627   */\n      add\n        /* \"#utility.yul\":14601:14627   */\n      swap1\n      pop\n        /* \"#utility.yul\":14673:14682   */\n      dup2\n        /* \"#utility.yul\":14667:14671   */\n      dup2\n        /* \"#utility.yul\":14663:14683   */\n      sub\n        /* \"#utility.yul\":14659:14660   */\n      0x00\n        /* \"#utility.yul\":14648:14657   */\n      dup4\n        /* \"#utility.yul\":14644:14661   */\n      add\n        /* \"#utility.yul\":14637:14684   */\n      mstore\n        /* \"#utility.yul\":14701:14832   */\n      tag_406\n        /* \"#utility.yul\":14827:14831   */\n      dup2\n        /* \"#utility.yul\":14701:14832   */\n      tag_260\n      jump\t// in\n    tag_406:\n        /* \"#utility.yul\":14693:14832   */\n      swap1\n      pop\n        /* \"#utility.yul\":14420:14839   */\n      swap2\n      swap1\n      pop\n      jump\t// out\n        /* \"#utility.yul\":14845:15027   */\n    tag_261:\n        /* \"#utility.yul\":14985:15019   */\n      0x54726561737572792068617320496e73756666696369656e7420546f6b656e73\n        /* \"#utility.yul\":14981:14982   */\n      0x00\n        /* \"#utility.yul\":14973:14979   */\n      dup3\n        /* \"#utility.yul\":14969:14983   */\n      add\n        /* \"#utility.yul\":14962:15020   */\n      mstore\n        /* \"#utility.yul\":14845:15027   */\n      pop\n      jump\t// out\n        /* \"#utility.yul\":15033:15399   */\n    tag_262:\n        /* \"#utility.yul\":15175:15178   */\n      0x00\n        /* \"#utility.yul\":15196:15263   */\n      tag_409\n        /* \"#utility.yul\":15260:15262   */\n      0x20\n        /* \"#utility.yul\":15255:15258   */\n      dup4\n        /* \"#utility.yul\":15196:15263   */\n      tag_249\n      jump\t// in\n    tag_409:\n        /* \"#utility.yul\":15189:15263   */\n      swap2\n      pop\n        /* \"#utility.yul\":15272:15365   */\n      tag_410\n        /* \"#utility.yul\":15361:15364   */\n      dup3\n        /* \"#utility.yul\":15272:15365   */\n      tag_261\n      jump\t// in\n    tag_410:\n        /* \"#utility.yul\":15390:15392   */\n      0x20\n        /* \"#utility.yul\":15385:15388   */\n      dup3\n        /* \"#utility.yul\":15381:15393   */\n      add\n        /* \"#utility.yul\":15374:15393   */\n      swap1\n      pop\n        /* \"#utility.yul\":15033:15399   */\n      swap2\n      swap1\n      pop\n      jump\t// out\n        /* \"#utility.yul\":15405:15824   */\n    tag_172:\n        /* \"#utility.yul\":15571:15575   */\n      0x00\n        /* \"#utility.yul\":15609:15611   */\n      0x20\n        /* \"#utility.yul\":15598:15607   */\n      dup3\n        /* \"#utility.yul\":15594:15612   */\n      add\n        /* \"#utility.yul\":15586:15612   */\n      swap1\n      pop\n        /* \"#utility.yul\":15658:15667   */\n      dup2\n        /* \"#utility.yul\":15652:15656   */\n      dup2\n        /* \"#utility.yul\":15648:15668   */\n      sub\n        /* \"#utility.yul\":15644:15645   */\n      0x00\n        /* \"#utility.yul\":15633:15642   */\n      dup4\n        /* \"#utility.yul\":15629:15646   */\n      add\n        /* \"#utility.yul\":15622:15669   */\n      mstore\n        /* \"#utility.yul\":15686:15817   */\n      tag_412\n        /* \"#utility.yul\":15812:15816   */\n      dup2\n        /* \"#utility.yul\":15686:15817   */\n      tag_262\n      jump\t// in\n    tag_412:\n        /* \"#utility.yul\":15678:15817   */\n      swap1\n      pop\n        /* \"#utility.yul\":15405:15824   */\n      swap2\n      swap1\n      pop\n      jump\t// out\n        /* \"#utility.yul\":15830:16003   */\n    tag_263:\n        /* \"#utility.yul\":15970:15995   */\n      0x5573657220446f657327742068617665205374616b6564000000000000000000\n        /* \"#utility.yul\":15966:15967   */\n      0x00\n        /* \"#utility.yul\":15958:15964   */\n      dup3\n        /* \"#utility.yul\":15954:15968   */\n      add\n        /* \"#utility.yul\":15947:15996   */\n      mstore\n        /* \"#utility.yul\":15830:16003   */\n      pop\n      jump\t// out\n        /* \"#utility.yul\":16009:16375   */\n    tag_264:\n        /* \"#utility.yul\":16151:16154   */\n      0x00\n        /* \"#utility.yul\":16172:16239   */\n      tag_415\n        /* \"#utility.yul\":16236:16238   */\n      0x17\n        /* \"#utility.yul\":16231:16234   */\n      dup4\n        /* \"#utility.yul\":16172:16239   */\n      tag_249\n      jump\t// in\n    tag_415:\n        /* \"#utility.yul\":16165:16239   */\n      swap2\n      pop\n        /* \"#utility.yul\":16248:16341   */\n      tag_416\n        /* \"#utility.yul\":16337:16340   */\n      dup3\n        /* \"#utility.yul\":16248:16341   */\n      tag_263\n      jump\t// in\n    tag_416:\n        /* \"#utility.yul\":16366:16368   */\n      0x20\n        /* \"#utility.yul\":16361:16364   */\n      dup3\n        /* \"#utility.yul\":16357:16369   */\n      add\n        /* \"#utility.yul\":16350:16369   */\n      swap1\n      pop\n        /* \"#utility.yul\":16009:16375   */\n      swap2\n      swap1\n      pop\n      jump\t// out\n        /* \"#utility.yul\":16381:16800   */\n    tag_176:\n        /* \"#utility.yul\":16547:16551   */\n      0x00\n        /* \"#utility.yul\":16585:16587   */\n      0x20\n        /* \"#utility.yul\":16574:16583   */\n      dup3\n        /* \"#utility.yul\":16570:16588   */\n      add\n        /* \"#utility.yul\":16562:16588   */\n      swap1\n      pop\n        /* \"#utility.yul\":16634:16643   */\n      dup2\n        /* \"#utility.yul\":16628:16632   */\n      dup2\n        /* \"#utility.yul\":16624:16644   */\n      sub\n        /* \"#utility.yul\":16620:16621   */\n      0x00\n        /* \"#utility.yul\":16609:16618   */\n      dup4\n        /* \"#utility.yul\":16605:16622   */\n      add\n        /* \"#utility.yul\":16598:16645   */\n      mstore\n        /* \"#utility.yul\":16662:16793   */\n      tag_418\n        /* \"#utility.yul\":16788:16792   */\n      dup2\n        /* \"#utility.yul\":16662:16793   */\n      tag_264\n      jump\t// in\n    tag_418:\n        /* \"#utility.yul\":16654:16793   */\n      swap1\n      pop\n        /* \"#utility.yul\":16381:16800   */\n      swap2\n      swap1\n      pop\n      jump\t// out\n        /* \"#utility.yul\":16806:16986   */\n    tag_265:\n        /* \"#utility.yul\":16946:16978   */\n      0x496e73756666696369656e742046756e647320746f2057697468647261770000\n        /* \"#utility.yul\":16942:16943   */\n      0x00\n        /* \"#utility.yul\":16934:16940   */\n      dup3\n        /* \"#utility.yul\":16930:16944   */\n      add\n        /* \"#utility.yul\":16923:16979   */\n      mstore\n        /* \"#utility.yul\":16806:16986   */\n      pop\n      jump\t// out\n        /* \"#utility.yul\":16992:17358   */\n    tag_266:\n        /* \"#utility.yul\":17134:17137   */\n      0x00\n        /* \"#utility.yul\":17155:17222   */\n      tag_421\n        /* \"#utility.yul\":17219:17221   */\n      0x1e\n        /* \"#utility.yul\":17214:17217   */\n      dup4\n        /* \"#utility.yul\":17155:17222   */\n      tag_249\n      jump\t// in\n    tag_421:\n        /* \"#utility.yul\":17148:17222   */\n      swap2\n      pop\n        /* \"#utility.yul\":17231:17324   */\n      tag_422\n        /* \"#utility.yul\":17320:17323   */\n      dup3\n        /* \"#utility.yul\":17231:17324   */\n      tag_265\n      jump\t// in\n    tag_422:\n        /* \"#utility.yul\":17349:17351   */\n      0x20\n        /* \"#utility.yul\":17344:17347   */\n      dup3\n        /* \"#utility.yul\":17340:17352   */\n      add\n        /* \"#utility.yul\":17333:17352   */\n      swap1\n      pop\n        /* \"#utility.yul\":16992:17358   */\n      swap2\n      swap1\n      pop\n      jump\t// out\n        /* \"#utility.yul\":17364:17783   */\n    tag_187:\n        /* \"#utility.yul\":17530:17534   */\n      0x00\n        /* \"#utility.yul\":17568:17570   */\n      0x20\n        /* \"#utility.yul\":17557:17566   */\n      dup3\n        /* \"#utility.yul\":17553:17571   */\n      add\n        /* \"#utility.yul\":17545:17571   */\n      swap1\n      pop\n        /* \"#utility.yul\":17617:17626   */\n      dup2\n        /* \"#utility.yul\":17611:17615   */\n      dup2\n        /* \"#utility.yul\":17607:17627   */\n      sub\n        /* \"#utility.yul\":17603:17604   */\n      0x00\n        /* \"#utility.yul\":17592:17601   */\n      dup4\n        /* \"#utility.yul\":17588:17605   */\n      add\n        /* \"#utility.yul\":17581:17628   */\n      mstore\n        /* \"#utility.yul\":17645:17776   */\n      tag_424\n        /* \"#utility.yul\":17771:17775   */\n      dup2\n        /* \"#utility.yul\":17645:17776   */\n      tag_266\n      jump\t// in\n    tag_424:\n        /* \"#utility.yul\":17637:17776   */\n      swap1\n      pop\n        /* \"#utility.yul\":17364:17783   */\n      swap2\n      swap1\n      pop\n      jump\t// out\n        /* \"#utility.yul\":17789:17953   */\n    tag_267:\n        /* \"#utility.yul\":17929:17945   */\n      0x43616e6e6f74207374616b652030000000000000000000000000000000000000\n        /* \"#utility.yul\":17925:17926   */\n      0x00\n        /* \"#utility.yul\":17917:17923   */\n      dup3\n        /* \"#utility.yul\":17913:17927   */\n      add\n        /* \"#utility.yul\":17906:17946   */\n      mstore\n        /* \"#utility.yul\":17789:17953   */\n      pop\n      jump\t// out\n        /* \"#utility.yul\":17959:18325   */\n    tag_268:\n        /* \"#utility.yul\":18101:18104   */\n      0x00\n        /* \"#utility.yul\":18122:18189   */\n      tag_427\n        /* \"#utility.yul\":18186:18188   */\n      0x0e\n        /* \"#utility.yul\":18181:18184   */\n      dup4\n        /* \"#utility.yul\":18122:18189   */\n      tag_249\n      jump\t// in\n    tag_427:\n        /* \"#utility.yul\":18115:18189   */\n      swap2\n      pop\n        /* \"#utility.yul\":18198:18291   */\n      tag_428\n        /* \"#utility.yul\":18287:18290   */\n      dup3\n        /* \"#utility.yul\":18198:18291   */\n      tag_267\n      jump\t// in\n    tag_428:\n        /* \"#utility.yul\":18316:18318   */\n      0x20\n        /* \"#utility.yul\":18311:18314   */\n      dup3\n        /* \"#utility.yul\":18307:18319   */\n      add\n        /* \"#utility.yul\":18300:18319   */\n      swap1\n      pop\n        /* \"#utility.yul\":17959:18325   */\n      swap2\n      swap1\n      pop\n      jump\t// out\n        /* \"#utility.yul\":18331:18750   */\n    tag_202:\n        /* \"#utility.yul\":18497:18501   */\n      0x00\n        /* \"#utility.yul\":18535:18537   */\n      0x20\n        /* \"#utility.yul\":18524:18533   */\n      dup3\n        /* \"#utility.yul\":18520:18538   */\n      add\n        /* \"#utility.yul\":18512:18538   */\n      swap1\n      pop\n        /* \"#utility.yul\":18584:18593   */\n      dup2\n        /* \"#utility.yul\":18578:18582   */\n      dup2\n        /* \"#utility.yul\":18574:18594   */\n      sub\n        /* \"#utility.yul\":18570:18571   */\n      0x00\n        /* \"#utility.yul\":18559:18568   */\n      dup4\n        /* \"#utility.yul\":18555:18572   */\n      add\n        /* \"#utility.yul\":18548:18595   */\n      mstore\n        /* \"#utility.yul\":18612:18743   */\n      tag_430\n        /* \"#utility.yul\":18738:18742   */\n      dup2\n        /* \"#utility.yul\":18612:18743   */\n      tag_268\n      jump\t// in\n    tag_430:\n        /* \"#utility.yul\":18604:18743   */\n      swap1\n      pop\n        /* \"#utility.yul\":18331:18750   */\n      swap2\n      swap1\n      pop\n      jump\t// out\n        /* \"#utility.yul\":18756:18981   */\n    tag_269:\n        /* \"#utility.yul\":18896:18930   */\n      0x4f776e61626c653a206e6577206f776e657220697320746865207a65726f2061\n        /* \"#utility.yul\":18892:18893   */\n      0x00\n        /* \"#utility.yul\":18884:18890   */\n      dup3\n        /* \"#utility.yul\":18880:18894   */\n      add\n        /* \"#utility.yul\":18873:18931   */\n      mstore\n        /* \"#utility.yul\":18965:18973   */\n      0x6464726573730000000000000000000000000000000000000000000000000000\n        /* \"#utility.yul\":18960:18962   */\n      0x20\n        /* \"#utility.yul\":18952:18958   */\n      dup3\n        /* \"#utility.yul\":18948:18963   */\n      add\n        /* \"#utility.yul\":18941:18974   */\n      mstore\n        /* \"#utility.yul\":18756:18981   */\n      pop\n      jump\t// out\n        /* \"#utility.yul\":18987:19353   */\n    tag_270:\n        /* \"#utility.yul\":19129:19132   */\n      0x00\n        /* \"#utility.yul\":19150:19217   */\n      tag_433\n        /* \"#utility.yul\":19214:19216   */\n      0x26\n        /* \"#utility.yul\":19209:19212   */\n      dup4\n        /* \"#utility.yul\":19150:19217   */\n      tag_249\n      jump\t// in\n    tag_433:\n        /* \"#utility.yul\":19143:19217   */\n      swap2\n      pop\n        /* \"#utility.yul\":19226:19319   */\n      tag_434\n        /* \"#utility.yul\":19315:19318   */\n      dup3\n        /* \"#utility.yul\":19226:19319   */\n      tag_269\n      jump\t// in\n    tag_434:\n        /* \"#utility.yul\":19344:19346   */\n      0x40\n        /* \"#utility.yul\":19339:19342   */\n      dup3\n        /* \"#utility.yul\":19335:19347   */\n      add\n        /* \"#utility.yul\":19328:19347   */\n      swap1\n      pop\n        /* \"#utility.yul\":18987:19353   */\n      swap2\n      swap1\n      pop\n      jump\t// out\n        /* \"#utility.yul\":19359:19778   */\n    tag_213:\n        /* \"#utility.yul\":19525:19529   */\n      0x00\n        /* \"#utility.yul\":19563:19565   */\n      0x20\n        /* \"#utility.yul\":19552:19561   */\n      dup3\n        /* \"#utility.yul\":19548:19566   */\n      add\n        /* \"#utility.yul\":19540:19566   */\n      swap1\n      pop\n        /* \"#utility.yul\":19612:19621   */\n      dup2\n        /* \"#utility.yul\":19606:19610   */\n      dup2\n        /* \"#utility.yul\":19602:19622   */\n      sub\n        /* \"#utility.yul\":19598:19599   */\n      0x00\n        /* \"#utility.yul\":19587:19596   */\n      dup4\n        /* \"#utility.yul\":19583:19600   */\n      add\n        /* \"#utility.yul\":19576:19623   */\n      mstore\n        /* \"#utility.yul\":19640:19771   */\n      tag_436\n        /* \"#utility.yul\":19766:19770   */\n      dup2\n        /* \"#utility.yul\":19640:19771   */\n      tag_270\n      jump\t// in\n    tag_436:\n        /* \"#utility.yul\":19632:19771   */\n      swap1\n      pop\n        /* \"#utility.yul\":19359:19778   */\n      swap2\n      swap1\n      pop\n      jump\t// out\n        /* \"#utility.yul\":19784:19966   */\n    tag_271:\n        /* \"#utility.yul\":19924:19958   */\n      0x4f776e61626c653a2063616c6c6572206973206e6f7420746865206f776e6572\n        /* \"#utility.yul\":19920:19921   */\n      0x00\n        /* \"#utility.yul\":19912:19918   */\n      dup3\n        /* \"#utility.yul\":19908:19922   */\n      add\n        /* \"#utility.yul\":19901:19959   */\n      mstore\n        /* \"#utility.yul\":19784:19966   */\n      pop\n      jump\t// out\n        /* \"#utility.yul\":19972:20338   */\n    tag_272:\n        /* \"#utility.yul\":20114:20117   */\n      0x00\n        /* \"#utility.yul\":20135:20202   */\n      tag_439\n        /* \"#utility.yul\":20199:20201   */\n      0x20\n        /* \"#utility.yul\":20194:20197   */\n      dup4\n        /* \"#utility.yul\":20135:20202   */\n      tag_249\n      jump\t// in\n    tag_439:\n        /* \"#utility.yul\":20128:20202   */\n      swap2\n      pop\n        /* \"#utility.yul\":20211:20304   */\n      tag_440\n        /* \"#utility.yul\":20300:20303   */\n      dup3\n        /* \"#utility.yul\":20211:20304   */\n      tag_271\n      jump\t// in\n    tag_440:\n        /* \"#utility.yul\":20329:20331   */\n      0x20\n        /* \"#utility.yul\":20324:20327   */\n      dup3\n        /* \"#utility.yul\":20320:20332   */\n      add\n        /* \"#utility.yul\":20313:20332   */\n      swap1\n      pop\n        /* \"#utility.yul\":19972:20338   */\n      swap2\n      swap1\n      pop\n      jump\t// out\n        /* \"#utility.yul\":20344:20763   */\n    tag_221:\n        /* \"#utility.yul\":20510:20514   */\n      0x00\n        /* \"#utility.yul\":20548:20550   */\n      0x20\n        /* \"#utility.yul\":20537:20546   */\n      dup3\n        /* \"#utility.yul\":20533:20551   */\n      add\n        /* \"#utility.yul\":20525:20551   */\n      swap1\n      pop\n        /* \"#utility.yul\":20597:20606   */\n      dup2\n        /* \"#utility.yul\":20591:20595   */\n      dup2\n        /* \"#utility.yul\":20587:20607   */\n      sub\n        /* \"#utility.yul\":20583:20584   */\n      0x00\n        /* \"#utility.yul\":20572:20581   */\n      dup4\n        /* \"#utility.yul\":20568:20585   */\n      add\n        /* \"#utility.yul\":20561:20608   */\n      mstore\n        /* \"#utility.yul\":20625:20756   */\n      tag_442\n        /* \"#utility.yul\":20751:20755   */\n      dup2\n        /* \"#utility.yul\":20625:20756   */\n      tag_272\n      jump\t// in\n    tag_442:\n        /* \"#utility.yul\":20617:20756   */\n      swap1\n      pop\n        /* \"#utility.yul\":20344:20763   */\n      swap2\n      swap1\n      pop\n      jump\t// out\n\n    auxdata: 0xa26469706673582212208e3e88bfa1509d9ed47b20d9eae8c9e1bf560d4f552d4e19328e37b8ffc402e264736f6c63430008100033\n}\n",
				"bytecode": {
					"linkReferences": {},
					"object": "608060405234801561001057600080fd5b5061002d61002261003260201b60201c565b61003a60201b60201c565b6100fe565b600033905090565b60008060009054906101000a900473ffffffffffffffffffffffffffffffffffffffff169050816000806101000a81548173ffffffffffffffffffffffffffffffffffffffff021916908373ffffffffffffffffffffffffffffffffffffffff1602179055508173ffffffffffffffffffffffffffffffffffffffff168173ffffffffffffffffffffffffffffffffffffffff167f8be0079c531659141344cd1fd0a4f28419497f9722a3daafe3b4186f6b6457e060405160405180910390a35050565b611ca78061010d6000396000f3fe6080604052600436106101185760003560e01c806382723192116100a0578063a96b7f0511610064578063a96b7f051461039f578063adc07c6f146103dc578063ce46643b14610419578063e9ec2e9914610423578063f2fde38b1461043a5761016d565b806382723192146102e05780638da5cb5b146103095780638e080dee1461033457806396cad0db1461035d578063a405b048146103885761016d565b806352b391b2116100e757806352b391b2146101f95780635c975abb146102365780636f9fb98a14610261578063715018a61461028c5780637a766460146102a35761016d565b806306608c3c146101725780630d8f76141461019b5780631241a45a146101a55780633ae73259146101ce5761016d565b3661016d573373ffffffffffffffffffffffffffffffffffffffff167f1e57e3bb474320be3d2c77138f75b7c3941292d647f5f9634e33a8e94e0e069b3460405161016391906112aa565b60405180910390a2005b600080fd5b34801561017e57600080fd5b5061019960048036038101906101949190611354565b610463565b005b6101a3610639565b005b3480156101b157600080fd5b506101cc60048036038101906101c791906113d2565b61069f565b005b3480156101da57600080fd5b506101e3610928565b6040516101f091906112aa565b60405180910390f35b34801561020557600080fd5b50610220600480360381019061021b919061144d565b61092e565b60405161022d91906115de565b60405180910390f35b34801561024257600080fd5b5061024b610b02565b604051610258919061160f565b60405180910390f35b34801561026d57600080fd5b50610276610b15565b60405161028391906112aa565b60405180910390f35b34801561029857600080fd5b506102a1610b1d565b005b3480156102af57600080fd5b506102ca60048036038101906102c5919061144d565b610b31565b6040516102d791906112aa565b60405180910390f35b3480156102ec57600080fd5b506103076004803603810190610302919061162a565b610b7a565b005b34801561031557600080fd5b5061031e610d52565b60405161032b9190611679565b60405180910390f35b34801561034057600080fd5b5061035b60048036038101906103569190611354565b610d7b565b005b34801561036957600080fd5b50610372610e7a565b60405161037f91906112aa565b60405180910390f35b34801561039457600080fd5b5061039d610e80565b005b3480156103ab57600080fd5b506103c660048036038101906103c1919061144d565b610ee1565b6040516103d391906112aa565b60405180910390f35b3480156103e857600080fd5b5061040360048036038101906103fe919061144d565b610ef9565b604051610410919061160f565b60405180910390f35b610421610f24565b005b34801561042f57600080fd5b50610438611091565b005b34801561044657600080fd5b50610461600480360381019061045c919061144d565b611093565b005b600460009054906101000a900460ff16156104b3576040517f08c379a00000000000000000000000000000000000000000000000000000000081526004016104aa906116f1565b60405180910390fd5b81600160006104c0611116565b73ffffffffffffffffffffffffffffffffffffffff1673ffffffffffffffffffffffffffffffffffffffff16815260200190815260200160002054101561053c576040517f08c379a00000000000000000000000000000000000000000000000000000000081526004016105339061175d565b60405180910390fd5b8073ffffffffffffffffffffffffffffffffffffffff166108fc839081150290604051600060405180830381858888f19350505050158015610582573d6000803e3d6000fd5b508160016000610590611116565b73ffffffffffffffffffffffffffffffffffffffff1673ffffffffffffffffffffffffffffffffffffffff16815260200190815260200160002060008282546105d991906117ac565b925050819055506105e8611116565b73ffffffffffffffffffffffffffffffffffffffff167f1d72140a7ccdb496bef50918d2598dd7edefb514f70e6d4beb528cbd16c80b7d8360405161062d91906112aa565b60405180910390a25050565b61064161111e565b60003411610684576040517f08c379a000000000000000000000000000000000000000000000000000000000815260040161067b9061182c565b60405180910390fd5b3460036000828254610696919061184c565b92505081905550565b6106a761111e565b6000600160008773ffffffffffffffffffffffffffffffffffffffff1673ffffffffffffffffffffffffffffffffffffffff1681526020019081526020016000205411610729576040517f08c379a0000000000000000000000000000000000000000000000000000000008152600401610720906118f2565b60405180910390fd5b600260008673ffffffffffffffffffffffffffffffffffffffff1673ffffffffffffffffffffffffffffffffffffffff168152602001908152602001600020600001849080600181540180825580915050600190039060005260206000200160009091909190915055600260008673ffffffffffffffffffffffffffffffffffffffff1673ffffffffffffffffffffffffffffffffffffffff168152602001908152602001600020600101839080600181540180825580915050600190039060005260206000200160009091909190915055600260008673ffffffffffffffffffffffffffffffffffffffff1673ffffffffffffffffffffffffffffffffffffffff168152602001908152602001600020600201829080600181540180825580915050600190039060005260206000200160009091909190915055600260008673ffffffffffffffffffffffffffffffffffffffff1673ffffffffffffffffffffffffffffffffffffffff1681526020019081526020016000206003018190806001815401808255809150506001900390600052602060002001600090919091909150558473ffffffffffffffffffffffffffffffffffffffff167fb4dc03f150e6d614b4a64b5aa6600a4f413726a20001138df59ecc01bb8f7983858585856040516109199493929190611912565b60405180910390a25050505050565b60055481565b610936611260565b600260008373ffffffffffffffffffffffffffffffffffffffff1673ffffffffffffffffffffffffffffffffffffffff1681526020019081526020016000206040518060a0016040529081600082018054806020026020016040519081016040528092919081815260200182805480156109cf57602002820191906000526020600020905b8154815260200190600101908083116109bb575b5050505050815260200160018201805480602002602001604051908101604052809291908181526020018280548015610a2757602002820191906000526020600020905b815481526020019060010190808311610a13575b5050505050815260200160028201805480602002602001604051908101604052809291908181526020018280548015610a7f57602002820191906000526020600020905b815481526020019060010190808311610a6b575b5050505050815260200160038201805480602002602001604051908101604052809291908181526020018280548015610ad757602002820191906000526020600020905b815481526020019060010190808311610ac3575b505050505081526020016004820160009054906101000a900460ff1615151515815250509050919050565b600460009054906101000a900460ff1681565b600047905090565b610b2561111e565b610b2f600061119c565b565b6000600160008373ffffffffffffffffffffffffffffffffffffffff1673ffffffffffffffffffffffffffffffffffffffff168152602001908152602001600020549050919050565b610b8261111e565b600460009054906101000a900460ff1615610bd2576040517f08c379a0000000000000000000000000000000000000000000000000000000008152600401610bc9906119a3565b60405180910390fd5b600354811115610c17576040517f08c379a0000000000000000000000000000000000000000000000000000000008152600401610c0e90611a0f565b60405180910390fd5b600060016000610c25611116565b73ffffffffffffffffffffffffffffffffffffffff1673ffffffffffffffffffffffffffffffffffffffff1681526020019081526020016000205411610ca0576040517f08c379a0000000000000000000000000000000000000000000000000000000008152600401610c9790611a7b565b60405180910390fd5b8173ffffffffffffffffffffffffffffffffffffffff166108fc829081150290604051600060405180830381858888f19350505050158015610ce6573d6000803e3d6000fd5b508060036000828254610cf991906117ac565b925050819055508173ffffffffffffffffffffffffffffffffffffffff167f1d72140a7ccdb496bef50918d2598dd7edefb514f70e6d4beb528cbd16c80b7d82604051610d4691906112aa565b60405180910390a25050565b60008060009054906101000a900473ffffffffffffffffffffffffffffffffffffffff16905090565b610d8361111e565b816003541015610dc8576040517f08c379a0000000000000000000000000000000000000000000000000000000008152600401610dbf90611ae7565b60405180910390fd5b8073ffffffffffffffffffffffffffffffffffffffff166108fc839081150290604051600060405180830381858888f19350505050158015610e0e573d6000803e3d6000fd5b508160036000828254610e2191906117ac565b925050819055508073ffffffffffffffffffffffffffffffffffffffff167f1d72140a7ccdb496bef50918d2598dd7edefb514f70e6d4beb528cbd16c80b7d83604051610e6e91906112aa565b60405180910390a25050565b60035481565b610e8861111e565b60011515600460009054906101000a900460ff16151503610ec3576000600460006101000a81548160ff021916908315150217905550610edf565b6001600460006101000a81548160ff0219169083151502179055505b565b60016020528060005260406000206000915090505481565b60026020528060005260406000206000915090508060040160009054906101000a900460ff16905081565b600460009054906101000a900460ff1615610f74576040517f08c379a0000000000000000000000000000000000000000000000000000000008152600401610f6b906119a3565b60405180910390fd5b60003411610fb7576040517f08c379a0000000000000000000000000000000000000000000000000000000008152600401610fae90611b53565b60405180910390fd5b3460016000610fc4611116565b73ffffffffffffffffffffffffffffffffffffffff1673ffffffffffffffffffffffffffffffffffffffff168152602001908152602001600020600082825461100d919061184c565b925050819055503460056000828254611026919061184c565b9250508190555060016002600061103b611116565b73ffffffffffffffffffffffffffffffffffffffff1673ffffffffffffffffffffffffffffffffffffffff16815260200190815260200160002060040160006101000a81548160ff021916908315150217905550565b565b61109b61111e565b600073ffffffffffffffffffffffffffffffffffffffff168173ffffffffffffffffffffffffffffffffffffffff160361110a576040517f08c379a000000000000000000000000000000000000000000000000000000000815260040161110190611be5565b60405180910390fd5b6111138161119c565b50565b600033905090565b611126611116565b73ffffffffffffffffffffffffffffffffffffffff16611144610d52565b73ffffffffffffffffffffffffffffffffffffffff161461119a576040517f08c379a000000000000000000000000000000000000000000000000000000000815260040161119190611c51565b60405180910390fd5b565b60008060009054906101000a900473ffffffffffffffffffffffffffffffffffffffff169050816000806101000a81548173ffffffffffffffffffffffffffffffffffffffff021916908373ffffffffffffffffffffffffffffffffffffffff1602179055508173ffffffffffffffffffffffffffffffffffffffff168173ffffffffffffffffffffffffffffffffffffffff167f8be0079c531659141344cd1fd0a4f28419497f9722a3daafe3b4186f6b6457e060405160405180910390a35050565b6040518060a00160405280606081526020016060815260200160608152602001606081526020016000151581525090565b6000819050919050565b6112a481611291565b82525050565b60006020820190506112bf600083018461129b565b92915050565b600080fd5b6112d381611291565b81146112de57600080fd5b50565b6000813590506112f0816112ca565b92915050565b600073ffffffffffffffffffffffffffffffffffffffff82169050919050565b6000611321826112f6565b9050919050565b61133181611316565b811461133c57600080fd5b50565b60008135905061134e81611328565b92915050565b6000806040838503121561136b5761136a6112c5565b5b6000611379858286016112e1565b925050602061138a8582860161133f565b9150509250929050565b600061139f826112f6565b9050919050565b6113af81611394565b81146113ba57600080fd5b50565b6000813590506113cc816113a6565b92915050565b600080600080600060a086880312156113ee576113ed6112c5565b5b60006113fc888289016113bd565b955050602061140d888289016112e1565b945050604061141e888289016112e1565b935050606061142f888289016112e1565b9250506080611440888289016112e1565b9150509295509295909350565b600060208284031215611463576114626112c5565b5b6000611471848285016113bd565b91505092915050565b600081519050919050565b600082825260208201905092915050565b6000819050602082019050919050565b6114af81611291565b82525050565b60006114c183836114a6565b60208301905092915050565b6000602082019050919050565b60006114e58261147a565b6114ef8185611485565b93506114fa83611496565b8060005b8381101561152b57815161151288826114b5565b975061151d836114cd565b9250506001810190506114fe565b5085935050505092915050565b60008115159050919050565b61154d81611538565b82525050565b600060a083016000830151848203600086015261157082826114da565b9150506020830151848203602086015261158a82826114da565b915050604083015184820360408601526115a482826114da565b915050606083015184820360608601526115be82826114da565b91505060808301516115d36080860182611544565b508091505092915050565b600060208201905081810360008301526115f88184611553565b905092915050565b61160981611538565b82525050565b60006020820190506116246000830184611600565b92915050565b60008060408385031215611641576116406112c5565b5b600061164f8582860161133f565b9250506020611660858286016112e1565b9150509250929050565b61167381611394565b82525050565b600060208201905061168e600083018461166a565b92915050565b600082825260208201905092915050565b7f436f6e7472616374206973205061757365640000000000000000000000000000600082015250565b60006116db601283611694565b91506116e6826116a5565b602082019050919050565b6000602082019050818103600083015261170a816116ce565b9050919050565b7f496e73756666696369656e7420546f6b656e7320746f20576974684472617700600082015250565b6000611747601f83611694565b915061175282611711565b602082019050919050565b600060208201905081810360008301526117768161173a565b9050919050565b7f4e487b7100000000000000000000000000000000000000000000000000000000600052601160045260246000fd5b60006117b782611291565b91506117c283611291565b92508282039050818111156117da576117d961177d565b5b92915050565b7f496e76616c696420416d6f756e74000000000000000000000000000000000000600082015250565b6000611816600e83611694565b9150611821826117e0565b602082019050919050565b6000602082019050818103600083015261184581611809565b9050919050565b600061185782611291565b915061186283611291565b925082820190508082111561187a5761187961177d565b5b92915050565b7f4e6f205374616b656420616d6f756e7420616761696e7374207468697320757360008201527f6572000000000000000000000000000000000000000000000000000000000000602082015250565b60006118dc602283611694565b91506118e782611880565b604082019050919050565b6000602082019050818103600083015261190b816118cf565b9050919050565b6000608082019050611927600083018761129b565b611934602083018661129b565b611941604083018561129b565b61194e606083018461129b565b95945050505050565b7f5374616b696e6720697320706175736564000000000000000000000000000000600082015250565b600061198d601183611694565b915061199882611957565b602082019050919050565b600060208201905081810360008301526119bc81611980565b9050919050565b7f54726561737572792068617320496e73756666696369656e7420546f6b656e73600082015250565b60006119f9602083611694565b9150611a04826119c3565b602082019050919050565b60006020820190508181036000830152611a28816119ec565b9050919050565b7f5573657220446f657327742068617665205374616b6564000000000000000000600082015250565b6000611a65601783611694565b9150611a7082611a2f565b602082019050919050565b60006020820190508181036000830152611a9481611a58565b9050919050565b7f496e73756666696369656e742046756e647320746f2057697468647261770000600082015250565b6000611ad1601e83611694565b9150611adc82611a9b565b602082019050919050565b60006020820190508181036000830152611b0081611ac4565b9050919050565b7f43616e6e6f74207374616b652030000000000000000000000000000000000000600082015250565b6000611b3d600e83611694565b9150611b4882611b07565b602082019050919050565b60006020820190508181036000830152611b6c81611b30565b9050919050565b7f4f776e61626c653a206e6577206f776e657220697320746865207a65726f206160008201527f6464726573730000000000000000000000000000000000000000000000000000602082015250565b6000611bcf602683611694565b9150611bda82611b73565b604082019050919050565b60006020820190508181036000830152611bfe81611bc2565b9050919050565b7f4f776e61626c653a2063616c6c6572206973206e6f7420746865206f776e6572600082015250565b6000611c3b602083611694565b9150611c4682611c05565b602082019050919050565b60006020820190508181036000830152611c6a81611c2e565b905091905056fea26469706673582212208e3e88bfa1509d9ed47b20d9eae8c9e1bf560d4f552d4e19328e37b8ffc402e264736f6c63430008100033",
					"opcodes": "PUSH1 0x80 PUSH1 0x40 MSTORE CALLVALUE DUP1 ISZERO PUSH2 0x10 JUMPI PUSH1 0x0 DUP1 REVERT JUMPDEST POP PUSH2 0x2D PUSH2 0x22 PUSH2 0x32 PUSH1 0x20 SHL PUSH1 0x20 SHR JUMP JUMPDEST PUSH2 0x3A PUSH1 0x20 SHL PUSH1 0x20 SHR JUMP JUMPDEST PUSH2 0xFE JUMP JUMPDEST PUSH1 0x0 CALLER SWAP1 POP SWAP1 JUMP JUMPDEST PUSH1 0x0 DUP1 PUSH1 0x0 SWAP1 SLOAD SWAP1 PUSH2 0x100 EXP SWAP1 DIV PUSH20 0xFFFFFFFFFFFFFFFFFFFFFFFFFFFFFFFFFFFFFFFF AND SWAP1 POP DUP2 PUSH1 0x0 DUP1 PUSH2 0x100 EXP DUP2 SLOAD DUP2 PUSH20 0xFFFFFFFFFFFFFFFFFFFFFFFFFFFFFFFFFFFFFFFF MUL NOT AND SWAP1 DUP4 PUSH20 0xFFFFFFFFFFFFFFFFFFFFFFFFFFFFFFFFFFFFFFFF AND MUL OR SWAP1 SSTORE POP DUP2 PUSH20 0xFFFFFFFFFFFFFFFFFFFFFFFFFFFFFFFFFFFFFFFF AND DUP2 PUSH20 0xFFFFFFFFFFFFFFFFFFFFFFFFFFFFFFFFFFFFFFFF AND PUSH32 0x8BE0079C531659141344CD1FD0A4F28419497F9722A3DAAFE3B4186F6B6457E0 PUSH1 0x40 MLOAD PUSH1 0x40 MLOAD DUP1 SWAP2 SUB SWAP1 LOG3 POP POP JUMP JUMPDEST PUSH2 0x1CA7 DUP1 PUSH2 0x10D PUSH1 0x0 CODECOPY PUSH1 0x0 RETURN INVALID PUSH1 0x80 PUSH1 0x40 MSTORE PUSH1 0x4 CALLDATASIZE LT PUSH2 0x118 JUMPI PUSH1 0x0 CALLDATALOAD PUSH1 0xE0 SHR DUP1 PUSH4 0x82723192 GT PUSH2 0xA0 JUMPI DUP1 PUSH4 0xA96B7F05 GT PUSH2 0x64 JUMPI DUP1 PUSH4 0xA96B7F05 EQ PUSH2 0x39F JUMPI DUP1 PUSH4 0xADC07C6F EQ PUSH2 0x3DC JUMPI DUP1 PUSH4 0xCE46643B EQ PUSH2 0x419 JUMPI DUP1 PUSH4 0xE9EC2E99 EQ PUSH2 0x423 JUMPI DUP1 PUSH4 0xF2FDE38B EQ PUSH2 0x43A JUMPI PUSH2 0x16D JUMP JUMPDEST DUP1 PUSH4 0x82723192 EQ PUSH2 0x2E0 JUMPI DUP1 PUSH4 0x8DA5CB5B EQ PUSH2 0x309 JUMPI DUP1 PUSH4 0x8E080DEE EQ PUSH2 0x334 JUMPI DUP1 PUSH4 0x96CAD0DB EQ PUSH2 0x35D JUMPI DUP1 PUSH4 0xA405B048 EQ PUSH2 0x388 JUMPI PUSH2 0x16D JUMP JUMPDEST DUP1 PUSH4 0x52B391B2 GT PUSH2 0xE7 JUMPI DUP1 PUSH4 0x52B391B2 EQ PUSH2 0x1F9 JUMPI DUP1 PUSH4 0x5C975ABB EQ PUSH2 0x236 JUMPI DUP1 PUSH4 0x6F9FB98A EQ PUSH2 0x261 JUMPI DUP1 PUSH4 0x715018A6 EQ PUSH2 0x28C JUMPI DUP1 PUSH4 0x7A766460 EQ PUSH2 0x2A3 JUMPI PUSH2 0x16D JUMP JUMPDEST DUP1 PUSH4 0x6608C3C EQ PUSH2 0x172 JUMPI DUP1 PUSH4 0xD8F7614 EQ PUSH2 0x19B JUMPI DUP1 PUSH4 0x1241A45A EQ PUSH2 0x1A5 JUMPI DUP1 PUSH4 0x3AE73259 EQ PUSH2 0x1CE JUMPI PUSH2 0x16D JUMP JUMPDEST CALLDATASIZE PUSH2 0x16D JUMPI CALLER PUSH20 0xFFFFFFFFFFFFFFFFFFFFFFFFFFFFFFFFFFFFFFFF AND PUSH32 0x1E57E3BB474320BE3D2C77138F75B7C3941292D647F5F9634E33A8E94E0E069B CALLVALUE PUSH1 0x40 MLOAD PUSH2 0x163 SWAP2 SWAP1 PUSH2 0x12AA JUMP JUMPDEST PUSH1 0x40 MLOAD DUP1 SWAP2 SUB SWAP1 LOG2 STOP JUMPDEST PUSH1 0x0 DUP1 REVERT JUMPDEST CALLVALUE DUP1 ISZERO PUSH2 0x17E JUMPI PUSH1 0x0 DUP1 REVERT JUMPDEST POP PUSH2 0x199 PUSH1 0x4 DUP1 CALLDATASIZE SUB DUP2 ADD SWAP1 PUSH2 0x194 SWAP2 SWAP1 PUSH2 0x1354 JUMP JUMPDEST PUSH2 0x463 JUMP JUMPDEST STOP JUMPDEST PUSH2 0x1A3 PUSH2 0x639 JUMP JUMPDEST STOP JUMPDEST CALLVALUE DUP1 ISZERO PUSH2 0x1B1 JUMPI PUSH1 0x0 DUP1 REVERT JUMPDEST POP PUSH2 0x1CC PUSH1 0x4 DUP1 CALLDATASIZE SUB DUP2 ADD SWAP1 PUSH2 0x1C7 SWAP2 SWAP1 PUSH2 0x13D2 JUMP JUMPDEST PUSH2 0x69F JUMP JUMPDEST STOP JUMPDEST CALLVALUE DUP1 ISZERO PUSH2 0x1DA JUMPI PUSH1 0x0 DUP1 REVERT JUMPDEST POP PUSH2 0x1E3 PUSH2 0x928 JUMP JUMPDEST PUSH1 0x40 MLOAD PUSH2 0x1F0 SWAP2 SWAP1 PUSH2 0x12AA JUMP JUMPDEST PUSH1 0x40 MLOAD DUP1 SWAP2 SUB SWAP1 RETURN JUMPDEST CALLVALUE DUP1 ISZERO PUSH2 0x205 JUMPI PUSH1 0x0 DUP1 REVERT JUMPDEST POP PUSH2 0x220 PUSH1 0x4 DUP1 CALLDATASIZE SUB DUP2 ADD SWAP1 PUSH2 0x21B SWAP2 SWAP1 PUSH2 0x144D JUMP JUMPDEST PUSH2 0x92E JUMP JUMPDEST PUSH1 0x40 MLOAD PUSH2 0x22D SWAP2 SWAP1 PUSH2 0x15DE JUMP JUMPDEST PUSH1 0x40 MLOAD DUP1 SWAP2 SUB SWAP1 RETURN JUMPDEST CALLVALUE DUP1 ISZERO PUSH2 0x242 JUMPI PUSH1 0x0 DUP1 REVERT JUMPDEST POP PUSH2 0x24B PUSH2 0xB02 JUMP JUMPDEST PUSH1 0x40 MLOAD PUSH2 0x258 SWAP2 SWAP1 PUSH2 0x160F JUMP JUMPDEST PUSH1 0x40 MLOAD DUP1 SWAP2 SUB SWAP1 RETURN JUMPDEST CALLVALUE DUP1 ISZERO PUSH2 0x26D JUMPI PUSH1 0x0 DUP1 REVERT JUMPDEST POP PUSH2 0x276 PUSH2 0xB15 JUMP JUMPDEST PUSH1 0x40 MLOAD PUSH2 0x283 SWAP2 SWAP1 PUSH2 0x12AA JUMP JUMPDEST PUSH1 0x40 MLOAD DUP1 SWAP2 SUB SWAP1 RETURN JUMPDEST CALLVALUE DUP1 ISZERO PUSH2 0x298 JUMPI PUSH1 0x0 DUP1 REVERT JUMPDEST POP PUSH2 0x2A1 PUSH2 0xB1D JUMP JUMPDEST STOP JUMPDEST CALLVALUE DUP1 ISZERO PUSH2 0x2AF JUMPI PUSH1 0x0 DUP1 REVERT JUMPDEST POP PUSH2 0x2CA PUSH1 0x4 DUP1 CALLDATASIZE SUB DUP2 ADD SWAP1 PUSH2 0x2C5 SWAP2 SWAP1 PUSH2 0x144D JUMP JUMPDEST PUSH2 0xB31 JUMP JUMPDEST PUSH1 0x40 MLOAD PUSH2 0x2D7 SWAP2 SWAP1 PUSH2 0x12AA JUMP JUMPDEST PUSH1 0x40 MLOAD DUP1 SWAP2 SUB SWAP1 RETURN JUMPDEST CALLVALUE DUP1 ISZERO PUSH2 0x2EC JUMPI PUSH1 0x0 DUP1 REVERT JUMPDEST POP PUSH2 0x307 PUSH1 0x4 DUP1 CALLDATASIZE SUB DUP2 ADD SWAP1 PUSH2 0x302 SWAP2 SWAP1 PUSH2 0x162A JUMP JUMPDEST PUSH2 0xB7A JUMP JUMPDEST STOP JUMPDEST CALLVALUE DUP1 ISZERO PUSH2 0x315 JUMPI PUSH1 0x0 DUP1 REVERT JUMPDEST POP PUSH2 0x31E PUSH2 0xD52 JUMP JUMPDEST PUSH1 0x40 MLOAD PUSH2 0x32B SWAP2 SWAP1 PUSH2 0x1679 JUMP JUMPDEST PUSH1 0x40 MLOAD DUP1 SWAP2 SUB SWAP1 RETURN JUMPDEST CALLVALUE DUP1 ISZERO PUSH2 0x340 JUMPI PUSH1 0x0 DUP1 REVERT JUMPDEST POP PUSH2 0x35B PUSH1 0x4 DUP1 CALLDATASIZE SUB DUP2 ADD SWAP1 PUSH2 0x356 SWAP2 SWAP1 PUSH2 0x1354 JUMP JUMPDEST PUSH2 0xD7B JUMP JUMPDEST STOP JUMPDEST CALLVALUE DUP1 ISZERO PUSH2 0x369 JUMPI PUSH1 0x0 DUP1 REVERT JUMPDEST POP PUSH2 0x372 PUSH2 0xE7A JUMP JUMPDEST PUSH1 0x40 MLOAD PUSH2 0x37F SWAP2 SWAP1 PUSH2 0x12AA JUMP JUMPDEST PUSH1 0x40 MLOAD DUP1 SWAP2 SUB SWAP1 RETURN JUMPDEST CALLVALUE DUP1 ISZERO PUSH2 0x394 JUMPI PUSH1 0x0 DUP1 REVERT JUMPDEST POP PUSH2 0x39D PUSH2 0xE80 JUMP JUMPDEST STOP JUMPDEST CALLVALUE DUP1 ISZERO PUSH2 0x3AB JUMPI PUSH1 0x0 DUP1 REVERT JUMPDEST POP PUSH2 0x3C6 PUSH1 0x4 DUP1 CALLDATASIZE SUB DUP2 ADD SWAP1 PUSH2 0x3C1 SWAP2 SWAP1 PUSH2 0x144D JUMP JUMPDEST PUSH2 0xEE1 JUMP JUMPDEST PUSH1 0x40 MLOAD PUSH2 0x3D3 SWAP2 SWAP1 PUSH2 0x12AA JUMP JUMPDEST PUSH1 0x40 MLOAD DUP1 SWAP2 SUB SWAP1 RETURN JUMPDEST CALLVALUE DUP1 ISZERO PUSH2 0x3E8 JUMPI PUSH1 0x0 DUP1 REVERT JUMPDEST POP PUSH2 0x403 PUSH1 0x4 DUP1 CALLDATASIZE SUB DUP2 ADD SWAP1 PUSH2 0x3FE SWAP2 SWAP1 PUSH2 0x144D JUMP JUMPDEST PUSH2 0xEF9 JUMP JUMPDEST PUSH1 0x40 MLOAD PUSH2 0x410 SWAP2 SWAP1 PUSH2 0x160F JUMP JUMPDEST PUSH1 0x40 MLOAD DUP1 SWAP2 SUB SWAP1 RETURN JUMPDEST PUSH2 0x421 PUSH2 0xF24 JUMP JUMPDEST STOP JUMPDEST CALLVALUE DUP1 ISZERO PUSH2 0x42F JUMPI PUSH1 0x0 DUP1 REVERT JUMPDEST POP PUSH2 0x438 PUSH2 0x1091 JUMP JUMPDEST STOP JUMPDEST CALLVALUE DUP1 ISZERO PUSH2 0x446 JUMPI PUSH1 0x0 DUP1 REVERT JUMPDEST POP PUSH2 0x461 PUSH1 0x4 DUP1 CALLDATASIZE SUB DUP2 ADD SWAP1 PUSH2 0x45C SWAP2 SWAP1 PUSH2 0x144D JUMP JUMPDEST PUSH2 0x1093 JUMP JUMPDEST STOP JUMPDEST PUSH1 0x4 PUSH1 0x0 SWAP1 SLOAD SWAP1 PUSH2 0x100 EXP SWAP1 DIV PUSH1 0xFF AND ISZERO PUSH2 0x4B3 JUMPI PUSH1 0x40 MLOAD PUSH32 0x8C379A000000000000000000000000000000000000000000000000000000000 DUP2 MSTORE PUSH1 0x4 ADD PUSH2 0x4AA SWAP1 PUSH2 0x16F1 JUMP JUMPDEST PUSH1 0x40 MLOAD DUP1 SWAP2 SUB SWAP1 REVERT JUMPDEST DUP2 PUSH1 0x1 PUSH1 0x0 PUSH2 0x4C0 PUSH2 0x1116 JUMP JUMPDEST PUSH20 0xFFFFFFFFFFFFFFFFFFFFFFFFFFFFFFFFFFFFFFFF AND PUSH20 0xFFFFFFFFFFFFFFFFFFFFFFFFFFFFFFFFFFFFFFFF AND DUP2 MSTORE PUSH1 0x20 ADD SWAP1 DUP2 MSTORE PUSH1 0x20 ADD PUSH1 0x0 KECCAK256 SLOAD LT ISZERO PUSH2 0x53C JUMPI PUSH1 0x40 MLOAD PUSH32 0x8C379A000000000000000000000000000000000000000000000000000000000 DUP2 MSTORE PUSH1 0x4 ADD PUSH2 0x533 SWAP1 PUSH2 0x175D JUMP JUMPDEST PUSH1 0x40 MLOAD DUP1 SWAP2 SUB SWAP1 REVERT JUMPDEST DUP1 PUSH20 0xFFFFFFFFFFFFFFFFFFFFFFFFFFFFFFFFFFFFFFFF AND PUSH2 0x8FC DUP4 SWAP1 DUP2 ISZERO MUL SWAP1 PUSH1 0x40 MLOAD PUSH1 0x0 PUSH1 0x40 MLOAD DUP1 DUP4 SUB DUP2 DUP6 DUP9 DUP9 CALL SWAP4 POP POP POP POP ISZERO DUP1 ISZERO PUSH2 0x582 JUMPI RETURNDATASIZE PUSH1 0x0 DUP1 RETURNDATACOPY RETURNDATASIZE PUSH1 0x0 REVERT JUMPDEST POP DUP2 PUSH1 0x1 PUSH1 0x0 PUSH2 0x590 PUSH2 0x1116 JUMP JUMPDEST PUSH20 0xFFFFFFFFFFFFFFFFFFFFFFFFFFFFFFFFFFFFFFFF AND PUSH20 0xFFFFFFFFFFFFFFFFFFFFFFFFFFFFFFFFFFFFFFFF AND DUP2 MSTORE PUSH1 0x20 ADD SWAP1 DUP2 MSTORE PUSH1 0x20 ADD PUSH1 0x0 KECCAK256 PUSH1 0x0 DUP3 DUP3 SLOAD PUSH2 0x5D9 SWAP2 SWAP1 PUSH2 0x17AC JUMP JUMPDEST SWAP3 POP POP DUP2 SWAP1 SSTORE POP PUSH2 0x5E8 PUSH2 0x1116 JUMP JUMPDEST PUSH20 0xFFFFFFFFFFFFFFFFFFFFFFFFFFFFFFFFFFFFFFFF AND PUSH32 0x1D72140A7CCDB496BEF50918D2598DD7EDEFB514F70E6D4BEB528CBD16C80B7D DUP4 PUSH1 0x40 MLOAD PUSH2 0x62D SWAP2 SWAP1 PUSH2 0x12AA JUMP JUMPDEST PUSH1 0x40 MLOAD DUP1 SWAP2 SUB SWAP1 LOG2 POP POP JUMP JUMPDEST PUSH2 0x641 PUSH2 0x111E JUMP JUMPDEST PUSH1 0x0 CALLVALUE GT PUSH2 0x684 JUMPI PUSH1 0x40 MLOAD PUSH32 0x8C379A000000000000000000000000000000000000000000000000000000000 DUP2 MSTORE PUSH1 0x4 ADD PUSH2 0x67B SWAP1 PUSH2 0x182C JUMP JUMPDEST PUSH1 0x40 MLOAD DUP1 SWAP2 SUB SWAP1 REVERT JUMPDEST CALLVALUE PUSH1 0x3 PUSH1 0x0 DUP3 DUP3 SLOAD PUSH2 0x696 SWAP2 SWAP1 PUSH2 0x184C JUMP JUMPDEST SWAP3 POP POP DUP2 SWAP1 SSTORE POP JUMP JUMPDEST PUSH2 0x6A7 PUSH2 0x111E JUMP JUMPDEST PUSH1 0x0 PUSH1 0x1 PUSH1 0x0 DUP8 PUSH20 0xFFFFFFFFFFFFFFFFFFFFFFFFFFFFFFFFFFFFFFFF AND PUSH20 0xFFFFFFFFFFFFFFFFFFFFFFFFFFFFFFFFFFFFFFFF AND DUP2 MSTORE PUSH1 0x20 ADD SWAP1 DUP2 MSTORE PUSH1 0x20 ADD PUSH1 0x0 KECCAK256 SLOAD GT PUSH2 0x729 JUMPI PUSH1 0x40 MLOAD PUSH32 0x8C379A000000000000000000000000000000000000000000000000000000000 DUP2 MSTORE PUSH1 0x4 ADD PUSH2 0x720 SWAP1 PUSH2 0x18F2 JUMP JUMPDEST PUSH1 0x40 MLOAD DUP1 SWAP2 SUB SWAP1 REVERT JUMPDEST PUSH1 0x2 PUSH1 0x0 DUP7 PUSH20 0xFFFFFFFFFFFFFFFFFFFFFFFFFFFFFFFFFFFFFFFF AND PUSH20 0xFFFFFFFFFFFFFFFFFFFFFFFFFFFFFFFFFFFFFFFF AND DUP2 MSTORE PUSH1 0x20 ADD SWAP1 DUP2 MSTORE PUSH1 0x20 ADD PUSH1 0x0 KECCAK256 PUSH1 0x0 ADD DUP5 SWAP1 DUP1 PUSH1 0x1 DUP2 SLOAD ADD DUP1 DUP3 SSTORE DUP1 SWAP2 POP POP PUSH1 0x1 SWAP1 SUB SWAP1 PUSH1 0x0 MSTORE PUSH1 0x20 PUSH1 0x0 KECCAK256 ADD PUSH1 0x0 SWAP1 SWAP2 SWAP1 SWAP2 SWAP1 SWAP2 POP SSTORE PUSH1 0x2 PUSH1 0x0 DUP7 PUSH20 0xFFFFFFFFFFFFFFFFFFFFFFFFFFFFFFFFFFFFFFFF AND PUSH20 0xFFFFFFFFFFFFFFFFFFFFFFFFFFFFFFFFFFFFFFFF AND DUP2 MSTORE PUSH1 0x20 ADD SWAP1 DUP2 MSTORE PUSH1 0x20 ADD PUSH1 0x0 KECCAK256 PUSH1 0x1 ADD DUP4 SWAP1 DUP1 PUSH1 0x1 DUP2 SLOAD ADD DUP1 DUP3 SSTORE DUP1 SWAP2 POP POP PUSH1 0x1 SWAP1 SUB SWAP1 PUSH1 0x0 MSTORE PUSH1 0x20 PUSH1 0x0 KECCAK256 ADD PUSH1 0x0 SWAP1 SWAP2 SWAP1 SWAP2 SWAP1 SWAP2 POP SSTORE PUSH1 0x2 PUSH1 0x0 DUP7 PUSH20 0xFFFFFFFFFFFFFFFFFFFFFFFFFFFFFFFFFFFFFFFF AND PUSH20 0xFFFFFFFFFFFFFFFFFFFFFFFFFFFFFFFFFFFFFFFF AND DUP2 MSTORE PUSH1 0x20 ADD SWAP1 DUP2 MSTORE PUSH1 0x20 ADD PUSH1 0x0 KECCAK256 PUSH1 0x2 ADD DUP3 SWAP1 DUP1 PUSH1 0x1 DUP2 SLOAD ADD DUP1 DUP3 SSTORE DUP1 SWAP2 POP POP PUSH1 0x1 SWAP1 SUB SWAP1 PUSH1 0x0 MSTORE PUSH1 0x20 PUSH1 0x0 KECCAK256 ADD PUSH1 0x0 SWAP1 SWAP2 SWAP1 SWAP2 SWAP1 SWAP2 POP SSTORE PUSH1 0x2 PUSH1 0x0 DUP7 PUSH20 0xFFFFFFFFFFFFFFFFFFFFFFFFFFFFFFFFFFFFFFFF AND PUSH20 0xFFFFFFFFFFFFFFFFFFFFFFFFFFFFFFFFFFFFFFFF AND DUP2 MSTORE PUSH1 0x20 ADD SWAP1 DUP2 MSTORE PUSH1 0x20 ADD PUSH1 0x0 KECCAK256 PUSH1 0x3 ADD DUP2 SWAP1 DUP1 PUSH1 0x1 DUP2 SLOAD ADD DUP1 DUP3 SSTORE DUP1 SWAP2 POP POP PUSH1 0x1 SWAP1 SUB SWAP1 PUSH1 0x0 MSTORE PUSH1 0x20 PUSH1 0x0 KECCAK256 ADD PUSH1 0x0 SWAP1 SWAP2 SWAP1 SWAP2 SWAP1 SWAP2 POP SSTORE DUP5 PUSH20 0xFFFFFFFFFFFFFFFFFFFFFFFFFFFFFFFFFFFFFFFF AND PUSH32 0xB4DC03F150E6D614B4A64B5AA6600A4F413726A20001138DF59ECC01BB8F7983 DUP6 DUP6 DUP6 DUP6 PUSH1 0x40 MLOAD PUSH2 0x919 SWAP5 SWAP4 SWAP3 SWAP2 SWAP1 PUSH2 0x1912 JUMP JUMPDEST PUSH1 0x40 MLOAD DUP1 SWAP2 SUB SWAP1 LOG2 POP POP POP POP POP JUMP JUMPDEST PUSH1 0x5 SLOAD DUP2 JUMP JUMPDEST PUSH2 0x936 PUSH2 0x1260 JUMP JUMPDEST PUSH1 0x2 PUSH1 0x0 DUP4 PUSH20 0xFFFFFFFFFFFFFFFFFFFFFFFFFFFFFFFFFFFFFFFF AND PUSH20 0xFFFFFFFFFFFFFFFFFFFFFFFFFFFFFFFFFFFFFFFF AND DUP2 MSTORE PUSH1 0x20 ADD SWAP1 DUP2 MSTORE PUSH1 0x20 ADD PUSH1 0x0 KECCAK256 PUSH1 0x40 MLOAD DUP1 PUSH1 0xA0 ADD PUSH1 0x40 MSTORE SWAP1 DUP2 PUSH1 0x0 DUP3 ADD DUP1 SLOAD DUP1 PUSH1 0x20 MUL PUSH1 0x20 ADD PUSH1 0x40 MLOAD SWAP1 DUP2 ADD PUSH1 0x40 MSTORE DUP1 SWAP3 SWAP2 SWAP1 DUP2 DUP2 MSTORE PUSH1 0x20 ADD DUP3 DUP1 SLOAD DUP1 ISZERO PUSH2 0x9CF JUMPI PUSH1 0x20 MUL DUP3 ADD SWAP2 SWAP1 PUSH1 0x0 MSTORE PUSH1 0x20 PUSH1 0x0 KECCAK256 SWAP1 JUMPDEST DUP2 SLOAD DUP2 MSTORE PUSH1 0x20 ADD SWAP1 PUSH1 0x1 ADD SWAP1 DUP1 DUP4 GT PUSH2 0x9BB JUMPI JUMPDEST POP POP POP POP POP DUP2 MSTORE PUSH1 0x20 ADD PUSH1 0x1 DUP3 ADD DUP1 SLOAD DUP1 PUSH1 0x20 MUL PUSH1 0x20 ADD PUSH1 0x40 MLOAD SWAP1 DUP2 ADD PUSH1 0x40 MSTORE DUP1 SWAP3 SWAP2 SWAP1 DUP2 DUP2 MSTORE PUSH1 0x20 ADD DUP3 DUP1 SLOAD DUP1 ISZERO PUSH2 0xA27 JUMPI PUSH1 0x20 MUL DUP3 ADD SWAP2 SWAP1 PUSH1 0x0 MSTORE PUSH1 0x20 PUSH1 0x0 KECCAK256 SWAP1 JUMPDEST DUP2 SLOAD DUP2 MSTORE PUSH1 0x20 ADD SWAP1 PUSH1 0x1 ADD SWAP1 DUP1 DUP4 GT PUSH2 0xA13 JUMPI JUMPDEST POP POP POP POP POP DUP2 MSTORE PUSH1 0x20 ADD PUSH1 0x2 DUP3 ADD DUP1 SLOAD DUP1 PUSH1 0x20 MUL PUSH1 0x20 ADD PUSH1 0x40 MLOAD SWAP1 DUP2 ADD PUSH1 0x40 MSTORE DUP1 SWAP3 SWAP2 SWAP1 DUP2 DUP2 MSTORE PUSH1 0x20 ADD DUP3 DUP1 SLOAD DUP1 ISZERO PUSH2 0xA7F JUMPI PUSH1 0x20 MUL DUP3 ADD SWAP2 SWAP1 PUSH1 0x0 MSTORE PUSH1 0x20 PUSH1 0x0 KECCAK256 SWAP1 JUMPDEST DUP2 SLOAD DUP2 MSTORE PUSH1 0x20 ADD SWAP1 PUSH1 0x1 ADD SWAP1 DUP1 DUP4 GT PUSH2 0xA6B JUMPI JUMPDEST POP POP POP POP POP DUP2 MSTORE PUSH1 0x20 ADD PUSH1 0x3 DUP3 ADD DUP1 SLOAD DUP1 PUSH1 0x20 MUL PUSH1 0x20 ADD PUSH1 0x40 MLOAD SWAP1 DUP2 ADD PUSH1 0x40 MSTORE DUP1 SWAP3 SWAP2 SWAP1 DUP2 DUP2 MSTORE PUSH1 0x20 ADD DUP3 DUP1 SLOAD DUP1 ISZERO PUSH2 0xAD7 JUMPI PUSH1 0x20 MUL DUP3 ADD SWAP2 SWAP1 PUSH1 0x0 MSTORE PUSH1 0x20 PUSH1 0x0 KECCAK256 SWAP1 JUMPDEST DUP2 SLOAD DUP2 MSTORE PUSH1 0x20 ADD SWAP1 PUSH1 0x1 ADD SWAP1 DUP1 DUP4 GT PUSH2 0xAC3 JUMPI JUMPDEST POP POP POP POP POP DUP2 MSTORE PUSH1 0x20 ADD PUSH1 0x4 DUP3 ADD PUSH1 0x0 SWAP1 SLOAD SWAP1 PUSH2 0x100 EXP SWAP1 DIV PUSH1 0xFF AND ISZERO ISZERO ISZERO ISZERO DUP2 MSTORE POP POP SWAP1 POP SWAP2 SWAP1 POP JUMP JUMPDEST PUSH1 0x4 PUSH1 0x0 SWAP1 SLOAD SWAP1 PUSH2 0x100 EXP SWAP1 DIV PUSH1 0xFF AND DUP2 JUMP JUMPDEST PUSH1 0x0 SELFBALANCE SWAP1 POP SWAP1 JUMP JUMPDEST PUSH2 0xB25 PUSH2 0x111E JUMP JUMPDEST PUSH2 0xB2F PUSH1 0x0 PUSH2 0x119C JUMP JUMPDEST JUMP JUMPDEST PUSH1 0x0 PUSH1 0x1 PUSH1 0x0 DUP4 PUSH20 0xFFFFFFFFFFFFFFFFFFFFFFFFFFFFFFFFFFFFFFFF AND PUSH20 0xFFFFFFFFFFFFFFFFFFFFFFFFFFFFFFFFFFFFFFFF AND DUP2 MSTORE PUSH1 0x20 ADD SWAP1 DUP2 MSTORE PUSH1 0x20 ADD PUSH1 0x0 KECCAK256 SLOAD SWAP1 POP SWAP2 SWAP1 POP JUMP JUMPDEST PUSH2 0xB82 PUSH2 0x111E JUMP JUMPDEST PUSH1 0x4 PUSH1 0x0 SWAP1 SLOAD SWAP1 PUSH2 0x100 EXP SWAP1 DIV PUSH1 0xFF AND ISZERO PUSH2 0xBD2 JUMPI PUSH1 0x40 MLOAD PUSH32 0x8C379A000000000000000000000000000000000000000000000000000000000 DUP2 MSTORE PUSH1 0x4 ADD PUSH2 0xBC9 SWAP1 PUSH2 0x19A3 JUMP JUMPDEST PUSH1 0x40 MLOAD DUP1 SWAP2 SUB SWAP1 REVERT JUMPDEST PUSH1 0x3 SLOAD DUP2 GT ISZERO PUSH2 0xC17 JUMPI PUSH1 0x40 MLOAD PUSH32 0x8C379A000000000000000000000000000000000000000000000000000000000 DUP2 MSTORE PUSH1 0x4 ADD PUSH2 0xC0E SWAP1 PUSH2 0x1A0F JUMP JUMPDEST PUSH1 0x40 MLOAD DUP1 SWAP2 SUB SWAP1 REVERT JUMPDEST PUSH1 0x0 PUSH1 0x1 PUSH1 0x0 PUSH2 0xC25 PUSH2 0x1116 JUMP JUMPDEST PUSH20 0xFFFFFFFFFFFFFFFFFFFFFFFFFFFFFFFFFFFFFFFF AND PUSH20 0xFFFFFFFFFFFFFFFFFFFFFFFFFFFFFFFFFFFFFFFF AND DUP2 MSTORE PUSH1 0x20 ADD SWAP1 DUP2 MSTORE PUSH1 0x20 ADD PUSH1 0x0 KECCAK256 SLOAD GT PUSH2 0xCA0 JUMPI PUSH1 0x40 MLOAD PUSH32 0x8C379A000000000000000000000000000000000000000000000000000000000 DUP2 MSTORE PUSH1 0x4 ADD PUSH2 0xC97 SWAP1 PUSH2 0x1A7B JUMP JUMPDEST PUSH1 0x40 MLOAD DUP1 SWAP2 SUB SWAP1 REVERT JUMPDEST DUP2 PUSH20 0xFFFFFFFFFFFFFFFFFFFFFFFFFFFFFFFFFFFFFFFF AND PUSH2 0x8FC DUP3 SWAP1 DUP2 ISZERO MUL SWAP1 PUSH1 0x40 MLOAD PUSH1 0x0 PUSH1 0x40 MLOAD DUP1 DUP4 SUB DUP2 DUP6 DUP9 DUP9 CALL SWAP4 POP POP POP POP ISZERO DUP1 ISZERO PUSH2 0xCE6 JUMPI RETURNDATASIZE PUSH1 0x0 DUP1 RETURNDATACOPY RETURNDATASIZE PUSH1 0x0 REVERT JUMPDEST POP DUP1 PUSH1 0x3 PUSH1 0x0 DUP3 DUP3 SLOAD PUSH2 0xCF9 SWAP2 SWAP1 PUSH2 0x17AC JUMP JUMPDEST SWAP3 POP POP DUP2 SWAP1 SSTORE POP DUP2 PUSH20 0xFFFFFFFFFFFFFFFFFFFFFFFFFFFFFFFFFFFFFFFF AND PUSH32 0x1D72140A7CCDB496BEF50918D2598DD7EDEFB514F70E6D4BEB528CBD16C80B7D DUP3 PUSH1 0x40 MLOAD PUSH2 0xD46 SWAP2 SWAP1 PUSH2 0x12AA JUMP JUMPDEST PUSH1 0x40 MLOAD DUP1 SWAP2 SUB SWAP1 LOG2 POP POP JUMP JUMPDEST PUSH1 0x0 DUP1 PUSH1 0x0 SWAP1 SLOAD SWAP1 PUSH2 0x100 EXP SWAP1 DIV PUSH20 0xFFFFFFFFFFFFFFFFFFFFFFFFFFFFFFFFFFFFFFFF AND SWAP1 POP SWAP1 JUMP JUMPDEST PUSH2 0xD83 PUSH2 0x111E JUMP JUMPDEST DUP2 PUSH1 0x3 SLOAD LT ISZERO PUSH2 0xDC8 JUMPI PUSH1 0x40 MLOAD PUSH32 0x8C379A000000000000000000000000000000000000000000000000000000000 DUP2 MSTORE PUSH1 0x4 ADD PUSH2 0xDBF SWAP1 PUSH2 0x1AE7 JUMP JUMPDEST PUSH1 0x40 MLOAD DUP1 SWAP2 SUB SWAP1 REVERT JUMPDEST DUP1 PUSH20 0xFFFFFFFFFFFFFFFFFFFFFFFFFFFFFFFFFFFFFFFF AND PUSH2 0x8FC DUP4 SWAP1 DUP2 ISZERO MUL SWAP1 PUSH1 0x40 MLOAD PUSH1 0x0 PUSH1 0x40 MLOAD DUP1 DUP4 SUB DUP2 DUP6 DUP9 DUP9 CALL SWAP4 POP POP POP POP ISZERO DUP1 ISZERO PUSH2 0xE0E JUMPI RETURNDATASIZE PUSH1 0x0 DUP1 RETURNDATACOPY RETURNDATASIZE PUSH1 0x0 REVERT JUMPDEST POP DUP2 PUSH1 0x3 PUSH1 0x0 DUP3 DUP3 SLOAD PUSH2 0xE21 SWAP2 SWAP1 PUSH2 0x17AC JUMP JUMPDEST SWAP3 POP POP DUP2 SWAP1 SSTORE POP DUP1 PUSH20 0xFFFFFFFFFFFFFFFFFFFFFFFFFFFFFFFFFFFFFFFF AND PUSH32 0x1D72140A7CCDB496BEF50918D2598DD7EDEFB514F70E6D4BEB528CBD16C80B7D DUP4 PUSH1 0x40 MLOAD PUSH2 0xE6E SWAP2 SWAP1 PUSH2 0x12AA JUMP JUMPDEST PUSH1 0x40 MLOAD DUP1 SWAP2 SUB SWAP1 LOG2 POP POP JUMP JUMPDEST PUSH1 0x3 SLOAD DUP2 JUMP JUMPDEST PUSH2 0xE88 PUSH2 0x111E JUMP JUMPDEST PUSH1 0x1 ISZERO ISZERO PUSH1 0x4 PUSH1 0x0 SWAP1 SLOAD SWAP1 PUSH2 0x100 EXP SWAP1 DIV PUSH1 0xFF AND ISZERO ISZERO SUB PUSH2 0xEC3 JUMPI PUSH1 0x0 PUSH1 0x4 PUSH1 0x0 PUSH2 0x100 EXP DUP2 SLOAD DUP2 PUSH1 0xFF MUL NOT AND SWAP1 DUP4 ISZERO ISZERO MUL OR SWAP1 SSTORE POP PUSH2 0xEDF JUMP JUMPDEST PUSH1 0x1 PUSH1 0x4 PUSH1 0x0 PUSH2 0x100 EXP DUP2 SLOAD DUP2 PUSH1 0xFF MUL NOT AND SWAP1 DUP4 ISZERO ISZERO MUL OR SWAP1 SSTORE POP JUMPDEST JUMP JUMPDEST PUSH1 0x1 PUSH1 0x20 MSTORE DUP1 PUSH1 0x0 MSTORE PUSH1 0x40 PUSH1 0x0 KECCAK256 PUSH1 0x0 SWAP2 POP SWAP1 POP SLOAD DUP2 JUMP JUMPDEST PUSH1 0x2 PUSH1 0x20 MSTORE DUP1 PUSH1 0x0 MSTORE PUSH1 0x40 PUSH1 0x0 KECCAK256 PUSH1 0x0 SWAP2 POP SWAP1 POP DUP1 PUSH1 0x4 ADD PUSH1 0x0 SWAP1 SLOAD SWAP1 PUSH2 0x100 EXP SWAP1 DIV PUSH1 0xFF AND SWAP1 POP DUP2 JUMP JUMPDEST PUSH1 0x4 PUSH1 0x0 SWAP1 SLOAD SWAP1 PUSH2 0x100 EXP SWAP1 DIV PUSH1 0xFF AND ISZERO PUSH2 0xF74 JUMPI PUSH1 0x40 MLOAD PUSH32 0x8C379A000000000000000000000000000000000000000000000000000000000 DUP2 MSTORE PUSH1 0x4 ADD PUSH2 0xF6B SWAP1 PUSH2 0x19A3 JUMP JUMPDEST PUSH1 0x40 MLOAD DUP1 SWAP2 SUB SWAP1 REVERT JUMPDEST PUSH1 0x0 CALLVALUE GT PUSH2 0xFB7 JUMPI PUSH1 0x40 MLOAD PUSH32 0x8C379A000000000000000000000000000000000000000000000000000000000 DUP2 MSTORE PUSH1 0x4 ADD PUSH2 0xFAE SWAP1 PUSH2 0x1B53 JUMP JUMPDEST PUSH1 0x40 MLOAD DUP1 SWAP2 SUB SWAP1 REVERT JUMPDEST CALLVALUE PUSH1 0x1 PUSH1 0x0 PUSH2 0xFC4 PUSH2 0x1116 JUMP JUMPDEST PUSH20 0xFFFFFFFFFFFFFFFFFFFFFFFFFFFFFFFFFFFFFFFF AND PUSH20 0xFFFFFFFFFFFFFFFFFFFFFFFFFFFFFFFFFFFFFFFF AND DUP2 MSTORE PUSH1 0x20 ADD SWAP1 DUP2 MSTORE PUSH1 0x20 ADD PUSH1 0x0 KECCAK256 PUSH1 0x0 DUP3 DUP3 SLOAD PUSH2 0x100D SWAP2 SWAP1 PUSH2 0x184C JUMP JUMPDEST SWAP3 POP POP DUP2 SWAP1 SSTORE POP CALLVALUE PUSH1 0x5 PUSH1 0x0 DUP3 DUP3 SLOAD PUSH2 0x1026 SWAP2 SWAP1 PUSH2 0x184C JUMP JUMPDEST SWAP3 POP POP DUP2 SWAP1 SSTORE POP PUSH1 0x1 PUSH1 0x2 PUSH1 0x0 PUSH2 0x103B PUSH2 0x1116 JUMP JUMPDEST PUSH20 0xFFFFFFFFFFFFFFFFFFFFFFFFFFFFFFFFFFFFFFFF AND PUSH20 0xFFFFFFFFFFFFFFFFFFFFFFFFFFFFFFFFFFFFFFFF AND DUP2 MSTORE PUSH1 0x20 ADD SWAP1 DUP2 MSTORE PUSH1 0x20 ADD PUSH1 0x0 KECCAK256 PUSH1 0x4 ADD PUSH1 0x0 PUSH2 0x100 EXP DUP2 SLOAD DUP2 PUSH1 0xFF MUL NOT AND SWAP1 DUP4 ISZERO ISZERO MUL OR SWAP1 SSTORE POP JUMP JUMPDEST JUMP JUMPDEST PUSH2 0x109B PUSH2 0x111E JUMP JUMPDEST PUSH1 0x0 PUSH20 0xFFFFFFFFFFFFFFFFFFFFFFFFFFFFFFFFFFFFFFFF AND DUP2 PUSH20 0xFFFFFFFFFFFFFFFFFFFFFFFFFFFFFFFFFFFFFFFF AND SUB PUSH2 0x110A JUMPI PUSH1 0x40 MLOAD PUSH32 0x8C379A000000000000000000000000000000000000000000000000000000000 DUP2 MSTORE PUSH1 0x4 ADD PUSH2 0x1101 SWAP1 PUSH2 0x1BE5 JUMP JUMPDEST PUSH1 0x40 MLOAD DUP1 SWAP2 SUB SWAP1 REVERT JUMPDEST PUSH2 0x1113 DUP2 PUSH2 0x119C JUMP JUMPDEST POP JUMP JUMPDEST PUSH1 0x0 CALLER SWAP1 POP SWAP1 JUMP JUMPDEST PUSH2 0x1126 PUSH2 0x1116 JUMP JUMPDEST PUSH20 0xFFFFFFFFFFFFFFFFFFFFFFFFFFFFFFFFFFFFFFFF AND PUSH2 0x1144 PUSH2 0xD52 JUMP JUMPDEST PUSH20 0xFFFFFFFFFFFFFFFFFFFFFFFFFFFFFFFFFFFFFFFF AND EQ PUSH2 0x119A JUMPI PUSH1 0x40 MLOAD PUSH32 0x8C379A000000000000000000000000000000000000000000000000000000000 DUP2 MSTORE PUSH1 0x4 ADD PUSH2 0x1191 SWAP1 PUSH2 0x1C51 JUMP JUMPDEST PUSH1 0x40 MLOAD DUP1 SWAP2 SUB SWAP1 REVERT JUMPDEST JUMP JUMPDEST PUSH1 0x0 DUP1 PUSH1 0x0 SWAP1 SLOAD SWAP1 PUSH2 0x100 EXP SWAP1 DIV PUSH20 0xFFFFFFFFFFFFFFFFFFFFFFFFFFFFFFFFFFFFFFFF AND SWAP1 POP DUP2 PUSH1 0x0 DUP1 PUSH2 0x100 EXP DUP2 SLOAD DUP2 PUSH20 0xFFFFFFFFFFFFFFFFFFFFFFFFFFFFFFFFFFFFFFFF MUL NOT AND SWAP1 DUP4 PUSH20 0xFFFFFFFFFFFFFFFFFFFFFFFFFFFFFFFFFFFFFFFF AND MUL OR SWAP1 SSTORE POP DUP2 PUSH20 0xFFFFFFFFFFFFFFFFFFFFFFFFFFFFFFFFFFFFFFFF AND DUP2 PUSH20 0xFFFFFFFFFFFFFFFFFFFFFFFFFFFFFFFFFFFFFFFF AND PUSH32 0x8BE0079C531659141344CD1FD0A4F28419497F9722A3DAAFE3B4186F6B6457E0 PUSH1 0x40 MLOAD PUSH1 0x40 MLOAD DUP1 SWAP2 SUB SWAP1 LOG3 POP POP JUMP JUMPDEST PUSH1 0x40 MLOAD DUP1 PUSH1 0xA0 ADD PUSH1 0x40 MSTORE DUP1 PUSH1 0x60 DUP2 MSTORE PUSH1 0x20 ADD PUSH1 0x60 DUP2 MSTORE PUSH1 0x20 ADD PUSH1 0x60 DUP2 MSTORE PUSH1 0x20 ADD PUSH1 0x60 DUP2 MSTORE PUSH1 0x20 ADD PUSH1 0x0 ISZERO ISZERO DUP2 MSTORE POP SWAP1 JUMP JUMPDEST PUSH1 0x0 DUP2 SWAP1 POP SWAP2 SWAP1 POP JUMP JUMPDEST PUSH2 0x12A4 DUP2 PUSH2 0x1291 JUMP JUMPDEST DUP3 MSTORE POP POP JUMP JUMPDEST PUSH1 0x0 PUSH1 0x20 DUP3 ADD SWAP1 POP PUSH2 0x12BF PUSH1 0x0 DUP4 ADD DUP5 PUSH2 0x129B JUMP JUMPDEST SWAP3 SWAP2 POP POP JUMP JUMPDEST PUSH1 0x0 DUP1 REVERT JUMPDEST PUSH2 0x12D3 DUP2 PUSH2 0x1291 JUMP JUMPDEST DUP2 EQ PUSH2 0x12DE JUMPI PUSH1 0x0 DUP1 REVERT JUMPDEST POP JUMP JUMPDEST PUSH1 0x0 DUP2 CALLDATALOAD SWAP1 POP PUSH2 0x12F0 DUP2 PUSH2 0x12CA JUMP JUMPDEST SWAP3 SWAP2 POP POP JUMP JUMPDEST PUSH1 0x0 PUSH20 0xFFFFFFFFFFFFFFFFFFFFFFFFFFFFFFFFFFFFFFFF DUP3 AND SWAP1 POP SWAP2 SWAP1 POP JUMP JUMPDEST PUSH1 0x0 PUSH2 0x1321 DUP3 PUSH2 0x12F6 JUMP JUMPDEST SWAP1 POP SWAP2 SWAP1 POP JUMP JUMPDEST PUSH2 0x1331 DUP2 PUSH2 0x1316 JUMP JUMPDEST DUP2 EQ PUSH2 0x133C JUMPI PUSH1 0x0 DUP1 REVERT JUMPDEST POP JUMP JUMPDEST PUSH1 0x0 DUP2 CALLDATALOAD SWAP1 POP PUSH2 0x134E DUP2 PUSH2 0x1328 JUMP JUMPDEST SWAP3 SWAP2 POP POP JUMP JUMPDEST PUSH1 0x0 DUP1 PUSH1 0x40 DUP4 DUP6 SUB SLT ISZERO PUSH2 0x136B JUMPI PUSH2 0x136A PUSH2 0x12C5 JUMP JUMPDEST JUMPDEST PUSH1 0x0 PUSH2 0x1379 DUP6 DUP3 DUP7 ADD PUSH2 0x12E1 JUMP JUMPDEST SWAP3 POP POP PUSH1 0x20 PUSH2 0x138A DUP6 DUP3 DUP7 ADD PUSH2 0x133F JUMP JUMPDEST SWAP2 POP POP SWAP3 POP SWAP3 SWAP1 POP JUMP JUMPDEST PUSH1 0x0 PUSH2 0x139F DUP3 PUSH2 0x12F6 JUMP JUMPDEST SWAP1 POP SWAP2 SWAP1 POP JUMP JUMPDEST PUSH2 0x13AF DUP2 PUSH2 0x1394 JUMP JUMPDEST DUP2 EQ PUSH2 0x13BA JUMPI PUSH1 0x0 DUP1 REVERT JUMPDEST POP JUMP JUMPDEST PUSH1 0x0 DUP2 CALLDATALOAD SWAP1 POP PUSH2 0x13CC DUP2 PUSH2 0x13A6 JUMP JUMPDEST SWAP3 SWAP2 POP POP JUMP JUMPDEST PUSH1 0x0 DUP1 PUSH1 0x0 DUP1 PUSH1 0x0 PUSH1 0xA0 DUP7 DUP9 SUB SLT ISZERO PUSH2 0x13EE JUMPI PUSH2 0x13ED PUSH2 0x12C5 JUMP JUMPDEST JUMPDEST PUSH1 0x0 PUSH2 0x13FC DUP9 DUP3 DUP10 ADD PUSH2 0x13BD JUMP JUMPDEST SWAP6 POP POP PUSH1 0x20 PUSH2 0x140D DUP9 DUP3 DUP10 ADD PUSH2 0x12E1 JUMP JUMPDEST SWAP5 POP POP PUSH1 0x40 PUSH2 0x141E DUP9 DUP3 DUP10 ADD PUSH2 0x12E1 JUMP JUMPDEST SWAP4 POP POP PUSH1 0x60 PUSH2 0x142F DUP9 DUP3 DUP10 ADD PUSH2 0x12E1 JUMP JUMPDEST SWAP3 POP POP PUSH1 0x80 PUSH2 0x1440 DUP9 DUP3 DUP10 ADD PUSH2 0x12E1 JUMP JUMPDEST SWAP2 POP POP SWAP3 SWAP6 POP SWAP3 SWAP6 SWAP1 SWAP4 POP JUMP JUMPDEST PUSH1 0x0 PUSH1 0x20 DUP3 DUP5 SUB SLT ISZERO PUSH2 0x1463 JUMPI PUSH2 0x1462 PUSH2 0x12C5 JUMP JUMPDEST JUMPDEST PUSH1 0x0 PUSH2 0x1471 DUP5 DUP3 DUP6 ADD PUSH2 0x13BD JUMP JUMPDEST SWAP2 POP POP SWAP3 SWAP2 POP POP JUMP JUMPDEST PUSH1 0x0 DUP2 MLOAD SWAP1 POP SWAP2 SWAP1 POP JUMP JUMPDEST PUSH1 0x0 DUP3 DUP3 MSTORE PUSH1 0x20 DUP3 ADD SWAP1 POP SWAP3 SWAP2 POP POP JUMP JUMPDEST PUSH1 0x0 DUP2 SWAP1 POP PUSH1 0x20 DUP3 ADD SWAP1 POP SWAP2 SWAP1 POP JUMP JUMPDEST PUSH2 0x14AF DUP2 PUSH2 0x1291 JUMP JUMPDEST DUP3 MSTORE POP POP JUMP JUMPDEST PUSH1 0x0 PUSH2 0x14C1 DUP4 DUP4 PUSH2 0x14A6 JUMP JUMPDEST PUSH1 0x20 DUP4 ADD SWAP1 POP SWAP3 SWAP2 POP POP JUMP JUMPDEST PUSH1 0x0 PUSH1 0x20 DUP3 ADD SWAP1 POP SWAP2 SWAP1 POP JUMP JUMPDEST PUSH1 0x0 PUSH2 0x14E5 DUP3 PUSH2 0x147A JUMP JUMPDEST PUSH2 0x14EF DUP2 DUP6 PUSH2 0x1485 JUMP JUMPDEST SWAP4 POP PUSH2 0x14FA DUP4 PUSH2 0x1496 JUMP JUMPDEST DUP1 PUSH1 0x0 JUMPDEST DUP4 DUP2 LT ISZERO PUSH2 0x152B JUMPI DUP2 MLOAD PUSH2 0x1512 DUP9 DUP3 PUSH2 0x14B5 JUMP JUMPDEST SWAP8 POP PUSH2 0x151D DUP4 PUSH2 0x14CD JUMP JUMPDEST SWAP3 POP POP PUSH1 0x1 DUP2 ADD SWAP1 POP PUSH2 0x14FE JUMP JUMPDEST POP DUP6 SWAP4 POP POP POP POP SWAP3 SWAP2 POP POP JUMP JUMPDEST PUSH1 0x0 DUP2 ISZERO ISZERO SWAP1 POP SWAP2 SWAP1 POP JUMP JUMPDEST PUSH2 0x154D DUP2 PUSH2 0x1538 JUMP JUMPDEST DUP3 MSTORE POP POP JUMP JUMPDEST PUSH1 0x0 PUSH1 0xA0 DUP4 ADD PUSH1 0x0 DUP4 ADD MLOAD DUP5 DUP3 SUB PUSH1 0x0 DUP7 ADD MSTORE PUSH2 0x1570 DUP3 DUP3 PUSH2 0x14DA JUMP JUMPDEST SWAP2 POP POP PUSH1 0x20 DUP4 ADD MLOAD DUP5 DUP3 SUB PUSH1 0x20 DUP7 ADD MSTORE PUSH2 0x158A DUP3 DUP3 PUSH2 0x14DA JUMP JUMPDEST SWAP2 POP POP PUSH1 0x40 DUP4 ADD MLOAD DUP5 DUP3 SUB PUSH1 0x40 DUP7 ADD MSTORE PUSH2 0x15A4 DUP3 DUP3 PUSH2 0x14DA JUMP JUMPDEST SWAP2 POP POP PUSH1 0x60 DUP4 ADD MLOAD DUP5 DUP3 SUB PUSH1 0x60 DUP7 ADD MSTORE PUSH2 0x15BE DUP3 DUP3 PUSH2 0x14DA JUMP JUMPDEST SWAP2 POP POP PUSH1 0x80 DUP4 ADD MLOAD PUSH2 0x15D3 PUSH1 0x80 DUP7 ADD DUP3 PUSH2 0x1544 JUMP JUMPDEST POP DUP1 SWAP2 POP POP SWAP3 SWAP2 POP POP JUMP JUMPDEST PUSH1 0x0 PUSH1 0x20 DUP3 ADD SWAP1 POP DUP2 DUP2 SUB PUSH1 0x0 DUP4 ADD MSTORE PUSH2 0x15F8 DUP2 DUP5 PUSH2 0x1553 JUMP JUMPDEST SWAP1 POP SWAP3 SWAP2 POP POP JUMP JUMPDEST PUSH2 0x1609 DUP2 PUSH2 0x1538 JUMP JUMPDEST DUP3 MSTORE POP POP JUMP JUMPDEST PUSH1 0x0 PUSH1 0x20 DUP3 ADD SWAP1 POP PUSH2 0x1624 PUSH1 0x0 DUP4 ADD DUP5 PUSH2 0x1600 JUMP JUMPDEST SWAP3 SWAP2 POP POP JUMP JUMPDEST PUSH1 0x0 DUP1 PUSH1 0x40 DUP4 DUP6 SUB SLT ISZERO PUSH2 0x1641 JUMPI PUSH2 0x1640 PUSH2 0x12C5 JUMP JUMPDEST JUMPDEST PUSH1 0x0 PUSH2 0x164F DUP6 DUP3 DUP7 ADD PUSH2 0x133F JUMP JUMPDEST SWAP3 POP POP PUSH1 0x20 PUSH2 0x1660 DUP6 DUP3 DUP7 ADD PUSH2 0x12E1 JUMP JUMPDEST SWAP2 POP POP SWAP3 POP SWAP3 SWAP1 POP JUMP JUMPDEST PUSH2 0x1673 DUP2 PUSH2 0x1394 JUMP JUMPDEST DUP3 MSTORE POP POP JUMP JUMPDEST PUSH1 0x0 PUSH1 0x20 DUP3 ADD SWAP1 POP PUSH2 0x168E PUSH1 0x0 DUP4 ADD DUP5 PUSH2 0x166A JUMP JUMPDEST SWAP3 SWAP2 POP POP JUMP JUMPDEST PUSH1 0x0 DUP3 DUP3 MSTORE PUSH1 0x20 DUP3 ADD SWAP1 POP SWAP3 SWAP2 POP POP JUMP JUMPDEST PUSH32 0x436F6E7472616374206973205061757365640000000000000000000000000000 PUSH1 0x0 DUP3 ADD MSTORE POP JUMP JUMPDEST PUSH1 0x0 PUSH2 0x16DB PUSH1 0x12 DUP4 PUSH2 0x1694 JUMP JUMPDEST SWAP2 POP PUSH2 0x16E6 DUP3 PUSH2 0x16A5 JUMP JUMPDEST PUSH1 0x20 DUP3 ADD SWAP1 POP SWAP2 SWAP1 POP JUMP JUMPDEST PUSH1 0x0 PUSH1 0x20 DUP3 ADD SWAP1 POP DUP2 DUP2 SUB PUSH1 0x0 DUP4 ADD MSTORE PUSH2 0x170A DUP2 PUSH2 0x16CE JUMP JUMPDEST SWAP1 POP SWAP2 SWAP1 POP JUMP JUMPDEST PUSH32 0x496E73756666696369656E7420546F6B656E7320746F20576974684472617700 PUSH1 0x0 DUP3 ADD MSTORE POP JUMP JUMPDEST PUSH1 0x0 PUSH2 0x1747 PUSH1 0x1F DUP4 PUSH2 0x1694 JUMP JUMPDEST SWAP2 POP PUSH2 0x1752 DUP3 PUSH2 0x1711 JUMP JUMPDEST PUSH1 0x20 DUP3 ADD SWAP1 POP SWAP2 SWAP1 POP JUMP JUMPDEST PUSH1 0x0 PUSH1 0x20 DUP3 ADD SWAP1 POP DUP2 DUP2 SUB PUSH1 0x0 DUP4 ADD MSTORE PUSH2 0x1776 DUP2 PUSH2 0x173A JUMP JUMPDEST SWAP1 POP SWAP2 SWAP1 POP JUMP JUMPDEST PUSH32 0x4E487B7100000000000000000000000000000000000000000000000000000000 PUSH1 0x0 MSTORE PUSH1 0x11 PUSH1 0x4 MSTORE PUSH1 0x24 PUSH1 0x0 REVERT JUMPDEST PUSH1 0x0 PUSH2 0x17B7 DUP3 PUSH2 0x1291 JUMP JUMPDEST SWAP2 POP PUSH2 0x17C2 DUP4 PUSH2 0x1291 JUMP JUMPDEST SWAP3 POP DUP3 DUP3 SUB SWAP1 POP DUP2 DUP2 GT ISZERO PUSH2 0x17DA JUMPI PUSH2 0x17D9 PUSH2 0x177D JUMP JUMPDEST JUMPDEST SWAP3 SWAP2 POP POP JUMP JUMPDEST PUSH32 0x496E76616C696420416D6F756E74000000000000000000000000000000000000 PUSH1 0x0 DUP3 ADD MSTORE POP JUMP JUMPDEST PUSH1 0x0 PUSH2 0x1816 PUSH1 0xE DUP4 PUSH2 0x1694 JUMP JUMPDEST SWAP2 POP PUSH2 0x1821 DUP3 PUSH2 0x17E0 JUMP JUMPDEST PUSH1 0x20 DUP3 ADD SWAP1 POP SWAP2 SWAP1 POP JUMP JUMPDEST PUSH1 0x0 PUSH1 0x20 DUP3 ADD SWAP1 POP DUP2 DUP2 SUB PUSH1 0x0 DUP4 ADD MSTORE PUSH2 0x1845 DUP2 PUSH2 0x1809 JUMP JUMPDEST SWAP1 POP SWAP2 SWAP1 POP JUMP JUMPDEST PUSH1 0x0 PUSH2 0x1857 DUP3 PUSH2 0x1291 JUMP JUMPDEST SWAP2 POP PUSH2 0x1862 DUP4 PUSH2 0x1291 JUMP JUMPDEST SWAP3 POP DUP3 DUP3 ADD SWAP1 POP DUP1 DUP3 GT ISZERO PUSH2 0x187A JUMPI PUSH2 0x1879 PUSH2 0x177D JUMP JUMPDEST JUMPDEST SWAP3 SWAP2 POP POP JUMP JUMPDEST PUSH32 0x4E6F205374616B656420616D6F756E7420616761696E73742074686973207573 PUSH1 0x0 DUP3 ADD MSTORE PUSH32 0x6572000000000000000000000000000000000000000000000000000000000000 PUSH1 0x20 DUP3 ADD MSTORE POP JUMP JUMPDEST PUSH1 0x0 PUSH2 0x18DC PUSH1 0x22 DUP4 PUSH2 0x1694 JUMP JUMPDEST SWAP2 POP PUSH2 0x18E7 DUP3 PUSH2 0x1880 JUMP JUMPDEST PUSH1 0x40 DUP3 ADD SWAP1 POP SWAP2 SWAP1 POP JUMP JUMPDEST PUSH1 0x0 PUSH1 0x20 DUP3 ADD SWAP1 POP DUP2 DUP2 SUB PUSH1 0x0 DUP4 ADD MSTORE PUSH2 0x190B DUP2 PUSH2 0x18CF JUMP JUMPDEST SWAP1 POP SWAP2 SWAP1 POP JUMP JUMPDEST PUSH1 0x0 PUSH1 0x80 DUP3 ADD SWAP1 POP PUSH2 0x1927 PUSH1 0x0 DUP4 ADD DUP8 PUSH2 0x129B JUMP JUMPDEST PUSH2 0x1934 PUSH1 0x20 DUP4 ADD DUP7 PUSH2 0x129B JUMP JUMPDEST PUSH2 0x1941 PUSH1 0x40 DUP4 ADD DUP6 PUSH2 0x129B JUMP JUMPDEST PUSH2 0x194E PUSH1 0x60 DUP4 ADD DUP5 PUSH2 0x129B JUMP JUMPDEST SWAP6 SWAP5 POP POP POP POP POP JUMP JUMPDEST PUSH32 0x5374616B696E6720697320706175736564000000000000000000000000000000 PUSH1 0x0 DUP3 ADD MSTORE POP JUMP JUMPDEST PUSH1 0x0 PUSH2 0x198D PUSH1 0x11 DUP4 PUSH2 0x1694 JUMP JUMPDEST SWAP2 POP PUSH2 0x1998 DUP3 PUSH2 0x1957 JUMP JUMPDEST PUSH1 0x20 DUP3 ADD SWAP1 POP SWAP2 SWAP1 POP JUMP JUMPDEST PUSH1 0x0 PUSH1 0x20 DUP3 ADD SWAP1 POP DUP2 DUP2 SUB PUSH1 0x0 DUP4 ADD MSTORE PUSH2 0x19BC DUP2 PUSH2 0x1980 JUMP JUMPDEST SWAP1 POP SWAP2 SWAP1 POP JUMP JUMPDEST PUSH32 0x54726561737572792068617320496E73756666696369656E7420546F6B656E73 PUSH1 0x0 DUP3 ADD MSTORE POP JUMP JUMPDEST PUSH1 0x0 PUSH2 0x19F9 PUSH1 0x20 DUP4 PUSH2 0x1694 JUMP JUMPDEST SWAP2 POP PUSH2 0x1A04 DUP3 PUSH2 0x19C3 JUMP JUMPDEST PUSH1 0x20 DUP3 ADD SWAP1 POP SWAP2 SWAP1 POP JUMP JUMPDEST PUSH1 0x0 PUSH1 0x20 DUP3 ADD SWAP1 POP DUP2 DUP2 SUB PUSH1 0x0 DUP4 ADD MSTORE PUSH2 0x1A28 DUP2 PUSH2 0x19EC JUMP JUMPDEST SWAP1 POP SWAP2 SWAP1 POP JUMP JUMPDEST PUSH32 0x5573657220446F657327742068617665205374616B6564000000000000000000 PUSH1 0x0 DUP3 ADD MSTORE POP JUMP JUMPDEST PUSH1 0x0 PUSH2 0x1A65 PUSH1 0x17 DUP4 PUSH2 0x1694 JUMP JUMPDEST SWAP2 POP PUSH2 0x1A70 DUP3 PUSH2 0x1A2F JUMP JUMPDEST PUSH1 0x20 DUP3 ADD SWAP1 POP SWAP2 SWAP1 POP JUMP JUMPDEST PUSH1 0x0 PUSH1 0x20 DUP3 ADD SWAP1 POP DUP2 DUP2 SUB PUSH1 0x0 DUP4 ADD MSTORE PUSH2 0x1A94 DUP2 PUSH2 0x1A58 JUMP JUMPDEST SWAP1 POP SWAP2 SWAP1 POP JUMP JUMPDEST PUSH32 0x496E73756666696369656E742046756E647320746F2057697468647261770000 PUSH1 0x0 DUP3 ADD MSTORE POP JUMP JUMPDEST PUSH1 0x0 PUSH2 0x1AD1 PUSH1 0x1E DUP4 PUSH2 0x1694 JUMP JUMPDEST SWAP2 POP PUSH2 0x1ADC DUP3 PUSH2 0x1A9B JUMP JUMPDEST PUSH1 0x20 DUP3 ADD SWAP1 POP SWAP2 SWAP1 POP JUMP JUMPDEST PUSH1 0x0 PUSH1 0x20 DUP3 ADD SWAP1 POP DUP2 DUP2 SUB PUSH1 0x0 DUP4 ADD MSTORE PUSH2 0x1B00 DUP2 PUSH2 0x1AC4 JUMP JUMPDEST SWAP1 POP SWAP2 SWAP1 POP JUMP JUMPDEST PUSH32 0x43616E6E6F74207374616B652030000000000000000000000000000000000000 PUSH1 0x0 DUP3 ADD MSTORE POP JUMP JUMPDEST PUSH1 0x0 PUSH2 0x1B3D PUSH1 0xE DUP4 PUSH2 0x1694 JUMP JUMPDEST SWAP2 POP PUSH2 0x1B48 DUP3 PUSH2 0x1B07 JUMP JUMPDEST PUSH1 0x20 DUP3 ADD SWAP1 POP SWAP2 SWAP1 POP JUMP JUMPDEST PUSH1 0x0 PUSH1 0x20 DUP3 ADD SWAP1 POP DUP2 DUP2 SUB PUSH1 0x0 DUP4 ADD MSTORE PUSH2 0x1B6C DUP2 PUSH2 0x1B30 JUMP JUMPDEST SWAP1 POP SWAP2 SWAP1 POP JUMP JUMPDEST PUSH32 0x4F776E61626C653A206E6577206F776E657220697320746865207A65726F2061 PUSH1 0x0 DUP3 ADD MSTORE PUSH32 0x6464726573730000000000000000000000000000000000000000000000000000 PUSH1 0x20 DUP3 ADD MSTORE POP JUMP JUMPDEST PUSH1 0x0 PUSH2 0x1BCF PUSH1 0x26 DUP4 PUSH2 0x1694 JUMP JUMPDEST SWAP2 POP PUSH2 0x1BDA DUP3 PUSH2 0x1B73 JUMP JUMPDEST PUSH1 0x40 DUP3 ADD SWAP1 POP SWAP2 SWAP1 POP JUMP JUMPDEST PUSH1 0x0 PUSH1 0x20 DUP3 ADD SWAP1 POP DUP2 DUP2 SUB PUSH1 0x0 DUP4 ADD MSTORE PUSH2 0x1BFE DUP2 PUSH2 0x1BC2 JUMP JUMPDEST SWAP1 POP SWAP2 SWAP1 POP JUMP JUMPDEST PUSH32 0x4F776E61626C653A2063616C6C6572206973206E6F7420746865206F776E6572 PUSH1 0x0 DUP3 ADD MSTORE POP JUMP JUMPDEST PUSH1 0x0 PUSH2 0x1C3B PUSH1 0x20 DUP4 PUSH2 0x1694 JUMP JUMPDEST SWAP2 POP PUSH2 0x1C46 DUP3 PUSH2 0x1C05 JUMP JUMPDEST PUSH1 0x20 DUP3 ADD SWAP1 POP SWAP2 SWAP1 POP JUMP JUMPDEST PUSH1 0x0 PUSH1 0x20 DUP3 ADD SWAP1 POP DUP2 DUP2 SUB PUSH1 0x0 DUP4 ADD MSTORE PUSH2 0x1C6A DUP2 PUSH2 0x1C2E JUMP JUMPDEST SWAP1 POP SWAP2 SWAP1 POP JUMP INVALID LOG2 PUSH5 0x6970667358 0x22 SLT KECCAK256 DUP15 RETURNDATACOPY DUP9 0xBF LOG1 POP SWAP14 SWAP15 0xD4 PUSH28 0x20D9EAE8C9E1BF560D4F552D4E19328E37B8FFC402E264736F6C6343 STOP ADDMOD LT STOP CALLER "
				},
				"gasEstimates": {
					"creation": {
						"codeDepositCost": "1467000",
						"executionCost": "infinite",
						"totalCost": "infinite"
					},
					"external": {
						"FlipPauseStatus()": "28968",
						"NodeStats(address)": "2914",
						"adminTreasury()": "2518",
						"fillTreasury()": "infinite",
						"getContractBalance()": "406",
						"getNodeStats(address)": "infinite",
						"getStake(address)": "2952",
						"owner()": "2567",
						"paused()": "2516",
						"renounceOwnership()": "30487",
						"stakeTokens()": "infinite",
						"tokenAmount(address)": "2836",
						"totalHoldings()": "232",
						"totalStakedTokens()": "2519",
						"transferOwnership(address)": "30854",
						"transferRewards(address,uint256)": "infinite",
						"unStakeTokens(uint256,address)": "infinite",
						"updateStats(address,uint256,uint256,uint256,uint256)": "infinite",
						"withDrawFromTreasury(uint256,address)": "infinite"
					}
				},
				"methodIdentifiers": {
					"FlipPauseStatus()": "a405b048",
					"NodeStats(address)": "adc07c6f",
					"adminTreasury()": "96cad0db",
					"fillTreasury()": "0d8f7614",
					"getContractBalance()": "6f9fb98a",
					"getNodeStats(address)": "52b391b2",
					"getStake(address)": "7a766460",
					"owner()": "8da5cb5b",
					"paused()": "5c975abb",
					"renounceOwnership()": "715018a6",
					"stakeTokens()": "ce46643b",
					"tokenAmount(address)": "a96b7f05",
					"totalHoldings()": "e9ec2e99",
					"totalStakedTokens()": "3ae73259",
					"transferOwnership(address)": "f2fde38b",
					"transferRewards(address,uint256)": "82723192",
					"unStakeTokens(uint256,address)": "06608c3c",
					"updateStats(address,uint256,uint256,uint256,uint256)": "1241a45a",
					"withDrawFromTreasury(uint256,address)": "8e080dee"
				}
			},
			"storageLayout": {
				"storage": [
					{
						"astId": 7,
						"contract": "contracts/storageChain.sol:StakingContract",
						"label": "_owner",
						"offset": 0,
						"slot": "0",
						"type": "t_address"
					},
					{
						"astId": 143,
						"contract": "contracts/storageChain.sol:StakingContract",
						"label": "tokenAmount",
						"offset": 0,
						"slot": "1",
						"type": "t_mapping(t_address,t_uint256)"
					},
					{
						"astId": 148,
						"contract": "contracts/storageChain.sol:StakingContract",
						"label": "NodeStats",
						"offset": 0,
						"slot": "2",
						"type": "t_mapping(t_address,t_struct(Stats)169_storage)"
					},
					{
						"astId": 150,
						"contract": "contracts/storageChain.sol:StakingContract",
						"label": "adminTreasury",
						"offset": 0,
						"slot": "3",
						"type": "t_uint256"
					},
					{
						"astId": 152,
						"contract": "contracts/storageChain.sol:StakingContract",
						"label": "paused",
						"offset": 0,
						"slot": "4",
						"type": "t_bool"
					},
					{
						"astId": 154,
						"contract": "contracts/storageChain.sol:StakingContract",
						"label": "totalStakedTokens",
						"offset": 0,
						"slot": "5",
						"type": "t_uint256"
					}
				],
				"types": {
					"t_address": {
						"encoding": "inplace",
						"label": "address",
						"numberOfBytes": "20"
					},
					"t_array(t_uint256)dyn_storage": {
						"base": "t_uint256",
						"encoding": "dynamic_array",
						"label": "uint256[]",
						"numberOfBytes": "32"
					},
					"t_bool": {
						"encoding": "inplace",
						"label": "bool",
						"numberOfBytes": "1"
					},
					"t_mapping(t_address,t_struct(Stats)169_storage)": {
						"encoding": "mapping",
						"key": "t_address",
						"label": "mapping(address => struct StakingContract.Stats)",
						"numberOfBytes": "32",
						"value": "t_struct(Stats)169_storage"
					},
					"t_mapping(t_address,t_uint256)": {
						"encoding": "mapping",
						"key": "t_address",
						"label": "mapping(address => uint256)",
						"numberOfBytes": "32",
						"value": "t_uint256"
					},
					"t_struct(Stats)169_storage": {
						"encoding": "inplace",
						"label": "struct StakingContract.Stats",
						"members": [
							{
								"astId": 157,
								"contract": "contracts/storageChain.sol:StakingContract",
								"label": "validationRatio",
								"offset": 0,
								"slot": "0",
								"type": "t_array(t_uint256)dyn_storage"
							},
							{
								"astId": 160,
								"contract": "contracts/storageChain.sol:StakingContract",
								"label": "upTime",
								"offset": 0,
								"slot": "1",
								"type": "t_array(t_uint256)dyn_storage"
							},
							{
								"astId": 163,
								"contract": "contracts/storageChain.sol:StakingContract",
								"label": "bandWidth",
								"offset": 0,
								"slot": "2",
								"type": "t_array(t_uint256)dyn_storage"
							},
							{
								"astId": 166,
								"contract": "contracts/storageChain.sol:StakingContract",
								"label": "storageGB",
								"offset": 0,
								"slot": "3",
								"type": "t_array(t_uint256)dyn_storage"
							},
							{
								"astId": 168,
								"contract": "contracts/storageChain.sol:StakingContract",
								"label": "oldUser",
								"offset": 0,
								"slot": "4",
								"type": "t_bool"
							}
						],
						"numberOfBytes": "160"
					},
					"t_uint256": {
						"encoding": "inplace",
						"label": "uint256",
						"numberOfBytes": "32"
					}
				}
			},
			"userdoc": {
				"kind": "user",
				"methods": {},
				"version": 1
			}
		}
	}
}