{
	"contracts/stakingContract.sol": {
		"UpdatedV3DynamicStakingContract": {
			"abi": [
				{
					"anonymous": false,
					"inputs": [
						{
							"indexed": true,
							"internalType": "address",
							"name": "sender",
							"type": "address"
						},
						{
							"indexed": false,
							"internalType": "uint256",
							"name": "value",
							"type": "uint256"
						}
					],
					"name": "EtherReceived",
					"type": "event"
				},
				{
					"anonymous": false,
					"inputs": [
						{
							"indexed": false,
							"internalType": "bytes",
							"name": "data",
							"type": "bytes"
						},
						{
							"indexed": false,
							"internalType": "address",
							"name": "sender",
							"type": "address"
						},
						{
							"indexed": false,
							"internalType": "uint256",
							"name": "value",
							"type": "uint256"
						}
					],
					"name": "FallbackTriggered",
					"type": "event"
				},
				{
					"anonymous": false,
					"inputs": [
						{
							"indexed": true,
							"internalType": "address",
							"name": "user",
							"type": "address"
						},
						{
							"indexed": false,
							"internalType": "uint256",
							"name": "durations",
							"type": "uint256"
						}
					],
					"name": "NewDurationAdded",
					"type": "event"
				},
				{
					"anonymous": false,
					"inputs": [
						{
							"indexed": true,
							"internalType": "address",
							"name": "user",
							"type": "address"
						},
						{
							"indexed": false,
							"internalType": "uint256",
							"name": "rates",
							"type": "uint256"
						}
					],
					"name": "NewRateAdded",
					"type": "event"
				},
				{
					"anonymous": false,
					"inputs": [
						{
							"indexed": true,
							"internalType": "address",
							"name": "previousOwner",
							"type": "address"
						},
						{
							"indexed": true,
							"internalType": "address",
							"name": "newOwner",
							"type": "address"
						}
					],
					"name": "OwnershipTransferred",
					"type": "event"
				},
				{
					"anonymous": false,
					"inputs": [
						{
							"indexed": true,
							"internalType": "address",
							"name": "user",
							"type": "address"
						},
						{
							"indexed": false,
							"internalType": "bool",
							"name": "yes",
							"type": "bool"
						}
					],
					"name": "Paused",
					"type": "event"
				},
				{
					"anonymous": false,
					"inputs": [
						{
							"indexed": true,
							"internalType": "address",
							"name": "user",
							"type": "address"
						},
						{
							"indexed": false,
							"internalType": "uint256",
							"name": "amount",
							"type": "uint256"
						},
						{
							"indexed": false,
							"internalType": "uint256",
							"name": "duration",
							"type": "uint256"
						},
						{
							"indexed": false,
							"internalType": "uint256",
							"name": "rate",
							"type": "uint256"
						}
					],
					"name": "Staked",
					"type": "event"
				},
				{
					"anonymous": false,
					"inputs": [
						{
							"indexed": true,
							"internalType": "address",
							"name": "user",
							"type": "address"
						},
						{
							"indexed": false,
							"internalType": "uint256",
							"name": "amount",
							"type": "uint256"
						},
						{
							"indexed": false,
							"internalType": "uint256",
							"name": "stakedAmount",
							"type": "uint256"
						}
					],
					"name": "Withdrawn",
					"type": "event"
				},
				{
					"stateMutability": "payable",
					"type": "fallback"
				},
				{
					"inputs": [
						{
							"internalType": "uint256",
							"name": "_durations",
							"type": "uint256"
						},
						{
							"internalType": "uint256",
							"name": "_rates",
							"type": "uint256"
						}
					],
					"name": "addNewDurationRates",
					"outputs": [],
					"stateMutability": "nonpayable",
					"type": "function"
				},
				{
					"inputs": [
						{
							"internalType": "uint256",
							"name": "_duration",
							"type": "uint256"
						}
					],
					"name": "durationRewardRate",
					"outputs": [
						{
							"internalType": "uint256",
							"name": "",
							"type": "uint256"
						}
					],
					"stateMutability": "view",
					"type": "function"
				},
				{
					"inputs": [
						{
							"internalType": "uint256",
							"name": "",
							"type": "uint256"
						}
					],
					"name": "durations",
					"outputs": [
						{
							"internalType": "uint256",
							"name": "",
							"type": "uint256"
						}
					],
					"stateMutability": "view",
					"type": "function"
				},
				{
					"inputs": [],
					"name": "exit",
					"outputs": [],
					"stateMutability": "nonpayable",
					"type": "function"
				},
				{
					"inputs": [
						{
							"internalType": "address",
							"name": "account",
							"type": "address"
						}
					],
					"name": "getAllStakes",
					"outputs": [
						{
							"components": [
								{
									"internalType": "uint256",
									"name": "amount",
									"type": "uint256"
								},
								{
									"internalType": "uint256",
									"name": "end",
									"type": "uint256"
								},
								{
									"internalType": "uint256",
									"name": "duration",
									"type": "uint256"
								},
								{
									"internalType": "uint248",
									"name": "rate",
									"type": "uint248"
								},
								{
									"internalType": "bool",
									"name": "paid",
									"type": "bool"
								}
							],
							"internalType": "struct UpdatedV3DynamicStakingContract.Stake[]",
							"name": "",
							"type": "tuple[]"
						}
					],
					"stateMutability": "view",
					"type": "function"
				},
				{
					"inputs": [],
					"name": "getContractBalance",
					"outputs": [
						{
							"internalType": "uint256",
							"name": "",
							"type": "uint256"
						}
					],
					"stateMutability": "view",
					"type": "function"
				},
				{
					"inputs": [],
					"name": "owner",
					"outputs": [
						{
							"internalType": "address",
							"name": "",
							"type": "address"
						}
					],
					"stateMutability": "view",
					"type": "function"
				},
				{
					"inputs": [],
					"name": "paused",
					"outputs": [
						{
							"internalType": "bool",
							"name": "",
							"type": "bool"
						}
					],
					"stateMutability": "view",
					"type": "function"
				},
				{
					"inputs": [
						{
							"internalType": "uint256",
							"name": "",
							"type": "uint256"
						}
					],
					"name": "rates",
					"outputs": [
						{
							"internalType": "uint256",
							"name": "",
							"type": "uint256"
						}
					],
					"stateMutability": "view",
					"type": "function"
				},
				{
					"inputs": [],
					"name": "renounceOwnership",
					"outputs": [],
					"stateMutability": "nonpayable",
					"type": "function"
				},
				{
					"inputs": [
						{
							"internalType": "bool",
							"name": "_paused",
							"type": "bool"
						}
					],
					"name": "setPaused",
					"outputs": [],
					"stateMutability": "nonpayable",
					"type": "function"
				},
				{
					"inputs": [
						{
							"internalType": "uint256",
							"name": "amount",
							"type": "uint256"
						},
						{
							"internalType": "uint256",
							"name": "duration",
							"type": "uint256"
						}
					],
					"name": "stake",
					"outputs": [],
					"stateMutability": "nonpayable",
					"type": "function"
				},
				{
					"inputs": [
						{
							"internalType": "address",
							"name": "account",
							"type": "address"
						}
					],
					"name": "totalHoldings",
					"outputs": [
						{
							"internalType": "uint256",
							"name": "total",
							"type": "uint256"
						},
						{
							"internalType": "uint256",
							"name": "totalStakeCount",
							"type": "uint256"
						}
					],
					"stateMutability": "view",
					"type": "function"
				},
				{
					"inputs": [],
					"name": "totalOutstanding",
					"outputs": [
						{
							"internalType": "uint256",
							"name": "",
							"type": "uint256"
						}
					],
					"stateMutability": "view",
					"type": "function"
				},
				{
					"inputs": [
						{
							"internalType": "address",
							"name": "account",
							"type": "address"
						}
					],
					"name": "totalStaked",
					"outputs": [
						{
							"internalType": "uint256",
							"name": "total",
							"type": "uint256"
						},
						{
							"internalType": "uint256",
							"name": "totalStakeCount",
							"type": "uint256"
						}
					],
					"stateMutability": "view",
					"type": "function"
				},
				{
					"inputs": [
						{
							"internalType": "address",
							"name": "newOwner",
							"type": "address"
						}
					],
					"name": "transferOwnership",
					"outputs": [],
					"stateMutability": "nonpayable",
					"type": "function"
				},
				{
					"inputs": [
						{
							"internalType": "uint256",
							"name": "_stakeId",
							"type": "uint256"
						}
					],
					"name": "unstake",
					"outputs": [],
					"stateMutability": "nonpayable",
					"type": "function"
				},
				{
					"inputs": [
						{
							"internalType": "address",
							"name": "",
							"type": "address"
						},
						{
							"internalType": "uint256",
							"name": "",
							"type": "uint256"
						}
					],
					"name": "userStakes",
					"outputs": [
						{
							"internalType": "uint256",
							"name": "amount",
							"type": "uint256"
						},
						{
							"internalType": "uint256",
							"name": "end",
							"type": "uint256"
						},
						{
							"internalType": "uint256",
							"name": "duration",
							"type": "uint256"
						},
						{
							"internalType": "uint248",
							"name": "rate",
							"type": "uint248"
						},
						{
							"internalType": "bool",
							"name": "paid",
							"type": "bool"
						}
					],
					"stateMutability": "view",
					"type": "function"
				},
				{
					"inputs": [
						{
							"internalType": "uint256",
							"name": "amount",
							"type": "uint256"
						}
					],
					"name": "withdrawLiquidity",
					"outputs": [],
					"stateMutability": "nonpayable",
					"type": "function"
				},
				{
					"stateMutability": "payable",
					"type": "receive"
				}
			],
			"devdoc": {
				"kind": "dev",
				"methods": {
					"addNewDurationRates(uint256,uint256)": {
						"details": "Set new durations and rates will not effect existing stakes",
						"params": {
							"_durations": "Array of durations in seconds",
							"_rates": "Array of rates that corresponds to the durations (1 is 1% , 10 is 10%) in 1e18"
						}
					},
					"durationRewardRate(uint256)": {
						"details": "Find the rate that corresponds to a given duration",
						"params": {
							"_duration": "Number of seconds"
						}
					},
					"exit()": {
						"details": "Exit out of all possible stakes"
					},
					"getAllStakes(address)": {
						"details": "Return all the stakes paid and unpaid for a given user",
						"params": {
							"account": "Address of the account that we want to look up"
						}
					},
					"owner()": {
						"details": "Returns the address of the current owner."
					},
					"renounceOwnership()": {
						"details": "Leaves the contract without owner. It will not be possible to call `onlyOwner` functions anymore. Can only be called by the current owner. NOTE: Renouncing ownership will leave the contract without an owner, thereby removing any functionality that is only available to the owner."
					},
					"stake(uint256,uint256)": {
						"details": "Stake an approved amount of staking token into the contract.      User must have already approved the contract for specified amount.",
						"params": {
							"amount": "Number of tokens to stake in 1e18",
							"duration": "Number of seconds this stake will be held for"
						}
					},
					"totalHoldings(address)": {
						"details": "Calculate all the staked value a user has put into the contract with Rewards,Calculate all the rewards a user can expect to receive.",
						"params": {
							"account": "Address of the account that we want to look up"
						}
					},
					"totalStaked(address)": {
						"details": "Calculate all the staked value a user has put into the contract,      rewards not included",
						"params": {
							"account": "Address of the account that we want to look up"
						}
					},
					"transferOwnership(address)": {
						"details": "Transfers ownership of the contract to a new account (`newOwner`). Can only be called by the current owner."
					},
					"unstake(uint256)": {
						"details": "Unstake your stakes"
					}
				},
				"version": 1
			},
			"evm": {
				"assembly": "    /* \"contracts/stakingContract.sol\":25950:37247  contract UpdatedV3DynamicStakingContract is Ownable {... */\n  mstore(0x40, 0x80)\n    /* \"contracts/stakingContract.sol\":26128:26243  uint256[] public durations = [... */\n  mload(0x40)\n  dup1\n  0x80\n  add\n  0x40\n  mstore\n  dup1\n    /* \"contracts/stakingContract.sol\":26167:26177  15 seconds */\n  0x0f\n    /* \"contracts/stakingContract.sol\":26128:26243  uint256[] public durations = [... */\n  0xff\n  and\n  dup2\n  mstore\n  0x20\n  add\n    /* \"contracts/stakingContract.sol\":26187:26197  30 seconds */\n  0x1e\n    /* \"contracts/stakingContract.sol\":26128:26243  uint256[] public durations = [... */\n  0xff\n  and\n  dup2\n  mstore\n  0x20\n  add\n    /* \"contracts/stakingContract.sol\":26207:26217  45 seconds */\n  0x2d\n    /* \"contracts/stakingContract.sol\":26128:26243  uint256[] public durations = [... */\n  0xff\n  and\n  dup2\n  mstore\n  0x20\n  add\n    /* \"contracts/stakingContract.sol\":26227:26237  60 seconds */\n  0x3c\n    /* \"contracts/stakingContract.sol\":26128:26243  uint256[] public durations = [... */\n  0xff\n  and\n  dup2\n  mstore\n  pop\n  0x01\n  swap1\n  0x04\n  tag_1\n  swap3\n  swap2\n  swap1\n  tag_2\n  jump\t// in\ntag_1:\n  pop\n    /* \"contracts/stakingContract.sol\":26439:26476  uint256[] public rates = [4, 6, 8, 9] */\n  mload(0x40)\n  dup1\n  0x80\n  add\n  0x40\n  mstore\n  dup1\n    /* \"contracts/stakingContract.sol\":26465:26466  4 */\n  0x04\n    /* \"contracts/stakingContract.sol\":26439:26476  uint256[] public rates = [4, 6, 8, 9] */\n  0xff\n  and\n  dup2\n  mstore\n  0x20\n  add\n    /* \"contracts/stakingContract.sol\":26468:26469  6 */\n  0x06\n    /* \"contracts/stakingContract.sol\":26439:26476  uint256[] public rates = [4, 6, 8, 9] */\n  0xff\n  and\n  dup2\n  mstore\n  0x20\n  add\n    /* \"contracts/stakingContract.sol\":26471:26472  8 */\n  0x08\n    /* \"contracts/stakingContract.sol\":26439:26476  uint256[] public rates = [4, 6, 8, 9] */\n  0xff\n  and\n  dup2\n  mstore\n  0x20\n  add\n    /* \"contracts/stakingContract.sol\":26474:26475  9 */\n  0x09\n    /* \"contracts/stakingContract.sol\":26439:26476  uint256[] public rates = [4, 6, 8, 9] */\n  0xff\n  and\n  dup2\n  mstore\n  pop\n  0x02\n  swap1\n  0x04\n  tag_3\n  swap3\n  swap2\n  swap1\n  tag_2\n  jump\t// in\ntag_3:\n  pop\n    /* \"contracts/stakingContract.sol\":25950:37247  contract UpdatedV3DynamicStakingContract is Ownable {... */\n  callvalue\n  dup1\n  iszero\n  tag_4\n  jumpi\n  0x00\n  dup1\n  revert\ntag_4:\n  pop\n    /* \"contracts/stakingContract.sol\":24203:24235  _transferOwnership(_msgSender()) */\n  tag_7\n    /* \"contracts/stakingContract.sol\":24222:24234  _msgSender() */\n  tag_8\n    /* \"contracts/stakingContract.sol\":24222:24232  _msgSender */\n  shl(0x20, tag_9)\n    /* \"contracts/stakingContract.sol\":24222:24234  _msgSender() */\n  0x20\n  shr\n  jump\t// in\ntag_8:\n    /* \"contracts/stakingContract.sol\":24203:24221  _transferOwnership */\n  shl(0x20, tag_10)\n    /* \"contracts/stakingContract.sol\":24203:24235  _transferOwnership(_msgSender()) */\n  0x20\n  shr\n  jump\t// in\ntag_7:\n    /* \"contracts/stakingContract.sol\":25950:37247  contract UpdatedV3DynamicStakingContract is Ownable {... */\n  jump(tag_11)\n    /* \"contracts/stakingContract.sol\":23105:23201  function _msgSender() internal view virtual returns (address) {... */\ntag_9:\n    /* \"contracts/stakingContract.sol\":23158:23165  address */\n  0x00\n    /* \"contracts/stakingContract.sol\":23184:23194  msg.sender */\n  caller\n    /* \"contracts/stakingContract.sol\":23177:23194  return msg.sender */\n  swap1\n  pop\n    /* \"contracts/stakingContract.sol\":23105:23201  function _msgSender() internal view virtual returns (address) {... */\n  swap1\n  jump\t// out\n    /* \"contracts/stakingContract.sol\":25734:25921  function _transferOwnership(address newOwner) internal virtual {... */\ntag_10:\n    /* \"contracts/stakingContract.sol\":25807:25823  address oldOwner */\n  0x00\n    /* \"contracts/stakingContract.sol\":25826:25832  _owner */\n  dup1\n  0x00\n  swap1\n  sload\n  swap1\n  0x0100\n  exp\n  swap1\n  div\n  0xffffffffffffffffffffffffffffffffffffffff\n  and\n    /* \"contracts/stakingContract.sol\":25807:25832  address oldOwner = _owner */\n  swap1\n  pop\n    /* \"contracts/stakingContract.sol\":25851:25859  newOwner */\n  dup2\n    /* \"contracts/stakingContract.sol\":25842:25848  _owner */\n  0x00\n  dup1\n    /* \"contracts/stakingContract.sol\":25842:25859  _owner = newOwner */\n  0x0100\n  exp\n  dup2\n  sload\n  dup2\n  0xffffffffffffffffffffffffffffffffffffffff\n  mul\n  not\n  and\n  swap1\n  dup4\n  0xffffffffffffffffffffffffffffffffffffffff\n  and\n  mul\n  or\n  swap1\n  sstore\n  pop\n    /* \"contracts/stakingContract.sol\":25905:25913  newOwner */\n  dup2\n    /* \"contracts/stakingContract.sol\":25874:25914  OwnershipTransferred(oldOwner, newOwner) */\n  0xffffffffffffffffffffffffffffffffffffffff\n  and\n    /* \"contracts/stakingContract.sol\":25895:25903  oldOwner */\n  dup2\n    /* \"contracts/stakingContract.sol\":25874:25914  OwnershipTransferred(oldOwner, newOwner) */\n  0xffffffffffffffffffffffffffffffffffffffff\n  and\n  0x8be0079c531659141344cd1fd0a4f28419497f9722a3daafe3b4186f6b6457e0\n  mload(0x40)\n  mload(0x40)\n  dup1\n  swap2\n  sub\n  swap1\n  log3\n    /* \"contracts/stakingContract.sol\":25797:25921  {... */\n  pop\n    /* \"contracts/stakingContract.sol\":25734:25921  function _transferOwnership(address newOwner) internal virtual {... */\n  pop\n  jump\t// out\n    /* \"contracts/stakingContract.sol\":25950:37247  contract UpdatedV3DynamicStakingContract is Ownable {... */\ntag_2:\n  dup3\n  dup1\n  sload\n  dup3\n  dup3\n  sstore\n  swap1\n  0x00\n  mstore\n  keccak256(0x00, 0x20)\n  swap1\n  dup2\n  add\n  swap3\n  dup3\n  iszero\n  tag_14\n  jumpi\n  swap2\n  0x20\n  mul\n  dup3\n  add\ntag_15:\n  dup3\n  dup2\n  gt\n  iszero\n  tag_16\n  jumpi\n  dup3\n  mload\n  dup3\n  swap1\n  0xff\n  and\n  swap1\n  sstore\n  swap2\n  0x20\n  add\n  swap2\n  swap1\n  0x01\n  add\n  swap1\n  jump(tag_15)\ntag_16:\ntag_14:\n  pop\n  swap1\n  pop\n  tag_17\n  swap2\n  swap1\n  tag_18\n  jump\t// in\ntag_17:\n  pop\n  swap1\n  jump\t// out\ntag_18:\ntag_19:\n  dup1\n  dup3\n  gt\n  iszero\n  tag_20\n  jumpi\n  0x00\n  dup2\n  0x00\n  swap1\n  sstore\n  pop\n  0x01\n  add\n  jump(tag_19)\ntag_20:\n  pop\n  swap1\n  jump\t// out\ntag_11:\n  dataSize(sub_0)\n  dup1\n  dataOffset(sub_0)\n  0x00\n  codecopy\n  0x00\n  return\nstop\n\nsub_0: assembly {\n        /* \"contracts/stakingContract.sol\":25950:37247  contract UpdatedV3DynamicStakingContract is Ownable {... */\n      mstore(0x40, 0x80)\n      jumpi(tag_1, lt(calldatasize, 0x04))\n      shr(0xe0, calldataload(0x00))\n      dup1\n      0x7b0472f0\n      gt\n      tag_22\n      jumpi\n      dup1\n      0xb5d5b5fa\n      gt\n      tag_23\n      jumpi\n      dup1\n      0xb5d5b5fa\n      eq\n      tag_17\n      jumpi\n      dup1\n      0xbc20a7af\n      eq\n      tag_18\n      jumpi\n      dup1\n      0xdd418ae2\n      eq\n      tag_19\n      jumpi\n      dup1\n      0xe9fad8ee\n      eq\n      tag_20\n      jumpi\n      dup1\n      0xf2fde38b\n      eq\n      tag_21\n      jumpi\n      jump(tag_2)\n    tag_23:\n      dup1\n      0x7b0472f0\n      eq\n      tag_12\n      jumpi\n      dup1\n      0x825e0e80\n      eq\n      tag_13\n      jumpi\n      dup1\n      0x86efe63c\n      eq\n      tag_14\n      jumpi\n      dup1\n      0x8da5cb5b\n      eq\n      tag_15\n      jumpi\n      dup1\n      0x9bfd8d61\n      eq\n      tag_16\n      jumpi\n      jump(tag_2)\n    tag_22:\n      dup1\n      0x2e17de78\n      gt\n      tag_24\n      jumpi\n      dup1\n      0x2e17de78\n      eq\n      tag_7\n      jumpi\n      dup1\n      0x3472d465\n      eq\n      tag_8\n      jumpi\n      dup1\n      0x5c975abb\n      eq\n      tag_9\n      jumpi\n      dup1\n      0x6f9fb98a\n      eq\n      tag_10\n      jumpi\n      dup1\n      0x715018a6\n      eq\n      tag_11\n      jumpi\n      jump(tag_2)\n    tag_24:\n      dup1\n      0x04238994\n      eq\n      tag_3\n      jumpi\n      dup1\n      0x0a861f2a\n      eq\n      tag_4\n      jumpi\n      dup1\n      0x16078d04\n      eq\n      tag_5\n      jumpi\n      dup1\n      0x16c38b3c\n      eq\n      tag_6\n      jumpi\n      jump(tag_2)\n    tag_1:\n      jumpi(tag_2, calldatasize)\n        /* \"contracts/stakingContract.sol\":36537:36547  msg.sender */\n      caller\n        /* \"contracts/stakingContract.sol\":36523:36559  EtherReceived(msg.sender, msg.value) */\n      0xffffffffffffffffffffffffffffffffffffffff\n      and\n      0x1e57e3bb474320be3d2c77138f75b7c3941292d647f5f9634e33a8e94e0e069b\n        /* \"contracts/stakingContract.sol\":36549:36558  msg.value */\n      callvalue\n        /* \"contracts/stakingContract.sol\":36523:36559  EtherReceived(msg.sender, msg.value) */\n      mload(0x40)\n      tag_27\n      swap2\n      swap1\n      tag_28\n      jump\t// in\n    tag_27:\n      mload(0x40)\n      dup1\n      swap2\n      sub\n      swap1\n      log2\n        /* \"contracts/stakingContract.sol\":25950:37247  contract UpdatedV3DynamicStakingContract is Ownable {... */\n      stop\n    tag_2:\n        /* \"contracts/stakingContract.sol\":36418:36468  FallbackTriggered(msg.data, msg.sender, msg.value) */\n      0x0982457c3a668694541d4a16bdeb0b0f7ac3b524083fb913475e679112a9cb51\n        /* \"contracts/stakingContract.sol\":36436:36444  msg.data */\n      0x00\n      calldatasize\n        /* \"contracts/stakingContract.sol\":36446:36456  msg.sender */\n      caller\n        /* \"contracts/stakingContract.sol\":36458:36467  msg.value */\n      callvalue\n        /* \"contracts/stakingContract.sol\":36418:36468  FallbackTriggered(msg.data, msg.sender, msg.value) */\n      mload(0x40)\n      tag_31\n      swap5\n      swap4\n      swap3\n      swap2\n      swap1\n      tag_32\n      jump\t// in\n    tag_31:\n      mload(0x40)\n      dup1\n      swap2\n      sub\n      swap1\n      log1\n        /* \"contracts/stakingContract.sol\":25950:37247  contract UpdatedV3DynamicStakingContract is Ownable {... */\n      stop\n        /* \"contracts/stakingContract.sol\":30398:30547  function getAllStakes(address account)... */\n    tag_3:\n      callvalue\n      dup1\n      iszero\n      tag_33\n      jumpi\n      0x00\n      dup1\n      revert\n    tag_33:\n      pop\n      tag_34\n      0x04\n      dup1\n      calldatasize\n      sub\n      dup2\n      add\n      swap1\n      tag_35\n      swap2\n      swap1\n      tag_36\n      jump\t// in\n    tag_35:\n      tag_37\n      jump\t// in\n    tag_34:\n      mload(0x40)\n      tag_38\n      swap2\n      swap1\n      tag_39\n      jump\t// in\n    tag_38:\n      mload(0x40)\n      dup1\n      swap2\n      sub\n      swap1\n      return\n        /* \"contracts/stakingContract.sol\":35117:35340  function withdrawLiquidity(uint256 amount)... */\n    tag_4:\n      callvalue\n      dup1\n      iszero\n      tag_40\n      jumpi\n      0x00\n      dup1\n      revert\n    tag_40:\n      pop\n      tag_41\n      0x04\n      dup1\n      calldatasize\n      sub\n      dup2\n      add\n      swap1\n      tag_42\n      swap2\n      swap1\n      tag_43\n      jump\t// in\n    tag_42:\n      tag_44\n      jump\t// in\n    tag_41:\n      stop\n        /* \"contracts/stakingContract.sol\":27206:27237  uint256 public totalOutstanding */\n    tag_5:\n      callvalue\n      dup1\n      iszero\n      tag_45\n      jumpi\n      0x00\n      dup1\n      revert\n    tag_45:\n      pop\n      tag_46\n      tag_47\n      jump\t// in\n    tag_46:\n      mload(0x40)\n      tag_48\n      swap2\n      swap1\n      tag_28\n      jump\t// in\n    tag_48:\n      mload(0x40)\n      dup1\n      swap2\n      sub\n      swap1\n      return\n        /* \"contracts/stakingContract.sol\":35389:35515  function setPaused(bool _paused) external onlyOwner {... */\n    tag_6:\n      callvalue\n      dup1\n      iszero\n      tag_49\n      jumpi\n      0x00\n      dup1\n      revert\n    tag_49:\n      pop\n      tag_50\n      0x04\n      dup1\n      calldatasize\n      sub\n      dup2\n      add\n      swap1\n      tag_51\n      swap2\n      swap1\n      tag_52\n      jump\t// in\n    tag_51:\n      tag_53\n      jump\t// in\n    tag_50:\n      stop\n        /* \"contracts/stakingContract.sol\":34211:35111  function unstake(uint256 _stakeId) external requireLiquidity {... */\n    tag_7:\n      callvalue\n      dup1\n      iszero\n      tag_54\n      jumpi\n      0x00\n      dup1\n      revert\n    tag_54:\n      pop\n      tag_55\n      0x04\n      dup1\n      calldatasize\n      sub\n      dup2\n      add\n      swap1\n      tag_56\n      swap2\n      swap1\n      tag_43\n      jump\t// in\n    tag_56:\n      tag_57\n      jump\t// in\n    tag_55:\n      stop\n        /* \"contracts/stakingContract.sol\":36064:36225  function addNewDurationRates(uint256 _durations, uint256 _rates)... */\n    tag_8:\n      callvalue\n      dup1\n      iszero\n      tag_58\n      jumpi\n      0x00\n      dup1\n      revert\n    tag_58:\n      pop\n      tag_59\n      0x04\n      dup1\n      calldatasize\n      sub\n      dup2\n      add\n      swap1\n      tag_60\n      swap2\n      swap1\n      tag_61\n      jump\t// in\n    tag_60:\n      tag_62\n      jump\t// in\n    tag_59:\n      stop\n        /* \"contracts/stakingContract.sol\":27243:27261  bool public paused */\n    tag_9:\n      callvalue\n      dup1\n      iszero\n      tag_63\n      jumpi\n      0x00\n      dup1\n      revert\n    tag_63:\n      pop\n      tag_64\n      tag_65\n      jump\t// in\n    tag_64:\n      mload(0x40)\n      tag_66\n      swap2\n      swap1\n      tag_67\n      jump\t// in\n    tag_66:\n      mload(0x40)\n      dup1\n      swap2\n      sub\n      swap1\n      return\n        /* \"contracts/stakingContract.sol\":36572:36684  function getContractBalance() public view onlyOwner returns (uint) {... */\n    tag_10:\n      callvalue\n      dup1\n      iszero\n      tag_68\n      jumpi\n      0x00\n      dup1\n      revert\n    tag_68:\n      pop\n      tag_69\n      tag_70\n      jump\t// in\n    tag_69:\n      mload(0x40)\n      tag_71\n      swap2\n      swap1\n      tag_28\n      jump\t// in\n    tag_71:\n      mload(0x40)\n      dup1\n      swap2\n      sub\n      swap1\n      return\n        /* \"contracts/stakingContract.sol\":25098:25199  function renounceOwnership() public virtual onlyOwner {... */\n    tag_11:\n      callvalue\n      dup1\n      iszero\n      tag_72\n      jumpi\n      0x00\n      dup1\n      revert\n    tag_72:\n      pop\n      tag_73\n      tag_74\n      jump\t// in\n    tag_73:\n      stop\n        /* \"contracts/stakingContract.sol\":32576:32862  function stake(uint256 amount, uint256 duration) external requireLiquidity {... */\n    tag_12:\n      callvalue\n      dup1\n      iszero\n      tag_75\n      jumpi\n      0x00\n      dup1\n      revert\n    tag_75:\n      pop\n      tag_76\n      0x04\n      dup1\n      calldatasize\n      sub\n      dup2\n      add\n      swap1\n      tag_77\n      swap2\n      swap1\n      tag_61\n      jump\t// in\n    tag_77:\n      tag_78\n      jump\t// in\n    tag_76:\n      stop\n        /* \"contracts/stakingContract.sol\":30674:30833  function durationRewardRate(uint256 _duration)... */\n    tag_13:\n      callvalue\n      dup1\n      iszero\n      tag_79\n      jumpi\n      0x00\n      dup1\n      revert\n    tag_79:\n      pop\n      tag_80\n      0x04\n      dup1\n      calldatasize\n      sub\n      dup2\n      add\n      swap1\n      tag_81\n      swap2\n      swap1\n      tag_43\n      jump\t// in\n    tag_81:\n      tag_82\n      jump\t// in\n    tag_80:\n      mload(0x40)\n      tag_83\n      swap2\n      swap1\n      tag_28\n      jump\t// in\n    tag_83:\n      mload(0x40)\n      dup1\n      swap2\n      sub\n      swap1\n      return\n        /* \"contracts/stakingContract.sol\":31688:32226  function totalHoldings(address account)... */\n    tag_14:\n      callvalue\n      dup1\n      iszero\n      tag_84\n      jumpi\n      0x00\n      dup1\n      revert\n    tag_84:\n      pop\n      tag_85\n      0x04\n      dup1\n      calldatasize\n      sub\n      dup2\n      add\n      swap1\n      tag_86\n      swap2\n      swap1\n      tag_36\n      jump\t// in\n    tag_86:\n      tag_87\n      jump\t// in\n    tag_85:\n      mload(0x40)\n      tag_88\n      swap3\n      swap2\n      swap1\n      tag_89\n      jump\t// in\n    tag_88:\n      mload(0x40)\n      dup1\n      swap2\n      sub\n      swap1\n      return\n        /* \"contracts/stakingContract.sol\":24468:24553  function owner() public view virtual returns (address) {... */\n    tag_15:\n      callvalue\n      dup1\n      iszero\n      tag_90\n      jumpi\n      0x00\n      dup1\n      revert\n    tag_90:\n      pop\n      tag_91\n      tag_92\n      jump\t// in\n    tag_91:\n      mload(0x40)\n      tag_93\n      swap2\n      swap1\n      tag_94\n      jump\t// in\n    tag_93:\n      mload(0x40)\n      dup1\n      swap2\n      sub\n      swap1\n      return\n        /* \"contracts/stakingContract.sol\":31034:31439  function totalStaked(address account)... */\n    tag_16:\n      callvalue\n      dup1\n      iszero\n      tag_95\n      jumpi\n      0x00\n      dup1\n      revert\n    tag_95:\n      pop\n      tag_96\n      0x04\n      dup1\n      calldatasize\n      sub\n      dup2\n      add\n      swap1\n      tag_97\n      swap2\n      swap1\n      tag_36\n      jump\t// in\n    tag_97:\n      tag_98\n      jump\t// in\n    tag_96:\n      mload(0x40)\n      tag_99\n      swap3\n      swap2\n      swap1\n      tag_89\n      jump\t// in\n    tag_99:\n      mload(0x40)\n      dup1\n      swap2\n      sub\n      swap1\n      return\n        /* \"contracts/stakingContract.sol\":27268:27313  mapping(address => Stake[]) public userStakes */\n    tag_17:\n      callvalue\n      dup1\n      iszero\n      tag_100\n      jumpi\n      0x00\n      dup1\n      revert\n    tag_100:\n      pop\n      tag_101\n      0x04\n      dup1\n      calldatasize\n      sub\n      dup2\n      add\n      swap1\n      tag_102\n      swap2\n      swap1\n      tag_103\n      jump\t// in\n    tag_102:\n      tag_104\n      jump\t// in\n    tag_101:\n      mload(0x40)\n      tag_105\n      swap6\n      swap5\n      swap4\n      swap3\n      swap2\n      swap1\n      tag_106\n      jump\t// in\n    tag_105:\n      mload(0x40)\n      dup1\n      swap2\n      sub\n      swap1\n      return\n        /* \"contracts/stakingContract.sol\":26128:26243  uint256[] public durations = [... */\n    tag_18:\n      callvalue\n      dup1\n      iszero\n      tag_107\n      jumpi\n      0x00\n      dup1\n      revert\n    tag_107:\n      pop\n      tag_108\n      0x04\n      dup1\n      calldatasize\n      sub\n      dup2\n      add\n      swap1\n      tag_109\n      swap2\n      swap1\n      tag_43\n      jump\t// in\n    tag_109:\n      tag_110\n      jump\t// in\n    tag_108:\n      mload(0x40)\n      tag_111\n      swap2\n      swap1\n      tag_28\n      jump\t// in\n    tag_111:\n      mload(0x40)\n      dup1\n      swap2\n      sub\n      swap1\n      return\n        /* \"contracts/stakingContract.sol\":26439:26476  uint256[] public rates = [4, 6, 8, 9] */\n    tag_19:\n      callvalue\n      dup1\n      iszero\n      tag_112\n      jumpi\n      0x00\n      dup1\n      revert\n    tag_112:\n      pop\n      tag_113\n      0x04\n      dup1\n      calldatasize\n      sub\n      dup2\n      add\n      swap1\n      tag_114\n      swap2\n      swap1\n      tag_43\n      jump\t// in\n    tag_114:\n      tag_115\n      jump\t// in\n    tag_113:\n      mload(0x40)\n      tag_116\n      swap2\n      swap1\n      tag_28\n      jump\t// in\n    tag_116:\n      mload(0x40)\n      dup1\n      swap2\n      sub\n      swap1\n      return\n        /* \"contracts/stakingContract.sol\":32928:34157  function exit() external requireLiquidity {... */\n    tag_20:\n      callvalue\n      dup1\n      iszero\n      tag_117\n      jumpi\n      0x00\n      dup1\n      revert\n    tag_117:\n      pop\n      tag_118\n      tag_119\n      jump\t// in\n    tag_118:\n      stop\n        /* \"contracts/stakingContract.sol\":25348:25580  function transferOwnership(address newOwner) public virtual onlyOwner {... */\n    tag_21:\n      callvalue\n      dup1\n      iszero\n      tag_120\n      jumpi\n      0x00\n      dup1\n      revert\n    tag_120:\n      pop\n      tag_121\n      0x04\n      dup1\n      calldatasize\n      sub\n      dup2\n      add\n      swap1\n      tag_122\n      swap2\n      swap1\n      tag_36\n      jump\t// in\n    tag_122:\n      tag_123\n      jump\t// in\n    tag_121:\n      stop\n        /* \"contracts/stakingContract.sol\":30398:30547  function getAllStakes(address account)... */\n    tag_37:\n        /* \"contracts/stakingContract.sol\":30484:30498  Stake[] memory */\n      0x60\n        /* \"contracts/stakingContract.sol\":30521:30531  userStakes */\n      0x05\n        /* \"contracts/stakingContract.sol\":30521:30540  userStakes[account] */\n      0x00\n        /* \"contracts/stakingContract.sol\":30532:30539  account */\n      dup4\n        /* \"contracts/stakingContract.sol\":30521:30540  userStakes[account] */\n      0xffffffffffffffffffffffffffffffffffffffff\n      and\n      0xffffffffffffffffffffffffffffffffffffffff\n      and\n      dup2\n      mstore\n      0x20\n      add\n      swap1\n      dup2\n      mstore\n      0x20\n      add\n      0x00\n      keccak256\n        /* \"contracts/stakingContract.sol\":30514:30540  return userStakes[account] */\n      dup1\n      sload\n      dup1\n      0x20\n      mul\n      0x20\n      add\n      mload(0x40)\n      swap1\n      dup2\n      add\n      0x40\n      mstore\n      dup1\n      swap3\n      swap2\n      swap1\n      dup2\n      dup2\n      mstore\n      0x20\n      add\n      0x00\n      swap1\n    tag_125:\n      dup3\n      dup3\n      lt\n      iszero\n      tag_126\n      jumpi\n      dup4\n      dup3\n      swap1\n      0x00\n      mstore\n      keccak256(0x00, 0x20)\n      swap1\n      0x04\n      mul\n      add\n      mload(0x40)\n      dup1\n      0xa0\n      add\n      0x40\n      mstore\n      swap1\n      dup2\n      0x00\n      dup3\n      add\n      sload\n      dup2\n      mstore\n      0x20\n      add\n      0x01\n      dup3\n      add\n      sload\n      dup2\n      mstore\n      0x20\n      add\n      0x02\n      dup3\n      add\n      sload\n      dup2\n      mstore\n      0x20\n      add\n      0x03\n      dup3\n      add\n      0x00\n      swap1\n      sload\n      swap1\n      0x0100\n      exp\n      swap1\n      div\n      0xffffffffffffffffffffffffffffffffffffffffffffffffffffffffffffff\n      and\n      0xffffffffffffffffffffffffffffffffffffffffffffffffffffffffffffff\n      and\n      0xffffffffffffffffffffffffffffffffffffffffffffffffffffffffffffff\n      and\n      dup2\n      mstore\n      0x20\n      add\n      0x03\n      dup3\n      add\n      0x1f\n      swap1\n      sload\n      swap1\n      0x0100\n      exp\n      swap1\n      div\n      0xff\n      and\n      iszero\n      iszero\n      iszero\n      iszero\n      dup2\n      mstore\n      pop\n      pop\n      dup2\n      mstore\n      0x20\n      add\n      swap1\n      0x01\n      add\n      swap1\n      jump(tag_125)\n    tag_126:\n      pop\n      pop\n      pop\n      pop\n      swap1\n      pop\n        /* \"contracts/stakingContract.sol\":30398:30547  function getAllStakes(address account)... */\n      swap2\n      swap1\n      pop\n      jump\t// out\n        /* \"contracts/stakingContract.sol\":35117:35340  function withdrawLiquidity(uint256 amount)... */\n    tag_44:\n        /* \"contracts/stakingContract.sol\":24361:24374  _checkOwner() */\n      tag_129\n        /* \"contracts/stakingContract.sol\":24361:24372  _checkOwner */\n      tag_130\n        /* \"contracts/stakingContract.sol\":24361:24374  _checkOwner() */\n      jump\t// in\n    tag_129:\n        /* \"contracts/stakingContract.sol\":35117:35340  function withdrawLiquidity(uint256 amount)... */\n      pop\n      jump\t// out\n        /* \"contracts/stakingContract.sol\":27206:27237  uint256 public totalOutstanding */\n    tag_47:\n      sload(0x03)\n      dup2\n      jump\t// out\n        /* \"contracts/stakingContract.sol\":35389:35515  function setPaused(bool _paused) external onlyOwner {... */\n    tag_53:\n        /* \"contracts/stakingContract.sol\":24361:24374  _checkOwner() */\n      tag_134\n        /* \"contracts/stakingContract.sol\":24361:24372  _checkOwner */\n      tag_130\n        /* \"contracts/stakingContract.sol\":24361:24374  _checkOwner() */\n      jump\t// in\n    tag_134:\n        /* \"contracts/stakingContract.sol\":35460:35467  _paused */\n      dup1\n        /* \"contracts/stakingContract.sol\":35451:35457  paused */\n      0x04\n      0x00\n        /* \"contracts/stakingContract.sol\":35451:35467  paused = _paused */\n      0x0100\n      exp\n      dup2\n      sload\n      dup2\n      0xff\n      mul\n      not\n      and\n      swap1\n      dup4\n      iszero\n      iszero\n      mul\n      or\n      swap1\n      sstore\n      pop\n        /* \"contracts/stakingContract.sol\":35489:35499  msg.sender */\n      caller\n        /* \"contracts/stakingContract.sol\":35482:35508  Paused(msg.sender, paused) */\n      0xffffffffffffffffffffffffffffffffffffffff\n      and\n      0xe8699cf681560fd07de85543bd994263f4557bdc5179dd702f256d15fd083e1d\n        /* \"contracts/stakingContract.sol\":35501:35507  paused */\n      0x04\n      0x00\n      swap1\n      sload\n      swap1\n      0x0100\n      exp\n      swap1\n      div\n      0xff\n      and\n        /* \"contracts/stakingContract.sol\":35482:35508  Paused(msg.sender, paused) */\n      mload(0x40)\n      tag_136\n      swap2\n      swap1\n      tag_67\n      jump\t// in\n    tag_136:\n      mload(0x40)\n      dup1\n      swap2\n      sub\n      swap1\n      log2\n        /* \"contracts/stakingContract.sol\":35389:35515  function setPaused(bool _paused) external onlyOwner {... */\n      pop\n      jump\t// out\n        /* \"contracts/stakingContract.sol\":34211:35111  function unstake(uint256 _stakeId) external requireLiquidity {... */\n    tag_57:\n        /* \"contracts/stakingContract.sol\":34282:34304  Stake[] storage stakes */\n      0x00\n        /* \"contracts/stakingContract.sol\":34307:34317  userStakes */\n      0x05\n        /* \"contracts/stakingContract.sol\":34307:34329  userStakes[msg.sender] */\n      0x00\n        /* \"contracts/stakingContract.sol\":34318:34328  msg.sender */\n      caller\n        /* \"contracts/stakingContract.sol\":34307:34329  userStakes[msg.sender] */\n      0xffffffffffffffffffffffffffffffffffffffff\n      and\n      0xffffffffffffffffffffffffffffffffffffffff\n      and\n      dup2\n      mstore\n      0x20\n      add\n      swap1\n      dup2\n      mstore\n      0x20\n      add\n      0x00\n      keccak256\n        /* \"contracts/stakingContract.sol\":34282:34329  Stake[] storage stakes = userStakes[msg.sender] */\n      swap1\n      pop\n        /* \"contracts/stakingContract.sol\":34363:34364  0 */\n      0x00\n        /* \"contracts/stakingContract.sol\":34347:34353  stakes */\n      dup2\n        /* \"contracts/stakingContract.sol\":34347:34360  stakes.length */\n      dup1\n      sload\n      swap1\n      pop\n        /* \"contracts/stakingContract.sol\":34347:34364  stakes.length > 0 */\n      gt\n        /* \"contracts/stakingContract.sol\":34339:34383  require(stakes.length > 0, \"Nothing staked\") */\n      tag_139\n      jumpi\n      mload(0x40)\n      0x08c379a000000000000000000000000000000000000000000000000000000000\n      dup2\n      mstore\n      0x04\n      add\n      tag_140\n      swap1\n      tag_141\n      jump\t// in\n    tag_140:\n      mload(0x40)\n      dup1\n      swap2\n      sub\n      swap1\n      revert\n    tag_139:\n        /* \"contracts/stakingContract.sol\":34394:34415  uint256 totalWithdraw */\n      0x00\n        /* \"contracts/stakingContract.sol\":34430:34452  Stake memory exitStake */\n      dup1\n        /* \"contracts/stakingContract.sol\":34455:34461  stakes */\n      dup3\n        /* \"contracts/stakingContract.sol\":34473:34474  1 */\n      0x01\n        /* \"contracts/stakingContract.sol\":34462:34470  _stakeId */\n      dup6\n        /* \"contracts/stakingContract.sol\":34462:34474  _stakeId - 1 */\n      tag_142\n      swap2\n      swap1\n      tag_143\n      jump\t// in\n    tag_142:\n        /* \"contracts/stakingContract.sol\":34455:34475  stakes[_stakeId - 1] */\n      dup2\n      sload\n      dup2\n      lt\n      tag_144\n      jumpi\n      tag_145\n      tag_146\n      jump\t// in\n    tag_145:\n    tag_144:\n      swap1\n      0x00\n      mstore\n      keccak256(0x00, 0x20)\n      swap1\n      0x04\n      mul\n      add\n        /* \"contracts/stakingContract.sol\":34430:34475  Stake memory exitStake = stakes[_stakeId - 1] */\n      mload(0x40)\n      dup1\n      0xa0\n      add\n      0x40\n      mstore\n      swap1\n      dup2\n      0x00\n      dup3\n      add\n      sload\n      dup2\n      mstore\n      0x20\n      add\n      0x01\n      dup3\n      add\n      sload\n      dup2\n      mstore\n      0x20\n      add\n      0x02\n      dup3\n      add\n      sload\n      dup2\n      mstore\n      0x20\n      add\n      0x03\n      dup3\n      add\n      0x00\n      swap1\n      sload\n      swap1\n      0x0100\n      exp\n      swap1\n      div\n      0xffffffffffffffffffffffffffffffffffffffffffffffffffffffffffffff\n      and\n      0xffffffffffffffffffffffffffffffffffffffffffffffffffffffffffffff\n      and\n      0xffffffffffffffffffffffffffffffffffffffffffffffffffffffffffffff\n      and\n      dup2\n      mstore\n      0x20\n      add\n      0x03\n      dup3\n      add\n      0x1f\n      swap1\n      sload\n      swap1\n      0x0100\n      exp\n      swap1\n      div\n      0xff\n      and\n      iszero\n      iszero\n      iszero\n      iszero\n      dup2\n      mstore\n      pop\n      pop\n      swap1\n      pop\n        /* \"contracts/stakingContract.sol\":34508:34517  exitStake */\n      dup1\n        /* \"contracts/stakingContract.sol\":34508:34522  exitStake.paid */\n      0x80\n      add\n      mload\n        /* \"contracts/stakingContract.sol\":34507:34522  !exitStake.paid */\n      iszero\n        /* \"contracts/stakingContract.sol\":34507:34557  !exitStake.paid && exitStake.end < block.timestamp */\n      dup1\n      iszero\n      tag_148\n      jumpi\n      pop\n        /* \"contracts/stakingContract.sol\":34542:34557  block.timestamp */\n      timestamp\n        /* \"contracts/stakingContract.sol\":34526:34535  exitStake */\n      dup2\n        /* \"contracts/stakingContract.sol\":34526:34539  exitStake.end */\n      0x20\n      add\n      mload\n        /* \"contracts/stakingContract.sol\":34526:34557  exitStake.end < block.timestamp */\n      lt\n        /* \"contracts/stakingContract.sol\":34507:34557  !exitStake.paid && exitStake.end < block.timestamp */\n    tag_148:\n        /* \"contracts/stakingContract.sol\":34486:34611  require(... */\n      tag_149\n      jumpi\n      mload(0x40)\n      0x08c379a000000000000000000000000000000000000000000000000000000000\n      dup2\n      mstore\n      0x04\n      add\n      tag_150\n      swap1\n      tag_151\n      jump\t// in\n    tag_150:\n      mload(0x40)\n      dup1\n      swap2\n      sub\n      swap1\n      revert\n    tag_149:\n        /* \"contracts/stakingContract.sol\":34720:34724  true */\n      0x01\n        /* \"contracts/stakingContract.sol\":34692:34698  stakes */\n      dup4\n        /* \"contracts/stakingContract.sol\":34710:34711  1 */\n      0x01\n        /* \"contracts/stakingContract.sol\":34699:34707  _stakeId */\n      dup7\n        /* \"contracts/stakingContract.sol\":34699:34711  _stakeId - 1 */\n      tag_152\n      swap2\n      swap1\n      tag_143\n      jump\t// in\n    tag_152:\n        /* \"contracts/stakingContract.sol\":34692:34712  stakes[_stakeId - 1] */\n      dup2\n      sload\n      dup2\n      lt\n      tag_153\n      jumpi\n      tag_154\n      tag_146\n      jump\t// in\n    tag_154:\n    tag_153:\n      swap1\n      0x00\n      mstore\n      keccak256(0x00, 0x20)\n      swap1\n      0x04\n      mul\n      add\n        /* \"contracts/stakingContract.sol\":34692:34717  stakes[_stakeId - 1].paid */\n      0x03\n      add\n      0x1f\n        /* \"contracts/stakingContract.sol\":34692:34724  stakes[_stakeId - 1].paid = true */\n      0x0100\n      exp\n      dup2\n      sload\n      dup2\n      0xff\n      mul\n      not\n      and\n      swap1\n      dup4\n      iszero\n      iszero\n      mul\n      or\n      swap1\n      sstore\n      pop\n        /* \"contracts/stakingContract.sol\":34750:34794  totalWithdraw.add(_totalExpected(exitStake)) */\n      tag_156\n        /* \"contracts/stakingContract.sol\":34768:34793  _totalExpected(exitStake) */\n      tag_157\n        /* \"contracts/stakingContract.sol\":34783:34792  exitStake */\n      dup3\n        /* \"contracts/stakingContract.sol\":34768:34782  _totalExpected */\n      tag_158\n        /* \"contracts/stakingContract.sol\":34768:34793  _totalExpected(exitStake) */\n      jump\t// in\n    tag_157:\n        /* \"contracts/stakingContract.sol\":34750:34763  totalWithdraw */\n      dup4\n        /* \"contracts/stakingContract.sol\":34750:34767  totalWithdraw.add */\n      tag_159\n      swap1\n        /* \"contracts/stakingContract.sol\":34750:34794  totalWithdraw.add(_totalExpected(exitStake)) */\n      swap2\n      swap1\n      0xffffffff\n      and\n      jump\t// in\n    tag_156:\n        /* \"contracts/stakingContract.sol\":34734:34794  totalWithdraw = totalWithdraw.add(_totalExpected(exitStake)) */\n      swap2\n      pop\n        /* \"contracts/stakingContract.sol\":34829:34830  0 */\n      0x00\n        /* \"contracts/stakingContract.sol\":34813:34826  totalWithdraw */\n      dup3\n        /* \"contracts/stakingContract.sol\":34813:34830  totalWithdraw > 0 */\n      gt\n        /* \"contracts/stakingContract.sol\":34805:34854  require(totalWithdraw > 0, \"Stake is in lock-up\") */\n      tag_160\n      jumpi\n      mload(0x40)\n      0x08c379a000000000000000000000000000000000000000000000000000000000\n      dup2\n      mstore\n      0x04\n      add\n      tag_161\n      swap1\n      tag_162\n      jump\t// in\n    tag_161:\n      mload(0x40)\n      dup1\n      swap2\n      sub\n      swap1\n      revert\n    tag_160:\n        /* \"contracts/stakingContract.sol\":34884:34919  totalOutstanding.sub(totalWithdraw) */\n      tag_163\n        /* \"contracts/stakingContract.sol\":34905:34918  totalWithdraw */\n      dup3\n        /* \"contracts/stakingContract.sol\":34884:34900  totalOutstanding */\n      sload(0x03)\n        /* \"contracts/stakingContract.sol\":34884:34904  totalOutstanding.sub */\n      tag_164\n      swap1\n        /* \"contracts/stakingContract.sol\":34884:34919  totalOutstanding.sub(totalWithdraw) */\n      swap2\n      swap1\n      0xffffffff\n      and\n      jump\t// in\n    tag_163:\n        /* \"contracts/stakingContract.sol\":34865:34881  totalOutstanding */\n      0x03\n        /* \"contracts/stakingContract.sol\":34865:34919  totalOutstanding = totalOutstanding.sub(totalWithdraw) */\n      dup2\n      swap1\n      sstore\n      pop\n        /* \"contracts/stakingContract.sol\":34944:34954  msg.sender */\n      caller\n        /* \"contracts/stakingContract.sol\":34934:34988  Withdrawn(msg.sender, totalWithdraw, exitStake.amount) */\n      0xffffffffffffffffffffffffffffffffffffffff\n      and\n      0x92ccf450a286a957af52509bc1c9939d1a6a481783e142e41e2499f0bb66ebc6\n        /* \"contracts/stakingContract.sol\":34956:34969  totalWithdraw */\n      dup4\n        /* \"contracts/stakingContract.sol\":34971:34980  exitStake */\n      dup4\n        /* \"contracts/stakingContract.sol\":34971:34987  exitStake.amount */\n      0x00\n      add\n      mload\n        /* \"contracts/stakingContract.sol\":34934:34988  Withdrawn(msg.sender, totalWithdraw, exitStake.amount) */\n      mload(0x40)\n      tag_165\n      swap3\n      swap2\n      swap1\n      tag_89\n      jump\t// in\n    tag_165:\n      mload(0x40)\n      dup1\n      swap2\n      sub\n      swap1\n      log2\n        /* \"contracts/stakingContract.sol\":34272:35111  {... */\n      pop\n      pop\n      pop\n        /* \"contracts/stakingContract.sol\":34211:35111  function unstake(uint256 _stakeId) external requireLiquidity {... */\n      pop\n      jump\t// out\n        /* \"contracts/stakingContract.sol\":36064:36225  function addNewDurationRates(uint256 _durations, uint256 _rates)... */\n    tag_62:\n        /* \"contracts/stakingContract.sol\":24361:24374  _checkOwner() */\n      tag_167\n        /* \"contracts/stakingContract.sol\":24361:24372  _checkOwner */\n      tag_130\n        /* \"contracts/stakingContract.sol\":24361:24374  _checkOwner() */\n      jump\t// in\n    tag_167:\n        /* \"contracts/stakingContract.sol\":36178:36218  _addNewDurationRates(_durations, _rates) */\n      tag_169\n        /* \"contracts/stakingContract.sol\":36199:36209  _durations */\n      dup3\n        /* \"contracts/stakingContract.sol\":36211:36217  _rates */\n      dup3\n        /* \"contracts/stakingContract.sol\":36178:36198  _addNewDurationRates */\n      tag_170\n        /* \"contracts/stakingContract.sol\":36178:36218  _addNewDurationRates(_durations, _rates) */\n      jump\t// in\n    tag_169:\n        /* \"contracts/stakingContract.sol\":36064:36225  function addNewDurationRates(uint256 _durations, uint256 _rates)... */\n      pop\n      pop\n      jump\t// out\n        /* \"contracts/stakingContract.sol\":27243:27261  bool public paused */\n    tag_65:\n      0x04\n      0x00\n      swap1\n      sload\n      swap1\n      0x0100\n      exp\n      swap1\n      div\n      0xff\n      and\n      dup2\n      jump\t// out\n        /* \"contracts/stakingContract.sol\":36572:36684  function getContractBalance() public view onlyOwner returns (uint) {... */\n    tag_70:\n        /* \"contracts/stakingContract.sol\":36633:36637  uint */\n      0x00\n        /* \"contracts/stakingContract.sol\":24361:24374  _checkOwner() */\n      tag_172\n        /* \"contracts/stakingContract.sol\":24361:24372  _checkOwner */\n      tag_130\n        /* \"contracts/stakingContract.sol\":24361:24374  _checkOwner() */\n      jump\t// in\n    tag_172:\n        /* \"contracts/stakingContract.sol\":36656:36677  address(this).balance */\n      selfbalance\n        /* \"contracts/stakingContract.sol\":36649:36677  return address(this).balance */\n      swap1\n      pop\n        /* \"contracts/stakingContract.sol\":36572:36684  function getContractBalance() public view onlyOwner returns (uint) {... */\n      swap1\n      jump\t// out\n        /* \"contracts/stakingContract.sol\":25098:25199  function renounceOwnership() public virtual onlyOwner {... */\n    tag_74:\n        /* \"contracts/stakingContract.sol\":24361:24374  _checkOwner() */\n      tag_175\n        /* \"contracts/stakingContract.sol\":24361:24372  _checkOwner */\n      tag_130\n        /* \"contracts/stakingContract.sol\":24361:24374  _checkOwner() */\n      jump\t// in\n    tag_175:\n        /* \"contracts/stakingContract.sol\":25162:25192  _transferOwnership(address(0)) */\n      tag_177\n        /* \"contracts/stakingContract.sol\":25189:25190  0 */\n      0x00\n        /* \"contracts/stakingContract.sol\":25162:25180  _transferOwnership */\n      tag_178\n        /* \"contracts/stakingContract.sol\":25162:25192  _transferOwnership(address(0)) */\n      jump\t// in\n    tag_177:\n        /* \"contracts/stakingContract.sol\":25098:25199  function renounceOwnership() public virtual onlyOwner {... */\n      jump\t// out\n        /* \"contracts/stakingContract.sol\":32576:32862  function stake(uint256 amount, uint256 duration) external requireLiquidity {... */\n    tag_78:\n        /* \"contracts/stakingContract.sol\":32670:32676  paused */\n      0x04\n      0x00\n      swap1\n      sload\n      swap1\n      0x0100\n      exp\n      swap1\n      div\n      0xff\n      and\n        /* \"contracts/stakingContract.sol\":32669:32676  !paused */\n      iszero\n        /* \"contracts/stakingContract.sol\":32661:32695  require(!paused, \"Staking paused\") */\n      tag_181\n      jumpi\n      mload(0x40)\n      0x08c379a000000000000000000000000000000000000000000000000000000000\n      dup2\n      mstore\n      0x04\n      add\n      tag_182\n      swap1\n      tag_183\n      jump\t// in\n    tag_182:\n      mload(0x40)\n      dup1\n      swap2\n      sub\n      swap1\n      revert\n    tag_181:\n        /* \"contracts/stakingContract.sol\":32809:32855  _stakeWithChecks(msg.sender, amount, duration) */\n      tag_184\n        /* \"contracts/stakingContract.sol\":32826:32836  msg.sender */\n      caller\n        /* \"contracts/stakingContract.sol\":32838:32844  amount */\n      dup4\n        /* \"contracts/stakingContract.sol\":32846:32854  duration */\n      dup4\n        /* \"contracts/stakingContract.sol\":32809:32825  _stakeWithChecks */\n      tag_185\n        /* \"contracts/stakingContract.sol\":32809:32855  _stakeWithChecks(msg.sender, amount, duration) */\n      jump\t// in\n    tag_184:\n        /* \"contracts/stakingContract.sol\":32576:32862  function stake(uint256 amount, uint256 duration) external requireLiquidity {... */\n      pop\n      pop\n      jump\t// out\n        /* \"contracts/stakingContract.sol\":30674:30833  function durationRewardRate(uint256 _duration)... */\n    tag_82:\n        /* \"contracts/stakingContract.sol\":30768:30775  uint256 */\n      0x00\n        /* \"contracts/stakingContract.sol\":30798:30826  _findDurationRate(_duration) */\n      tag_187\n        /* \"contracts/stakingContract.sol\":30816:30825  _duration */\n      dup3\n        /* \"contracts/stakingContract.sol\":30798:30815  _findDurationRate */\n      tag_188\n        /* \"contracts/stakingContract.sol\":30798:30826  _findDurationRate(_duration) */\n      jump\t// in\n    tag_187:\n        /* \"contracts/stakingContract.sol\":30791:30826  return _findDurationRate(_duration) */\n      0xffffffffffffffffffffffffffffffffffffffffffffffffffffffffffffff\n      and\n      swap1\n      pop\n        /* \"contracts/stakingContract.sol\":30674:30833  function durationRewardRate(uint256 _duration)... */\n      swap2\n      swap1\n      pop\n      jump\t// out\n        /* \"contracts/stakingContract.sol\":31688:32226  function totalHoldings(address account)... */\n    tag_87:\n        /* \"contracts/stakingContract.sol\":31775:31788  uint256 total */\n      0x00\n        /* \"contracts/stakingContract.sol\":31790:31813  uint256 totalStakeCount */\n      dup1\n        /* \"contracts/stakingContract.sol\":31829:31850  Stake[] memory stakes */\n      0x00\n        /* \"contracts/stakingContract.sol\":31853:31863  userStakes */\n      0x05\n        /* \"contracts/stakingContract.sol\":31853:31872  userStakes[account] */\n      0x00\n        /* \"contracts/stakingContract.sol\":31864:31871  account */\n      dup6\n        /* \"contracts/stakingContract.sol\":31853:31872  userStakes[account] */\n      0xffffffffffffffffffffffffffffffffffffffff\n      and\n      0xffffffffffffffffffffffffffffffffffffffff\n      and\n      dup2\n      mstore\n      0x20\n      add\n      swap1\n      dup2\n      mstore\n      0x20\n      add\n      0x00\n      keccak256\n        /* \"contracts/stakingContract.sol\":31829:31872  Stake[] memory stakes = userStakes[account] */\n      dup1\n      sload\n      dup1\n      0x20\n      mul\n      0x20\n      add\n      mload(0x40)\n      swap1\n      dup2\n      add\n      0x40\n      mstore\n      dup1\n      swap3\n      swap2\n      swap1\n      dup2\n      dup2\n      mstore\n      0x20\n      add\n      0x00\n      swap1\n    tag_190:\n      dup3\n      dup3\n      lt\n      iszero\n      tag_191\n      jumpi\n      dup4\n      dup3\n      swap1\n      0x00\n      mstore\n      keccak256(0x00, 0x20)\n      swap1\n      0x04\n      mul\n      add\n      mload(0x40)\n      dup1\n      0xa0\n      add\n      0x40\n      mstore\n      swap1\n      dup2\n      0x00\n      dup3\n      add\n      sload\n      dup2\n      mstore\n      0x20\n      add\n      0x01\n      dup3\n      add\n      sload\n      dup2\n      mstore\n      0x20\n      add\n      0x02\n      dup3\n      add\n      sload\n      dup2\n      mstore\n      0x20\n      add\n      0x03\n      dup3\n      add\n      0x00\n      swap1\n      sload\n      swap1\n      0x0100\n      exp\n      swap1\n      div\n      0xffffffffffffffffffffffffffffffffffffffffffffffffffffffffffffff\n      and\n      0xffffffffffffffffffffffffffffffffffffffffffffffffffffffffffffff\n      and\n      0xffffffffffffffffffffffffffffffffffffffffffffffffffffffffffffff\n      and\n      dup2\n      mstore\n      0x20\n      add\n      0x03\n      dup3\n      add\n      0x1f\n      swap1\n      sload\n      swap1\n      0x0100\n      exp\n      swap1\n      div\n      0xff\n      and\n      iszero\n      iszero\n      iszero\n      iszero\n      dup2\n      mstore\n      pop\n      pop\n      dup2\n      mstore\n      0x20\n      add\n      swap1\n      0x01\n      add\n      swap1\n      jump(tag_190)\n    tag_191:\n      pop\n      pop\n      pop\n      pop\n      swap1\n      pop\n        /* \"contracts/stakingContract.sol\":31888:31897  uint256 i */\n      0x00\n        /* \"contracts/stakingContract.sol\":31883:32220  for (uint256 i = 0; i < stakes.length; i++) {... */\n    tag_193:\n        /* \"contracts/stakingContract.sol\":31907:31913  stakes */\n      dup2\n        /* \"contracts/stakingContract.sol\":31907:31920  stakes.length */\n      mload\n        /* \"contracts/stakingContract.sol\":31903:31904  i */\n      dup2\n        /* \"contracts/stakingContract.sol\":31903:31920  i < stakes.length */\n      lt\n        /* \"contracts/stakingContract.sol\":31883:32220  for (uint256 i = 0; i < stakes.length; i++) {... */\n      iszero\n      tag_194\n      jumpi\n        /* \"contracts/stakingContract.sol\":31946:31952  stakes */\n      dup2\n        /* \"contracts/stakingContract.sol\":31953:31954  i */\n      dup2\n        /* \"contracts/stakingContract.sol\":31946:31955  stakes[i] */\n      dup2\n      mload\n      dup2\n      lt\n      tag_196\n      jumpi\n      tag_197\n      tag_146\n      jump\t// in\n    tag_197:\n    tag_196:\n      0x20\n      mul\n      0x20\n      add\n      add\n      mload\n        /* \"contracts/stakingContract.sol\":31946:31960  stakes[i].paid */\n      0x80\n      add\n      mload\n        /* \"contracts/stakingContract.sol\":31941:32210  if (!stakes[i].paid) {... */\n      tag_198\n      jumpi\n        /* \"contracts/stakingContract.sol\":31988:32015  total.add(stakes[i].amount) */\n      tag_199\n        /* \"contracts/stakingContract.sol\":31998:32004  stakes */\n      dup3\n        /* \"contracts/stakingContract.sol\":32005:32006  i */\n      dup3\n        /* \"contracts/stakingContract.sol\":31998:32007  stakes[i] */\n      dup2\n      mload\n      dup2\n      lt\n      tag_200\n      jumpi\n      tag_201\n      tag_146\n      jump\t// in\n    tag_201:\n    tag_200:\n      0x20\n      mul\n      0x20\n      add\n      add\n      mload\n        /* \"contracts/stakingContract.sol\":31998:32014  stakes[i].amount */\n      0x00\n      add\n      mload\n        /* \"contracts/stakingContract.sol\":31988:31993  total */\n      dup6\n        /* \"contracts/stakingContract.sol\":31988:31997  total.add */\n      tag_159\n      swap1\n        /* \"contracts/stakingContract.sol\":31988:32015  total.add(stakes[i].amount) */\n      swap2\n      swap1\n      0xffffffff\n      and\n      jump\t// in\n    tag_199:\n        /* \"contracts/stakingContract.sol\":31980:32015  total = total.add(stakes[i].amount) */\n      swap4\n      pop\n        /* \"contracts/stakingContract.sol\":32041:32146  total.add(... */\n      tag_202\n        /* \"contracts/stakingContract.sol\":32072:32128  stakes[i].amount.mul(stakes[i].rate.mul(1e2)).div(10000) */\n      tag_203\n        /* \"contracts/stakingContract.sol\":32122:32127  10000 */\n      0x2710\n        /* \"contracts/stakingContract.sol\":32072:32117  stakes[i].amount.mul(stakes[i].rate.mul(1e2)) */\n      tag_204\n        /* \"contracts/stakingContract.sol\":32093:32116  stakes[i].rate.mul(1e2) */\n      tag_205\n        /* \"contracts/stakingContract.sol\":32112:32115  1e2 */\n      0x64\n        /* \"contracts/stakingContract.sol\":32093:32099  stakes */\n      dup8\n        /* \"contracts/stakingContract.sol\":32100:32101  i */\n      dup8\n        /* \"contracts/stakingContract.sol\":32093:32102  stakes[i] */\n      dup2\n      mload\n      dup2\n      lt\n      tag_206\n      jumpi\n      tag_207\n      tag_146\n      jump\t// in\n    tag_207:\n    tag_206:\n      0x20\n      mul\n      0x20\n      add\n      add\n      mload\n        /* \"contracts/stakingContract.sol\":32093:32107  stakes[i].rate */\n      0x60\n      add\n      mload\n        /* \"contracts/stakingContract.sol\":32093:32111  stakes[i].rate.mul */\n      0xffffffffffffffffffffffffffffffffffffffffffffffffffffffffffffff\n      and\n      tag_208\n      swap1\n        /* \"contracts/stakingContract.sol\":32093:32116  stakes[i].rate.mul(1e2) */\n      swap2\n      swap1\n      0xffffffff\n      and\n      jump\t// in\n    tag_205:\n        /* \"contracts/stakingContract.sol\":32072:32078  stakes */\n      dup7\n        /* \"contracts/stakingContract.sol\":32079:32080  i */\n      dup7\n        /* \"contracts/stakingContract.sol\":32072:32081  stakes[i] */\n      dup2\n      mload\n      dup2\n      lt\n      tag_209\n      jumpi\n      tag_210\n      tag_146\n      jump\t// in\n    tag_210:\n    tag_209:\n      0x20\n      mul\n      0x20\n      add\n      add\n      mload\n        /* \"contracts/stakingContract.sol\":32072:32088  stakes[i].amount */\n      0x00\n      add\n      mload\n        /* \"contracts/stakingContract.sol\":32072:32092  stakes[i].amount.mul */\n      tag_208\n      swap1\n        /* \"contracts/stakingContract.sol\":32072:32117  stakes[i].amount.mul(stakes[i].rate.mul(1e2)) */\n      swap2\n      swap1\n      0xffffffff\n      and\n      jump\t// in\n    tag_204:\n        /* \"contracts/stakingContract.sol\":32072:32121  stakes[i].amount.mul(stakes[i].rate.mul(1e2)).div */\n      tag_211\n      swap1\n        /* \"contracts/stakingContract.sol\":32072:32128  stakes[i].amount.mul(stakes[i].rate.mul(1e2)).div(10000) */\n      swap2\n      swap1\n      0xffffffff\n      and\n      jump\t// in\n    tag_203:\n        /* \"contracts/stakingContract.sol\":32041:32046  total */\n      dup6\n        /* \"contracts/stakingContract.sol\":32041:32050  total.add */\n      tag_159\n      swap1\n        /* \"contracts/stakingContract.sol\":32041:32146  total.add(... */\n      swap2\n      swap1\n      0xffffffff\n      and\n      jump\t// in\n    tag_202:\n        /* \"contracts/stakingContract.sol\":32033:32146  total = total.add(... */\n      swap4\n      pop\n        /* \"contracts/stakingContract.sol\":32182:32188  stakes */\n      dup2\n        /* \"contracts/stakingContract.sol\":32182:32195  stakes.length */\n      mload\n        /* \"contracts/stakingContract.sol\":32164:32195  totalStakeCount = stakes.length */\n      swap3\n      pop\n        /* \"contracts/stakingContract.sol\":31941:32210  if (!stakes[i].paid) {... */\n    tag_198:\n        /* \"contracts/stakingContract.sol\":31922:31925  i++ */\n      dup1\n      dup1\n      tag_212\n      swap1\n      tag_213\n      jump\t// in\n    tag_212:\n      swap2\n      pop\n      pop\n        /* \"contracts/stakingContract.sol\":31883:32220  for (uint256 i = 0; i < stakes.length; i++) {... */\n      jump(tag_193)\n    tag_194:\n      pop\n        /* \"contracts/stakingContract.sol\":31819:32226  {... */\n      pop\n        /* \"contracts/stakingContract.sol\":31688:32226  function totalHoldings(address account)... */\n      swap2\n      pop\n      swap2\n      jump\t// out\n        /* \"contracts/stakingContract.sol\":24468:24553  function owner() public view virtual returns (address) {... */\n    tag_92:\n        /* \"contracts/stakingContract.sol\":24514:24521  address */\n      0x00\n        /* \"contracts/stakingContract.sol\":24540:24546  _owner */\n      dup1\n      0x00\n      swap1\n      sload\n      swap1\n      0x0100\n      exp\n      swap1\n      div\n      0xffffffffffffffffffffffffffffffffffffffff\n      and\n        /* \"contracts/stakingContract.sol\":24533:24546  return _owner */\n      swap1\n      pop\n        /* \"contracts/stakingContract.sol\":24468:24553  function owner() public view virtual returns (address) {... */\n      swap1\n      jump\t// out\n        /* \"contracts/stakingContract.sol\":31034:31439  function totalStaked(address account)... */\n    tag_98:\n        /* \"contracts/stakingContract.sol\":31119:31132  uint256 total */\n      0x00\n        /* \"contracts/stakingContract.sol\":31134:31157  uint256 totalStakeCount */\n      dup1\n        /* \"contracts/stakingContract.sol\":31173:31194  Stake[] memory stakes */\n      0x00\n        /* \"contracts/stakingContract.sol\":31197:31207  userStakes */\n      0x05\n        /* \"contracts/stakingContract.sol\":31197:31216  userStakes[account] */\n      0x00\n        /* \"contracts/stakingContract.sol\":31208:31215  account */\n      dup6\n        /* \"contracts/stakingContract.sol\":31197:31216  userStakes[account] */\n      0xffffffffffffffffffffffffffffffffffffffff\n      and\n      0xffffffffffffffffffffffffffffffffffffffff\n      and\n      dup2\n      mstore\n      0x20\n      add\n      swap1\n      dup2\n      mstore\n      0x20\n      add\n      0x00\n      keccak256\n        /* \"contracts/stakingContract.sol\":31173:31216  Stake[] memory stakes = userStakes[account] */\n      dup1\n      sload\n      dup1\n      0x20\n      mul\n      0x20\n      add\n      mload(0x40)\n      swap1\n      dup2\n      add\n      0x40\n      mstore\n      dup1\n      swap3\n      swap2\n      swap1\n      dup2\n      dup2\n      mstore\n      0x20\n      add\n      0x00\n      swap1\n    tag_216:\n      dup3\n      dup3\n      lt\n      iszero\n      tag_217\n      jumpi\n      dup4\n      dup3\n      swap1\n      0x00\n      mstore\n      keccak256(0x00, 0x20)\n      swap1\n      0x04\n      mul\n      add\n      mload(0x40)\n      dup1\n      0xa0\n      add\n      0x40\n      mstore\n      swap1\n      dup2\n      0x00\n      dup3\n      add\n      sload\n      dup2\n      mstore\n      0x20\n      add\n      0x01\n      dup3\n      add\n      sload\n      dup2\n      mstore\n      0x20\n      add\n      0x02\n      dup3\n      add\n      sload\n      dup2\n      mstore\n      0x20\n      add\n      0x03\n      dup3\n      add\n      0x00\n      swap1\n      sload\n      swap1\n      0x0100\n      exp\n      swap1\n      div\n      0xffffffffffffffffffffffffffffffffffffffffffffffffffffffffffffff\n      and\n      0xffffffffffffffffffffffffffffffffffffffffffffffffffffffffffffff\n      and\n      0xffffffffffffffffffffffffffffffffffffffffffffffffffffffffffffff\n      and\n      dup2\n      mstore\n      0x20\n      add\n      0x03\n      dup3\n      add\n      0x1f\n      swap1\n      sload\n      swap1\n      0x0100\n      exp\n      swap1\n      div\n      0xff\n      and\n      iszero\n      iszero\n      iszero\n      iszero\n      dup2\n      mstore\n      pop\n      pop\n      dup2\n      mstore\n      0x20\n      add\n      swap1\n      0x01\n      add\n      swap1\n      jump(tag_216)\n    tag_217:\n      pop\n      pop\n      pop\n      pop\n      swap1\n      pop\n        /* \"contracts/stakingContract.sol\":31232:31241  uint256 i */\n      0x00\n        /* \"contracts/stakingContract.sol\":31227:31433  for (uint256 i = 0; i < stakes.length; i++) {... */\n    tag_219:\n        /* \"contracts/stakingContract.sol\":31251:31257  stakes */\n      dup2\n        /* \"contracts/stakingContract.sol\":31251:31264  stakes.length */\n      mload\n        /* \"contracts/stakingContract.sol\":31247:31248  i */\n      dup2\n        /* \"contracts/stakingContract.sol\":31247:31264  i < stakes.length */\n      lt\n        /* \"contracts/stakingContract.sol\":31227:31433  for (uint256 i = 0; i < stakes.length; i++) {... */\n      iszero\n      tag_220\n      jumpi\n        /* \"contracts/stakingContract.sol\":31290:31296  stakes */\n      dup2\n        /* \"contracts/stakingContract.sol\":31297:31298  i */\n      dup2\n        /* \"contracts/stakingContract.sol\":31290:31299  stakes[i] */\n      dup2\n      mload\n      dup2\n      lt\n      tag_222\n      jumpi\n      tag_223\n      tag_146\n      jump\t// in\n    tag_223:\n    tag_222:\n      0x20\n      mul\n      0x20\n      add\n      add\n      mload\n        /* \"contracts/stakingContract.sol\":31290:31304  stakes[i].paid */\n      0x80\n      add\n      mload\n        /* \"contracts/stakingContract.sol\":31285:31423  if (!stakes[i].paid) {... */\n      tag_224\n      jumpi\n        /* \"contracts/stakingContract.sol\":31332:31359  total.add(stakes[i].amount) */\n      tag_225\n        /* \"contracts/stakingContract.sol\":31342:31348  stakes */\n      dup3\n        /* \"contracts/stakingContract.sol\":31349:31350  i */\n      dup3\n        /* \"contracts/stakingContract.sol\":31342:31351  stakes[i] */\n      dup2\n      mload\n      dup2\n      lt\n      tag_226\n      jumpi\n      tag_227\n      tag_146\n      jump\t// in\n    tag_227:\n    tag_226:\n      0x20\n      mul\n      0x20\n      add\n      add\n      mload\n        /* \"contracts/stakingContract.sol\":31342:31358  stakes[i].amount */\n      0x00\n      add\n      mload\n        /* \"contracts/stakingContract.sol\":31332:31337  total */\n      dup6\n        /* \"contracts/stakingContract.sol\":31332:31341  total.add */\n      tag_159\n      swap1\n        /* \"contracts/stakingContract.sol\":31332:31359  total.add(stakes[i].amount) */\n      swap2\n      swap1\n      0xffffffff\n      and\n      jump\t// in\n    tag_225:\n        /* \"contracts/stakingContract.sol\":31324:31359  total = total.add(stakes[i].amount) */\n      swap4\n      pop\n        /* \"contracts/stakingContract.sol\":31395:31401  stakes */\n      dup2\n        /* \"contracts/stakingContract.sol\":31395:31408  stakes.length */\n      mload\n        /* \"contracts/stakingContract.sol\":31377:31408  totalStakeCount = stakes.length */\n      swap3\n      pop\n        /* \"contracts/stakingContract.sol\":31285:31423  if (!stakes[i].paid) {... */\n    tag_224:\n        /* \"contracts/stakingContract.sol\":31266:31269  i++ */\n      dup1\n      dup1\n      tag_228\n      swap1\n      tag_213\n      jump\t// in\n    tag_228:\n      swap2\n      pop\n      pop\n        /* \"contracts/stakingContract.sol\":31227:31433  for (uint256 i = 0; i < stakes.length; i++) {... */\n      jump(tag_219)\n    tag_220:\n      pop\n        /* \"contracts/stakingContract.sol\":31163:31439  {... */\n      pop\n        /* \"contracts/stakingContract.sol\":31034:31439  function totalStaked(address account)... */\n      swap2\n      pop\n      swap2\n      jump\t// out\n        /* \"contracts/stakingContract.sol\":27268:27313  mapping(address => Stake[]) public userStakes */\n    tag_104:\n      mstore(0x20, 0x05)\n      dup2\n      0x00\n      mstore\n      keccak256(0x00, 0x40)\n      dup2\n      dup2\n      sload\n      dup2\n      lt\n      tag_229\n      jumpi\n      0x00\n      dup1\n      revert\n    tag_229:\n      swap1\n      0x00\n      mstore\n      keccak256(0x00, 0x20)\n      swap1\n      0x04\n      mul\n      add\n      0x00\n      swap2\n      pop\n      swap2\n      pop\n      pop\n      dup1\n      0x00\n      add\n      sload\n      swap1\n      dup1\n      0x01\n      add\n      sload\n      swap1\n      dup1\n      0x02\n      add\n      sload\n      swap1\n      dup1\n      0x03\n      add\n      0x00\n      swap1\n      sload\n      swap1\n      0x0100\n      exp\n      swap1\n      div\n      0xffffffffffffffffffffffffffffffffffffffffffffffffffffffffffffff\n      and\n      swap1\n      dup1\n      0x03\n      add\n      0x1f\n      swap1\n      sload\n      swap1\n      0x0100\n      exp\n      swap1\n      div\n      0xff\n      and\n      swap1\n      pop\n      dup6\n      jump\t// out\n        /* \"contracts/stakingContract.sol\":26128:26243  uint256[] public durations = [... */\n    tag_110:\n      0x01\n      dup2\n      dup2\n      sload\n      dup2\n      lt\n      tag_231\n      jumpi\n      0x00\n      dup1\n      revert\n    tag_231:\n      swap1\n      0x00\n      mstore\n      keccak256(0x00, 0x20)\n      add\n      0x00\n      swap2\n      pop\n      swap1\n      pop\n      sload\n      dup2\n      jump\t// out\n        /* \"contracts/stakingContract.sol\":26439:26476  uint256[] public rates = [4, 6, 8, 9] */\n    tag_115:\n      0x02\n      dup2\n      dup2\n      sload\n      dup2\n      lt\n      tag_233\n      jumpi\n      0x00\n      dup1\n      revert\n    tag_233:\n      swap1\n      0x00\n      mstore\n      keccak256(0x00, 0x20)\n      add\n      0x00\n      swap2\n      pop\n      swap1\n      pop\n      sload\n      dup2\n      jump\t// out\n        /* \"contracts/stakingContract.sol\":32928:34157  function exit() external requireLiquidity {... */\n    tag_119:\n        /* \"contracts/stakingContract.sol\":32980:33002  Stake[] storage stakes */\n      0x00\n        /* \"contracts/stakingContract.sol\":33005:33015  userStakes */\n      0x05\n        /* \"contracts/stakingContract.sol\":33005:33027  userStakes[msg.sender] */\n      0x00\n        /* \"contracts/stakingContract.sol\":33016:33026  msg.sender */\n      caller\n        /* \"contracts/stakingContract.sol\":33005:33027  userStakes[msg.sender] */\n      0xffffffffffffffffffffffffffffffffffffffff\n      and\n      0xffffffffffffffffffffffffffffffffffffffff\n      and\n      dup2\n      mstore\n      0x20\n      add\n      swap1\n      dup2\n      mstore\n      0x20\n      add\n      0x00\n      keccak256\n        /* \"contracts/stakingContract.sol\":32980:33027  Stake[] storage stakes = userStakes[msg.sender] */\n      swap1\n      pop\n        /* \"contracts/stakingContract.sol\":33061:33062  0 */\n      0x00\n        /* \"contracts/stakingContract.sol\":33045:33051  stakes */\n      dup2\n        /* \"contracts/stakingContract.sol\":33045:33058  stakes.length */\n      dup1\n      sload\n      swap1\n      pop\n        /* \"contracts/stakingContract.sol\":33045:33062  stakes.length > 0 */\n      gt\n        /* \"contracts/stakingContract.sol\":33037:33081  require(stakes.length > 0, \"Nothing staked\") */\n      tag_237\n      jumpi\n      mload(0x40)\n      0x08c379a000000000000000000000000000000000000000000000000000000000\n      dup2\n      mstore\n      0x04\n      add\n      tag_238\n      swap1\n      tag_141\n      jump\t// in\n    tag_238:\n      mload(0x40)\n      dup1\n      swap2\n      sub\n      swap1\n      revert\n    tag_237:\n        /* \"contracts/stakingContract.sol\":33092:33113  uint256 totalWithdraw */\n      0x00\n        /* \"contracts/stakingContract.sol\":33127:33147  uint256 stakedAmount */\n      dup1\n        /* \"contracts/stakingContract.sol\":33161:33170  uint256 l */\n      0x00\n        /* \"contracts/stakingContract.sol\":33173:33179  stakes */\n      dup4\n        /* \"contracts/stakingContract.sol\":33173:33186  stakes.length */\n      dup1\n      sload\n      swap1\n      pop\n        /* \"contracts/stakingContract.sol\":33161:33186  uint256 l = stakes.length */\n      swap1\n      pop\n        /* \"contracts/stakingContract.sol\":33196:33802  do {... */\n    tag_239:\n        /* \"contracts/stakingContract.sol\":33213:33235  Stake memory exitStake */\n      0x00\n        /* \"contracts/stakingContract.sol\":33238:33244  stakes */\n      dup5\n        /* \"contracts/stakingContract.sol\":33249:33250  1 */\n      0x01\n        /* \"contracts/stakingContract.sol\":33245:33246  l */\n      dup4\n        /* \"contracts/stakingContract.sol\":33245:33250  l - 1 */\n      tag_242\n      swap2\n      swap1\n      tag_143\n      jump\t// in\n    tag_242:\n        /* \"contracts/stakingContract.sol\":33238:33251  stakes[l - 1] */\n      dup2\n      sload\n      dup2\n      lt\n      tag_243\n      jumpi\n      tag_244\n      tag_146\n      jump\t// in\n    tag_244:\n    tag_243:\n      swap1\n      0x00\n      mstore\n      keccak256(0x00, 0x20)\n      swap1\n      0x04\n      mul\n      add\n        /* \"contracts/stakingContract.sol\":33213:33251  Stake memory exitStake = stakes[l - 1] */\n      mload(0x40)\n      dup1\n      0xa0\n      add\n      0x40\n      mstore\n      swap1\n      dup2\n      0x00\n      dup3\n      add\n      sload\n      dup2\n      mstore\n      0x20\n      add\n      0x01\n      dup3\n      add\n      sload\n      dup2\n      mstore\n      0x20\n      add\n      0x02\n      dup3\n      add\n      sload\n      dup2\n      mstore\n      0x20\n      add\n      0x03\n      dup3\n      add\n      0x00\n      swap1\n      sload\n      swap1\n      0x0100\n      exp\n      swap1\n      div\n      0xffffffffffffffffffffffffffffffffffffffffffffffffffffffffffffff\n      and\n      0xffffffffffffffffffffffffffffffffffffffffffffffffffffffffffffff\n      and\n      0xffffffffffffffffffffffffffffffffffffffffffffffffffffffffffffff\n      and\n      dup2\n      mstore\n      0x20\n      add\n      0x03\n      dup3\n      add\n      0x1f\n      swap1\n      sload\n      swap1\n      0x0100\n      exp\n      swap1\n      div\n      0xff\n      and\n      iszero\n      iszero\n      iszero\n      iszero\n      dup2\n      mstore\n      pop\n      pop\n      swap1\n      pop\n        /* \"contracts/stakingContract.sol\":33355:33370  block.timestamp */\n      timestamp\n        /* \"contracts/stakingContract.sol\":33339:33348  exitStake */\n      dup2\n        /* \"contracts/stakingContract.sol\":33339:33352  exitStake.end */\n      0x20\n      add\n      mload\n        /* \"contracts/stakingContract.sol\":33339:33370  exitStake.end < block.timestamp */\n      lt\n        /* \"contracts/stakingContract.sol\":33339:33388  exitStake.end < block.timestamp && exitStake.paid */\n      dup1\n      iszero\n      tag_246\n      jumpi\n      pop\n        /* \"contracts/stakingContract.sol\":33374:33383  exitStake */\n      dup1\n        /* \"contracts/stakingContract.sol\":33374:33388  exitStake.paid */\n      0x80\n      add\n      mload\n        /* \"contracts/stakingContract.sol\":33339:33388  exitStake.end < block.timestamp && exitStake.paid */\n    tag_246:\n        /* \"contracts/stakingContract.sol\":33335:33428  if (exitStake.end < block.timestamp && exitStake.paid) {... */\n      iszero\n      tag_247\n      jumpi\n        /* \"contracts/stakingContract.sol\":33408:33413  break */\n      pop\n      jump(tag_240)\n        /* \"contracts/stakingContract.sol\":33335:33428  if (exitStake.end < block.timestamp && exitStake.paid) {... */\n    tag_247:\n        /* \"contracts/stakingContract.sol\":33494:33509  block.timestamp */\n      timestamp\n        /* \"contracts/stakingContract.sol\":33478:33487  exitStake */\n      dup2\n        /* \"contracts/stakingContract.sol\":33478:33491  exitStake.end */\n      0x20\n      add\n      mload\n        /* \"contracts/stakingContract.sol\":33478:33509  exitStake.end < block.timestamp */\n      lt\n        /* \"contracts/stakingContract.sol\":33474:33760  if (exitStake.end < block.timestamp) {... */\n      iszero\n      tag_248\n      jumpi\n        /* \"contracts/stakingContract.sol\":33596:33600  true */\n      0x01\n        /* \"contracts/stakingContract.sol\":33575:33581  stakes */\n      dup6\n        /* \"contracts/stakingContract.sol\":33586:33587  1 */\n      0x01\n        /* \"contracts/stakingContract.sol\":33582:33583  l */\n      dup5\n        /* \"contracts/stakingContract.sol\":33582:33587  l - 1 */\n      tag_249\n      swap2\n      swap1\n      tag_143\n      jump\t// in\n    tag_249:\n        /* \"contracts/stakingContract.sol\":33575:33588  stakes[l - 1] */\n      dup2\n      sload\n      dup2\n      lt\n      tag_250\n      jumpi\n      tag_251\n      tag_146\n      jump\t// in\n    tag_251:\n    tag_250:\n      swap1\n      0x00\n      mstore\n      keccak256(0x00, 0x20)\n      swap1\n      0x04\n      mul\n      add\n        /* \"contracts/stakingContract.sol\":33575:33593  stakes[l - 1].paid */\n      0x03\n      add\n      0x1f\n        /* \"contracts/stakingContract.sol\":33575:33600  stakes[l - 1].paid = true */\n      0x0100\n      exp\n      dup2\n      sload\n      dup2\n      0xff\n      mul\n      not\n      and\n      swap1\n      dup4\n      iszero\n      iszero\n      mul\n      or\n      swap1\n      sstore\n      pop\n        /* \"contracts/stakingContract.sol\":33634:33678  totalWithdraw.add(_totalExpected(exitStake)) */\n      tag_253\n        /* \"contracts/stakingContract.sol\":33652:33677  _totalExpected(exitStake) */\n      tag_254\n        /* \"contracts/stakingContract.sol\":33667:33676  exitStake */\n      dup3\n        /* \"contracts/stakingContract.sol\":33652:33666  _totalExpected */\n      tag_158\n        /* \"contracts/stakingContract.sol\":33652:33677  _totalExpected(exitStake) */\n      jump\t// in\n    tag_254:\n        /* \"contracts/stakingContract.sol\":33634:33647  totalWithdraw */\n      dup6\n        /* \"contracts/stakingContract.sol\":33634:33651  totalWithdraw.add */\n      tag_159\n      swap1\n        /* \"contracts/stakingContract.sol\":33634:33678  totalWithdraw.add(_totalExpected(exitStake)) */\n      swap2\n      swap1\n      0xffffffff\n      and\n      jump\t// in\n    tag_253:\n        /* \"contracts/stakingContract.sol\":33618:33678  totalWithdraw = totalWithdraw.add(_totalExpected(exitStake)) */\n      swap4\n      pop\n        /* \"contracts/stakingContract.sol\":33711:33745  stakedAmount.add(exitStake.amount) */\n      tag_255\n        /* \"contracts/stakingContract.sol\":33728:33737  exitStake */\n      dup2\n        /* \"contracts/stakingContract.sol\":33728:33744  exitStake.amount */\n      0x00\n      add\n      mload\n        /* \"contracts/stakingContract.sol\":33711:33723  stakedAmount */\n      dup5\n        /* \"contracts/stakingContract.sol\":33711:33727  stakedAmount.add */\n      tag_159\n      swap1\n        /* \"contracts/stakingContract.sol\":33711:33745  stakedAmount.add(exitStake.amount) */\n      swap2\n      swap1\n      0xffffffff\n      and\n      jump\t// in\n    tag_255:\n        /* \"contracts/stakingContract.sol\":33696:33745  stakedAmount = stakedAmount.add(exitStake.amount) */\n      swap3\n      pop\n        /* \"contracts/stakingContract.sol\":33474:33760  if (exitStake.end < block.timestamp) {... */\n    tag_248:\n        /* \"contracts/stakingContract.sol\":33773:33776  l-- */\n      dup2\n      dup1\n      tag_256\n      swap1\n      tag_257\n      jump\t// in\n    tag_256:\n      swap3\n      pop\n      pop\n        /* \"contracts/stakingContract.sol\":33199:33787  {... */\n      pop\n        /* \"contracts/stakingContract.sol\":33799:33800  0 */\n      0x00\n        /* \"contracts/stakingContract.sol\":33795:33796  l */\n      dup2\n        /* \"contracts/stakingContract.sol\":33795:33800  l > 0 */\n      gt\n        /* \"contracts/stakingContract.sol\":33196:33802  do {... */\n      tag_239\n      jumpi\n    tag_240:\n        /* \"contracts/stakingContract.sol\":33835:33836  0 */\n      0x00\n        /* \"contracts/stakingContract.sol\":33819:33832  totalWithdraw */\n      dup4\n        /* \"contracts/stakingContract.sol\":33819:33836  totalWithdraw > 0 */\n      gt\n        /* \"contracts/stakingContract.sol\":33811:33862  require(totalWithdraw > 0, \"All stakes in lock-up\") */\n      tag_258\n      jumpi\n      mload(0x40)\n      0x08c379a000000000000000000000000000000000000000000000000000000000\n      dup2\n      mstore\n      0x04\n      add\n      tag_259\n      swap1\n      tag_260\n      jump\t// in\n    tag_259:\n      mload(0x40)\n      dup1\n      swap2\n      sub\n      swap1\n      revert\n    tag_258:\n        /* \"contracts/stakingContract.sol\":33892:33927  totalOutstanding.sub(totalWithdraw) */\n      tag_261\n        /* \"contracts/stakingContract.sol\":33913:33926  totalWithdraw */\n      dup4\n        /* \"contracts/stakingContract.sol\":33892:33908  totalOutstanding */\n      sload(0x03)\n        /* \"contracts/stakingContract.sol\":33892:33912  totalOutstanding.sub */\n      tag_164\n      swap1\n        /* \"contracts/stakingContract.sol\":33892:33927  totalOutstanding.sub(totalWithdraw) */\n      swap2\n      swap1\n      0xffffffff\n      and\n      jump\t// in\n    tag_261:\n        /* \"contracts/stakingContract.sol\":33873:33889  totalOutstanding */\n      0x03\n        /* \"contracts/stakingContract.sol\":33873:33927  totalOutstanding = totalOutstanding.sub(totalWithdraw) */\n      dup2\n      swap1\n      sstore\n      pop\n        /* \"contracts/stakingContract.sol\":33952:33962  msg.sender */\n      caller\n        /* \"contracts/stakingContract.sol\":33942:33992  Withdrawn(msg.sender, totalWithdraw, stakedAmount) */\n      0xffffffffffffffffffffffffffffffffffffffff\n      and\n      0x92ccf450a286a957af52509bc1c9939d1a6a481783e142e41e2499f0bb66ebc6\n        /* \"contracts/stakingContract.sol\":33964:33977  totalWithdraw */\n      dup5\n        /* \"contracts/stakingContract.sol\":33979:33991  stakedAmount */\n      dup5\n        /* \"contracts/stakingContract.sol\":33942:33992  Withdrawn(msg.sender, totalWithdraw, stakedAmount) */\n      mload(0x40)\n      tag_262\n      swap3\n      swap2\n      swap1\n      tag_89\n      jump\t// in\n    tag_262:\n      mload(0x40)\n      dup1\n      swap2\n      sub\n      swap1\n      log2\n        /* \"contracts/stakingContract.sol\":32970:34157  {... */\n      pop\n      pop\n      pop\n      pop\n        /* \"contracts/stakingContract.sol\":32928:34157  function exit() external requireLiquidity {... */\n      jump\t// out\n        /* \"contracts/stakingContract.sol\":25348:25580  function transferOwnership(address newOwner) public virtual onlyOwner {... */\n    tag_123:\n        /* \"contracts/stakingContract.sol\":24361:24374  _checkOwner() */\n      tag_264\n        /* \"contracts/stakingContract.sol\":24361:24372  _checkOwner */\n      tag_130\n        /* \"contracts/stakingContract.sol\":24361:24374  _checkOwner() */\n      jump\t// in\n    tag_264:\n        /* \"contracts/stakingContract.sol\":25469:25470  0 */\n      0x00\n        /* \"contracts/stakingContract.sol\":25449:25471  newOwner != address(0) */\n      0xffffffffffffffffffffffffffffffffffffffff\n      and\n        /* \"contracts/stakingContract.sol\":25449:25457  newOwner */\n      dup2\n        /* \"contracts/stakingContract.sol\":25449:25471  newOwner != address(0) */\n      0xffffffffffffffffffffffffffffffffffffffff\n      and\n      sub\n        /* \"contracts/stakingContract.sol\":25428:25535  require(... */\n      tag_266\n      jumpi\n      mload(0x40)\n      0x08c379a000000000000000000000000000000000000000000000000000000000\n      dup2\n      mstore\n      0x04\n      add\n      tag_267\n      swap1\n      tag_268\n      jump\t// in\n    tag_267:\n      mload(0x40)\n      dup1\n      swap2\n      sub\n      swap1\n      revert\n    tag_266:\n        /* \"contracts/stakingContract.sol\":25545:25573  _transferOwnership(newOwner) */\n      tag_269\n        /* \"contracts/stakingContract.sol\":25564:25572  newOwner */\n      dup2\n        /* \"contracts/stakingContract.sol\":25545:25563  _transferOwnership */\n      tag_178\n        /* \"contracts/stakingContract.sol\":25545:25573  _transferOwnership(newOwner) */\n      jump\t// in\n    tag_269:\n        /* \"contracts/stakingContract.sol\":25348:25580  function transferOwnership(address newOwner) public virtual onlyOwner {... */\n      pop\n      jump\t// out\n        /* \"contracts/stakingContract.sol\":24626:24756  function _checkOwner() internal view virtual {... */\n    tag_130:\n        /* \"contracts/stakingContract.sol\":24700:24712  _msgSender() */\n      tag_271\n        /* \"contracts/stakingContract.sol\":24700:24710  _msgSender */\n      tag_272\n        /* \"contracts/stakingContract.sol\":24700:24712  _msgSender() */\n      jump\t// in\n    tag_271:\n        /* \"contracts/stakingContract.sol\":24689:24712  owner() == _msgSender() */\n      0xffffffffffffffffffffffffffffffffffffffff\n      and\n        /* \"contracts/stakingContract.sol\":24689:24696  owner() */\n      tag_273\n        /* \"contracts/stakingContract.sol\":24689:24694  owner */\n      tag_92\n        /* \"contracts/stakingContract.sol\":24689:24696  owner() */\n      jump\t// in\n    tag_273:\n        /* \"contracts/stakingContract.sol\":24689:24712  owner() == _msgSender() */\n      0xffffffffffffffffffffffffffffffffffffffff\n      and\n      eq\n        /* \"contracts/stakingContract.sol\":24681:24749  require(owner() == _msgSender(), \"Ownable: caller is not the owner\") */\n      tag_274\n      jumpi\n      mload(0x40)\n      0x08c379a000000000000000000000000000000000000000000000000000000000\n      dup2\n      mstore\n      0x04\n      add\n      tag_275\n      swap1\n      tag_276\n      jump\t// in\n    tag_275:\n      mload(0x40)\n      dup1\n      swap2\n      sub\n      swap1\n      revert\n    tag_274:\n        /* \"contracts/stakingContract.sol\":24626:24756  function _checkOwner() internal view virtual {... */\n      jump\t// out\n        /* \"contracts/stakingContract.sol\":28051:28295  function _totalExpected(Stake memory _stake2)... */\n    tag_158:\n        /* \"contracts/stakingContract.sol\":28144:28151  uint256 */\n      0x00\n        /* \"contracts/stakingContract.sol\":28186:28288  _stake2.amount.add(... */\n      tag_278\n        /* \"contracts/stakingContract.sol\":28222:28274  _stake2.amount.mul(_stake2.rate.mul(1e2)).div(10000) */\n      tag_279\n        /* \"contracts/stakingContract.sol\":28268:28273  10000 */\n      0x2710\n        /* \"contracts/stakingContract.sol\":28222:28263  _stake2.amount.mul(_stake2.rate.mul(1e2)) */\n      tag_280\n        /* \"contracts/stakingContract.sol\":28241:28262  _stake2.rate.mul(1e2) */\n      tag_281\n        /* \"contracts/stakingContract.sol\":28258:28261  1e2 */\n      0x64\n        /* \"contracts/stakingContract.sol\":28241:28248  _stake2 */\n      dup8\n        /* \"contracts/stakingContract.sol\":28241:28253  _stake2.rate */\n      0x60\n      add\n      mload\n        /* \"contracts/stakingContract.sol\":28241:28257  _stake2.rate.mul */\n      0xffffffffffffffffffffffffffffffffffffffffffffffffffffffffffffff\n      and\n      tag_208\n      swap1\n        /* \"contracts/stakingContract.sol\":28241:28262  _stake2.rate.mul(1e2) */\n      swap2\n      swap1\n      0xffffffff\n      and\n      jump\t// in\n    tag_281:\n        /* \"contracts/stakingContract.sol\":28222:28229  _stake2 */\n      dup7\n        /* \"contracts/stakingContract.sol\":28222:28236  _stake2.amount */\n      0x00\n      add\n      mload\n        /* \"contracts/stakingContract.sol\":28222:28240  _stake2.amount.mul */\n      tag_208\n      swap1\n        /* \"contracts/stakingContract.sol\":28222:28263  _stake2.amount.mul(_stake2.rate.mul(1e2)) */\n      swap2\n      swap1\n      0xffffffff\n      and\n      jump\t// in\n    tag_280:\n        /* \"contracts/stakingContract.sol\":28222:28267  _stake2.amount.mul(_stake2.rate.mul(1e2)).div */\n      tag_211\n      swap1\n        /* \"contracts/stakingContract.sol\":28222:28274  _stake2.amount.mul(_stake2.rate.mul(1e2)).div(10000) */\n      swap2\n      swap1\n      0xffffffff\n      and\n      jump\t// in\n    tag_279:\n        /* \"contracts/stakingContract.sol\":28186:28193  _stake2 */\n      dup4\n        /* \"contracts/stakingContract.sol\":28186:28200  _stake2.amount */\n      0x00\n      add\n      mload\n        /* \"contracts/stakingContract.sol\":28186:28204  _stake2.amount.add */\n      tag_159\n      swap1\n        /* \"contracts/stakingContract.sol\":28186:28288  _stake2.amount.add(... */\n      swap2\n      swap1\n      0xffffffff\n      and\n      jump\t// in\n    tag_278:\n        /* \"contracts/stakingContract.sol\":28167:28288  return... */\n      swap1\n      pop\n        /* \"contracts/stakingContract.sol\":28051:28295  function _totalExpected(Stake memory _stake2)... */\n      swap2\n      swap1\n      pop\n      jump\t// out\n        /* \"contracts/stakingContract.sol\":5893:5989  function add(uint256 a, uint256 b) internal pure returns (uint256) {... */\n    tag_159:\n        /* \"contracts/stakingContract.sol\":5951:5958  uint256 */\n      0x00\n        /* \"contracts/stakingContract.sol\":5981:5982  b */\n      dup2\n        /* \"contracts/stakingContract.sol\":5977:5978  a */\n      dup4\n        /* \"contracts/stakingContract.sol\":5977:5982  a + b */\n      tag_283\n      swap2\n      swap1\n      tag_284\n      jump\t// in\n    tag_283:\n        /* \"contracts/stakingContract.sol\":5970:5982  return a + b */\n      swap1\n      pop\n        /* \"contracts/stakingContract.sol\":5893:5989  function add(uint256 a, uint256 b) internal pure returns (uint256) {... */\n      swap3\n      swap2\n      pop\n      pop\n      jump\t// out\n        /* \"contracts/stakingContract.sol\":6260:6356  function sub(uint256 a, uint256 b) internal pure returns (uint256) {... */\n    tag_164:\n        /* \"contracts/stakingContract.sol\":6318:6325  uint256 */\n      0x00\n        /* \"contracts/stakingContract.sol\":6348:6349  b */\n      dup2\n        /* \"contracts/stakingContract.sol\":6344:6345  a */\n      dup4\n        /* \"contracts/stakingContract.sol\":6344:6349  a - b */\n      tag_286\n      swap2\n      swap1\n      tag_143\n      jump\t// in\n    tag_286:\n        /* \"contracts/stakingContract.sol\":6337:6349  return a - b */\n      swap1\n      pop\n        /* \"contracts/stakingContract.sol\":6260:6356  function sub(uint256 a, uint256 b) internal pure returns (uint256) {... */\n      swap3\n      swap2\n      pop\n      pop\n      jump\t// out\n        /* \"contracts/stakingContract.sol\":27729:28045  function _addNewDurationRates(uint256 _durations, uint256 _rates) internal {... */\n    tag_170:\n        /* \"contracts/stakingContract.sol\":27831:27848  type(uint248).max */\n      0xffffffffffffffffffffffffffffffffffffffffffffffffffffffffffffff\n        /* \"contracts/stakingContract.sol\":27822:27848  _rates < type(uint248).max */\n      dup1\n      and\n        /* \"contracts/stakingContract.sol\":27822:27828  _rates */\n      dup2\n        /* \"contracts/stakingContract.sol\":27822:27848  _rates < type(uint248).max */\n      lt\n        /* \"contracts/stakingContract.sol\":27814:27870  require(_rates < type(uint248).max, \"Max rate exceeded\") */\n      tag_288\n      jumpi\n      mload(0x40)\n      0x08c379a000000000000000000000000000000000000000000000000000000000\n      dup2\n      mstore\n      0x04\n      add\n      tag_289\n      swap1\n      tag_290\n      jump\t// in\n    tag_289:\n      mload(0x40)\n      dup1\n      swap2\n      sub\n      swap1\n      revert\n    tag_288:\n        /* \"contracts/stakingContract.sol\":27881:27886  rates */\n      0x02\n        /* \"contracts/stakingContract.sol\":27892:27898  _rates */\n      dup2\n        /* \"contracts/stakingContract.sol\":27881:27899  rates.push(_rates) */\n      swap1\n      dup1\n      0x01\n      dup2\n      sload\n      add\n      dup1\n      dup3\n      sstore\n      dup1\n      swap2\n      pop\n      pop\n      0x01\n      swap1\n      sub\n      swap1\n      0x00\n      mstore\n      keccak256(0x00, 0x20)\n      add\n      0x00\n      swap1\n      swap2\n      swap1\n      swap2\n      swap1\n      swap2\n      pop\n      sstore\n        /* \"contracts/stakingContract.sol\":27909:27918  durations */\n      0x01\n        /* \"contracts/stakingContract.sol\":27924:27934  _durations */\n      dup3\n        /* \"contracts/stakingContract.sol\":27909:27935  durations.push(_durations) */\n      swap1\n      dup1\n      0x01\n      dup2\n      sload\n      add\n      dup1\n      dup3\n      sstore\n      dup1\n      swap2\n      pop\n      pop\n      0x01\n      swap1\n      sub\n      swap1\n      0x00\n      mstore\n      keccak256(0x00, 0x20)\n      add\n      0x00\n      swap1\n      swap2\n      swap1\n      swap2\n      swap1\n      swap2\n      pop\n      sstore\n        /* \"contracts/stakingContract.sol\":27964:27974  msg.sender */\n      caller\n        /* \"contracts/stakingContract.sol\":27951:27983  NewRateAdded(msg.sender, _rates) */\n      0xffffffffffffffffffffffffffffffffffffffff\n      and\n      0x11057bbe5bee4e90eb5a0638dc2399b71076401177a7b8ddbfcd90d6597a427e\n        /* \"contracts/stakingContract.sol\":27976:27982  _rates */\n      dup3\n        /* \"contracts/stakingContract.sol\":27951:27983  NewRateAdded(msg.sender, _rates) */\n      mload(0x40)\n      tag_293\n      swap2\n      swap1\n      tag_28\n      jump\t// in\n    tag_293:\n      mload(0x40)\n      dup1\n      swap2\n      sub\n      swap1\n      log2\n        /* \"contracts/stakingContract.sol\":28015:28025  msg.sender */\n      caller\n        /* \"contracts/stakingContract.sol\":27998:28038  NewDurationAdded(msg.sender, _durations) */\n      0xffffffffffffffffffffffffffffffffffffffff\n      and\n      0xbc2f4a9bf3002c736651b6e23160254684d657f11497502a66d96ce15bf17c2f\n        /* \"contracts/stakingContract.sol\":28027:28037  _durations */\n      dup4\n        /* \"contracts/stakingContract.sol\":27998:28038  NewDurationAdded(msg.sender, _durations) */\n      mload(0x40)\n      tag_294\n      swap2\n      swap1\n      tag_28\n      jump\t// in\n    tag_294:\n      mload(0x40)\n      dup1\n      swap2\n      sub\n      swap1\n      log2\n        /* \"contracts/stakingContract.sol\":27729:28045  function _addNewDurationRates(uint256 _durations, uint256 _rates) internal {... */\n      pop\n      pop\n      jump\t// out\n        /* \"contracts/stakingContract.sol\":25734:25921  function _transferOwnership(address newOwner) internal virtual {... */\n    tag_178:\n        /* \"contracts/stakingContract.sol\":25807:25823  address oldOwner */\n      0x00\n        /* \"contracts/stakingContract.sol\":25826:25832  _owner */\n      dup1\n      0x00\n      swap1\n      sload\n      swap1\n      0x0100\n      exp\n      swap1\n      div\n      0xffffffffffffffffffffffffffffffffffffffff\n      and\n        /* \"contracts/stakingContract.sol\":25807:25832  address oldOwner = _owner */\n      swap1\n      pop\n        /* \"contracts/stakingContract.sol\":25851:25859  newOwner */\n      dup2\n        /* \"contracts/stakingContract.sol\":25842:25848  _owner */\n      0x00\n      dup1\n        /* \"contracts/stakingContract.sol\":25842:25859  _owner = newOwner */\n      0x0100\n      exp\n      dup2\n      sload\n      dup2\n      0xffffffffffffffffffffffffffffffffffffffff\n      mul\n      not\n      and\n      swap1\n      dup4\n      0xffffffffffffffffffffffffffffffffffffffff\n      and\n      mul\n      or\n      swap1\n      sstore\n      pop\n        /* \"contracts/stakingContract.sol\":25905:25913  newOwner */\n      dup2\n        /* \"contracts/stakingContract.sol\":25874:25914  OwnershipTransferred(oldOwner, newOwner) */\n      0xffffffffffffffffffffffffffffffffffffffff\n      and\n        /* \"contracts/stakingContract.sol\":25895:25903  oldOwner */\n      dup2\n        /* \"contracts/stakingContract.sol\":25874:25914  OwnershipTransferred(oldOwner, newOwner) */\n      0xffffffffffffffffffffffffffffffffffffffff\n      and\n      0x8be0079c531659141344cd1fd0a4f28419497f9722a3daafe3b4186f6b6457e0\n      mload(0x40)\n      mload(0x40)\n      dup1\n      swap2\n      sub\n      swap1\n      log3\n        /* \"contracts/stakingContract.sol\":25797:25921  {... */\n      pop\n        /* \"contracts/stakingContract.sol\":25734:25921  function _transferOwnership(address newOwner) internal virtual {... */\n      pop\n      jump\t// out\n        /* \"contracts/stakingContract.sol\":29640:30201  function _stakeWithChecks(... */\n    tag_185:\n        /* \"contracts/stakingContract.sol\":29782:29783  0 */\n      0x00\n        /* \"contracts/stakingContract.sol\":29773:29779  amount */\n      dup3\n        /* \"contracts/stakingContract.sol\":29773:29783  amount > 0 */\n      gt\n        /* \"contracts/stakingContract.sol\":29765:29802  require(amount > 0, \"Cannot stake 0\") */\n      tag_297\n      jumpi\n      mload(0x40)\n      0x08c379a000000000000000000000000000000000000000000000000000000000\n      dup2\n      mstore\n      0x04\n      add\n      tag_298\n      swap1\n      tag_299\n      jump\t// in\n    tag_298:\n      mload(0x40)\n      dup1\n      swap2\n      sub\n      swap1\n      revert\n    tag_297:\n        /* \"contracts/stakingContract.sol\":29813:29831  uint248 rewardRate */\n      0x00\n        /* \"contracts/stakingContract.sol\":29834:29861  _findDurationRate(duration) */\n      tag_300\n        /* \"contracts/stakingContract.sol\":29852:29860  duration */\n      dup3\n        /* \"contracts/stakingContract.sol\":29834:29851  _findDurationRate */\n      tag_188\n        /* \"contracts/stakingContract.sol\":29834:29861  _findDurationRate(duration) */\n      jump\t// in\n    tag_300:\n        /* \"contracts/stakingContract.sol\":29813:29861  uint248 rewardRate = _findDurationRate(duration) */\n      swap1\n      pop\n        /* \"contracts/stakingContract.sol\":29892:29893  0 */\n      0x00\n        /* \"contracts/stakingContract.sol\":29879:29889  rewardRate */\n      dup2\n        /* \"contracts/stakingContract.sol\":29879:29893  rewardRate > 0 */\n      0xffffffffffffffffffffffffffffffffffffffffffffffffffffffffffffff\n      and\n      gt\n        /* \"contracts/stakingContract.sol\":29871:29914  require(rewardRate > 0, \"Invalid duration\") */\n      tag_301\n      jumpi\n      mload(0x40)\n      0x08c379a000000000000000000000000000000000000000000000000000000000\n      dup2\n      mstore\n      0x04\n      add\n      tag_302\n      swap1\n      tag_303\n      jump\t// in\n    tag_302:\n      mload(0x40)\n      dup1\n      swap2\n      sub\n      swap1\n      revert\n    tag_301:\n        /* \"contracts/stakingContract.sol\":29993:30048  _stake(staker, durations[duration], rewardRate, amount) */\n      tag_304\n        /* \"contracts/stakingContract.sol\":30000:30006  staker */\n      dup5\n        /* \"contracts/stakingContract.sol\":30008:30017  durations */\n      0x01\n        /* \"contracts/stakingContract.sol\":30018:30026  duration */\n      dup5\n        /* \"contracts/stakingContract.sol\":30008:30027  durations[duration] */\n      dup2\n      sload\n      dup2\n      lt\n      tag_305\n      jumpi\n      tag_306\n      tag_146\n      jump\t// in\n    tag_306:\n    tag_305:\n      swap1\n      0x00\n      mstore\n      keccak256(0x00, 0x20)\n      add\n      sload\n        /* \"contracts/stakingContract.sol\":30029:30039  rewardRate */\n      dup4\n        /* \"contracts/stakingContract.sol\":30041:30047  amount */\n      dup7\n        /* \"contracts/stakingContract.sol\":29993:29999  _stake */\n      tag_308\n        /* \"contracts/stakingContract.sol\":29993:30048  _stake(staker, durations[duration], rewardRate, amount) */\n      jump\t// in\n    tag_304:\n        /* \"contracts/stakingContract.sol\":29755:30201  {... */\n      pop\n        /* \"contracts/stakingContract.sol\":29640:30201  function _stakeWithChecks(... */\n      pop\n      pop\n      pop\n      jump\t// out\n        /* \"contracts/stakingContract.sol\":28301:28523  function _findDurationRate(uint256 duration)... */\n    tag_188:\n        /* \"contracts/stakingContract.sol\":28393:28400  uint248 */\n      0x00\n        /* \"contracts/stakingContract.sol\":28435:28444  durations */\n      0x01\n        /* \"contracts/stakingContract.sol\":28435:28451  durations.length */\n      dup1\n      sload\n      swap1\n      pop\n        /* \"contracts/stakingContract.sol\":28424:28432  duration */\n      dup3\n        /* \"contracts/stakingContract.sol\":28424:28451  duration < durations.length */\n      lt\n        /* \"contracts/stakingContract.sol\":28416:28474  require(duration < durations.length, \"put valid duration\") */\n      tag_310\n      jumpi\n      mload(0x40)\n      0x08c379a000000000000000000000000000000000000000000000000000000000\n      dup2\n      mstore\n      0x04\n      add\n      tag_311\n      swap1\n      tag_312\n      jump\t// in\n    tag_311:\n      mload(0x40)\n      dup1\n      swap2\n      sub\n      swap1\n      revert\n    tag_310:\n        /* \"contracts/stakingContract.sol\":28500:28505  rates */\n      0x02\n        /* \"contracts/stakingContract.sol\":28506:28514  duration */\n      dup3\n        /* \"contracts/stakingContract.sol\":28500:28515  rates[duration] */\n      dup2\n      sload\n      dup2\n      lt\n      tag_313\n      jumpi\n      tag_314\n      tag_146\n      jump\t// in\n    tag_314:\n    tag_313:\n      swap1\n      0x00\n      mstore\n      keccak256(0x00, 0x20)\n      add\n      sload\n        /* \"contracts/stakingContract.sol\":28485:28516  return uint248(rates[duration]) */\n      swap1\n      pop\n        /* \"contracts/stakingContract.sol\":28301:28523  function _findDurationRate(uint256 duration)... */\n      swap2\n      swap1\n      pop\n      jump\t// out\n        /* \"contracts/stakingContract.sol\":6603:6699  function mul(uint256 a, uint256 b) internal pure returns (uint256) {... */\n    tag_208:\n        /* \"contracts/stakingContract.sol\":6661:6668  uint256 */\n      0x00\n        /* \"contracts/stakingContract.sol\":6691:6692  b */\n      dup2\n        /* \"contracts/stakingContract.sol\":6687:6688  a */\n      dup4\n        /* \"contracts/stakingContract.sol\":6687:6692  a * b */\n      tag_317\n      swap2\n      swap1\n      tag_318\n      jump\t// in\n    tag_317:\n        /* \"contracts/stakingContract.sol\":6680:6692  return a * b */\n      swap1\n      pop\n        /* \"contracts/stakingContract.sol\":6603:6699  function mul(uint256 a, uint256 b) internal pure returns (uint256) {... */\n      swap3\n      swap2\n      pop\n      pop\n      jump\t// out\n        /* \"contracts/stakingContract.sol\":6988:7084  function div(uint256 a, uint256 b) internal pure returns (uint256) {... */\n    tag_211:\n        /* \"contracts/stakingContract.sol\":7046:7053  uint256 */\n      0x00\n        /* \"contracts/stakingContract.sol\":7076:7077  b */\n      dup2\n        /* \"contracts/stakingContract.sol\":7072:7073  a */\n      dup4\n        /* \"contracts/stakingContract.sol\":7072:7077  a / b */\n      tag_320\n      swap2\n      swap1\n      tag_321\n      jump\t// in\n    tag_320:\n        /* \"contracts/stakingContract.sol\":7065:7077  return a / b */\n      swap1\n      pop\n        /* \"contracts/stakingContract.sol\":6988:7084  function div(uint256 a, uint256 b) internal pure returns (uint256) {... */\n      swap3\n      swap2\n      pop\n      pop\n      jump\t// out\n        /* \"contracts/stakingContract.sol\":23105:23201  function _msgSender() internal view virtual returns (address) {... */\n    tag_272:\n        /* \"contracts/stakingContract.sol\":23158:23165  address */\n      0x00\n        /* \"contracts/stakingContract.sol\":23184:23194  msg.sender */\n      caller\n        /* \"contracts/stakingContract.sol\":23177:23194  return msg.sender */\n      swap1\n      pop\n        /* \"contracts/stakingContract.sol\":23105:23201  function _msgSender() internal view virtual returns (address) {... */\n      swap1\n      jump\t// out\n        /* \"contracts/stakingContract.sol\":29008:29634  function _stake(... */\n    tag_308:\n        /* \"contracts/stakingContract.sol\":29145:29167  Stake[] storage stakes */\n      0x00\n        /* \"contracts/stakingContract.sol\":29170:29180  userStakes */\n      0x05\n        /* \"contracts/stakingContract.sol\":29170:29188  userStakes[staker] */\n      0x00\n        /* \"contracts/stakingContract.sol\":29181:29187  staker */\n      dup7\n        /* \"contracts/stakingContract.sol\":29170:29188  userStakes[staker] */\n      0xffffffffffffffffffffffffffffffffffffffff\n      and\n      0xffffffffffffffffffffffffffffffffffffffff\n      and\n      dup2\n      mstore\n      0x20\n      add\n      swap1\n      dup2\n      mstore\n      0x20\n      add\n      0x00\n      keccak256\n        /* \"contracts/stakingContract.sol\":29145:29188  Stake[] storage stakes = userStakes[staker] */\n      swap1\n      pop\n        /* \"contracts/stakingContract.sol\":29199:29210  uint256 end */\n      0x00\n        /* \"contracts/stakingContract.sol\":29213:29242  block.timestamp.add(duration) */\n      tag_324\n        /* \"contracts/stakingContract.sol\":29233:29241  duration */\n      dup6\n        /* \"contracts/stakingContract.sol\":29213:29228  block.timestamp */\n      timestamp\n        /* \"contracts/stakingContract.sol\":29213:29232  block.timestamp.add */\n      tag_159\n      swap1\n        /* \"contracts/stakingContract.sol\":29213:29242  block.timestamp.add(duration) */\n      swap2\n      swap1\n      0xffffffff\n      and\n      jump\t// in\n    tag_324:\n        /* \"contracts/stakingContract.sol\":29199:29242  uint256 end = block.timestamp.add(duration) */\n      swap1\n      pop\n        /* \"contracts/stakingContract.sol\":29253:29262  uint256 i */\n      0x00\n        /* \"contracts/stakingContract.sol\":29265:29271  stakes */\n      dup3\n        /* \"contracts/stakingContract.sol\":29265:29278  stakes.length */\n      dup1\n      sload\n      swap1\n      pop\n        /* \"contracts/stakingContract.sol\":29253:29278  uint256 i = stakes.length */\n      swap1\n      pop\n        /* \"contracts/stakingContract.sol\":29330:29336  stakes */\n      dup3\n        /* \"contracts/stakingContract.sol\":29330:29343  stakes.push() */\n      0x01\n      dup2\n      0x01\n      dup2\n      sload\n      add\n      dup1\n      dup3\n      sstore\n      dup1\n      swap2\n      pop\n      pop\n      sub\n      swap1\n      0x00\n      mstore\n      keccak256(0x00, 0x20)\n      swap1\n      pop\n      pop\n        /* \"contracts/stakingContract.sol\":29389:29393  rate */\n      dup5\n        /* \"contracts/stakingContract.sol\":29372:29378  stakes */\n      dup4\n        /* \"contracts/stakingContract.sol\":29379:29380  i */\n      dup3\n        /* \"contracts/stakingContract.sol\":29372:29381  stakes[i] */\n      dup2\n      sload\n      dup2\n      lt\n      tag_326\n      jumpi\n      tag_327\n      tag_146\n      jump\t// in\n    tag_327:\n    tag_326:\n      swap1\n      0x00\n      mstore\n      keccak256(0x00, 0x20)\n      swap1\n      0x04\n      mul\n      add\n        /* \"contracts/stakingContract.sol\":29372:29386  stakes[i].rate */\n      0x03\n      add\n      0x00\n        /* \"contracts/stakingContract.sol\":29372:29393  stakes[i].rate = rate */\n      0x0100\n      exp\n      dup2\n      sload\n      dup2\n      0xffffffffffffffffffffffffffffffffffffffffffffffffffffffffffffff\n      mul\n      not\n      and\n      swap1\n      dup4\n      0xffffffffffffffffffffffffffffffffffffffffffffffffffffffffffffff\n      and\n      mul\n      or\n      swap1\n      sstore\n      pop\n        /* \"contracts/stakingContract.sol\":29419:29422  end */\n      dup2\n        /* \"contracts/stakingContract.sol\":29403:29409  stakes */\n      dup4\n        /* \"contracts/stakingContract.sol\":29410:29411  i */\n      dup3\n        /* \"contracts/stakingContract.sol\":29403:29412  stakes[i] */\n      dup2\n      sload\n      dup2\n      lt\n      tag_329\n      jumpi\n      tag_330\n      tag_146\n      jump\t// in\n    tag_330:\n    tag_329:\n      swap1\n      0x00\n      mstore\n      keccak256(0x00, 0x20)\n      swap1\n      0x04\n      mul\n      add\n        /* \"contracts/stakingContract.sol\":29403:29416  stakes[i].end */\n      0x01\n      add\n        /* \"contracts/stakingContract.sol\":29403:29422  stakes[i].end = end */\n      dup2\n      swap1\n      sstore\n      pop\n        /* \"contracts/stakingContract.sol\":29453:29461  duration */\n      dup6\n        /* \"contracts/stakingContract.sol\":29432:29438  stakes */\n      dup4\n        /* \"contracts/stakingContract.sol\":29439:29440  i */\n      dup3\n        /* \"contracts/stakingContract.sol\":29432:29441  stakes[i] */\n      dup2\n      sload\n      dup2\n      lt\n      tag_332\n      jumpi\n      tag_333\n      tag_146\n      jump\t// in\n    tag_333:\n    tag_332:\n      swap1\n      0x00\n      mstore\n      keccak256(0x00, 0x20)\n      swap1\n      0x04\n      mul\n      add\n        /* \"contracts/stakingContract.sol\":29432:29450  stakes[i].duration */\n      0x02\n      add\n        /* \"contracts/stakingContract.sol\":29432:29461  stakes[i].duration = duration */\n      dup2\n      swap1\n      sstore\n      pop\n        /* \"contracts/stakingContract.sol\":29490:29496  amount */\n      dup4\n        /* \"contracts/stakingContract.sol\":29471:29477  stakes */\n      dup4\n        /* \"contracts/stakingContract.sol\":29478:29479  i */\n      dup3\n        /* \"contracts/stakingContract.sol\":29471:29480  stakes[i] */\n      dup2\n      sload\n      dup2\n      lt\n      tag_335\n      jumpi\n      tag_336\n      tag_146\n      jump\t// in\n    tag_336:\n    tag_335:\n      swap1\n      0x00\n      mstore\n      keccak256(0x00, 0x20)\n      swap1\n      0x04\n      mul\n      add\n        /* \"contracts/stakingContract.sol\":29471:29487  stakes[i].amount */\n      0x00\n      add\n        /* \"contracts/stakingContract.sol\":29471:29496  stakes[i].amount = amount */\n      dup2\n      swap1\n      sstore\n      pop\n        /* \"contracts/stakingContract.sol\":29526:29573  totalOutstanding.add(_totalExpected(stakes[i])) */\n      tag_338\n        /* \"contracts/stakingContract.sol\":29547:29572  _totalExpected(stakes[i]) */\n      tag_339\n        /* \"contracts/stakingContract.sol\":29562:29568  stakes */\n      dup5\n        /* \"contracts/stakingContract.sol\":29569:29570  i */\n      dup4\n        /* \"contracts/stakingContract.sol\":29562:29571  stakes[i] */\n      dup2\n      sload\n      dup2\n      lt\n      tag_340\n      jumpi\n      tag_341\n      tag_146\n      jump\t// in\n    tag_341:\n    tag_340:\n      swap1\n      0x00\n      mstore\n      keccak256(0x00, 0x20)\n      swap1\n      0x04\n      mul\n      add\n        /* \"contracts/stakingContract.sol\":29547:29572  _totalExpected(stakes[i]) */\n      mload(0x40)\n      dup1\n      0xa0\n      add\n      0x40\n      mstore\n      swap1\n      dup2\n      0x00\n      dup3\n      add\n      sload\n      dup2\n      mstore\n      0x20\n      add\n      0x01\n      dup3\n      add\n      sload\n      dup2\n      mstore\n      0x20\n      add\n      0x02\n      dup3\n      add\n      sload\n      dup2\n      mstore\n      0x20\n      add\n      0x03\n      dup3\n      add\n      0x00\n      swap1\n      sload\n      swap1\n      0x0100\n      exp\n      swap1\n      div\n      0xffffffffffffffffffffffffffffffffffffffffffffffffffffffffffffff\n      and\n      0xffffffffffffffffffffffffffffffffffffffffffffffffffffffffffffff\n      and\n      0xffffffffffffffffffffffffffffffffffffffffffffffffffffffffffffff\n      and\n      dup2\n      mstore\n      0x20\n      add\n      0x03\n      dup3\n      add\n      0x1f\n      swap1\n      sload\n      swap1\n      0x0100\n      exp\n      swap1\n      div\n      0xff\n      and\n      iszero\n      iszero\n      iszero\n      iszero\n      dup2\n      mstore\n      pop\n      pop\n        /* \"contracts/stakingContract.sol\":29547:29561  _totalExpected */\n      tag_158\n        /* \"contracts/stakingContract.sol\":29547:29572  _totalExpected(stakes[i]) */\n      jump\t// in\n    tag_339:\n        /* \"contracts/stakingContract.sol\":29526:29542  totalOutstanding */\n      sload(0x03)\n        /* \"contracts/stakingContract.sol\":29526:29546  totalOutstanding.add */\n      tag_159\n      swap1\n        /* \"contracts/stakingContract.sol\":29526:29573  totalOutstanding.add(_totalExpected(stakes[i])) */\n      swap2\n      swap1\n      0xffffffff\n      and\n      jump\t// in\n    tag_338:\n        /* \"contracts/stakingContract.sol\":29507:29523  totalOutstanding */\n      0x03\n        /* \"contracts/stakingContract.sol\":29507:29573  totalOutstanding = totalOutstanding.add(_totalExpected(stakes[i])) */\n      dup2\n      swap1\n      sstore\n      pop\n        /* \"contracts/stakingContract.sol\":29596:29602  staker */\n      dup7\n        /* \"contracts/stakingContract.sol\":29589:29627  Staked(staker, amount, duration, rate) */\n      0xffffffffffffffffffffffffffffffffffffffff\n      and\n      0xb4caaf29adda3eefee3ad552a8e85058589bf834c7466cae4ee58787f70589ed\n        /* \"contracts/stakingContract.sol\":29604:29610  amount */\n      dup6\n        /* \"contracts/stakingContract.sol\":29612:29620  duration */\n      dup9\n        /* \"contracts/stakingContract.sol\":29622:29626  rate */\n      dup9\n        /* \"contracts/stakingContract.sol\":29589:29627  Staked(staker, amount, duration, rate) */\n      mload(0x40)\n      tag_343\n      swap4\n      swap3\n      swap2\n      swap1\n      tag_344\n      jump\t// in\n    tag_343:\n      mload(0x40)\n      dup1\n      swap2\n      sub\n      swap1\n      log2\n        /* \"contracts/stakingContract.sol\":29135:29634  {... */\n      pop\n      pop\n      pop\n        /* \"contracts/stakingContract.sol\":29008:29634  function _stake(... */\n      pop\n      pop\n      pop\n      pop\n      jump\t// out\n        /* \"#utility.yul\":7:84   */\n    tag_345:\n        /* \"#utility.yul\":44:51   */\n      0x00\n        /* \"#utility.yul\":73:78   */\n      dup2\n        /* \"#utility.yul\":62:78   */\n      swap1\n      pop\n        /* \"#utility.yul\":7:84   */\n      swap2\n      swap1\n      pop\n      jump\t// out\n        /* \"#utility.yul\":90:208   */\n    tag_346:\n        /* \"#utility.yul\":177:201   */\n      tag_408\n        /* \"#utility.yul\":195:200   */\n      dup2\n        /* \"#utility.yul\":177:201   */\n      tag_345\n      jump\t// in\n    tag_408:\n        /* \"#utility.yul\":172:175   */\n      dup3\n        /* \"#utility.yul\":165:202   */\n      mstore\n        /* \"#utility.yul\":90:208   */\n      pop\n      pop\n      jump\t// out\n        /* \"#utility.yul\":214:436   */\n    tag_28:\n        /* \"#utility.yul\":307:311   */\n      0x00\n        /* \"#utility.yul\":345:347   */\n      0x20\n        /* \"#utility.yul\":334:343   */\n      dup3\n        /* \"#utility.yul\":330:348   */\n      add\n        /* \"#utility.yul\":322:348   */\n      swap1\n      pop\n        /* \"#utility.yul\":358:429   */\n      tag_410\n        /* \"#utility.yul\":426:427   */\n      0x00\n        /* \"#utility.yul\":415:424   */\n      dup4\n        /* \"#utility.yul\":411:428   */\n      add\n        /* \"#utility.yul\":402:408   */\n      dup5\n        /* \"#utility.yul\":358:429   */\n      tag_346\n      jump\t// in\n    tag_410:\n        /* \"#utility.yul\":214:436   */\n      swap3\n      swap2\n      pop\n      pop\n      jump\t// out\n        /* \"#utility.yul\":442:610   */\n    tag_347:\n        /* \"#utility.yul\":525:536   */\n      0x00\n        /* \"#utility.yul\":559:565   */\n      dup3\n        /* \"#utility.yul\":554:557   */\n      dup3\n        /* \"#utility.yul\":547:566   */\n      mstore\n        /* \"#utility.yul\":599:603   */\n      0x20\n        /* \"#utility.yul\":594:597   */\n      dup3\n        /* \"#utility.yul\":590:604   */\n      add\n        /* \"#utility.yul\":575:604   */\n      swap1\n      pop\n        /* \"#utility.yul\":442:610   */\n      swap3\n      swap2\n      pop\n      pop\n      jump\t// out\n        /* \"#utility.yul\":616:762   */\n    tag_348:\n        /* \"#utility.yul\":713:719   */\n      dup3\n        /* \"#utility.yul\":708:711   */\n      dup2\n        /* \"#utility.yul\":703:706   */\n      dup4\n        /* \"#utility.yul\":690:720   */\n      calldatacopy\n        /* \"#utility.yul\":754:755   */\n      0x00\n        /* \"#utility.yul\":745:751   */\n      dup4\n        /* \"#utility.yul\":740:743   */\n      dup4\n        /* \"#utility.yul\":736:752   */\n      add\n        /* \"#utility.yul\":729:756   */\n      mstore\n        /* \"#utility.yul\":616:762   */\n      pop\n      pop\n      pop\n      jump\t// out\n        /* \"#utility.yul\":768:870   */\n    tag_349:\n        /* \"#utility.yul\":809:815   */\n      0x00\n        /* \"#utility.yul\":860:862   */\n      0x1f\n        /* \"#utility.yul\":856:863   */\n      not\n        /* \"#utility.yul\":851:853   */\n      0x1f\n        /* \"#utility.yul\":844:849   */\n      dup4\n        /* \"#utility.yul\":840:854   */\n      add\n        /* \"#utility.yul\":836:864   */\n      and\n        /* \"#utility.yul\":826:864   */\n      swap1\n      pop\n        /* \"#utility.yul\":768:870   */\n      swap2\n      swap1\n      pop\n      jump\t// out\n        /* \"#utility.yul\":898:1212   */\n    tag_350:\n        /* \"#utility.yul\":994:997   */\n      0x00\n        /* \"#utility.yul\":1015:1085   */\n      tag_415\n        /* \"#utility.yul\":1078:1084   */\n      dup4\n        /* \"#utility.yul\":1073:1076   */\n      dup6\n        /* \"#utility.yul\":1015:1085   */\n      tag_347\n      jump\t// in\n    tag_415:\n        /* \"#utility.yul\":1008:1085   */\n      swap4\n      pop\n        /* \"#utility.yul\":1095:1151   */\n      tag_416\n        /* \"#utility.yul\":1144:1150   */\n      dup4\n        /* \"#utility.yul\":1139:1142   */\n      dup6\n        /* \"#utility.yul\":1132:1137   */\n      dup5\n        /* \"#utility.yul\":1095:1151   */\n      tag_348\n      jump\t// in\n    tag_416:\n        /* \"#utility.yul\":1176:1205   */\n      tag_417\n        /* \"#utility.yul\":1198:1204   */\n      dup4\n        /* \"#utility.yul\":1176:1205   */\n      tag_349\n      jump\t// in\n    tag_417:\n        /* \"#utility.yul\":1171:1174   */\n      dup5\n        /* \"#utility.yul\":1167:1206   */\n      add\n        /* \"#utility.yul\":1160:1206   */\n      swap1\n      pop\n        /* \"#utility.yul\":898:1212   */\n      swap4\n      swap3\n      pop\n      pop\n      pop\n      jump\t// out\n        /* \"#utility.yul\":1218:1344   */\n    tag_351:\n        /* \"#utility.yul\":1255:1262   */\n      0x00\n        /* \"#utility.yul\":1295:1337   */\n      0xffffffffffffffffffffffffffffffffffffffff\n        /* \"#utility.yul\":1288:1293   */\n      dup3\n        /* \"#utility.yul\":1284:1338   */\n      and\n        /* \"#utility.yul\":1273:1338   */\n      swap1\n      pop\n        /* \"#utility.yul\":1218:1344   */\n      swap2\n      swap1\n      pop\n      jump\t// out\n        /* \"#utility.yul\":1350:1446   */\n    tag_352:\n        /* \"#utility.yul\":1387:1394   */\n      0x00\n        /* \"#utility.yul\":1416:1440   */\n      tag_420\n        /* \"#utility.yul\":1434:1439   */\n      dup3\n        /* \"#utility.yul\":1416:1440   */\n      tag_351\n      jump\t// in\n    tag_420:\n        /* \"#utility.yul\":1405:1440   */\n      swap1\n      pop\n        /* \"#utility.yul\":1350:1446   */\n      swap2\n      swap1\n      pop\n      jump\t// out\n        /* \"#utility.yul\":1452:1570   */\n    tag_353:\n        /* \"#utility.yul\":1539:1563   */\n      tag_422\n        /* \"#utility.yul\":1557:1562   */\n      dup2\n        /* \"#utility.yul\":1539:1563   */\n      tag_352\n      jump\t// in\n    tag_422:\n        /* \"#utility.yul\":1534:1537   */\n      dup3\n        /* \"#utility.yul\":1527:1564   */\n      mstore\n        /* \"#utility.yul\":1452:1570   */\n      pop\n      pop\n      jump\t// out\n        /* \"#utility.yul\":1576:2125   */\n    tag_32:\n        /* \"#utility.yul\":1753:1757   */\n      0x00\n        /* \"#utility.yul\":1791:1793   */\n      0x60\n        /* \"#utility.yul\":1780:1789   */\n      dup3\n        /* \"#utility.yul\":1776:1794   */\n      add\n        /* \"#utility.yul\":1768:1794   */\n      swap1\n      pop\n        /* \"#utility.yul\":1840:1849   */\n      dup2\n        /* \"#utility.yul\":1834:1838   */\n      dup2\n        /* \"#utility.yul\":1830:1850   */\n      sub\n        /* \"#utility.yul\":1826:1827   */\n      0x00\n        /* \"#utility.yul\":1815:1824   */\n      dup4\n        /* \"#utility.yul\":1811:1828   */\n      add\n        /* \"#utility.yul\":1804:1851   */\n      mstore\n        /* \"#utility.yul\":1868:1954   */\n      tag_424\n        /* \"#utility.yul\":1949:1953   */\n      dup2\n        /* \"#utility.yul\":1940:1946   */\n      dup7\n        /* \"#utility.yul\":1932:1938   */\n      dup9\n        /* \"#utility.yul\":1868:1954   */\n      tag_350\n      jump\t// in\n    tag_424:\n        /* \"#utility.yul\":1860:1954   */\n      swap1\n      pop\n        /* \"#utility.yul\":1964:2036   */\n      tag_425\n        /* \"#utility.yul\":2032:2034   */\n      0x20\n        /* \"#utility.yul\":2021:2030   */\n      dup4\n        /* \"#utility.yul\":2017:2035   */\n      add\n        /* \"#utility.yul\":2008:2014   */\n      dup6\n        /* \"#utility.yul\":1964:2036   */\n      tag_353\n      jump\t// in\n    tag_425:\n        /* \"#utility.yul\":2046:2118   */\n      tag_426\n        /* \"#utility.yul\":2114:2116   */\n      0x40\n        /* \"#utility.yul\":2103:2112   */\n      dup4\n        /* \"#utility.yul\":2099:2117   */\n      add\n        /* \"#utility.yul\":2090:2096   */\n      dup5\n        /* \"#utility.yul\":2046:2118   */\n      tag_346\n      jump\t// in\n    tag_426:\n        /* \"#utility.yul\":1576:2125   */\n      swap6\n      swap5\n      pop\n      pop\n      pop\n      pop\n      pop\n      jump\t// out\n        /* \"#utility.yul\":2212:2329   */\n    tag_355:\n        /* \"#utility.yul\":2321:2322   */\n      0x00\n        /* \"#utility.yul\":2318:2319   */\n      dup1\n        /* \"#utility.yul\":2311:2323   */\n      revert\n        /* \"#utility.yul\":2458:2580   */\n    tag_357:\n        /* \"#utility.yul\":2531:2555   */\n      tag_431\n        /* \"#utility.yul\":2549:2554   */\n      dup2\n        /* \"#utility.yul\":2531:2555   */\n      tag_352\n      jump\t// in\n    tag_431:\n        /* \"#utility.yul\":2524:2529   */\n      dup2\n        /* \"#utility.yul\":2521:2556   */\n      eq\n        /* \"#utility.yul\":2511:2574   */\n      tag_432\n      jumpi\n        /* \"#utility.yul\":2570:2571   */\n      0x00\n        /* \"#utility.yul\":2567:2568   */\n      dup1\n        /* \"#utility.yul\":2560:2572   */\n      revert\n        /* \"#utility.yul\":2511:2574   */\n    tag_432:\n        /* \"#utility.yul\":2458:2580   */\n      pop\n      jump\t// out\n        /* \"#utility.yul\":2586:2725   */\n    tag_358:\n        /* \"#utility.yul\":2632:2637   */\n      0x00\n        /* \"#utility.yul\":2670:2676   */\n      dup2\n        /* \"#utility.yul\":2657:2677   */\n      calldataload\n        /* \"#utility.yul\":2648:2677   */\n      swap1\n      pop\n        /* \"#utility.yul\":2686:2719   */\n      tag_434\n        /* \"#utility.yul\":2713:2718   */\n      dup2\n        /* \"#utility.yul\":2686:2719   */\n      tag_357\n      jump\t// in\n    tag_434:\n        /* \"#utility.yul\":2586:2725   */\n      swap3\n      swap2\n      pop\n      pop\n      jump\t// out\n        /* \"#utility.yul\":2731:3060   */\n    tag_36:\n        /* \"#utility.yul\":2790:2796   */\n      0x00\n        /* \"#utility.yul\":2839:2841   */\n      0x20\n        /* \"#utility.yul\":2827:2836   */\n      dup3\n        /* \"#utility.yul\":2818:2825   */\n      dup5\n        /* \"#utility.yul\":2814:2837   */\n      sub\n        /* \"#utility.yul\":2810:2842   */\n      slt\n        /* \"#utility.yul\":2807:2926   */\n      iszero\n      tag_436\n      jumpi\n        /* \"#utility.yul\":2845:2924   */\n      tag_437\n      tag_355\n      jump\t// in\n    tag_437:\n        /* \"#utility.yul\":2807:2926   */\n    tag_436:\n        /* \"#utility.yul\":2965:2966   */\n      0x00\n        /* \"#utility.yul\":2990:3043   */\n      tag_438\n        /* \"#utility.yul\":3035:3042   */\n      dup5\n        /* \"#utility.yul\":3026:3032   */\n      dup3\n        /* \"#utility.yul\":3015:3024   */\n      dup6\n        /* \"#utility.yul\":3011:3033   */\n      add\n        /* \"#utility.yul\":2990:3043   */\n      tag_358\n      jump\t// in\n    tag_438:\n        /* \"#utility.yul\":2980:3043   */\n      swap2\n      pop\n        /* \"#utility.yul\":2936:3053   */\n      pop\n        /* \"#utility.yul\":2731:3060   */\n      swap3\n      swap2\n      pop\n      pop\n      jump\t// out\n        /* \"#utility.yul\":3066:3203   */\n    tag_359:\n        /* \"#utility.yul\":3156:3162   */\n      0x00\n        /* \"#utility.yul\":3190:3195   */\n      dup2\n        /* \"#utility.yul\":3184:3196   */\n      mload\n        /* \"#utility.yul\":3174:3196   */\n      swap1\n      pop\n        /* \"#utility.yul\":3066:3203   */\n      swap2\n      swap1\n      pop\n      jump\t// out\n        /* \"#utility.yul\":3209:3416   */\n    tag_360:\n        /* \"#utility.yul\":3331:3342   */\n      0x00\n        /* \"#utility.yul\":3365:3371   */\n      dup3\n        /* \"#utility.yul\":3360:3363   */\n      dup3\n        /* \"#utility.yul\":3353:3372   */\n      mstore\n        /* \"#utility.yul\":3405:3409   */\n      0x20\n        /* \"#utility.yul\":3400:3403   */\n      dup3\n        /* \"#utility.yul\":3396:3410   */\n      add\n        /* \"#utility.yul\":3381:3410   */\n      swap1\n      pop\n        /* \"#utility.yul\":3209:3416   */\n      swap3\n      swap2\n      pop\n      pop\n      jump\t// out\n        /* \"#utility.yul\":3422:3577   */\n    tag_361:\n        /* \"#utility.yul\":3512:3516   */\n      0x00\n        /* \"#utility.yul\":3535:3538   */\n      dup2\n        /* \"#utility.yul\":3527:3538   */\n      swap1\n      pop\n        /* \"#utility.yul\":3565:3569   */\n      0x20\n        /* \"#utility.yul\":3560:3563   */\n      dup3\n        /* \"#utility.yul\":3556:3570   */\n      add\n        /* \"#utility.yul\":3548:3570   */\n      swap1\n      pop\n        /* \"#utility.yul\":3422:3577   */\n      swap2\n      swap1\n      pop\n      jump\t// out\n        /* \"#utility.yul\":3583:3691   */\n    tag_362:\n        /* \"#utility.yul\":3660:3684   */\n      tag_443\n        /* \"#utility.yul\":3678:3683   */\n      dup2\n        /* \"#utility.yul\":3660:3684   */\n      tag_345\n      jump\t// in\n    tag_443:\n        /* \"#utility.yul\":3655:3658   */\n      dup3\n        /* \"#utility.yul\":3648:3685   */\n      mstore\n        /* \"#utility.yul\":3583:3691   */\n      pop\n      pop\n      jump\t// out\n        /* \"#utility.yul\":3697:3845   */\n    tag_363:\n        /* \"#utility.yul\":3734:3741   */\n      0x00\n        /* \"#utility.yul\":3774:3838   */\n      0xffffffffffffffffffffffffffffffffffffffffffffffffffffffffffffff\n        /* \"#utility.yul\":3767:3772   */\n      dup3\n        /* \"#utility.yul\":3763:3839   */\n      and\n        /* \"#utility.yul\":3752:3839   */\n      swap1\n      pop\n        /* \"#utility.yul\":3697:3845   */\n      swap2\n      swap1\n      pop\n      jump\t// out\n        /* \"#utility.yul\":3851:3959   */\n    tag_364:\n        /* \"#utility.yul\":3928:3952   */\n      tag_446\n        /* \"#utility.yul\":3946:3951   */\n      dup2\n        /* \"#utility.yul\":3928:3952   */\n      tag_363\n      jump\t// in\n    tag_446:\n        /* \"#utility.yul\":3923:3926   */\n      dup3\n        /* \"#utility.yul\":3916:3953   */\n      mstore\n        /* \"#utility.yul\":3851:3959   */\n      pop\n      pop\n      jump\t// out\n        /* \"#utility.yul\":3965:4055   */\n    tag_365:\n        /* \"#utility.yul\":3999:4006   */\n      0x00\n        /* \"#utility.yul\":4042:4047   */\n      dup2\n        /* \"#utility.yul\":4035:4048   */\n      iszero\n        /* \"#utility.yul\":4028:4049   */\n      iszero\n        /* \"#utility.yul\":4017:4049   */\n      swap1\n      pop\n        /* \"#utility.yul\":3965:4055   */\n      swap2\n      swap1\n      pop\n      jump\t// out\n        /* \"#utility.yul\":4061:4160   */\n    tag_366:\n        /* \"#utility.yul\":4132:4153   */\n      tag_449\n        /* \"#utility.yul\":4147:4152   */\n      dup2\n        /* \"#utility.yul\":4132:4153   */\n      tag_365\n      jump\t// in\n    tag_449:\n        /* \"#utility.yul\":4127:4130   */\n      dup3\n        /* \"#utility.yul\":4120:4154   */\n      mstore\n        /* \"#utility.yul\":4061:4160   */\n      pop\n      pop\n      jump\t// out\n        /* \"#utility.yul\":4266:5280   */\n    tag_367:\n        /* \"#utility.yul\":4399:4403   */\n      0xa0\n        /* \"#utility.yul\":4394:4397   */\n      dup3\n        /* \"#utility.yul\":4390:4404   */\n      add\n        /* \"#utility.yul\":4488:4492   */\n      0x00\n        /* \"#utility.yul\":4481:4486   */\n      dup3\n        /* \"#utility.yul\":4477:4493   */\n      add\n        /* \"#utility.yul\":4471:4494   */\n      mload\n        /* \"#utility.yul\":4507:4570   */\n      tag_451\n        /* \"#utility.yul\":4564:4568   */\n      0x00\n        /* \"#utility.yul\":4559:4562   */\n      dup6\n        /* \"#utility.yul\":4555:4569   */\n      add\n        /* \"#utility.yul\":4541:4553   */\n      dup3\n        /* \"#utility.yul\":4507:4570   */\n      tag_362\n      jump\t// in\n    tag_451:\n        /* \"#utility.yul\":4414:4580   */\n      pop\n        /* \"#utility.yul\":4661:4665   */\n      0x20\n        /* \"#utility.yul\":4654:4659   */\n      dup3\n        /* \"#utility.yul\":4650:4666   */\n      add\n        /* \"#utility.yul\":4644:4667   */\n      mload\n        /* \"#utility.yul\":4680:4743   */\n      tag_452\n        /* \"#utility.yul\":4737:4741   */\n      0x20\n        /* \"#utility.yul\":4732:4735   */\n      dup6\n        /* \"#utility.yul\":4728:4742   */\n      add\n        /* \"#utility.yul\":4714:4726   */\n      dup3\n        /* \"#utility.yul\":4680:4743   */\n      tag_362\n      jump\t// in\n    tag_452:\n        /* \"#utility.yul\":4590:4753   */\n      pop\n        /* \"#utility.yul\":4839:4843   */\n      0x40\n        /* \"#utility.yul\":4832:4837   */\n      dup3\n        /* \"#utility.yul\":4828:4844   */\n      add\n        /* \"#utility.yul\":4822:4845   */\n      mload\n        /* \"#utility.yul\":4858:4921   */\n      tag_453\n        /* \"#utility.yul\":4915:4919   */\n      0x40\n        /* \"#utility.yul\":4910:4913   */\n      dup6\n        /* \"#utility.yul\":4906:4920   */\n      add\n        /* \"#utility.yul\":4892:4904   */\n      dup3\n        /* \"#utility.yul\":4858:4921   */\n      tag_362\n      jump\t// in\n    tag_453:\n        /* \"#utility.yul\":4763:4931   */\n      pop\n        /* \"#utility.yul\":5013:5017   */\n      0x60\n        /* \"#utility.yul\":5006:5011   */\n      dup3\n        /* \"#utility.yul\":5002:5018   */\n      add\n        /* \"#utility.yul\":4996:5019   */\n      mload\n        /* \"#utility.yul\":5032:5095   */\n      tag_454\n        /* \"#utility.yul\":5089:5093   */\n      0x60\n        /* \"#utility.yul\":5084:5087   */\n      dup6\n        /* \"#utility.yul\":5080:5094   */\n      add\n        /* \"#utility.yul\":5066:5078   */\n      dup3\n        /* \"#utility.yul\":5032:5095   */\n      tag_364\n      jump\t// in\n    tag_454:\n        /* \"#utility.yul\":4941:5105   */\n      pop\n        /* \"#utility.yul\":5187:5191   */\n      0x80\n        /* \"#utility.yul\":5180:5185   */\n      dup3\n        /* \"#utility.yul\":5176:5192   */\n      add\n        /* \"#utility.yul\":5170:5193   */\n      mload\n        /* \"#utility.yul\":5206:5263   */\n      tag_455\n        /* \"#utility.yul\":5257:5261   */\n      0x80\n        /* \"#utility.yul\":5252:5255   */\n      dup6\n        /* \"#utility.yul\":5248:5262   */\n      add\n        /* \"#utility.yul\":5234:5246   */\n      dup3\n        /* \"#utility.yul\":5206:5263   */\n      tag_366\n      jump\t// in\n    tag_455:\n        /* \"#utility.yul\":5115:5273   */\n      pop\n        /* \"#utility.yul\":4368:5280   */\n      pop\n        /* \"#utility.yul\":4266:5280   */\n      pop\n      pop\n      jump\t// out\n        /* \"#utility.yul\":5286:5557   */\n    tag_368:\n        /* \"#utility.yul\":5401:5411   */\n      0x00\n        /* \"#utility.yul\":5422:5514   */\n      tag_457\n        /* \"#utility.yul\":5510:5513   */\n      dup4\n        /* \"#utility.yul\":5502:5508   */\n      dup4\n        /* \"#utility.yul\":5422:5514   */\n      tag_367\n      jump\t// in\n    tag_457:\n        /* \"#utility.yul\":5546:5550   */\n      0xa0\n        /* \"#utility.yul\":5541:5544   */\n      dup4\n        /* \"#utility.yul\":5537:5551   */\n      add\n        /* \"#utility.yul\":5523:5551   */\n      swap1\n      pop\n        /* \"#utility.yul\":5286:5557   */\n      swap3\n      swap2\n      pop\n      pop\n      jump\t// out\n        /* \"#utility.yul\":5563:5699   */\n    tag_369:\n        /* \"#utility.yul\":5656:5660   */\n      0x00\n        /* \"#utility.yul\":5688:5692   */\n      0x20\n        /* \"#utility.yul\":5683:5686   */\n      dup3\n        /* \"#utility.yul\":5679:5693   */\n      add\n        /* \"#utility.yul\":5671:5693   */\n      swap1\n      pop\n        /* \"#utility.yul\":5563:5699   */\n      swap2\n      swap1\n      pop\n      jump\t// out\n        /* \"#utility.yul\":5809:6725   */\n    tag_370:\n        /* \"#utility.yul\":5974:5977   */\n      0x00\n        /* \"#utility.yul\":6003:6080   */\n      tag_460\n        /* \"#utility.yul\":6074:6079   */\n      dup3\n        /* \"#utility.yul\":6003:6080   */\n      tag_359\n      jump\t// in\n    tag_460:\n        /* \"#utility.yul\":6096:6205   */\n      tag_461\n        /* \"#utility.yul\":6198:6204   */\n      dup2\n        /* \"#utility.yul\":6193:6196   */\n      dup6\n        /* \"#utility.yul\":6096:6205   */\n      tag_360\n      jump\t// in\n    tag_461:\n        /* \"#utility.yul\":6089:6205   */\n      swap4\n      pop\n        /* \"#utility.yul\":6229:6308   */\n      tag_462\n        /* \"#utility.yul\":6302:6307   */\n      dup4\n        /* \"#utility.yul\":6229:6308   */\n      tag_361\n      jump\t// in\n    tag_462:\n        /* \"#utility.yul\":6331:6338   */\n      dup1\n        /* \"#utility.yul\":6362:6363   */\n      0x00\n        /* \"#utility.yul\":6347:6700   */\n    tag_463:\n        /* \"#utility.yul\":6372:6378   */\n      dup4\n        /* \"#utility.yul\":6369:6370   */\n      dup2\n        /* \"#utility.yul\":6366:6379   */\n      lt\n        /* \"#utility.yul\":6347:6700   */\n      iszero\n      tag_465\n      jumpi\n        /* \"#utility.yul\":6448:6454   */\n      dup2\n        /* \"#utility.yul\":6442:6455   */\n      mload\n        /* \"#utility.yul\":6475:6584   */\n      tag_466\n        /* \"#utility.yul\":6580:6583   */\n      dup9\n        /* \"#utility.yul\":6565:6578   */\n      dup3\n        /* \"#utility.yul\":6475:6584   */\n      tag_368\n      jump\t// in\n    tag_466:\n        /* \"#utility.yul\":6468:6584   */\n      swap8\n      pop\n        /* \"#utility.yul\":6607:6690   */\n      tag_467\n        /* \"#utility.yul\":6683:6689   */\n      dup4\n        /* \"#utility.yul\":6607:6690   */\n      tag_369\n      jump\t// in\n    tag_467:\n        /* \"#utility.yul\":6597:6690   */\n      swap3\n      pop\n        /* \"#utility.yul\":6407:6700   */\n      pop\n        /* \"#utility.yul\":6394:6395   */\n      0x01\n        /* \"#utility.yul\":6391:6392   */\n      dup2\n        /* \"#utility.yul\":6387:6396   */\n      add\n        /* \"#utility.yul\":6382:6396   */\n      swap1\n      pop\n        /* \"#utility.yul\":6347:6700   */\n      jump(tag_463)\n    tag_465:\n        /* \"#utility.yul\":6351:6365   */\n      pop\n        /* \"#utility.yul\":6716:6719   */\n      dup6\n        /* \"#utility.yul\":6709:6719   */\n      swap4\n      pop\n        /* \"#utility.yul\":5979:6725   */\n      pop\n      pop\n      pop\n        /* \"#utility.yul\":5809:6725   */\n      swap3\n      swap2\n      pop\n      pop\n      jump\t// out\n        /* \"#utility.yul\":6731:7196   */\n    tag_39:\n        /* \"#utility.yul\":6920:6924   */\n      0x00\n        /* \"#utility.yul\":6958:6960   */\n      0x20\n        /* \"#utility.yul\":6947:6956   */\n      dup3\n        /* \"#utility.yul\":6943:6961   */\n      add\n        /* \"#utility.yul\":6935:6961   */\n      swap1\n      pop\n        /* \"#utility.yul\":7007:7016   */\n      dup2\n        /* \"#utility.yul\":7001:7005   */\n      dup2\n        /* \"#utility.yul\":6997:7017   */\n      sub\n        /* \"#utility.yul\":6993:6994   */\n      0x00\n        /* \"#utility.yul\":6982:6991   */\n      dup4\n        /* \"#utility.yul\":6978:6995   */\n      add\n        /* \"#utility.yul\":6971:7018   */\n      mstore\n        /* \"#utility.yul\":7035:7189   */\n      tag_469\n        /* \"#utility.yul\":7184:7188   */\n      dup2\n        /* \"#utility.yul\":7175:7181   */\n      dup5\n        /* \"#utility.yul\":7035:7189   */\n      tag_370\n      jump\t// in\n    tag_469:\n        /* \"#utility.yul\":7027:7189   */\n      swap1\n      pop\n        /* \"#utility.yul\":6731:7196   */\n      swap3\n      swap2\n      pop\n      pop\n      jump\t// out\n        /* \"#utility.yul\":7202:7324   */\n    tag_371:\n        /* \"#utility.yul\":7275:7299   */\n      tag_471\n        /* \"#utility.yul\":7293:7298   */\n      dup2\n        /* \"#utility.yul\":7275:7299   */\n      tag_345\n      jump\t// in\n    tag_471:\n        /* \"#utility.yul\":7268:7273   */\n      dup2\n        /* \"#utility.yul\":7265:7300   */\n      eq\n        /* \"#utility.yul\":7255:7318   */\n      tag_472\n      jumpi\n        /* \"#utility.yul\":7314:7315   */\n      0x00\n        /* \"#utility.yul\":7311:7312   */\n      dup1\n        /* \"#utility.yul\":7304:7316   */\n      revert\n        /* \"#utility.yul\":7255:7318   */\n    tag_472:\n        /* \"#utility.yul\":7202:7324   */\n      pop\n      jump\t// out\n        /* \"#utility.yul\":7330:7469   */\n    tag_372:\n        /* \"#utility.yul\":7376:7381   */\n      0x00\n        /* \"#utility.yul\":7414:7420   */\n      dup2\n        /* \"#utility.yul\":7401:7421   */\n      calldataload\n        /* \"#utility.yul\":7392:7421   */\n      swap1\n      pop\n        /* \"#utility.yul\":7430:7463   */\n      tag_474\n        /* \"#utility.yul\":7457:7462   */\n      dup2\n        /* \"#utility.yul\":7430:7463   */\n      tag_371\n      jump\t// in\n    tag_474:\n        /* \"#utility.yul\":7330:7469   */\n      swap3\n      swap2\n      pop\n      pop\n      jump\t// out\n        /* \"#utility.yul\":7475:7804   */\n    tag_43:\n        /* \"#utility.yul\":7534:7540   */\n      0x00\n        /* \"#utility.yul\":7583:7585   */\n      0x20\n        /* \"#utility.yul\":7571:7580   */\n      dup3\n        /* \"#utility.yul\":7562:7569   */\n      dup5\n        /* \"#utility.yul\":7558:7581   */\n      sub\n        /* \"#utility.yul\":7554:7586   */\n      slt\n        /* \"#utility.yul\":7551:7670   */\n      iszero\n      tag_476\n      jumpi\n        /* \"#utility.yul\":7589:7668   */\n      tag_477\n      tag_355\n      jump\t// in\n    tag_477:\n        /* \"#utility.yul\":7551:7670   */\n    tag_476:\n        /* \"#utility.yul\":7709:7710   */\n      0x00\n        /* \"#utility.yul\":7734:7787   */\n      tag_478\n        /* \"#utility.yul\":7779:7786   */\n      dup5\n        /* \"#utility.yul\":7770:7776   */\n      dup3\n        /* \"#utility.yul\":7759:7768   */\n      dup6\n        /* \"#utility.yul\":7755:7777   */\n      add\n        /* \"#utility.yul\":7734:7787   */\n      tag_372\n      jump\t// in\n    tag_478:\n        /* \"#utility.yul\":7724:7787   */\n      swap2\n      pop\n        /* \"#utility.yul\":7680:7797   */\n      pop\n        /* \"#utility.yul\":7475:7804   */\n      swap3\n      swap2\n      pop\n      pop\n      jump\t// out\n        /* \"#utility.yul\":7810:7926   */\n    tag_373:\n        /* \"#utility.yul\":7880:7901   */\n      tag_480\n        /* \"#utility.yul\":7895:7900   */\n      dup2\n        /* \"#utility.yul\":7880:7901   */\n      tag_365\n      jump\t// in\n    tag_480:\n        /* \"#utility.yul\":7873:7878   */\n      dup2\n        /* \"#utility.yul\":7870:7902   */\n      eq\n        /* \"#utility.yul\":7860:7920   */\n      tag_481\n      jumpi\n        /* \"#utility.yul\":7916:7917   */\n      0x00\n        /* \"#utility.yul\":7913:7914   */\n      dup1\n        /* \"#utility.yul\":7906:7918   */\n      revert\n        /* \"#utility.yul\":7860:7920   */\n    tag_481:\n        /* \"#utility.yul\":7810:7926   */\n      pop\n      jump\t// out\n        /* \"#utility.yul\":7932:8065   */\n    tag_374:\n        /* \"#utility.yul\":7975:7980   */\n      0x00\n        /* \"#utility.yul\":8013:8019   */\n      dup2\n        /* \"#utility.yul\":8000:8020   */\n      calldataload\n        /* \"#utility.yul\":7991:8020   */\n      swap1\n      pop\n        /* \"#utility.yul\":8029:8059   */\n      tag_483\n        /* \"#utility.yul\":8053:8058   */\n      dup2\n        /* \"#utility.yul\":8029:8059   */\n      tag_373\n      jump\t// in\n    tag_483:\n        /* \"#utility.yul\":7932:8065   */\n      swap3\n      swap2\n      pop\n      pop\n      jump\t// out\n        /* \"#utility.yul\":8071:8394   */\n    tag_52:\n        /* \"#utility.yul\":8127:8133   */\n      0x00\n        /* \"#utility.yul\":8176:8178   */\n      0x20\n        /* \"#utility.yul\":8164:8173   */\n      dup3\n        /* \"#utility.yul\":8155:8162   */\n      dup5\n        /* \"#utility.yul\":8151:8174   */\n      sub\n        /* \"#utility.yul\":8147:8179   */\n      slt\n        /* \"#utility.yul\":8144:8263   */\n      iszero\n      tag_485\n      jumpi\n        /* \"#utility.yul\":8182:8261   */\n      tag_486\n      tag_355\n      jump\t// in\n    tag_486:\n        /* \"#utility.yul\":8144:8263   */\n    tag_485:\n        /* \"#utility.yul\":8302:8303   */\n      0x00\n        /* \"#utility.yul\":8327:8377   */\n      tag_487\n        /* \"#utility.yul\":8369:8376   */\n      dup5\n        /* \"#utility.yul\":8360:8366   */\n      dup3\n        /* \"#utility.yul\":8349:8358   */\n      dup6\n        /* \"#utility.yul\":8345:8367   */\n      add\n        /* \"#utility.yul\":8327:8377   */\n      tag_374\n      jump\t// in\n    tag_487:\n        /* \"#utility.yul\":8317:8377   */\n      swap2\n      pop\n        /* \"#utility.yul\":8273:8387   */\n      pop\n        /* \"#utility.yul\":8071:8394   */\n      swap3\n      swap2\n      pop\n      pop\n      jump\t// out\n        /* \"#utility.yul\":8400:8874   */\n    tag_61:\n        /* \"#utility.yul\":8468:8474   */\n      0x00\n        /* \"#utility.yul\":8476:8482   */\n      dup1\n        /* \"#utility.yul\":8525:8527   */\n      0x40\n        /* \"#utility.yul\":8513:8522   */\n      dup4\n        /* \"#utility.yul\":8504:8511   */\n      dup6\n        /* \"#utility.yul\":8500:8523   */\n      sub\n        /* \"#utility.yul\":8496:8528   */\n      slt\n        /* \"#utility.yul\":8493:8612   */\n      iszero\n      tag_489\n      jumpi\n        /* \"#utility.yul\":8531:8610   */\n      tag_490\n      tag_355\n      jump\t// in\n    tag_490:\n        /* \"#utility.yul\":8493:8612   */\n    tag_489:\n        /* \"#utility.yul\":8651:8652   */\n      0x00\n        /* \"#utility.yul\":8676:8729   */\n      tag_491\n        /* \"#utility.yul\":8721:8728   */\n      dup6\n        /* \"#utility.yul\":8712:8718   */\n      dup3\n        /* \"#utility.yul\":8701:8710   */\n      dup7\n        /* \"#utility.yul\":8697:8719   */\n      add\n        /* \"#utility.yul\":8676:8729   */\n      tag_372\n      jump\t// in\n    tag_491:\n        /* \"#utility.yul\":8666:8729   */\n      swap3\n      pop\n        /* \"#utility.yul\":8622:8739   */\n      pop\n        /* \"#utility.yul\":8778:8780   */\n      0x20\n        /* \"#utility.yul\":8804:8857   */\n      tag_492\n        /* \"#utility.yul\":8849:8856   */\n      dup6\n        /* \"#utility.yul\":8840:8846   */\n      dup3\n        /* \"#utility.yul\":8829:8838   */\n      dup7\n        /* \"#utility.yul\":8825:8847   */\n      add\n        /* \"#utility.yul\":8804:8857   */\n      tag_372\n      jump\t// in\n    tag_492:\n        /* \"#utility.yul\":8794:8857   */\n      swap2\n      pop\n        /* \"#utility.yul\":8749:8867   */\n      pop\n        /* \"#utility.yul\":8400:8874   */\n      swap3\n      pop\n      swap3\n      swap1\n      pop\n      jump\t// out\n        /* \"#utility.yul\":8880:8989   */\n    tag_375:\n        /* \"#utility.yul\":8961:8982   */\n      tag_494\n        /* \"#utility.yul\":8976:8981   */\n      dup2\n        /* \"#utility.yul\":8961:8982   */\n      tag_365\n      jump\t// in\n    tag_494:\n        /* \"#utility.yul\":8956:8959   */\n      dup3\n        /* \"#utility.yul\":8949:8983   */\n      mstore\n        /* \"#utility.yul\":8880:8989   */\n      pop\n      pop\n      jump\t// out\n        /* \"#utility.yul\":8995:9205   */\n    tag_67:\n        /* \"#utility.yul\":9082:9086   */\n      0x00\n        /* \"#utility.yul\":9120:9122   */\n      0x20\n        /* \"#utility.yul\":9109:9118   */\n      dup3\n        /* \"#utility.yul\":9105:9123   */\n      add\n        /* \"#utility.yul\":9097:9123   */\n      swap1\n      pop\n        /* \"#utility.yul\":9133:9198   */\n      tag_496\n        /* \"#utility.yul\":9195:9196   */\n      0x00\n        /* \"#utility.yul\":9184:9193   */\n      dup4\n        /* \"#utility.yul\":9180:9197   */\n      add\n        /* \"#utility.yul\":9171:9177   */\n      dup5\n        /* \"#utility.yul\":9133:9198   */\n      tag_375\n      jump\t// in\n    tag_496:\n        /* \"#utility.yul\":8995:9205   */\n      swap3\n      swap2\n      pop\n      pop\n      jump\t// out\n        /* \"#utility.yul\":9211:9543   */\n    tag_89:\n        /* \"#utility.yul\":9332:9336   */\n      0x00\n        /* \"#utility.yul\":9370:9372   */\n      0x40\n        /* \"#utility.yul\":9359:9368   */\n      dup3\n        /* \"#utility.yul\":9355:9373   */\n      add\n        /* \"#utility.yul\":9347:9373   */\n      swap1\n      pop\n        /* \"#utility.yul\":9383:9454   */\n      tag_498\n        /* \"#utility.yul\":9451:9452   */\n      0x00\n        /* \"#utility.yul\":9440:9449   */\n      dup4\n        /* \"#utility.yul\":9436:9453   */\n      add\n        /* \"#utility.yul\":9427:9433   */\n      dup6\n        /* \"#utility.yul\":9383:9454   */\n      tag_346\n      jump\t// in\n    tag_498:\n        /* \"#utility.yul\":9464:9536   */\n      tag_499\n        /* \"#utility.yul\":9532:9534   */\n      0x20\n        /* \"#utility.yul\":9521:9530   */\n      dup4\n        /* \"#utility.yul\":9517:9535   */\n      add\n        /* \"#utility.yul\":9508:9514   */\n      dup5\n        /* \"#utility.yul\":9464:9536   */\n      tag_346\n      jump\t// in\n    tag_499:\n        /* \"#utility.yul\":9211:9543   */\n      swap4\n      swap3\n      pop\n      pop\n      pop\n      jump\t// out\n        /* \"#utility.yul\":9549:9771   */\n    tag_94:\n        /* \"#utility.yul\":9642:9646   */\n      0x00\n        /* \"#utility.yul\":9680:9682   */\n      0x20\n        /* \"#utility.yul\":9669:9678   */\n      dup3\n        /* \"#utility.yul\":9665:9683   */\n      add\n        /* \"#utility.yul\":9657:9683   */\n      swap1\n      pop\n        /* \"#utility.yul\":9693:9764   */\n      tag_501\n        /* \"#utility.yul\":9761:9762   */\n      0x00\n        /* \"#utility.yul\":9750:9759   */\n      dup4\n        /* \"#utility.yul\":9746:9763   */\n      add\n        /* \"#utility.yul\":9737:9743   */\n      dup5\n        /* \"#utility.yul\":9693:9764   */\n      tag_353\n      jump\t// in\n    tag_501:\n        /* \"#utility.yul\":9549:9771   */\n      swap3\n      swap2\n      pop\n      pop\n      jump\t// out\n        /* \"#utility.yul\":9777:10251   */\n    tag_103:\n        /* \"#utility.yul\":9845:9851   */\n      0x00\n        /* \"#utility.yul\":9853:9859   */\n      dup1\n        /* \"#utility.yul\":9902:9904   */\n      0x40\n        /* \"#utility.yul\":9890:9899   */\n      dup4\n        /* \"#utility.yul\":9881:9888   */\n      dup6\n        /* \"#utility.yul\":9877:9900   */\n      sub\n        /* \"#utility.yul\":9873:9905   */\n      slt\n        /* \"#utility.yul\":9870:9989   */\n      iszero\n      tag_503\n      jumpi\n        /* \"#utility.yul\":9908:9987   */\n      tag_504\n      tag_355\n      jump\t// in\n    tag_504:\n        /* \"#utility.yul\":9870:9989   */\n    tag_503:\n        /* \"#utility.yul\":10028:10029   */\n      0x00\n        /* \"#utility.yul\":10053:10106   */\n      tag_505\n        /* \"#utility.yul\":10098:10105   */\n      dup6\n        /* \"#utility.yul\":10089:10095   */\n      dup3\n        /* \"#utility.yul\":10078:10087   */\n      dup7\n        /* \"#utility.yul\":10074:10096   */\n      add\n        /* \"#utility.yul\":10053:10106   */\n      tag_358\n      jump\t// in\n    tag_505:\n        /* \"#utility.yul\":10043:10106   */\n      swap3\n      pop\n        /* \"#utility.yul\":9999:10116   */\n      pop\n        /* \"#utility.yul\":10155:10157   */\n      0x20\n        /* \"#utility.yul\":10181:10234   */\n      tag_506\n        /* \"#utility.yul\":10226:10233   */\n      dup6\n        /* \"#utility.yul\":10217:10223   */\n      dup3\n        /* \"#utility.yul\":10206:10215   */\n      dup7\n        /* \"#utility.yul\":10202:10224   */\n      add\n        /* \"#utility.yul\":10181:10234   */\n      tag_372\n      jump\t// in\n    tag_506:\n        /* \"#utility.yul\":10171:10234   */\n      swap2\n      pop\n        /* \"#utility.yul\":10126:10244   */\n      pop\n        /* \"#utility.yul\":9777:10251   */\n      swap3\n      pop\n      swap3\n      swap1\n      pop\n      jump\t// out\n        /* \"#utility.yul\":10257:10375   */\n    tag_376:\n        /* \"#utility.yul\":10344:10368   */\n      tag_508\n        /* \"#utility.yul\":10362:10367   */\n      dup2\n        /* \"#utility.yul\":10344:10368   */\n      tag_363\n      jump\t// in\n    tag_508:\n        /* \"#utility.yul\":10339:10342   */\n      dup3\n        /* \"#utility.yul\":10332:10369   */\n      mstore\n        /* \"#utility.yul\":10257:10375   */\n      pop\n      pop\n      jump\t// out\n        /* \"#utility.yul\":10381:11033   */\n    tag_106:\n        /* \"#utility.yul\":10580:10584   */\n      0x00\n        /* \"#utility.yul\":10618:10621   */\n      0xa0\n        /* \"#utility.yul\":10607:10616   */\n      dup3\n        /* \"#utility.yul\":10603:10622   */\n      add\n        /* \"#utility.yul\":10595:10622   */\n      swap1\n      pop\n        /* \"#utility.yul\":10632:10703   */\n      tag_510\n        /* \"#utility.yul\":10700:10701   */\n      0x00\n        /* \"#utility.yul\":10689:10698   */\n      dup4\n        /* \"#utility.yul\":10685:10702   */\n      add\n        /* \"#utility.yul\":10676:10682   */\n      dup9\n        /* \"#utility.yul\":10632:10703   */\n      tag_346\n      jump\t// in\n    tag_510:\n        /* \"#utility.yul\":10713:10785   */\n      tag_511\n        /* \"#utility.yul\":10781:10783   */\n      0x20\n        /* \"#utility.yul\":10770:10779   */\n      dup4\n        /* \"#utility.yul\":10766:10784   */\n      add\n        /* \"#utility.yul\":10757:10763   */\n      dup8\n        /* \"#utility.yul\":10713:10785   */\n      tag_346\n      jump\t// in\n    tag_511:\n        /* \"#utility.yul\":10795:10867   */\n      tag_512\n        /* \"#utility.yul\":10863:10865   */\n      0x40\n        /* \"#utility.yul\":10852:10861   */\n      dup4\n        /* \"#utility.yul\":10848:10866   */\n      add\n        /* \"#utility.yul\":10839:10845   */\n      dup7\n        /* \"#utility.yul\":10795:10867   */\n      tag_346\n      jump\t// in\n    tag_512:\n        /* \"#utility.yul\":10877:10949   */\n      tag_513\n        /* \"#utility.yul\":10945:10947   */\n      0x60\n        /* \"#utility.yul\":10934:10943   */\n      dup4\n        /* \"#utility.yul\":10930:10948   */\n      add\n        /* \"#utility.yul\":10921:10927   */\n      dup6\n        /* \"#utility.yul\":10877:10949   */\n      tag_376\n      jump\t// in\n    tag_513:\n        /* \"#utility.yul\":10959:11026   */\n      tag_514\n        /* \"#utility.yul\":11021:11024   */\n      0x80\n        /* \"#utility.yul\":11010:11019   */\n      dup4\n        /* \"#utility.yul\":11006:11025   */\n      add\n        /* \"#utility.yul\":10997:11003   */\n      dup5\n        /* \"#utility.yul\":10959:11026   */\n      tag_375\n      jump\t// in\n    tag_514:\n        /* \"#utility.yul\":10381:11033   */\n      swap7\n      swap6\n      pop\n      pop\n      pop\n      pop\n      pop\n      pop\n      jump\t// out\n        /* \"#utility.yul\":11039:11208   */\n    tag_377:\n        /* \"#utility.yul\":11123:11134   */\n      0x00\n        /* \"#utility.yul\":11157:11163   */\n      dup3\n        /* \"#utility.yul\":11152:11155   */\n      dup3\n        /* \"#utility.yul\":11145:11164   */\n      mstore\n        /* \"#utility.yul\":11197:11201   */\n      0x20\n        /* \"#utility.yul\":11192:11195   */\n      dup3\n        /* \"#utility.yul\":11188:11202   */\n      add\n        /* \"#utility.yul\":11173:11202   */\n      swap1\n      pop\n        /* \"#utility.yul\":11039:11208   */\n      swap3\n      swap2\n      pop\n      pop\n      jump\t// out\n        /* \"#utility.yul\":11214:11378   */\n    tag_378:\n        /* \"#utility.yul\":11354:11370   */\n      0x4e6f7468696e67207374616b6564000000000000000000000000000000000000\n        /* \"#utility.yul\":11350:11351   */\n      0x00\n        /* \"#utility.yul\":11342:11348   */\n      dup3\n        /* \"#utility.yul\":11338:11352   */\n      add\n        /* \"#utility.yul\":11331:11371   */\n      mstore\n        /* \"#utility.yul\":11214:11378   */\n      pop\n      jump\t// out\n        /* \"#utility.yul\":11384:11750   */\n    tag_379:\n        /* \"#utility.yul\":11526:11529   */\n      0x00\n        /* \"#utility.yul\":11547:11614   */\n      tag_518\n        /* \"#utility.yul\":11611:11613   */\n      0x0e\n        /* \"#utility.yul\":11606:11609   */\n      dup4\n        /* \"#utility.yul\":11547:11614   */\n      tag_377\n      jump\t// in\n    tag_518:\n        /* \"#utility.yul\":11540:11614   */\n      swap2\n      pop\n        /* \"#utility.yul\":11623:11716   */\n      tag_519\n        /* \"#utility.yul\":11712:11715   */\n      dup3\n        /* \"#utility.yul\":11623:11716   */\n      tag_378\n      jump\t// in\n    tag_519:\n        /* \"#utility.yul\":11741:11743   */\n      0x20\n        /* \"#utility.yul\":11736:11739   */\n      dup3\n        /* \"#utility.yul\":11732:11744   */\n      add\n        /* \"#utility.yul\":11725:11744   */\n      swap1\n      pop\n        /* \"#utility.yul\":11384:11750   */\n      swap2\n      swap1\n      pop\n      jump\t// out\n        /* \"#utility.yul\":11756:12175   */\n    tag_141:\n        /* \"#utility.yul\":11922:11926   */\n      0x00\n        /* \"#utility.yul\":11960:11962   */\n      0x20\n        /* \"#utility.yul\":11949:11958   */\n      dup3\n        /* \"#utility.yul\":11945:11963   */\n      add\n        /* \"#utility.yul\":11937:11963   */\n      swap1\n      pop\n        /* \"#utility.yul\":12009:12018   */\n      dup2\n        /* \"#utility.yul\":12003:12007   */\n      dup2\n        /* \"#utility.yul\":11999:12019   */\n      sub\n        /* \"#utility.yul\":11995:11996   */\n      0x00\n        /* \"#utility.yul\":11984:11993   */\n      dup4\n        /* \"#utility.yul\":11980:11997   */\n      add\n        /* \"#utility.yul\":11973:12020   */\n      mstore\n        /* \"#utility.yul\":12037:12168   */\n      tag_521\n        /* \"#utility.yul\":12163:12167   */\n      dup2\n        /* \"#utility.yul\":12037:12168   */\n      tag_379\n      jump\t// in\n    tag_521:\n        /* \"#utility.yul\":12029:12168   */\n      swap1\n      pop\n        /* \"#utility.yul\":11756:12175   */\n      swap2\n      swap1\n      pop\n      jump\t// out\n        /* \"#utility.yul\":12181:12361   */\n    tag_380:\n        /* \"#utility.yul\":12229:12306   */\n      0x4e487b7100000000000000000000000000000000000000000000000000000000\n        /* \"#utility.yul\":12226:12227   */\n      0x00\n        /* \"#utility.yul\":12219:12307   */\n      mstore\n        /* \"#utility.yul\":12326:12330   */\n      0x11\n        /* \"#utility.yul\":12323:12324   */\n      0x04\n        /* \"#utility.yul\":12316:12331   */\n      mstore\n        /* \"#utility.yul\":12350:12354   */\n      0x24\n        /* \"#utility.yul\":12347:12348   */\n      0x00\n        /* \"#utility.yul\":12340:12355   */\n      revert\n        /* \"#utility.yul\":12367:12561   */\n    tag_143:\n        /* \"#utility.yul\":12407:12411   */\n      0x00\n        /* \"#utility.yul\":12427:12447   */\n      tag_524\n        /* \"#utility.yul\":12445:12446   */\n      dup3\n        /* \"#utility.yul\":12427:12447   */\n      tag_345\n      jump\t// in\n    tag_524:\n        /* \"#utility.yul\":12422:12447   */\n      swap2\n      pop\n        /* \"#utility.yul\":12461:12481   */\n      tag_525\n        /* \"#utility.yul\":12479:12480   */\n      dup4\n        /* \"#utility.yul\":12461:12481   */\n      tag_345\n      jump\t// in\n    tag_525:\n        /* \"#utility.yul\":12456:12481   */\n      swap3\n      pop\n        /* \"#utility.yul\":12505:12506   */\n      dup3\n        /* \"#utility.yul\":12502:12503   */\n      dup3\n        /* \"#utility.yul\":12498:12507   */\n      sub\n        /* \"#utility.yul\":12490:12507   */\n      swap1\n      pop\n        /* \"#utility.yul\":12529:12530   */\n      dup2\n        /* \"#utility.yul\":12523:12527   */\n      dup2\n        /* \"#utility.yul\":12520:12531   */\n      gt\n        /* \"#utility.yul\":12517:12554   */\n      iszero\n      tag_526\n      jumpi\n        /* \"#utility.yul\":12534:12552   */\n      tag_527\n      tag_380\n      jump\t// in\n    tag_527:\n        /* \"#utility.yul\":12517:12554   */\n    tag_526:\n        /* \"#utility.yul\":12367:12561   */\n      swap3\n      swap2\n      pop\n      pop\n      jump\t// out\n        /* \"#utility.yul\":12567:12747   */\n    tag_146:\n        /* \"#utility.yul\":12615:12692   */\n      0x4e487b7100000000000000000000000000000000000000000000000000000000\n        /* \"#utility.yul\":12612:12613   */\n      0x00\n        /* \"#utility.yul\":12605:12693   */\n      mstore\n        /* \"#utility.yul\":12712:12716   */\n      0x32\n        /* \"#utility.yul\":12709:12710   */\n      0x04\n        /* \"#utility.yul\":12702:12717   */\n      mstore\n        /* \"#utility.yul\":12736:12740   */\n      0x24\n        /* \"#utility.yul\":12733:12734   */\n      0x00\n        /* \"#utility.yul\":12726:12741   */\n      revert\n        /* \"#utility.yul\":12753:12931   */\n    tag_381:\n        /* \"#utility.yul\":12893:12923   */\n      0x596f752063616e6e6f7420756e7374616b65642074686973206e6f7700000000\n        /* \"#utility.yul\":12889:12890   */\n      0x00\n        /* \"#utility.yul\":12881:12887   */\n      dup3\n        /* \"#utility.yul\":12877:12891   */\n      add\n        /* \"#utility.yul\":12870:12924   */\n      mstore\n        /* \"#utility.yul\":12753:12931   */\n      pop\n      jump\t// out\n        /* \"#utility.yul\":12937:13303   */\n    tag_382:\n        /* \"#utility.yul\":13079:13082   */\n      0x00\n        /* \"#utility.yul\":13100:13167   */\n      tag_531\n        /* \"#utility.yul\":13164:13166   */\n      0x1c\n        /* \"#utility.yul\":13159:13162   */\n      dup4\n        /* \"#utility.yul\":13100:13167   */\n      tag_377\n      jump\t// in\n    tag_531:\n        /* \"#utility.yul\":13093:13167   */\n      swap2\n      pop\n        /* \"#utility.yul\":13176:13269   */\n      tag_532\n        /* \"#utility.yul\":13265:13268   */\n      dup3\n        /* \"#utility.yul\":13176:13269   */\n      tag_381\n      jump\t// in\n    tag_532:\n        /* \"#utility.yul\":13294:13296   */\n      0x20\n        /* \"#utility.yul\":13289:13292   */\n      dup3\n        /* \"#utility.yul\":13285:13297   */\n      add\n        /* \"#utility.yul\":13278:13297   */\n      swap1\n      pop\n        /* \"#utility.yul\":12937:13303   */\n      swap2\n      swap1\n      pop\n      jump\t// out\n        /* \"#utility.yul\":13309:13728   */\n    tag_151:\n        /* \"#utility.yul\":13475:13479   */\n      0x00\n        /* \"#utility.yul\":13513:13515   */\n      0x20\n        /* \"#utility.yul\":13502:13511   */\n      dup3\n        /* \"#utility.yul\":13498:13516   */\n      add\n        /* \"#utility.yul\":13490:13516   */\n      swap1\n      pop\n        /* \"#utility.yul\":13562:13571   */\n      dup2\n        /* \"#utility.yul\":13556:13560   */\n      dup2\n        /* \"#utility.yul\":13552:13572   */\n      sub\n        /* \"#utility.yul\":13548:13549   */\n      0x00\n        /* \"#utility.yul\":13537:13546   */\n      dup4\n        /* \"#utility.yul\":13533:13550   */\n      add\n        /* \"#utility.yul\":13526:13573   */\n      mstore\n        /* \"#utility.yul\":13590:13721   */\n      tag_534\n        /* \"#utility.yul\":13716:13720   */\n      dup2\n        /* \"#utility.yul\":13590:13721   */\n      tag_382\n      jump\t// in\n    tag_534:\n        /* \"#utility.yul\":13582:13721   */\n      swap1\n      pop\n        /* \"#utility.yul\":13309:13728   */\n      swap2\n      swap1\n      pop\n      jump\t// out\n        /* \"#utility.yul\":13734:13903   */\n    tag_383:\n        /* \"#utility.yul\":13874:13895   */\n      0x5374616b6520697320696e206c6f636b2d757000000000000000000000000000\n        /* \"#utility.yul\":13870:13871   */\n      0x00\n        /* \"#utility.yul\":13862:13868   */\n      dup3\n        /* \"#utility.yul\":13858:13872   */\n      add\n        /* \"#utility.yul\":13851:13896   */\n      mstore\n        /* \"#utility.yul\":13734:13903   */\n      pop\n      jump\t// out\n        /* \"#utility.yul\":13909:14275   */\n    tag_384:\n        /* \"#utility.yul\":14051:14054   */\n      0x00\n        /* \"#utility.yul\":14072:14139   */\n      tag_537\n        /* \"#utility.yul\":14136:14138   */\n      0x13\n        /* \"#utility.yul\":14131:14134   */\n      dup4\n        /* \"#utility.yul\":14072:14139   */\n      tag_377\n      jump\t// in\n    tag_537:\n        /* \"#utility.yul\":14065:14139   */\n      swap2\n      pop\n        /* \"#utility.yul\":14148:14241   */\n      tag_538\n        /* \"#utility.yul\":14237:14240   */\n      dup3\n        /* \"#utility.yul\":14148:14241   */\n      tag_383\n      jump\t// in\n    tag_538:\n        /* \"#utility.yul\":14266:14268   */\n      0x20\n        /* \"#utility.yul\":14261:14264   */\n      dup3\n        /* \"#utility.yul\":14257:14269   */\n      add\n        /* \"#utility.yul\":14250:14269   */\n      swap1\n      pop\n        /* \"#utility.yul\":13909:14275   */\n      swap2\n      swap1\n      pop\n      jump\t// out\n        /* \"#utility.yul\":14281:14700   */\n    tag_162:\n        /* \"#utility.yul\":14447:14451   */\n      0x00\n        /* \"#utility.yul\":14485:14487   */\n      0x20\n        /* \"#utility.yul\":14474:14483   */\n      dup3\n        /* \"#utility.yul\":14470:14488   */\n      add\n        /* \"#utility.yul\":14462:14488   */\n      swap1\n      pop\n        /* \"#utility.yul\":14534:14543   */\n      dup2\n        /* \"#utility.yul\":14528:14532   */\n      dup2\n        /* \"#utility.yul\":14524:14544   */\n      sub\n        /* \"#utility.yul\":14520:14521   */\n      0x00\n        /* \"#utility.yul\":14509:14518   */\n      dup4\n        /* \"#utility.yul\":14505:14522   */\n      add\n        /* \"#utility.yul\":14498:14545   */\n      mstore\n        /* \"#utility.yul\":14562:14693   */\n      tag_540\n        /* \"#utility.yul\":14688:14692   */\n      dup2\n        /* \"#utility.yul\":14562:14693   */\n      tag_384\n      jump\t// in\n    tag_540:\n        /* \"#utility.yul\":14554:14693   */\n      swap1\n      pop\n        /* \"#utility.yul\":14281:14700   */\n      swap2\n      swap1\n      pop\n      jump\t// out\n        /* \"#utility.yul\":14706:14870   */\n    tag_385:\n        /* \"#utility.yul\":14846:14862   */\n      0x5374616b696e6720706175736564000000000000000000000000000000000000\n        /* \"#utility.yul\":14842:14843   */\n      0x00\n        /* \"#utility.yul\":14834:14840   */\n      dup3\n        /* \"#utility.yul\":14830:14844   */\n      add\n        /* \"#utility.yul\":14823:14863   */\n      mstore\n        /* \"#utility.yul\":14706:14870   */\n      pop\n      jump\t// out\n        /* \"#utility.yul\":14876:15242   */\n    tag_386:\n        /* \"#utility.yul\":15018:15021   */\n      0x00\n        /* \"#utility.yul\":15039:15106   */\n      tag_543\n        /* \"#utility.yul\":15103:15105   */\n      0x0e\n        /* \"#utility.yul\":15098:15101   */\n      dup4\n        /* \"#utility.yul\":15039:15106   */\n      tag_377\n      jump\t// in\n    tag_543:\n        /* \"#utility.yul\":15032:15106   */\n      swap2\n      pop\n        /* \"#utility.yul\":15115:15208   */\n      tag_544\n        /* \"#utility.yul\":15204:15207   */\n      dup3\n        /* \"#utility.yul\":15115:15208   */\n      tag_385\n      jump\t// in\n    tag_544:\n        /* \"#utility.yul\":15233:15235   */\n      0x20\n        /* \"#utility.yul\":15228:15231   */\n      dup3\n        /* \"#utility.yul\":15224:15236   */\n      add\n        /* \"#utility.yul\":15217:15236   */\n      swap1\n      pop\n        /* \"#utility.yul\":14876:15242   */\n      swap2\n      swap1\n      pop\n      jump\t// out\n        /* \"#utility.yul\":15248:15667   */\n    tag_183:\n        /* \"#utility.yul\":15414:15418   */\n      0x00\n        /* \"#utility.yul\":15452:15454   */\n      0x20\n        /* \"#utility.yul\":15441:15450   */\n      dup3\n        /* \"#utility.yul\":15437:15455   */\n      add\n        /* \"#utility.yul\":15429:15455   */\n      swap1\n      pop\n        /* \"#utility.yul\":15501:15510   */\n      dup2\n        /* \"#utility.yul\":15495:15499   */\n      dup2\n        /* \"#utility.yul\":15491:15511   */\n      sub\n        /* \"#utility.yul\":15487:15488   */\n      0x00\n        /* \"#utility.yul\":15476:15485   */\n      dup4\n        /* \"#utility.yul\":15472:15489   */\n      add\n        /* \"#utility.yul\":15465:15512   */\n      mstore\n        /* \"#utility.yul\":15529:15660   */\n      tag_546\n        /* \"#utility.yul\":15655:15659   */\n      dup2\n        /* \"#utility.yul\":15529:15660   */\n      tag_386\n      jump\t// in\n    tag_546:\n        /* \"#utility.yul\":15521:15660   */\n      swap1\n      pop\n        /* \"#utility.yul\":15248:15667   */\n      swap2\n      swap1\n      pop\n      jump\t// out\n        /* \"#utility.yul\":15673:15906   */\n    tag_213:\n        /* \"#utility.yul\":15712:15715   */\n      0x00\n        /* \"#utility.yul\":15735:15759   */\n      tag_548\n        /* \"#utility.yul\":15753:15758   */\n      dup3\n        /* \"#utility.yul\":15735:15759   */\n      tag_345\n      jump\t// in\n    tag_548:\n        /* \"#utility.yul\":15726:15759   */\n      swap2\n      pop\n        /* \"#utility.yul\":15781:15847   */\n      0xffffffffffffffffffffffffffffffffffffffffffffffffffffffffffffffff\n        /* \"#utility.yul\":15774:15779   */\n      dup3\n        /* \"#utility.yul\":15771:15848   */\n      sub\n        /* \"#utility.yul\":15768:15871   */\n      tag_549\n      jumpi\n        /* \"#utility.yul\":15851:15869   */\n      tag_550\n      tag_380\n      jump\t// in\n    tag_550:\n        /* \"#utility.yul\":15768:15871   */\n    tag_549:\n        /* \"#utility.yul\":15898:15899   */\n      0x01\n        /* \"#utility.yul\":15891:15896   */\n      dup3\n        /* \"#utility.yul\":15887:15900   */\n      add\n        /* \"#utility.yul\":15880:15900   */\n      swap1\n      pop\n        /* \"#utility.yul\":15673:15906   */\n      swap2\n      swap1\n      pop\n      jump\t// out\n        /* \"#utility.yul\":15912:16083   */\n    tag_257:\n        /* \"#utility.yul\":15951:15954   */\n      0x00\n        /* \"#utility.yul\":15974:15998   */\n      tag_552\n        /* \"#utility.yul\":15992:15997   */\n      dup3\n        /* \"#utility.yul\":15974:15998   */\n      tag_345\n      jump\t// in\n    tag_552:\n        /* \"#utility.yul\":15965:15998   */\n      swap2\n      pop\n        /* \"#utility.yul\":16020:16024   */\n      0x00\n        /* \"#utility.yul\":16013:16018   */\n      dup3\n        /* \"#utility.yul\":16010:16025   */\n      sub\n        /* \"#utility.yul\":16007:16048   */\n      tag_553\n      jumpi\n        /* \"#utility.yul\":16028:16046   */\n      tag_554\n      tag_380\n      jump\t// in\n    tag_554:\n        /* \"#utility.yul\":16007:16048   */\n    tag_553:\n        /* \"#utility.yul\":16075:16076   */\n      0x01\n        /* \"#utility.yul\":16068:16073   */\n      dup3\n        /* \"#utility.yul\":16064:16077   */\n      sub\n        /* \"#utility.yul\":16057:16077   */\n      swap1\n      pop\n        /* \"#utility.yul\":15912:16083   */\n      swap2\n      swap1\n      pop\n      jump\t// out\n        /* \"#utility.yul\":16089:16260   */\n    tag_387:\n        /* \"#utility.yul\":16229:16252   */\n      0x416c6c207374616b657320696e206c6f636b2d75700000000000000000000000\n        /* \"#utility.yul\":16225:16226   */\n      0x00\n        /* \"#utility.yul\":16217:16223   */\n      dup3\n        /* \"#utility.yul\":16213:16227   */\n      add\n        /* \"#utility.yul\":16206:16253   */\n      mstore\n        /* \"#utility.yul\":16089:16260   */\n      pop\n      jump\t// out\n        /* \"#utility.yul\":16266:16632   */\n    tag_388:\n        /* \"#utility.yul\":16408:16411   */\n      0x00\n        /* \"#utility.yul\":16429:16496   */\n      tag_557\n        /* \"#utility.yul\":16493:16495   */\n      0x15\n        /* \"#utility.yul\":16488:16491   */\n      dup4\n        /* \"#utility.yul\":16429:16496   */\n      tag_377\n      jump\t// in\n    tag_557:\n        /* \"#utility.yul\":16422:16496   */\n      swap2\n      pop\n        /* \"#utility.yul\":16505:16598   */\n      tag_558\n        /* \"#utility.yul\":16594:16597   */\n      dup3\n        /* \"#utility.yul\":16505:16598   */\n      tag_387\n      jump\t// in\n    tag_558:\n        /* \"#utility.yul\":16623:16625   */\n      0x20\n        /* \"#utility.yul\":16618:16621   */\n      dup3\n        /* \"#utility.yul\":16614:16626   */\n      add\n        /* \"#utility.yul\":16607:16626   */\n      swap1\n      pop\n        /* \"#utility.yul\":16266:16632   */\n      swap2\n      swap1\n      pop\n      jump\t// out\n        /* \"#utility.yul\":16638:17057   */\n    tag_260:\n        /* \"#utility.yul\":16804:16808   */\n      0x00\n        /* \"#utility.yul\":16842:16844   */\n      0x20\n        /* \"#utility.yul\":16831:16840   */\n      dup3\n        /* \"#utility.yul\":16827:16845   */\n      add\n        /* \"#utility.yul\":16819:16845   */\n      swap1\n      pop\n        /* \"#utility.yul\":16891:16900   */\n      dup2\n        /* \"#utility.yul\":16885:16889   */\n      dup2\n        /* \"#utility.yul\":16881:16901   */\n      sub\n        /* \"#utility.yul\":16877:16878   */\n      0x00\n        /* \"#utility.yul\":16866:16875   */\n      dup4\n        /* \"#utility.yul\":16862:16879   */\n      add\n        /* \"#utility.yul\":16855:16902   */\n      mstore\n        /* \"#utility.yul\":16919:17050   */\n      tag_560\n        /* \"#utility.yul\":17045:17049   */\n      dup2\n        /* \"#utility.yul\":16919:17050   */\n      tag_388\n      jump\t// in\n    tag_560:\n        /* \"#utility.yul\":16911:17050   */\n      swap1\n      pop\n        /* \"#utility.yul\":16638:17057   */\n      swap2\n      swap1\n      pop\n      jump\t// out\n        /* \"#utility.yul\":17063:17288   */\n    tag_389:\n        /* \"#utility.yul\":17203:17237   */\n      0x4f776e61626c653a206e6577206f776e657220697320746865207a65726f2061\n        /* \"#utility.yul\":17199:17200   */\n      0x00\n        /* \"#utility.yul\":17191:17197   */\n      dup3\n        /* \"#utility.yul\":17187:17201   */\n      add\n        /* \"#utility.yul\":17180:17238   */\n      mstore\n        /* \"#utility.yul\":17272:17280   */\n      0x6464726573730000000000000000000000000000000000000000000000000000\n        /* \"#utility.yul\":17267:17269   */\n      0x20\n        /* \"#utility.yul\":17259:17265   */\n      dup3\n        /* \"#utility.yul\":17255:17270   */\n      add\n        /* \"#utility.yul\":17248:17281   */\n      mstore\n        /* \"#utility.yul\":17063:17288   */\n      pop\n      jump\t// out\n        /* \"#utility.yul\":17294:17660   */\n    tag_390:\n        /* \"#utility.yul\":17436:17439   */\n      0x00\n        /* \"#utility.yul\":17457:17524   */\n      tag_563\n        /* \"#utility.yul\":17521:17523   */\n      0x26\n        /* \"#utility.yul\":17516:17519   */\n      dup4\n        /* \"#utility.yul\":17457:17524   */\n      tag_377\n      jump\t// in\n    tag_563:\n        /* \"#utility.yul\":17450:17524   */\n      swap2\n      pop\n        /* \"#utility.yul\":17533:17626   */\n      tag_564\n        /* \"#utility.yul\":17622:17625   */\n      dup3\n        /* \"#utility.yul\":17533:17626   */\n      tag_389\n      jump\t// in\n    tag_564:\n        /* \"#utility.yul\":17651:17653   */\n      0x40\n        /* \"#utility.yul\":17646:17649   */\n      dup3\n        /* \"#utility.yul\":17642:17654   */\n      add\n        /* \"#utility.yul\":17635:17654   */\n      swap1\n      pop\n        /* \"#utility.yul\":17294:17660   */\n      swap2\n      swap1\n      pop\n      jump\t// out\n        /* \"#utility.yul\":17666:18085   */\n    tag_268:\n        /* \"#utility.yul\":17832:17836   */\n      0x00\n        /* \"#utility.yul\":17870:17872   */\n      0x20\n        /* \"#utility.yul\":17859:17868   */\n      dup3\n        /* \"#utility.yul\":17855:17873   */\n      add\n        /* \"#utility.yul\":17847:17873   */\n      swap1\n      pop\n        /* \"#utility.yul\":17919:17928   */\n      dup2\n        /* \"#utility.yul\":17913:17917   */\n      dup2\n        /* \"#utility.yul\":17909:17929   */\n      sub\n        /* \"#utility.yul\":17905:17906   */\n      0x00\n        /* \"#utility.yul\":17894:17903   */\n      dup4\n        /* \"#utility.yul\":17890:17907   */\n      add\n        /* \"#utility.yul\":17883:17930   */\n      mstore\n        /* \"#utility.yul\":17947:18078   */\n      tag_566\n        /* \"#utility.yul\":18073:18077   */\n      dup2\n        /* \"#utility.yul\":17947:18078   */\n      tag_390\n      jump\t// in\n    tag_566:\n        /* \"#utility.yul\":17939:18078   */\n      swap1\n      pop\n        /* \"#utility.yul\":17666:18085   */\n      swap2\n      swap1\n      pop\n      jump\t// out\n        /* \"#utility.yul\":18091:18273   */\n    tag_391:\n        /* \"#utility.yul\":18231:18265   */\n      0x4f776e61626c653a2063616c6c6572206973206e6f7420746865206f776e6572\n        /* \"#utility.yul\":18227:18228   */\n      0x00\n        /* \"#utility.yul\":18219:18225   */\n      dup3\n        /* \"#utility.yul\":18215:18229   */\n      add\n        /* \"#utility.yul\":18208:18266   */\n      mstore\n        /* \"#utility.yul\":18091:18273   */\n      pop\n      jump\t// out\n        /* \"#utility.yul\":18279:18645   */\n    tag_392:\n        /* \"#utility.yul\":18421:18424   */\n      0x00\n        /* \"#utility.yul\":18442:18509   */\n      tag_569\n        /* \"#utility.yul\":18506:18508   */\n      0x20\n        /* \"#utility.yul\":18501:18504   */\n      dup4\n        /* \"#utility.yul\":18442:18509   */\n      tag_377\n      jump\t// in\n    tag_569:\n        /* \"#utility.yul\":18435:18509   */\n      swap2\n      pop\n        /* \"#utility.yul\":18518:18611   */\n      tag_570\n        /* \"#utility.yul\":18607:18610   */\n      dup3\n        /* \"#utility.yul\":18518:18611   */\n      tag_391\n      jump\t// in\n    tag_570:\n        /* \"#utility.yul\":18636:18638   */\n      0x20\n        /* \"#utility.yul\":18631:18634   */\n      dup3\n        /* \"#utility.yul\":18627:18639   */\n      add\n        /* \"#utility.yul\":18620:18639   */\n      swap1\n      pop\n        /* \"#utility.yul\":18279:18645   */\n      swap2\n      swap1\n      pop\n      jump\t// out\n        /* \"#utility.yul\":18651:19070   */\n    tag_276:\n        /* \"#utility.yul\":18817:18821   */\n      0x00\n        /* \"#utility.yul\":18855:18857   */\n      0x20\n        /* \"#utility.yul\":18844:18853   */\n      dup3\n        /* \"#utility.yul\":18840:18858   */\n      add\n        /* \"#utility.yul\":18832:18858   */\n      swap1\n      pop\n        /* \"#utility.yul\":18904:18913   */\n      dup2\n        /* \"#utility.yul\":18898:18902   */\n      dup2\n        /* \"#utility.yul\":18894:18914   */\n      sub\n        /* \"#utility.yul\":18890:18891   */\n      0x00\n        /* \"#utility.yul\":18879:18888   */\n      dup4\n        /* \"#utility.yul\":18875:18892   */\n      add\n        /* \"#utility.yul\":18868:18915   */\n      mstore\n        /* \"#utility.yul\":18932:19063   */\n      tag_572\n        /* \"#utility.yul\":19058:19062   */\n      dup2\n        /* \"#utility.yul\":18932:19063   */\n      tag_392\n      jump\t// in\n    tag_572:\n        /* \"#utility.yul\":18924:19063   */\n      swap1\n      pop\n        /* \"#utility.yul\":18651:19070   */\n      swap2\n      swap1\n      pop\n      jump\t// out\n        /* \"#utility.yul\":19076:19267   */\n    tag_284:\n        /* \"#utility.yul\":19116:19119   */\n      0x00\n        /* \"#utility.yul\":19135:19155   */\n      tag_574\n        /* \"#utility.yul\":19153:19154   */\n      dup3\n        /* \"#utility.yul\":19135:19155   */\n      tag_345\n      jump\t// in\n    tag_574:\n        /* \"#utility.yul\":19130:19155   */\n      swap2\n      pop\n        /* \"#utility.yul\":19169:19189   */\n      tag_575\n        /* \"#utility.yul\":19187:19188   */\n      dup4\n        /* \"#utility.yul\":19169:19189   */\n      tag_345\n      jump\t// in\n    tag_575:\n        /* \"#utility.yul\":19164:19189   */\n      swap3\n      pop\n        /* \"#utility.yul\":19212:19213   */\n      dup3\n        /* \"#utility.yul\":19209:19210   */\n      dup3\n        /* \"#utility.yul\":19205:19214   */\n      add\n        /* \"#utility.yul\":19198:19214   */\n      swap1\n      pop\n        /* \"#utility.yul\":19233:19236   */\n      dup1\n        /* \"#utility.yul\":19230:19231   */\n      dup3\n        /* \"#utility.yul\":19227:19237   */\n      gt\n        /* \"#utility.yul\":19224:19260   */\n      iszero\n      tag_576\n      jumpi\n        /* \"#utility.yul\":19240:19258   */\n      tag_577\n      tag_380\n      jump\t// in\n    tag_577:\n        /* \"#utility.yul\":19224:19260   */\n    tag_576:\n        /* \"#utility.yul\":19076:19267   */\n      swap3\n      swap2\n      pop\n      pop\n      jump\t// out\n        /* \"#utility.yul\":19273:19440   */\n    tag_393:\n        /* \"#utility.yul\":19413:19432   */\n      0x4d61782072617465206578636565646564000000000000000000000000000000\n        /* \"#utility.yul\":19409:19410   */\n      0x00\n        /* \"#utility.yul\":19401:19407   */\n      dup3\n        /* \"#utility.yul\":19397:19411   */\n      add\n        /* \"#utility.yul\":19390:19433   */\n      mstore\n        /* \"#utility.yul\":19273:19440   */\n      pop\n      jump\t// out\n        /* \"#utility.yul\":19446:19812   */\n    tag_394:\n        /* \"#utility.yul\":19588:19591   */\n      0x00\n        /* \"#utility.yul\":19609:19676   */\n      tag_580\n        /* \"#utility.yul\":19673:19675   */\n      0x11\n        /* \"#utility.yul\":19668:19671   */\n      dup4\n        /* \"#utility.yul\":19609:19676   */\n      tag_377\n      jump\t// in\n    tag_580:\n        /* \"#utility.yul\":19602:19676   */\n      swap2\n      pop\n        /* \"#utility.yul\":19685:19778   */\n      tag_581\n        /* \"#utility.yul\":19774:19777   */\n      dup3\n        /* \"#utility.yul\":19685:19778   */\n      tag_393\n      jump\t// in\n    tag_581:\n        /* \"#utility.yul\":19803:19805   */\n      0x20\n        /* \"#utility.yul\":19798:19801   */\n      dup3\n        /* \"#utility.yul\":19794:19806   */\n      add\n        /* \"#utility.yul\":19787:19806   */\n      swap1\n      pop\n        /* \"#utility.yul\":19446:19812   */\n      swap2\n      swap1\n      pop\n      jump\t// out\n        /* \"#utility.yul\":19818:20237   */\n    tag_290:\n        /* \"#utility.yul\":19984:19988   */\n      0x00\n        /* \"#utility.yul\":20022:20024   */\n      0x20\n        /* \"#utility.yul\":20011:20020   */\n      dup3\n        /* \"#utility.yul\":20007:20025   */\n      add\n        /* \"#utility.yul\":19999:20025   */\n      swap1\n      pop\n        /* \"#utility.yul\":20071:20080   */\n      dup2\n        /* \"#utility.yul\":20065:20069   */\n      dup2\n        /* \"#utility.yul\":20061:20081   */\n      sub\n        /* \"#utility.yul\":20057:20058   */\n      0x00\n        /* \"#utility.yul\":20046:20055   */\n      dup4\n        /* \"#utility.yul\":20042:20059   */\n      add\n        /* \"#utility.yul\":20035:20082   */\n      mstore\n        /* \"#utility.yul\":20099:20230   */\n      tag_583\n        /* \"#utility.yul\":20225:20229   */\n      dup2\n        /* \"#utility.yul\":20099:20230   */\n      tag_394\n      jump\t// in\n    tag_583:\n        /* \"#utility.yul\":20091:20230   */\n      swap1\n      pop\n        /* \"#utility.yul\":19818:20237   */\n      swap2\n      swap1\n      pop\n      jump\t// out\n        /* \"#utility.yul\":20243:20407   */\n    tag_395:\n        /* \"#utility.yul\":20383:20399   */\n      0x43616e6e6f74207374616b652030000000000000000000000000000000000000\n        /* \"#utility.yul\":20379:20380   */\n      0x00\n        /* \"#utility.yul\":20371:20377   */\n      dup3\n        /* \"#utility.yul\":20367:20381   */\n      add\n        /* \"#utility.yul\":20360:20400   */\n      mstore\n        /* \"#utility.yul\":20243:20407   */\n      pop\n      jump\t// out\n        /* \"#utility.yul\":20413:20779   */\n    tag_396:\n        /* \"#utility.yul\":20555:20558   */\n      0x00\n        /* \"#utility.yul\":20576:20643   */\n      tag_586\n        /* \"#utility.yul\":20640:20642   */\n      0x0e\n        /* \"#utility.yul\":20635:20638   */\n      dup4\n        /* \"#utility.yul\":20576:20643   */\n      tag_377\n      jump\t// in\n    tag_586:\n        /* \"#utility.yul\":20569:20643   */\n      swap2\n      pop\n        /* \"#utility.yul\":20652:20745   */\n      tag_587\n        /* \"#utility.yul\":20741:20744   */\n      dup3\n        /* \"#utility.yul\":20652:20745   */\n      tag_395\n      jump\t// in\n    tag_587:\n        /* \"#utility.yul\":20770:20772   */\n      0x20\n        /* \"#utility.yul\":20765:20768   */\n      dup3\n        /* \"#utility.yul\":20761:20773   */\n      add\n        /* \"#utility.yul\":20754:20773   */\n      swap1\n      pop\n        /* \"#utility.yul\":20413:20779   */\n      swap2\n      swap1\n      pop\n      jump\t// out\n        /* \"#utility.yul\":20785:21204   */\n    tag_299:\n        /* \"#utility.yul\":20951:20955   */\n      0x00\n        /* \"#utility.yul\":20989:20991   */\n      0x20\n        /* \"#utility.yul\":20978:20987   */\n      dup3\n        /* \"#utility.yul\":20974:20992   */\n      add\n        /* \"#utility.yul\":20966:20992   */\n      swap1\n      pop\n        /* \"#utility.yul\":21038:21047   */\n      dup2\n        /* \"#utility.yul\":21032:21036   */\n      dup2\n        /* \"#utility.yul\":21028:21048   */\n      sub\n        /* \"#utility.yul\":21024:21025   */\n      0x00\n        /* \"#utility.yul\":21013:21022   */\n      dup4\n        /* \"#utility.yul\":21009:21026   */\n      add\n        /* \"#utility.yul\":21002:21049   */\n      mstore\n        /* \"#utility.yul\":21066:21197   */\n      tag_589\n        /* \"#utility.yul\":21192:21196   */\n      dup2\n        /* \"#utility.yul\":21066:21197   */\n      tag_396\n      jump\t// in\n    tag_589:\n        /* \"#utility.yul\":21058:21197   */\n      swap1\n      pop\n        /* \"#utility.yul\":20785:21204   */\n      swap2\n      swap1\n      pop\n      jump\t// out\n        /* \"#utility.yul\":21210:21376   */\n    tag_397:\n        /* \"#utility.yul\":21350:21368   */\n      0x496e76616c6964206475726174696f6e00000000000000000000000000000000\n        /* \"#utility.yul\":21346:21347   */\n      0x00\n        /* \"#utility.yul\":21338:21344   */\n      dup3\n        /* \"#utility.yul\":21334:21348   */\n      add\n        /* \"#utility.yul\":21327:21369   */\n      mstore\n        /* \"#utility.yul\":21210:21376   */\n      pop\n      jump\t// out\n        /* \"#utility.yul\":21382:21748   */\n    tag_398:\n        /* \"#utility.yul\":21524:21527   */\n      0x00\n        /* \"#utility.yul\":21545:21612   */\n      tag_592\n        /* \"#utility.yul\":21609:21611   */\n      0x10\n        /* \"#utility.yul\":21604:21607   */\n      dup4\n        /* \"#utility.yul\":21545:21612   */\n      tag_377\n      jump\t// in\n    tag_592:\n        /* \"#utility.yul\":21538:21612   */\n      swap2\n      pop\n        /* \"#utility.yul\":21621:21714   */\n      tag_593\n        /* \"#utility.yul\":21710:21713   */\n      dup3\n        /* \"#utility.yul\":21621:21714   */\n      tag_397\n      jump\t// in\n    tag_593:\n        /* \"#utility.yul\":21739:21741   */\n      0x20\n        /* \"#utility.yul\":21734:21737   */\n      dup3\n        /* \"#utility.yul\":21730:21742   */\n      add\n        /* \"#utility.yul\":21723:21742   */\n      swap1\n      pop\n        /* \"#utility.yul\":21382:21748   */\n      swap2\n      swap1\n      pop\n      jump\t// out\n        /* \"#utility.yul\":21754:22173   */\n    tag_303:\n        /* \"#utility.yul\":21920:21924   */\n      0x00\n        /* \"#utility.yul\":21958:21960   */\n      0x20\n        /* \"#utility.yul\":21947:21956   */\n      dup3\n        /* \"#utility.yul\":21943:21961   */\n      add\n        /* \"#utility.yul\":21935:21961   */\n      swap1\n      pop\n        /* \"#utility.yul\":22007:22016   */\n      dup2\n        /* \"#utility.yul\":22001:22005   */\n      dup2\n        /* \"#utility.yul\":21997:22017   */\n      sub\n        /* \"#utility.yul\":21993:21994   */\n      0x00\n        /* \"#utility.yul\":21982:21991   */\n      dup4\n        /* \"#utility.yul\":21978:21995   */\n      add\n        /* \"#utility.yul\":21971:22018   */\n      mstore\n        /* \"#utility.yul\":22035:22166   */\n      tag_595\n        /* \"#utility.yul\":22161:22165   */\n      dup2\n        /* \"#utility.yul\":22035:22166   */\n      tag_398\n      jump\t// in\n    tag_595:\n        /* \"#utility.yul\":22027:22166   */\n      swap1\n      pop\n        /* \"#utility.yul\":21754:22173   */\n      swap2\n      swap1\n      pop\n      jump\t// out\n        /* \"#utility.yul\":22179:22347   */\n    tag_399:\n        /* \"#utility.yul\":22319:22339   */\n      0x7075742076616c6964206475726174696f6e0000000000000000000000000000\n        /* \"#utility.yul\":22315:22316   */\n      0x00\n        /* \"#utility.yul\":22307:22313   */\n      dup3\n        /* \"#utility.yul\":22303:22317   */\n      add\n        /* \"#utility.yul\":22296:22340   */\n      mstore\n        /* \"#utility.yul\":22179:22347   */\n      pop\n      jump\t// out\n        /* \"#utility.yul\":22353:22719   */\n    tag_400:\n        /* \"#utility.yul\":22495:22498   */\n      0x00\n        /* \"#utility.yul\":22516:22583   */\n      tag_598\n        /* \"#utility.yul\":22580:22582   */\n      0x12\n        /* \"#utility.yul\":22575:22578   */\n      dup4\n        /* \"#utility.yul\":22516:22583   */\n      tag_377\n      jump\t// in\n    tag_598:\n        /* \"#utility.yul\":22509:22583   */\n      swap2\n      pop\n        /* \"#utility.yul\":22592:22685   */\n      tag_599\n        /* \"#utility.yul\":22681:22684   */\n      dup3\n        /* \"#utility.yul\":22592:22685   */\n      tag_399\n      jump\t// in\n    tag_599:\n        /* \"#utility.yul\":22710:22712   */\n      0x20\n        /* \"#utility.yul\":22705:22708   */\n      dup3\n        /* \"#utility.yul\":22701:22713   */\n      add\n        /* \"#utility.yul\":22694:22713   */\n      swap1\n      pop\n        /* \"#utility.yul\":22353:22719   */\n      swap2\n      swap1\n      pop\n      jump\t// out\n        /* \"#utility.yul\":22725:23144   */\n    tag_312:\n        /* \"#utility.yul\":22891:22895   */\n      0x00\n        /* \"#utility.yul\":22929:22931   */\n      0x20\n        /* \"#utility.yul\":22918:22927   */\n      dup3\n        /* \"#utility.yul\":22914:22932   */\n      add\n        /* \"#utility.yul\":22906:22932   */\n      swap1\n      pop\n        /* \"#utility.yul\":22978:22987   */\n      dup2\n        /* \"#utility.yul\":22972:22976   */\n      dup2\n        /* \"#utility.yul\":22968:22988   */\n      sub\n        /* \"#utility.yul\":22964:22965   */\n      0x00\n        /* \"#utility.yul\":22953:22962   */\n      dup4\n        /* \"#utility.yul\":22949:22966   */\n      add\n        /* \"#utility.yul\":22942:22989   */\n      mstore\n        /* \"#utility.yul\":23006:23137   */\n      tag_601\n        /* \"#utility.yul\":23132:23136   */\n      dup2\n        /* \"#utility.yul\":23006:23137   */\n      tag_400\n      jump\t// in\n    tag_601:\n        /* \"#utility.yul\":22998:23137   */\n      swap1\n      pop\n        /* \"#utility.yul\":22725:23144   */\n      swap2\n      swap1\n      pop\n      jump\t// out\n        /* \"#utility.yul\":23150:23498   */\n    tag_318:\n        /* \"#utility.yul\":23190:23197   */\n      0x00\n        /* \"#utility.yul\":23213:23233   */\n      tag_603\n        /* \"#utility.yul\":23231:23232   */\n      dup3\n        /* \"#utility.yul\":23213:23233   */\n      tag_345\n      jump\t// in\n    tag_603:\n        /* \"#utility.yul\":23208:23233   */\n      swap2\n      pop\n        /* \"#utility.yul\":23247:23267   */\n      tag_604\n        /* \"#utility.yul\":23265:23266   */\n      dup4\n        /* \"#utility.yul\":23247:23267   */\n      tag_345\n      jump\t// in\n    tag_604:\n        /* \"#utility.yul\":23242:23267   */\n      swap3\n      pop\n        /* \"#utility.yul\":23435:23436   */\n      dup2\n        /* \"#utility.yul\":23367:23433   */\n      0xffffffffffffffffffffffffffffffffffffffffffffffffffffffffffffffff\n        /* \"#utility.yul\":23363:23437   */\n      div\n        /* \"#utility.yul\":23360:23361   */\n      dup4\n        /* \"#utility.yul\":23357:23438   */\n      gt\n        /* \"#utility.yul\":23352:23353   */\n      dup3\n        /* \"#utility.yul\":23345:23354   */\n      iszero\n        /* \"#utility.yul\":23338:23355   */\n      iszero\n        /* \"#utility.yul\":23334:23439   */\n      and\n        /* \"#utility.yul\":23331:23462   */\n      iszero\n      tag_605\n      jumpi\n        /* \"#utility.yul\":23442:23460   */\n      tag_606\n      tag_380\n      jump\t// in\n    tag_606:\n        /* \"#utility.yul\":23331:23462   */\n    tag_605:\n        /* \"#utility.yul\":23490:23491   */\n      dup3\n        /* \"#utility.yul\":23487:23488   */\n      dup3\n        /* \"#utility.yul\":23483:23492   */\n      mul\n        /* \"#utility.yul\":23472:23492   */\n      swap1\n      pop\n        /* \"#utility.yul\":23150:23498   */\n      swap3\n      swap2\n      pop\n      pop\n      jump\t// out\n        /* \"#utility.yul\":23504:23684   */\n    tag_401:\n        /* \"#utility.yul\":23552:23629   */\n      0x4e487b7100000000000000000000000000000000000000000000000000000000\n        /* \"#utility.yul\":23549:23550   */\n      0x00\n        /* \"#utility.yul\":23542:23630   */\n      mstore\n        /* \"#utility.yul\":23649:23653   */\n      0x12\n        /* \"#utility.yul\":23646:23647   */\n      0x04\n        /* \"#utility.yul\":23639:23654   */\n      mstore\n        /* \"#utility.yul\":23673:23677   */\n      0x24\n        /* \"#utility.yul\":23670:23671   */\n      0x00\n        /* \"#utility.yul\":23663:23678   */\n      revert\n        /* \"#utility.yul\":23690:23875   */\n    tag_321:\n        /* \"#utility.yul\":23730:23731   */\n      0x00\n        /* \"#utility.yul\":23747:23767   */\n      tag_609\n        /* \"#utility.yul\":23765:23766   */\n      dup3\n        /* \"#utility.yul\":23747:23767   */\n      tag_345\n      jump\t// in\n    tag_609:\n        /* \"#utility.yul\":23742:23767   */\n      swap2\n      pop\n        /* \"#utility.yul\":23781:23801   */\n      tag_610\n        /* \"#utility.yul\":23799:23800   */\n      dup4\n        /* \"#utility.yul\":23781:23801   */\n      tag_345\n      jump\t// in\n    tag_610:\n        /* \"#utility.yul\":23776:23801   */\n      swap3\n      pop\n        /* \"#utility.yul\":23820:23821   */\n      dup3\n        /* \"#utility.yul\":23810:23845   */\n      tag_611\n      jumpi\n        /* \"#utility.yul\":23825:23843   */\n      tag_612\n      tag_401\n      jump\t// in\n    tag_612:\n        /* \"#utility.yul\":23810:23845   */\n    tag_611:\n        /* \"#utility.yul\":23867:23868   */\n      dup3\n        /* \"#utility.yul\":23864:23865   */\n      dup3\n        /* \"#utility.yul\":23860:23869   */\n      div\n        /* \"#utility.yul\":23855:23869   */\n      swap1\n      pop\n        /* \"#utility.yul\":23690:23875   */\n      swap3\n      swap2\n      pop\n      pop\n      jump\t// out\n        /* \"#utility.yul\":23881:23941   */\n    tag_402:\n        /* \"#utility.yul\":23909:23912   */\n      0x00\n        /* \"#utility.yul\":23930:23935   */\n      dup2\n        /* \"#utility.yul\":23923:23935   */\n      swap1\n      pop\n        /* \"#utility.yul\":23881:23941   */\n      swap2\n      swap1\n      pop\n      jump\t// out\n        /* \"#utility.yul\":23947:24089   */\n    tag_403:\n        /* \"#utility.yul\":23997:24006   */\n      0x00\n        /* \"#utility.yul\":24030:24083   */\n      tag_615\n        /* \"#utility.yul\":24048:24082   */\n      tag_616\n        /* \"#utility.yul\":24057:24081   */\n      tag_617\n        /* \"#utility.yul\":24075:24080   */\n      dup5\n        /* \"#utility.yul\":24057:24081   */\n      tag_363\n      jump\t// in\n    tag_617:\n        /* \"#utility.yul\":24048:24082   */\n      tag_402\n      jump\t// in\n    tag_616:\n        /* \"#utility.yul\":24030:24083   */\n      tag_345\n      jump\t// in\n    tag_615:\n        /* \"#utility.yul\":24017:24083   */\n      swap1\n      pop\n        /* \"#utility.yul\":23947:24089   */\n      swap2\n      swap1\n      pop\n      jump\t// out\n        /* \"#utility.yul\":24095:24226   */\n    tag_404:\n        /* \"#utility.yul\":24182:24219   */\n      tag_619\n        /* \"#utility.yul\":24213:24218   */\n      dup2\n        /* \"#utility.yul\":24182:24219   */\n      tag_403\n      jump\t// in\n    tag_619:\n        /* \"#utility.yul\":24177:24180   */\n      dup3\n        /* \"#utility.yul\":24170:24220   */\n      mstore\n        /* \"#utility.yul\":24095:24226   */\n      pop\n      pop\n      jump\t// out\n        /* \"#utility.yul\":24232:24674   */\n    tag_344:\n        /* \"#utility.yul\":24381:24385   */\n      0x00\n        /* \"#utility.yul\":24419:24421   */\n      0x60\n        /* \"#utility.yul\":24408:24417   */\n      dup3\n        /* \"#utility.yul\":24404:24422   */\n      add\n        /* \"#utility.yul\":24396:24422   */\n      swap1\n      pop\n        /* \"#utility.yul\":24432:24503   */\n      tag_621\n        /* \"#utility.yul\":24500:24501   */\n      0x00\n        /* \"#utility.yul\":24489:24498   */\n      dup4\n        /* \"#utility.yul\":24485:24502   */\n      add\n        /* \"#utility.yul\":24476:24482   */\n      dup7\n        /* \"#utility.yul\":24432:24503   */\n      tag_346\n      jump\t// in\n    tag_621:\n        /* \"#utility.yul\":24513:24585   */\n      tag_622\n        /* \"#utility.yul\":24581:24583   */\n      0x20\n        /* \"#utility.yul\":24570:24579   */\n      dup4\n        /* \"#utility.yul\":24566:24584   */\n      add\n        /* \"#utility.yul\":24557:24563   */\n      dup6\n        /* \"#utility.yul\":24513:24585   */\n      tag_346\n      jump\t// in\n    tag_622:\n        /* \"#utility.yul\":24595:24667   */\n      tag_623\n        /* \"#utility.yul\":24663:24665   */\n      0x40\n        /* \"#utility.yul\":24652:24661   */\n      dup4\n        /* \"#utility.yul\":24648:24666   */\n      add\n        /* \"#utility.yul\":24639:24645   */\n      dup5\n        /* \"#utility.yul\":24595:24667   */\n      tag_404\n      jump\t// in\n    tag_623:\n        /* \"#utility.yul\":24232:24674   */\n      swap5\n      swap4\n      pop\n      pop\n      pop\n      pop\n      jump\t// out\n\n    auxdata: 0xa2646970667358221220d23483366d8561c11e9c6cb3769fb35e696b1a6e5a87e24fb957f676e4a0860a64736f6c63430008100033\n}\n",
				"bytecode": {
					"linkReferences": {},
					"object": "60806040526040518060800160405280600f60ff168152602001601e60ff168152602001602d60ff168152602001603c60ff168152506001906004620000479291906200018c565b506040518060800160405280600460ff168152602001600660ff168152602001600860ff168152602001600960ff1681525060029060046200008b9291906200018c565b503480156200009957600080fd5b50620000ba620000ae620000c060201b60201c565b620000c860201b60201c565b62000202565b600033905090565b60008060009054906101000a900473ffffffffffffffffffffffffffffffffffffffff169050816000806101000a81548173ffffffffffffffffffffffffffffffffffffffff021916908373ffffffffffffffffffffffffffffffffffffffff1602179055508173ffffffffffffffffffffffffffffffffffffffff168173ffffffffffffffffffffffffffffffffffffffff167f8be0079c531659141344cd1fd0a4f28419497f9722a3daafe3b4186f6b6457e060405160405180910390a35050565b828054828255906000526020600020908101928215620001d0579160200282015b82811115620001cf578251829060ff16905591602001919060010190620001ad565b5b509050620001df9190620001e3565b5090565b5b80821115620001fe576000816000905550600101620001e4565b5090565b6127b280620002126000396000f3fe6080604052600436106101185760003560e01c80637b0472f0116100a0578063b5d5b5fa11610064578063b5d5b5fa14610433578063bc20a7af14610474578063dd418ae2146104b1578063e9fad8ee146104ee578063f2fde38b146105055761016d565b80637b0472f014610326578063825e0e801461034f57806386efe63c1461038c5780638da5cb5b146103ca5780639bfd8d61146103f55761016d565b80632e17de78116100e75780632e17de78146102675780633472d465146102905780635c975abb146102b95780636f9fb98a146102e4578063715018a61461030f5761016d565b806304238994146101ad5780630a861f2a146101ea57806316078d041461021357806316c38b3c1461023e5761016d565b3661016d573373ffffffffffffffffffffffffffffffffffffffff167f1e57e3bb474320be3d2c77138f75b7c3941292d647f5f9634e33a8e94e0e069b346040516101639190611b47565b60405180910390a2005b7f0982457c3a668694541d4a16bdeb0b0f7ac3b524083fb913475e679112a9cb5160003633346040516101a39493929190611c01565b60405180910390a1005b3480156101b957600080fd5b506101d460048036038101906101cf9190611c72565b61052e565b6040516101e19190611e1a565b60405180910390f35b3480156101f657600080fd5b50610211600480360381019061020c9190611e68565b61067c565b005b34801561021f57600080fd5b50610228610687565b6040516102359190611b47565b60405180910390f35b34801561024a57600080fd5b5061026560048036038101906102609190611ec1565b61068d565b005b34801561027357600080fd5b5061028e60048036038101906102899190611e68565b61070f565b005b34801561029c57600080fd5b506102b760048036038101906102b29190611eee565b6109f8565b005b3480156102c557600080fd5b506102ce610a0e565b6040516102db9190611f3d565b60405180910390f35b3480156102f057600080fd5b506102f9610a21565b6040516103069190611b47565b60405180910390f35b34801561031b57600080fd5b50610324610a31565b005b34801561033257600080fd5b5061034d60048036038101906103489190611eee565b610a45565b005b34801561035b57600080fd5b5061037660048036038101906103719190611e68565b610aa4565b6040516103839190611b47565b60405180910390f35b34801561039857600080fd5b506103b360048036038101906103ae9190611c72565b610ad7565b6040516103c1929190611f58565b60405180910390f35b3480156103d657600080fd5b506103df610d4f565b6040516103ec9190611f81565b60405180910390f35b34801561040157600080fd5b5061041c60048036038101906104179190611c72565b610d78565b60405161042a929190611f58565b60405180910390f35b34801561043f57600080fd5b5061045a60048036038101906104559190611f9c565b610f45565b60405161046b959493929190611feb565b60405180910390f35b34801561048057600080fd5b5061049b60048036038101906104969190611e68565b610fd0565b6040516104a89190611b47565b60405180910390f35b3480156104bd57600080fd5b506104d860048036038101906104d39190611e68565b610ff4565b6040516104e59190611b47565b60405180910390f35b3480156104fa57600080fd5b50610503611018565b005b34801561051157600080fd5b5061052c60048036038101906105279190611c72565b611312565b005b6060600560008373ffffffffffffffffffffffffffffffffffffffff1673ffffffffffffffffffffffffffffffffffffffff168152602001908152602001600020805480602002602001604051908101604052809291908181526020016000905b8282101561067157838290600052602060002090600402016040518060a00160405290816000820154815260200160018201548152602001600282015481526020016003820160009054906101000a90047effffffffffffffffffffffffffffffffffffffffffffffffffffffffffffff167effffffffffffffffffffffffffffffffffffffffffffffffffffffffffffff167effffffffffffffffffffffffffffffffffffffffffffffffffffffffffffff16815260200160038201601f9054906101000a900460ff1615151515815250508152602001906001019061058f565b505050509050919050565b610684611395565b50565b60035481565b610695611395565b80600460006101000a81548160ff0219169083151502179055503373ffffffffffffffffffffffffffffffffffffffff167fe8699cf681560fd07de85543bd994263f4557bdc5179dd702f256d15fd083e1d600460009054906101000a900460ff166040516107049190611f3d565b60405180910390a250565b6000600560003373ffffffffffffffffffffffffffffffffffffffff1673ffffffffffffffffffffffffffffffffffffffff16815260200190815260200160002090506000818054905011610799576040517f08c379a00000000000000000000000000000000000000000000000000000000081526004016107909061209b565b60405180910390fd5b600080826001856107aa91906120ea565b815481106107bb576107ba61211e565b5b90600052602060002090600402016040518060a00160405290816000820154815260200160018201548152602001600282015481526020016003820160009054906101000a90047effffffffffffffffffffffffffffffffffffffffffffffffffffffffffffff167effffffffffffffffffffffffffffffffffffffffffffffffffffffffffffff167effffffffffffffffffffffffffffffffffffffffffffffffffffffffffffff16815260200160038201601f9054906101000a900460ff1615151515815250509050806080015115801561089b5750428160200151105b6108da576040517f08c379a00000000000000000000000000000000000000000000000000000000081526004016108d190612199565b60405180910390fd5b6001836001866108ea91906120ea565b815481106108fb576108fa61211e565b5b9060005260206000209060040201600301601f6101000a81548160ff02191690831515021790555061093e61092f82611413565b8361149590919063ffffffff16565b915060008211610983576040517f08c379a000000000000000000000000000000000000000000000000000000000815260040161097a90612205565b60405180910390fd5b610998826003546114ab90919063ffffffff16565b6003819055503373ffffffffffffffffffffffffffffffffffffffff167f92ccf450a286a957af52509bc1c9939d1a6a481783e142e41e2499f0bb66ebc68383600001516040516109ea929190611f58565b60405180910390a250505050565b610a00611395565b610a0a82826114c1565b5050565b600460009054906101000a900460ff1681565b6000610a2b611395565b47905090565b610a39611395565b610a436000611616565b565b600460009054906101000a900460ff1615610a95576040517f08c379a0000000000000000000000000000000000000000000000000000000008152600401610a8c90612271565b60405180910390fd5b610aa03383836116da565b5050565b6000610aaf826117be565b7effffffffffffffffffffffffffffffffffffffffffffffffffffffffffffff169050919050565b6000806000600560008573ffffffffffffffffffffffffffffffffffffffff1673ffffffffffffffffffffffffffffffffffffffff168152602001908152602001600020805480602002602001604051908101604052809291908181526020016000905b82821015610c1d57838290600052602060002090600402016040518060a00160405290816000820154815260200160018201548152602001600282015481526020016003820160009054906101000a90047effffffffffffffffffffffffffffffffffffffffffffffffffffffffffffff167effffffffffffffffffffffffffffffffffffffffffffffffffffffffffffff167effffffffffffffffffffffffffffffffffffffffffffffffffffffffffffff16815260200160038201601f9054906101000a900460ff16151515158152505081526020019060010190610b3b565b50505050905060005b8151811015610d4857818181518110610c4257610c4161211e565b5b602002602001015160800151610d3557610c83828281518110610c6857610c6761211e565b5b6020026020010151600001518561149590919063ffffffff16565b9350610d2e610d1f612710610d11610ce46064878781518110610ca957610ca861211e565b5b6020026020010151606001517effffffffffffffffffffffffffffffffffffffffffffffffffffffffffffff1661182d90919063ffffffff16565b868681518110610cf757610cf661211e565b5b60200260200101516000015161182d90919063ffffffff16565b61184390919063ffffffff16565b8561149590919063ffffffff16565b9350815192505b8080610d4090612291565b915050610c26565b5050915091565b60008060009054906101000a900473ffffffffffffffffffffffffffffffffffffffff16905090565b6000806000600560008573ffffffffffffffffffffffffffffffffffffffff1673ffffffffffffffffffffffffffffffffffffffff168152602001908152602001600020805480602002602001604051908101604052809291908181526020016000905b82821015610ebe57838290600052602060002090600402016040518060a00160405290816000820154815260200160018201548152602001600282015481526020016003820160009054906101000a90047effffffffffffffffffffffffffffffffffffffffffffffffffffffffffffff167effffffffffffffffffffffffffffffffffffffffffffffffffffffffffffff167effffffffffffffffffffffffffffffffffffffffffffffffffffffffffffff16815260200160038201601f9054906101000a900460ff16151515158152505081526020019060010190610ddc565b50505050905060005b8151811015610f3e57818181518110610ee357610ee261211e565b5b602002602001015160800151610f2b57610f24828281518110610f0957610f0861211e565b5b6020026020010151600001518561149590919063ffffffff16565b9350815192505b8080610f3690612291565b915050610ec7565b5050915091565b60056020528160005260406000208181548110610f6157600080fd5b9060005260206000209060040201600091509150508060000154908060010154908060020154908060030160009054906101000a90047effffffffffffffffffffffffffffffffffffffffffffffffffffffffffffff169080600301601f9054906101000a900460ff16905085565b60018181548110610fe057600080fd5b906000526020600020016000915090505481565b6002818154811061100457600080fd5b906000526020600020016000915090505481565b6000600560003373ffffffffffffffffffffffffffffffffffffffff1673ffffffffffffffffffffffffffffffffffffffff168152602001908152602001600020905060008180549050116110a2576040517f08c379a00000000000000000000000000000000000000000000000000000000081526004016110999061209b565b60405180910390fd5b6000806000838054905090505b6000846001836110bf91906120ea565b815481106110d0576110cf61211e565b5b90600052602060002090600402016040518060a00160405290816000820154815260200160018201548152602001600282015481526020016003820160009054906101000a90047effffffffffffffffffffffffffffffffffffffffffffffffffffffffffffff167effffffffffffffffffffffffffffffffffffffffffffffffffffffffffffff167effffffffffffffffffffffffffffffffffffffffffffffffffffffffffffff16815260200160038201601f9054906101000a900460ff16151515158152505090504281602001511080156111af575080608001515b156111ba575061125e565b4281602001511015611246576001856001846111d691906120ea565b815481106111e7576111e661211e565b5b9060005260206000209060040201600301601f6101000a81548160ff02191690831515021790555061122a61121b82611413565b8561149590919063ffffffff16565b935061124381600001518461149590919063ffffffff16565b92505b8180611251906122d9565b92505050600081116110af575b600083116112a1576040517f08c379a00000000000000000000000000000000000000000000000000000000081526004016112989061234e565b60405180910390fd5b6112b6836003546114ab90919063ffffffff16565b6003819055503373ffffffffffffffffffffffffffffffffffffffff167f92ccf450a286a957af52509bc1c9939d1a6a481783e142e41e2499f0bb66ebc68484604051611304929190611f58565b60405180910390a250505050565b61131a611395565b600073ffffffffffffffffffffffffffffffffffffffff168173ffffffffffffffffffffffffffffffffffffffff1603611389576040517f08c379a0000000000000000000000000000000000000000000000000000000008152600401611380906123e0565b60405180910390fd5b61139281611616565b50565b61139d611859565b73ffffffffffffffffffffffffffffffffffffffff166113bb610d4f565b73ffffffffffffffffffffffffffffffffffffffff1614611411576040517f08c379a00000000000000000000000000000000000000000000000000000000081526004016114089061244c565b60405180910390fd5b565b600061148e61147b61271061146d61145a606487606001517effffffffffffffffffffffffffffffffffffffffffffffffffffffffffffff1661182d90919063ffffffff16565b866000015161182d90919063ffffffff16565b61184390919063ffffffff16565b836000015161149590919063ffffffff16565b9050919050565b600081836114a3919061246c565b905092915050565b600081836114b991906120ea565b905092915050565b7effffffffffffffffffffffffffffffffffffffffffffffffffffffffffffff80168110611524576040517f08c379a000000000000000000000000000000000000000000000000000000000815260040161151b906124ec565b60405180910390fd5b600281908060018154018082558091505060019003906000526020600020016000909190919091505560018290806001815401808255809150506001900390600052602060002001600090919091909150553373ffffffffffffffffffffffffffffffffffffffff167f11057bbe5bee4e90eb5a0638dc2399b71076401177a7b8ddbfcd90d6597a427e826040516115bc9190611b47565b60405180910390a23373ffffffffffffffffffffffffffffffffffffffff167fbc2f4a9bf3002c736651b6e23160254684d657f11497502a66d96ce15bf17c2f8360405161160a9190611b47565b60405180910390a25050565b60008060009054906101000a900473ffffffffffffffffffffffffffffffffffffffff169050816000806101000a81548173ffffffffffffffffffffffffffffffffffffffff021916908373ffffffffffffffffffffffffffffffffffffffff1602179055508173ffffffffffffffffffffffffffffffffffffffff168173ffffffffffffffffffffffffffffffffffffffff167f8be0079c531659141344cd1fd0a4f28419497f9722a3daafe3b4186f6b6457e060405160405180910390a35050565b6000821161171d576040517f08c379a000000000000000000000000000000000000000000000000000000000815260040161171490612558565b60405180910390fd5b6000611728826117be565b90506000817effffffffffffffffffffffffffffffffffffffffffffffffffffffffffffff161161178e576040517f08c379a0000000000000000000000000000000000000000000000000000000008152600401611785906125c4565b60405180910390fd5b6117b884600184815481106117a6576117a561211e565b5b90600052602060002001548386611861565b50505050565b60006001805490508210611807576040517f08c379a00000000000000000000000000000000000000000000000000000000081526004016117fe90612630565b60405180910390fd5b6002828154811061181b5761181a61211e565b5b90600052602060002001549050919050565b6000818361183b9190612650565b905092915050565b6000818361185191906126d9565b905092915050565b600033905090565b6000600560008673ffffffffffffffffffffffffffffffffffffffff1673ffffffffffffffffffffffffffffffffffffffff168152602001908152602001600020905060006118b9854261149590919063ffffffff16565b90506000828054905090508260018160018154018082558091505003906000526020600020905050848382815481106118f5576118f461211e565b5b906000526020600020906004020160030160006101000a8154817effffffffffffffffffffffffffffffffffffffffffffffffffffffffffffff02191690837effffffffffffffffffffffffffffffffffffffffffffffffffffffffffffff1602179055508183828154811061196e5761196d61211e565b5b906000526020600020906004020160010181905550858382815481106119975761199661211e565b5b906000526020600020906004020160020181905550838382815481106119c0576119bf61211e565b5b906000526020600020906004020160000181905550611acd611abc8483815481106119ee576119ed61211e565b5b90600052602060002090600402016040518060a00160405290816000820154815260200160018201548152602001600282015481526020016003820160009054906101000a90047effffffffffffffffffffffffffffffffffffffffffffffffffffffffffffff167effffffffffffffffffffffffffffffffffffffffffffffffffffffffffffff167effffffffffffffffffffffffffffffffffffffffffffffffffffffffffffff16815260200160038201601f9054906101000a900460ff161515151581525050611413565b60035461149590919063ffffffff16565b6003819055508673ffffffffffffffffffffffffffffffffffffffff167fb4caaf29adda3eefee3ad552a8e85058589bf834c7466cae4ee58787f70589ed858888604051611b1d93929190612745565b60405180910390a250505050505050565b6000819050919050565b611b4181611b2e565b82525050565b6000602082019050611b5c6000830184611b38565b92915050565b600082825260208201905092915050565b82818337600083830152505050565b6000601f19601f8301169050919050565b6000611b9f8385611b62565b9350611bac838584611b73565b611bb583611b82565b840190509392505050565b600073ffffffffffffffffffffffffffffffffffffffff82169050919050565b6000611beb82611bc0565b9050919050565b611bfb81611be0565b82525050565b60006060820190508181036000830152611c1c818688611b93565b9050611c2b6020830185611bf2565b611c386040830184611b38565b95945050505050565b600080fd5b611c4f81611be0565b8114611c5a57600080fd5b50565b600081359050611c6c81611c46565b92915050565b600060208284031215611c8857611c87611c41565b5b6000611c9684828501611c5d565b91505092915050565b600081519050919050565b600082825260208201905092915050565b6000819050602082019050919050565b611cd481611b2e565b82525050565b60007effffffffffffffffffffffffffffffffffffffffffffffffffffffffffffff82169050919050565b611d0e81611cda565b82525050565b60008115159050919050565b611d2981611d14565b82525050565b60a082016000820151611d456000850182611ccb565b506020820151611d586020850182611ccb565b506040820151611d6b6040850182611ccb565b506060820151611d7e6060850182611d05565b506080820151611d916080850182611d20565b50505050565b6000611da38383611d2f565b60a08301905092915050565b6000602082019050919050565b6000611dc782611c9f565b611dd18185611caa565b9350611ddc83611cbb565b8060005b83811015611e0d578151611df48882611d97565b9750611dff83611daf565b925050600181019050611de0565b5085935050505092915050565b60006020820190508181036000830152611e348184611dbc565b905092915050565b611e4581611b2e565b8114611e5057600080fd5b50565b600081359050611e6281611e3c565b92915050565b600060208284031215611e7e57611e7d611c41565b5b6000611e8c84828501611e53565b91505092915050565b611e9e81611d14565b8114611ea957600080fd5b50565b600081359050611ebb81611e95565b92915050565b600060208284031215611ed757611ed6611c41565b5b6000611ee584828501611eac565b91505092915050565b60008060408385031215611f0557611f04611c41565b5b6000611f1385828601611e53565b9250506020611f2485828601611e53565b9150509250929050565b611f3781611d14565b82525050565b6000602082019050611f526000830184611f2e565b92915050565b6000604082019050611f6d6000830185611b38565b611f7a6020830184611b38565b9392505050565b6000602082019050611f966000830184611bf2565b92915050565b60008060408385031215611fb357611fb2611c41565b5b6000611fc185828601611c5d565b9250506020611fd285828601611e53565b9150509250929050565b611fe581611cda565b82525050565b600060a0820190506120006000830188611b38565b61200d6020830187611b38565b61201a6040830186611b38565b6120276060830185611fdc565b6120346080830184611f2e565b9695505050505050565b600082825260208201905092915050565b7f4e6f7468696e67207374616b6564000000000000000000000000000000000000600082015250565b6000612085600e8361203e565b91506120908261204f565b602082019050919050565b600060208201905081810360008301526120b481612078565b9050919050565b7f4e487b7100000000000000000000000000000000000000000000000000000000600052601160045260246000fd5b60006120f582611b2e565b915061210083611b2e565b9250828203905081811115612118576121176120bb565b5b92915050565b7f4e487b7100000000000000000000000000000000000000000000000000000000600052603260045260246000fd5b7f596f752063616e6e6f7420756e7374616b65642074686973206e6f7700000000600082015250565b6000612183601c8361203e565b915061218e8261214d565b602082019050919050565b600060208201905081810360008301526121b281612176565b9050919050565b7f5374616b6520697320696e206c6f636b2d757000000000000000000000000000600082015250565b60006121ef60138361203e565b91506121fa826121b9565b602082019050919050565b6000602082019050818103600083015261221e816121e2565b9050919050565b7f5374616b696e6720706175736564000000000000000000000000000000000000600082015250565b600061225b600e8361203e565b915061226682612225565b602082019050919050565b6000602082019050818103600083015261228a8161224e565b9050919050565b600061229c82611b2e565b91507fffffffffffffffffffffffffffffffffffffffffffffffffffffffffffffffff82036122ce576122cd6120bb565b5b600182019050919050565b60006122e482611b2e565b9150600082036122f7576122f66120bb565b5b600182039050919050565b7f416c6c207374616b657320696e206c6f636b2d75700000000000000000000000600082015250565b600061233860158361203e565b915061234382612302565b602082019050919050565b600060208201905081810360008301526123678161232b565b9050919050565b7f4f776e61626c653a206e6577206f776e657220697320746865207a65726f206160008201527f6464726573730000000000000000000000000000000000000000000000000000602082015250565b60006123ca60268361203e565b91506123d58261236e565b604082019050919050565b600060208201905081810360008301526123f9816123bd565b9050919050565b7f4f776e61626c653a2063616c6c6572206973206e6f7420746865206f776e6572600082015250565b600061243660208361203e565b915061244182612400565b602082019050919050565b6000602082019050818103600083015261246581612429565b9050919050565b600061247782611b2e565b915061248283611b2e565b925082820190508082111561249a576124996120bb565b5b92915050565b7f4d61782072617465206578636565646564000000000000000000000000000000600082015250565b60006124d660118361203e565b91506124e1826124a0565b602082019050919050565b60006020820190508181036000830152612505816124c9565b9050919050565b7f43616e6e6f74207374616b652030000000000000000000000000000000000000600082015250565b6000612542600e8361203e565b915061254d8261250c565b602082019050919050565b6000602082019050818103600083015261257181612535565b9050919050565b7f496e76616c6964206475726174696f6e00000000000000000000000000000000600082015250565b60006125ae60108361203e565b91506125b982612578565b602082019050919050565b600060208201905081810360008301526125dd816125a1565b9050919050565b7f7075742076616c6964206475726174696f6e0000000000000000000000000000600082015250565b600061261a60128361203e565b9150612625826125e4565b602082019050919050565b600060208201905081810360008301526126498161260d565b9050919050565b600061265b82611b2e565b915061266683611b2e565b9250817fffffffffffffffffffffffffffffffffffffffffffffffffffffffffffffffff048311821515161561269f5761269e6120bb565b5b828202905092915050565b7f4e487b7100000000000000000000000000000000000000000000000000000000600052601260045260246000fd5b60006126e482611b2e565b91506126ef83611b2e565b9250826126ff576126fe6126aa565b5b828204905092915050565b6000819050919050565b600061272f61272a61272584611cda565b61270a565b611b2e565b9050919050565b61273f81612714565b82525050565b600060608201905061275a6000830186611b38565b6127676020830185611b38565b6127746040830184612736565b94935050505056fea2646970667358221220d23483366d8561c11e9c6cb3769fb35e696b1a6e5a87e24fb957f676e4a0860a64736f6c63430008100033",
					"opcodes": "PUSH1 0x80 PUSH1 0x40 MSTORE PUSH1 0x40 MLOAD DUP1 PUSH1 0x80 ADD PUSH1 0x40 MSTORE DUP1 PUSH1 0xF PUSH1 0xFF AND DUP2 MSTORE PUSH1 0x20 ADD PUSH1 0x1E PUSH1 0xFF AND DUP2 MSTORE PUSH1 0x20 ADD PUSH1 0x2D PUSH1 0xFF AND DUP2 MSTORE PUSH1 0x20 ADD PUSH1 0x3C PUSH1 0xFF AND DUP2 MSTORE POP PUSH1 0x1 SWAP1 PUSH1 0x4 PUSH3 0x47 SWAP3 SWAP2 SWAP1 PUSH3 0x18C JUMP JUMPDEST POP PUSH1 0x40 MLOAD DUP1 PUSH1 0x80 ADD PUSH1 0x40 MSTORE DUP1 PUSH1 0x4 PUSH1 0xFF AND DUP2 MSTORE PUSH1 0x20 ADD PUSH1 0x6 PUSH1 0xFF AND DUP2 MSTORE PUSH1 0x20 ADD PUSH1 0x8 PUSH1 0xFF AND DUP2 MSTORE PUSH1 0x20 ADD PUSH1 0x9 PUSH1 0xFF AND DUP2 MSTORE POP PUSH1 0x2 SWAP1 PUSH1 0x4 PUSH3 0x8B SWAP3 SWAP2 SWAP1 PUSH3 0x18C JUMP JUMPDEST POP CALLVALUE DUP1 ISZERO PUSH3 0x99 JUMPI PUSH1 0x0 DUP1 REVERT JUMPDEST POP PUSH3 0xBA PUSH3 0xAE PUSH3 0xC0 PUSH1 0x20 SHL PUSH1 0x20 SHR JUMP JUMPDEST PUSH3 0xC8 PUSH1 0x20 SHL PUSH1 0x20 SHR JUMP JUMPDEST PUSH3 0x202 JUMP JUMPDEST PUSH1 0x0 CALLER SWAP1 POP SWAP1 JUMP JUMPDEST PUSH1 0x0 DUP1 PUSH1 0x0 SWAP1 SLOAD SWAP1 PUSH2 0x100 EXP SWAP1 DIV PUSH20 0xFFFFFFFFFFFFFFFFFFFFFFFFFFFFFFFFFFFFFFFF AND SWAP1 POP DUP2 PUSH1 0x0 DUP1 PUSH2 0x100 EXP DUP2 SLOAD DUP2 PUSH20 0xFFFFFFFFFFFFFFFFFFFFFFFFFFFFFFFFFFFFFFFF MUL NOT AND SWAP1 DUP4 PUSH20 0xFFFFFFFFFFFFFFFFFFFFFFFFFFFFFFFFFFFFFFFF AND MUL OR SWAP1 SSTORE POP DUP2 PUSH20 0xFFFFFFFFFFFFFFFFFFFFFFFFFFFFFFFFFFFFFFFF AND DUP2 PUSH20 0xFFFFFFFFFFFFFFFFFFFFFFFFFFFFFFFFFFFFFFFF AND PUSH32 0x8BE0079C531659141344CD1FD0A4F28419497F9722A3DAAFE3B4186F6B6457E0 PUSH1 0x40 MLOAD PUSH1 0x40 MLOAD DUP1 SWAP2 SUB SWAP1 LOG3 POP POP JUMP JUMPDEST DUP3 DUP1 SLOAD DUP3 DUP3 SSTORE SWAP1 PUSH1 0x0 MSTORE PUSH1 0x20 PUSH1 0x0 KECCAK256 SWAP1 DUP2 ADD SWAP3 DUP3 ISZERO PUSH3 0x1D0 JUMPI SWAP2 PUSH1 0x20 MUL DUP3 ADD JUMPDEST DUP3 DUP2 GT ISZERO PUSH3 0x1CF JUMPI DUP3 MLOAD DUP3 SWAP1 PUSH1 0xFF AND SWAP1 SSTORE SWAP2 PUSH1 0x20 ADD SWAP2 SWAP1 PUSH1 0x1 ADD SWAP1 PUSH3 0x1AD JUMP JUMPDEST JUMPDEST POP SWAP1 POP PUSH3 0x1DF SWAP2 SWAP1 PUSH3 0x1E3 JUMP JUMPDEST POP SWAP1 JUMP JUMPDEST JUMPDEST DUP1 DUP3 GT ISZERO PUSH3 0x1FE JUMPI PUSH1 0x0 DUP2 PUSH1 0x0 SWAP1 SSTORE POP PUSH1 0x1 ADD PUSH3 0x1E4 JUMP JUMPDEST POP SWAP1 JUMP JUMPDEST PUSH2 0x27B2 DUP1 PUSH3 0x212 PUSH1 0x0 CODECOPY PUSH1 0x0 RETURN INVALID PUSH1 0x80 PUSH1 0x40 MSTORE PUSH1 0x4 CALLDATASIZE LT PUSH2 0x118 JUMPI PUSH1 0x0 CALLDATALOAD PUSH1 0xE0 SHR DUP1 PUSH4 0x7B0472F0 GT PUSH2 0xA0 JUMPI DUP1 PUSH4 0xB5D5B5FA GT PUSH2 0x64 JUMPI DUP1 PUSH4 0xB5D5B5FA EQ PUSH2 0x433 JUMPI DUP1 PUSH4 0xBC20A7AF EQ PUSH2 0x474 JUMPI DUP1 PUSH4 0xDD418AE2 EQ PUSH2 0x4B1 JUMPI DUP1 PUSH4 0xE9FAD8EE EQ PUSH2 0x4EE JUMPI DUP1 PUSH4 0xF2FDE38B EQ PUSH2 0x505 JUMPI PUSH2 0x16D JUMP JUMPDEST DUP1 PUSH4 0x7B0472F0 EQ PUSH2 0x326 JUMPI DUP1 PUSH4 0x825E0E80 EQ PUSH2 0x34F JUMPI DUP1 PUSH4 0x86EFE63C EQ PUSH2 0x38C JUMPI DUP1 PUSH4 0x8DA5CB5B EQ PUSH2 0x3CA JUMPI DUP1 PUSH4 0x9BFD8D61 EQ PUSH2 0x3F5 JUMPI PUSH2 0x16D JUMP JUMPDEST DUP1 PUSH4 0x2E17DE78 GT PUSH2 0xE7 JUMPI DUP1 PUSH4 0x2E17DE78 EQ PUSH2 0x267 JUMPI DUP1 PUSH4 0x3472D465 EQ PUSH2 0x290 JUMPI DUP1 PUSH4 0x5C975ABB EQ PUSH2 0x2B9 JUMPI DUP1 PUSH4 0x6F9FB98A EQ PUSH2 0x2E4 JUMPI DUP1 PUSH4 0x715018A6 EQ PUSH2 0x30F JUMPI PUSH2 0x16D JUMP JUMPDEST DUP1 PUSH4 0x4238994 EQ PUSH2 0x1AD JUMPI DUP1 PUSH4 0xA861F2A EQ PUSH2 0x1EA JUMPI DUP1 PUSH4 0x16078D04 EQ PUSH2 0x213 JUMPI DUP1 PUSH4 0x16C38B3C EQ PUSH2 0x23E JUMPI PUSH2 0x16D JUMP JUMPDEST CALLDATASIZE PUSH2 0x16D JUMPI CALLER PUSH20 0xFFFFFFFFFFFFFFFFFFFFFFFFFFFFFFFFFFFFFFFF AND PUSH32 0x1E57E3BB474320BE3D2C77138F75B7C3941292D647F5F9634E33A8E94E0E069B CALLVALUE PUSH1 0x40 MLOAD PUSH2 0x163 SWAP2 SWAP1 PUSH2 0x1B47 JUMP JUMPDEST PUSH1 0x40 MLOAD DUP1 SWAP2 SUB SWAP1 LOG2 STOP JUMPDEST PUSH32 0x982457C3A668694541D4A16BDEB0B0F7AC3B524083FB913475E679112A9CB51 PUSH1 0x0 CALLDATASIZE CALLER CALLVALUE PUSH1 0x40 MLOAD PUSH2 0x1A3 SWAP5 SWAP4 SWAP3 SWAP2 SWAP1 PUSH2 0x1C01 JUMP JUMPDEST PUSH1 0x40 MLOAD DUP1 SWAP2 SUB SWAP1 LOG1 STOP JUMPDEST CALLVALUE DUP1 ISZERO PUSH2 0x1B9 JUMPI PUSH1 0x0 DUP1 REVERT JUMPDEST POP PUSH2 0x1D4 PUSH1 0x4 DUP1 CALLDATASIZE SUB DUP2 ADD SWAP1 PUSH2 0x1CF SWAP2 SWAP1 PUSH2 0x1C72 JUMP JUMPDEST PUSH2 0x52E JUMP JUMPDEST PUSH1 0x40 MLOAD PUSH2 0x1E1 SWAP2 SWAP1 PUSH2 0x1E1A JUMP JUMPDEST PUSH1 0x40 MLOAD DUP1 SWAP2 SUB SWAP1 RETURN JUMPDEST CALLVALUE DUP1 ISZERO PUSH2 0x1F6 JUMPI PUSH1 0x0 DUP1 REVERT JUMPDEST POP PUSH2 0x211 PUSH1 0x4 DUP1 CALLDATASIZE SUB DUP2 ADD SWAP1 PUSH2 0x20C SWAP2 SWAP1 PUSH2 0x1E68 JUMP JUMPDEST PUSH2 0x67C JUMP JUMPDEST STOP JUMPDEST CALLVALUE DUP1 ISZERO PUSH2 0x21F JUMPI PUSH1 0x0 DUP1 REVERT JUMPDEST POP PUSH2 0x228 PUSH2 0x687 JUMP JUMPDEST PUSH1 0x40 MLOAD PUSH2 0x235 SWAP2 SWAP1 PUSH2 0x1B47 JUMP JUMPDEST PUSH1 0x40 MLOAD DUP1 SWAP2 SUB SWAP1 RETURN JUMPDEST CALLVALUE DUP1 ISZERO PUSH2 0x24A JUMPI PUSH1 0x0 DUP1 REVERT JUMPDEST POP PUSH2 0x265 PUSH1 0x4 DUP1 CALLDATASIZE SUB DUP2 ADD SWAP1 PUSH2 0x260 SWAP2 SWAP1 PUSH2 0x1EC1 JUMP JUMPDEST PUSH2 0x68D JUMP JUMPDEST STOP JUMPDEST CALLVALUE DUP1 ISZERO PUSH2 0x273 JUMPI PUSH1 0x0 DUP1 REVERT JUMPDEST POP PUSH2 0x28E PUSH1 0x4 DUP1 CALLDATASIZE SUB DUP2 ADD SWAP1 PUSH2 0x289 SWAP2 SWAP1 PUSH2 0x1E68 JUMP JUMPDEST PUSH2 0x70F JUMP JUMPDEST STOP JUMPDEST CALLVALUE DUP1 ISZERO PUSH2 0x29C JUMPI PUSH1 0x0 DUP1 REVERT JUMPDEST POP PUSH2 0x2B7 PUSH1 0x4 DUP1 CALLDATASIZE SUB DUP2 ADD SWAP1 PUSH2 0x2B2 SWAP2 SWAP1 PUSH2 0x1EEE JUMP JUMPDEST PUSH2 0x9F8 JUMP JUMPDEST STOP JUMPDEST CALLVALUE DUP1 ISZERO PUSH2 0x2C5 JUMPI PUSH1 0x0 DUP1 REVERT JUMPDEST POP PUSH2 0x2CE PUSH2 0xA0E JUMP JUMPDEST PUSH1 0x40 MLOAD PUSH2 0x2DB SWAP2 SWAP1 PUSH2 0x1F3D JUMP JUMPDEST PUSH1 0x40 MLOAD DUP1 SWAP2 SUB SWAP1 RETURN JUMPDEST CALLVALUE DUP1 ISZERO PUSH2 0x2F0 JUMPI PUSH1 0x0 DUP1 REVERT JUMPDEST POP PUSH2 0x2F9 PUSH2 0xA21 JUMP JUMPDEST PUSH1 0x40 MLOAD PUSH2 0x306 SWAP2 SWAP1 PUSH2 0x1B47 JUMP JUMPDEST PUSH1 0x40 MLOAD DUP1 SWAP2 SUB SWAP1 RETURN JUMPDEST CALLVALUE DUP1 ISZERO PUSH2 0x31B JUMPI PUSH1 0x0 DUP1 REVERT JUMPDEST POP PUSH2 0x324 PUSH2 0xA31 JUMP JUMPDEST STOP JUMPDEST CALLVALUE DUP1 ISZERO PUSH2 0x332 JUMPI PUSH1 0x0 DUP1 REVERT JUMPDEST POP PUSH2 0x34D PUSH1 0x4 DUP1 CALLDATASIZE SUB DUP2 ADD SWAP1 PUSH2 0x348 SWAP2 SWAP1 PUSH2 0x1EEE JUMP JUMPDEST PUSH2 0xA45 JUMP JUMPDEST STOP JUMPDEST CALLVALUE DUP1 ISZERO PUSH2 0x35B JUMPI PUSH1 0x0 DUP1 REVERT JUMPDEST POP PUSH2 0x376 PUSH1 0x4 DUP1 CALLDATASIZE SUB DUP2 ADD SWAP1 PUSH2 0x371 SWAP2 SWAP1 PUSH2 0x1E68 JUMP JUMPDEST PUSH2 0xAA4 JUMP JUMPDEST PUSH1 0x40 MLOAD PUSH2 0x383 SWAP2 SWAP1 PUSH2 0x1B47 JUMP JUMPDEST PUSH1 0x40 MLOAD DUP1 SWAP2 SUB SWAP1 RETURN JUMPDEST CALLVALUE DUP1 ISZERO PUSH2 0x398 JUMPI PUSH1 0x0 DUP1 REVERT JUMPDEST POP PUSH2 0x3B3 PUSH1 0x4 DUP1 CALLDATASIZE SUB DUP2 ADD SWAP1 PUSH2 0x3AE SWAP2 SWAP1 PUSH2 0x1C72 JUMP JUMPDEST PUSH2 0xAD7 JUMP JUMPDEST PUSH1 0x40 MLOAD PUSH2 0x3C1 SWAP3 SWAP2 SWAP1 PUSH2 0x1F58 JUMP JUMPDEST PUSH1 0x40 MLOAD DUP1 SWAP2 SUB SWAP1 RETURN JUMPDEST CALLVALUE DUP1 ISZERO PUSH2 0x3D6 JUMPI PUSH1 0x0 DUP1 REVERT JUMPDEST POP PUSH2 0x3DF PUSH2 0xD4F JUMP JUMPDEST PUSH1 0x40 MLOAD PUSH2 0x3EC SWAP2 SWAP1 PUSH2 0x1F81 JUMP JUMPDEST PUSH1 0x40 MLOAD DUP1 SWAP2 SUB SWAP1 RETURN JUMPDEST CALLVALUE DUP1 ISZERO PUSH2 0x401 JUMPI PUSH1 0x0 DUP1 REVERT JUMPDEST POP PUSH2 0x41C PUSH1 0x4 DUP1 CALLDATASIZE SUB DUP2 ADD SWAP1 PUSH2 0x417 SWAP2 SWAP1 PUSH2 0x1C72 JUMP JUMPDEST PUSH2 0xD78 JUMP JUMPDEST PUSH1 0x40 MLOAD PUSH2 0x42A SWAP3 SWAP2 SWAP1 PUSH2 0x1F58 JUMP JUMPDEST PUSH1 0x40 MLOAD DUP1 SWAP2 SUB SWAP1 RETURN JUMPDEST CALLVALUE DUP1 ISZERO PUSH2 0x43F JUMPI PUSH1 0x0 DUP1 REVERT JUMPDEST POP PUSH2 0x45A PUSH1 0x4 DUP1 CALLDATASIZE SUB DUP2 ADD SWAP1 PUSH2 0x455 SWAP2 SWAP1 PUSH2 0x1F9C JUMP JUMPDEST PUSH2 0xF45 JUMP JUMPDEST PUSH1 0x40 MLOAD PUSH2 0x46B SWAP6 SWAP5 SWAP4 SWAP3 SWAP2 SWAP1 PUSH2 0x1FEB JUMP JUMPDEST PUSH1 0x40 MLOAD DUP1 SWAP2 SUB SWAP1 RETURN JUMPDEST CALLVALUE DUP1 ISZERO PUSH2 0x480 JUMPI PUSH1 0x0 DUP1 REVERT JUMPDEST POP PUSH2 0x49B PUSH1 0x4 DUP1 CALLDATASIZE SUB DUP2 ADD SWAP1 PUSH2 0x496 SWAP2 SWAP1 PUSH2 0x1E68 JUMP JUMPDEST PUSH2 0xFD0 JUMP JUMPDEST PUSH1 0x40 MLOAD PUSH2 0x4A8 SWAP2 SWAP1 PUSH2 0x1B47 JUMP JUMPDEST PUSH1 0x40 MLOAD DUP1 SWAP2 SUB SWAP1 RETURN JUMPDEST CALLVALUE DUP1 ISZERO PUSH2 0x4BD JUMPI PUSH1 0x0 DUP1 REVERT JUMPDEST POP PUSH2 0x4D8 PUSH1 0x4 DUP1 CALLDATASIZE SUB DUP2 ADD SWAP1 PUSH2 0x4D3 SWAP2 SWAP1 PUSH2 0x1E68 JUMP JUMPDEST PUSH2 0xFF4 JUMP JUMPDEST PUSH1 0x40 MLOAD PUSH2 0x4E5 SWAP2 SWAP1 PUSH2 0x1B47 JUMP JUMPDEST PUSH1 0x40 MLOAD DUP1 SWAP2 SUB SWAP1 RETURN JUMPDEST CALLVALUE DUP1 ISZERO PUSH2 0x4FA JUMPI PUSH1 0x0 DUP1 REVERT JUMPDEST POP PUSH2 0x503 PUSH2 0x1018 JUMP JUMPDEST STOP JUMPDEST CALLVALUE DUP1 ISZERO PUSH2 0x511 JUMPI PUSH1 0x0 DUP1 REVERT JUMPDEST POP PUSH2 0x52C PUSH1 0x4 DUP1 CALLDATASIZE SUB DUP2 ADD SWAP1 PUSH2 0x527 SWAP2 SWAP1 PUSH2 0x1C72 JUMP JUMPDEST PUSH2 0x1312 JUMP JUMPDEST STOP JUMPDEST PUSH1 0x60 PUSH1 0x5 PUSH1 0x0 DUP4 PUSH20 0xFFFFFFFFFFFFFFFFFFFFFFFFFFFFFFFFFFFFFFFF AND PUSH20 0xFFFFFFFFFFFFFFFFFFFFFFFFFFFFFFFFFFFFFFFF AND DUP2 MSTORE PUSH1 0x20 ADD SWAP1 DUP2 MSTORE PUSH1 0x20 ADD PUSH1 0x0 KECCAK256 DUP1 SLOAD DUP1 PUSH1 0x20 MUL PUSH1 0x20 ADD PUSH1 0x40 MLOAD SWAP1 DUP2 ADD PUSH1 0x40 MSTORE DUP1 SWAP3 SWAP2 SWAP1 DUP2 DUP2 MSTORE PUSH1 0x20 ADD PUSH1 0x0 SWAP1 JUMPDEST DUP3 DUP3 LT ISZERO PUSH2 0x671 JUMPI DUP4 DUP3 SWAP1 PUSH1 0x0 MSTORE PUSH1 0x20 PUSH1 0x0 KECCAK256 SWAP1 PUSH1 0x4 MUL ADD PUSH1 0x40 MLOAD DUP1 PUSH1 0xA0 ADD PUSH1 0x40 MSTORE SWAP1 DUP2 PUSH1 0x0 DUP3 ADD SLOAD DUP2 MSTORE PUSH1 0x20 ADD PUSH1 0x1 DUP3 ADD SLOAD DUP2 MSTORE PUSH1 0x20 ADD PUSH1 0x2 DUP3 ADD SLOAD DUP2 MSTORE PUSH1 0x20 ADD PUSH1 0x3 DUP3 ADD PUSH1 0x0 SWAP1 SLOAD SWAP1 PUSH2 0x100 EXP SWAP1 DIV PUSH31 0xFFFFFFFFFFFFFFFFFFFFFFFFFFFFFFFFFFFFFFFFFFFFFFFFFFFFFFFFFFFFFF AND PUSH31 0xFFFFFFFFFFFFFFFFFFFFFFFFFFFFFFFFFFFFFFFFFFFFFFFFFFFFFFFFFFFFFF AND PUSH31 0xFFFFFFFFFFFFFFFFFFFFFFFFFFFFFFFFFFFFFFFFFFFFFFFFFFFFFFFFFFFFFF AND DUP2 MSTORE PUSH1 0x20 ADD PUSH1 0x3 DUP3 ADD PUSH1 0x1F SWAP1 SLOAD SWAP1 PUSH2 0x100 EXP SWAP1 DIV PUSH1 0xFF AND ISZERO ISZERO ISZERO ISZERO DUP2 MSTORE POP POP DUP2 MSTORE PUSH1 0x20 ADD SWAP1 PUSH1 0x1 ADD SWAP1 PUSH2 0x58F JUMP JUMPDEST POP POP POP POP SWAP1 POP SWAP2 SWAP1 POP JUMP JUMPDEST PUSH2 0x684 PUSH2 0x1395 JUMP JUMPDEST POP JUMP JUMPDEST PUSH1 0x3 SLOAD DUP2 JUMP JUMPDEST PUSH2 0x695 PUSH2 0x1395 JUMP JUMPDEST DUP1 PUSH1 0x4 PUSH1 0x0 PUSH2 0x100 EXP DUP2 SLOAD DUP2 PUSH1 0xFF MUL NOT AND SWAP1 DUP4 ISZERO ISZERO MUL OR SWAP1 SSTORE POP CALLER PUSH20 0xFFFFFFFFFFFFFFFFFFFFFFFFFFFFFFFFFFFFFFFF AND PUSH32 0xE8699CF681560FD07DE85543BD994263F4557BDC5179DD702F256D15FD083E1D PUSH1 0x4 PUSH1 0x0 SWAP1 SLOAD SWAP1 PUSH2 0x100 EXP SWAP1 DIV PUSH1 0xFF AND PUSH1 0x40 MLOAD PUSH2 0x704 SWAP2 SWAP1 PUSH2 0x1F3D JUMP JUMPDEST PUSH1 0x40 MLOAD DUP1 SWAP2 SUB SWAP1 LOG2 POP JUMP JUMPDEST PUSH1 0x0 PUSH1 0x5 PUSH1 0x0 CALLER PUSH20 0xFFFFFFFFFFFFFFFFFFFFFFFFFFFFFFFFFFFFFFFF AND PUSH20 0xFFFFFFFFFFFFFFFFFFFFFFFFFFFFFFFFFFFFFFFF AND DUP2 MSTORE PUSH1 0x20 ADD SWAP1 DUP2 MSTORE PUSH1 0x20 ADD PUSH1 0x0 KECCAK256 SWAP1 POP PUSH1 0x0 DUP2 DUP1 SLOAD SWAP1 POP GT PUSH2 0x799 JUMPI PUSH1 0x40 MLOAD PUSH32 0x8C379A000000000000000000000000000000000000000000000000000000000 DUP2 MSTORE PUSH1 0x4 ADD PUSH2 0x790 SWAP1 PUSH2 0x209B JUMP JUMPDEST PUSH1 0x40 MLOAD DUP1 SWAP2 SUB SWAP1 REVERT JUMPDEST PUSH1 0x0 DUP1 DUP3 PUSH1 0x1 DUP6 PUSH2 0x7AA SWAP2 SWAP1 PUSH2 0x20EA JUMP JUMPDEST DUP2 SLOAD DUP2 LT PUSH2 0x7BB JUMPI PUSH2 0x7BA PUSH2 0x211E JUMP JUMPDEST JUMPDEST SWAP1 PUSH1 0x0 MSTORE PUSH1 0x20 PUSH1 0x0 KECCAK256 SWAP1 PUSH1 0x4 MUL ADD PUSH1 0x40 MLOAD DUP1 PUSH1 0xA0 ADD PUSH1 0x40 MSTORE SWAP1 DUP2 PUSH1 0x0 DUP3 ADD SLOAD DUP2 MSTORE PUSH1 0x20 ADD PUSH1 0x1 DUP3 ADD SLOAD DUP2 MSTORE PUSH1 0x20 ADD PUSH1 0x2 DUP3 ADD SLOAD DUP2 MSTORE PUSH1 0x20 ADD PUSH1 0x3 DUP3 ADD PUSH1 0x0 SWAP1 SLOAD SWAP1 PUSH2 0x100 EXP SWAP1 DIV PUSH31 0xFFFFFFFFFFFFFFFFFFFFFFFFFFFFFFFFFFFFFFFFFFFFFFFFFFFFFFFFFFFFFF AND PUSH31 0xFFFFFFFFFFFFFFFFFFFFFFFFFFFFFFFFFFFFFFFFFFFFFFFFFFFFFFFFFFFFFF AND PUSH31 0xFFFFFFFFFFFFFFFFFFFFFFFFFFFFFFFFFFFFFFFFFFFFFFFFFFFFFFFFFFFFFF AND DUP2 MSTORE PUSH1 0x20 ADD PUSH1 0x3 DUP3 ADD PUSH1 0x1F SWAP1 SLOAD SWAP1 PUSH2 0x100 EXP SWAP1 DIV PUSH1 0xFF AND ISZERO ISZERO ISZERO ISZERO DUP2 MSTORE POP POP SWAP1 POP DUP1 PUSH1 0x80 ADD MLOAD ISZERO DUP1 ISZERO PUSH2 0x89B JUMPI POP TIMESTAMP DUP2 PUSH1 0x20 ADD MLOAD LT JUMPDEST PUSH2 0x8DA JUMPI PUSH1 0x40 MLOAD PUSH32 0x8C379A000000000000000000000000000000000000000000000000000000000 DUP2 MSTORE PUSH1 0x4 ADD PUSH2 0x8D1 SWAP1 PUSH2 0x2199 JUMP JUMPDEST PUSH1 0x40 MLOAD DUP1 SWAP2 SUB SWAP1 REVERT JUMPDEST PUSH1 0x1 DUP4 PUSH1 0x1 DUP7 PUSH2 0x8EA SWAP2 SWAP1 PUSH2 0x20EA JUMP JUMPDEST DUP2 SLOAD DUP2 LT PUSH2 0x8FB JUMPI PUSH2 0x8FA PUSH2 0x211E JUMP JUMPDEST JUMPDEST SWAP1 PUSH1 0x0 MSTORE PUSH1 0x20 PUSH1 0x0 KECCAK256 SWAP1 PUSH1 0x4 MUL ADD PUSH1 0x3 ADD PUSH1 0x1F PUSH2 0x100 EXP DUP2 SLOAD DUP2 PUSH1 0xFF MUL NOT AND SWAP1 DUP4 ISZERO ISZERO MUL OR SWAP1 SSTORE POP PUSH2 0x93E PUSH2 0x92F DUP3 PUSH2 0x1413 JUMP JUMPDEST DUP4 PUSH2 0x1495 SWAP1 SWAP2 SWAP1 PUSH4 0xFFFFFFFF AND JUMP JUMPDEST SWAP2 POP PUSH1 0x0 DUP3 GT PUSH2 0x983 JUMPI PUSH1 0x40 MLOAD PUSH32 0x8C379A000000000000000000000000000000000000000000000000000000000 DUP2 MSTORE PUSH1 0x4 ADD PUSH2 0x97A SWAP1 PUSH2 0x2205 JUMP JUMPDEST PUSH1 0x40 MLOAD DUP1 SWAP2 SUB SWAP1 REVERT JUMPDEST PUSH2 0x998 DUP3 PUSH1 0x3 SLOAD PUSH2 0x14AB SWAP1 SWAP2 SWAP1 PUSH4 0xFFFFFFFF AND JUMP JUMPDEST PUSH1 0x3 DUP2 SWAP1 SSTORE POP CALLER PUSH20 0xFFFFFFFFFFFFFFFFFFFFFFFFFFFFFFFFFFFFFFFF AND PUSH32 0x92CCF450A286A957AF52509BC1C9939D1A6A481783E142E41E2499F0BB66EBC6 DUP4 DUP4 PUSH1 0x0 ADD MLOAD PUSH1 0x40 MLOAD PUSH2 0x9EA SWAP3 SWAP2 SWAP1 PUSH2 0x1F58 JUMP JUMPDEST PUSH1 0x40 MLOAD DUP1 SWAP2 SUB SWAP1 LOG2 POP POP POP POP JUMP JUMPDEST PUSH2 0xA00 PUSH2 0x1395 JUMP JUMPDEST PUSH2 0xA0A DUP3 DUP3 PUSH2 0x14C1 JUMP JUMPDEST POP POP JUMP JUMPDEST PUSH1 0x4 PUSH1 0x0 SWAP1 SLOAD SWAP1 PUSH2 0x100 EXP SWAP1 DIV PUSH1 0xFF AND DUP2 JUMP JUMPDEST PUSH1 0x0 PUSH2 0xA2B PUSH2 0x1395 JUMP JUMPDEST SELFBALANCE SWAP1 POP SWAP1 JUMP JUMPDEST PUSH2 0xA39 PUSH2 0x1395 JUMP JUMPDEST PUSH2 0xA43 PUSH1 0x0 PUSH2 0x1616 JUMP JUMPDEST JUMP JUMPDEST PUSH1 0x4 PUSH1 0x0 SWAP1 SLOAD SWAP1 PUSH2 0x100 EXP SWAP1 DIV PUSH1 0xFF AND ISZERO PUSH2 0xA95 JUMPI PUSH1 0x40 MLOAD PUSH32 0x8C379A000000000000000000000000000000000000000000000000000000000 DUP2 MSTORE PUSH1 0x4 ADD PUSH2 0xA8C SWAP1 PUSH2 0x2271 JUMP JUMPDEST PUSH1 0x40 MLOAD DUP1 SWAP2 SUB SWAP1 REVERT JUMPDEST PUSH2 0xAA0 CALLER DUP4 DUP4 PUSH2 0x16DA JUMP JUMPDEST POP POP JUMP JUMPDEST PUSH1 0x0 PUSH2 0xAAF DUP3 PUSH2 0x17BE JUMP JUMPDEST PUSH31 0xFFFFFFFFFFFFFFFFFFFFFFFFFFFFFFFFFFFFFFFFFFFFFFFFFFFFFFFFFFFFFF AND SWAP1 POP SWAP2 SWAP1 POP JUMP JUMPDEST PUSH1 0x0 DUP1 PUSH1 0x0 PUSH1 0x5 PUSH1 0x0 DUP6 PUSH20 0xFFFFFFFFFFFFFFFFFFFFFFFFFFFFFFFFFFFFFFFF AND PUSH20 0xFFFFFFFFFFFFFFFFFFFFFFFFFFFFFFFFFFFFFFFF AND DUP2 MSTORE PUSH1 0x20 ADD SWAP1 DUP2 MSTORE PUSH1 0x20 ADD PUSH1 0x0 KECCAK256 DUP1 SLOAD DUP1 PUSH1 0x20 MUL PUSH1 0x20 ADD PUSH1 0x40 MLOAD SWAP1 DUP2 ADD PUSH1 0x40 MSTORE DUP1 SWAP3 SWAP2 SWAP1 DUP2 DUP2 MSTORE PUSH1 0x20 ADD PUSH1 0x0 SWAP1 JUMPDEST DUP3 DUP3 LT ISZERO PUSH2 0xC1D JUMPI DUP4 DUP3 SWAP1 PUSH1 0x0 MSTORE PUSH1 0x20 PUSH1 0x0 KECCAK256 SWAP1 PUSH1 0x4 MUL ADD PUSH1 0x40 MLOAD DUP1 PUSH1 0xA0 ADD PUSH1 0x40 MSTORE SWAP1 DUP2 PUSH1 0x0 DUP3 ADD SLOAD DUP2 MSTORE PUSH1 0x20 ADD PUSH1 0x1 DUP3 ADD SLOAD DUP2 MSTORE PUSH1 0x20 ADD PUSH1 0x2 DUP3 ADD SLOAD DUP2 MSTORE PUSH1 0x20 ADD PUSH1 0x3 DUP3 ADD PUSH1 0x0 SWAP1 SLOAD SWAP1 PUSH2 0x100 EXP SWAP1 DIV PUSH31 0xFFFFFFFFFFFFFFFFFFFFFFFFFFFFFFFFFFFFFFFFFFFFFFFFFFFFFFFFFFFFFF AND PUSH31 0xFFFFFFFFFFFFFFFFFFFFFFFFFFFFFFFFFFFFFFFFFFFFFFFFFFFFFFFFFFFFFF AND PUSH31 0xFFFFFFFFFFFFFFFFFFFFFFFFFFFFFFFFFFFFFFFFFFFFFFFFFFFFFFFFFFFFFF AND DUP2 MSTORE PUSH1 0x20 ADD PUSH1 0x3 DUP3 ADD PUSH1 0x1F SWAP1 SLOAD SWAP1 PUSH2 0x100 EXP SWAP1 DIV PUSH1 0xFF AND ISZERO ISZERO ISZERO ISZERO DUP2 MSTORE POP POP DUP2 MSTORE PUSH1 0x20 ADD SWAP1 PUSH1 0x1 ADD SWAP1 PUSH2 0xB3B JUMP JUMPDEST POP POP POP POP SWAP1 POP PUSH1 0x0 JUMPDEST DUP2 MLOAD DUP2 LT ISZERO PUSH2 0xD48 JUMPI DUP2 DUP2 DUP2 MLOAD DUP2 LT PUSH2 0xC42 JUMPI PUSH2 0xC41 PUSH2 0x211E JUMP JUMPDEST JUMPDEST PUSH1 0x20 MUL PUSH1 0x20 ADD ADD MLOAD PUSH1 0x80 ADD MLOAD PUSH2 0xD35 JUMPI PUSH2 0xC83 DUP3 DUP3 DUP2 MLOAD DUP2 LT PUSH2 0xC68 JUMPI PUSH2 0xC67 PUSH2 0x211E JUMP JUMPDEST JUMPDEST PUSH1 0x20 MUL PUSH1 0x20 ADD ADD MLOAD PUSH1 0x0 ADD MLOAD DUP6 PUSH2 0x1495 SWAP1 SWAP2 SWAP1 PUSH4 0xFFFFFFFF AND JUMP JUMPDEST SWAP4 POP PUSH2 0xD2E PUSH2 0xD1F PUSH2 0x2710 PUSH2 0xD11 PUSH2 0xCE4 PUSH1 0x64 DUP8 DUP8 DUP2 MLOAD DUP2 LT PUSH2 0xCA9 JUMPI PUSH2 0xCA8 PUSH2 0x211E JUMP JUMPDEST JUMPDEST PUSH1 0x20 MUL PUSH1 0x20 ADD ADD MLOAD PUSH1 0x60 ADD MLOAD PUSH31 0xFFFFFFFFFFFFFFFFFFFFFFFFFFFFFFFFFFFFFFFFFFFFFFFFFFFFFFFFFFFFFF AND PUSH2 0x182D SWAP1 SWAP2 SWAP1 PUSH4 0xFFFFFFFF AND JUMP JUMPDEST DUP7 DUP7 DUP2 MLOAD DUP2 LT PUSH2 0xCF7 JUMPI PUSH2 0xCF6 PUSH2 0x211E JUMP JUMPDEST JUMPDEST PUSH1 0x20 MUL PUSH1 0x20 ADD ADD MLOAD PUSH1 0x0 ADD MLOAD PUSH2 0x182D SWAP1 SWAP2 SWAP1 PUSH4 0xFFFFFFFF AND JUMP JUMPDEST PUSH2 0x1843 SWAP1 SWAP2 SWAP1 PUSH4 0xFFFFFFFF AND JUMP JUMPDEST DUP6 PUSH2 0x1495 SWAP1 SWAP2 SWAP1 PUSH4 0xFFFFFFFF AND JUMP JUMPDEST SWAP4 POP DUP2 MLOAD SWAP3 POP JUMPDEST DUP1 DUP1 PUSH2 0xD40 SWAP1 PUSH2 0x2291 JUMP JUMPDEST SWAP2 POP POP PUSH2 0xC26 JUMP JUMPDEST POP POP SWAP2 POP SWAP2 JUMP JUMPDEST PUSH1 0x0 DUP1 PUSH1 0x0 SWAP1 SLOAD SWAP1 PUSH2 0x100 EXP SWAP1 DIV PUSH20 0xFFFFFFFFFFFFFFFFFFFFFFFFFFFFFFFFFFFFFFFF AND SWAP1 POP SWAP1 JUMP JUMPDEST PUSH1 0x0 DUP1 PUSH1 0x0 PUSH1 0x5 PUSH1 0x0 DUP6 PUSH20 0xFFFFFFFFFFFFFFFFFFFFFFFFFFFFFFFFFFFFFFFF AND PUSH20 0xFFFFFFFFFFFFFFFFFFFFFFFFFFFFFFFFFFFFFFFF AND DUP2 MSTORE PUSH1 0x20 ADD SWAP1 DUP2 MSTORE PUSH1 0x20 ADD PUSH1 0x0 KECCAK256 DUP1 SLOAD DUP1 PUSH1 0x20 MUL PUSH1 0x20 ADD PUSH1 0x40 MLOAD SWAP1 DUP2 ADD PUSH1 0x40 MSTORE DUP1 SWAP3 SWAP2 SWAP1 DUP2 DUP2 MSTORE PUSH1 0x20 ADD PUSH1 0x0 SWAP1 JUMPDEST DUP3 DUP3 LT ISZERO PUSH2 0xEBE JUMPI DUP4 DUP3 SWAP1 PUSH1 0x0 MSTORE PUSH1 0x20 PUSH1 0x0 KECCAK256 SWAP1 PUSH1 0x4 MUL ADD PUSH1 0x40 MLOAD DUP1 PUSH1 0xA0 ADD PUSH1 0x40 MSTORE SWAP1 DUP2 PUSH1 0x0 DUP3 ADD SLOAD DUP2 MSTORE PUSH1 0x20 ADD PUSH1 0x1 DUP3 ADD SLOAD DUP2 MSTORE PUSH1 0x20 ADD PUSH1 0x2 DUP3 ADD SLOAD DUP2 MSTORE PUSH1 0x20 ADD PUSH1 0x3 DUP3 ADD PUSH1 0x0 SWAP1 SLOAD SWAP1 PUSH2 0x100 EXP SWAP1 DIV PUSH31 0xFFFFFFFFFFFFFFFFFFFFFFFFFFFFFFFFFFFFFFFFFFFFFFFFFFFFFFFFFFFFFF AND PUSH31 0xFFFFFFFFFFFFFFFFFFFFFFFFFFFFFFFFFFFFFFFFFFFFFFFFFFFFFFFFFFFFFF AND PUSH31 0xFFFFFFFFFFFFFFFFFFFFFFFFFFFFFFFFFFFFFFFFFFFFFFFFFFFFFFFFFFFFFF AND DUP2 MSTORE PUSH1 0x20 ADD PUSH1 0x3 DUP3 ADD PUSH1 0x1F SWAP1 SLOAD SWAP1 PUSH2 0x100 EXP SWAP1 DIV PUSH1 0xFF AND ISZERO ISZERO ISZERO ISZERO DUP2 MSTORE POP POP DUP2 MSTORE PUSH1 0x20 ADD SWAP1 PUSH1 0x1 ADD SWAP1 PUSH2 0xDDC JUMP JUMPDEST POP POP POP POP SWAP1 POP PUSH1 0x0 JUMPDEST DUP2 MLOAD DUP2 LT ISZERO PUSH2 0xF3E JUMPI DUP2 DUP2 DUP2 MLOAD DUP2 LT PUSH2 0xEE3 JUMPI PUSH2 0xEE2 PUSH2 0x211E JUMP JUMPDEST JUMPDEST PUSH1 0x20 MUL PUSH1 0x20 ADD ADD MLOAD PUSH1 0x80 ADD MLOAD PUSH2 0xF2B JUMPI PUSH2 0xF24 DUP3 DUP3 DUP2 MLOAD DUP2 LT PUSH2 0xF09 JUMPI PUSH2 0xF08 PUSH2 0x211E JUMP JUMPDEST JUMPDEST PUSH1 0x20 MUL PUSH1 0x20 ADD ADD MLOAD PUSH1 0x0 ADD MLOAD DUP6 PUSH2 0x1495 SWAP1 SWAP2 SWAP1 PUSH4 0xFFFFFFFF AND JUMP JUMPDEST SWAP4 POP DUP2 MLOAD SWAP3 POP JUMPDEST DUP1 DUP1 PUSH2 0xF36 SWAP1 PUSH2 0x2291 JUMP JUMPDEST SWAP2 POP POP PUSH2 0xEC7 JUMP JUMPDEST POP POP SWAP2 POP SWAP2 JUMP JUMPDEST PUSH1 0x5 PUSH1 0x20 MSTORE DUP2 PUSH1 0x0 MSTORE PUSH1 0x40 PUSH1 0x0 KECCAK256 DUP2 DUP2 SLOAD DUP2 LT PUSH2 0xF61 JUMPI PUSH1 0x0 DUP1 REVERT JUMPDEST SWAP1 PUSH1 0x0 MSTORE PUSH1 0x20 PUSH1 0x0 KECCAK256 SWAP1 PUSH1 0x4 MUL ADD PUSH1 0x0 SWAP2 POP SWAP2 POP POP DUP1 PUSH1 0x0 ADD SLOAD SWAP1 DUP1 PUSH1 0x1 ADD SLOAD SWAP1 DUP1 PUSH1 0x2 ADD SLOAD SWAP1 DUP1 PUSH1 0x3 ADD PUSH1 0x0 SWAP1 SLOAD SWAP1 PUSH2 0x100 EXP SWAP1 DIV PUSH31 0xFFFFFFFFFFFFFFFFFFFFFFFFFFFFFFFFFFFFFFFFFFFFFFFFFFFFFFFFFFFFFF AND SWAP1 DUP1 PUSH1 0x3 ADD PUSH1 0x1F SWAP1 SLOAD SWAP1 PUSH2 0x100 EXP SWAP1 DIV PUSH1 0xFF AND SWAP1 POP DUP6 JUMP JUMPDEST PUSH1 0x1 DUP2 DUP2 SLOAD DUP2 LT PUSH2 0xFE0 JUMPI PUSH1 0x0 DUP1 REVERT JUMPDEST SWAP1 PUSH1 0x0 MSTORE PUSH1 0x20 PUSH1 0x0 KECCAK256 ADD PUSH1 0x0 SWAP2 POP SWAP1 POP SLOAD DUP2 JUMP JUMPDEST PUSH1 0x2 DUP2 DUP2 SLOAD DUP2 LT PUSH2 0x1004 JUMPI PUSH1 0x0 DUP1 REVERT JUMPDEST SWAP1 PUSH1 0x0 MSTORE PUSH1 0x20 PUSH1 0x0 KECCAK256 ADD PUSH1 0x0 SWAP2 POP SWAP1 POP SLOAD DUP2 JUMP JUMPDEST PUSH1 0x0 PUSH1 0x5 PUSH1 0x0 CALLER PUSH20 0xFFFFFFFFFFFFFFFFFFFFFFFFFFFFFFFFFFFFFFFF AND PUSH20 0xFFFFFFFFFFFFFFFFFFFFFFFFFFFFFFFFFFFFFFFF AND DUP2 MSTORE PUSH1 0x20 ADD SWAP1 DUP2 MSTORE PUSH1 0x20 ADD PUSH1 0x0 KECCAK256 SWAP1 POP PUSH1 0x0 DUP2 DUP1 SLOAD SWAP1 POP GT PUSH2 0x10A2 JUMPI PUSH1 0x40 MLOAD PUSH32 0x8C379A000000000000000000000000000000000000000000000000000000000 DUP2 MSTORE PUSH1 0x4 ADD PUSH2 0x1099 SWAP1 PUSH2 0x209B JUMP JUMPDEST PUSH1 0x40 MLOAD DUP1 SWAP2 SUB SWAP1 REVERT JUMPDEST PUSH1 0x0 DUP1 PUSH1 0x0 DUP4 DUP1 SLOAD SWAP1 POP SWAP1 POP JUMPDEST PUSH1 0x0 DUP5 PUSH1 0x1 DUP4 PUSH2 0x10BF SWAP2 SWAP1 PUSH2 0x20EA JUMP JUMPDEST DUP2 SLOAD DUP2 LT PUSH2 0x10D0 JUMPI PUSH2 0x10CF PUSH2 0x211E JUMP JUMPDEST JUMPDEST SWAP1 PUSH1 0x0 MSTORE PUSH1 0x20 PUSH1 0x0 KECCAK256 SWAP1 PUSH1 0x4 MUL ADD PUSH1 0x40 MLOAD DUP1 PUSH1 0xA0 ADD PUSH1 0x40 MSTORE SWAP1 DUP2 PUSH1 0x0 DUP3 ADD SLOAD DUP2 MSTORE PUSH1 0x20 ADD PUSH1 0x1 DUP3 ADD SLOAD DUP2 MSTORE PUSH1 0x20 ADD PUSH1 0x2 DUP3 ADD SLOAD DUP2 MSTORE PUSH1 0x20 ADD PUSH1 0x3 DUP3 ADD PUSH1 0x0 SWAP1 SLOAD SWAP1 PUSH2 0x100 EXP SWAP1 DIV PUSH31 0xFFFFFFFFFFFFFFFFFFFFFFFFFFFFFFFFFFFFFFFFFFFFFFFFFFFFFFFFFFFFFF AND PUSH31 0xFFFFFFFFFFFFFFFFFFFFFFFFFFFFFFFFFFFFFFFFFFFFFFFFFFFFFFFFFFFFFF AND PUSH31 0xFFFFFFFFFFFFFFFFFFFFFFFFFFFFFFFFFFFFFFFFFFFFFFFFFFFFFFFFFFFFFF AND DUP2 MSTORE PUSH1 0x20 ADD PUSH1 0x3 DUP3 ADD PUSH1 0x1F SWAP1 SLOAD SWAP1 PUSH2 0x100 EXP SWAP1 DIV PUSH1 0xFF AND ISZERO ISZERO ISZERO ISZERO DUP2 MSTORE POP POP SWAP1 POP TIMESTAMP DUP2 PUSH1 0x20 ADD MLOAD LT DUP1 ISZERO PUSH2 0x11AF JUMPI POP DUP1 PUSH1 0x80 ADD MLOAD JUMPDEST ISZERO PUSH2 0x11BA JUMPI POP PUSH2 0x125E JUMP JUMPDEST TIMESTAMP DUP2 PUSH1 0x20 ADD MLOAD LT ISZERO PUSH2 0x1246 JUMPI PUSH1 0x1 DUP6 PUSH1 0x1 DUP5 PUSH2 0x11D6 SWAP2 SWAP1 PUSH2 0x20EA JUMP JUMPDEST DUP2 SLOAD DUP2 LT PUSH2 0x11E7 JUMPI PUSH2 0x11E6 PUSH2 0x211E JUMP JUMPDEST JUMPDEST SWAP1 PUSH1 0x0 MSTORE PUSH1 0x20 PUSH1 0x0 KECCAK256 SWAP1 PUSH1 0x4 MUL ADD PUSH1 0x3 ADD PUSH1 0x1F PUSH2 0x100 EXP DUP2 SLOAD DUP2 PUSH1 0xFF MUL NOT AND SWAP1 DUP4 ISZERO ISZERO MUL OR SWAP1 SSTORE POP PUSH2 0x122A PUSH2 0x121B DUP3 PUSH2 0x1413 JUMP JUMPDEST DUP6 PUSH2 0x1495 SWAP1 SWAP2 SWAP1 PUSH4 0xFFFFFFFF AND JUMP JUMPDEST SWAP4 POP PUSH2 0x1243 DUP2 PUSH1 0x0 ADD MLOAD DUP5 PUSH2 0x1495 SWAP1 SWAP2 SWAP1 PUSH4 0xFFFFFFFF AND JUMP JUMPDEST SWAP3 POP JUMPDEST DUP2 DUP1 PUSH2 0x1251 SWAP1 PUSH2 0x22D9 JUMP JUMPDEST SWAP3 POP POP POP PUSH1 0x0 DUP2 GT PUSH2 0x10AF JUMPI JUMPDEST PUSH1 0x0 DUP4 GT PUSH2 0x12A1 JUMPI PUSH1 0x40 MLOAD PUSH32 0x8C379A000000000000000000000000000000000000000000000000000000000 DUP2 MSTORE PUSH1 0x4 ADD PUSH2 0x1298 SWAP1 PUSH2 0x234E JUMP JUMPDEST PUSH1 0x40 MLOAD DUP1 SWAP2 SUB SWAP1 REVERT JUMPDEST PUSH2 0x12B6 DUP4 PUSH1 0x3 SLOAD PUSH2 0x14AB SWAP1 SWAP2 SWAP1 PUSH4 0xFFFFFFFF AND JUMP JUMPDEST PUSH1 0x3 DUP2 SWAP1 SSTORE POP CALLER PUSH20 0xFFFFFFFFFFFFFFFFFFFFFFFFFFFFFFFFFFFFFFFF AND PUSH32 0x92CCF450A286A957AF52509BC1C9939D1A6A481783E142E41E2499F0BB66EBC6 DUP5 DUP5 PUSH1 0x40 MLOAD PUSH2 0x1304 SWAP3 SWAP2 SWAP1 PUSH2 0x1F58 JUMP JUMPDEST PUSH1 0x40 MLOAD DUP1 SWAP2 SUB SWAP1 LOG2 POP POP POP POP JUMP JUMPDEST PUSH2 0x131A PUSH2 0x1395 JUMP JUMPDEST PUSH1 0x0 PUSH20 0xFFFFFFFFFFFFFFFFFFFFFFFFFFFFFFFFFFFFFFFF AND DUP2 PUSH20 0xFFFFFFFFFFFFFFFFFFFFFFFFFFFFFFFFFFFFFFFF AND SUB PUSH2 0x1389 JUMPI PUSH1 0x40 MLOAD PUSH32 0x8C379A000000000000000000000000000000000000000000000000000000000 DUP2 MSTORE PUSH1 0x4 ADD PUSH2 0x1380 SWAP1 PUSH2 0x23E0 JUMP JUMPDEST PUSH1 0x40 MLOAD DUP1 SWAP2 SUB SWAP1 REVERT JUMPDEST PUSH2 0x1392 DUP2 PUSH2 0x1616 JUMP JUMPDEST POP JUMP JUMPDEST PUSH2 0x139D PUSH2 0x1859 JUMP JUMPDEST PUSH20 0xFFFFFFFFFFFFFFFFFFFFFFFFFFFFFFFFFFFFFFFF AND PUSH2 0x13BB PUSH2 0xD4F JUMP JUMPDEST PUSH20 0xFFFFFFFFFFFFFFFFFFFFFFFFFFFFFFFFFFFFFFFF AND EQ PUSH2 0x1411 JUMPI PUSH1 0x40 MLOAD PUSH32 0x8C379A000000000000000000000000000000000000000000000000000000000 DUP2 MSTORE PUSH1 0x4 ADD PUSH2 0x1408 SWAP1 PUSH2 0x244C JUMP JUMPDEST PUSH1 0x40 MLOAD DUP1 SWAP2 SUB SWAP1 REVERT JUMPDEST JUMP JUMPDEST PUSH1 0x0 PUSH2 0x148E PUSH2 0x147B PUSH2 0x2710 PUSH2 0x146D PUSH2 0x145A PUSH1 0x64 DUP8 PUSH1 0x60 ADD MLOAD PUSH31 0xFFFFFFFFFFFFFFFFFFFFFFFFFFFFFFFFFFFFFFFFFFFFFFFFFFFFFFFFFFFFFF AND PUSH2 0x182D SWAP1 SWAP2 SWAP1 PUSH4 0xFFFFFFFF AND JUMP JUMPDEST DUP7 PUSH1 0x0 ADD MLOAD PUSH2 0x182D SWAP1 SWAP2 SWAP1 PUSH4 0xFFFFFFFF AND JUMP JUMPDEST PUSH2 0x1843 SWAP1 SWAP2 SWAP1 PUSH4 0xFFFFFFFF AND JUMP JUMPDEST DUP4 PUSH1 0x0 ADD MLOAD PUSH2 0x1495 SWAP1 SWAP2 SWAP1 PUSH4 0xFFFFFFFF AND JUMP JUMPDEST SWAP1 POP SWAP2 SWAP1 POP JUMP JUMPDEST PUSH1 0x0 DUP2 DUP4 PUSH2 0x14A3 SWAP2 SWAP1 PUSH2 0x246C JUMP JUMPDEST SWAP1 POP SWAP3 SWAP2 POP POP JUMP JUMPDEST PUSH1 0x0 DUP2 DUP4 PUSH2 0x14B9 SWAP2 SWAP1 PUSH2 0x20EA JUMP JUMPDEST SWAP1 POP SWAP3 SWAP2 POP POP JUMP JUMPDEST PUSH31 0xFFFFFFFFFFFFFFFFFFFFFFFFFFFFFFFFFFFFFFFFFFFFFFFFFFFFFFFFFFFFFF DUP1 AND DUP2 LT PUSH2 0x1524 JUMPI PUSH1 0x40 MLOAD PUSH32 0x8C379A000000000000000000000000000000000000000000000000000000000 DUP2 MSTORE PUSH1 0x4 ADD PUSH2 0x151B SWAP1 PUSH2 0x24EC JUMP JUMPDEST PUSH1 0x40 MLOAD DUP1 SWAP2 SUB SWAP1 REVERT JUMPDEST PUSH1 0x2 DUP2 SWAP1 DUP1 PUSH1 0x1 DUP2 SLOAD ADD DUP1 DUP3 SSTORE DUP1 SWAP2 POP POP PUSH1 0x1 SWAP1 SUB SWAP1 PUSH1 0x0 MSTORE PUSH1 0x20 PUSH1 0x0 KECCAK256 ADD PUSH1 0x0 SWAP1 SWAP2 SWAP1 SWAP2 SWAP1 SWAP2 POP SSTORE PUSH1 0x1 DUP3 SWAP1 DUP1 PUSH1 0x1 DUP2 SLOAD ADD DUP1 DUP3 SSTORE DUP1 SWAP2 POP POP PUSH1 0x1 SWAP1 SUB SWAP1 PUSH1 0x0 MSTORE PUSH1 0x20 PUSH1 0x0 KECCAK256 ADD PUSH1 0x0 SWAP1 SWAP2 SWAP1 SWAP2 SWAP1 SWAP2 POP SSTORE CALLER PUSH20 0xFFFFFFFFFFFFFFFFFFFFFFFFFFFFFFFFFFFFFFFF AND PUSH32 0x11057BBE5BEE4E90EB5A0638DC2399B71076401177A7B8DDBFCD90D6597A427E DUP3 PUSH1 0x40 MLOAD PUSH2 0x15BC SWAP2 SWAP1 PUSH2 0x1B47 JUMP JUMPDEST PUSH1 0x40 MLOAD DUP1 SWAP2 SUB SWAP1 LOG2 CALLER PUSH20 0xFFFFFFFFFFFFFFFFFFFFFFFFFFFFFFFFFFFFFFFF AND PUSH32 0xBC2F4A9BF3002C736651B6E23160254684D657F11497502A66D96CE15BF17C2F DUP4 PUSH1 0x40 MLOAD PUSH2 0x160A SWAP2 SWAP1 PUSH2 0x1B47 JUMP JUMPDEST PUSH1 0x40 MLOAD DUP1 SWAP2 SUB SWAP1 LOG2 POP POP JUMP JUMPDEST PUSH1 0x0 DUP1 PUSH1 0x0 SWAP1 SLOAD SWAP1 PUSH2 0x100 EXP SWAP1 DIV PUSH20 0xFFFFFFFFFFFFFFFFFFFFFFFFFFFFFFFFFFFFFFFF AND SWAP1 POP DUP2 PUSH1 0x0 DUP1 PUSH2 0x100 EXP DUP2 SLOAD DUP2 PUSH20 0xFFFFFFFFFFFFFFFFFFFFFFFFFFFFFFFFFFFFFFFF MUL NOT AND SWAP1 DUP4 PUSH20 0xFFFFFFFFFFFFFFFFFFFFFFFFFFFFFFFFFFFFFFFF AND MUL OR SWAP1 SSTORE POP DUP2 PUSH20 0xFFFFFFFFFFFFFFFFFFFFFFFFFFFFFFFFFFFFFFFF AND DUP2 PUSH20 0xFFFFFFFFFFFFFFFFFFFFFFFFFFFFFFFFFFFFFFFF AND PUSH32 0x8BE0079C531659141344CD1FD0A4F28419497F9722A3DAAFE3B4186F6B6457E0 PUSH1 0x40 MLOAD PUSH1 0x40 MLOAD DUP1 SWAP2 SUB SWAP1 LOG3 POP POP JUMP JUMPDEST PUSH1 0x0 DUP3 GT PUSH2 0x171D JUMPI PUSH1 0x40 MLOAD PUSH32 0x8C379A000000000000000000000000000000000000000000000000000000000 DUP2 MSTORE PUSH1 0x4 ADD PUSH2 0x1714 SWAP1 PUSH2 0x2558 JUMP JUMPDEST PUSH1 0x40 MLOAD DUP1 SWAP2 SUB SWAP1 REVERT JUMPDEST PUSH1 0x0 PUSH2 0x1728 DUP3 PUSH2 0x17BE JUMP JUMPDEST SWAP1 POP PUSH1 0x0 DUP2 PUSH31 0xFFFFFFFFFFFFFFFFFFFFFFFFFFFFFFFFFFFFFFFFFFFFFFFFFFFFFFFFFFFFFF AND GT PUSH2 0x178E JUMPI PUSH1 0x40 MLOAD PUSH32 0x8C379A000000000000000000000000000000000000000000000000000000000 DUP2 MSTORE PUSH1 0x4 ADD PUSH2 0x1785 SWAP1 PUSH2 0x25C4 JUMP JUMPDEST PUSH1 0x40 MLOAD DUP1 SWAP2 SUB SWAP1 REVERT JUMPDEST PUSH2 0x17B8 DUP5 PUSH1 0x1 DUP5 DUP2 SLOAD DUP2 LT PUSH2 0x17A6 JUMPI PUSH2 0x17A5 PUSH2 0x211E JUMP JUMPDEST JUMPDEST SWAP1 PUSH1 0x0 MSTORE PUSH1 0x20 PUSH1 0x0 KECCAK256 ADD SLOAD DUP4 DUP7 PUSH2 0x1861 JUMP JUMPDEST POP POP POP POP JUMP JUMPDEST PUSH1 0x0 PUSH1 0x1 DUP1 SLOAD SWAP1 POP DUP3 LT PUSH2 0x1807 JUMPI PUSH1 0x40 MLOAD PUSH32 0x8C379A000000000000000000000000000000000000000000000000000000000 DUP2 MSTORE PUSH1 0x4 ADD PUSH2 0x17FE SWAP1 PUSH2 0x2630 JUMP JUMPDEST PUSH1 0x40 MLOAD DUP1 SWAP2 SUB SWAP1 REVERT JUMPDEST PUSH1 0x2 DUP3 DUP2 SLOAD DUP2 LT PUSH2 0x181B JUMPI PUSH2 0x181A PUSH2 0x211E JUMP JUMPDEST JUMPDEST SWAP1 PUSH1 0x0 MSTORE PUSH1 0x20 PUSH1 0x0 KECCAK256 ADD SLOAD SWAP1 POP SWAP2 SWAP1 POP JUMP JUMPDEST PUSH1 0x0 DUP2 DUP4 PUSH2 0x183B SWAP2 SWAP1 PUSH2 0x2650 JUMP JUMPDEST SWAP1 POP SWAP3 SWAP2 POP POP JUMP JUMPDEST PUSH1 0x0 DUP2 DUP4 PUSH2 0x1851 SWAP2 SWAP1 PUSH2 0x26D9 JUMP JUMPDEST SWAP1 POP SWAP3 SWAP2 POP POP JUMP JUMPDEST PUSH1 0x0 CALLER SWAP1 POP SWAP1 JUMP JUMPDEST PUSH1 0x0 PUSH1 0x5 PUSH1 0x0 DUP7 PUSH20 0xFFFFFFFFFFFFFFFFFFFFFFFFFFFFFFFFFFFFFFFF AND PUSH20 0xFFFFFFFFFFFFFFFFFFFFFFFFFFFFFFFFFFFFFFFF AND DUP2 MSTORE PUSH1 0x20 ADD SWAP1 DUP2 MSTORE PUSH1 0x20 ADD PUSH1 0x0 KECCAK256 SWAP1 POP PUSH1 0x0 PUSH2 0x18B9 DUP6 TIMESTAMP PUSH2 0x1495 SWAP1 SWAP2 SWAP1 PUSH4 0xFFFFFFFF AND JUMP JUMPDEST SWAP1 POP PUSH1 0x0 DUP3 DUP1 SLOAD SWAP1 POP SWAP1 POP DUP3 PUSH1 0x1 DUP2 PUSH1 0x1 DUP2 SLOAD ADD DUP1 DUP3 SSTORE DUP1 SWAP2 POP POP SUB SWAP1 PUSH1 0x0 MSTORE PUSH1 0x20 PUSH1 0x0 KECCAK256 SWAP1 POP POP DUP5 DUP4 DUP3 DUP2 SLOAD DUP2 LT PUSH2 0x18F5 JUMPI PUSH2 0x18F4 PUSH2 0x211E JUMP JUMPDEST JUMPDEST SWAP1 PUSH1 0x0 MSTORE PUSH1 0x20 PUSH1 0x0 KECCAK256 SWAP1 PUSH1 0x4 MUL ADD PUSH1 0x3 ADD PUSH1 0x0 PUSH2 0x100 EXP DUP2 SLOAD DUP2 PUSH31 0xFFFFFFFFFFFFFFFFFFFFFFFFFFFFFFFFFFFFFFFFFFFFFFFFFFFFFFFFFFFFFF MUL NOT AND SWAP1 DUP4 PUSH31 0xFFFFFFFFFFFFFFFFFFFFFFFFFFFFFFFFFFFFFFFFFFFFFFFFFFFFFFFFFFFFFF AND MUL OR SWAP1 SSTORE POP DUP2 DUP4 DUP3 DUP2 SLOAD DUP2 LT PUSH2 0x196E JUMPI PUSH2 0x196D PUSH2 0x211E JUMP JUMPDEST JUMPDEST SWAP1 PUSH1 0x0 MSTORE PUSH1 0x20 PUSH1 0x0 KECCAK256 SWAP1 PUSH1 0x4 MUL ADD PUSH1 0x1 ADD DUP2 SWAP1 SSTORE POP DUP6 DUP4 DUP3 DUP2 SLOAD DUP2 LT PUSH2 0x1997 JUMPI PUSH2 0x1996 PUSH2 0x211E JUMP JUMPDEST JUMPDEST SWAP1 PUSH1 0x0 MSTORE PUSH1 0x20 PUSH1 0x0 KECCAK256 SWAP1 PUSH1 0x4 MUL ADD PUSH1 0x2 ADD DUP2 SWAP1 SSTORE POP DUP4 DUP4 DUP3 DUP2 SLOAD DUP2 LT PUSH2 0x19C0 JUMPI PUSH2 0x19BF PUSH2 0x211E JUMP JUMPDEST JUMPDEST SWAP1 PUSH1 0x0 MSTORE PUSH1 0x20 PUSH1 0x0 KECCAK256 SWAP1 PUSH1 0x4 MUL ADD PUSH1 0x0 ADD DUP2 SWAP1 SSTORE POP PUSH2 0x1ACD PUSH2 0x1ABC DUP5 DUP4 DUP2 SLOAD DUP2 LT PUSH2 0x19EE JUMPI PUSH2 0x19ED PUSH2 0x211E JUMP JUMPDEST JUMPDEST SWAP1 PUSH1 0x0 MSTORE PUSH1 0x20 PUSH1 0x0 KECCAK256 SWAP1 PUSH1 0x4 MUL ADD PUSH1 0x40 MLOAD DUP1 PUSH1 0xA0 ADD PUSH1 0x40 MSTORE SWAP1 DUP2 PUSH1 0x0 DUP3 ADD SLOAD DUP2 MSTORE PUSH1 0x20 ADD PUSH1 0x1 DUP3 ADD SLOAD DUP2 MSTORE PUSH1 0x20 ADD PUSH1 0x2 DUP3 ADD SLOAD DUP2 MSTORE PUSH1 0x20 ADD PUSH1 0x3 DUP3 ADD PUSH1 0x0 SWAP1 SLOAD SWAP1 PUSH2 0x100 EXP SWAP1 DIV PUSH31 0xFFFFFFFFFFFFFFFFFFFFFFFFFFFFFFFFFFFFFFFFFFFFFFFFFFFFFFFFFFFFFF AND PUSH31 0xFFFFFFFFFFFFFFFFFFFFFFFFFFFFFFFFFFFFFFFFFFFFFFFFFFFFFFFFFFFFFF AND PUSH31 0xFFFFFFFFFFFFFFFFFFFFFFFFFFFFFFFFFFFFFFFFFFFFFFFFFFFFFFFFFFFFFF AND DUP2 MSTORE PUSH1 0x20 ADD PUSH1 0x3 DUP3 ADD PUSH1 0x1F SWAP1 SLOAD SWAP1 PUSH2 0x100 EXP SWAP1 DIV PUSH1 0xFF AND ISZERO ISZERO ISZERO ISZERO DUP2 MSTORE POP POP PUSH2 0x1413 JUMP JUMPDEST PUSH1 0x3 SLOAD PUSH2 0x1495 SWAP1 SWAP2 SWAP1 PUSH4 0xFFFFFFFF AND JUMP JUMPDEST PUSH1 0x3 DUP2 SWAP1 SSTORE POP DUP7 PUSH20 0xFFFFFFFFFFFFFFFFFFFFFFFFFFFFFFFFFFFFFFFF AND PUSH32 0xB4CAAF29ADDA3EEFEE3AD552A8E85058589BF834C7466CAE4EE58787F70589ED DUP6 DUP9 DUP9 PUSH1 0x40 MLOAD PUSH2 0x1B1D SWAP4 SWAP3 SWAP2 SWAP1 PUSH2 0x2745 JUMP JUMPDEST PUSH1 0x40 MLOAD DUP1 SWAP2 SUB SWAP1 LOG2 POP POP POP POP POP POP POP JUMP JUMPDEST PUSH1 0x0 DUP2 SWAP1 POP SWAP2 SWAP1 POP JUMP JUMPDEST PUSH2 0x1B41 DUP2 PUSH2 0x1B2E JUMP JUMPDEST DUP3 MSTORE POP POP JUMP JUMPDEST PUSH1 0x0 PUSH1 0x20 DUP3 ADD SWAP1 POP PUSH2 0x1B5C PUSH1 0x0 DUP4 ADD DUP5 PUSH2 0x1B38 JUMP JUMPDEST SWAP3 SWAP2 POP POP JUMP JUMPDEST PUSH1 0x0 DUP3 DUP3 MSTORE PUSH1 0x20 DUP3 ADD SWAP1 POP SWAP3 SWAP2 POP POP JUMP JUMPDEST DUP3 DUP2 DUP4 CALLDATACOPY PUSH1 0x0 DUP4 DUP4 ADD MSTORE POP POP POP JUMP JUMPDEST PUSH1 0x0 PUSH1 0x1F NOT PUSH1 0x1F DUP4 ADD AND SWAP1 POP SWAP2 SWAP1 POP JUMP JUMPDEST PUSH1 0x0 PUSH2 0x1B9F DUP4 DUP6 PUSH2 0x1B62 JUMP JUMPDEST SWAP4 POP PUSH2 0x1BAC DUP4 DUP6 DUP5 PUSH2 0x1B73 JUMP JUMPDEST PUSH2 0x1BB5 DUP4 PUSH2 0x1B82 JUMP JUMPDEST DUP5 ADD SWAP1 POP SWAP4 SWAP3 POP POP POP JUMP JUMPDEST PUSH1 0x0 PUSH20 0xFFFFFFFFFFFFFFFFFFFFFFFFFFFFFFFFFFFFFFFF DUP3 AND SWAP1 POP SWAP2 SWAP1 POP JUMP JUMPDEST PUSH1 0x0 PUSH2 0x1BEB DUP3 PUSH2 0x1BC0 JUMP JUMPDEST SWAP1 POP SWAP2 SWAP1 POP JUMP JUMPDEST PUSH2 0x1BFB DUP2 PUSH2 0x1BE0 JUMP JUMPDEST DUP3 MSTORE POP POP JUMP JUMPDEST PUSH1 0x0 PUSH1 0x60 DUP3 ADD SWAP1 POP DUP2 DUP2 SUB PUSH1 0x0 DUP4 ADD MSTORE PUSH2 0x1C1C DUP2 DUP7 DUP9 PUSH2 0x1B93 JUMP JUMPDEST SWAP1 POP PUSH2 0x1C2B PUSH1 0x20 DUP4 ADD DUP6 PUSH2 0x1BF2 JUMP JUMPDEST PUSH2 0x1C38 PUSH1 0x40 DUP4 ADD DUP5 PUSH2 0x1B38 JUMP JUMPDEST SWAP6 SWAP5 POP POP POP POP POP JUMP JUMPDEST PUSH1 0x0 DUP1 REVERT JUMPDEST PUSH2 0x1C4F DUP2 PUSH2 0x1BE0 JUMP JUMPDEST DUP2 EQ PUSH2 0x1C5A JUMPI PUSH1 0x0 DUP1 REVERT JUMPDEST POP JUMP JUMPDEST PUSH1 0x0 DUP2 CALLDATALOAD SWAP1 POP PUSH2 0x1C6C DUP2 PUSH2 0x1C46 JUMP JUMPDEST SWAP3 SWAP2 POP POP JUMP JUMPDEST PUSH1 0x0 PUSH1 0x20 DUP3 DUP5 SUB SLT ISZERO PUSH2 0x1C88 JUMPI PUSH2 0x1C87 PUSH2 0x1C41 JUMP JUMPDEST JUMPDEST PUSH1 0x0 PUSH2 0x1C96 DUP5 DUP3 DUP6 ADD PUSH2 0x1C5D JUMP JUMPDEST SWAP2 POP POP SWAP3 SWAP2 POP POP JUMP JUMPDEST PUSH1 0x0 DUP2 MLOAD SWAP1 POP SWAP2 SWAP1 POP JUMP JUMPDEST PUSH1 0x0 DUP3 DUP3 MSTORE PUSH1 0x20 DUP3 ADD SWAP1 POP SWAP3 SWAP2 POP POP JUMP JUMPDEST PUSH1 0x0 DUP2 SWAP1 POP PUSH1 0x20 DUP3 ADD SWAP1 POP SWAP2 SWAP1 POP JUMP JUMPDEST PUSH2 0x1CD4 DUP2 PUSH2 0x1B2E JUMP JUMPDEST DUP3 MSTORE POP POP JUMP JUMPDEST PUSH1 0x0 PUSH31 0xFFFFFFFFFFFFFFFFFFFFFFFFFFFFFFFFFFFFFFFFFFFFFFFFFFFFFFFFFFFFFF DUP3 AND SWAP1 POP SWAP2 SWAP1 POP JUMP JUMPDEST PUSH2 0x1D0E DUP2 PUSH2 0x1CDA JUMP JUMPDEST DUP3 MSTORE POP POP JUMP JUMPDEST PUSH1 0x0 DUP2 ISZERO ISZERO SWAP1 POP SWAP2 SWAP1 POP JUMP JUMPDEST PUSH2 0x1D29 DUP2 PUSH2 0x1D14 JUMP JUMPDEST DUP3 MSTORE POP POP JUMP JUMPDEST PUSH1 0xA0 DUP3 ADD PUSH1 0x0 DUP3 ADD MLOAD PUSH2 0x1D45 PUSH1 0x0 DUP6 ADD DUP3 PUSH2 0x1CCB JUMP JUMPDEST POP PUSH1 0x20 DUP3 ADD MLOAD PUSH2 0x1D58 PUSH1 0x20 DUP6 ADD DUP3 PUSH2 0x1CCB JUMP JUMPDEST POP PUSH1 0x40 DUP3 ADD MLOAD PUSH2 0x1D6B PUSH1 0x40 DUP6 ADD DUP3 PUSH2 0x1CCB JUMP JUMPDEST POP PUSH1 0x60 DUP3 ADD MLOAD PUSH2 0x1D7E PUSH1 0x60 DUP6 ADD DUP3 PUSH2 0x1D05 JUMP JUMPDEST POP PUSH1 0x80 DUP3 ADD MLOAD PUSH2 0x1D91 PUSH1 0x80 DUP6 ADD DUP3 PUSH2 0x1D20 JUMP JUMPDEST POP POP POP POP JUMP JUMPDEST PUSH1 0x0 PUSH2 0x1DA3 DUP4 DUP4 PUSH2 0x1D2F JUMP JUMPDEST PUSH1 0xA0 DUP4 ADD SWAP1 POP SWAP3 SWAP2 POP POP JUMP JUMPDEST PUSH1 0x0 PUSH1 0x20 DUP3 ADD SWAP1 POP SWAP2 SWAP1 POP JUMP JUMPDEST PUSH1 0x0 PUSH2 0x1DC7 DUP3 PUSH2 0x1C9F JUMP JUMPDEST PUSH2 0x1DD1 DUP2 DUP6 PUSH2 0x1CAA JUMP JUMPDEST SWAP4 POP PUSH2 0x1DDC DUP4 PUSH2 0x1CBB JUMP JUMPDEST DUP1 PUSH1 0x0 JUMPDEST DUP4 DUP2 LT ISZERO PUSH2 0x1E0D JUMPI DUP2 MLOAD PUSH2 0x1DF4 DUP9 DUP3 PUSH2 0x1D97 JUMP JUMPDEST SWAP8 POP PUSH2 0x1DFF DUP4 PUSH2 0x1DAF JUMP JUMPDEST SWAP3 POP POP PUSH1 0x1 DUP2 ADD SWAP1 POP PUSH2 0x1DE0 JUMP JUMPDEST POP DUP6 SWAP4 POP POP POP POP SWAP3 SWAP2 POP POP JUMP JUMPDEST PUSH1 0x0 PUSH1 0x20 DUP3 ADD SWAP1 POP DUP2 DUP2 SUB PUSH1 0x0 DUP4 ADD MSTORE PUSH2 0x1E34 DUP2 DUP5 PUSH2 0x1DBC JUMP JUMPDEST SWAP1 POP SWAP3 SWAP2 POP POP JUMP JUMPDEST PUSH2 0x1E45 DUP2 PUSH2 0x1B2E JUMP JUMPDEST DUP2 EQ PUSH2 0x1E50 JUMPI PUSH1 0x0 DUP1 REVERT JUMPDEST POP JUMP JUMPDEST PUSH1 0x0 DUP2 CALLDATALOAD SWAP1 POP PUSH2 0x1E62 DUP2 PUSH2 0x1E3C JUMP JUMPDEST SWAP3 SWAP2 POP POP JUMP JUMPDEST PUSH1 0x0 PUSH1 0x20 DUP3 DUP5 SUB SLT ISZERO PUSH2 0x1E7E JUMPI PUSH2 0x1E7D PUSH2 0x1C41 JUMP JUMPDEST JUMPDEST PUSH1 0x0 PUSH2 0x1E8C DUP5 DUP3 DUP6 ADD PUSH2 0x1E53 JUMP JUMPDEST SWAP2 POP POP SWAP3 SWAP2 POP POP JUMP JUMPDEST PUSH2 0x1E9E DUP2 PUSH2 0x1D14 JUMP JUMPDEST DUP2 EQ PUSH2 0x1EA9 JUMPI PUSH1 0x0 DUP1 REVERT JUMPDEST POP JUMP JUMPDEST PUSH1 0x0 DUP2 CALLDATALOAD SWAP1 POP PUSH2 0x1EBB DUP2 PUSH2 0x1E95 JUMP JUMPDEST SWAP3 SWAP2 POP POP JUMP JUMPDEST PUSH1 0x0 PUSH1 0x20 DUP3 DUP5 SUB SLT ISZERO PUSH2 0x1ED7 JUMPI PUSH2 0x1ED6 PUSH2 0x1C41 JUMP JUMPDEST JUMPDEST PUSH1 0x0 PUSH2 0x1EE5 DUP5 DUP3 DUP6 ADD PUSH2 0x1EAC JUMP JUMPDEST SWAP2 POP POP SWAP3 SWAP2 POP POP JUMP JUMPDEST PUSH1 0x0 DUP1 PUSH1 0x40 DUP4 DUP6 SUB SLT ISZERO PUSH2 0x1F05 JUMPI PUSH2 0x1F04 PUSH2 0x1C41 JUMP JUMPDEST JUMPDEST PUSH1 0x0 PUSH2 0x1F13 DUP6 DUP3 DUP7 ADD PUSH2 0x1E53 JUMP JUMPDEST SWAP3 POP POP PUSH1 0x20 PUSH2 0x1F24 DUP6 DUP3 DUP7 ADD PUSH2 0x1E53 JUMP JUMPDEST SWAP2 POP POP SWAP3 POP SWAP3 SWAP1 POP JUMP JUMPDEST PUSH2 0x1F37 DUP2 PUSH2 0x1D14 JUMP JUMPDEST DUP3 MSTORE POP POP JUMP JUMPDEST PUSH1 0x0 PUSH1 0x20 DUP3 ADD SWAP1 POP PUSH2 0x1F52 PUSH1 0x0 DUP4 ADD DUP5 PUSH2 0x1F2E JUMP JUMPDEST SWAP3 SWAP2 POP POP JUMP JUMPDEST PUSH1 0x0 PUSH1 0x40 DUP3 ADD SWAP1 POP PUSH2 0x1F6D PUSH1 0x0 DUP4 ADD DUP6 PUSH2 0x1B38 JUMP JUMPDEST PUSH2 0x1F7A PUSH1 0x20 DUP4 ADD DUP5 PUSH2 0x1B38 JUMP JUMPDEST SWAP4 SWAP3 POP POP POP JUMP JUMPDEST PUSH1 0x0 PUSH1 0x20 DUP3 ADD SWAP1 POP PUSH2 0x1F96 PUSH1 0x0 DUP4 ADD DUP5 PUSH2 0x1BF2 JUMP JUMPDEST SWAP3 SWAP2 POP POP JUMP JUMPDEST PUSH1 0x0 DUP1 PUSH1 0x40 DUP4 DUP6 SUB SLT ISZERO PUSH2 0x1FB3 JUMPI PUSH2 0x1FB2 PUSH2 0x1C41 JUMP JUMPDEST JUMPDEST PUSH1 0x0 PUSH2 0x1FC1 DUP6 DUP3 DUP7 ADD PUSH2 0x1C5D JUMP JUMPDEST SWAP3 POP POP PUSH1 0x20 PUSH2 0x1FD2 DUP6 DUP3 DUP7 ADD PUSH2 0x1E53 JUMP JUMPDEST SWAP2 POP POP SWAP3 POP SWAP3 SWAP1 POP JUMP JUMPDEST PUSH2 0x1FE5 DUP2 PUSH2 0x1CDA JUMP JUMPDEST DUP3 MSTORE POP POP JUMP JUMPDEST PUSH1 0x0 PUSH1 0xA0 DUP3 ADD SWAP1 POP PUSH2 0x2000 PUSH1 0x0 DUP4 ADD DUP9 PUSH2 0x1B38 JUMP JUMPDEST PUSH2 0x200D PUSH1 0x20 DUP4 ADD DUP8 PUSH2 0x1B38 JUMP JUMPDEST PUSH2 0x201A PUSH1 0x40 DUP4 ADD DUP7 PUSH2 0x1B38 JUMP JUMPDEST PUSH2 0x2027 PUSH1 0x60 DUP4 ADD DUP6 PUSH2 0x1FDC JUMP JUMPDEST PUSH2 0x2034 PUSH1 0x80 DUP4 ADD DUP5 PUSH2 0x1F2E JUMP JUMPDEST SWAP7 SWAP6 POP POP POP POP POP POP JUMP JUMPDEST PUSH1 0x0 DUP3 DUP3 MSTORE PUSH1 0x20 DUP3 ADD SWAP1 POP SWAP3 SWAP2 POP POP JUMP JUMPDEST PUSH32 0x4E6F7468696E67207374616B6564000000000000000000000000000000000000 PUSH1 0x0 DUP3 ADD MSTORE POP JUMP JUMPDEST PUSH1 0x0 PUSH2 0x2085 PUSH1 0xE DUP4 PUSH2 0x203E JUMP JUMPDEST SWAP2 POP PUSH2 0x2090 DUP3 PUSH2 0x204F JUMP JUMPDEST PUSH1 0x20 DUP3 ADD SWAP1 POP SWAP2 SWAP1 POP JUMP JUMPDEST PUSH1 0x0 PUSH1 0x20 DUP3 ADD SWAP1 POP DUP2 DUP2 SUB PUSH1 0x0 DUP4 ADD MSTORE PUSH2 0x20B4 DUP2 PUSH2 0x2078 JUMP JUMPDEST SWAP1 POP SWAP2 SWAP1 POP JUMP JUMPDEST PUSH32 0x4E487B7100000000000000000000000000000000000000000000000000000000 PUSH1 0x0 MSTORE PUSH1 0x11 PUSH1 0x4 MSTORE PUSH1 0x24 PUSH1 0x0 REVERT JUMPDEST PUSH1 0x0 PUSH2 0x20F5 DUP3 PUSH2 0x1B2E JUMP JUMPDEST SWAP2 POP PUSH2 0x2100 DUP4 PUSH2 0x1B2E JUMP JUMPDEST SWAP3 POP DUP3 DUP3 SUB SWAP1 POP DUP2 DUP2 GT ISZERO PUSH2 0x2118 JUMPI PUSH2 0x2117 PUSH2 0x20BB JUMP JUMPDEST JUMPDEST SWAP3 SWAP2 POP POP JUMP JUMPDEST PUSH32 0x4E487B7100000000000000000000000000000000000000000000000000000000 PUSH1 0x0 MSTORE PUSH1 0x32 PUSH1 0x4 MSTORE PUSH1 0x24 PUSH1 0x0 REVERT JUMPDEST PUSH32 0x596F752063616E6E6F7420756E7374616B65642074686973206E6F7700000000 PUSH1 0x0 DUP3 ADD MSTORE POP JUMP JUMPDEST PUSH1 0x0 PUSH2 0x2183 PUSH1 0x1C DUP4 PUSH2 0x203E JUMP JUMPDEST SWAP2 POP PUSH2 0x218E DUP3 PUSH2 0x214D JUMP JUMPDEST PUSH1 0x20 DUP3 ADD SWAP1 POP SWAP2 SWAP1 POP JUMP JUMPDEST PUSH1 0x0 PUSH1 0x20 DUP3 ADD SWAP1 POP DUP2 DUP2 SUB PUSH1 0x0 DUP4 ADD MSTORE PUSH2 0x21B2 DUP2 PUSH2 0x2176 JUMP JUMPDEST SWAP1 POP SWAP2 SWAP1 POP JUMP JUMPDEST PUSH32 0x5374616B6520697320696E206C6F636B2D757000000000000000000000000000 PUSH1 0x0 DUP3 ADD MSTORE POP JUMP JUMPDEST PUSH1 0x0 PUSH2 0x21EF PUSH1 0x13 DUP4 PUSH2 0x203E JUMP JUMPDEST SWAP2 POP PUSH2 0x21FA DUP3 PUSH2 0x21B9 JUMP JUMPDEST PUSH1 0x20 DUP3 ADD SWAP1 POP SWAP2 SWAP1 POP JUMP JUMPDEST PUSH1 0x0 PUSH1 0x20 DUP3 ADD SWAP1 POP DUP2 DUP2 SUB PUSH1 0x0 DUP4 ADD MSTORE PUSH2 0x221E DUP2 PUSH2 0x21E2 JUMP JUMPDEST SWAP1 POP SWAP2 SWAP1 POP JUMP JUMPDEST PUSH32 0x5374616B696E6720706175736564000000000000000000000000000000000000 PUSH1 0x0 DUP3 ADD MSTORE POP JUMP JUMPDEST PUSH1 0x0 PUSH2 0x225B PUSH1 0xE DUP4 PUSH2 0x203E JUMP JUMPDEST SWAP2 POP PUSH2 0x2266 DUP3 PUSH2 0x2225 JUMP JUMPDEST PUSH1 0x20 DUP3 ADD SWAP1 POP SWAP2 SWAP1 POP JUMP JUMPDEST PUSH1 0x0 PUSH1 0x20 DUP3 ADD SWAP1 POP DUP2 DUP2 SUB PUSH1 0x0 DUP4 ADD MSTORE PUSH2 0x228A DUP2 PUSH2 0x224E JUMP JUMPDEST SWAP1 POP SWAP2 SWAP1 POP JUMP JUMPDEST PUSH1 0x0 PUSH2 0x229C DUP3 PUSH2 0x1B2E JUMP JUMPDEST SWAP2 POP PUSH32 0xFFFFFFFFFFFFFFFFFFFFFFFFFFFFFFFFFFFFFFFFFFFFFFFFFFFFFFFFFFFFFFFF DUP3 SUB PUSH2 0x22CE JUMPI PUSH2 0x22CD PUSH2 0x20BB JUMP JUMPDEST JUMPDEST PUSH1 0x1 DUP3 ADD SWAP1 POP SWAP2 SWAP1 POP JUMP JUMPDEST PUSH1 0x0 PUSH2 0x22E4 DUP3 PUSH2 0x1B2E JUMP JUMPDEST SWAP2 POP PUSH1 0x0 DUP3 SUB PUSH2 0x22F7 JUMPI PUSH2 0x22F6 PUSH2 0x20BB JUMP JUMPDEST JUMPDEST PUSH1 0x1 DUP3 SUB SWAP1 POP SWAP2 SWAP1 POP JUMP JUMPDEST PUSH32 0x416C6C207374616B657320696E206C6F636B2D75700000000000000000000000 PUSH1 0x0 DUP3 ADD MSTORE POP JUMP JUMPDEST PUSH1 0x0 PUSH2 0x2338 PUSH1 0x15 DUP4 PUSH2 0x203E JUMP JUMPDEST SWAP2 POP PUSH2 0x2343 DUP3 PUSH2 0x2302 JUMP JUMPDEST PUSH1 0x20 DUP3 ADD SWAP1 POP SWAP2 SWAP1 POP JUMP JUMPDEST PUSH1 0x0 PUSH1 0x20 DUP3 ADD SWAP1 POP DUP2 DUP2 SUB PUSH1 0x0 DUP4 ADD MSTORE PUSH2 0x2367 DUP2 PUSH2 0x232B JUMP JUMPDEST SWAP1 POP SWAP2 SWAP1 POP JUMP JUMPDEST PUSH32 0x4F776E61626C653A206E6577206F776E657220697320746865207A65726F2061 PUSH1 0x0 DUP3 ADD MSTORE PUSH32 0x6464726573730000000000000000000000000000000000000000000000000000 PUSH1 0x20 DUP3 ADD MSTORE POP JUMP JUMPDEST PUSH1 0x0 PUSH2 0x23CA PUSH1 0x26 DUP4 PUSH2 0x203E JUMP JUMPDEST SWAP2 POP PUSH2 0x23D5 DUP3 PUSH2 0x236E JUMP JUMPDEST PUSH1 0x40 DUP3 ADD SWAP1 POP SWAP2 SWAP1 POP JUMP JUMPDEST PUSH1 0x0 PUSH1 0x20 DUP3 ADD SWAP1 POP DUP2 DUP2 SUB PUSH1 0x0 DUP4 ADD MSTORE PUSH2 0x23F9 DUP2 PUSH2 0x23BD JUMP JUMPDEST SWAP1 POP SWAP2 SWAP1 POP JUMP JUMPDEST PUSH32 0x4F776E61626C653A2063616C6C6572206973206E6F7420746865206F776E6572 PUSH1 0x0 DUP3 ADD MSTORE POP JUMP JUMPDEST PUSH1 0x0 PUSH2 0x2436 PUSH1 0x20 DUP4 PUSH2 0x203E JUMP JUMPDEST SWAP2 POP PUSH2 0x2441 DUP3 PUSH2 0x2400 JUMP JUMPDEST PUSH1 0x20 DUP3 ADD SWAP1 POP SWAP2 SWAP1 POP JUMP JUMPDEST PUSH1 0x0 PUSH1 0x20 DUP3 ADD SWAP1 POP DUP2 DUP2 SUB PUSH1 0x0 DUP4 ADD MSTORE PUSH2 0x2465 DUP2 PUSH2 0x2429 JUMP JUMPDEST SWAP1 POP SWAP2 SWAP1 POP JUMP JUMPDEST PUSH1 0x0 PUSH2 0x2477 DUP3 PUSH2 0x1B2E JUMP JUMPDEST SWAP2 POP PUSH2 0x2482 DUP4 PUSH2 0x1B2E JUMP JUMPDEST SWAP3 POP DUP3 DUP3 ADD SWAP1 POP DUP1 DUP3 GT ISZERO PUSH2 0x249A JUMPI PUSH2 0x2499 PUSH2 0x20BB JUMP JUMPDEST JUMPDEST SWAP3 SWAP2 POP POP JUMP JUMPDEST PUSH32 0x4D61782072617465206578636565646564000000000000000000000000000000 PUSH1 0x0 DUP3 ADD MSTORE POP JUMP JUMPDEST PUSH1 0x0 PUSH2 0x24D6 PUSH1 0x11 DUP4 PUSH2 0x203E JUMP JUMPDEST SWAP2 POP PUSH2 0x24E1 DUP3 PUSH2 0x24A0 JUMP JUMPDEST PUSH1 0x20 DUP3 ADD SWAP1 POP SWAP2 SWAP1 POP JUMP JUMPDEST PUSH1 0x0 PUSH1 0x20 DUP3 ADD SWAP1 POP DUP2 DUP2 SUB PUSH1 0x0 DUP4 ADD MSTORE PUSH2 0x2505 DUP2 PUSH2 0x24C9 JUMP JUMPDEST SWAP1 POP SWAP2 SWAP1 POP JUMP JUMPDEST PUSH32 0x43616E6E6F74207374616B652030000000000000000000000000000000000000 PUSH1 0x0 DUP3 ADD MSTORE POP JUMP JUMPDEST PUSH1 0x0 PUSH2 0x2542 PUSH1 0xE DUP4 PUSH2 0x203E JUMP JUMPDEST SWAP2 POP PUSH2 0x254D DUP3 PUSH2 0x250C JUMP JUMPDEST PUSH1 0x20 DUP3 ADD SWAP1 POP SWAP2 SWAP1 POP JUMP JUMPDEST PUSH1 0x0 PUSH1 0x20 DUP3 ADD SWAP1 POP DUP2 DUP2 SUB PUSH1 0x0 DUP4 ADD MSTORE PUSH2 0x2571 DUP2 PUSH2 0x2535 JUMP JUMPDEST SWAP1 POP SWAP2 SWAP1 POP JUMP JUMPDEST PUSH32 0x496E76616C6964206475726174696F6E00000000000000000000000000000000 PUSH1 0x0 DUP3 ADD MSTORE POP JUMP JUMPDEST PUSH1 0x0 PUSH2 0x25AE PUSH1 0x10 DUP4 PUSH2 0x203E JUMP JUMPDEST SWAP2 POP PUSH2 0x25B9 DUP3 PUSH2 0x2578 JUMP JUMPDEST PUSH1 0x20 DUP3 ADD SWAP1 POP SWAP2 SWAP1 POP JUMP JUMPDEST PUSH1 0x0 PUSH1 0x20 DUP3 ADD SWAP1 POP DUP2 DUP2 SUB PUSH1 0x0 DUP4 ADD MSTORE PUSH2 0x25DD DUP2 PUSH2 0x25A1 JUMP JUMPDEST SWAP1 POP SWAP2 SWAP1 POP JUMP JUMPDEST PUSH32 0x7075742076616C6964206475726174696F6E0000000000000000000000000000 PUSH1 0x0 DUP3 ADD MSTORE POP JUMP JUMPDEST PUSH1 0x0 PUSH2 0x261A PUSH1 0x12 DUP4 PUSH2 0x203E JUMP JUMPDEST SWAP2 POP PUSH2 0x2625 DUP3 PUSH2 0x25E4 JUMP JUMPDEST PUSH1 0x20 DUP3 ADD SWAP1 POP SWAP2 SWAP1 POP JUMP JUMPDEST PUSH1 0x0 PUSH1 0x20 DUP3 ADD SWAP1 POP DUP2 DUP2 SUB PUSH1 0x0 DUP4 ADD MSTORE PUSH2 0x2649 DUP2 PUSH2 0x260D JUMP JUMPDEST SWAP1 POP SWAP2 SWAP1 POP JUMP JUMPDEST PUSH1 0x0 PUSH2 0x265B DUP3 PUSH2 0x1B2E JUMP JUMPDEST SWAP2 POP PUSH2 0x2666 DUP4 PUSH2 0x1B2E JUMP JUMPDEST SWAP3 POP DUP2 PUSH32 0xFFFFFFFFFFFFFFFFFFFFFFFFFFFFFFFFFFFFFFFFFFFFFFFFFFFFFFFFFFFFFFFF DIV DUP4 GT DUP3 ISZERO ISZERO AND ISZERO PUSH2 0x269F JUMPI PUSH2 0x269E PUSH2 0x20BB JUMP JUMPDEST JUMPDEST DUP3 DUP3 MUL SWAP1 POP SWAP3 SWAP2 POP POP JUMP JUMPDEST PUSH32 0x4E487B7100000000000000000000000000000000000000000000000000000000 PUSH1 0x0 MSTORE PUSH1 0x12 PUSH1 0x4 MSTORE PUSH1 0x24 PUSH1 0x0 REVERT JUMPDEST PUSH1 0x0 PUSH2 0x26E4 DUP3 PUSH2 0x1B2E JUMP JUMPDEST SWAP2 POP PUSH2 0x26EF DUP4 PUSH2 0x1B2E JUMP JUMPDEST SWAP3 POP DUP3 PUSH2 0x26FF JUMPI PUSH2 0x26FE PUSH2 0x26AA JUMP JUMPDEST JUMPDEST DUP3 DUP3 DIV SWAP1 POP SWAP3 SWAP2 POP POP JUMP JUMPDEST PUSH1 0x0 DUP2 SWAP1 POP SWAP2 SWAP1 POP JUMP JUMPDEST PUSH1 0x0 PUSH2 0x272F PUSH2 0x272A PUSH2 0x2725 DUP5 PUSH2 0x1CDA JUMP JUMPDEST PUSH2 0x270A JUMP JUMPDEST PUSH2 0x1B2E JUMP JUMPDEST SWAP1 POP SWAP2 SWAP1 POP JUMP JUMPDEST PUSH2 0x273F DUP2 PUSH2 0x2714 JUMP JUMPDEST DUP3 MSTORE POP POP JUMP JUMPDEST PUSH1 0x0 PUSH1 0x60 DUP3 ADD SWAP1 POP PUSH2 0x275A PUSH1 0x0 DUP4 ADD DUP7 PUSH2 0x1B38 JUMP JUMPDEST PUSH2 0x2767 PUSH1 0x20 DUP4 ADD DUP6 PUSH2 0x1B38 JUMP JUMPDEST PUSH2 0x2774 PUSH1 0x40 DUP4 ADD DUP5 PUSH2 0x2736 JUMP JUMPDEST SWAP5 SWAP4 POP POP POP POP JUMP INVALID LOG2 PUSH5 0x6970667358 0x22 SLT KECCAK256 0xD2 CALLVALUE DUP4 CALLDATASIZE PUSH14 0x8561C11E9C6CB3769FB35E696B1A PUSH15 0x5A87E24FB957F676E4A0860A64736F PUSH13 0x63430008100033000000000000 "
				},
				"gasEstimates": {
					"creation": {
						"codeDepositCost": "2032400",
						"executionCost": "infinite",
						"totalCost": "infinite"
					},
					"external": {
						"": "infinite",
						"addNewDurationRates(uint256,uint256)": "infinite",
						"durationRewardRate(uint256)": "infinite",
						"durations(uint256)": "infinite",
						"exit()": "infinite",
						"getAllStakes(address)": "infinite",
						"getContractBalance()": "2780",
						"owner()": "2611",
						"paused()": "2538",
						"rates(uint256)": "infinite",
						"renounceOwnership()": "30509",
						"setPaused(bool)": "infinite",
						"stake(uint256,uint256)": "infinite",
						"totalHoldings(address)": "infinite",
						"totalOutstanding()": "2497",
						"totalStaked(address)": "infinite",
						"transferOwnership(address)": "30854",
						"unstake(uint256)": "infinite",
						"userStakes(address,uint256)": "infinite",
						"withdrawLiquidity(uint256)": "2994"
					},
					"internal": {
						"_addNewDurationRates(uint256,uint256)": "infinite",
						"_findDurationRate(uint256)": "infinite",
						"_stake(address,uint256,uint248,uint256)": "infinite",
						"_stakeWithChecks(address,uint256,uint256)": "infinite",
						"_totalExpected(struct UpdatedV3DynamicStakingContract.Stake memory)": "infinite"
					}
				},
				"methodIdentifiers": {
					"addNewDurationRates(uint256,uint256)": "3472d465",
					"durationRewardRate(uint256)": "825e0e80",
					"durations(uint256)": "bc20a7af",
					"exit()": "e9fad8ee",
					"getAllStakes(address)": "04238994",
					"getContractBalance()": "6f9fb98a",
					"owner()": "8da5cb5b",
					"paused()": "5c975abb",
					"rates(uint256)": "dd418ae2",
					"renounceOwnership()": "715018a6",
					"setPaused(bool)": "16c38b3c",
					"stake(uint256,uint256)": "7b0472f0",
					"totalHoldings(address)": "86efe63c",
					"totalOutstanding()": "16078d04",
					"totalStaked(address)": "9bfd8d61",
					"transferOwnership(address)": "f2fde38b",
					"unstake(uint256)": "2e17de78",
					"userStakes(address,uint256)": "b5d5b5fa",
					"withdrawLiquidity(uint256)": "0a861f2a"
				}
			},
			"storageLayout": {
				"storage": [
					{
						"astId": 932,
						"contract": "contracts/stakingContract.sol:UpdatedV3DynamicStakingContract",
						"label": "_owner",
						"offset": 0,
						"slot": "0",
						"type": "t_address"
					},
					{
						"astId": 1048,
						"contract": "contracts/stakingContract.sol:UpdatedV3DynamicStakingContract",
						"label": "durations",
						"offset": 0,
						"slot": "1",
						"type": "t_array(t_uint256)dyn_storage"
					},
					{
						"astId": 1056,
						"contract": "contracts/stakingContract.sol:UpdatedV3DynamicStakingContract",
						"label": "rates",
						"offset": 0,
						"slot": "2",
						"type": "t_array(t_uint256)dyn_storage"
					},
					{
						"astId": 1079,
						"contract": "contracts/stakingContract.sol:UpdatedV3DynamicStakingContract",
						"label": "totalOutstanding",
						"offset": 0,
						"slot": "3",
						"type": "t_uint256"
					},
					{
						"astId": 1081,
						"contract": "contracts/stakingContract.sol:UpdatedV3DynamicStakingContract",
						"label": "paused",
						"offset": 0,
						"slot": "4",
						"type": "t_bool"
					},
					{
						"astId": 1087,
						"contract": "contracts/stakingContract.sol:UpdatedV3DynamicStakingContract",
						"label": "userStakes",
						"offset": 0,
						"slot": "5",
						"type": "t_mapping(t_address,t_array(t_struct(Stake)1077_storage)dyn_storage)"
					}
				],
				"types": {
					"t_address": {
						"encoding": "inplace",
						"label": "address",
						"numberOfBytes": "20"
					},
					"t_array(t_struct(Stake)1077_storage)dyn_storage": {
						"base": "t_struct(Stake)1077_storage",
						"encoding": "dynamic_array",
						"label": "struct UpdatedV3DynamicStakingContract.Stake[]",
						"numberOfBytes": "32"
					},
					"t_array(t_uint256)dyn_storage": {
						"base": "t_uint256",
						"encoding": "dynamic_array",
						"label": "uint256[]",
						"numberOfBytes": "32"
					},
					"t_bool": {
						"encoding": "inplace",
						"label": "bool",
						"numberOfBytes": "1"
					},
					"t_mapping(t_address,t_array(t_struct(Stake)1077_storage)dyn_storage)": {
						"encoding": "mapping",
						"key": "t_address",
						"label": "mapping(address => struct UpdatedV3DynamicStakingContract.Stake[])",
						"numberOfBytes": "32",
						"value": "t_array(t_struct(Stake)1077_storage)dyn_storage"
					},
					"t_struct(Stake)1077_storage": {
						"encoding": "inplace",
						"label": "struct UpdatedV3DynamicStakingContract.Stake",
						"members": [
							{
								"astId": 1068,
								"contract": "contracts/stakingContract.sol:UpdatedV3DynamicStakingContract",
								"label": "amount",
								"offset": 0,
								"slot": "0",
								"type": "t_uint256"
							},
							{
								"astId": 1070,
								"contract": "contracts/stakingContract.sol:UpdatedV3DynamicStakingContract",
								"label": "end",
								"offset": 0,
								"slot": "1",
								"type": "t_uint256"
							},
							{
								"astId": 1072,
								"contract": "contracts/stakingContract.sol:UpdatedV3DynamicStakingContract",
								"label": "duration",
								"offset": 0,
								"slot": "2",
								"type": "t_uint256"
							},
							{
								"astId": 1074,
								"contract": "contracts/stakingContract.sol:UpdatedV3DynamicStakingContract",
								"label": "rate",
								"offset": 0,
								"slot": "3",
								"type": "t_uint248"
							},
							{
								"astId": 1076,
								"contract": "contracts/stakingContract.sol:UpdatedV3DynamicStakingContract",
								"label": "paid",
								"offset": 31,
								"slot": "3",
								"type": "t_bool"
							}
						],
						"numberOfBytes": "128"
					},
					"t_uint248": {
						"encoding": "inplace",
						"label": "uint248",
						"numberOfBytes": "31"
					},
					"t_uint256": {
						"encoding": "inplace",
						"label": "uint256",
						"numberOfBytes": "32"
					}
				}
			},
			"userdoc": {
				"kind": "user",
				"methods": {},
				"version": 1
			}
		}
	}
}