{
	"contracts/storageChain.sol": {
		"StakingContract": {
			"abi": [
				{
					"anonymous": false,
					"inputs": [
						{
							"indexed": true,
							"internalType": "address",
							"name": "sender",
							"type": "address"
						},
						{
							"indexed": false,
							"internalType": "uint256",
							"name": "value",
							"type": "uint256"
						}
					],
					"name": "EtherReceived",
					"type": "event"
				},
				{
					"anonymous": false,
					"inputs": [
						{
							"indexed": false,
							"internalType": "bytes",
							"name": "data",
							"type": "bytes"
						},
						{
							"indexed": false,
							"internalType": "address",
							"name": "sender",
							"type": "address"
						},
						{
							"indexed": false,
							"internalType": "uint256",
							"name": "value",
							"type": "uint256"
						}
					],
					"name": "FallbackTriggered",
					"type": "event"
				},
				{
					"anonymous": false,
					"inputs": [
						{
							"indexed": true,
							"internalType": "address",
							"name": "previousOwner",
							"type": "address"
						},
						{
							"indexed": true,
							"internalType": "address",
							"name": "newOwner",
							"type": "address"
						}
					],
					"name": "OwnershipTransferred",
					"type": "event"
				},
				{
					"anonymous": false,
					"inputs": [
						{
							"indexed": true,
							"internalType": "address",
							"name": "add",
							"type": "address"
						},
						{
							"indexed": false,
							"internalType": "uint256",
							"name": "value",
							"type": "uint256"
						}
					],
					"name": "TokenTransfer",
					"type": "event"
				},
				{
					"inputs": [],
					"name": "FlipPauseStatus",
					"outputs": [],
					"stateMutability": "nonpayable",
					"type": "function"
				},
				{
					"inputs": [
						{
							"internalType": "address",
							"name": "",
							"type": "address"
						}
					],
					"name": "NodeStats",
					"outputs": [
						{
							"internalType": "bool",
							"name": "newUser",
							"type": "bool"
						}
					],
					"stateMutability": "view",
					"type": "function"
				},
				{
					"inputs": [],
					"name": "adminTreasury",
					"outputs": [
						{
							"internalType": "uint256",
							"name": "",
							"type": "uint256"
						}
					],
					"stateMutability": "view",
					"type": "function"
				},
				{
					"inputs": [],
					"name": "fillTreasury",
					"outputs": [],
					"stateMutability": "payable",
					"type": "function"
				},
				{
					"inputs": [
						{
							"internalType": "address",
							"name": "account",
							"type": "address"
						}
					],
					"name": "getAllStakes",
					"outputs": [],
					"stateMutability": "nonpayable",
					"type": "function"
				},
				{
					"inputs": [],
					"name": "getContractBalance",
					"outputs": [
						{
							"internalType": "uint256",
							"name": "",
							"type": "uint256"
						}
					],
					"stateMutability": "view",
					"type": "function"
				},
				{
					"inputs": [
						{
							"internalType": "address",
							"name": "user",
							"type": "address"
						}
					],
					"name": "getStake",
					"outputs": [
						{
							"internalType": "uint256",
							"name": "",
							"type": "uint256"
						}
					],
					"stateMutability": "view",
					"type": "function"
				},
				{
					"inputs": [],
					"name": "owner",
					"outputs": [
						{
							"internalType": "address",
							"name": "",
							"type": "address"
						}
					],
					"stateMutability": "view",
					"type": "function"
				},
				{
					"inputs": [],
					"name": "paused",
					"outputs": [
						{
							"internalType": "bool",
							"name": "",
							"type": "bool"
						}
					],
					"stateMutability": "view",
					"type": "function"
				},
				{
					"inputs": [],
					"name": "renounceOwnership",
					"outputs": [],
					"stateMutability": "nonpayable",
					"type": "function"
				},
				{
					"inputs": [],
					"name": "stakeTokens",
					"outputs": [],
					"stateMutability": "payable",
					"type": "function"
				},
				{
					"inputs": [
						{
							"internalType": "address",
							"name": "",
							"type": "address"
						}
					],
					"name": "tokenAmount",
					"outputs": [
						{
							"internalType": "uint256",
							"name": "",
							"type": "uint256"
						}
					],
					"stateMutability": "view",
					"type": "function"
				},
				{
					"inputs": [],
					"name": "totalHoldings",
					"outputs": [],
					"stateMutability": "nonpayable",
					"type": "function"
				},
				{
					"inputs": [],
					"name": "totalStakedTokens",
					"outputs": [
						{
							"internalType": "uint256",
							"name": "",
							"type": "uint256"
						}
					],
					"stateMutability": "view",
					"type": "function"
				},
				{
					"inputs": [
						{
							"internalType": "address",
							"name": "newOwner",
							"type": "address"
						}
					],
					"name": "transferOwnership",
					"outputs": [],
					"stateMutability": "nonpayable",
					"type": "function"
				},
				{
					"inputs": [
						{
							"internalType": "address payable",
							"name": "receiverAddress",
							"type": "address"
						},
						{
							"internalType": "uint256",
							"name": "rewardAmount",
							"type": "uint256"
						}
					],
					"name": "transferRewards",
					"outputs": [],
					"stateMutability": "nonpayable",
					"type": "function"
				},
				{
					"inputs": [
						{
							"internalType": "uint256",
							"name": "amount",
							"type": "uint256"
						},
						{
							"internalType": "address payable",
							"name": "receiver",
							"type": "address"
						}
					],
					"name": "transferTreasuryBalance",
					"outputs": [],
					"stateMutability": "nonpayable",
					"type": "function"
				},
				{
					"inputs": [
						{
							"internalType": "uint256",
							"name": "_tokenAmount",
							"type": "uint256"
						},
						{
							"internalType": "address payable",
							"name": "toAccount",
							"type": "address"
						}
					],
					"name": "unStakeTokens",
					"outputs": [],
					"stateMutability": "nonpayable",
					"type": "function"
				},
				{
					"inputs": [
						{
							"internalType": "address",
							"name": "user",
							"type": "address"
						},
						{
							"internalType": "uint256",
							"name": "_validationRatio",
							"type": "uint256"
						},
						{
							"internalType": "uint256",
							"name": "_upTime",
							"type": "uint256"
						},
						{
							"internalType": "uint256",
							"name": "_bandWidth",
							"type": "uint256"
						},
						{
							"internalType": "uint256",
							"name": "_storageGB",
							"type": "uint256"
						}
					],
					"name": "updateStats",
					"outputs": [],
					"stateMutability": "nonpayable",
					"type": "function"
				},
				{
					"inputs": [
						{
							"internalType": "uint256",
							"name": "amount",
							"type": "uint256"
						},
						{
							"internalType": "address payable",
							"name": "_receiverAddress",
							"type": "address"
						}
					],
					"name": "withDrawFromTreasury",
					"outputs": [],
					"stateMutability": "nonpayable",
					"type": "function"
				},
				{
					"stateMutability": "payable",
					"type": "receive"
				}
			],
			"devdoc": {
				"kind": "dev",
				"methods": {
					"owner()": {
						"details": "Returns the address of the current owner."
					},
					"renounceOwnership()": {
						"details": "Leaves the contract without owner. It will not be possible to call `onlyOwner` functions anymore. Can only be called by the current owner. NOTE: Renouncing ownership will leave the contract without an owner, thereby removing any functionality that is only available to the owner."
					},
					"transferOwnership(address)": {
						"details": "Transfers ownership of the contract to a new account (`newOwner`). Can only be called by the current owner."
					}
				},
				"version": 1
			},
			"evm": {
				"assembly": "    /* \"contracts/storageChain.sol\":165:5614  contract StakingContract is Ownable {... */\n  mstore(0x40, 0x80)\n  callvalue\n  dup1\n  iszero\n  tag_1\n  jumpi\n  0x00\n  dup1\n  revert\ntag_1:\n  pop\n    /* \"@openzeppelin/contracts/access/Ownable.sol\":936:968  _transferOwnership(_msgSender()) */\n  tag_4\n    /* \"@openzeppelin/contracts/access/Ownable.sol\":955:967  _msgSender() */\n  tag_5\n    /* \"@openzeppelin/contracts/access/Ownable.sol\":955:965  _msgSender */\n  shl(0x20, tag_6)\n    /* \"@openzeppelin/contracts/access/Ownable.sol\":955:967  _msgSender() */\n  0x20\n  shr\n  jump\t// in\ntag_5:\n    /* \"@openzeppelin/contracts/access/Ownable.sol\":936:954  _transferOwnership */\n  shl(0x20, tag_7)\n    /* \"@openzeppelin/contracts/access/Ownable.sol\":936:968  _transferOwnership(_msgSender()) */\n  0x20\n  shr\n  jump\t// in\ntag_4:\n    /* \"contracts/storageChain.sol\":165:5614  contract StakingContract is Ownable {... */\n  jump(tag_8)\n    /* \"@openzeppelin/contracts/utils/Context.sol\":640:736  function _msgSender() internal view virtual returns (address) {... */\ntag_6:\n    /* \"@openzeppelin/contracts/utils/Context.sol\":693:700  address */\n  0x00\n    /* \"@openzeppelin/contracts/utils/Context.sol\":719:729  msg.sender */\n  caller\n    /* \"@openzeppelin/contracts/utils/Context.sol\":712:729  return msg.sender */\n  swap1\n  pop\n    /* \"@openzeppelin/contracts/utils/Context.sol\":640:736  function _msgSender() internal view virtual returns (address) {... */\n  swap1\n  jump\t// out\n    /* \"@openzeppelin/contracts/access/Ownable.sol\":2433:2620  function _transferOwnership(address newOwner) internal virtual {... */\ntag_7:\n    /* \"@openzeppelin/contracts/access/Ownable.sol\":2506:2522  address oldOwner */\n  0x00\n    /* \"@openzeppelin/contracts/access/Ownable.sol\":2525:2531  _owner */\n  dup1\n  0x00\n  swap1\n  sload\n  swap1\n  0x0100\n  exp\n  swap1\n  div\n  0xffffffffffffffffffffffffffffffffffffffff\n  and\n    /* \"@openzeppelin/contracts/access/Ownable.sol\":2506:2531  address oldOwner = _owner */\n  swap1\n  pop\n    /* \"@openzeppelin/contracts/access/Ownable.sol\":2550:2558  newOwner */\n  dup2\n    /* \"@openzeppelin/contracts/access/Ownable.sol\":2541:2547  _owner */\n  0x00\n  dup1\n    /* \"@openzeppelin/contracts/access/Ownable.sol\":2541:2558  _owner = newOwner */\n  0x0100\n  exp\n  dup2\n  sload\n  dup2\n  0xffffffffffffffffffffffffffffffffffffffff\n  mul\n  not\n  and\n  swap1\n  dup4\n  0xffffffffffffffffffffffffffffffffffffffff\n  and\n  mul\n  or\n  swap1\n  sstore\n  pop\n    /* \"@openzeppelin/contracts/access/Ownable.sol\":2604:2612  newOwner */\n  dup2\n    /* \"@openzeppelin/contracts/access/Ownable.sol\":2573:2613  OwnershipTransferred(oldOwner, newOwner) */\n  0xffffffffffffffffffffffffffffffffffffffff\n  and\n    /* \"@openzeppelin/contracts/access/Ownable.sol\":2594:2602  oldOwner */\n  dup2\n    /* \"@openzeppelin/contracts/access/Ownable.sol\":2573:2613  OwnershipTransferred(oldOwner, newOwner) */\n  0xffffffffffffffffffffffffffffffffffffffff\n  and\n  0x8be0079c531659141344cd1fd0a4f28419497f9722a3daafe3b4186f6b6457e0\n  mload(0x40)\n  mload(0x40)\n  dup1\n  swap2\n  sub\n  swap1\n  log3\n    /* \"@openzeppelin/contracts/access/Ownable.sol\":2496:2620  {... */\n  pop\n    /* \"@openzeppelin/contracts/access/Ownable.sol\":2433:2620  function _transferOwnership(address newOwner) internal virtual {... */\n  pop\n  jump\t// out\n    /* \"contracts/storageChain.sol\":165:5614  contract StakingContract is Ownable {... */\ntag_8:\n  dataSize(sub_0)\n  dup1\n  dataOffset(sub_0)\n  0x00\n  codecopy\n  0x00\n  return\nstop\n\nsub_0: assembly {\n        /* \"contracts/storageChain.sol\":165:5614  contract StakingContract is Ownable {... */\n      mstore(0x40, 0x80)\n      jumpi(tag_1, lt(calldatasize, 0x04))\n      shr(0xe0, calldataload(0x00))\n      dup1\n      0x82723192\n      gt\n      tag_23\n      jumpi\n      dup1\n      0xa96b7f05\n      gt\n      tag_24\n      jumpi\n      dup1\n      0xa96b7f05\n      eq\n      tag_18\n      jumpi\n      dup1\n      0xadc07c6f\n      eq\n      tag_19\n      jumpi\n      dup1\n      0xce46643b\n      eq\n      tag_20\n      jumpi\n      dup1\n      0xe9ec2e99\n      eq\n      tag_21\n      jumpi\n      dup1\n      0xf2fde38b\n      eq\n      tag_22\n      jumpi\n      jump(tag_2)\n    tag_24:\n      dup1\n      0x82723192\n      eq\n      tag_13\n      jumpi\n      dup1\n      0x8da5cb5b\n      eq\n      tag_14\n      jumpi\n      dup1\n      0x8e080dee\n      eq\n      tag_15\n      jumpi\n      dup1\n      0x96cad0db\n      eq\n      tag_16\n      jumpi\n      dup1\n      0xa405b048\n      eq\n      tag_17\n      jumpi\n      jump(tag_2)\n    tag_23:\n      dup1\n      0x3ae73259\n      gt\n      tag_25\n      jumpi\n      dup1\n      0x3ae73259\n      eq\n      tag_8\n      jumpi\n      dup1\n      0x5c975abb\n      eq\n      tag_9\n      jumpi\n      dup1\n      0x6f9fb98a\n      eq\n      tag_10\n      jumpi\n      dup1\n      0x715018a6\n      eq\n      tag_11\n      jumpi\n      dup1\n      0x7a766460\n      eq\n      tag_12\n      jumpi\n      jump(tag_2)\n    tag_25:\n      dup1\n      0x04238994\n      eq\n      tag_3\n      jumpi\n      dup1\n      0x06608c3c\n      eq\n      tag_4\n      jumpi\n      dup1\n      0x0d8f7614\n      eq\n      tag_5\n      jumpi\n      dup1\n      0x1241a45a\n      eq\n      tag_6\n      jumpi\n      dup1\n      0x16e966c3\n      eq\n      tag_7\n      jumpi\n      jump(tag_2)\n    tag_1:\n      jumpi(tag_2, calldatasize)\n        /* \"contracts/storageChain.sol\":5384:5394  msg.sender */\n      caller\n        /* \"contracts/storageChain.sol\":5370:5406  EtherReceived(msg.sender, msg.value) */\n      0xffffffffffffffffffffffffffffffffffffffff\n      and\n      0x1e57e3bb474320be3d2c77138f75b7c3941292d647f5f9634e33a8e94e0e069b\n        /* \"contracts/storageChain.sol\":5396:5405  msg.value */\n      callvalue\n        /* \"contracts/storageChain.sol\":5370:5406  EtherReceived(msg.sender, msg.value) */\n      mload(0x40)\n      tag_28\n      swap2\n      swap1\n      tag_29\n      jump\t// in\n    tag_28:\n      mload(0x40)\n      dup1\n      swap2\n      sub\n      swap1\n      log2\n        /* \"contracts/storageChain.sol\":165:5614  contract StakingContract is Ownable {... */\n      stop\n    tag_2:\n      0x00\n      dup1\n      revert\n        /* \"contracts/storageChain.sol\":5273:5321  function getAllStakes(address account) public {} */\n    tag_3:\n      callvalue\n      dup1\n      iszero\n      tag_30\n      jumpi\n      0x00\n      dup1\n      revert\n    tag_30:\n      pop\n      tag_31\n      0x04\n      dup1\n      calldatasize\n      sub\n      dup2\n      add\n      swap1\n      tag_32\n      swap2\n      swap1\n      tag_33\n      jump\t// in\n    tag_32:\n      tag_34\n      jump\t// in\n    tag_31:\n      stop\n        /* \"contracts/storageChain.sol\":3255:3898  function unStakeTokens(uint256 _tokenAmount, address payable toAccount)... */\n    tag_4:\n      callvalue\n      dup1\n      iszero\n      tag_35\n      jumpi\n      0x00\n      dup1\n      revert\n    tag_35:\n      pop\n      tag_36\n      0x04\n      dup1\n      calldatasize\n      sub\n      dup2\n      add\n      swap1\n      tag_37\n      swap2\n      swap1\n      tag_38\n      jump\t// in\n    tag_37:\n      tag_39\n      jump\t// in\n    tag_36:\n      stop\n        /* \"contracts/storageChain.sol\":4629:4775  function fillTreasury() external payable onlyOwner {... */\n    tag_5:\n      tag_40\n      tag_41\n      jump\t// in\n    tag_40:\n      stop\n        /* \"contracts/storageChain.sol\":842:1235  function updateStats(address user, uint256 _validationRatio, uint256 _upTime, uint256 _bandWidth, uint _storageGB ) external onlyOwner {... */\n    tag_6:\n      callvalue\n      dup1\n      iszero\n      tag_42\n      jumpi\n      0x00\n      dup1\n      revert\n    tag_42:\n      pop\n      tag_43\n      0x04\n      dup1\n      calldatasize\n      sub\n      dup2\n      add\n      swap1\n      tag_44\n      swap2\n      swap1\n      tag_45\n      jump\t// in\n    tag_44:\n      tag_46\n      jump\t// in\n    tag_43:\n      stop\n        /* \"contracts/storageChain.sol\":1469:1764  function transferTreasuryBalance(uint amount, address payable receiver) onlyOwner public  {... */\n    tag_7:\n      callvalue\n      dup1\n      iszero\n      tag_47\n      jumpi\n      0x00\n      dup1\n      revert\n    tag_47:\n      pop\n      tag_48\n      0x04\n      dup1\n      calldatasize\n      sub\n      dup2\n      add\n      swap1\n      tag_49\n      swap2\n      swap1\n      tag_38\n      jump\t// in\n    tag_49:\n      tag_50\n      jump\t// in\n    tag_48:\n      stop\n        /* \"contracts/storageChain.sol\":295:327  uint256 public totalStakedTokens */\n    tag_8:\n      callvalue\n      dup1\n      iszero\n      tag_51\n      jumpi\n      0x00\n      dup1\n      revert\n    tag_51:\n      pop\n      tag_52\n      tag_53\n      jump\t// in\n    tag_52:\n      mload(0x40)\n      tag_54\n      swap2\n      swap1\n      tag_29\n      jump\t// in\n    tag_54:\n      mload(0x40)\n      dup1\n      swap2\n      sub\n      swap1\n      return\n        /* \"contracts/storageChain.sol\":270:288  bool public paused */\n    tag_9:\n      callvalue\n      dup1\n      iszero\n      tag_55\n      jumpi\n      0x00\n      dup1\n      revert\n    tag_55:\n      pop\n      tag_56\n      tag_57\n      jump\t// in\n    tag_56:\n      mload(0x40)\n      tag_58\n      swap2\n      swap1\n      tag_59\n      jump\t// in\n    tag_58:\n      mload(0x40)\n      dup1\n      swap2\n      sub\n      swap1\n      return\n        /* \"contracts/storageChain.sol\":1351:1456  function getContractBalance() public view returns (uint256) {... */\n    tag_10:\n      callvalue\n      dup1\n      iszero\n      tag_60\n      jumpi\n      0x00\n      dup1\n      revert\n    tag_60:\n      pop\n      tag_61\n      tag_62\n      jump\t// in\n    tag_61:\n      mload(0x40)\n      tag_63\n      swap2\n      swap1\n      tag_29\n      jump\t// in\n    tag_63:\n      mload(0x40)\n      dup1\n      swap2\n      sub\n      swap1\n      return\n        /* \"@openzeppelin/contracts/access/Ownable.sol\":1831:1932  function renounceOwnership() public virtual onlyOwner {... */\n    tag_11:\n      callvalue\n      dup1\n      iszero\n      tag_64\n      jumpi\n      0x00\n      dup1\n      revert\n    tag_64:\n      pop\n      tag_65\n      tag_66\n      jump\t// in\n    tag_65:\n      stop\n        /* \"contracts/storageChain.sol\":5162:5267  function getStake(address user) external view returns (uint256) {... */\n    tag_12:\n      callvalue\n      dup1\n      iszero\n      tag_67\n      jumpi\n      0x00\n      dup1\n      revert\n    tag_67:\n      pop\n      tag_68\n      0x04\n      dup1\n      calldatasize\n      sub\n      dup2\n      add\n      swap1\n      tag_69\n      swap2\n      swap1\n      tag_33\n      jump\t// in\n    tag_69:\n      tag_70\n      jump\t// in\n    tag_68:\n      mload(0x40)\n      tag_71\n      swap2\n      swap1\n      tag_29\n      jump\t// in\n    tag_71:\n      mload(0x40)\n      dup1\n      swap2\n      sub\n      swap1\n      return\n        /* \"contracts/storageChain.sol\":4075:4623  function transferRewards(... */\n    tag_13:\n      callvalue\n      dup1\n      iszero\n      tag_72\n      jumpi\n      0x00\n      dup1\n      revert\n    tag_72:\n      pop\n      tag_73\n      0x04\n      dup1\n      calldatasize\n      sub\n      dup2\n      add\n      swap1\n      tag_74\n      swap2\n      swap1\n      tag_75\n      jump\t// in\n    tag_74:\n      tag_76\n      jump\t// in\n    tag_73:\n      stop\n        /* \"@openzeppelin/contracts/access/Ownable.sol\":1201:1286  function owner() public view virtual returns (address) {... */\n    tag_14:\n      callvalue\n      dup1\n      iszero\n      tag_77\n      jumpi\n      0x00\n      dup1\n      revert\n    tag_77:\n      pop\n      tag_78\n      tag_79\n      jump\t// in\n    tag_78:\n      mload(0x40)\n      tag_80\n      swap2\n      swap1\n      tag_81\n      jump\t// in\n    tag_80:\n      mload(0x40)\n      dup1\n      swap2\n      sub\n      swap1\n      return\n        /* \"contracts/storageChain.sol\":4781:5115  function withDrawFromTreasury(... */\n    tag_15:\n      callvalue\n      dup1\n      iszero\n      tag_82\n      jumpi\n      0x00\n      dup1\n      revert\n    tag_82:\n      pop\n      tag_83\n      0x04\n      dup1\n      calldatasize\n      sub\n      dup2\n      add\n      swap1\n      tag_84\n      swap2\n      swap1\n      tag_38\n      jump\t// in\n    tag_84:\n      tag_85\n      jump\t// in\n    tag_83:\n      stop\n        /* \"contracts/storageChain.sol\":207:235  uint256 public adminTreasury */\n    tag_16:\n      callvalue\n      dup1\n      iszero\n      tag_86\n      jumpi\n      0x00\n      dup1\n      revert\n    tag_86:\n      pop\n      tag_87\n      tag_88\n      jump\t// in\n    tag_87:\n      mload(0x40)\n      tag_89\n      swap2\n      swap1\n      tag_29\n      jump\t// in\n    tag_89:\n      mload(0x40)\n      dup1\n      swap2\n      sub\n      swap1\n      return\n        /* \"contracts/storageChain.sol\":3904:4069  function FlipPauseStatus() external onlyOwner {... */\n    tag_17:\n      callvalue\n      dup1\n      iszero\n      tag_90\n      jumpi\n      0x00\n      dup1\n      revert\n    tag_90:\n      pop\n      tag_91\n      tag_92\n      jump\t// in\n    tag_91:\n      stop\n        /* \"contracts/storageChain.sol\":1248:1294  mapping(address => uint256) public tokenAmount */\n    tag_18:\n      callvalue\n      dup1\n      iszero\n      tag_93\n      jumpi\n      0x00\n      dup1\n      revert\n    tag_93:\n      pop\n      tag_94\n      0x04\n      dup1\n      calldatasize\n      sub\n      dup2\n      add\n      swap1\n      tag_95\n      swap2\n      swap1\n      tag_33\n      jump\t// in\n    tag_95:\n      tag_96\n      jump\t// in\n    tag_94:\n      mload(0x40)\n      tag_97\n      swap2\n      swap1\n      tag_29\n      jump\t// in\n    tag_97:\n      mload(0x40)\n      dup1\n      swap2\n      sub\n      swap1\n      return\n        /* \"contracts/storageChain.sol\":1300:1343  mapping (address => Stats) public NodeStats */\n    tag_19:\n      callvalue\n      dup1\n      iszero\n      tag_98\n      jumpi\n      0x00\n      dup1\n      revert\n    tag_98:\n      pop\n      tag_99\n      0x04\n      dup1\n      calldatasize\n      sub\n      dup2\n      add\n      swap1\n      tag_100\n      swap2\n      swap1\n      tag_33\n      jump\t// in\n    tag_100:\n      tag_101\n      jump\t// in\n    tag_99:\n      mload(0x40)\n      tag_102\n      swap2\n      swap1\n      tag_59\n      jump\t// in\n    tag_102:\n      mload(0x40)\n      dup1\n      swap2\n      sub\n      swap1\n      return\n        /* \"contracts/storageChain.sol\":1770:3249  function stakeTokens(... */\n    tag_20:\n      tag_103\n      tag_104\n      jump\t// in\n    tag_103:\n      stop\n        /* \"contracts/storageChain.sol\":5121:5155  function totalHoldings() public {} */\n    tag_21:\n      callvalue\n      dup1\n      iszero\n      tag_105\n      jumpi\n      0x00\n      dup1\n      revert\n    tag_105:\n      pop\n      tag_106\n      tag_107\n      jump\t// in\n    tag_106:\n      stop\n        /* \"@openzeppelin/contracts/access/Ownable.sol\":2081:2279  function transferOwnership(address newOwner) public virtual onlyOwner {... */\n    tag_22:\n      callvalue\n      dup1\n      iszero\n      tag_108\n      jumpi\n      0x00\n      dup1\n      revert\n    tag_108:\n      pop\n      tag_109\n      0x04\n      dup1\n      calldatasize\n      sub\n      dup2\n      add\n      swap1\n      tag_110\n      swap2\n      swap1\n      tag_33\n      jump\t// in\n    tag_110:\n      tag_111\n      jump\t// in\n    tag_109:\n      stop\n        /* \"contracts/storageChain.sol\":5273:5321  function getAllStakes(address account) public {} */\n    tag_34:\n      pop\n      jump\t// out\n        /* \"contracts/storageChain.sol\":3255:3898  function unStakeTokens(uint256 _tokenAmount, address payable toAccount)... */\n    tag_39:\n        /* \"contracts/storageChain.sol\":3581:3587  paused */\n      0x03\n      0x00\n      swap1\n      sload\n      swap1\n      0x0100\n      exp\n      swap1\n      div\n      0xff\n      and\n        /* \"contracts/storageChain.sol\":3580:3587  !paused */\n      iszero\n        /* \"contracts/storageChain.sol\":3572:3610  require(!paused, \"Contract is Paused\") */\n      tag_114\n      jumpi\n      mload(0x40)\n      0x08c379a000000000000000000000000000000000000000000000000000000000\n      dup2\n      mstore\n      0x04\n      add\n      tag_115\n      swap1\n      tag_116\n      jump\t// in\n    tag_115:\n      mload(0x40)\n      dup1\n      swap2\n      sub\n      swap1\n      revert\n    tag_114:\n        /* \"contracts/storageChain.sol\":3671:3683  _tokenAmount */\n      dup2\n        /* \"contracts/storageChain.sol\":3642:3653  tokenAmount */\n      0x05\n        /* \"contracts/storageChain.sol\":3642:3667  tokenAmount[_msgSender()] */\n      0x00\n        /* \"contracts/storageChain.sol\":3654:3666  _msgSender() */\n      tag_117\n        /* \"contracts/storageChain.sol\":3654:3664  _msgSender */\n      tag_118\n        /* \"contracts/storageChain.sol\":3654:3666  _msgSender() */\n      jump\t// in\n    tag_117:\n        /* \"contracts/storageChain.sol\":3642:3667  tokenAmount[_msgSender()] */\n      0xffffffffffffffffffffffffffffffffffffffff\n      and\n      0xffffffffffffffffffffffffffffffffffffffff\n      and\n      dup2\n      mstore\n      0x20\n      add\n      swap1\n      dup2\n      mstore\n      0x20\n      add\n      0x00\n      keccak256\n      sload\n        /* \"contracts/storageChain.sol\":3642:3683  tokenAmount[_msgSender()] >= _tokenAmount */\n      lt\n      iszero\n        /* \"contracts/storageChain.sol\":3621:3740  require(... */\n      tag_119\n      jumpi\n      mload(0x40)\n      0x08c379a000000000000000000000000000000000000000000000000000000000\n      dup2\n      mstore\n      0x04\n      add\n      tag_120\n      swap1\n      tag_121\n      jump\t// in\n    tag_120:\n      mload(0x40)\n      dup1\n      swap2\n      sub\n      swap1\n      revert\n    tag_119:\n        /* \"contracts/storageChain.sol\":3751:3760  toAccount */\n      dup1\n        /* \"contracts/storageChain.sol\":3751:3769  toAccount.transfer */\n      0xffffffffffffffffffffffffffffffffffffffff\n      and\n        /* \"contracts/storageChain.sol\":3751:3783  toAccount.transfer(_tokenAmount) */\n      0x08fc\n        /* \"contracts/storageChain.sol\":3770:3782  _tokenAmount */\n      dup4\n        /* \"contracts/storageChain.sol\":3751:3783  toAccount.transfer(_tokenAmount) */\n      swap1\n      dup2\n      iszero\n      mul\n      swap1\n      mload(0x40)\n      0x00\n      mload(0x40)\n      dup1\n      dup4\n      sub\n      dup2\n      dup6\n      dup9\n      dup9\n      call\n      swap4\n      pop\n      pop\n      pop\n      pop\n      iszero\n      dup1\n      iszero\n      tag_123\n      jumpi\n      returndatasize\n      0x00\n      dup1\n      returndatacopy\n      revert(0x00, returndatasize)\n    tag_123:\n      pop\n        /* \"contracts/storageChain.sol\":3822:3834  _tokenAmount */\n      dup2\n        /* \"contracts/storageChain.sol\":3793:3804  tokenAmount */\n      0x05\n        /* \"contracts/storageChain.sol\":3793:3818  tokenAmount[_msgSender()] */\n      0x00\n        /* \"contracts/storageChain.sol\":3805:3817  _msgSender() */\n      tag_124\n        /* \"contracts/storageChain.sol\":3805:3815  _msgSender */\n      tag_118\n        /* \"contracts/storageChain.sol\":3805:3817  _msgSender() */\n      jump\t// in\n    tag_124:\n        /* \"contracts/storageChain.sol\":3793:3818  tokenAmount[_msgSender()] */\n      0xffffffffffffffffffffffffffffffffffffffff\n      and\n      0xffffffffffffffffffffffffffffffffffffffff\n      and\n      dup2\n      mstore\n      0x20\n      add\n      swap1\n      dup2\n      mstore\n      0x20\n      add\n      0x00\n      keccak256\n      0x00\n        /* \"contracts/storageChain.sol\":3793:3834  tokenAmount[_msgSender()] -= _tokenAmount */\n      dup3\n      dup3\n      sload\n      tag_125\n      swap2\n      swap1\n      tag_126\n      jump\t// in\n    tag_125:\n      swap3\n      pop\n      pop\n      dup2\n      swap1\n      sstore\n      pop\n        /* \"contracts/storageChain.sol\":3864:3876  _msgSender() */\n      tag_127\n        /* \"contracts/storageChain.sol\":3864:3874  _msgSender */\n      tag_118\n        /* \"contracts/storageChain.sol\":3864:3876  _msgSender() */\n      jump\t// in\n    tag_127:\n        /* \"contracts/storageChain.sol\":3850:3891  TokenTransfer(_msgSender(), _tokenAmount) */\n      0xffffffffffffffffffffffffffffffffffffffff\n      and\n      0x1d72140a7ccdb496bef50918d2598dd7edefb514f70e6d4beb528cbd16c80b7d\n        /* \"contracts/storageChain.sol\":3878:3890  _tokenAmount */\n      dup4\n        /* \"contracts/storageChain.sol\":3850:3891  TokenTransfer(_msgSender(), _tokenAmount) */\n      mload(0x40)\n      tag_128\n      swap2\n      swap1\n      tag_29\n      jump\t// in\n    tag_128:\n      mload(0x40)\n      dup1\n      swap2\n      sub\n      swap1\n      log2\n        /* \"contracts/storageChain.sol\":3255:3898  function unStakeTokens(uint256 _tokenAmount, address payable toAccount)... */\n      pop\n      pop\n      jump\t// out\n        /* \"contracts/storageChain.sol\":4629:4775  function fillTreasury() external payable onlyOwner {... */\n    tag_41:\n        /* \"@openzeppelin/contracts/access/Ownable.sol\":1094:1107  _checkOwner() */\n      tag_130\n        /* \"@openzeppelin/contracts/access/Ownable.sol\":1094:1105  _checkOwner */\n      tag_131\n        /* \"@openzeppelin/contracts/access/Ownable.sol\":1094:1107  _checkOwner() */\n      jump\t// in\n    tag_130:\n        /* \"contracts/storageChain.sol\":4710:4711  0 */\n      0x00\n        /* \"contracts/storageChain.sol\":4698:4707  msg.value */\n      callvalue\n        /* \"contracts/storageChain.sol\":4698:4711  msg.value > 0 */\n      gt\n        /* \"contracts/storageChain.sol\":4690:4731  require(msg.value > 0 , \"Invalid Amount\") */\n      tag_133\n      jumpi\n      mload(0x40)\n      0x08c379a000000000000000000000000000000000000000000000000000000000\n      dup2\n      mstore\n      0x04\n      add\n      tag_134\n      swap1\n      tag_135\n      jump\t// in\n    tag_134:\n      mload(0x40)\n      dup1\n      swap2\n      sub\n      swap1\n      revert\n    tag_133:\n        /* \"contracts/storageChain.sol\":4759:4768  msg.value */\n      callvalue\n        /* \"contracts/storageChain.sol\":4742:4755  adminTreasury */\n      0x01\n      0x00\n        /* \"contracts/storageChain.sol\":4742:4768  adminTreasury += msg.value */\n      dup3\n      dup3\n      sload\n      tag_136\n      swap2\n      swap1\n      tag_137\n      jump\t// in\n    tag_136:\n      swap3\n      pop\n      pop\n      dup2\n      swap1\n      sstore\n      pop\n        /* \"contracts/storageChain.sol\":4629:4775  function fillTreasury() external payable onlyOwner {... */\n      jump\t// out\n        /* \"contracts/storageChain.sol\":842:1235  function updateStats(address user, uint256 _validationRatio, uint256 _upTime, uint256 _bandWidth, uint _storageGB ) external onlyOwner {... */\n    tag_46:\n        /* \"@openzeppelin/contracts/access/Ownable.sol\":1094:1107  _checkOwner() */\n      tag_139\n        /* \"@openzeppelin/contracts/access/Ownable.sol\":1094:1105  _checkOwner */\n      tag_131\n        /* \"@openzeppelin/contracts/access/Ownable.sol\":1094:1107  _checkOwner() */\n      jump\t// in\n    tag_139:\n        /* \"contracts/storageChain.sol\":1022:1031  NodeStats */\n      0x06\n        /* \"contracts/storageChain.sol\":1022:1037  NodeStats[user] */\n      0x00\n        /* \"contracts/storageChain.sol\":1032:1036  user */\n      dup7\n        /* \"contracts/storageChain.sol\":1022:1037  NodeStats[user] */\n      0xffffffffffffffffffffffffffffffffffffffff\n      and\n      0xffffffffffffffffffffffffffffffffffffffff\n      and\n      dup2\n      mstore\n      0x20\n      add\n      swap1\n      dup2\n      mstore\n      0x20\n      add\n      0x00\n      keccak256\n        /* \"contracts/storageChain.sol\":1022:1053  NodeStats[user].validationRatio */\n      0x00\n      add\n        /* \"contracts/storageChain.sol\":1059:1075  _validationRatio */\n      dup5\n        /* \"contracts/storageChain.sol\":1022:1076  NodeStats[user].validationRatio.push(_validationRatio) */\n      swap1\n      dup1\n      0x01\n      dup2\n      sload\n      add\n      dup1\n      dup3\n      sstore\n      dup1\n      swap2\n      pop\n      pop\n      0x01\n      swap1\n      sub\n      swap1\n      0x00\n      mstore\n      keccak256(0x00, 0x20)\n      add\n      0x00\n      swap1\n      swap2\n      swap1\n      swap2\n      swap1\n      swap2\n      pop\n      sstore\n        /* \"contracts/storageChain.sol\":1087:1096  NodeStats */\n      0x06\n        /* \"contracts/storageChain.sol\":1087:1102  NodeStats[user] */\n      0x00\n        /* \"contracts/storageChain.sol\":1097:1101  user */\n      dup7\n        /* \"contracts/storageChain.sol\":1087:1102  NodeStats[user] */\n      0xffffffffffffffffffffffffffffffffffffffff\n      and\n      0xffffffffffffffffffffffffffffffffffffffff\n      and\n      dup2\n      mstore\n      0x20\n      add\n      swap1\n      dup2\n      mstore\n      0x20\n      add\n      0x00\n      keccak256\n        /* \"contracts/storageChain.sol\":1087:1109  NodeStats[user].upTime */\n      0x01\n      add\n        /* \"contracts/storageChain.sol\":1115:1122  _upTime */\n      dup4\n        /* \"contracts/storageChain.sol\":1087:1123  NodeStats[user].upTime.push(_upTime) */\n      swap1\n      dup1\n      0x01\n      dup2\n      sload\n      add\n      dup1\n      dup3\n      sstore\n      dup1\n      swap2\n      pop\n      pop\n      0x01\n      swap1\n      sub\n      swap1\n      0x00\n      mstore\n      keccak256(0x00, 0x20)\n      add\n      0x00\n      swap1\n      swap2\n      swap1\n      swap2\n      swap1\n      swap2\n      pop\n      sstore\n        /* \"contracts/storageChain.sol\":1133:1142  NodeStats */\n      0x06\n        /* \"contracts/storageChain.sol\":1133:1148  NodeStats[user] */\n      0x00\n        /* \"contracts/storageChain.sol\":1143:1147  user */\n      dup7\n        /* \"contracts/storageChain.sol\":1133:1148  NodeStats[user] */\n      0xffffffffffffffffffffffffffffffffffffffff\n      and\n      0xffffffffffffffffffffffffffffffffffffffff\n      and\n      dup2\n      mstore\n      0x20\n      add\n      swap1\n      dup2\n      mstore\n      0x20\n      add\n      0x00\n      keccak256\n        /* \"contracts/storageChain.sol\":1133:1158  NodeStats[user].bandWidth */\n      0x02\n      add\n        /* \"contracts/storageChain.sol\":1164:1174  _bandWidth */\n      dup3\n        /* \"contracts/storageChain.sol\":1133:1175  NodeStats[user].bandWidth.push(_bandWidth) */\n      swap1\n      dup1\n      0x01\n      dup2\n      sload\n      add\n      dup1\n      dup3\n      sstore\n      dup1\n      swap2\n      pop\n      pop\n      0x01\n      swap1\n      sub\n      swap1\n      0x00\n      mstore\n      keccak256(0x00, 0x20)\n      add\n      0x00\n      swap1\n      swap2\n      swap1\n      swap2\n      swap1\n      swap2\n      pop\n      sstore\n        /* \"contracts/storageChain.sol\":1186:1195  NodeStats */\n      0x06\n        /* \"contracts/storageChain.sol\":1186:1201  NodeStats[user] */\n      0x00\n        /* \"contracts/storageChain.sol\":1196:1200  user */\n      dup7\n        /* \"contracts/storageChain.sol\":1186:1201  NodeStats[user] */\n      0xffffffffffffffffffffffffffffffffffffffff\n      and\n      0xffffffffffffffffffffffffffffffffffffffff\n      and\n      dup2\n      mstore\n      0x20\n      add\n      swap1\n      dup2\n      mstore\n      0x20\n      add\n      0x00\n      keccak256\n        /* \"contracts/storageChain.sol\":1186:1211  NodeStats[user].storageGB */\n      0x03\n      add\n        /* \"contracts/storageChain.sol\":1217:1227  _storageGB */\n      dup2\n        /* \"contracts/storageChain.sol\":1186:1228  NodeStats[user].storageGB.push(_storageGB) */\n      swap1\n      dup1\n      0x01\n      dup2\n      sload\n      add\n      dup1\n      dup3\n      sstore\n      dup1\n      swap2\n      pop\n      pop\n      0x01\n      swap1\n      sub\n      swap1\n      0x00\n      mstore\n      keccak256(0x00, 0x20)\n      add\n      0x00\n      swap1\n      swap2\n      swap1\n      swap2\n      swap1\n      swap2\n      pop\n      sstore\n        /* \"contracts/storageChain.sol\":842:1235  function updateStats(address user, uint256 _validationRatio, uint256 _upTime, uint256 _bandWidth, uint _storageGB ) external onlyOwner {... */\n      pop\n      pop\n      pop\n      pop\n      pop\n      jump\t// out\n        /* \"contracts/storageChain.sol\":1469:1764  function transferTreasuryBalance(uint amount, address payable receiver) onlyOwner public  {... */\n    tag_50:\n        /* \"@openzeppelin/contracts/access/Ownable.sol\":1094:1107  _checkOwner() */\n      tag_146\n        /* \"@openzeppelin/contracts/access/Ownable.sol\":1094:1105  _checkOwner */\n      tag_131\n        /* \"@openzeppelin/contracts/access/Ownable.sol\":1094:1107  _checkOwner() */\n      jump\t// in\n    tag_146:\n        /* \"contracts/storageChain.sol\":1587:1602  treasuryBalance */\n      sload(0x02)\n        /* \"contracts/storageChain.sol\":1577:1583  amount */\n      dup3\n        /* \"contracts/storageChain.sol\":1577:1602  amount <= treasuryBalance */\n      gt\n      iszero\n        /* \"contracts/storageChain.sol\":1569:1627  require(amount <= treasuryBalance, \"Insufficient Balance\") */\n      tag_148\n      jumpi\n      mload(0x40)\n      0x08c379a000000000000000000000000000000000000000000000000000000000\n      dup2\n      mstore\n      0x04\n      add\n      tag_149\n      swap1\n      tag_150\n      jump\t// in\n    tag_149:\n      mload(0x40)\n      dup1\n      swap2\n      sub\n      swap1\n      revert\n    tag_148:\n        /* \"contracts/storageChain.sol\":1646:1652  paused */\n      0x03\n      0x00\n      swap1\n      sload\n      swap1\n      0x0100\n      exp\n      swap1\n      div\n      0xff\n      and\n        /* \"contracts/storageChain.sol\":1645:1652  !paused */\n      iszero\n        /* \"contracts/storageChain.sol\":1637:1676  require(!paused , \"Contract is Paused\") */\n      tag_151\n      jumpi\n      mload(0x40)\n      0x08c379a000000000000000000000000000000000000000000000000000000000\n      dup2\n      mstore\n      0x04\n      add\n      tag_152\n      swap1\n      tag_116\n      jump\t// in\n    tag_152:\n      mload(0x40)\n      dup1\n      swap2\n      sub\n      swap1\n      revert\n    tag_151:\n        /* \"contracts/storageChain.sol\":1686:1694  receiver */\n      dup1\n        /* \"contracts/storageChain.sol\":1686:1703  receiver.transfer */\n      0xffffffffffffffffffffffffffffffffffffffff\n      and\n        /* \"contracts/storageChain.sol\":1686:1711  receiver.transfer(amount) */\n      0x08fc\n        /* \"contracts/storageChain.sol\":1704:1710  amount */\n      dup4\n        /* \"contracts/storageChain.sol\":1686:1711  receiver.transfer(amount) */\n      swap1\n      dup2\n      iszero\n      mul\n      swap1\n      mload(0x40)\n      0x00\n      mload(0x40)\n      dup1\n      dup4\n      sub\n      dup2\n      dup6\n      dup9\n      dup9\n      call\n      swap4\n      pop\n      pop\n      pop\n      pop\n      iszero\n      dup1\n      iszero\n      tag_154\n      jumpi\n      returndatasize\n      0x00\n      dup1\n      returndatacopy\n      revert(0x00, returndatasize)\n    tag_154:\n      pop\n        /* \"contracts/storageChain.sol\":1741:1747  amount */\n      dup2\n        /* \"contracts/storageChain.sol\":1722:1737  treasuryBalance */\n      0x02\n      0x00\n        /* \"contracts/storageChain.sol\":1722:1747  treasuryBalance -= amount */\n      dup3\n      dup3\n      sload\n      tag_155\n      swap2\n      swap1\n      tag_126\n      jump\t// in\n    tag_155:\n      swap3\n      pop\n      pop\n      dup2\n      swap1\n      sstore\n      pop\n        /* \"contracts/storageChain.sol\":1469:1764  function transferTreasuryBalance(uint amount, address payable receiver) onlyOwner public  {... */\n      pop\n      pop\n      jump\t// out\n        /* \"contracts/storageChain.sol\":295:327  uint256 public totalStakedTokens */\n    tag_53:\n      sload(0x04)\n      dup2\n      jump\t// out\n        /* \"contracts/storageChain.sol\":270:288  bool public paused */\n    tag_57:\n      0x03\n      0x00\n      swap1\n      sload\n      swap1\n      0x0100\n      exp\n      swap1\n      div\n      0xff\n      and\n      dup2\n      jump\t// out\n        /* \"contracts/storageChain.sol\":1351:1456  function getContractBalance() public view returns (uint256) {... */\n    tag_62:\n        /* \"contracts/storageChain.sol\":1402:1409  uint256 */\n      0x00\n        /* \"contracts/storageChain.sol\":1428:1449  address(this).balance */\n      selfbalance\n        /* \"contracts/storageChain.sol\":1421:1449  return address(this).balance */\n      swap1\n      pop\n        /* \"contracts/storageChain.sol\":1351:1456  function getContractBalance() public view returns (uint256) {... */\n      swap1\n      jump\t// out\n        /* \"@openzeppelin/contracts/access/Ownable.sol\":1831:1932  function renounceOwnership() public virtual onlyOwner {... */\n    tag_66:\n        /* \"@openzeppelin/contracts/access/Ownable.sol\":1094:1107  _checkOwner() */\n      tag_158\n        /* \"@openzeppelin/contracts/access/Ownable.sol\":1094:1105  _checkOwner */\n      tag_131\n        /* \"@openzeppelin/contracts/access/Ownable.sol\":1094:1107  _checkOwner() */\n      jump\t// in\n    tag_158:\n        /* \"@openzeppelin/contracts/access/Ownable.sol\":1895:1925  _transferOwnership(address(0)) */\n      tag_160\n        /* \"@openzeppelin/contracts/access/Ownable.sol\":1922:1923  0 */\n      0x00\n        /* \"@openzeppelin/contracts/access/Ownable.sol\":1895:1913  _transferOwnership */\n      tag_161\n        /* \"@openzeppelin/contracts/access/Ownable.sol\":1895:1925  _transferOwnership(address(0)) */\n      jump\t// in\n    tag_160:\n        /* \"@openzeppelin/contracts/access/Ownable.sol\":1831:1932  function renounceOwnership() public virtual onlyOwner {... */\n      jump\t// out\n        /* \"contracts/storageChain.sol\":5162:5267  function getStake(address user) external view returns (uint256) {... */\n    tag_70:\n        /* \"contracts/storageChain.sol\":5217:5224  uint256 */\n      0x00\n        /* \"contracts/storageChain.sol\":5243:5254  tokenAmount */\n      0x05\n        /* \"contracts/storageChain.sol\":5243:5260  tokenAmount[user] */\n      0x00\n        /* \"contracts/storageChain.sol\":5255:5259  user */\n      dup4\n        /* \"contracts/storageChain.sol\":5243:5260  tokenAmount[user] */\n      0xffffffffffffffffffffffffffffffffffffffff\n      and\n      0xffffffffffffffffffffffffffffffffffffffff\n      and\n      dup2\n      mstore\n      0x20\n      add\n      swap1\n      dup2\n      mstore\n      0x20\n      add\n      0x00\n      keccak256\n      sload\n        /* \"contracts/storageChain.sol\":5236:5260  return tokenAmount[user] */\n      swap1\n      pop\n        /* \"contracts/storageChain.sol\":5162:5267  function getStake(address user) external view returns (uint256) {... */\n      swap2\n      swap1\n      pop\n      jump\t// out\n        /* \"contracts/storageChain.sol\":4075:4623  function transferRewards(... */\n    tag_76:\n        /* \"@openzeppelin/contracts/access/Ownable.sol\":1094:1107  _checkOwner() */\n      tag_164\n        /* \"@openzeppelin/contracts/access/Ownable.sol\":1094:1105  _checkOwner */\n      tag_131\n        /* \"@openzeppelin/contracts/access/Ownable.sol\":1094:1107  _checkOwner() */\n      jump\t// in\n    tag_164:\n        /* \"contracts/storageChain.sol\":4215:4221  paused */\n      0x03\n      0x00\n      swap1\n      sload\n      swap1\n      0x0100\n      exp\n      swap1\n      div\n      0xff\n      and\n        /* \"contracts/storageChain.sol\":4214:4221  !paused */\n      iszero\n        /* \"contracts/storageChain.sol\":4206:4243  require(!paused, \"Staking is paused\") */\n      tag_166\n      jumpi\n      mload(0x40)\n      0x08c379a000000000000000000000000000000000000000000000000000000000\n      dup2\n      mstore\n      0x04\n      add\n      tag_167\n      swap1\n      tag_168\n      jump\t// in\n    tag_167:\n      mload(0x40)\n      dup1\n      swap2\n      sub\n      swap1\n      revert\n    tag_166:\n        /* \"contracts/storageChain.sol\":4290:4303  adminTreasury */\n      sload(0x01)\n        /* \"contracts/storageChain.sol\":4274:4286  rewardAmount */\n      dup2\n        /* \"contracts/storageChain.sol\":4274:4303  rewardAmount <= adminTreasury */\n      gt\n      iszero\n        /* \"contracts/storageChain.sol\":4253:4361  require(... */\n      tag_169\n      jumpi\n      mload(0x40)\n      0x08c379a000000000000000000000000000000000000000000000000000000000\n      dup2\n      mstore\n      0x04\n      add\n      tag_170\n      swap1\n      tag_171\n      jump\t// in\n    tag_170:\n      mload(0x40)\n      dup1\n      swap2\n      sub\n      swap1\n      revert\n    tag_169:\n        /* \"contracts/storageChain.sol\":4420:4421  0 */\n      0x00\n        /* \"contracts/storageChain.sol\":4392:4403  tokenAmount */\n      0x05\n        /* \"contracts/storageChain.sol\":4392:4417  tokenAmount[_msgSender()] */\n      0x00\n        /* \"contracts/storageChain.sol\":4404:4416  _msgSender() */\n      tag_172\n        /* \"contracts/storageChain.sol\":4404:4414  _msgSender */\n      tag_118\n        /* \"contracts/storageChain.sol\":4404:4416  _msgSender() */\n      jump\t// in\n    tag_172:\n        /* \"contracts/storageChain.sol\":4392:4417  tokenAmount[_msgSender()] */\n      0xffffffffffffffffffffffffffffffffffffffff\n      and\n      0xffffffffffffffffffffffffffffffffffffffff\n      and\n      dup2\n      mstore\n      0x20\n      add\n      swap1\n      dup2\n      mstore\n      0x20\n      add\n      0x00\n      keccak256\n      sload\n        /* \"contracts/storageChain.sol\":4392:4421  tokenAmount[_msgSender()] > 0 */\n      gt\n        /* \"contracts/storageChain.sol\":4371:4470  require(... */\n      tag_173\n      jumpi\n      mload(0x40)\n      0x08c379a000000000000000000000000000000000000000000000000000000000\n      dup2\n      mstore\n      0x04\n      add\n      tag_174\n      swap1\n      tag_175\n      jump\t// in\n    tag_174:\n      mload(0x40)\n      dup1\n      swap2\n      sub\n      swap1\n      revert\n    tag_173:\n        /* \"contracts/storageChain.sol\":4480:4495  receiverAddress */\n      dup2\n        /* \"contracts/storageChain.sol\":4480:4504  receiverAddress.transfer */\n      0xffffffffffffffffffffffffffffffffffffffff\n      and\n        /* \"contracts/storageChain.sol\":4480:4518  receiverAddress.transfer(rewardAmount) */\n      0x08fc\n        /* \"contracts/storageChain.sol\":4505:4517  rewardAmount */\n      dup3\n        /* \"contracts/storageChain.sol\":4480:4518  receiverAddress.transfer(rewardAmount) */\n      swap1\n      dup2\n      iszero\n      mul\n      swap1\n      mload(0x40)\n      0x00\n      mload(0x40)\n      dup1\n      dup4\n      sub\n      dup2\n      dup6\n      dup9\n      dup9\n      call\n      swap4\n      pop\n      pop\n      pop\n      pop\n      iszero\n      dup1\n      iszero\n      tag_177\n      jumpi\n      returndatasize\n      0x00\n      dup1\n      returndatacopy\n      revert(0x00, returndatasize)\n    tag_177:\n      pop\n        /* \"contracts/storageChain.sol\":4545:4557  rewardAmount */\n      dup1\n        /* \"contracts/storageChain.sol\":4528:4541  adminTreasury */\n      0x01\n      0x00\n        /* \"contracts/storageChain.sol\":4528:4557  adminTreasury -= rewardAmount */\n      dup3\n      dup3\n      sload\n      tag_178\n      swap2\n      swap1\n      tag_126\n      jump\t// in\n    tag_178:\n      swap3\n      pop\n      pop\n      dup2\n      swap1\n      sstore\n      pop\n        /* \"contracts/storageChain.sol\":4586:4601  receiverAddress */\n      dup2\n        /* \"contracts/storageChain.sol\":4572:4616  TokenTransfer(receiverAddress, rewardAmount) */\n      0xffffffffffffffffffffffffffffffffffffffff\n      and\n      0x1d72140a7ccdb496bef50918d2598dd7edefb514f70e6d4beb528cbd16c80b7d\n        /* \"contracts/storageChain.sol\":4603:4615  rewardAmount */\n      dup3\n        /* \"contracts/storageChain.sol\":4572:4616  TokenTransfer(receiverAddress, rewardAmount) */\n      mload(0x40)\n      tag_179\n      swap2\n      swap1\n      tag_29\n      jump\t// in\n    tag_179:\n      mload(0x40)\n      dup1\n      swap2\n      sub\n      swap1\n      log2\n        /* \"contracts/storageChain.sol\":4075:4623  function transferRewards(... */\n      pop\n      pop\n      jump\t// out\n        /* \"@openzeppelin/contracts/access/Ownable.sol\":1201:1286  function owner() public view virtual returns (address) {... */\n    tag_79:\n        /* \"@openzeppelin/contracts/access/Ownable.sol\":1247:1254  address */\n      0x00\n        /* \"@openzeppelin/contracts/access/Ownable.sol\":1273:1279  _owner */\n      dup1\n      0x00\n      swap1\n      sload\n      swap1\n      0x0100\n      exp\n      swap1\n      div\n      0xffffffffffffffffffffffffffffffffffffffff\n      and\n        /* \"@openzeppelin/contracts/access/Ownable.sol\":1266:1279  return _owner */\n      swap1\n      pop\n        /* \"@openzeppelin/contracts/access/Ownable.sol\":1201:1286  function owner() public view virtual returns (address) {... */\n      swap1\n      jump\t// out\n        /* \"contracts/storageChain.sol\":4781:5115  function withDrawFromTreasury(... */\n    tag_85:\n        /* \"@openzeppelin/contracts/access/Ownable.sol\":1094:1107  _checkOwner() */\n      tag_182\n        /* \"@openzeppelin/contracts/access/Ownable.sol\":1094:1105  _checkOwner */\n      tag_131\n        /* \"@openzeppelin/contracts/access/Ownable.sol\":1094:1107  _checkOwner() */\n      jump\t// in\n    tag_182:\n        /* \"contracts/storageChain.sol\":4937:4943  amount */\n      dup2\n        /* \"contracts/storageChain.sol\":4920:4933  adminTreasury */\n      sload(0x01)\n        /* \"contracts/storageChain.sol\":4920:4943  adminTreasury >= amount */\n      lt\n      iszero\n        /* \"contracts/storageChain.sol\":4912:4978  require(adminTreasury >= amount, \"Insufficient Funds to Withdraw\") */\n      tag_184\n      jumpi\n      mload(0x40)\n      0x08c379a000000000000000000000000000000000000000000000000000000000\n      dup2\n      mstore\n      0x04\n      add\n      tag_185\n      swap1\n      tag_186\n      jump\t// in\n    tag_185:\n      mload(0x40)\n      dup1\n      swap2\n      sub\n      swap1\n      revert\n    tag_184:\n        /* \"contracts/storageChain.sol\":4988:5004  _receiverAddress */\n      dup1\n        /* \"contracts/storageChain.sol\":4988:5013  _receiverAddress.transfer */\n      0xffffffffffffffffffffffffffffffffffffffff\n      and\n        /* \"contracts/storageChain.sol\":4988:5021  _receiverAddress.transfer(amount) */\n      0x08fc\n        /* \"contracts/storageChain.sol\":5014:5020  amount */\n      dup4\n        /* \"contracts/storageChain.sol\":4988:5021  _receiverAddress.transfer(amount) */\n      swap1\n      dup2\n      iszero\n      mul\n      swap1\n      mload(0x40)\n      0x00\n      mload(0x40)\n      dup1\n      dup4\n      sub\n      dup2\n      dup6\n      dup9\n      dup9\n      call\n      swap4\n      pop\n      pop\n      pop\n      pop\n      iszero\n      dup1\n      iszero\n      tag_188\n      jumpi\n      returndatasize\n      0x00\n      dup1\n      returndatacopy\n      revert(0x00, returndatasize)\n    tag_188:\n      pop\n        /* \"contracts/storageChain.sol\":5048:5054  amount */\n      dup2\n        /* \"contracts/storageChain.sol\":5031:5044  adminTreasury */\n      0x01\n      0x00\n        /* \"contracts/storageChain.sol\":5031:5054  adminTreasury -= amount */\n      dup3\n      dup3\n      sload\n      tag_189\n      swap2\n      swap1\n      tag_126\n      jump\t// in\n    tag_189:\n      swap3\n      pop\n      pop\n      dup2\n      swap1\n      sstore\n      pop\n        /* \"contracts/storageChain.sol\":5083:5099  _receiverAddress */\n      dup1\n        /* \"contracts/storageChain.sol\":5069:5108  TokenTransfer(_receiverAddress, amount) */\n      0xffffffffffffffffffffffffffffffffffffffff\n      and\n      0x1d72140a7ccdb496bef50918d2598dd7edefb514f70e6d4beb528cbd16c80b7d\n        /* \"contracts/storageChain.sol\":5101:5107  amount */\n      dup4\n        /* \"contracts/storageChain.sol\":5069:5108  TokenTransfer(_receiverAddress, amount) */\n      mload(0x40)\n      tag_190\n      swap2\n      swap1\n      tag_29\n      jump\t// in\n    tag_190:\n      mload(0x40)\n      dup1\n      swap2\n      sub\n      swap1\n      log2\n        /* \"contracts/storageChain.sol\":4781:5115  function withDrawFromTreasury(... */\n      pop\n      pop\n      jump\t// out\n        /* \"contracts/storageChain.sol\":207:235  uint256 public adminTreasury */\n    tag_88:\n      sload(0x01)\n      dup2\n      jump\t// out\n        /* \"contracts/storageChain.sol\":3904:4069  function FlipPauseStatus() external onlyOwner {... */\n    tag_92:\n        /* \"@openzeppelin/contracts/access/Ownable.sol\":1094:1107  _checkOwner() */\n      tag_192\n        /* \"@openzeppelin/contracts/access/Ownable.sol\":1094:1105  _checkOwner */\n      tag_131\n        /* \"@openzeppelin/contracts/access/Ownable.sol\":1094:1107  _checkOwner() */\n      jump\t// in\n    tag_192:\n        /* \"contracts/storageChain.sol\":3974:3978  true */\n      0x01\n        /* \"contracts/storageChain.sol\":3964:3978  paused == true */\n      iszero\n      iszero\n        /* \"contracts/storageChain.sol\":3964:3970  paused */\n      0x03\n      0x00\n      swap1\n      sload\n      swap1\n      0x0100\n      exp\n      swap1\n      div\n      0xff\n      and\n        /* \"contracts/storageChain.sol\":3964:3978  paused == true */\n      iszero\n      iszero\n      sub\n        /* \"contracts/storageChain.sol\":3960:4063  if (paused == true) {... */\n      tag_194\n      jumpi\n        /* \"contracts/storageChain.sol\":4003:4008  false */\n      0x00\n        /* \"contracts/storageChain.sol\":3994:4000  paused */\n      0x03\n      0x00\n        /* \"contracts/storageChain.sol\":3994:4008  paused = false */\n      0x0100\n      exp\n      dup2\n      sload\n      dup2\n      0xff\n      mul\n      not\n      and\n      swap1\n      dup4\n      iszero\n      iszero\n      mul\n      or\n      swap1\n      sstore\n      pop\n        /* \"contracts/storageChain.sol\":3960:4063  if (paused == true) {... */\n      jump(tag_195)\n    tag_194:\n        /* \"contracts/storageChain.sol\":4048:4052  true */\n      0x01\n        /* \"contracts/storageChain.sol\":4039:4045  paused */\n      0x03\n      0x00\n        /* \"contracts/storageChain.sol\":4039:4052  paused = true */\n      0x0100\n      exp\n      dup2\n      sload\n      dup2\n      0xff\n      mul\n      not\n      and\n      swap1\n      dup4\n      iszero\n      iszero\n      mul\n      or\n      swap1\n      sstore\n      pop\n        /* \"contracts/storageChain.sol\":3960:4063  if (paused == true) {... */\n    tag_195:\n        /* \"contracts/storageChain.sol\":3904:4069  function FlipPauseStatus() external onlyOwner {... */\n      jump\t// out\n        /* \"contracts/storageChain.sol\":1248:1294  mapping(address => uint256) public tokenAmount */\n    tag_96:\n      mstore(0x20, 0x05)\n      dup1\n      0x00\n      mstore\n      keccak256(0x00, 0x40)\n      0x00\n      swap2\n      pop\n      swap1\n      pop\n      sload\n      dup2\n      jump\t// out\n        /* \"contracts/storageChain.sol\":1300:1343  mapping (address => Stats) public NodeStats */\n    tag_101:\n      mstore(0x20, 0x06)\n      dup1\n      0x00\n      mstore\n      keccak256(0x00, 0x40)\n      0x00\n      swap2\n      pop\n      swap1\n      pop\n      dup1\n      0x04\n      add\n      0x00\n      swap1\n      sload\n      swap1\n      0x0100\n      exp\n      swap1\n      div\n      0xff\n      and\n      swap1\n      pop\n      dup2\n      jump\t// out\n        /* \"contracts/storageChain.sol\":1770:3249  function stakeTokens(... */\n    tag_104:\n        /* \"contracts/storageChain.sol\":1968:1974  paused */\n      0x03\n      0x00\n      swap1\n      sload\n      swap1\n      0x0100\n      exp\n      swap1\n      div\n      0xff\n      and\n        /* \"contracts/storageChain.sol\":1967:1974  !paused */\n      iszero\n        /* \"contracts/storageChain.sol\":1959:1996  require(!paused, \"Staking is paused\") */\n      tag_197\n      jumpi\n      mload(0x40)\n      0x08c379a000000000000000000000000000000000000000000000000000000000\n      dup2\n      mstore\n      0x04\n      add\n      tag_198\n      swap1\n      tag_168\n      jump\t// in\n    tag_198:\n      mload(0x40)\n      dup1\n      swap2\n      sub\n      swap1\n      revert\n    tag_197:\n        /* \"contracts/storageChain.sol\":2026:2027  0 */\n      0x00\n        /* \"contracts/storageChain.sol\":2014:2023  msg.value */\n      callvalue\n        /* \"contracts/storageChain.sol\":2014:2027  msg.value > 0 */\n      gt\n        /* \"contracts/storageChain.sol\":2006:2046  require(msg.value > 0, \"Cannot stake 0\") */\n      tag_199\n      jumpi\n      mload(0x40)\n      0x08c379a000000000000000000000000000000000000000000000000000000000\n      dup2\n      mstore\n      0x04\n      add\n      tag_200\n      swap1\n      tag_201\n      jump\t// in\n    tag_200:\n      mload(0x40)\n      dup1\n      swap2\n      sub\n      swap1\n      revert\n    tag_199:\n        /* \"contracts/storageChain.sol\":2085:2094  msg.value */\n      callvalue\n        /* \"contracts/storageChain.sol\":2056:2067  tokenAmount */\n      0x05\n        /* \"contracts/storageChain.sol\":2056:2081  tokenAmount[_msgSender()] */\n      0x00\n        /* \"contracts/storageChain.sol\":2068:2080  _msgSender() */\n      tag_202\n        /* \"contracts/storageChain.sol\":2068:2078  _msgSender */\n      tag_118\n        /* \"contracts/storageChain.sol\":2068:2080  _msgSender() */\n      jump\t// in\n    tag_202:\n        /* \"contracts/storageChain.sol\":2056:2081  tokenAmount[_msgSender()] */\n      0xffffffffffffffffffffffffffffffffffffffff\n      and\n      0xffffffffffffffffffffffffffffffffffffffff\n      and\n      dup2\n      mstore\n      0x20\n      add\n      swap1\n      dup2\n      mstore\n      0x20\n      add\n      0x00\n      keccak256\n      0x00\n        /* \"contracts/storageChain.sol\":2056:2094  tokenAmount[_msgSender()] += msg.value */\n      dup3\n      dup3\n      sload\n      tag_203\n      swap2\n      swap1\n      tag_137\n      jump\t// in\n    tag_203:\n      swap3\n      pop\n      pop\n      dup2\n      swap1\n      sstore\n      pop\n        /* \"contracts/storageChain.sol\":2126:2135  msg.value */\n      callvalue\n        /* \"contracts/storageChain.sol\":2105:2122  totalStakedTokens */\n      0x04\n      0x00\n        /* \"contracts/storageChain.sol\":2105:2135  totalStakedTokens += msg.value */\n      dup3\n      dup3\n      sload\n      tag_204\n      swap2\n      swap1\n      tag_137\n      jump\t// in\n    tag_204:\n      swap3\n      pop\n      pop\n      dup2\n      swap1\n      sstore\n      pop\n        /* \"contracts/storageChain.sol\":1770:3249  function stakeTokens(... */\n      jump\t// out\n        /* \"contracts/storageChain.sol\":5121:5155  function totalHoldings() public {} */\n    tag_107:\n      jump\t// out\n        /* \"@openzeppelin/contracts/access/Ownable.sol\":2081:2279  function transferOwnership(address newOwner) public virtual onlyOwner {... */\n    tag_111:\n        /* \"@openzeppelin/contracts/access/Ownable.sol\":1094:1107  _checkOwner() */\n      tag_207\n        /* \"@openzeppelin/contracts/access/Ownable.sol\":1094:1105  _checkOwner */\n      tag_131\n        /* \"@openzeppelin/contracts/access/Ownable.sol\":1094:1107  _checkOwner() */\n      jump\t// in\n    tag_207:\n        /* \"@openzeppelin/contracts/access/Ownable.sol\":2189:2190  0 */\n      0x00\n        /* \"@openzeppelin/contracts/access/Ownable.sol\":2169:2191  newOwner != address(0) */\n      0xffffffffffffffffffffffffffffffffffffffff\n      and\n        /* \"@openzeppelin/contracts/access/Ownable.sol\":2169:2177  newOwner */\n      dup2\n        /* \"@openzeppelin/contracts/access/Ownable.sol\":2169:2191  newOwner != address(0) */\n      0xffffffffffffffffffffffffffffffffffffffff\n      and\n      sub\n        /* \"@openzeppelin/contracts/access/Ownable.sol\":2161:2234  require(newOwner != address(0), \"Ownable: new owner is the zero address\") */\n      tag_209\n      jumpi\n      mload(0x40)\n      0x08c379a000000000000000000000000000000000000000000000000000000000\n      dup2\n      mstore\n      0x04\n      add\n      tag_210\n      swap1\n      tag_211\n      jump\t// in\n    tag_210:\n      mload(0x40)\n      dup1\n      swap2\n      sub\n      swap1\n      revert\n    tag_209:\n        /* \"@openzeppelin/contracts/access/Ownable.sol\":2244:2272  _transferOwnership(newOwner) */\n      tag_212\n        /* \"@openzeppelin/contracts/access/Ownable.sol\":2263:2271  newOwner */\n      dup2\n        /* \"@openzeppelin/contracts/access/Ownable.sol\":2244:2262  _transferOwnership */\n      tag_161\n        /* \"@openzeppelin/contracts/access/Ownable.sol\":2244:2272  _transferOwnership(newOwner) */\n      jump\t// in\n    tag_212:\n        /* \"@openzeppelin/contracts/access/Ownable.sol\":2081:2279  function transferOwnership(address newOwner) public virtual onlyOwner {... */\n      pop\n      jump\t// out\n        /* \"@openzeppelin/contracts/utils/Context.sol\":640:736  function _msgSender() internal view virtual returns (address) {... */\n    tag_118:\n        /* \"@openzeppelin/contracts/utils/Context.sol\":693:700  address */\n      0x00\n        /* \"@openzeppelin/contracts/utils/Context.sol\":719:729  msg.sender */\n      caller\n        /* \"@openzeppelin/contracts/utils/Context.sol\":712:729  return msg.sender */\n      swap1\n      pop\n        /* \"@openzeppelin/contracts/utils/Context.sol\":640:736  function _msgSender() internal view virtual returns (address) {... */\n      swap1\n      jump\t// out\n        /* \"@openzeppelin/contracts/access/Ownable.sol\":1359:1489  function _checkOwner() internal view virtual {... */\n    tag_131:\n        /* \"@openzeppelin/contracts/access/Ownable.sol\":1433:1445  _msgSender() */\n      tag_215\n        /* \"@openzeppelin/contracts/access/Ownable.sol\":1433:1443  _msgSender */\n      tag_118\n        /* \"@openzeppelin/contracts/access/Ownable.sol\":1433:1445  _msgSender() */\n      jump\t// in\n    tag_215:\n        /* \"@openzeppelin/contracts/access/Ownable.sol\":1422:1445  owner() == _msgSender() */\n      0xffffffffffffffffffffffffffffffffffffffff\n      and\n        /* \"@openzeppelin/contracts/access/Ownable.sol\":1422:1429  owner() */\n      tag_216\n        /* \"@openzeppelin/contracts/access/Ownable.sol\":1422:1427  owner */\n      tag_79\n        /* \"@openzeppelin/contracts/access/Ownable.sol\":1422:1429  owner() */\n      jump\t// in\n    tag_216:\n        /* \"@openzeppelin/contracts/access/Ownable.sol\":1422:1445  owner() == _msgSender() */\n      0xffffffffffffffffffffffffffffffffffffffff\n      and\n      eq\n        /* \"@openzeppelin/contracts/access/Ownable.sol\":1414:1482  require(owner() == _msgSender(), \"Ownable: caller is not the owner\") */\n      tag_217\n      jumpi\n      mload(0x40)\n      0x08c379a000000000000000000000000000000000000000000000000000000000\n      dup2\n      mstore\n      0x04\n      add\n      tag_218\n      swap1\n      tag_219\n      jump\t// in\n    tag_218:\n      mload(0x40)\n      dup1\n      swap2\n      sub\n      swap1\n      revert\n    tag_217:\n        /* \"@openzeppelin/contracts/access/Ownable.sol\":1359:1489  function _checkOwner() internal view virtual {... */\n      jump\t// out\n        /* \"@openzeppelin/contracts/access/Ownable.sol\":2433:2620  function _transferOwnership(address newOwner) internal virtual {... */\n    tag_161:\n        /* \"@openzeppelin/contracts/access/Ownable.sol\":2506:2522  address oldOwner */\n      0x00\n        /* \"@openzeppelin/contracts/access/Ownable.sol\":2525:2531  _owner */\n      dup1\n      0x00\n      swap1\n      sload\n      swap1\n      0x0100\n      exp\n      swap1\n      div\n      0xffffffffffffffffffffffffffffffffffffffff\n      and\n        /* \"@openzeppelin/contracts/access/Ownable.sol\":2506:2531  address oldOwner = _owner */\n      swap1\n      pop\n        /* \"@openzeppelin/contracts/access/Ownable.sol\":2550:2558  newOwner */\n      dup2\n        /* \"@openzeppelin/contracts/access/Ownable.sol\":2541:2547  _owner */\n      0x00\n      dup1\n        /* \"@openzeppelin/contracts/access/Ownable.sol\":2541:2558  _owner = newOwner */\n      0x0100\n      exp\n      dup2\n      sload\n      dup2\n      0xffffffffffffffffffffffffffffffffffffffff\n      mul\n      not\n      and\n      swap1\n      dup4\n      0xffffffffffffffffffffffffffffffffffffffff\n      and\n      mul\n      or\n      swap1\n      sstore\n      pop\n        /* \"@openzeppelin/contracts/access/Ownable.sol\":2604:2612  newOwner */\n      dup2\n        /* \"@openzeppelin/contracts/access/Ownable.sol\":2573:2613  OwnershipTransferred(oldOwner, newOwner) */\n      0xffffffffffffffffffffffffffffffffffffffff\n      and\n        /* \"@openzeppelin/contracts/access/Ownable.sol\":2594:2602  oldOwner */\n      dup2\n        /* \"@openzeppelin/contracts/access/Ownable.sol\":2573:2613  OwnershipTransferred(oldOwner, newOwner) */\n      0xffffffffffffffffffffffffffffffffffffffff\n      and\n      0x8be0079c531659141344cd1fd0a4f28419497f9722a3daafe3b4186f6b6457e0\n      mload(0x40)\n      mload(0x40)\n      dup1\n      swap2\n      sub\n      swap1\n      log3\n        /* \"@openzeppelin/contracts/access/Ownable.sol\":2496:2620  {... */\n      pop\n        /* \"@openzeppelin/contracts/access/Ownable.sol\":2433:2620  function _transferOwnership(address newOwner) internal virtual {... */\n      pop\n      jump\t// out\n        /* \"#utility.yul\":7:84   */\n    tag_221:\n        /* \"#utility.yul\":44:51   */\n      0x00\n        /* \"#utility.yul\":73:78   */\n      dup2\n        /* \"#utility.yul\":62:78   */\n      swap1\n      pop\n        /* \"#utility.yul\":7:84   */\n      swap2\n      swap1\n      pop\n      jump\t// out\n        /* \"#utility.yul\":90:208   */\n    tag_222:\n        /* \"#utility.yul\":177:201   */\n      tag_265\n        /* \"#utility.yul\":195:200   */\n      dup2\n        /* \"#utility.yul\":177:201   */\n      tag_221\n      jump\t// in\n    tag_265:\n        /* \"#utility.yul\":172:175   */\n      dup3\n        /* \"#utility.yul\":165:202   */\n      mstore\n        /* \"#utility.yul\":90:208   */\n      pop\n      pop\n      jump\t// out\n        /* \"#utility.yul\":214:436   */\n    tag_29:\n        /* \"#utility.yul\":307:311   */\n      0x00\n        /* \"#utility.yul\":345:347   */\n      0x20\n        /* \"#utility.yul\":334:343   */\n      dup3\n        /* \"#utility.yul\":330:348   */\n      add\n        /* \"#utility.yul\":322:348   */\n      swap1\n      pop\n        /* \"#utility.yul\":358:429   */\n      tag_267\n        /* \"#utility.yul\":426:427   */\n      0x00\n        /* \"#utility.yul\":415:424   */\n      dup4\n        /* \"#utility.yul\":411:428   */\n      add\n        /* \"#utility.yul\":402:408   */\n      dup5\n        /* \"#utility.yul\":358:429   */\n      tag_222\n      jump\t// in\n    tag_267:\n        /* \"#utility.yul\":214:436   */\n      swap3\n      swap2\n      pop\n      pop\n      jump\t// out\n        /* \"#utility.yul\":523:640   */\n    tag_224:\n        /* \"#utility.yul\":632:633   */\n      0x00\n        /* \"#utility.yul\":629:630   */\n      dup1\n        /* \"#utility.yul\":622:634   */\n      revert\n        /* \"#utility.yul\":769:895   */\n    tag_226:\n        /* \"#utility.yul\":806:813   */\n      0x00\n        /* \"#utility.yul\":846:888   */\n      0xffffffffffffffffffffffffffffffffffffffff\n        /* \"#utility.yul\":839:844   */\n      dup3\n        /* \"#utility.yul\":835:889   */\n      and\n        /* \"#utility.yul\":824:889   */\n      swap1\n      pop\n        /* \"#utility.yul\":769:895   */\n      swap2\n      swap1\n      pop\n      jump\t// out\n        /* \"#utility.yul\":901:997   */\n    tag_227:\n        /* \"#utility.yul\":938:945   */\n      0x00\n        /* \"#utility.yul\":967:991   */\n      tag_273\n        /* \"#utility.yul\":985:990   */\n      dup3\n        /* \"#utility.yul\":967:991   */\n      tag_226\n      jump\t// in\n    tag_273:\n        /* \"#utility.yul\":956:991   */\n      swap1\n      pop\n        /* \"#utility.yul\":901:997   */\n      swap2\n      swap1\n      pop\n      jump\t// out\n        /* \"#utility.yul\":1003:1125   */\n    tag_228:\n        /* \"#utility.yul\":1076:1100   */\n      tag_275\n        /* \"#utility.yul\":1094:1099   */\n      dup2\n        /* \"#utility.yul\":1076:1100   */\n      tag_227\n      jump\t// in\n    tag_275:\n        /* \"#utility.yul\":1069:1074   */\n      dup2\n        /* \"#utility.yul\":1066:1101   */\n      eq\n        /* \"#utility.yul\":1056:1119   */\n      tag_276\n      jumpi\n        /* \"#utility.yul\":1115:1116   */\n      0x00\n        /* \"#utility.yul\":1112:1113   */\n      dup1\n        /* \"#utility.yul\":1105:1117   */\n      revert\n        /* \"#utility.yul\":1056:1119   */\n    tag_276:\n        /* \"#utility.yul\":1003:1125   */\n      pop\n      jump\t// out\n        /* \"#utility.yul\":1131:1270   */\n    tag_229:\n        /* \"#utility.yul\":1177:1182   */\n      0x00\n        /* \"#utility.yul\":1215:1221   */\n      dup2\n        /* \"#utility.yul\":1202:1222   */\n      calldataload\n        /* \"#utility.yul\":1193:1222   */\n      swap1\n      pop\n        /* \"#utility.yul\":1231:1264   */\n      tag_278\n        /* \"#utility.yul\":1258:1263   */\n      dup2\n        /* \"#utility.yul\":1231:1264   */\n      tag_228\n      jump\t// in\n    tag_278:\n        /* \"#utility.yul\":1131:1270   */\n      swap3\n      swap2\n      pop\n      pop\n      jump\t// out\n        /* \"#utility.yul\":1276:1605   */\n    tag_33:\n        /* \"#utility.yul\":1335:1341   */\n      0x00\n        /* \"#utility.yul\":1384:1386   */\n      0x20\n        /* \"#utility.yul\":1372:1381   */\n      dup3\n        /* \"#utility.yul\":1363:1370   */\n      dup5\n        /* \"#utility.yul\":1359:1382   */\n      sub\n        /* \"#utility.yul\":1355:1387   */\n      slt\n        /* \"#utility.yul\":1352:1471   */\n      iszero\n      tag_280\n      jumpi\n        /* \"#utility.yul\":1390:1469   */\n      tag_281\n      tag_224\n      jump\t// in\n    tag_281:\n        /* \"#utility.yul\":1352:1471   */\n    tag_280:\n        /* \"#utility.yul\":1510:1511   */\n      0x00\n        /* \"#utility.yul\":1535:1588   */\n      tag_282\n        /* \"#utility.yul\":1580:1587   */\n      dup5\n        /* \"#utility.yul\":1571:1577   */\n      dup3\n        /* \"#utility.yul\":1560:1569   */\n      dup6\n        /* \"#utility.yul\":1556:1578   */\n      add\n        /* \"#utility.yul\":1535:1588   */\n      tag_229\n      jump\t// in\n    tag_282:\n        /* \"#utility.yul\":1525:1588   */\n      swap2\n      pop\n        /* \"#utility.yul\":1481:1598   */\n      pop\n        /* \"#utility.yul\":1276:1605   */\n      swap3\n      swap2\n      pop\n      pop\n      jump\t// out\n        /* \"#utility.yul\":1611:1733   */\n    tag_230:\n        /* \"#utility.yul\":1684:1708   */\n      tag_284\n        /* \"#utility.yul\":1702:1707   */\n      dup2\n        /* \"#utility.yul\":1684:1708   */\n      tag_221\n      jump\t// in\n    tag_284:\n        /* \"#utility.yul\":1677:1682   */\n      dup2\n        /* \"#utility.yul\":1674:1709   */\n      eq\n        /* \"#utility.yul\":1664:1727   */\n      tag_285\n      jumpi\n        /* \"#utility.yul\":1723:1724   */\n      0x00\n        /* \"#utility.yul\":1720:1721   */\n      dup1\n        /* \"#utility.yul\":1713:1725   */\n      revert\n        /* \"#utility.yul\":1664:1727   */\n    tag_285:\n        /* \"#utility.yul\":1611:1733   */\n      pop\n      jump\t// out\n        /* \"#utility.yul\":1739:1878   */\n    tag_231:\n        /* \"#utility.yul\":1785:1790   */\n      0x00\n        /* \"#utility.yul\":1823:1829   */\n      dup2\n        /* \"#utility.yul\":1810:1830   */\n      calldataload\n        /* \"#utility.yul\":1801:1830   */\n      swap1\n      pop\n        /* \"#utility.yul\":1839:1872   */\n      tag_287\n        /* \"#utility.yul\":1866:1871   */\n      dup2\n        /* \"#utility.yul\":1839:1872   */\n      tag_230\n      jump\t// in\n    tag_287:\n        /* \"#utility.yul\":1739:1878   */\n      swap3\n      swap2\n      pop\n      pop\n      jump\t// out\n        /* \"#utility.yul\":1884:1988   */\n    tag_232:\n        /* \"#utility.yul\":1929:1936   */\n      0x00\n        /* \"#utility.yul\":1958:1982   */\n      tag_289\n        /* \"#utility.yul\":1976:1981   */\n      dup3\n        /* \"#utility.yul\":1958:1982   */\n      tag_226\n      jump\t// in\n    tag_289:\n        /* \"#utility.yul\":1947:1982   */\n      swap1\n      pop\n        /* \"#utility.yul\":1884:1988   */\n      swap2\n      swap1\n      pop\n      jump\t// out\n        /* \"#utility.yul\":1994:2132   */\n    tag_233:\n        /* \"#utility.yul\":2075:2107   */\n      tag_291\n        /* \"#utility.yul\":2101:2106   */\n      dup2\n        /* \"#utility.yul\":2075:2107   */\n      tag_232\n      jump\t// in\n    tag_291:\n        /* \"#utility.yul\":2068:2073   */\n      dup2\n        /* \"#utility.yul\":2065:2108   */\n      eq\n        /* \"#utility.yul\":2055:2126   */\n      tag_292\n      jumpi\n        /* \"#utility.yul\":2122:2123   */\n      0x00\n        /* \"#utility.yul\":2119:2120   */\n      dup1\n        /* \"#utility.yul\":2112:2124   */\n      revert\n        /* \"#utility.yul\":2055:2126   */\n    tag_292:\n        /* \"#utility.yul\":1994:2132   */\n      pop\n      jump\t// out\n        /* \"#utility.yul\":2138:2293   */\n    tag_234:\n        /* \"#utility.yul\":2192:2197   */\n      0x00\n        /* \"#utility.yul\":2230:2236   */\n      dup2\n        /* \"#utility.yul\":2217:2237   */\n      calldataload\n        /* \"#utility.yul\":2208:2237   */\n      swap1\n      pop\n        /* \"#utility.yul\":2246:2287   */\n      tag_294\n        /* \"#utility.yul\":2281:2286   */\n      dup2\n        /* \"#utility.yul\":2246:2287   */\n      tag_233\n      jump\t// in\n    tag_294:\n        /* \"#utility.yul\":2138:2293   */\n      swap3\n      swap2\n      pop\n      pop\n      jump\t// out\n        /* \"#utility.yul\":2299:2789   */\n    tag_38:\n        /* \"#utility.yul\":2375:2381   */\n      0x00\n        /* \"#utility.yul\":2383:2389   */\n      dup1\n        /* \"#utility.yul\":2432:2434   */\n      0x40\n        /* \"#utility.yul\":2420:2429   */\n      dup4\n        /* \"#utility.yul\":2411:2418   */\n      dup6\n        /* \"#utility.yul\":2407:2430   */\n      sub\n        /* \"#utility.yul\":2403:2435   */\n      slt\n        /* \"#utility.yul\":2400:2519   */\n      iszero\n      tag_296\n      jumpi\n        /* \"#utility.yul\":2438:2517   */\n      tag_297\n      tag_224\n      jump\t// in\n    tag_297:\n        /* \"#utility.yul\":2400:2519   */\n    tag_296:\n        /* \"#utility.yul\":2558:2559   */\n      0x00\n        /* \"#utility.yul\":2583:2636   */\n      tag_298\n        /* \"#utility.yul\":2628:2635   */\n      dup6\n        /* \"#utility.yul\":2619:2625   */\n      dup3\n        /* \"#utility.yul\":2608:2617   */\n      dup7\n        /* \"#utility.yul\":2604:2626   */\n      add\n        /* \"#utility.yul\":2583:2636   */\n      tag_231\n      jump\t// in\n    tag_298:\n        /* \"#utility.yul\":2573:2636   */\n      swap3\n      pop\n        /* \"#utility.yul\":2529:2646   */\n      pop\n        /* \"#utility.yul\":2685:2687   */\n      0x20\n        /* \"#utility.yul\":2711:2772   */\n      tag_299\n        /* \"#utility.yul\":2764:2771   */\n      dup6\n        /* \"#utility.yul\":2755:2761   */\n      dup3\n        /* \"#utility.yul\":2744:2753   */\n      dup7\n        /* \"#utility.yul\":2740:2762   */\n      add\n        /* \"#utility.yul\":2711:2772   */\n      tag_234\n      jump\t// in\n    tag_299:\n        /* \"#utility.yul\":2701:2772   */\n      swap2\n      pop\n        /* \"#utility.yul\":2656:2782   */\n      pop\n        /* \"#utility.yul\":2299:2789   */\n      swap3\n      pop\n      swap3\n      swap1\n      pop\n      jump\t// out\n        /* \"#utility.yul\":2795:3706   */\n    tag_45:\n        /* \"#utility.yul\":2890:2896   */\n      0x00\n        /* \"#utility.yul\":2898:2904   */\n      dup1\n        /* \"#utility.yul\":2906:2912   */\n      0x00\n        /* \"#utility.yul\":2914:2920   */\n      dup1\n        /* \"#utility.yul\":2922:2928   */\n      0x00\n        /* \"#utility.yul\":2971:2974   */\n      0xa0\n        /* \"#utility.yul\":2959:2968   */\n      dup7\n        /* \"#utility.yul\":2950:2957   */\n      dup9\n        /* \"#utility.yul\":2946:2969   */\n      sub\n        /* \"#utility.yul\":2942:2975   */\n      slt\n        /* \"#utility.yul\":2939:3059   */\n      iszero\n      tag_301\n      jumpi\n        /* \"#utility.yul\":2978:3057   */\n      tag_302\n      tag_224\n      jump\t// in\n    tag_302:\n        /* \"#utility.yul\":2939:3059   */\n    tag_301:\n        /* \"#utility.yul\":3098:3099   */\n      0x00\n        /* \"#utility.yul\":3123:3176   */\n      tag_303\n        /* \"#utility.yul\":3168:3175   */\n      dup9\n        /* \"#utility.yul\":3159:3165   */\n      dup3\n        /* \"#utility.yul\":3148:3157   */\n      dup10\n        /* \"#utility.yul\":3144:3166   */\n      add\n        /* \"#utility.yul\":3123:3176   */\n      tag_229\n      jump\t// in\n    tag_303:\n        /* \"#utility.yul\":3113:3176   */\n      swap6\n      pop\n        /* \"#utility.yul\":3069:3186   */\n      pop\n        /* \"#utility.yul\":3225:3227   */\n      0x20\n        /* \"#utility.yul\":3251:3304   */\n      tag_304\n        /* \"#utility.yul\":3296:3303   */\n      dup9\n        /* \"#utility.yul\":3287:3293   */\n      dup3\n        /* \"#utility.yul\":3276:3285   */\n      dup10\n        /* \"#utility.yul\":3272:3294   */\n      add\n        /* \"#utility.yul\":3251:3304   */\n      tag_231\n      jump\t// in\n    tag_304:\n        /* \"#utility.yul\":3241:3304   */\n      swap5\n      pop\n        /* \"#utility.yul\":3196:3314   */\n      pop\n        /* \"#utility.yul\":3353:3355   */\n      0x40\n        /* \"#utility.yul\":3379:3432   */\n      tag_305\n        /* \"#utility.yul\":3424:3431   */\n      dup9\n        /* \"#utility.yul\":3415:3421   */\n      dup3\n        /* \"#utility.yul\":3404:3413   */\n      dup10\n        /* \"#utility.yul\":3400:3422   */\n      add\n        /* \"#utility.yul\":3379:3432   */\n      tag_231\n      jump\t// in\n    tag_305:\n        /* \"#utility.yul\":3369:3432   */\n      swap4\n      pop\n        /* \"#utility.yul\":3324:3442   */\n      pop\n        /* \"#utility.yul\":3481:3483   */\n      0x60\n        /* \"#utility.yul\":3507:3560   */\n      tag_306\n        /* \"#utility.yul\":3552:3559   */\n      dup9\n        /* \"#utility.yul\":3543:3549   */\n      dup3\n        /* \"#utility.yul\":3532:3541   */\n      dup10\n        /* \"#utility.yul\":3528:3550   */\n      add\n        /* \"#utility.yul\":3507:3560   */\n      tag_231\n      jump\t// in\n    tag_306:\n        /* \"#utility.yul\":3497:3560   */\n      swap3\n      pop\n        /* \"#utility.yul\":3452:3570   */\n      pop\n        /* \"#utility.yul\":3609:3612   */\n      0x80\n        /* \"#utility.yul\":3636:3689   */\n      tag_307\n        /* \"#utility.yul\":3681:3688   */\n      dup9\n        /* \"#utility.yul\":3672:3678   */\n      dup3\n        /* \"#utility.yul\":3661:3670   */\n      dup10\n        /* \"#utility.yul\":3657:3679   */\n      add\n        /* \"#utility.yul\":3636:3689   */\n      tag_231\n      jump\t// in\n    tag_307:\n        /* \"#utility.yul\":3626:3689   */\n      swap2\n      pop\n        /* \"#utility.yul\":3580:3699   */\n      pop\n        /* \"#utility.yul\":2795:3706   */\n      swap3\n      swap6\n      pop\n      swap3\n      swap6\n      swap1\n      swap4\n      pop\n      jump\t// out\n        /* \"#utility.yul\":3712:3802   */\n    tag_235:\n        /* \"#utility.yul\":3746:3753   */\n      0x00\n        /* \"#utility.yul\":3789:3794   */\n      dup2\n        /* \"#utility.yul\":3782:3795   */\n      iszero\n        /* \"#utility.yul\":3775:3796   */\n      iszero\n        /* \"#utility.yul\":3764:3796   */\n      swap1\n      pop\n        /* \"#utility.yul\":3712:3802   */\n      swap2\n      swap1\n      pop\n      jump\t// out\n        /* \"#utility.yul\":3808:3917   */\n    tag_236:\n        /* \"#utility.yul\":3889:3910   */\n      tag_310\n        /* \"#utility.yul\":3904:3909   */\n      dup2\n        /* \"#utility.yul\":3889:3910   */\n      tag_235\n      jump\t// in\n    tag_310:\n        /* \"#utility.yul\":3884:3887   */\n      dup3\n        /* \"#utility.yul\":3877:3911   */\n      mstore\n        /* \"#utility.yul\":3808:3917   */\n      pop\n      pop\n      jump\t// out\n        /* \"#utility.yul\":3923:4133   */\n    tag_59:\n        /* \"#utility.yul\":4010:4014   */\n      0x00\n        /* \"#utility.yul\":4048:4050   */\n      0x20\n        /* \"#utility.yul\":4037:4046   */\n      dup3\n        /* \"#utility.yul\":4033:4051   */\n      add\n        /* \"#utility.yul\":4025:4051   */\n      swap1\n      pop\n        /* \"#utility.yul\":4061:4126   */\n      tag_312\n        /* \"#utility.yul\":4123:4124   */\n      0x00\n        /* \"#utility.yul\":4112:4121   */\n      dup4\n        /* \"#utility.yul\":4108:4125   */\n      add\n        /* \"#utility.yul\":4099:4105   */\n      dup5\n        /* \"#utility.yul\":4061:4126   */\n      tag_236\n      jump\t// in\n    tag_312:\n        /* \"#utility.yul\":3923:4133   */\n      swap3\n      swap2\n      pop\n      pop\n      jump\t// out\n        /* \"#utility.yul\":4139:4629   */\n    tag_75:\n        /* \"#utility.yul\":4215:4221   */\n      0x00\n        /* \"#utility.yul\":4223:4229   */\n      dup1\n        /* \"#utility.yul\":4272:4274   */\n      0x40\n        /* \"#utility.yul\":4260:4269   */\n      dup4\n        /* \"#utility.yul\":4251:4258   */\n      dup6\n        /* \"#utility.yul\":4247:4270   */\n      sub\n        /* \"#utility.yul\":4243:4275   */\n      slt\n        /* \"#utility.yul\":4240:4359   */\n      iszero\n      tag_314\n      jumpi\n        /* \"#utility.yul\":4278:4357   */\n      tag_315\n      tag_224\n      jump\t// in\n    tag_315:\n        /* \"#utility.yul\":4240:4359   */\n    tag_314:\n        /* \"#utility.yul\":4398:4399   */\n      0x00\n        /* \"#utility.yul\":4423:4484   */\n      tag_316\n        /* \"#utility.yul\":4476:4483   */\n      dup6\n        /* \"#utility.yul\":4467:4473   */\n      dup3\n        /* \"#utility.yul\":4456:4465   */\n      dup7\n        /* \"#utility.yul\":4452:4474   */\n      add\n        /* \"#utility.yul\":4423:4484   */\n      tag_234\n      jump\t// in\n    tag_316:\n        /* \"#utility.yul\":4413:4484   */\n      swap3\n      pop\n        /* \"#utility.yul\":4369:4494   */\n      pop\n        /* \"#utility.yul\":4533:4535   */\n      0x20\n        /* \"#utility.yul\":4559:4612   */\n      tag_317\n        /* \"#utility.yul\":4604:4611   */\n      dup6\n        /* \"#utility.yul\":4595:4601   */\n      dup3\n        /* \"#utility.yul\":4584:4593   */\n      dup7\n        /* \"#utility.yul\":4580:4602   */\n      add\n        /* \"#utility.yul\":4559:4612   */\n      tag_231\n      jump\t// in\n    tag_317:\n        /* \"#utility.yul\":4549:4612   */\n      swap2\n      pop\n        /* \"#utility.yul\":4504:4622   */\n      pop\n        /* \"#utility.yul\":4139:4629   */\n      swap3\n      pop\n      swap3\n      swap1\n      pop\n      jump\t// out\n        /* \"#utility.yul\":4635:4753   */\n    tag_237:\n        /* \"#utility.yul\":4722:4746   */\n      tag_319\n        /* \"#utility.yul\":4740:4745   */\n      dup2\n        /* \"#utility.yul\":4722:4746   */\n      tag_227\n      jump\t// in\n    tag_319:\n        /* \"#utility.yul\":4717:4720   */\n      dup3\n        /* \"#utility.yul\":4710:4747   */\n      mstore\n        /* \"#utility.yul\":4635:4753   */\n      pop\n      pop\n      jump\t// out\n        /* \"#utility.yul\":4759:4981   */\n    tag_81:\n        /* \"#utility.yul\":4852:4856   */\n      0x00\n        /* \"#utility.yul\":4890:4892   */\n      0x20\n        /* \"#utility.yul\":4879:4888   */\n      dup3\n        /* \"#utility.yul\":4875:4893   */\n      add\n        /* \"#utility.yul\":4867:4893   */\n      swap1\n      pop\n        /* \"#utility.yul\":4903:4974   */\n      tag_321\n        /* \"#utility.yul\":4971:4972   */\n      0x00\n        /* \"#utility.yul\":4960:4969   */\n      dup4\n        /* \"#utility.yul\":4956:4973   */\n      add\n        /* \"#utility.yul\":4947:4953   */\n      dup5\n        /* \"#utility.yul\":4903:4974   */\n      tag_237\n      jump\t// in\n    tag_321:\n        /* \"#utility.yul\":4759:4981   */\n      swap3\n      swap2\n      pop\n      pop\n      jump\t// out\n        /* \"#utility.yul\":4987:5156   */\n    tag_238:\n        /* \"#utility.yul\":5071:5082   */\n      0x00\n        /* \"#utility.yul\":5105:5111   */\n      dup3\n        /* \"#utility.yul\":5100:5103   */\n      dup3\n        /* \"#utility.yul\":5093:5112   */\n      mstore\n        /* \"#utility.yul\":5145:5149   */\n      0x20\n        /* \"#utility.yul\":5140:5143   */\n      dup3\n        /* \"#utility.yul\":5136:5150   */\n      add\n        /* \"#utility.yul\":5121:5150   */\n      swap1\n      pop\n        /* \"#utility.yul\":4987:5156   */\n      swap3\n      swap2\n      pop\n      pop\n      jump\t// out\n        /* \"#utility.yul\":5162:5330   */\n    tag_239:\n        /* \"#utility.yul\":5302:5322   */\n      0x436f6e7472616374206973205061757365640000000000000000000000000000\n        /* \"#utility.yul\":5298:5299   */\n      0x00\n        /* \"#utility.yul\":5290:5296   */\n      dup3\n        /* \"#utility.yul\":5286:5300   */\n      add\n        /* \"#utility.yul\":5279:5323   */\n      mstore\n        /* \"#utility.yul\":5162:5330   */\n      pop\n      jump\t// out\n        /* \"#utility.yul\":5336:5702   */\n    tag_240:\n        /* \"#utility.yul\":5478:5481   */\n      0x00\n        /* \"#utility.yul\":5499:5566   */\n      tag_325\n        /* \"#utility.yul\":5563:5565   */\n      0x12\n        /* \"#utility.yul\":5558:5561   */\n      dup4\n        /* \"#utility.yul\":5499:5566   */\n      tag_238\n      jump\t// in\n    tag_325:\n        /* \"#utility.yul\":5492:5566   */\n      swap2\n      pop\n        /* \"#utility.yul\":5575:5668   */\n      tag_326\n        /* \"#utility.yul\":5664:5667   */\n      dup3\n        /* \"#utility.yul\":5575:5668   */\n      tag_239\n      jump\t// in\n    tag_326:\n        /* \"#utility.yul\":5693:5695   */\n      0x20\n        /* \"#utility.yul\":5688:5691   */\n      dup3\n        /* \"#utility.yul\":5684:5696   */\n      add\n        /* \"#utility.yul\":5677:5696   */\n      swap1\n      pop\n        /* \"#utility.yul\":5336:5702   */\n      swap2\n      swap1\n      pop\n      jump\t// out\n        /* \"#utility.yul\":5708:6127   */\n    tag_116:\n        /* \"#utility.yul\":5874:5878   */\n      0x00\n        /* \"#utility.yul\":5912:5914   */\n      0x20\n        /* \"#utility.yul\":5901:5910   */\n      dup3\n        /* \"#utility.yul\":5897:5915   */\n      add\n        /* \"#utility.yul\":5889:5915   */\n      swap1\n      pop\n        /* \"#utility.yul\":5961:5970   */\n      dup2\n        /* \"#utility.yul\":5955:5959   */\n      dup2\n        /* \"#utility.yul\":5951:5971   */\n      sub\n        /* \"#utility.yul\":5947:5948   */\n      0x00\n        /* \"#utility.yul\":5936:5945   */\n      dup4\n        /* \"#utility.yul\":5932:5949   */\n      add\n        /* \"#utility.yul\":5925:5972   */\n      mstore\n        /* \"#utility.yul\":5989:6120   */\n      tag_328\n        /* \"#utility.yul\":6115:6119   */\n      dup2\n        /* \"#utility.yul\":5989:6120   */\n      tag_240\n      jump\t// in\n    tag_328:\n        /* \"#utility.yul\":5981:6120   */\n      swap1\n      pop\n        /* \"#utility.yul\":5708:6127   */\n      swap2\n      swap1\n      pop\n      jump\t// out\n        /* \"#utility.yul\":6133:6314   */\n    tag_241:\n        /* \"#utility.yul\":6273:6306   */\n      0x496e73756666696369656e7420546f6b656e7320746f20576974684472617700\n        /* \"#utility.yul\":6269:6270   */\n      0x00\n        /* \"#utility.yul\":6261:6267   */\n      dup3\n        /* \"#utility.yul\":6257:6271   */\n      add\n        /* \"#utility.yul\":6250:6307   */\n      mstore\n        /* \"#utility.yul\":6133:6314   */\n      pop\n      jump\t// out\n        /* \"#utility.yul\":6320:6686   */\n    tag_242:\n        /* \"#utility.yul\":6462:6465   */\n      0x00\n        /* \"#utility.yul\":6483:6550   */\n      tag_331\n        /* \"#utility.yul\":6547:6549   */\n      0x1f\n        /* \"#utility.yul\":6542:6545   */\n      dup4\n        /* \"#utility.yul\":6483:6550   */\n      tag_238\n      jump\t// in\n    tag_331:\n        /* \"#utility.yul\":6476:6550   */\n      swap2\n      pop\n        /* \"#utility.yul\":6559:6652   */\n      tag_332\n        /* \"#utility.yul\":6648:6651   */\n      dup3\n        /* \"#utility.yul\":6559:6652   */\n      tag_241\n      jump\t// in\n    tag_332:\n        /* \"#utility.yul\":6677:6679   */\n      0x20\n        /* \"#utility.yul\":6672:6675   */\n      dup3\n        /* \"#utility.yul\":6668:6680   */\n      add\n        /* \"#utility.yul\":6661:6680   */\n      swap1\n      pop\n        /* \"#utility.yul\":6320:6686   */\n      swap2\n      swap1\n      pop\n      jump\t// out\n        /* \"#utility.yul\":6692:7111   */\n    tag_121:\n        /* \"#utility.yul\":6858:6862   */\n      0x00\n        /* \"#utility.yul\":6896:6898   */\n      0x20\n        /* \"#utility.yul\":6885:6894   */\n      dup3\n        /* \"#utility.yul\":6881:6899   */\n      add\n        /* \"#utility.yul\":6873:6899   */\n      swap1\n      pop\n        /* \"#utility.yul\":6945:6954   */\n      dup2\n        /* \"#utility.yul\":6939:6943   */\n      dup2\n        /* \"#utility.yul\":6935:6955   */\n      sub\n        /* \"#utility.yul\":6931:6932   */\n      0x00\n        /* \"#utility.yul\":6920:6929   */\n      dup4\n        /* \"#utility.yul\":6916:6933   */\n      add\n        /* \"#utility.yul\":6909:6956   */\n      mstore\n        /* \"#utility.yul\":6973:7104   */\n      tag_334\n        /* \"#utility.yul\":7099:7103   */\n      dup2\n        /* \"#utility.yul\":6973:7104   */\n      tag_242\n      jump\t// in\n    tag_334:\n        /* \"#utility.yul\":6965:7104   */\n      swap1\n      pop\n        /* \"#utility.yul\":6692:7111   */\n      swap2\n      swap1\n      pop\n      jump\t// out\n        /* \"#utility.yul\":7117:7297   */\n    tag_243:\n        /* \"#utility.yul\":7165:7242   */\n      0x4e487b7100000000000000000000000000000000000000000000000000000000\n        /* \"#utility.yul\":7162:7163   */\n      0x00\n        /* \"#utility.yul\":7155:7243   */\n      mstore\n        /* \"#utility.yul\":7262:7266   */\n      0x11\n        /* \"#utility.yul\":7259:7260   */\n      0x04\n        /* \"#utility.yul\":7252:7267   */\n      mstore\n        /* \"#utility.yul\":7286:7290   */\n      0x24\n        /* \"#utility.yul\":7283:7284   */\n      0x00\n        /* \"#utility.yul\":7276:7291   */\n      revert\n        /* \"#utility.yul\":7303:7497   */\n    tag_126:\n        /* \"#utility.yul\":7343:7347   */\n      0x00\n        /* \"#utility.yul\":7363:7383   */\n      tag_337\n        /* \"#utility.yul\":7381:7382   */\n      dup3\n        /* \"#utility.yul\":7363:7383   */\n      tag_221\n      jump\t// in\n    tag_337:\n        /* \"#utility.yul\":7358:7383   */\n      swap2\n      pop\n        /* \"#utility.yul\":7397:7417   */\n      tag_338\n        /* \"#utility.yul\":7415:7416   */\n      dup4\n        /* \"#utility.yul\":7397:7417   */\n      tag_221\n      jump\t// in\n    tag_338:\n        /* \"#utility.yul\":7392:7417   */\n      swap3\n      pop\n        /* \"#utility.yul\":7441:7442   */\n      dup3\n        /* \"#utility.yul\":7438:7439   */\n      dup3\n        /* \"#utility.yul\":7434:7443   */\n      sub\n        /* \"#utility.yul\":7426:7443   */\n      swap1\n      pop\n        /* \"#utility.yul\":7465:7466   */\n      dup2\n        /* \"#utility.yul\":7459:7463   */\n      dup2\n        /* \"#utility.yul\":7456:7467   */\n      gt\n        /* \"#utility.yul\":7453:7490   */\n      iszero\n      tag_339\n      jumpi\n        /* \"#utility.yul\":7470:7488   */\n      tag_340\n      tag_243\n      jump\t// in\n    tag_340:\n        /* \"#utility.yul\":7453:7490   */\n    tag_339:\n        /* \"#utility.yul\":7303:7497   */\n      swap3\n      swap2\n      pop\n      pop\n      jump\t// out\n        /* \"#utility.yul\":7503:7667   */\n    tag_244:\n        /* \"#utility.yul\":7643:7659   */\n      0x496e76616c696420416d6f756e74000000000000000000000000000000000000\n        /* \"#utility.yul\":7639:7640   */\n      0x00\n        /* \"#utility.yul\":7631:7637   */\n      dup3\n        /* \"#utility.yul\":7627:7641   */\n      add\n        /* \"#utility.yul\":7620:7660   */\n      mstore\n        /* \"#utility.yul\":7503:7667   */\n      pop\n      jump\t// out\n        /* \"#utility.yul\":7673:8039   */\n    tag_245:\n        /* \"#utility.yul\":7815:7818   */\n      0x00\n        /* \"#utility.yul\":7836:7903   */\n      tag_343\n        /* \"#utility.yul\":7900:7902   */\n      0x0e\n        /* \"#utility.yul\":7895:7898   */\n      dup4\n        /* \"#utility.yul\":7836:7903   */\n      tag_238\n      jump\t// in\n    tag_343:\n        /* \"#utility.yul\":7829:7903   */\n      swap2\n      pop\n        /* \"#utility.yul\":7912:8005   */\n      tag_344\n        /* \"#utility.yul\":8001:8004   */\n      dup3\n        /* \"#utility.yul\":7912:8005   */\n      tag_244\n      jump\t// in\n    tag_344:\n        /* \"#utility.yul\":8030:8032   */\n      0x20\n        /* \"#utility.yul\":8025:8028   */\n      dup3\n        /* \"#utility.yul\":8021:8033   */\n      add\n        /* \"#utility.yul\":8014:8033   */\n      swap1\n      pop\n        /* \"#utility.yul\":7673:8039   */\n      swap2\n      swap1\n      pop\n      jump\t// out\n        /* \"#utility.yul\":8045:8464   */\n    tag_135:\n        /* \"#utility.yul\":8211:8215   */\n      0x00\n        /* \"#utility.yul\":8249:8251   */\n      0x20\n        /* \"#utility.yul\":8238:8247   */\n      dup3\n        /* \"#utility.yul\":8234:8252   */\n      add\n        /* \"#utility.yul\":8226:8252   */\n      swap1\n      pop\n        /* \"#utility.yul\":8298:8307   */\n      dup2\n        /* \"#utility.yul\":8292:8296   */\n      dup2\n        /* \"#utility.yul\":8288:8308   */\n      sub\n        /* \"#utility.yul\":8284:8285   */\n      0x00\n        /* \"#utility.yul\":8273:8282   */\n      dup4\n        /* \"#utility.yul\":8269:8286   */\n      add\n        /* \"#utility.yul\":8262:8309   */\n      mstore\n        /* \"#utility.yul\":8326:8457   */\n      tag_346\n        /* \"#utility.yul\":8452:8456   */\n      dup2\n        /* \"#utility.yul\":8326:8457   */\n      tag_245\n      jump\t// in\n    tag_346:\n        /* \"#utility.yul\":8318:8457   */\n      swap1\n      pop\n        /* \"#utility.yul\":8045:8464   */\n      swap2\n      swap1\n      pop\n      jump\t// out\n        /* \"#utility.yul\":8470:8661   */\n    tag_137:\n        /* \"#utility.yul\":8510:8513   */\n      0x00\n        /* \"#utility.yul\":8529:8549   */\n      tag_348\n        /* \"#utility.yul\":8547:8548   */\n      dup3\n        /* \"#utility.yul\":8529:8549   */\n      tag_221\n      jump\t// in\n    tag_348:\n        /* \"#utility.yul\":8524:8549   */\n      swap2\n      pop\n        /* \"#utility.yul\":8563:8583   */\n      tag_349\n        /* \"#utility.yul\":8581:8582   */\n      dup4\n        /* \"#utility.yul\":8563:8583   */\n      tag_221\n      jump\t// in\n    tag_349:\n        /* \"#utility.yul\":8558:8583   */\n      swap3\n      pop\n        /* \"#utility.yul\":8606:8607   */\n      dup3\n        /* \"#utility.yul\":8603:8604   */\n      dup3\n        /* \"#utility.yul\":8599:8608   */\n      add\n        /* \"#utility.yul\":8592:8608   */\n      swap1\n      pop\n        /* \"#utility.yul\":8627:8630   */\n      dup1\n        /* \"#utility.yul\":8624:8625   */\n      dup3\n        /* \"#utility.yul\":8621:8631   */\n      gt\n        /* \"#utility.yul\":8618:8654   */\n      iszero\n      tag_350\n      jumpi\n        /* \"#utility.yul\":8634:8652   */\n      tag_351\n      tag_243\n      jump\t// in\n    tag_351:\n        /* \"#utility.yul\":8618:8654   */\n    tag_350:\n        /* \"#utility.yul\":8470:8661   */\n      swap3\n      swap2\n      pop\n      pop\n      jump\t// out\n        /* \"#utility.yul\":8667:8837   */\n    tag_246:\n        /* \"#utility.yul\":8807:8829   */\n      0x496e73756666696369656e742042616c616e6365000000000000000000000000\n        /* \"#utility.yul\":8803:8804   */\n      0x00\n        /* \"#utility.yul\":8795:8801   */\n      dup3\n        /* \"#utility.yul\":8791:8805   */\n      add\n        /* \"#utility.yul\":8784:8830   */\n      mstore\n        /* \"#utility.yul\":8667:8837   */\n      pop\n      jump\t// out\n        /* \"#utility.yul\":8843:9209   */\n    tag_247:\n        /* \"#utility.yul\":8985:8988   */\n      0x00\n        /* \"#utility.yul\":9006:9073   */\n      tag_354\n        /* \"#utility.yul\":9070:9072   */\n      0x14\n        /* \"#utility.yul\":9065:9068   */\n      dup4\n        /* \"#utility.yul\":9006:9073   */\n      tag_238\n      jump\t// in\n    tag_354:\n        /* \"#utility.yul\":8999:9073   */\n      swap2\n      pop\n        /* \"#utility.yul\":9082:9175   */\n      tag_355\n        /* \"#utility.yul\":9171:9174   */\n      dup3\n        /* \"#utility.yul\":9082:9175   */\n      tag_246\n      jump\t// in\n    tag_355:\n        /* \"#utility.yul\":9200:9202   */\n      0x20\n        /* \"#utility.yul\":9195:9198   */\n      dup3\n        /* \"#utility.yul\":9191:9203   */\n      add\n        /* \"#utility.yul\":9184:9203   */\n      swap1\n      pop\n        /* \"#utility.yul\":8843:9209   */\n      swap2\n      swap1\n      pop\n      jump\t// out\n        /* \"#utility.yul\":9215:9634   */\n    tag_150:\n        /* \"#utility.yul\":9381:9385   */\n      0x00\n        /* \"#utility.yul\":9419:9421   */\n      0x20\n        /* \"#utility.yul\":9408:9417   */\n      dup3\n        /* \"#utility.yul\":9404:9422   */\n      add\n        /* \"#utility.yul\":9396:9422   */\n      swap1\n      pop\n        /* \"#utility.yul\":9468:9477   */\n      dup2\n        /* \"#utility.yul\":9462:9466   */\n      dup2\n        /* \"#utility.yul\":9458:9478   */\n      sub\n        /* \"#utility.yul\":9454:9455   */\n      0x00\n        /* \"#utility.yul\":9443:9452   */\n      dup4\n        /* \"#utility.yul\":9439:9456   */\n      add\n        /* \"#utility.yul\":9432:9479   */\n      mstore\n        /* \"#utility.yul\":9496:9627   */\n      tag_357\n        /* \"#utility.yul\":9622:9626   */\n      dup2\n        /* \"#utility.yul\":9496:9627   */\n      tag_247\n      jump\t// in\n    tag_357:\n        /* \"#utility.yul\":9488:9627   */\n      swap1\n      pop\n        /* \"#utility.yul\":9215:9634   */\n      swap2\n      swap1\n      pop\n      jump\t// out\n        /* \"#utility.yul\":9640:9807   */\n    tag_248:\n        /* \"#utility.yul\":9780:9799   */\n      0x5374616b696e6720697320706175736564000000000000000000000000000000\n        /* \"#utility.yul\":9776:9777   */\n      0x00\n        /* \"#utility.yul\":9768:9774   */\n      dup3\n        /* \"#utility.yul\":9764:9778   */\n      add\n        /* \"#utility.yul\":9757:9800   */\n      mstore\n        /* \"#utility.yul\":9640:9807   */\n      pop\n      jump\t// out\n        /* \"#utility.yul\":9813:10179   */\n    tag_249:\n        /* \"#utility.yul\":9955:9958   */\n      0x00\n        /* \"#utility.yul\":9976:10043   */\n      tag_360\n        /* \"#utility.yul\":10040:10042   */\n      0x11\n        /* \"#utility.yul\":10035:10038   */\n      dup4\n        /* \"#utility.yul\":9976:10043   */\n      tag_238\n      jump\t// in\n    tag_360:\n        /* \"#utility.yul\":9969:10043   */\n      swap2\n      pop\n        /* \"#utility.yul\":10052:10145   */\n      tag_361\n        /* \"#utility.yul\":10141:10144   */\n      dup3\n        /* \"#utility.yul\":10052:10145   */\n      tag_248\n      jump\t// in\n    tag_361:\n        /* \"#utility.yul\":10170:10172   */\n      0x20\n        /* \"#utility.yul\":10165:10168   */\n      dup3\n        /* \"#utility.yul\":10161:10173   */\n      add\n        /* \"#utility.yul\":10154:10173   */\n      swap1\n      pop\n        /* \"#utility.yul\":9813:10179   */\n      swap2\n      swap1\n      pop\n      jump\t// out\n        /* \"#utility.yul\":10185:10604   */\n    tag_168:\n        /* \"#utility.yul\":10351:10355   */\n      0x00\n        /* \"#utility.yul\":10389:10391   */\n      0x20\n        /* \"#utility.yul\":10378:10387   */\n      dup3\n        /* \"#utility.yul\":10374:10392   */\n      add\n        /* \"#utility.yul\":10366:10392   */\n      swap1\n      pop\n        /* \"#utility.yul\":10438:10447   */\n      dup2\n        /* \"#utility.yul\":10432:10436   */\n      dup2\n        /* \"#utility.yul\":10428:10448   */\n      sub\n        /* \"#utility.yul\":10424:10425   */\n      0x00\n        /* \"#utility.yul\":10413:10422   */\n      dup4\n        /* \"#utility.yul\":10409:10426   */\n      add\n        /* \"#utility.yul\":10402:10449   */\n      mstore\n        /* \"#utility.yul\":10466:10597   */\n      tag_363\n        /* \"#utility.yul\":10592:10596   */\n      dup2\n        /* \"#utility.yul\":10466:10597   */\n      tag_249\n      jump\t// in\n    tag_363:\n        /* \"#utility.yul\":10458:10597   */\n      swap1\n      pop\n        /* \"#utility.yul\":10185:10604   */\n      swap2\n      swap1\n      pop\n      jump\t// out\n        /* \"#utility.yul\":10610:10792   */\n    tag_250:\n        /* \"#utility.yul\":10750:10784   */\n      0x54726561737572792068617320496e73756666696369656e7420546f6b656e73\n        /* \"#utility.yul\":10746:10747   */\n      0x00\n        /* \"#utility.yul\":10738:10744   */\n      dup3\n        /* \"#utility.yul\":10734:10748   */\n      add\n        /* \"#utility.yul\":10727:10785   */\n      mstore\n        /* \"#utility.yul\":10610:10792   */\n      pop\n      jump\t// out\n        /* \"#utility.yul\":10798:11164   */\n    tag_251:\n        /* \"#utility.yul\":10940:10943   */\n      0x00\n        /* \"#utility.yul\":10961:11028   */\n      tag_366\n        /* \"#utility.yul\":11025:11027   */\n      0x20\n        /* \"#utility.yul\":11020:11023   */\n      dup4\n        /* \"#utility.yul\":10961:11028   */\n      tag_238\n      jump\t// in\n    tag_366:\n        /* \"#utility.yul\":10954:11028   */\n      swap2\n      pop\n        /* \"#utility.yul\":11037:11130   */\n      tag_367\n        /* \"#utility.yul\":11126:11129   */\n      dup3\n        /* \"#utility.yul\":11037:11130   */\n      tag_250\n      jump\t// in\n    tag_367:\n        /* \"#utility.yul\":11155:11157   */\n      0x20\n        /* \"#utility.yul\":11150:11153   */\n      dup3\n        /* \"#utility.yul\":11146:11158   */\n      add\n        /* \"#utility.yul\":11139:11158   */\n      swap1\n      pop\n        /* \"#utility.yul\":10798:11164   */\n      swap2\n      swap1\n      pop\n      jump\t// out\n        /* \"#utility.yul\":11170:11589   */\n    tag_171:\n        /* \"#utility.yul\":11336:11340   */\n      0x00\n        /* \"#utility.yul\":11374:11376   */\n      0x20\n        /* \"#utility.yul\":11363:11372   */\n      dup3\n        /* \"#utility.yul\":11359:11377   */\n      add\n        /* \"#utility.yul\":11351:11377   */\n      swap1\n      pop\n        /* \"#utility.yul\":11423:11432   */\n      dup2\n        /* \"#utility.yul\":11417:11421   */\n      dup2\n        /* \"#utility.yul\":11413:11433   */\n      sub\n        /* \"#utility.yul\":11409:11410   */\n      0x00\n        /* \"#utility.yul\":11398:11407   */\n      dup4\n        /* \"#utility.yul\":11394:11411   */\n      add\n        /* \"#utility.yul\":11387:11434   */\n      mstore\n        /* \"#utility.yul\":11451:11582   */\n      tag_369\n        /* \"#utility.yul\":11577:11581   */\n      dup2\n        /* \"#utility.yul\":11451:11582   */\n      tag_251\n      jump\t// in\n    tag_369:\n        /* \"#utility.yul\":11443:11582   */\n      swap1\n      pop\n        /* \"#utility.yul\":11170:11589   */\n      swap2\n      swap1\n      pop\n      jump\t// out\n        /* \"#utility.yul\":11595:11768   */\n    tag_252:\n        /* \"#utility.yul\":11735:11760   */\n      0x5573657220446f657327742068617665205374616b6564000000000000000000\n        /* \"#utility.yul\":11731:11732   */\n      0x00\n        /* \"#utility.yul\":11723:11729   */\n      dup3\n        /* \"#utility.yul\":11719:11733   */\n      add\n        /* \"#utility.yul\":11712:11761   */\n      mstore\n        /* \"#utility.yul\":11595:11768   */\n      pop\n      jump\t// out\n        /* \"#utility.yul\":11774:12140   */\n    tag_253:\n        /* \"#utility.yul\":11916:11919   */\n      0x00\n        /* \"#utility.yul\":11937:12004   */\n      tag_372\n        /* \"#utility.yul\":12001:12003   */\n      0x17\n        /* \"#utility.yul\":11996:11999   */\n      dup4\n        /* \"#utility.yul\":11937:12004   */\n      tag_238\n      jump\t// in\n    tag_372:\n        /* \"#utility.yul\":11930:12004   */\n      swap2\n      pop\n        /* \"#utility.yul\":12013:12106   */\n      tag_373\n        /* \"#utility.yul\":12102:12105   */\n      dup3\n        /* \"#utility.yul\":12013:12106   */\n      tag_252\n      jump\t// in\n    tag_373:\n        /* \"#utility.yul\":12131:12133   */\n      0x20\n        /* \"#utility.yul\":12126:12129   */\n      dup3\n        /* \"#utility.yul\":12122:12134   */\n      add\n        /* \"#utility.yul\":12115:12134   */\n      swap1\n      pop\n        /* \"#utility.yul\":11774:12140   */\n      swap2\n      swap1\n      pop\n      jump\t// out\n        /* \"#utility.yul\":12146:12565   */\n    tag_175:\n        /* \"#utility.yul\":12312:12316   */\n      0x00\n        /* \"#utility.yul\":12350:12352   */\n      0x20\n        /* \"#utility.yul\":12339:12348   */\n      dup3\n        /* \"#utility.yul\":12335:12353   */\n      add\n        /* \"#utility.yul\":12327:12353   */\n      swap1\n      pop\n        /* \"#utility.yul\":12399:12408   */\n      dup2\n        /* \"#utility.yul\":12393:12397   */\n      dup2\n        /* \"#utility.yul\":12389:12409   */\n      sub\n        /* \"#utility.yul\":12385:12386   */\n      0x00\n        /* \"#utility.yul\":12374:12383   */\n      dup4\n        /* \"#utility.yul\":12370:12387   */\n      add\n        /* \"#utility.yul\":12363:12410   */\n      mstore\n        /* \"#utility.yul\":12427:12558   */\n      tag_375\n        /* \"#utility.yul\":12553:12557   */\n      dup2\n        /* \"#utility.yul\":12427:12558   */\n      tag_253\n      jump\t// in\n    tag_375:\n        /* \"#utility.yul\":12419:12558   */\n      swap1\n      pop\n        /* \"#utility.yul\":12146:12565   */\n      swap2\n      swap1\n      pop\n      jump\t// out\n        /* \"#utility.yul\":12571:12751   */\n    tag_254:\n        /* \"#utility.yul\":12711:12743   */\n      0x496e73756666696369656e742046756e647320746f2057697468647261770000\n        /* \"#utility.yul\":12707:12708   */\n      0x00\n        /* \"#utility.yul\":12699:12705   */\n      dup3\n        /* \"#utility.yul\":12695:12709   */\n      add\n        /* \"#utility.yul\":12688:12744   */\n      mstore\n        /* \"#utility.yul\":12571:12751   */\n      pop\n      jump\t// out\n        /* \"#utility.yul\":12757:13123   */\n    tag_255:\n        /* \"#utility.yul\":12899:12902   */\n      0x00\n        /* \"#utility.yul\":12920:12987   */\n      tag_378\n        /* \"#utility.yul\":12984:12986   */\n      0x1e\n        /* \"#utility.yul\":12979:12982   */\n      dup4\n        /* \"#utility.yul\":12920:12987   */\n      tag_238\n      jump\t// in\n    tag_378:\n        /* \"#utility.yul\":12913:12987   */\n      swap2\n      pop\n        /* \"#utility.yul\":12996:13089   */\n      tag_379\n        /* \"#utility.yul\":13085:13088   */\n      dup3\n        /* \"#utility.yul\":12996:13089   */\n      tag_254\n      jump\t// in\n    tag_379:\n        /* \"#utility.yul\":13114:13116   */\n      0x20\n        /* \"#utility.yul\":13109:13112   */\n      dup3\n        /* \"#utility.yul\":13105:13117   */\n      add\n        /* \"#utility.yul\":13098:13117   */\n      swap1\n      pop\n        /* \"#utility.yul\":12757:13123   */\n      swap2\n      swap1\n      pop\n      jump\t// out\n        /* \"#utility.yul\":13129:13548   */\n    tag_186:\n        /* \"#utility.yul\":13295:13299   */\n      0x00\n        /* \"#utility.yul\":13333:13335   */\n      0x20\n        /* \"#utility.yul\":13322:13331   */\n      dup3\n        /* \"#utility.yul\":13318:13336   */\n      add\n        /* \"#utility.yul\":13310:13336   */\n      swap1\n      pop\n        /* \"#utility.yul\":13382:13391   */\n      dup2\n        /* \"#utility.yul\":13376:13380   */\n      dup2\n        /* \"#utility.yul\":13372:13392   */\n      sub\n        /* \"#utility.yul\":13368:13369   */\n      0x00\n        /* \"#utility.yul\":13357:13366   */\n      dup4\n        /* \"#utility.yul\":13353:13370   */\n      add\n        /* \"#utility.yul\":13346:13393   */\n      mstore\n        /* \"#utility.yul\":13410:13541   */\n      tag_381\n        /* \"#utility.yul\":13536:13540   */\n      dup2\n        /* \"#utility.yul\":13410:13541   */\n      tag_255\n      jump\t// in\n    tag_381:\n        /* \"#utility.yul\":13402:13541   */\n      swap1\n      pop\n        /* \"#utility.yul\":13129:13548   */\n      swap2\n      swap1\n      pop\n      jump\t// out\n        /* \"#utility.yul\":13554:13718   */\n    tag_256:\n        /* \"#utility.yul\":13694:13710   */\n      0x43616e6e6f74207374616b652030000000000000000000000000000000000000\n        /* \"#utility.yul\":13690:13691   */\n      0x00\n        /* \"#utility.yul\":13682:13688   */\n      dup3\n        /* \"#utility.yul\":13678:13692   */\n      add\n        /* \"#utility.yul\":13671:13711   */\n      mstore\n        /* \"#utility.yul\":13554:13718   */\n      pop\n      jump\t// out\n        /* \"#utility.yul\":13724:14090   */\n    tag_257:\n        /* \"#utility.yul\":13866:13869   */\n      0x00\n        /* \"#utility.yul\":13887:13954   */\n      tag_384\n        /* \"#utility.yul\":13951:13953   */\n      0x0e\n        /* \"#utility.yul\":13946:13949   */\n      dup4\n        /* \"#utility.yul\":13887:13954   */\n      tag_238\n      jump\t// in\n    tag_384:\n        /* \"#utility.yul\":13880:13954   */\n      swap2\n      pop\n        /* \"#utility.yul\":13963:14056   */\n      tag_385\n        /* \"#utility.yul\":14052:14055   */\n      dup3\n        /* \"#utility.yul\":13963:14056   */\n      tag_256\n      jump\t// in\n    tag_385:\n        /* \"#utility.yul\":14081:14083   */\n      0x20\n        /* \"#utility.yul\":14076:14079   */\n      dup3\n        /* \"#utility.yul\":14072:14084   */\n      add\n        /* \"#utility.yul\":14065:14084   */\n      swap1\n      pop\n        /* \"#utility.yul\":13724:14090   */\n      swap2\n      swap1\n      pop\n      jump\t// out\n        /* \"#utility.yul\":14096:14515   */\n    tag_201:\n        /* \"#utility.yul\":14262:14266   */\n      0x00\n        /* \"#utility.yul\":14300:14302   */\n      0x20\n        /* \"#utility.yul\":14289:14298   */\n      dup3\n        /* \"#utility.yul\":14285:14303   */\n      add\n        /* \"#utility.yul\":14277:14303   */\n      swap1\n      pop\n        /* \"#utility.yul\":14349:14358   */\n      dup2\n        /* \"#utility.yul\":14343:14347   */\n      dup2\n        /* \"#utility.yul\":14339:14359   */\n      sub\n        /* \"#utility.yul\":14335:14336   */\n      0x00\n        /* \"#utility.yul\":14324:14333   */\n      dup4\n        /* \"#utility.yul\":14320:14337   */\n      add\n        /* \"#utility.yul\":14313:14360   */\n      mstore\n        /* \"#utility.yul\":14377:14508   */\n      tag_387\n        /* \"#utility.yul\":14503:14507   */\n      dup2\n        /* \"#utility.yul\":14377:14508   */\n      tag_257\n      jump\t// in\n    tag_387:\n        /* \"#utility.yul\":14369:14508   */\n      swap1\n      pop\n        /* \"#utility.yul\":14096:14515   */\n      swap2\n      swap1\n      pop\n      jump\t// out\n        /* \"#utility.yul\":14521:14746   */\n    tag_258:\n        /* \"#utility.yul\":14661:14695   */\n      0x4f776e61626c653a206e6577206f776e657220697320746865207a65726f2061\n        /* \"#utility.yul\":14657:14658   */\n      0x00\n        /* \"#utility.yul\":14649:14655   */\n      dup3\n        /* \"#utility.yul\":14645:14659   */\n      add\n        /* \"#utility.yul\":14638:14696   */\n      mstore\n        /* \"#utility.yul\":14730:14738   */\n      0x6464726573730000000000000000000000000000000000000000000000000000\n        /* \"#utility.yul\":14725:14727   */\n      0x20\n        /* \"#utility.yul\":14717:14723   */\n      dup3\n        /* \"#utility.yul\":14713:14728   */\n      add\n        /* \"#utility.yul\":14706:14739   */\n      mstore\n        /* \"#utility.yul\":14521:14746   */\n      pop\n      jump\t// out\n        /* \"#utility.yul\":14752:15118   */\n    tag_259:\n        /* \"#utility.yul\":14894:14897   */\n      0x00\n        /* \"#utility.yul\":14915:14982   */\n      tag_390\n        /* \"#utility.yul\":14979:14981   */\n      0x26\n        /* \"#utility.yul\":14974:14977   */\n      dup4\n        /* \"#utility.yul\":14915:14982   */\n      tag_238\n      jump\t// in\n    tag_390:\n        /* \"#utility.yul\":14908:14982   */\n      swap2\n      pop\n        /* \"#utility.yul\":14991:15084   */\n      tag_391\n        /* \"#utility.yul\":15080:15083   */\n      dup3\n        /* \"#utility.yul\":14991:15084   */\n      tag_258\n      jump\t// in\n    tag_391:\n        /* \"#utility.yul\":15109:15111   */\n      0x40\n        /* \"#utility.yul\":15104:15107   */\n      dup3\n        /* \"#utility.yul\":15100:15112   */\n      add\n        /* \"#utility.yul\":15093:15112   */\n      swap1\n      pop\n        /* \"#utility.yul\":14752:15118   */\n      swap2\n      swap1\n      pop\n      jump\t// out\n        /* \"#utility.yul\":15124:15543   */\n    tag_211:\n        /* \"#utility.yul\":15290:15294   */\n      0x00\n        /* \"#utility.yul\":15328:15330   */\n      0x20\n        /* \"#utility.yul\":15317:15326   */\n      dup3\n        /* \"#utility.yul\":15313:15331   */\n      add\n        /* \"#utility.yul\":15305:15331   */\n      swap1\n      pop\n        /* \"#utility.yul\":15377:15386   */\n      dup2\n        /* \"#utility.yul\":15371:15375   */\n      dup2\n        /* \"#utility.yul\":15367:15387   */\n      sub\n        /* \"#utility.yul\":15363:15364   */\n      0x00\n        /* \"#utility.yul\":15352:15361   */\n      dup4\n        /* \"#utility.yul\":15348:15365   */\n      add\n        /* \"#utility.yul\":15341:15388   */\n      mstore\n        /* \"#utility.yul\":15405:15536   */\n      tag_393\n        /* \"#utility.yul\":15531:15535   */\n      dup2\n        /* \"#utility.yul\":15405:15536   */\n      tag_259\n      jump\t// in\n    tag_393:\n        /* \"#utility.yul\":15397:15536   */\n      swap1\n      pop\n        /* \"#utility.yul\":15124:15543   */\n      swap2\n      swap1\n      pop\n      jump\t// out\n        /* \"#utility.yul\":15549:15731   */\n    tag_260:\n        /* \"#utility.yul\":15689:15723   */\n      0x4f776e61626c653a2063616c6c6572206973206e6f7420746865206f776e6572\n        /* \"#utility.yul\":15685:15686   */\n      0x00\n        /* \"#utility.yul\":15677:15683   */\n      dup3\n        /* \"#utility.yul\":15673:15687   */\n      add\n        /* \"#utility.yul\":15666:15724   */\n      mstore\n        /* \"#utility.yul\":15549:15731   */\n      pop\n      jump\t// out\n        /* \"#utility.yul\":15737:16103   */\n    tag_261:\n        /* \"#utility.yul\":15879:15882   */\n      0x00\n        /* \"#utility.yul\":15900:15967   */\n      tag_396\n        /* \"#utility.yul\":15964:15966   */\n      0x20\n        /* \"#utility.yul\":15959:15962   */\n      dup4\n        /* \"#utility.yul\":15900:15967   */\n      tag_238\n      jump\t// in\n    tag_396:\n        /* \"#utility.yul\":15893:15967   */\n      swap2\n      pop\n        /* \"#utility.yul\":15976:16069   */\n      tag_397\n        /* \"#utility.yul\":16065:16068   */\n      dup3\n        /* \"#utility.yul\":15976:16069   */\n      tag_260\n      jump\t// in\n    tag_397:\n        /* \"#utility.yul\":16094:16096   */\n      0x20\n        /* \"#utility.yul\":16089:16092   */\n      dup3\n        /* \"#utility.yul\":16085:16097   */\n      add\n        /* \"#utility.yul\":16078:16097   */\n      swap1\n      pop\n        /* \"#utility.yul\":15737:16103   */\n      swap2\n      swap1\n      pop\n      jump\t// out\n        /* \"#utility.yul\":16109:16528   */\n    tag_219:\n        /* \"#utility.yul\":16275:16279   */\n      0x00\n        /* \"#utility.yul\":16313:16315   */\n      0x20\n        /* \"#utility.yul\":16302:16311   */\n      dup3\n        /* \"#utility.yul\":16298:16316   */\n      add\n        /* \"#utility.yul\":16290:16316   */\n      swap1\n      pop\n        /* \"#utility.yul\":16362:16371   */\n      dup2\n        /* \"#utility.yul\":16356:16360   */\n      dup2\n        /* \"#utility.yul\":16352:16372   */\n      sub\n        /* \"#utility.yul\":16348:16349   */\n      0x00\n        /* \"#utility.yul\":16337:16346   */\n      dup4\n        /* \"#utility.yul\":16333:16350   */\n      add\n        /* \"#utility.yul\":16326:16373   */\n      mstore\n        /* \"#utility.yul\":16390:16521   */\n      tag_399\n        /* \"#utility.yul\":16516:16520   */\n      dup2\n        /* \"#utility.yul\":16390:16521   */\n      tag_261\n      jump\t// in\n    tag_399:\n        /* \"#utility.yul\":16382:16521   */\n      swap1\n      pop\n        /* \"#utility.yul\":16109:16528   */\n      swap2\n      swap1\n      pop\n      jump\t// out\n\n    auxdata: 0xa26469706673582212207446cf217d137528741400bd98314860061224fc13447fbb083fa2e9cebd600064736f6c63430008100033\n}\n",
				"bytecode": {
					"linkReferences": {},
					"object": "608060405234801561001057600080fd5b5061002d61002261003260201b60201c565b61003a60201b60201c565b6100fe565b600033905090565b60008060009054906101000a900473ffffffffffffffffffffffffffffffffffffffff169050816000806101000a81548173ffffffffffffffffffffffffffffffffffffffff021916908373ffffffffffffffffffffffffffffffffffffffff1602179055508173ffffffffffffffffffffffffffffffffffffffff168173ffffffffffffffffffffffffffffffffffffffff167f8be0079c531659141344cd1fd0a4f28419497f9722a3daafe3b4186f6b6457e060405160405180910390a35050565b6118a98061010d6000396000f3fe6080604052600436106101235760003560e01c806382723192116100a0578063a96b7f0511610064578063a96b7f05146103bf578063adc07c6f146103fc578063ce46643b14610439578063e9ec2e9914610443578063f2fde38b1461045a57610178565b806382723192146103005780638da5cb5b146103295780638e080dee1461035457806396cad0db1461037d578063a405b048146103a857610178565b80633ae73259116100e75780633ae732591461022b5780635c975abb146102565780636f9fb98a14610281578063715018a6146102ac5780637a766460146102c357610178565b8063042389941461017d57806306608c3c146101a65780630d8f7614146101cf5780631241a45a146101d957806316e966c31461020257610178565b36610178573373ffffffffffffffffffffffffffffffffffffffff167f1e57e3bb474320be3d2c77138f75b7c3941292d647f5f9634e33a8e94e0e069b3460405161016e9190611091565b60405180910390a2005b600080fd5b34801561018957600080fd5b506101a4600480360381019061019f919061110f565b610483565b005b3480156101b257600080fd5b506101cd60048036038101906101c891906111a6565b610486565b005b6101d761065c565b005b3480156101e557600080fd5b5061020060048036038101906101fb91906111e6565b6106c2565b005b34801561020e57600080fd5b50610229600480360381019061022491906111a6565b610875565b005b34801561023757600080fd5b50610240610976565b60405161024d9190611091565b60405180910390f35b34801561026257600080fd5b5061026b61097c565b604051610278919061127c565b60405180910390f35b34801561028d57600080fd5b5061029661098f565b6040516102a39190611091565b60405180910390f35b3480156102b857600080fd5b506102c1610997565b005b3480156102cf57600080fd5b506102ea60048036038101906102e5919061110f565b6109ab565b6040516102f79190611091565b60405180910390f35b34801561030c57600080fd5b5061032760048036038101906103229190611297565b6109f4565b005b34801561033557600080fd5b5061033e610bcc565b60405161034b91906112e6565b60405180910390f35b34801561036057600080fd5b5061037b600480360381019061037691906111a6565b610bf5565b005b34801561038957600080fd5b50610392610cf4565b60405161039f9190611091565b60405180910390f35b3480156103b457600080fd5b506103bd610cfa565b005b3480156103cb57600080fd5b506103e660048036038101906103e1919061110f565b610d5b565b6040516103f39190611091565b60405180910390f35b34801561040857600080fd5b50610423600480360381019061041e919061110f565b610d73565b604051610430919061127c565b60405180910390f35b610441610d9e565b005b34801561044f57600080fd5b50610458610ea9565b005b34801561046657600080fd5b50610481600480360381019061047c919061110f565b610eab565b005b50565b600360009054906101000a900460ff16156104d6576040517f08c379a00000000000000000000000000000000000000000000000000000000081526004016104cd9061135e565b60405180910390fd5b81600560006104e3610f2e565b73ffffffffffffffffffffffffffffffffffffffff1673ffffffffffffffffffffffffffffffffffffffff16815260200190815260200160002054101561055f576040517f08c379a0000000000000000000000000000000000000000000000000000000008152600401610556906113ca565b60405180910390fd5b8073ffffffffffffffffffffffffffffffffffffffff166108fc839081150290604051600060405180830381858888f193505050501580156105a5573d6000803e3d6000fd5b5081600560006105b3610f2e565b73ffffffffffffffffffffffffffffffffffffffff1673ffffffffffffffffffffffffffffffffffffffff16815260200190815260200160002060008282546105fc9190611419565b9250508190555061060b610f2e565b73ffffffffffffffffffffffffffffffffffffffff167f1d72140a7ccdb496bef50918d2598dd7edefb514f70e6d4beb528cbd16c80b7d836040516106509190611091565b60405180910390a25050565b610664610f36565b600034116106a7576040517f08c379a000000000000000000000000000000000000000000000000000000000815260040161069e90611499565b60405180910390fd5b34600160008282546106b991906114b9565b92505081905550565b6106ca610f36565b600660008673ffffffffffffffffffffffffffffffffffffffff1673ffffffffffffffffffffffffffffffffffffffff168152602001908152602001600020600001849080600181540180825580915050600190039060005260206000200160009091909190915055600660008673ffffffffffffffffffffffffffffffffffffffff1673ffffffffffffffffffffffffffffffffffffffff168152602001908152602001600020600101839080600181540180825580915050600190039060005260206000200160009091909190915055600660008673ffffffffffffffffffffffffffffffffffffffff1673ffffffffffffffffffffffffffffffffffffffff168152602001908152602001600020600201829080600181540180825580915050600190039060005260206000200160009091909190915055600660008673ffffffffffffffffffffffffffffffffffffffff1673ffffffffffffffffffffffffffffffffffffffff1681526020019081526020016000206003018190806001815401808255809150506001900390600052602060002001600090919091909150555050505050565b61087d610f36565b6002548211156108c2576040517f08c379a00000000000000000000000000000000000000000000000000000000081526004016108b990611539565b60405180910390fd5b600360009054906101000a900460ff1615610912576040517f08c379a00000000000000000000000000000000000000000000000000000000081526004016109099061135e565b60405180910390fd5b8073ffffffffffffffffffffffffffffffffffffffff166108fc839081150290604051600060405180830381858888f19350505050158015610958573d6000803e3d6000fd5b50816002600082825461096b9190611419565b925050819055505050565b60045481565b600360009054906101000a900460ff1681565b600047905090565b61099f610f36565b6109a96000610fb4565b565b6000600560008373ffffffffffffffffffffffffffffffffffffffff1673ffffffffffffffffffffffffffffffffffffffff168152602001908152602001600020549050919050565b6109fc610f36565b600360009054906101000a900460ff1615610a4c576040517f08c379a0000000000000000000000000000000000000000000000000000000008152600401610a43906115a5565b60405180910390fd5b600154811115610a91576040517f08c379a0000000000000000000000000000000000000000000000000000000008152600401610a8890611611565b60405180910390fd5b600060056000610a9f610f2e565b73ffffffffffffffffffffffffffffffffffffffff1673ffffffffffffffffffffffffffffffffffffffff1681526020019081526020016000205411610b1a576040517f08c379a0000000000000000000000000000000000000000000000000000000008152600401610b119061167d565b60405180910390fd5b8173ffffffffffffffffffffffffffffffffffffffff166108fc829081150290604051600060405180830381858888f19350505050158015610b60573d6000803e3d6000fd5b508060016000828254610b739190611419565b925050819055508173ffffffffffffffffffffffffffffffffffffffff167f1d72140a7ccdb496bef50918d2598dd7edefb514f70e6d4beb528cbd16c80b7d82604051610bc09190611091565b60405180910390a25050565b60008060009054906101000a900473ffffffffffffffffffffffffffffffffffffffff16905090565b610bfd610f36565b816001541015610c42576040517f08c379a0000000000000000000000000000000000000000000000000000000008152600401610c39906116e9565b60405180910390fd5b8073ffffffffffffffffffffffffffffffffffffffff166108fc839081150290604051600060405180830381858888f19350505050158015610c88573d6000803e3d6000fd5b508160016000828254610c9b9190611419565b925050819055508073ffffffffffffffffffffffffffffffffffffffff167f1d72140a7ccdb496bef50918d2598dd7edefb514f70e6d4beb528cbd16c80b7d83604051610ce89190611091565b60405180910390a25050565b60015481565b610d02610f36565b60011515600360009054906101000a900460ff16151503610d3d576000600360006101000a81548160ff021916908315150217905550610d59565b6001600360006101000a81548160ff0219169083151502179055505b565b60056020528060005260406000206000915090505481565b60066020528060005260406000206000915090508060040160009054906101000a900460ff16905081565b600360009054906101000a900460ff1615610dee576040517f08c379a0000000000000000000000000000000000000000000000000000000008152600401610de5906115a5565b60405180910390fd5b60003411610e31576040517f08c379a0000000000000000000000000000000000000000000000000000000008152600401610e2890611755565b60405180910390fd5b3460056000610e3e610f2e565b73ffffffffffffffffffffffffffffffffffffffff1673ffffffffffffffffffffffffffffffffffffffff1681526020019081526020016000206000828254610e8791906114b9565b925050819055503460046000828254610ea091906114b9565b92505081905550565b565b610eb3610f36565b600073ffffffffffffffffffffffffffffffffffffffff168173ffffffffffffffffffffffffffffffffffffffff1603610f22576040517f08c379a0000000000000000000000000000000000000000000000000000000008152600401610f19906117e7565b60405180910390fd5b610f2b81610fb4565b50565b600033905090565b610f3e610f2e565b73ffffffffffffffffffffffffffffffffffffffff16610f5c610bcc565b73ffffffffffffffffffffffffffffffffffffffff1614610fb2576040517f08c379a0000000000000000000000000000000000000000000000000000000008152600401610fa990611853565b60405180910390fd5b565b60008060009054906101000a900473ffffffffffffffffffffffffffffffffffffffff169050816000806101000a81548173ffffffffffffffffffffffffffffffffffffffff021916908373ffffffffffffffffffffffffffffffffffffffff1602179055508173ffffffffffffffffffffffffffffffffffffffff168173ffffffffffffffffffffffffffffffffffffffff167f8be0079c531659141344cd1fd0a4f28419497f9722a3daafe3b4186f6b6457e060405160405180910390a35050565b6000819050919050565b61108b81611078565b82525050565b60006020820190506110a66000830184611082565b92915050565b600080fd5b600073ffffffffffffffffffffffffffffffffffffffff82169050919050565b60006110dc826110b1565b9050919050565b6110ec816110d1565b81146110f757600080fd5b50565b600081359050611109816110e3565b92915050565b600060208284031215611125576111246110ac565b5b6000611133848285016110fa565b91505092915050565b61114581611078565b811461115057600080fd5b50565b6000813590506111628161113c565b92915050565b6000611173826110b1565b9050919050565b61118381611168565b811461118e57600080fd5b50565b6000813590506111a08161117a565b92915050565b600080604083850312156111bd576111bc6110ac565b5b60006111cb85828601611153565b92505060206111dc85828601611191565b9150509250929050565b600080600080600060a08688031215611202576112016110ac565b5b6000611210888289016110fa565b955050602061122188828901611153565b945050604061123288828901611153565b935050606061124388828901611153565b925050608061125488828901611153565b9150509295509295909350565b60008115159050919050565b61127681611261565b82525050565b6000602082019050611291600083018461126d565b92915050565b600080604083850312156112ae576112ad6110ac565b5b60006112bc85828601611191565b92505060206112cd85828601611153565b9150509250929050565b6112e0816110d1565b82525050565b60006020820190506112fb60008301846112d7565b92915050565b600082825260208201905092915050565b7f436f6e7472616374206973205061757365640000000000000000000000000000600082015250565b6000611348601283611301565b915061135382611312565b602082019050919050565b600060208201905081810360008301526113778161133b565b9050919050565b7f496e73756666696369656e7420546f6b656e7320746f20576974684472617700600082015250565b60006113b4601f83611301565b91506113bf8261137e565b602082019050919050565b600060208201905081810360008301526113e3816113a7565b9050919050565b7f4e487b7100000000000000000000000000000000000000000000000000000000600052601160045260246000fd5b600061142482611078565b915061142f83611078565b9250828203905081811115611447576114466113ea565b5b92915050565b7f496e76616c696420416d6f756e74000000000000000000000000000000000000600082015250565b6000611483600e83611301565b915061148e8261144d565b602082019050919050565b600060208201905081810360008301526114b281611476565b9050919050565b60006114c482611078565b91506114cf83611078565b92508282019050808211156114e7576114e66113ea565b5b92915050565b7f496e73756666696369656e742042616c616e6365000000000000000000000000600082015250565b6000611523601483611301565b915061152e826114ed565b602082019050919050565b6000602082019050818103600083015261155281611516565b9050919050565b7f5374616b696e6720697320706175736564000000000000000000000000000000600082015250565b600061158f601183611301565b915061159a82611559565b602082019050919050565b600060208201905081810360008301526115be81611582565b9050919050565b7f54726561737572792068617320496e73756666696369656e7420546f6b656e73600082015250565b60006115fb602083611301565b9150611606826115c5565b602082019050919050565b6000602082019050818103600083015261162a816115ee565b9050919050565b7f5573657220446f657327742068617665205374616b6564000000000000000000600082015250565b6000611667601783611301565b915061167282611631565b602082019050919050565b600060208201905081810360008301526116968161165a565b9050919050565b7f496e73756666696369656e742046756e647320746f2057697468647261770000600082015250565b60006116d3601e83611301565b91506116de8261169d565b602082019050919050565b60006020820190508181036000830152611702816116c6565b9050919050565b7f43616e6e6f74207374616b652030000000000000000000000000000000000000600082015250565b600061173f600e83611301565b915061174a82611709565b602082019050919050565b6000602082019050818103600083015261176e81611732565b9050919050565b7f4f776e61626c653a206e6577206f776e657220697320746865207a65726f206160008201527f6464726573730000000000000000000000000000000000000000000000000000602082015250565b60006117d1602683611301565b91506117dc82611775565b604082019050919050565b60006020820190508181036000830152611800816117c4565b9050919050565b7f4f776e61626c653a2063616c6c6572206973206e6f7420746865206f776e6572600082015250565b600061183d602083611301565b915061184882611807565b602082019050919050565b6000602082019050818103600083015261186c81611830565b905091905056fea26469706673582212207446cf217d137528741400bd98314860061224fc13447fbb083fa2e9cebd600064736f6c63430008100033",
					"opcodes": "PUSH1 0x80 PUSH1 0x40 MSTORE CALLVALUE DUP1 ISZERO PUSH2 0x10 JUMPI PUSH1 0x0 DUP1 REVERT JUMPDEST POP PUSH2 0x2D PUSH2 0x22 PUSH2 0x32 PUSH1 0x20 SHL PUSH1 0x20 SHR JUMP JUMPDEST PUSH2 0x3A PUSH1 0x20 SHL PUSH1 0x20 SHR JUMP JUMPDEST PUSH2 0xFE JUMP JUMPDEST PUSH1 0x0 CALLER SWAP1 POP SWAP1 JUMP JUMPDEST PUSH1 0x0 DUP1 PUSH1 0x0 SWAP1 SLOAD SWAP1 PUSH2 0x100 EXP SWAP1 DIV PUSH20 0xFFFFFFFFFFFFFFFFFFFFFFFFFFFFFFFFFFFFFFFF AND SWAP1 POP DUP2 PUSH1 0x0 DUP1 PUSH2 0x100 EXP DUP2 SLOAD DUP2 PUSH20 0xFFFFFFFFFFFFFFFFFFFFFFFFFFFFFFFFFFFFFFFF MUL NOT AND SWAP1 DUP4 PUSH20 0xFFFFFFFFFFFFFFFFFFFFFFFFFFFFFFFFFFFFFFFF AND MUL OR SWAP1 SSTORE POP DUP2 PUSH20 0xFFFFFFFFFFFFFFFFFFFFFFFFFFFFFFFFFFFFFFFF AND DUP2 PUSH20 0xFFFFFFFFFFFFFFFFFFFFFFFFFFFFFFFFFFFFFFFF AND PUSH32 0x8BE0079C531659141344CD1FD0A4F28419497F9722A3DAAFE3B4186F6B6457E0 PUSH1 0x40 MLOAD PUSH1 0x40 MLOAD DUP1 SWAP2 SUB SWAP1 LOG3 POP POP JUMP JUMPDEST PUSH2 0x18A9 DUP1 PUSH2 0x10D PUSH1 0x0 CODECOPY PUSH1 0x0 RETURN INVALID PUSH1 0x80 PUSH1 0x40 MSTORE PUSH1 0x4 CALLDATASIZE LT PUSH2 0x123 JUMPI PUSH1 0x0 CALLDATALOAD PUSH1 0xE0 SHR DUP1 PUSH4 0x82723192 GT PUSH2 0xA0 JUMPI DUP1 PUSH4 0xA96B7F05 GT PUSH2 0x64 JUMPI DUP1 PUSH4 0xA96B7F05 EQ PUSH2 0x3BF JUMPI DUP1 PUSH4 0xADC07C6F EQ PUSH2 0x3FC JUMPI DUP1 PUSH4 0xCE46643B EQ PUSH2 0x439 JUMPI DUP1 PUSH4 0xE9EC2E99 EQ PUSH2 0x443 JUMPI DUP1 PUSH4 0xF2FDE38B EQ PUSH2 0x45A JUMPI PUSH2 0x178 JUMP JUMPDEST DUP1 PUSH4 0x82723192 EQ PUSH2 0x300 JUMPI DUP1 PUSH4 0x8DA5CB5B EQ PUSH2 0x329 JUMPI DUP1 PUSH4 0x8E080DEE EQ PUSH2 0x354 JUMPI DUP1 PUSH4 0x96CAD0DB EQ PUSH2 0x37D JUMPI DUP1 PUSH4 0xA405B048 EQ PUSH2 0x3A8 JUMPI PUSH2 0x178 JUMP JUMPDEST DUP1 PUSH4 0x3AE73259 GT PUSH2 0xE7 JUMPI DUP1 PUSH4 0x3AE73259 EQ PUSH2 0x22B JUMPI DUP1 PUSH4 0x5C975ABB EQ PUSH2 0x256 JUMPI DUP1 PUSH4 0x6F9FB98A EQ PUSH2 0x281 JUMPI DUP1 PUSH4 0x715018A6 EQ PUSH2 0x2AC JUMPI DUP1 PUSH4 0x7A766460 EQ PUSH2 0x2C3 JUMPI PUSH2 0x178 JUMP JUMPDEST DUP1 PUSH4 0x4238994 EQ PUSH2 0x17D JUMPI DUP1 PUSH4 0x6608C3C EQ PUSH2 0x1A6 JUMPI DUP1 PUSH4 0xD8F7614 EQ PUSH2 0x1CF JUMPI DUP1 PUSH4 0x1241A45A EQ PUSH2 0x1D9 JUMPI DUP1 PUSH4 0x16E966C3 EQ PUSH2 0x202 JUMPI PUSH2 0x178 JUMP JUMPDEST CALLDATASIZE PUSH2 0x178 JUMPI CALLER PUSH20 0xFFFFFFFFFFFFFFFFFFFFFFFFFFFFFFFFFFFFFFFF AND PUSH32 0x1E57E3BB474320BE3D2C77138F75B7C3941292D647F5F9634E33A8E94E0E069B CALLVALUE PUSH1 0x40 MLOAD PUSH2 0x16E SWAP2 SWAP1 PUSH2 0x1091 JUMP JUMPDEST PUSH1 0x40 MLOAD DUP1 SWAP2 SUB SWAP1 LOG2 STOP JUMPDEST PUSH1 0x0 DUP1 REVERT JUMPDEST CALLVALUE DUP1 ISZERO PUSH2 0x189 JUMPI PUSH1 0x0 DUP1 REVERT JUMPDEST POP PUSH2 0x1A4 PUSH1 0x4 DUP1 CALLDATASIZE SUB DUP2 ADD SWAP1 PUSH2 0x19F SWAP2 SWAP1 PUSH2 0x110F JUMP JUMPDEST PUSH2 0x483 JUMP JUMPDEST STOP JUMPDEST CALLVALUE DUP1 ISZERO PUSH2 0x1B2 JUMPI PUSH1 0x0 DUP1 REVERT JUMPDEST POP PUSH2 0x1CD PUSH1 0x4 DUP1 CALLDATASIZE SUB DUP2 ADD SWAP1 PUSH2 0x1C8 SWAP2 SWAP1 PUSH2 0x11A6 JUMP JUMPDEST PUSH2 0x486 JUMP JUMPDEST STOP JUMPDEST PUSH2 0x1D7 PUSH2 0x65C JUMP JUMPDEST STOP JUMPDEST CALLVALUE DUP1 ISZERO PUSH2 0x1E5 JUMPI PUSH1 0x0 DUP1 REVERT JUMPDEST POP PUSH2 0x200 PUSH1 0x4 DUP1 CALLDATASIZE SUB DUP2 ADD SWAP1 PUSH2 0x1FB SWAP2 SWAP1 PUSH2 0x11E6 JUMP JUMPDEST PUSH2 0x6C2 JUMP JUMPDEST STOP JUMPDEST CALLVALUE DUP1 ISZERO PUSH2 0x20E JUMPI PUSH1 0x0 DUP1 REVERT JUMPDEST POP PUSH2 0x229 PUSH1 0x4 DUP1 CALLDATASIZE SUB DUP2 ADD SWAP1 PUSH2 0x224 SWAP2 SWAP1 PUSH2 0x11A6 JUMP JUMPDEST PUSH2 0x875 JUMP JUMPDEST STOP JUMPDEST CALLVALUE DUP1 ISZERO PUSH2 0x237 JUMPI PUSH1 0x0 DUP1 REVERT JUMPDEST POP PUSH2 0x240 PUSH2 0x976 JUMP JUMPDEST PUSH1 0x40 MLOAD PUSH2 0x24D SWAP2 SWAP1 PUSH2 0x1091 JUMP JUMPDEST PUSH1 0x40 MLOAD DUP1 SWAP2 SUB SWAP1 RETURN JUMPDEST CALLVALUE DUP1 ISZERO PUSH2 0x262 JUMPI PUSH1 0x0 DUP1 REVERT JUMPDEST POP PUSH2 0x26B PUSH2 0x97C JUMP JUMPDEST PUSH1 0x40 MLOAD PUSH2 0x278 SWAP2 SWAP1 PUSH2 0x127C JUMP JUMPDEST PUSH1 0x40 MLOAD DUP1 SWAP2 SUB SWAP1 RETURN JUMPDEST CALLVALUE DUP1 ISZERO PUSH2 0x28D JUMPI PUSH1 0x0 DUP1 REVERT JUMPDEST POP PUSH2 0x296 PUSH2 0x98F JUMP JUMPDEST PUSH1 0x40 MLOAD PUSH2 0x2A3 SWAP2 SWAP1 PUSH2 0x1091 JUMP JUMPDEST PUSH1 0x40 MLOAD DUP1 SWAP2 SUB SWAP1 RETURN JUMPDEST CALLVALUE DUP1 ISZERO PUSH2 0x2B8 JUMPI PUSH1 0x0 DUP1 REVERT JUMPDEST POP PUSH2 0x2C1 PUSH2 0x997 JUMP JUMPDEST STOP JUMPDEST CALLVALUE DUP1 ISZERO PUSH2 0x2CF JUMPI PUSH1 0x0 DUP1 REVERT JUMPDEST POP PUSH2 0x2EA PUSH1 0x4 DUP1 CALLDATASIZE SUB DUP2 ADD SWAP1 PUSH2 0x2E5 SWAP2 SWAP1 PUSH2 0x110F JUMP JUMPDEST PUSH2 0x9AB JUMP JUMPDEST PUSH1 0x40 MLOAD PUSH2 0x2F7 SWAP2 SWAP1 PUSH2 0x1091 JUMP JUMPDEST PUSH1 0x40 MLOAD DUP1 SWAP2 SUB SWAP1 RETURN JUMPDEST CALLVALUE DUP1 ISZERO PUSH2 0x30C JUMPI PUSH1 0x0 DUP1 REVERT JUMPDEST POP PUSH2 0x327 PUSH1 0x4 DUP1 CALLDATASIZE SUB DUP2 ADD SWAP1 PUSH2 0x322 SWAP2 SWAP1 PUSH2 0x1297 JUMP JUMPDEST PUSH2 0x9F4 JUMP JUMPDEST STOP JUMPDEST CALLVALUE DUP1 ISZERO PUSH2 0x335 JUMPI PUSH1 0x0 DUP1 REVERT JUMPDEST POP PUSH2 0x33E PUSH2 0xBCC JUMP JUMPDEST PUSH1 0x40 MLOAD PUSH2 0x34B SWAP2 SWAP1 PUSH2 0x12E6 JUMP JUMPDEST PUSH1 0x40 MLOAD DUP1 SWAP2 SUB SWAP1 RETURN JUMPDEST CALLVALUE DUP1 ISZERO PUSH2 0x360 JUMPI PUSH1 0x0 DUP1 REVERT JUMPDEST POP PUSH2 0x37B PUSH1 0x4 DUP1 CALLDATASIZE SUB DUP2 ADD SWAP1 PUSH2 0x376 SWAP2 SWAP1 PUSH2 0x11A6 JUMP JUMPDEST PUSH2 0xBF5 JUMP JUMPDEST STOP JUMPDEST CALLVALUE DUP1 ISZERO PUSH2 0x389 JUMPI PUSH1 0x0 DUP1 REVERT JUMPDEST POP PUSH2 0x392 PUSH2 0xCF4 JUMP JUMPDEST PUSH1 0x40 MLOAD PUSH2 0x39F SWAP2 SWAP1 PUSH2 0x1091 JUMP JUMPDEST PUSH1 0x40 MLOAD DUP1 SWAP2 SUB SWAP1 RETURN JUMPDEST CALLVALUE DUP1 ISZERO PUSH2 0x3B4 JUMPI PUSH1 0x0 DUP1 REVERT JUMPDEST POP PUSH2 0x3BD PUSH2 0xCFA JUMP JUMPDEST STOP JUMPDEST CALLVALUE DUP1 ISZERO PUSH2 0x3CB JUMPI PUSH1 0x0 DUP1 REVERT JUMPDEST POP PUSH2 0x3E6 PUSH1 0x4 DUP1 CALLDATASIZE SUB DUP2 ADD SWAP1 PUSH2 0x3E1 SWAP2 SWAP1 PUSH2 0x110F JUMP JUMPDEST PUSH2 0xD5B JUMP JUMPDEST PUSH1 0x40 MLOAD PUSH2 0x3F3 SWAP2 SWAP1 PUSH2 0x1091 JUMP JUMPDEST PUSH1 0x40 MLOAD DUP1 SWAP2 SUB SWAP1 RETURN JUMPDEST CALLVALUE DUP1 ISZERO PUSH2 0x408 JUMPI PUSH1 0x0 DUP1 REVERT JUMPDEST POP PUSH2 0x423 PUSH1 0x4 DUP1 CALLDATASIZE SUB DUP2 ADD SWAP1 PUSH2 0x41E SWAP2 SWAP1 PUSH2 0x110F JUMP JUMPDEST PUSH2 0xD73 JUMP JUMPDEST PUSH1 0x40 MLOAD PUSH2 0x430 SWAP2 SWAP1 PUSH2 0x127C JUMP JUMPDEST PUSH1 0x40 MLOAD DUP1 SWAP2 SUB SWAP1 RETURN JUMPDEST PUSH2 0x441 PUSH2 0xD9E JUMP JUMPDEST STOP JUMPDEST CALLVALUE DUP1 ISZERO PUSH2 0x44F JUMPI PUSH1 0x0 DUP1 REVERT JUMPDEST POP PUSH2 0x458 PUSH2 0xEA9 JUMP JUMPDEST STOP JUMPDEST CALLVALUE DUP1 ISZERO PUSH2 0x466 JUMPI PUSH1 0x0 DUP1 REVERT JUMPDEST POP PUSH2 0x481 PUSH1 0x4 DUP1 CALLDATASIZE SUB DUP2 ADD SWAP1 PUSH2 0x47C SWAP2 SWAP1 PUSH2 0x110F JUMP JUMPDEST PUSH2 0xEAB JUMP JUMPDEST STOP JUMPDEST POP JUMP JUMPDEST PUSH1 0x3 PUSH1 0x0 SWAP1 SLOAD SWAP1 PUSH2 0x100 EXP SWAP1 DIV PUSH1 0xFF AND ISZERO PUSH2 0x4D6 JUMPI PUSH1 0x40 MLOAD PUSH32 0x8C379A000000000000000000000000000000000000000000000000000000000 DUP2 MSTORE PUSH1 0x4 ADD PUSH2 0x4CD SWAP1 PUSH2 0x135E JUMP JUMPDEST PUSH1 0x40 MLOAD DUP1 SWAP2 SUB SWAP1 REVERT JUMPDEST DUP2 PUSH1 0x5 PUSH1 0x0 PUSH2 0x4E3 PUSH2 0xF2E JUMP JUMPDEST PUSH20 0xFFFFFFFFFFFFFFFFFFFFFFFFFFFFFFFFFFFFFFFF AND PUSH20 0xFFFFFFFFFFFFFFFFFFFFFFFFFFFFFFFFFFFFFFFF AND DUP2 MSTORE PUSH1 0x20 ADD SWAP1 DUP2 MSTORE PUSH1 0x20 ADD PUSH1 0x0 KECCAK256 SLOAD LT ISZERO PUSH2 0x55F JUMPI PUSH1 0x40 MLOAD PUSH32 0x8C379A000000000000000000000000000000000000000000000000000000000 DUP2 MSTORE PUSH1 0x4 ADD PUSH2 0x556 SWAP1 PUSH2 0x13CA JUMP JUMPDEST PUSH1 0x40 MLOAD DUP1 SWAP2 SUB SWAP1 REVERT JUMPDEST DUP1 PUSH20 0xFFFFFFFFFFFFFFFFFFFFFFFFFFFFFFFFFFFFFFFF AND PUSH2 0x8FC DUP4 SWAP1 DUP2 ISZERO MUL SWAP1 PUSH1 0x40 MLOAD PUSH1 0x0 PUSH1 0x40 MLOAD DUP1 DUP4 SUB DUP2 DUP6 DUP9 DUP9 CALL SWAP4 POP POP POP POP ISZERO DUP1 ISZERO PUSH2 0x5A5 JUMPI RETURNDATASIZE PUSH1 0x0 DUP1 RETURNDATACOPY RETURNDATASIZE PUSH1 0x0 REVERT JUMPDEST POP DUP2 PUSH1 0x5 PUSH1 0x0 PUSH2 0x5B3 PUSH2 0xF2E JUMP JUMPDEST PUSH20 0xFFFFFFFFFFFFFFFFFFFFFFFFFFFFFFFFFFFFFFFF AND PUSH20 0xFFFFFFFFFFFFFFFFFFFFFFFFFFFFFFFFFFFFFFFF AND DUP2 MSTORE PUSH1 0x20 ADD SWAP1 DUP2 MSTORE PUSH1 0x20 ADD PUSH1 0x0 KECCAK256 PUSH1 0x0 DUP3 DUP3 SLOAD PUSH2 0x5FC SWAP2 SWAP1 PUSH2 0x1419 JUMP JUMPDEST SWAP3 POP POP DUP2 SWAP1 SSTORE POP PUSH2 0x60B PUSH2 0xF2E JUMP JUMPDEST PUSH20 0xFFFFFFFFFFFFFFFFFFFFFFFFFFFFFFFFFFFFFFFF AND PUSH32 0x1D72140A7CCDB496BEF50918D2598DD7EDEFB514F70E6D4BEB528CBD16C80B7D DUP4 PUSH1 0x40 MLOAD PUSH2 0x650 SWAP2 SWAP1 PUSH2 0x1091 JUMP JUMPDEST PUSH1 0x40 MLOAD DUP1 SWAP2 SUB SWAP1 LOG2 POP POP JUMP JUMPDEST PUSH2 0x664 PUSH2 0xF36 JUMP JUMPDEST PUSH1 0x0 CALLVALUE GT PUSH2 0x6A7 JUMPI PUSH1 0x40 MLOAD PUSH32 0x8C379A000000000000000000000000000000000000000000000000000000000 DUP2 MSTORE PUSH1 0x4 ADD PUSH2 0x69E SWAP1 PUSH2 0x1499 JUMP JUMPDEST PUSH1 0x40 MLOAD DUP1 SWAP2 SUB SWAP1 REVERT JUMPDEST CALLVALUE PUSH1 0x1 PUSH1 0x0 DUP3 DUP3 SLOAD PUSH2 0x6B9 SWAP2 SWAP1 PUSH2 0x14B9 JUMP JUMPDEST SWAP3 POP POP DUP2 SWAP1 SSTORE POP JUMP JUMPDEST PUSH2 0x6CA PUSH2 0xF36 JUMP JUMPDEST PUSH1 0x6 PUSH1 0x0 DUP7 PUSH20 0xFFFFFFFFFFFFFFFFFFFFFFFFFFFFFFFFFFFFFFFF AND PUSH20 0xFFFFFFFFFFFFFFFFFFFFFFFFFFFFFFFFFFFFFFFF AND DUP2 MSTORE PUSH1 0x20 ADD SWAP1 DUP2 MSTORE PUSH1 0x20 ADD PUSH1 0x0 KECCAK256 PUSH1 0x0 ADD DUP5 SWAP1 DUP1 PUSH1 0x1 DUP2 SLOAD ADD DUP1 DUP3 SSTORE DUP1 SWAP2 POP POP PUSH1 0x1 SWAP1 SUB SWAP1 PUSH1 0x0 MSTORE PUSH1 0x20 PUSH1 0x0 KECCAK256 ADD PUSH1 0x0 SWAP1 SWAP2 SWAP1 SWAP2 SWAP1 SWAP2 POP SSTORE PUSH1 0x6 PUSH1 0x0 DUP7 PUSH20 0xFFFFFFFFFFFFFFFFFFFFFFFFFFFFFFFFFFFFFFFF AND PUSH20 0xFFFFFFFFFFFFFFFFFFFFFFFFFFFFFFFFFFFFFFFF AND DUP2 MSTORE PUSH1 0x20 ADD SWAP1 DUP2 MSTORE PUSH1 0x20 ADD PUSH1 0x0 KECCAK256 PUSH1 0x1 ADD DUP4 SWAP1 DUP1 PUSH1 0x1 DUP2 SLOAD ADD DUP1 DUP3 SSTORE DUP1 SWAP2 POP POP PUSH1 0x1 SWAP1 SUB SWAP1 PUSH1 0x0 MSTORE PUSH1 0x20 PUSH1 0x0 KECCAK256 ADD PUSH1 0x0 SWAP1 SWAP2 SWAP1 SWAP2 SWAP1 SWAP2 POP SSTORE PUSH1 0x6 PUSH1 0x0 DUP7 PUSH20 0xFFFFFFFFFFFFFFFFFFFFFFFFFFFFFFFFFFFFFFFF AND PUSH20 0xFFFFFFFFFFFFFFFFFFFFFFFFFFFFFFFFFFFFFFFF AND DUP2 MSTORE PUSH1 0x20 ADD SWAP1 DUP2 MSTORE PUSH1 0x20 ADD PUSH1 0x0 KECCAK256 PUSH1 0x2 ADD DUP3 SWAP1 DUP1 PUSH1 0x1 DUP2 SLOAD ADD DUP1 DUP3 SSTORE DUP1 SWAP2 POP POP PUSH1 0x1 SWAP1 SUB SWAP1 PUSH1 0x0 MSTORE PUSH1 0x20 PUSH1 0x0 KECCAK256 ADD PUSH1 0x0 SWAP1 SWAP2 SWAP1 SWAP2 SWAP1 SWAP2 POP SSTORE PUSH1 0x6 PUSH1 0x0 DUP7 PUSH20 0xFFFFFFFFFFFFFFFFFFFFFFFFFFFFFFFFFFFFFFFF AND PUSH20 0xFFFFFFFFFFFFFFFFFFFFFFFFFFFFFFFFFFFFFFFF AND DUP2 MSTORE PUSH1 0x20 ADD SWAP1 DUP2 MSTORE PUSH1 0x20 ADD PUSH1 0x0 KECCAK256 PUSH1 0x3 ADD DUP2 SWAP1 DUP1 PUSH1 0x1 DUP2 SLOAD ADD DUP1 DUP3 SSTORE DUP1 SWAP2 POP POP PUSH1 0x1 SWAP1 SUB SWAP1 PUSH1 0x0 MSTORE PUSH1 0x20 PUSH1 0x0 KECCAK256 ADD PUSH1 0x0 SWAP1 SWAP2 SWAP1 SWAP2 SWAP1 SWAP2 POP SSTORE POP POP POP POP POP JUMP JUMPDEST PUSH2 0x87D PUSH2 0xF36 JUMP JUMPDEST PUSH1 0x2 SLOAD DUP3 GT ISZERO PUSH2 0x8C2 JUMPI PUSH1 0x40 MLOAD PUSH32 0x8C379A000000000000000000000000000000000000000000000000000000000 DUP2 MSTORE PUSH1 0x4 ADD PUSH2 0x8B9 SWAP1 PUSH2 0x1539 JUMP JUMPDEST PUSH1 0x40 MLOAD DUP1 SWAP2 SUB SWAP1 REVERT JUMPDEST PUSH1 0x3 PUSH1 0x0 SWAP1 SLOAD SWAP1 PUSH2 0x100 EXP SWAP1 DIV PUSH1 0xFF AND ISZERO PUSH2 0x912 JUMPI PUSH1 0x40 MLOAD PUSH32 0x8C379A000000000000000000000000000000000000000000000000000000000 DUP2 MSTORE PUSH1 0x4 ADD PUSH2 0x909 SWAP1 PUSH2 0x135E JUMP JUMPDEST PUSH1 0x40 MLOAD DUP1 SWAP2 SUB SWAP1 REVERT JUMPDEST DUP1 PUSH20 0xFFFFFFFFFFFFFFFFFFFFFFFFFFFFFFFFFFFFFFFF AND PUSH2 0x8FC DUP4 SWAP1 DUP2 ISZERO MUL SWAP1 PUSH1 0x40 MLOAD PUSH1 0x0 PUSH1 0x40 MLOAD DUP1 DUP4 SUB DUP2 DUP6 DUP9 DUP9 CALL SWAP4 POP POP POP POP ISZERO DUP1 ISZERO PUSH2 0x958 JUMPI RETURNDATASIZE PUSH1 0x0 DUP1 RETURNDATACOPY RETURNDATASIZE PUSH1 0x0 REVERT JUMPDEST POP DUP2 PUSH1 0x2 PUSH1 0x0 DUP3 DUP3 SLOAD PUSH2 0x96B SWAP2 SWAP1 PUSH2 0x1419 JUMP JUMPDEST SWAP3 POP POP DUP2 SWAP1 SSTORE POP POP POP JUMP JUMPDEST PUSH1 0x4 SLOAD DUP2 JUMP JUMPDEST PUSH1 0x3 PUSH1 0x0 SWAP1 SLOAD SWAP1 PUSH2 0x100 EXP SWAP1 DIV PUSH1 0xFF AND DUP2 JUMP JUMPDEST PUSH1 0x0 SELFBALANCE SWAP1 POP SWAP1 JUMP JUMPDEST PUSH2 0x99F PUSH2 0xF36 JUMP JUMPDEST PUSH2 0x9A9 PUSH1 0x0 PUSH2 0xFB4 JUMP JUMPDEST JUMP JUMPDEST PUSH1 0x0 PUSH1 0x5 PUSH1 0x0 DUP4 PUSH20 0xFFFFFFFFFFFFFFFFFFFFFFFFFFFFFFFFFFFFFFFF AND PUSH20 0xFFFFFFFFFFFFFFFFFFFFFFFFFFFFFFFFFFFFFFFF AND DUP2 MSTORE PUSH1 0x20 ADD SWAP1 DUP2 MSTORE PUSH1 0x20 ADD PUSH1 0x0 KECCAK256 SLOAD SWAP1 POP SWAP2 SWAP1 POP JUMP JUMPDEST PUSH2 0x9FC PUSH2 0xF36 JUMP JUMPDEST PUSH1 0x3 PUSH1 0x0 SWAP1 SLOAD SWAP1 PUSH2 0x100 EXP SWAP1 DIV PUSH1 0xFF AND ISZERO PUSH2 0xA4C JUMPI PUSH1 0x40 MLOAD PUSH32 0x8C379A000000000000000000000000000000000000000000000000000000000 DUP2 MSTORE PUSH1 0x4 ADD PUSH2 0xA43 SWAP1 PUSH2 0x15A5 JUMP JUMPDEST PUSH1 0x40 MLOAD DUP1 SWAP2 SUB SWAP1 REVERT JUMPDEST PUSH1 0x1 SLOAD DUP2 GT ISZERO PUSH2 0xA91 JUMPI PUSH1 0x40 MLOAD PUSH32 0x8C379A000000000000000000000000000000000000000000000000000000000 DUP2 MSTORE PUSH1 0x4 ADD PUSH2 0xA88 SWAP1 PUSH2 0x1611 JUMP JUMPDEST PUSH1 0x40 MLOAD DUP1 SWAP2 SUB SWAP1 REVERT JUMPDEST PUSH1 0x0 PUSH1 0x5 PUSH1 0x0 PUSH2 0xA9F PUSH2 0xF2E JUMP JUMPDEST PUSH20 0xFFFFFFFFFFFFFFFFFFFFFFFFFFFFFFFFFFFFFFFF AND PUSH20 0xFFFFFFFFFFFFFFFFFFFFFFFFFFFFFFFFFFFFFFFF AND DUP2 MSTORE PUSH1 0x20 ADD SWAP1 DUP2 MSTORE PUSH1 0x20 ADD PUSH1 0x0 KECCAK256 SLOAD GT PUSH2 0xB1A JUMPI PUSH1 0x40 MLOAD PUSH32 0x8C379A000000000000000000000000000000000000000000000000000000000 DUP2 MSTORE PUSH1 0x4 ADD PUSH2 0xB11 SWAP1 PUSH2 0x167D JUMP JUMPDEST PUSH1 0x40 MLOAD DUP1 SWAP2 SUB SWAP1 REVERT JUMPDEST DUP2 PUSH20 0xFFFFFFFFFFFFFFFFFFFFFFFFFFFFFFFFFFFFFFFF AND PUSH2 0x8FC DUP3 SWAP1 DUP2 ISZERO MUL SWAP1 PUSH1 0x40 MLOAD PUSH1 0x0 PUSH1 0x40 MLOAD DUP1 DUP4 SUB DUP2 DUP6 DUP9 DUP9 CALL SWAP4 POP POP POP POP ISZERO DUP1 ISZERO PUSH2 0xB60 JUMPI RETURNDATASIZE PUSH1 0x0 DUP1 RETURNDATACOPY RETURNDATASIZE PUSH1 0x0 REVERT JUMPDEST POP DUP1 PUSH1 0x1 PUSH1 0x0 DUP3 DUP3 SLOAD PUSH2 0xB73 SWAP2 SWAP1 PUSH2 0x1419 JUMP JUMPDEST SWAP3 POP POP DUP2 SWAP1 SSTORE POP DUP2 PUSH20 0xFFFFFFFFFFFFFFFFFFFFFFFFFFFFFFFFFFFFFFFF AND PUSH32 0x1D72140A7CCDB496BEF50918D2598DD7EDEFB514F70E6D4BEB528CBD16C80B7D DUP3 PUSH1 0x40 MLOAD PUSH2 0xBC0 SWAP2 SWAP1 PUSH2 0x1091 JUMP JUMPDEST PUSH1 0x40 MLOAD DUP1 SWAP2 SUB SWAP1 LOG2 POP POP JUMP JUMPDEST PUSH1 0x0 DUP1 PUSH1 0x0 SWAP1 SLOAD SWAP1 PUSH2 0x100 EXP SWAP1 DIV PUSH20 0xFFFFFFFFFFFFFFFFFFFFFFFFFFFFFFFFFFFFFFFF AND SWAP1 POP SWAP1 JUMP JUMPDEST PUSH2 0xBFD PUSH2 0xF36 JUMP JUMPDEST DUP2 PUSH1 0x1 SLOAD LT ISZERO PUSH2 0xC42 JUMPI PUSH1 0x40 MLOAD PUSH32 0x8C379A000000000000000000000000000000000000000000000000000000000 DUP2 MSTORE PUSH1 0x4 ADD PUSH2 0xC39 SWAP1 PUSH2 0x16E9 JUMP JUMPDEST PUSH1 0x40 MLOAD DUP1 SWAP2 SUB SWAP1 REVERT JUMPDEST DUP1 PUSH20 0xFFFFFFFFFFFFFFFFFFFFFFFFFFFFFFFFFFFFFFFF AND PUSH2 0x8FC DUP4 SWAP1 DUP2 ISZERO MUL SWAP1 PUSH1 0x40 MLOAD PUSH1 0x0 PUSH1 0x40 MLOAD DUP1 DUP4 SUB DUP2 DUP6 DUP9 DUP9 CALL SWAP4 POP POP POP POP ISZERO DUP1 ISZERO PUSH2 0xC88 JUMPI RETURNDATASIZE PUSH1 0x0 DUP1 RETURNDATACOPY RETURNDATASIZE PUSH1 0x0 REVERT JUMPDEST POP DUP2 PUSH1 0x1 PUSH1 0x0 DUP3 DUP3 SLOAD PUSH2 0xC9B SWAP2 SWAP1 PUSH2 0x1419 JUMP JUMPDEST SWAP3 POP POP DUP2 SWAP1 SSTORE POP DUP1 PUSH20 0xFFFFFFFFFFFFFFFFFFFFFFFFFFFFFFFFFFFFFFFF AND PUSH32 0x1D72140A7CCDB496BEF50918D2598DD7EDEFB514F70E6D4BEB528CBD16C80B7D DUP4 PUSH1 0x40 MLOAD PUSH2 0xCE8 SWAP2 SWAP1 PUSH2 0x1091 JUMP JUMPDEST PUSH1 0x40 MLOAD DUP1 SWAP2 SUB SWAP1 LOG2 POP POP JUMP JUMPDEST PUSH1 0x1 SLOAD DUP2 JUMP JUMPDEST PUSH2 0xD02 PUSH2 0xF36 JUMP JUMPDEST PUSH1 0x1 ISZERO ISZERO PUSH1 0x3 PUSH1 0x0 SWAP1 SLOAD SWAP1 PUSH2 0x100 EXP SWAP1 DIV PUSH1 0xFF AND ISZERO ISZERO SUB PUSH2 0xD3D JUMPI PUSH1 0x0 PUSH1 0x3 PUSH1 0x0 PUSH2 0x100 EXP DUP2 SLOAD DUP2 PUSH1 0xFF MUL NOT AND SWAP1 DUP4 ISZERO ISZERO MUL OR SWAP1 SSTORE POP PUSH2 0xD59 JUMP JUMPDEST PUSH1 0x1 PUSH1 0x3 PUSH1 0x0 PUSH2 0x100 EXP DUP2 SLOAD DUP2 PUSH1 0xFF MUL NOT AND SWAP1 DUP4 ISZERO ISZERO MUL OR SWAP1 SSTORE POP JUMPDEST JUMP JUMPDEST PUSH1 0x5 PUSH1 0x20 MSTORE DUP1 PUSH1 0x0 MSTORE PUSH1 0x40 PUSH1 0x0 KECCAK256 PUSH1 0x0 SWAP2 POP SWAP1 POP SLOAD DUP2 JUMP JUMPDEST PUSH1 0x6 PUSH1 0x20 MSTORE DUP1 PUSH1 0x0 MSTORE PUSH1 0x40 PUSH1 0x0 KECCAK256 PUSH1 0x0 SWAP2 POP SWAP1 POP DUP1 PUSH1 0x4 ADD PUSH1 0x0 SWAP1 SLOAD SWAP1 PUSH2 0x100 EXP SWAP1 DIV PUSH1 0xFF AND SWAP1 POP DUP2 JUMP JUMPDEST PUSH1 0x3 PUSH1 0x0 SWAP1 SLOAD SWAP1 PUSH2 0x100 EXP SWAP1 DIV PUSH1 0xFF AND ISZERO PUSH2 0xDEE JUMPI PUSH1 0x40 MLOAD PUSH32 0x8C379A000000000000000000000000000000000000000000000000000000000 DUP2 MSTORE PUSH1 0x4 ADD PUSH2 0xDE5 SWAP1 PUSH2 0x15A5 JUMP JUMPDEST PUSH1 0x40 MLOAD DUP1 SWAP2 SUB SWAP1 REVERT JUMPDEST PUSH1 0x0 CALLVALUE GT PUSH2 0xE31 JUMPI PUSH1 0x40 MLOAD PUSH32 0x8C379A000000000000000000000000000000000000000000000000000000000 DUP2 MSTORE PUSH1 0x4 ADD PUSH2 0xE28 SWAP1 PUSH2 0x1755 JUMP JUMPDEST PUSH1 0x40 MLOAD DUP1 SWAP2 SUB SWAP1 REVERT JUMPDEST CALLVALUE PUSH1 0x5 PUSH1 0x0 PUSH2 0xE3E PUSH2 0xF2E JUMP JUMPDEST PUSH20 0xFFFFFFFFFFFFFFFFFFFFFFFFFFFFFFFFFFFFFFFF AND PUSH20 0xFFFFFFFFFFFFFFFFFFFFFFFFFFFFFFFFFFFFFFFF AND DUP2 MSTORE PUSH1 0x20 ADD SWAP1 DUP2 MSTORE PUSH1 0x20 ADD PUSH1 0x0 KECCAK256 PUSH1 0x0 DUP3 DUP3 SLOAD PUSH2 0xE87 SWAP2 SWAP1 PUSH2 0x14B9 JUMP JUMPDEST SWAP3 POP POP DUP2 SWAP1 SSTORE POP CALLVALUE PUSH1 0x4 PUSH1 0x0 DUP3 DUP3 SLOAD PUSH2 0xEA0 SWAP2 SWAP1 PUSH2 0x14B9 JUMP JUMPDEST SWAP3 POP POP DUP2 SWAP1 SSTORE POP JUMP JUMPDEST JUMP JUMPDEST PUSH2 0xEB3 PUSH2 0xF36 JUMP JUMPDEST PUSH1 0x0 PUSH20 0xFFFFFFFFFFFFFFFFFFFFFFFFFFFFFFFFFFFFFFFF AND DUP2 PUSH20 0xFFFFFFFFFFFFFFFFFFFFFFFFFFFFFFFFFFFFFFFF AND SUB PUSH2 0xF22 JUMPI PUSH1 0x40 MLOAD PUSH32 0x8C379A000000000000000000000000000000000000000000000000000000000 DUP2 MSTORE PUSH1 0x4 ADD PUSH2 0xF19 SWAP1 PUSH2 0x17E7 JUMP JUMPDEST PUSH1 0x40 MLOAD DUP1 SWAP2 SUB SWAP1 REVERT JUMPDEST PUSH2 0xF2B DUP2 PUSH2 0xFB4 JUMP JUMPDEST POP JUMP JUMPDEST PUSH1 0x0 CALLER SWAP1 POP SWAP1 JUMP JUMPDEST PUSH2 0xF3E PUSH2 0xF2E JUMP JUMPDEST PUSH20 0xFFFFFFFFFFFFFFFFFFFFFFFFFFFFFFFFFFFFFFFF AND PUSH2 0xF5C PUSH2 0xBCC JUMP JUMPDEST PUSH20 0xFFFFFFFFFFFFFFFFFFFFFFFFFFFFFFFFFFFFFFFF AND EQ PUSH2 0xFB2 JUMPI PUSH1 0x40 MLOAD PUSH32 0x8C379A000000000000000000000000000000000000000000000000000000000 DUP2 MSTORE PUSH1 0x4 ADD PUSH2 0xFA9 SWAP1 PUSH2 0x1853 JUMP JUMPDEST PUSH1 0x40 MLOAD DUP1 SWAP2 SUB SWAP1 REVERT JUMPDEST JUMP JUMPDEST PUSH1 0x0 DUP1 PUSH1 0x0 SWAP1 SLOAD SWAP1 PUSH2 0x100 EXP SWAP1 DIV PUSH20 0xFFFFFFFFFFFFFFFFFFFFFFFFFFFFFFFFFFFFFFFF AND SWAP1 POP DUP2 PUSH1 0x0 DUP1 PUSH2 0x100 EXP DUP2 SLOAD DUP2 PUSH20 0xFFFFFFFFFFFFFFFFFFFFFFFFFFFFFFFFFFFFFFFF MUL NOT AND SWAP1 DUP4 PUSH20 0xFFFFFFFFFFFFFFFFFFFFFFFFFFFFFFFFFFFFFFFF AND MUL OR SWAP1 SSTORE POP DUP2 PUSH20 0xFFFFFFFFFFFFFFFFFFFFFFFFFFFFFFFFFFFFFFFF AND DUP2 PUSH20 0xFFFFFFFFFFFFFFFFFFFFFFFFFFFFFFFFFFFFFFFF AND PUSH32 0x8BE0079C531659141344CD1FD0A4F28419497F9722A3DAAFE3B4186F6B6457E0 PUSH1 0x40 MLOAD PUSH1 0x40 MLOAD DUP1 SWAP2 SUB SWAP1 LOG3 POP POP JUMP JUMPDEST PUSH1 0x0 DUP2 SWAP1 POP SWAP2 SWAP1 POP JUMP JUMPDEST PUSH2 0x108B DUP2 PUSH2 0x1078 JUMP JUMPDEST DUP3 MSTORE POP POP JUMP JUMPDEST PUSH1 0x0 PUSH1 0x20 DUP3 ADD SWAP1 POP PUSH2 0x10A6 PUSH1 0x0 DUP4 ADD DUP5 PUSH2 0x1082 JUMP JUMPDEST SWAP3 SWAP2 POP POP JUMP JUMPDEST PUSH1 0x0 DUP1 REVERT JUMPDEST PUSH1 0x0 PUSH20 0xFFFFFFFFFFFFFFFFFFFFFFFFFFFFFFFFFFFFFFFF DUP3 AND SWAP1 POP SWAP2 SWAP1 POP JUMP JUMPDEST PUSH1 0x0 PUSH2 0x10DC DUP3 PUSH2 0x10B1 JUMP JUMPDEST SWAP1 POP SWAP2 SWAP1 POP JUMP JUMPDEST PUSH2 0x10EC DUP2 PUSH2 0x10D1 JUMP JUMPDEST DUP2 EQ PUSH2 0x10F7 JUMPI PUSH1 0x0 DUP1 REVERT JUMPDEST POP JUMP JUMPDEST PUSH1 0x0 DUP2 CALLDATALOAD SWAP1 POP PUSH2 0x1109 DUP2 PUSH2 0x10E3 JUMP JUMPDEST SWAP3 SWAP2 POP POP JUMP JUMPDEST PUSH1 0x0 PUSH1 0x20 DUP3 DUP5 SUB SLT ISZERO PUSH2 0x1125 JUMPI PUSH2 0x1124 PUSH2 0x10AC JUMP JUMPDEST JUMPDEST PUSH1 0x0 PUSH2 0x1133 DUP5 DUP3 DUP6 ADD PUSH2 0x10FA JUMP JUMPDEST SWAP2 POP POP SWAP3 SWAP2 POP POP JUMP JUMPDEST PUSH2 0x1145 DUP2 PUSH2 0x1078 JUMP JUMPDEST DUP2 EQ PUSH2 0x1150 JUMPI PUSH1 0x0 DUP1 REVERT JUMPDEST POP JUMP JUMPDEST PUSH1 0x0 DUP2 CALLDATALOAD SWAP1 POP PUSH2 0x1162 DUP2 PUSH2 0x113C JUMP JUMPDEST SWAP3 SWAP2 POP POP JUMP JUMPDEST PUSH1 0x0 PUSH2 0x1173 DUP3 PUSH2 0x10B1 JUMP JUMPDEST SWAP1 POP SWAP2 SWAP1 POP JUMP JUMPDEST PUSH2 0x1183 DUP2 PUSH2 0x1168 JUMP JUMPDEST DUP2 EQ PUSH2 0x118E JUMPI PUSH1 0x0 DUP1 REVERT JUMPDEST POP JUMP JUMPDEST PUSH1 0x0 DUP2 CALLDATALOAD SWAP1 POP PUSH2 0x11A0 DUP2 PUSH2 0x117A JUMP JUMPDEST SWAP3 SWAP2 POP POP JUMP JUMPDEST PUSH1 0x0 DUP1 PUSH1 0x40 DUP4 DUP6 SUB SLT ISZERO PUSH2 0x11BD JUMPI PUSH2 0x11BC PUSH2 0x10AC JUMP JUMPDEST JUMPDEST PUSH1 0x0 PUSH2 0x11CB DUP6 DUP3 DUP7 ADD PUSH2 0x1153 JUMP JUMPDEST SWAP3 POP POP PUSH1 0x20 PUSH2 0x11DC DUP6 DUP3 DUP7 ADD PUSH2 0x1191 JUMP JUMPDEST SWAP2 POP POP SWAP3 POP SWAP3 SWAP1 POP JUMP JUMPDEST PUSH1 0x0 DUP1 PUSH1 0x0 DUP1 PUSH1 0x0 PUSH1 0xA0 DUP7 DUP9 SUB SLT ISZERO PUSH2 0x1202 JUMPI PUSH2 0x1201 PUSH2 0x10AC JUMP JUMPDEST JUMPDEST PUSH1 0x0 PUSH2 0x1210 DUP9 DUP3 DUP10 ADD PUSH2 0x10FA JUMP JUMPDEST SWAP6 POP POP PUSH1 0x20 PUSH2 0x1221 DUP9 DUP3 DUP10 ADD PUSH2 0x1153 JUMP JUMPDEST SWAP5 POP POP PUSH1 0x40 PUSH2 0x1232 DUP9 DUP3 DUP10 ADD PUSH2 0x1153 JUMP JUMPDEST SWAP4 POP POP PUSH1 0x60 PUSH2 0x1243 DUP9 DUP3 DUP10 ADD PUSH2 0x1153 JUMP JUMPDEST SWAP3 POP POP PUSH1 0x80 PUSH2 0x1254 DUP9 DUP3 DUP10 ADD PUSH2 0x1153 JUMP JUMPDEST SWAP2 POP POP SWAP3 SWAP6 POP SWAP3 SWAP6 SWAP1 SWAP4 POP JUMP JUMPDEST PUSH1 0x0 DUP2 ISZERO ISZERO SWAP1 POP SWAP2 SWAP1 POP JUMP JUMPDEST PUSH2 0x1276 DUP2 PUSH2 0x1261 JUMP JUMPDEST DUP3 MSTORE POP POP JUMP JUMPDEST PUSH1 0x0 PUSH1 0x20 DUP3 ADD SWAP1 POP PUSH2 0x1291 PUSH1 0x0 DUP4 ADD DUP5 PUSH2 0x126D JUMP JUMPDEST SWAP3 SWAP2 POP POP JUMP JUMPDEST PUSH1 0x0 DUP1 PUSH1 0x40 DUP4 DUP6 SUB SLT ISZERO PUSH2 0x12AE JUMPI PUSH2 0x12AD PUSH2 0x10AC JUMP JUMPDEST JUMPDEST PUSH1 0x0 PUSH2 0x12BC DUP6 DUP3 DUP7 ADD PUSH2 0x1191 JUMP JUMPDEST SWAP3 POP POP PUSH1 0x20 PUSH2 0x12CD DUP6 DUP3 DUP7 ADD PUSH2 0x1153 JUMP JUMPDEST SWAP2 POP POP SWAP3 POP SWAP3 SWAP1 POP JUMP JUMPDEST PUSH2 0x12E0 DUP2 PUSH2 0x10D1 JUMP JUMPDEST DUP3 MSTORE POP POP JUMP JUMPDEST PUSH1 0x0 PUSH1 0x20 DUP3 ADD SWAP1 POP PUSH2 0x12FB PUSH1 0x0 DUP4 ADD DUP5 PUSH2 0x12D7 JUMP JUMPDEST SWAP3 SWAP2 POP POP JUMP JUMPDEST PUSH1 0x0 DUP3 DUP3 MSTORE PUSH1 0x20 DUP3 ADD SWAP1 POP SWAP3 SWAP2 POP POP JUMP JUMPDEST PUSH32 0x436F6E7472616374206973205061757365640000000000000000000000000000 PUSH1 0x0 DUP3 ADD MSTORE POP JUMP JUMPDEST PUSH1 0x0 PUSH2 0x1348 PUSH1 0x12 DUP4 PUSH2 0x1301 JUMP JUMPDEST SWAP2 POP PUSH2 0x1353 DUP3 PUSH2 0x1312 JUMP JUMPDEST PUSH1 0x20 DUP3 ADD SWAP1 POP SWAP2 SWAP1 POP JUMP JUMPDEST PUSH1 0x0 PUSH1 0x20 DUP3 ADD SWAP1 POP DUP2 DUP2 SUB PUSH1 0x0 DUP4 ADD MSTORE PUSH2 0x1377 DUP2 PUSH2 0x133B JUMP JUMPDEST SWAP1 POP SWAP2 SWAP1 POP JUMP JUMPDEST PUSH32 0x496E73756666696369656E7420546F6B656E7320746F20576974684472617700 PUSH1 0x0 DUP3 ADD MSTORE POP JUMP JUMPDEST PUSH1 0x0 PUSH2 0x13B4 PUSH1 0x1F DUP4 PUSH2 0x1301 JUMP JUMPDEST SWAP2 POP PUSH2 0x13BF DUP3 PUSH2 0x137E JUMP JUMPDEST PUSH1 0x20 DUP3 ADD SWAP1 POP SWAP2 SWAP1 POP JUMP JUMPDEST PUSH1 0x0 PUSH1 0x20 DUP3 ADD SWAP1 POP DUP2 DUP2 SUB PUSH1 0x0 DUP4 ADD MSTORE PUSH2 0x13E3 DUP2 PUSH2 0x13A7 JUMP JUMPDEST SWAP1 POP SWAP2 SWAP1 POP JUMP JUMPDEST PUSH32 0x4E487B7100000000000000000000000000000000000000000000000000000000 PUSH1 0x0 MSTORE PUSH1 0x11 PUSH1 0x4 MSTORE PUSH1 0x24 PUSH1 0x0 REVERT JUMPDEST PUSH1 0x0 PUSH2 0x1424 DUP3 PUSH2 0x1078 JUMP JUMPDEST SWAP2 POP PUSH2 0x142F DUP4 PUSH2 0x1078 JUMP JUMPDEST SWAP3 POP DUP3 DUP3 SUB SWAP1 POP DUP2 DUP2 GT ISZERO PUSH2 0x1447 JUMPI PUSH2 0x1446 PUSH2 0x13EA JUMP JUMPDEST JUMPDEST SWAP3 SWAP2 POP POP JUMP JUMPDEST PUSH32 0x496E76616C696420416D6F756E74000000000000000000000000000000000000 PUSH1 0x0 DUP3 ADD MSTORE POP JUMP JUMPDEST PUSH1 0x0 PUSH2 0x1483 PUSH1 0xE DUP4 PUSH2 0x1301 JUMP JUMPDEST SWAP2 POP PUSH2 0x148E DUP3 PUSH2 0x144D JUMP JUMPDEST PUSH1 0x20 DUP3 ADD SWAP1 POP SWAP2 SWAP1 POP JUMP JUMPDEST PUSH1 0x0 PUSH1 0x20 DUP3 ADD SWAP1 POP DUP2 DUP2 SUB PUSH1 0x0 DUP4 ADD MSTORE PUSH2 0x14B2 DUP2 PUSH2 0x1476 JUMP JUMPDEST SWAP1 POP SWAP2 SWAP1 POP JUMP JUMPDEST PUSH1 0x0 PUSH2 0x14C4 DUP3 PUSH2 0x1078 JUMP JUMPDEST SWAP2 POP PUSH2 0x14CF DUP4 PUSH2 0x1078 JUMP JUMPDEST SWAP3 POP DUP3 DUP3 ADD SWAP1 POP DUP1 DUP3 GT ISZERO PUSH2 0x14E7 JUMPI PUSH2 0x14E6 PUSH2 0x13EA JUMP JUMPDEST JUMPDEST SWAP3 SWAP2 POP POP JUMP JUMPDEST PUSH32 0x496E73756666696369656E742042616C616E6365000000000000000000000000 PUSH1 0x0 DUP3 ADD MSTORE POP JUMP JUMPDEST PUSH1 0x0 PUSH2 0x1523 PUSH1 0x14 DUP4 PUSH2 0x1301 JUMP JUMPDEST SWAP2 POP PUSH2 0x152E DUP3 PUSH2 0x14ED JUMP JUMPDEST PUSH1 0x20 DUP3 ADD SWAP1 POP SWAP2 SWAP1 POP JUMP JUMPDEST PUSH1 0x0 PUSH1 0x20 DUP3 ADD SWAP1 POP DUP2 DUP2 SUB PUSH1 0x0 DUP4 ADD MSTORE PUSH2 0x1552 DUP2 PUSH2 0x1516 JUMP JUMPDEST SWAP1 POP SWAP2 SWAP1 POP JUMP JUMPDEST PUSH32 0x5374616B696E6720697320706175736564000000000000000000000000000000 PUSH1 0x0 DUP3 ADD MSTORE POP JUMP JUMPDEST PUSH1 0x0 PUSH2 0x158F PUSH1 0x11 DUP4 PUSH2 0x1301 JUMP JUMPDEST SWAP2 POP PUSH2 0x159A DUP3 PUSH2 0x1559 JUMP JUMPDEST PUSH1 0x20 DUP3 ADD SWAP1 POP SWAP2 SWAP1 POP JUMP JUMPDEST PUSH1 0x0 PUSH1 0x20 DUP3 ADD SWAP1 POP DUP2 DUP2 SUB PUSH1 0x0 DUP4 ADD MSTORE PUSH2 0x15BE DUP2 PUSH2 0x1582 JUMP JUMPDEST SWAP1 POP SWAP2 SWAP1 POP JUMP JUMPDEST PUSH32 0x54726561737572792068617320496E73756666696369656E7420546F6B656E73 PUSH1 0x0 DUP3 ADD MSTORE POP JUMP JUMPDEST PUSH1 0x0 PUSH2 0x15FB PUSH1 0x20 DUP4 PUSH2 0x1301 JUMP JUMPDEST SWAP2 POP PUSH2 0x1606 DUP3 PUSH2 0x15C5 JUMP JUMPDEST PUSH1 0x20 DUP3 ADD SWAP1 POP SWAP2 SWAP1 POP JUMP JUMPDEST PUSH1 0x0 PUSH1 0x20 DUP3 ADD SWAP1 POP DUP2 DUP2 SUB PUSH1 0x0 DUP4 ADD MSTORE PUSH2 0x162A DUP2 PUSH2 0x15EE JUMP JUMPDEST SWAP1 POP SWAP2 SWAP1 POP JUMP JUMPDEST PUSH32 0x5573657220446F657327742068617665205374616B6564000000000000000000 PUSH1 0x0 DUP3 ADD MSTORE POP JUMP JUMPDEST PUSH1 0x0 PUSH2 0x1667 PUSH1 0x17 DUP4 PUSH2 0x1301 JUMP JUMPDEST SWAP2 POP PUSH2 0x1672 DUP3 PUSH2 0x1631 JUMP JUMPDEST PUSH1 0x20 DUP3 ADD SWAP1 POP SWAP2 SWAP1 POP JUMP JUMPDEST PUSH1 0x0 PUSH1 0x20 DUP3 ADD SWAP1 POP DUP2 DUP2 SUB PUSH1 0x0 DUP4 ADD MSTORE PUSH2 0x1696 DUP2 PUSH2 0x165A JUMP JUMPDEST SWAP1 POP SWAP2 SWAP1 POP JUMP JUMPDEST PUSH32 0x496E73756666696369656E742046756E647320746F2057697468647261770000 PUSH1 0x0 DUP3 ADD MSTORE POP JUMP JUMPDEST PUSH1 0x0 PUSH2 0x16D3 PUSH1 0x1E DUP4 PUSH2 0x1301 JUMP JUMPDEST SWAP2 POP PUSH2 0x16DE DUP3 PUSH2 0x169D JUMP JUMPDEST PUSH1 0x20 DUP3 ADD SWAP1 POP SWAP2 SWAP1 POP JUMP JUMPDEST PUSH1 0x0 PUSH1 0x20 DUP3 ADD SWAP1 POP DUP2 DUP2 SUB PUSH1 0x0 DUP4 ADD MSTORE PUSH2 0x1702 DUP2 PUSH2 0x16C6 JUMP JUMPDEST SWAP1 POP SWAP2 SWAP1 POP JUMP JUMPDEST PUSH32 0x43616E6E6F74207374616B652030000000000000000000000000000000000000 PUSH1 0x0 DUP3 ADD MSTORE POP JUMP JUMPDEST PUSH1 0x0 PUSH2 0x173F PUSH1 0xE DUP4 PUSH2 0x1301 JUMP JUMPDEST SWAP2 POP PUSH2 0x174A DUP3 PUSH2 0x1709 JUMP JUMPDEST PUSH1 0x20 DUP3 ADD SWAP1 POP SWAP2 SWAP1 POP JUMP JUMPDEST PUSH1 0x0 PUSH1 0x20 DUP3 ADD SWAP1 POP DUP2 DUP2 SUB PUSH1 0x0 DUP4 ADD MSTORE PUSH2 0x176E DUP2 PUSH2 0x1732 JUMP JUMPDEST SWAP1 POP SWAP2 SWAP1 POP JUMP JUMPDEST PUSH32 0x4F776E61626C653A206E6577206F776E657220697320746865207A65726F2061 PUSH1 0x0 DUP3 ADD MSTORE PUSH32 0x6464726573730000000000000000000000000000000000000000000000000000 PUSH1 0x20 DUP3 ADD MSTORE POP JUMP JUMPDEST PUSH1 0x0 PUSH2 0x17D1 PUSH1 0x26 DUP4 PUSH2 0x1301 JUMP JUMPDEST SWAP2 POP PUSH2 0x17DC DUP3 PUSH2 0x1775 JUMP JUMPDEST PUSH1 0x40 DUP3 ADD SWAP1 POP SWAP2 SWAP1 POP JUMP JUMPDEST PUSH1 0x0 PUSH1 0x20 DUP3 ADD SWAP1 POP DUP2 DUP2 SUB PUSH1 0x0 DUP4 ADD MSTORE PUSH2 0x1800 DUP2 PUSH2 0x17C4 JUMP JUMPDEST SWAP1 POP SWAP2 SWAP1 POP JUMP JUMPDEST PUSH32 0x4F776E61626C653A2063616C6C6572206973206E6F7420746865206F776E6572 PUSH1 0x0 DUP3 ADD MSTORE POP JUMP JUMPDEST PUSH1 0x0 PUSH2 0x183D PUSH1 0x20 DUP4 PUSH2 0x1301 JUMP JUMPDEST SWAP2 POP PUSH2 0x1848 DUP3 PUSH2 0x1807 JUMP JUMPDEST PUSH1 0x20 DUP3 ADD SWAP1 POP SWAP2 SWAP1 POP JUMP JUMPDEST PUSH1 0x0 PUSH1 0x20 DUP3 ADD SWAP1 POP DUP2 DUP2 SUB PUSH1 0x0 DUP4 ADD MSTORE PUSH2 0x186C DUP2 PUSH2 0x1830 JUMP JUMPDEST SWAP1 POP SWAP2 SWAP1 POP JUMP INVALID LOG2 PUSH5 0x6970667358 0x22 SLT KECCAK256 PUSH21 0x46CF217D137528741400BD98314860061224FC1344 PUSH32 0xBB083FA2E9CEBD600064736F6C63430008100033000000000000000000000000 "
				},
				"gasEstimates": {
					"creation": {
						"codeDepositCost": "1262600",
						"executionCost": "infinite",
						"totalCost": "infinite"
					},
					"external": {
						"FlipPauseStatus()": "28968",
						"NodeStats(address)": "2914",
						"adminTreasury()": "2518",
						"fillTreasury()": "infinite",
						"getAllStakes(address)": "479",
						"getContractBalance()": "406",
						"getStake(address)": "2952",
						"owner()": "2567",
						"paused()": "2516",
						"renounceOwnership()": "30487",
						"stakeTokens()": "infinite",
						"tokenAmount(address)": "2836",
						"totalHoldings()": "232",
						"totalStakedTokens()": "2452",
						"transferOwnership(address)": "30854",
						"transferRewards(address,uint256)": "infinite",
						"transferTreasuryBalance(uint256,address)": "infinite",
						"unStakeTokens(uint256,address)": "infinite",
						"updateStats(address,uint256,uint256,uint256,uint256)": "infinite",
						"withDrawFromTreasury(uint256,address)": "infinite"
					}
				},
				"methodIdentifiers": {
					"FlipPauseStatus()": "a405b048",
					"NodeStats(address)": "adc07c6f",
					"adminTreasury()": "96cad0db",
					"fillTreasury()": "0d8f7614",
					"getAllStakes(address)": "04238994",
					"getContractBalance()": "6f9fb98a",
					"getStake(address)": "7a766460",
					"owner()": "8da5cb5b",
					"paused()": "5c975abb",
					"renounceOwnership()": "715018a6",
					"stakeTokens()": "ce46643b",
					"tokenAmount(address)": "a96b7f05",
					"totalHoldings()": "e9ec2e99",
					"totalStakedTokens()": "3ae73259",
					"transferOwnership(address)": "f2fde38b",
					"transferRewards(address,uint256)": "82723192",
					"transferTreasuryBalance(uint256,address)": "16e966c3",
					"unStakeTokens(uint256,address)": "06608c3c",
					"updateStats(address,uint256,uint256,uint256,uint256)": "1241a45a",
					"withDrawFromTreasury(uint256,address)": "8e080dee"
				}
			},
			"storageLayout": {
				"storage": [
					{
						"astId": 7,
						"contract": "contracts/storageChain.sol:StakingContract",
						"label": "_owner",
						"offset": 0,
						"slot": "0",
						"type": "t_address"
					},
					{
						"astId": 141,
						"contract": "contracts/storageChain.sol:StakingContract",
						"label": "adminTreasury",
						"offset": 0,
						"slot": "1",
						"type": "t_uint256"
					},
					{
						"astId": 143,
						"contract": "contracts/storageChain.sol:StakingContract",
						"label": "treasuryBalance",
						"offset": 0,
						"slot": "2",
						"type": "t_uint256"
					},
					{
						"astId": 145,
						"contract": "contracts/storageChain.sol:StakingContract",
						"label": "paused",
						"offset": 0,
						"slot": "3",
						"type": "t_bool"
					},
					{
						"astId": 147,
						"contract": "contracts/storageChain.sol:StakingContract",
						"label": "totalStakedTokens",
						"offset": 0,
						"slot": "4",
						"type": "t_uint256"
					},
					{
						"astId": 217,
						"contract": "contracts/storageChain.sol:StakingContract",
						"label": "tokenAmount",
						"offset": 0,
						"slot": "5",
						"type": "t_mapping(t_address,t_uint256)"
					},
					{
						"astId": 222,
						"contract": "contracts/storageChain.sol:StakingContract",
						"label": "NodeStats",
						"offset": 0,
						"slot": "6",
						"type": "t_mapping(t_address,t_struct(Stats)165_storage)"
					}
				],
				"types": {
					"t_address": {
						"encoding": "inplace",
						"label": "address",
						"numberOfBytes": "20"
					},
					"t_array(t_uint256)dyn_storage": {
						"base": "t_uint256",
						"encoding": "dynamic_array",
						"label": "uint256[]",
						"numberOfBytes": "32"
					},
					"t_bool": {
						"encoding": "inplace",
						"label": "bool",
						"numberOfBytes": "1"
					},
					"t_mapping(t_address,t_struct(Stats)165_storage)": {
						"encoding": "mapping",
						"key": "t_address",
						"label": "mapping(address => struct StakingContract.Stats)",
						"numberOfBytes": "32",
						"value": "t_struct(Stats)165_storage"
					},
					"t_mapping(t_address,t_uint256)": {
						"encoding": "mapping",
						"key": "t_address",
						"label": "mapping(address => uint256)",
						"numberOfBytes": "32",
						"value": "t_uint256"
					},
					"t_struct(Stats)165_storage": {
						"encoding": "inplace",
						"label": "struct StakingContract.Stats",
						"members": [
							{
								"astId": 153,
								"contract": "contracts/storageChain.sol:StakingContract",
								"label": "validationRatio",
								"offset": 0,
								"slot": "0",
								"type": "t_array(t_uint256)dyn_storage"
							},
							{
								"astId": 156,
								"contract": "contracts/storageChain.sol:StakingContract",
								"label": "upTime",
								"offset": 0,
								"slot": "1",
								"type": "t_array(t_uint256)dyn_storage"
							},
							{
								"astId": 159,
								"contract": "contracts/storageChain.sol:StakingContract",
								"label": "bandWidth",
								"offset": 0,
								"slot": "2",
								"type": "t_array(t_uint256)dyn_storage"
							},
							{
								"astId": 162,
								"contract": "contracts/storageChain.sol:StakingContract",
								"label": "storageGB",
								"offset": 0,
								"slot": "3",
								"type": "t_array(t_uint256)dyn_storage"
							},
							{
								"astId": 164,
								"contract": "contracts/storageChain.sol:StakingContract",
								"label": "newUser",
								"offset": 0,
								"slot": "4",
								"type": "t_bool"
							}
						],
						"numberOfBytes": "160"
					},
					"t_uint256": {
						"encoding": "inplace",
						"label": "uint256",
						"numberOfBytes": "32"
					}
				}
			},
			"userdoc": {
				"kind": "user",
				"methods": {},
				"version": 1
			}
		}
	}
}