{
	"contracts/storageChain.sol": {
		"StakingContract": {
			"abi": [
				{
					"anonymous": false,
					"inputs": [
						{
							"indexed": true,
							"internalType": "address",
							"name": "sender",
							"type": "address"
						},
						{
							"indexed": false,
							"internalType": "uint256",
							"name": "value",
							"type": "uint256"
						}
					],
					"name": "EtherReceived",
					"type": "event"
				},
				{
					"anonymous": false,
					"inputs": [
						{
							"indexed": false,
							"internalType": "bytes",
							"name": "data",
							"type": "bytes"
						},
						{
							"indexed": false,
							"internalType": "address",
							"name": "sender",
							"type": "address"
						},
						{
							"indexed": false,
							"internalType": "uint256",
							"name": "value",
							"type": "uint256"
						}
					],
					"name": "FallbackTriggered",
					"type": "event"
				},
				{
					"anonymous": false,
					"inputs": [
						{
							"indexed": true,
							"internalType": "address",
							"name": "previousOwner",
							"type": "address"
						},
						{
							"indexed": true,
							"internalType": "address",
							"name": "newOwner",
							"type": "address"
						}
					],
					"name": "OwnershipTransferred",
					"type": "event"
				},
				{
					"anonymous": false,
					"inputs": [
						{
							"indexed": true,
							"internalType": "address",
							"name": "user",
							"type": "address"
						}
					],
					"name": "StaorageNodeStatsDeleted",
					"type": "event"
				},
				{
					"anonymous": false,
					"inputs": [
						{
							"indexed": true,
							"internalType": "address",
							"name": "user",
							"type": "address"
						},
						{
							"indexed": false,
							"internalType": "uint256",
							"name": "validationRatio",
							"type": "uint256"
						},
						{
							"indexed": false,
							"internalType": "uint256",
							"name": "upTime",
							"type": "uint256"
						},
						{
							"indexed": false,
							"internalType": "uint256",
							"name": "bandWidth",
							"type": "uint256"
						},
						{
							"indexed": false,
							"internalType": "uint256",
							"name": "storageGB",
							"type": "uint256"
						}
					],
					"name": "StatsUpdated",
					"type": "event"
				},
				{
					"anonymous": false,
					"inputs": [
						{
							"indexed": true,
							"internalType": "address",
							"name": "add",
							"type": "address"
						},
						{
							"indexed": false,
							"internalType": "uint256",
							"name": "value",
							"type": "uint256"
						}
					],
					"name": "TokenTransfer",
					"type": "event"
				},
				{
					"inputs": [],
					"name": "FlipPauseStatus",
					"outputs": [],
					"stateMutability": "nonpayable",
					"type": "function"
				},
				{
					"inputs": [],
					"name": "adminTreasury",
					"outputs": [
						{
							"internalType": "uint256",
							"name": "",
							"type": "uint256"
						}
					],
					"stateMutability": "view",
					"type": "function"
				},
				{
					"inputs": [
						{
							"internalType": "address",
							"name": "user",
							"type": "address"
						}
					],
					"name": "deleteStats",
					"outputs": [],
					"stateMutability": "nonpayable",
					"type": "function"
				},
				{
					"inputs": [],
					"name": "fillTreasury",
					"outputs": [],
					"stateMutability": "payable",
					"type": "function"
				},
				{
					"inputs": [],
					"name": "getContractBalance",
					"outputs": [
						{
							"internalType": "uint256",
							"name": "",
							"type": "uint256"
						}
					],
					"stateMutability": "view",
					"type": "function"
				},
				{
					"inputs": [
						{
							"internalType": "address",
							"name": "user",
							"type": "address"
						}
					],
					"name": "getNodeStats",
					"outputs": [
						{
							"components": [
								{
									"internalType": "uint256[]",
									"name": "validationRatio",
									"type": "uint256[]"
								},
								{
									"internalType": "uint256[]",
									"name": "upTime",
									"type": "uint256[]"
								},
								{
									"internalType": "uint256[]",
									"name": "bandWidth",
									"type": "uint256[]"
								},
								{
									"internalType": "uint256[]",
									"name": "storageGB",
									"type": "uint256[]"
								},
								{
									"internalType": "bool",
									"name": "oldUser",
									"type": "bool"
								}
							],
							"internalType": "struct StakingContract.Stats",
							"name": "",
							"type": "tuple"
						}
					],
					"stateMutability": "view",
					"type": "function"
				},
				{
					"inputs": [
						{
							"internalType": "address",
							"name": "user",
							"type": "address"
						}
					],
					"name": "getStake",
					"outputs": [
						{
							"internalType": "uint256",
							"name": "",
							"type": "uint256"
						}
					],
					"stateMutability": "view",
					"type": "function"
				},
				{
					"inputs": [],
					"name": "owner",
					"outputs": [
						{
							"internalType": "address",
							"name": "",
							"type": "address"
						}
					],
					"stateMutability": "view",
					"type": "function"
				},
				{
					"inputs": [],
					"name": "paused",
					"outputs": [
						{
							"internalType": "bool",
							"name": "",
							"type": "bool"
						}
					],
					"stateMutability": "view",
					"type": "function"
				},
				{
					"inputs": [],
					"name": "renounceOwnership",
					"outputs": [],
					"stateMutability": "nonpayable",
					"type": "function"
				},
				{
					"inputs": [],
					"name": "stakeTokens",
					"outputs": [],
					"stateMutability": "payable",
					"type": "function"
				},
				{
					"inputs": [],
					"name": "totalStakedTokens",
					"outputs": [
						{
							"internalType": "uint256",
							"name": "",
							"type": "uint256"
						}
					],
					"stateMutability": "view",
					"type": "function"
				},
				{
					"inputs": [
						{
							"internalType": "address",
							"name": "newOwner",
							"type": "address"
						}
					],
					"name": "transferOwnership",
					"outputs": [],
					"stateMutability": "nonpayable",
					"type": "function"
				},
				{
					"inputs": [
						{
							"internalType": "address payable",
							"name": "receiverAddress",
							"type": "address"
						},
						{
							"internalType": "uint256",
							"name": "rewardAmount",
							"type": "uint256"
						}
					],
					"name": "transferRewards",
					"outputs": [],
					"stateMutability": "nonpayable",
					"type": "function"
				},
				{
					"inputs": [
						{
							"internalType": "uint256",
							"name": "_tokenAmount",
							"type": "uint256"
						},
						{
							"internalType": "address payable",
							"name": "toAccount",
							"type": "address"
						}
					],
					"name": "unStakeTokens",
					"outputs": [],
					"stateMutability": "nonpayable",
					"type": "function"
				},
				{
					"inputs": [
						{
							"internalType": "address",
							"name": "user",
							"type": "address"
						},
						{
							"internalType": "uint256",
							"name": "_validationRatio",
							"type": "uint256"
						},
						{
							"internalType": "uint256",
							"name": "_upTime",
							"type": "uint256"
						},
						{
							"internalType": "uint256",
							"name": "_bandWidth",
							"type": "uint256"
						},
						{
							"internalType": "uint256",
							"name": "_storageGB",
							"type": "uint256"
						}
					],
					"name": "updateStats",
					"outputs": [],
					"stateMutability": "nonpayable",
					"type": "function"
				},
				{
					"inputs": [
						{
							"internalType": "uint256",
							"name": "amount",
							"type": "uint256"
						},
						{
							"internalType": "address payable",
							"name": "_receiverAddress",
							"type": "address"
						}
					],
					"name": "withDrawFromTreasury",
					"outputs": [],
					"stateMutability": "nonpayable",
					"type": "function"
				},
				{
					"stateMutability": "payable",
					"type": "receive"
				}
			],
			"devdoc": {
				"kind": "dev",
				"methods": {
					"owner()": {
						"details": "Returns the address of the current owner."
					},
					"renounceOwnership()": {
						"details": "Leaves the contract without owner. It will not be possible to call `onlyOwner` functions anymore. Can only be called by the current owner. NOTE: Renouncing ownership will leave the contract without an owner, thereby removing any functionality that is only available to the owner."
					},
					"transferOwnership(address)": {
						"details": "Transfers ownership of the contract to a new account (`newOwner`). Can only be called by the current owner."
					}
				},
				"version": 1
			},
			"evm": {
				"assembly": "    /* \"contracts/storageChain.sol\":109:5112  contract StakingContract is Ownable {... */\n  mstore(0x40, 0x80)\n  callvalue\n  dup1\n  iszero\n  tag_1\n  jumpi\n  0x00\n  dup1\n  revert\ntag_1:\n  pop\n    /* \"@openzeppelin/contracts/access/Ownable.sol\":936:968  _transferOwnership(_msgSender()) */\n  tag_4\n    /* \"@openzeppelin/contracts/access/Ownable.sol\":955:967  _msgSender() */\n  tag_5\n    /* \"@openzeppelin/contracts/access/Ownable.sol\":955:965  _msgSender */\n  shl(0x20, tag_6)\n    /* \"@openzeppelin/contracts/access/Ownable.sol\":955:967  _msgSender() */\n  0x20\n  shr\n  jump\t// in\ntag_5:\n    /* \"@openzeppelin/contracts/access/Ownable.sol\":936:954  _transferOwnership */\n  shl(0x20, tag_7)\n    /* \"@openzeppelin/contracts/access/Ownable.sol\":936:968  _transferOwnership(_msgSender()) */\n  0x20\n  shr\n  jump\t// in\ntag_4:\n    /* \"contracts/storageChain.sol\":109:5112  contract StakingContract is Ownable {... */\n  jump(tag_8)\n    /* \"@openzeppelin/contracts/utils/Context.sol\":640:736  function _msgSender() internal view virtual returns (address) {... */\ntag_6:\n    /* \"@openzeppelin/contracts/utils/Context.sol\":693:700  address */\n  0x00\n    /* \"@openzeppelin/contracts/utils/Context.sol\":719:729  msg.sender */\n  caller\n    /* \"@openzeppelin/contracts/utils/Context.sol\":712:729  return msg.sender */\n  swap1\n  pop\n    /* \"@openzeppelin/contracts/utils/Context.sol\":640:736  function _msgSender() internal view virtual returns (address) {... */\n  swap1\n  jump\t// out\n    /* \"@openzeppelin/contracts/access/Ownable.sol\":2433:2620  function _transferOwnership(address newOwner) internal virtual {... */\ntag_7:\n    /* \"@openzeppelin/contracts/access/Ownable.sol\":2506:2522  address oldOwner */\n  0x00\n    /* \"@openzeppelin/contracts/access/Ownable.sol\":2525:2531  _owner */\n  dup1\n  0x00\n  swap1\n  sload\n  swap1\n  0x0100\n  exp\n  swap1\n  div\n  0xffffffffffffffffffffffffffffffffffffffff\n  and\n    /* \"@openzeppelin/contracts/access/Ownable.sol\":2506:2531  address oldOwner = _owner */\n  swap1\n  pop\n    /* \"@openzeppelin/contracts/access/Ownable.sol\":2550:2558  newOwner */\n  dup2\n    /* \"@openzeppelin/contracts/access/Ownable.sol\":2541:2547  _owner */\n  0x00\n  dup1\n    /* \"@openzeppelin/contracts/access/Ownable.sol\":2541:2558  _owner = newOwner */\n  0x0100\n  exp\n  dup2\n  sload\n  dup2\n  0xffffffffffffffffffffffffffffffffffffffff\n  mul\n  not\n  and\n  swap1\n  dup4\n  0xffffffffffffffffffffffffffffffffffffffff\n  and\n  mul\n  or\n  swap1\n  sstore\n  pop\n    /* \"@openzeppelin/contracts/access/Ownable.sol\":2604:2612  newOwner */\n  dup2\n    /* \"@openzeppelin/contracts/access/Ownable.sol\":2573:2613  OwnershipTransferred(oldOwner, newOwner) */\n  0xffffffffffffffffffffffffffffffffffffffff\n  and\n    /* \"@openzeppelin/contracts/access/Ownable.sol\":2594:2602  oldOwner */\n  dup2\n    /* \"@openzeppelin/contracts/access/Ownable.sol\":2573:2613  OwnershipTransferred(oldOwner, newOwner) */\n  0xffffffffffffffffffffffffffffffffffffffff\n  and\n  0x8be0079c531659141344cd1fd0a4f28419497f9722a3daafe3b4186f6b6457e0\n  mload(0x40)\n  mload(0x40)\n  dup1\n  swap2\n  sub\n  swap1\n  log3\n    /* \"@openzeppelin/contracts/access/Ownable.sol\":2496:2620  {... */\n  pop\n    /* \"@openzeppelin/contracts/access/Ownable.sol\":2433:2620  function _transferOwnership(address newOwner) internal virtual {... */\n  pop\n  jump\t// out\n    /* \"contracts/storageChain.sol\":109:5112  contract StakingContract is Ownable {... */\ntag_8:\n  dataSize(sub_0)\n  dup1\n  dataOffset(sub_0)\n  0x00\n  codecopy\n  0x00\n  return\nstop\n\nsub_0: assembly {\n        /* \"contracts/storageChain.sol\":109:5112  contract StakingContract is Ownable {... */\n      mstore(0x40, 0x80)\n      jumpi(tag_1, lt(calldatasize, 0x04))\n      shr(0xe0, calldataload(0x00))\n      dup1\n      0x715018a6\n      gt\n      tag_20\n      jumpi\n      dup1\n      0x8e080dee\n      gt\n      tag_21\n      jumpi\n      dup1\n      0x8e080dee\n      eq\n      tag_15\n      jumpi\n      dup1\n      0x96cad0db\n      eq\n      tag_16\n      jumpi\n      dup1\n      0xa405b048\n      eq\n      tag_17\n      jumpi\n      dup1\n      0xce46643b\n      eq\n      tag_18\n      jumpi\n      dup1\n      0xf2fde38b\n      eq\n      tag_19\n      jumpi\n      jump(tag_2)\n    tag_21:\n      dup1\n      0x715018a6\n      eq\n      tag_11\n      jumpi\n      dup1\n      0x7a766460\n      eq\n      tag_12\n      jumpi\n      dup1\n      0x82723192\n      eq\n      tag_13\n      jumpi\n      dup1\n      0x8da5cb5b\n      eq\n      tag_14\n      jumpi\n      jump(tag_2)\n    tag_20:\n      dup1\n      0x3ae73259\n      gt\n      tag_22\n      jumpi\n      dup1\n      0x3ae73259\n      eq\n      tag_7\n      jumpi\n      dup1\n      0x52b391b2\n      eq\n      tag_8\n      jumpi\n      dup1\n      0x5c975abb\n      eq\n      tag_9\n      jumpi\n      dup1\n      0x6f9fb98a\n      eq\n      tag_10\n      jumpi\n      jump(tag_2)\n    tag_22:\n      dup1\n      0x06608c3c\n      eq\n      tag_3\n      jumpi\n      dup1\n      0x0d8f7614\n      eq\n      tag_4\n      jumpi\n      dup1\n      0x1241a45a\n      eq\n      tag_5\n      jumpi\n      dup1\n      0x1a2cf140\n      eq\n      tag_6\n      jumpi\n      jump(tag_2)\n    tag_1:\n      jumpi(tag_2, calldatasize)\n        /* \"contracts/storageChain.sol\":4639:4649  msg.sender */\n      caller\n        /* \"contracts/storageChain.sol\":4625:4661  EtherReceived(msg.sender, msg.value) */\n      0xffffffffffffffffffffffffffffffffffffffff\n      and\n      0x1e57e3bb474320be3d2c77138f75b7c3941292d647f5f9634e33a8e94e0e069b\n        /* \"contracts/storageChain.sol\":4651:4660  msg.value */\n      callvalue\n        /* \"contracts/storageChain.sol\":4625:4661  EtherReceived(msg.sender, msg.value) */\n      mload(0x40)\n      tag_25\n      swap2\n      swap1\n      tag_26\n      jump\t// in\n    tag_25:\n      mload(0x40)\n      dup1\n      swap2\n      sub\n      swap1\n      log2\n        /* \"contracts/storageChain.sol\":109:5112  contract StakingContract is Ownable {... */\n      stop\n    tag_2:\n      0x00\n      dup1\n      revert\n        /* \"contracts/storageChain.sol\":2334:2805  function unStakeTokens(uint256 _tokenAmount, address payable toAccount)... */\n    tag_3:\n      callvalue\n      dup1\n      iszero\n      tag_27\n      jumpi\n      0x00\n      dup1\n      revert\n    tag_27:\n      pop\n      tag_28\n      0x04\n      dup1\n      calldatasize\n      sub\n      dup2\n      add\n      swap1\n      tag_29\n      swap2\n      swap1\n      tag_30\n      jump\t// in\n    tag_29:\n      tag_31\n      jump\t// in\n    tag_28:\n      stop\n        /* \"contracts/storageChain.sol\":3685:3829  function fillTreasury() external payable onlyOwner {... */\n    tag_4:\n      tag_32\n      tag_33\n      jump\t// in\n    tag_32:\n      stop\n        /* \"contracts/storageChain.sol\":820:1456  function updateStats(... */\n    tag_5:\n      callvalue\n      dup1\n      iszero\n      tag_34\n      jumpi\n      0x00\n      dup1\n      revert\n    tag_34:\n      pop\n      tag_35\n      0x04\n      dup1\n      calldatasize\n      sub\n      dup2\n      add\n      swap1\n      tag_36\n      swap2\n      swap1\n      tag_37\n      jump\t// in\n    tag_36:\n      tag_38\n      jump\t// in\n    tag_35:\n      stop\n        /* \"contracts/storageChain.sol\":1528:1784  function deleteStats(address user) external onlyOwner {... */\n    tag_6:\n      callvalue\n      dup1\n      iszero\n      tag_39\n      jumpi\n      0x00\n      dup1\n      revert\n    tag_39:\n      pop\n      tag_40\n      0x04\n      dup1\n      calldatasize\n      sub\n      dup2\n      add\n      swap1\n      tag_41\n      swap2\n      swap1\n      tag_42\n      jump\t// in\n    tag_41:\n      tag_43\n      jump\t// in\n    tag_40:\n      stop\n        /* \"contracts/storageChain.sol\":356:388  uint256 public totalStakedTokens */\n    tag_7:\n      callvalue\n      dup1\n      iszero\n      tag_44\n      jumpi\n      0x00\n      dup1\n      revert\n    tag_44:\n      pop\n      tag_45\n      tag_46\n      jump\t// in\n    tag_45:\n      mload(0x40)\n      tag_47\n      swap2\n      swap1\n      tag_26\n      jump\t// in\n    tag_47:\n      mload(0x40)\n      dup1\n      swap2\n      sub\n      swap1\n      return\n        /* \"contracts/storageChain.sol\":4440:4552  function getNodeStats(address user) external view returns (Stats memory) {... */\n    tag_8:\n      callvalue\n      dup1\n      iszero\n      tag_48\n      jumpi\n      0x00\n      dup1\n      revert\n    tag_48:\n      pop\n      tag_49\n      0x04\n      dup1\n      calldatasize\n      sub\n      dup2\n      add\n      swap1\n      tag_50\n      swap2\n      swap1\n      tag_42\n      jump\t// in\n    tag_50:\n      tag_51\n      jump\t// in\n    tag_49:\n      mload(0x40)\n      tag_52\n      swap2\n      swap1\n      tag_53\n      jump\t// in\n    tag_52:\n      mload(0x40)\n      dup1\n      swap2\n      sub\n      swap1\n      return\n        /* \"contracts/storageChain.sol\":271:289  bool public paused */\n    tag_9:\n      callvalue\n      dup1\n      iszero\n      tag_54\n      jumpi\n      0x00\n      dup1\n      revert\n    tag_54:\n      pop\n      tag_55\n      tag_56\n      jump\t// in\n    tag_55:\n      mload(0x40)\n      tag_57\n      swap2\n      swap1\n      tag_58\n      jump\t// in\n    tag_57:\n      mload(0x40)\n      dup1\n      swap2\n      sub\n      swap1\n      return\n        /* \"contracts/storageChain.sol\":1830:1935  function getContractBalance() public view returns (uint256) {... */\n    tag_10:\n      callvalue\n      dup1\n      iszero\n      tag_59\n      jumpi\n      0x00\n      dup1\n      revert\n    tag_59:\n      pop\n      tag_60\n      tag_61\n      jump\t// in\n    tag_60:\n      mload(0x40)\n      tag_62\n      swap2\n      swap1\n      tag_26\n      jump\t// in\n    tag_62:\n      mload(0x40)\n      dup1\n      swap2\n      sub\n      swap1\n      return\n        /* \"@openzeppelin/contracts/access/Ownable.sol\":1831:1932  function renounceOwnership() public virtual onlyOwner {... */\n    tag_11:\n      callvalue\n      dup1\n      iszero\n      tag_63\n      jumpi\n      0x00\n      dup1\n      revert\n    tag_63:\n      pop\n      tag_64\n      tag_65\n      jump\t// in\n    tag_64:\n      stop\n        /* \"contracts/storageChain.sol\":4279:4384  function getStake(address user) external view returns (uint256) {... */\n    tag_12:\n      callvalue\n      dup1\n      iszero\n      tag_66\n      jumpi\n      0x00\n      dup1\n      revert\n    tag_66:\n      pop\n      tag_67\n      0x04\n      dup1\n      calldatasize\n      sub\n      dup2\n      add\n      swap1\n      tag_68\n      swap2\n      swap1\n      tag_42\n      jump\t// in\n    tag_68:\n      tag_69\n      jump\t// in\n    tag_67:\n      mload(0x40)\n      tag_70\n      swap2\n      swap1\n      tag_26\n      jump\t// in\n    tag_70:\n      mload(0x40)\n      dup1\n      swap2\n      sub\n      swap1\n      return\n        /* \"contracts/storageChain.sol\":3107:3621  function transferRewards(... */\n    tag_13:\n      callvalue\n      dup1\n      iszero\n      tag_71\n      jumpi\n      0x00\n      dup1\n      revert\n    tag_71:\n      pop\n      tag_72\n      0x04\n      dup1\n      calldatasize\n      sub\n      dup2\n      add\n      swap1\n      tag_73\n      swap2\n      swap1\n      tag_74\n      jump\t// in\n    tag_73:\n      tag_75\n      jump\t// in\n    tag_72:\n      stop\n        /* \"@openzeppelin/contracts/access/Ownable.sol\":1201:1286  function owner() public view virtual returns (address) {... */\n    tag_14:\n      callvalue\n      dup1\n      iszero\n      tag_76\n      jumpi\n      0x00\n      dup1\n      revert\n    tag_76:\n      pop\n      tag_77\n      tag_78\n      jump\t// in\n    tag_77:\n      mload(0x40)\n      tag_79\n      swap2\n      swap1\n      tag_80\n      jump\t// in\n    tag_79:\n      mload(0x40)\n      dup1\n      swap2\n      sub\n      swap1\n      return\n        /* \"contracts/storageChain.sol\":3894:4228  function withDrawFromTreasury(... */\n    tag_15:\n      callvalue\n      dup1\n      iszero\n      tag_81\n      jumpi\n      0x00\n      dup1\n      revert\n    tag_81:\n      pop\n      tag_82\n      0x04\n      dup1\n      calldatasize\n      sub\n      dup2\n      add\n      swap1\n      tag_83\n      swap2\n      swap1\n      tag_30\n      jump\t// in\n    tag_83:\n      tag_84\n      jump\t// in\n    tag_82:\n      stop\n        /* \"contracts/storageChain.sol\":237:265  uint256 public adminTreasury */\n    tag_16:\n      callvalue\n      dup1\n      iszero\n      tag_85\n      jumpi\n      0x00\n      dup1\n      revert\n    tag_85:\n      pop\n      tag_86\n      tag_87\n      jump\t// in\n    tag_86:\n      mload(0x40)\n      tag_88\n      swap2\n      swap1\n      tag_26\n      jump\t// in\n    tag_88:\n      mload(0x40)\n      dup1\n      swap2\n      sub\n      swap1\n      return\n        /* \"contracts/storageChain.sol\":2856:3021  function FlipPauseStatus() external onlyOwner {... */\n    tag_17:\n      callvalue\n      dup1\n      iszero\n      tag_89\n      jumpi\n      0x00\n      dup1\n      revert\n    tag_89:\n      pop\n      tag_90\n      tag_91\n      jump\t// in\n    tag_90:\n      stop\n        /* \"contracts/storageChain.sol\":1987:2267  function stakeTokens() external payable {... */\n    tag_18:\n      tag_92\n      tag_93\n      jump\t// in\n    tag_92:\n      stop\n        /* \"@openzeppelin/contracts/access/Ownable.sol\":2081:2279  function transferOwnership(address newOwner) public virtual onlyOwner {... */\n    tag_19:\n      callvalue\n      dup1\n      iszero\n      tag_94\n      jumpi\n      0x00\n      dup1\n      revert\n    tag_94:\n      pop\n      tag_95\n      0x04\n      dup1\n      calldatasize\n      sub\n      dup2\n      add\n      swap1\n      tag_96\n      swap2\n      swap1\n      tag_42\n      jump\t// in\n    tag_96:\n      tag_97\n      jump\t// in\n    tag_95:\n      stop\n        /* \"contracts/storageChain.sol\":2334:2805  function unStakeTokens(uint256 _tokenAmount, address payable toAccount)... */\n    tag_31:\n        /* \"contracts/storageChain.sol\":2446:2452  paused */\n      0x04\n      0x00\n      swap1\n      sload\n      swap1\n      0x0100\n      exp\n      swap1\n      div\n      0xff\n      and\n        /* \"contracts/storageChain.sol\":2445:2452  !paused */\n      iszero\n        /* \"contracts/storageChain.sol\":2437:2475  require(!paused, \"Contract is Paused\") */\n      tag_99\n      jumpi\n      mload(0x40)\n      0x08c379a000000000000000000000000000000000000000000000000000000000\n      dup2\n      mstore\n      0x04\n      add\n      tag_100\n      swap1\n      tag_101\n      jump\t// in\n    tag_100:\n      mload(0x40)\n      dup1\n      swap2\n      sub\n      swap1\n      revert\n    tag_99:\n        /* \"contracts/storageChain.sol\":2536:2548  _tokenAmount */\n      dup2\n        /* \"contracts/storageChain.sol\":2507:2518  tokenAmount */\n      0x01\n        /* \"contracts/storageChain.sol\":2507:2532  tokenAmount[_msgSender()] */\n      0x00\n        /* \"contracts/storageChain.sol\":2519:2531  _msgSender() */\n      tag_102\n        /* \"contracts/storageChain.sol\":2519:2529  _msgSender */\n      tag_103\n        /* \"contracts/storageChain.sol\":2519:2531  _msgSender() */\n      jump\t// in\n    tag_102:\n        /* \"contracts/storageChain.sol\":2507:2532  tokenAmount[_msgSender()] */\n      0xffffffffffffffffffffffffffffffffffffffff\n      and\n      0xffffffffffffffffffffffffffffffffffffffff\n      and\n      dup2\n      mstore\n      0x20\n      add\n      swap1\n      dup2\n      mstore\n      0x20\n      add\n      0x00\n      keccak256\n      sload\n        /* \"contracts/storageChain.sol\":2507:2548  tokenAmount[_msgSender()] >= _tokenAmount */\n      lt\n      iszero\n        /* \"contracts/storageChain.sol\":2486:2605  require(... */\n      tag_104\n      jumpi\n      mload(0x40)\n      0x08c379a000000000000000000000000000000000000000000000000000000000\n      dup2\n      mstore\n      0x04\n      add\n      tag_105\n      swap1\n      tag_106\n      jump\t// in\n    tag_105:\n      mload(0x40)\n      dup1\n      swap2\n      sub\n      swap1\n      revert\n    tag_104:\n        /* \"contracts/storageChain.sol\":2616:2625  toAccount */\n      dup1\n        /* \"contracts/storageChain.sol\":2616:2634  toAccount.transfer */\n      0xffffffffffffffffffffffffffffffffffffffff\n      and\n        /* \"contracts/storageChain.sol\":2616:2648  toAccount.transfer(_tokenAmount) */\n      0x08fc\n        /* \"contracts/storageChain.sol\":2635:2647  _tokenAmount */\n      dup4\n        /* \"contracts/storageChain.sol\":2616:2648  toAccount.transfer(_tokenAmount) */\n      swap1\n      dup2\n      iszero\n      mul\n      swap1\n      mload(0x40)\n      0x00\n      mload(0x40)\n      dup1\n      dup4\n      sub\n      dup2\n      dup6\n      dup9\n      dup9\n      call\n      swap4\n      pop\n      pop\n      pop\n      pop\n      iszero\n      dup1\n      iszero\n      tag_108\n      jumpi\n      returndatasize\n      0x00\n      dup1\n      returndatacopy\n      revert(0x00, returndatasize)\n    tag_108:\n      pop\n        /* \"contracts/storageChain.sol\":2687:2699  _tokenAmount */\n      dup2\n        /* \"contracts/storageChain.sol\":2658:2669  tokenAmount */\n      0x01\n        /* \"contracts/storageChain.sol\":2658:2683  tokenAmount[_msgSender()] */\n      0x00\n        /* \"contracts/storageChain.sol\":2670:2682  _msgSender() */\n      tag_109\n        /* \"contracts/storageChain.sol\":2670:2680  _msgSender */\n      tag_103\n        /* \"contracts/storageChain.sol\":2670:2682  _msgSender() */\n      jump\t// in\n    tag_109:\n        /* \"contracts/storageChain.sol\":2658:2683  tokenAmount[_msgSender()] */\n      0xffffffffffffffffffffffffffffffffffffffff\n      and\n      0xffffffffffffffffffffffffffffffffffffffff\n      and\n      dup2\n      mstore\n      0x20\n      add\n      swap1\n      dup2\n      mstore\n      0x20\n      add\n      0x00\n      keccak256\n      0x00\n        /* \"contracts/storageChain.sol\":2658:2699  tokenAmount[_msgSender()] -= _tokenAmount */\n      dup3\n      dup3\n      sload\n      tag_110\n      swap2\n      swap1\n      tag_111\n      jump\t// in\n    tag_110:\n      swap3\n      pop\n      pop\n      dup2\n      swap1\n      sstore\n      pop\n        /* \"contracts/storageChain.sol\":2730:2742  _tokenAmount */\n      dup2\n        /* \"contracts/storageChain.sol\":2709:2726  totalStakedTokens */\n      0x05\n      0x00\n        /* \"contracts/storageChain.sol\":2709:2742  totalStakedTokens -= _tokenAmount */\n      dup3\n      dup3\n      sload\n      tag_112\n      swap2\n      swap1\n      tag_111\n      jump\t// in\n    tag_112:\n      swap3\n      pop\n      pop\n      dup2\n      swap1\n      sstore\n      pop\n        /* \"contracts/storageChain.sol\":2771:2783  _msgSender() */\n      tag_113\n        /* \"contracts/storageChain.sol\":2771:2781  _msgSender */\n      tag_103\n        /* \"contracts/storageChain.sol\":2771:2783  _msgSender() */\n      jump\t// in\n    tag_113:\n        /* \"contracts/storageChain.sol\":2757:2798  TokenTransfer(_msgSender(), _tokenAmount) */\n      0xffffffffffffffffffffffffffffffffffffffff\n      and\n      0x1d72140a7ccdb496bef50918d2598dd7edefb514f70e6d4beb528cbd16c80b7d\n        /* \"contracts/storageChain.sol\":2785:2797  _tokenAmount */\n      dup4\n        /* \"contracts/storageChain.sol\":2757:2798  TokenTransfer(_msgSender(), _tokenAmount) */\n      mload(0x40)\n      tag_114\n      swap2\n      swap1\n      tag_26\n      jump\t// in\n    tag_114:\n      mload(0x40)\n      dup1\n      swap2\n      sub\n      swap1\n      log2\n        /* \"contracts/storageChain.sol\":2334:2805  function unStakeTokens(uint256 _tokenAmount, address payable toAccount)... */\n      pop\n      pop\n      jump\t// out\n        /* \"contracts/storageChain.sol\":3685:3829  function fillTreasury() external payable onlyOwner {... */\n    tag_33:\n        /* \"@openzeppelin/contracts/access/Ownable.sol\":1094:1107  _checkOwner() */\n      tag_116\n        /* \"@openzeppelin/contracts/access/Ownable.sol\":1094:1105  _checkOwner */\n      tag_117\n        /* \"@openzeppelin/contracts/access/Ownable.sol\":1094:1107  _checkOwner() */\n      jump\t// in\n    tag_116:\n        /* \"contracts/storageChain.sol\":3766:3767  0 */\n      0x00\n        /* \"contracts/storageChain.sol\":3754:3763  msg.value */\n      callvalue\n        /* \"contracts/storageChain.sol\":3754:3767  msg.value > 0 */\n      gt\n        /* \"contracts/storageChain.sol\":3746:3786  require(msg.value > 0, \"Invalid Amount\") */\n      tag_119\n      jumpi\n      mload(0x40)\n      0x08c379a000000000000000000000000000000000000000000000000000000000\n      dup2\n      mstore\n      0x04\n      add\n      tag_120\n      swap1\n      tag_121\n      jump\t// in\n    tag_120:\n      mload(0x40)\n      dup1\n      swap2\n      sub\n      swap1\n      revert\n    tag_119:\n        /* \"contracts/storageChain.sol\":3813:3822  msg.value */\n      callvalue\n        /* \"contracts/storageChain.sol\":3796:3809  adminTreasury */\n      0x03\n      0x00\n        /* \"contracts/storageChain.sol\":3796:3822  adminTreasury += msg.value */\n      dup3\n      dup3\n      sload\n      tag_122\n      swap2\n      swap1\n      tag_123\n      jump\t// in\n    tag_122:\n      swap3\n      pop\n      pop\n      dup2\n      swap1\n      sstore\n      pop\n        /* \"contracts/storageChain.sol\":3685:3829  function fillTreasury() external payable onlyOwner {... */\n      jump\t// out\n        /* \"contracts/storageChain.sol\":820:1456  function updateStats(... */\n    tag_38:\n        /* \"@openzeppelin/contracts/access/Ownable.sol\":1094:1107  _checkOwner() */\n      tag_125\n        /* \"@openzeppelin/contracts/access/Ownable.sol\":1094:1105  _checkOwner */\n      tag_117\n        /* \"@openzeppelin/contracts/access/Ownable.sol\":1094:1107  _checkOwner() */\n      jump\t// in\n    tag_125:\n        /* \"contracts/storageChain.sol\":1041:1042  0 */\n      0x00\n        /* \"contracts/storageChain.sol\":1021:1032  tokenAmount */\n      0x01\n        /* \"contracts/storageChain.sol\":1021:1038  tokenAmount[user] */\n      0x00\n        /* \"contracts/storageChain.sol\":1033:1037  user */\n      dup8\n        /* \"contracts/storageChain.sol\":1021:1038  tokenAmount[user] */\n      0xffffffffffffffffffffffffffffffffffffffff\n      and\n      0xffffffffffffffffffffffffffffffffffffffff\n      and\n      dup2\n      mstore\n      0x20\n      add\n      swap1\n      dup2\n      mstore\n      0x20\n      add\n      0x00\n      keccak256\n      sload\n        /* \"contracts/storageChain.sol\":1021:1042  tokenAmount[user] > 0 */\n      gt\n        /* \"contracts/storageChain.sol\":1013:1081  require(tokenAmount[user] > 0, \"No Staked amount against this user\") */\n      tag_127\n      jumpi\n      mload(0x40)\n      0x08c379a000000000000000000000000000000000000000000000000000000000\n      dup2\n      mstore\n      0x04\n      add\n      tag_128\n      swap1\n      tag_129\n      jump\t// in\n    tag_128:\n      mload(0x40)\n      dup1\n      swap2\n      sub\n      swap1\n      revert\n    tag_127:\n        /* \"contracts/storageChain.sol\":1091:1100  NodeStats */\n      0x02\n        /* \"contracts/storageChain.sol\":1091:1106  NodeStats[user] */\n      0x00\n        /* \"contracts/storageChain.sol\":1101:1105  user */\n      dup7\n        /* \"contracts/storageChain.sol\":1091:1106  NodeStats[user] */\n      0xffffffffffffffffffffffffffffffffffffffff\n      and\n      0xffffffffffffffffffffffffffffffffffffffff\n      and\n      dup2\n      mstore\n      0x20\n      add\n      swap1\n      dup2\n      mstore\n      0x20\n      add\n      0x00\n      keccak256\n        /* \"contracts/storageChain.sol\":1091:1122  NodeStats[user].validationRatio */\n      0x00\n      add\n        /* \"contracts/storageChain.sol\":1128:1144  _validationRatio */\n      dup5\n        /* \"contracts/storageChain.sol\":1091:1145  NodeStats[user].validationRatio.push(_validationRatio) */\n      swap1\n      dup1\n      0x01\n      dup2\n      sload\n      add\n      dup1\n      dup3\n      sstore\n      dup1\n      swap2\n      pop\n      pop\n      0x01\n      swap1\n      sub\n      swap1\n      0x00\n      mstore\n      keccak256(0x00, 0x20)\n      add\n      0x00\n      swap1\n      swap2\n      swap1\n      swap2\n      swap1\n      swap2\n      pop\n      sstore\n        /* \"contracts/storageChain.sol\":1155:1164  NodeStats */\n      0x02\n        /* \"contracts/storageChain.sol\":1155:1170  NodeStats[user] */\n      0x00\n        /* \"contracts/storageChain.sol\":1165:1169  user */\n      dup7\n        /* \"contracts/storageChain.sol\":1155:1170  NodeStats[user] */\n      0xffffffffffffffffffffffffffffffffffffffff\n      and\n      0xffffffffffffffffffffffffffffffffffffffff\n      and\n      dup2\n      mstore\n      0x20\n      add\n      swap1\n      dup2\n      mstore\n      0x20\n      add\n      0x00\n      keccak256\n        /* \"contracts/storageChain.sol\":1155:1177  NodeStats[user].upTime */\n      0x01\n      add\n        /* \"contracts/storageChain.sol\":1183:1190  _upTime */\n      dup4\n        /* \"contracts/storageChain.sol\":1155:1191  NodeStats[user].upTime.push(_upTime) */\n      swap1\n      dup1\n      0x01\n      dup2\n      sload\n      add\n      dup1\n      dup3\n      sstore\n      dup1\n      swap2\n      pop\n      pop\n      0x01\n      swap1\n      sub\n      swap1\n      0x00\n      mstore\n      keccak256(0x00, 0x20)\n      add\n      0x00\n      swap1\n      swap2\n      swap1\n      swap2\n      swap1\n      swap2\n      pop\n      sstore\n        /* \"contracts/storageChain.sol\":1201:1210  NodeStats */\n      0x02\n        /* \"contracts/storageChain.sol\":1201:1216  NodeStats[user] */\n      0x00\n        /* \"contracts/storageChain.sol\":1211:1215  user */\n      dup7\n        /* \"contracts/storageChain.sol\":1201:1216  NodeStats[user] */\n      0xffffffffffffffffffffffffffffffffffffffff\n      and\n      0xffffffffffffffffffffffffffffffffffffffff\n      and\n      dup2\n      mstore\n      0x20\n      add\n      swap1\n      dup2\n      mstore\n      0x20\n      add\n      0x00\n      keccak256\n        /* \"contracts/storageChain.sol\":1201:1226  NodeStats[user].bandWidth */\n      0x02\n      add\n        /* \"contracts/storageChain.sol\":1232:1242  _bandWidth */\n      dup3\n        /* \"contracts/storageChain.sol\":1201:1243  NodeStats[user].bandWidth.push(_bandWidth) */\n      swap1\n      dup1\n      0x01\n      dup2\n      sload\n      add\n      dup1\n      dup3\n      sstore\n      dup1\n      swap2\n      pop\n      pop\n      0x01\n      swap1\n      sub\n      swap1\n      0x00\n      mstore\n      keccak256(0x00, 0x20)\n      add\n      0x00\n      swap1\n      swap2\n      swap1\n      swap2\n      swap1\n      swap2\n      pop\n      sstore\n        /* \"contracts/storageChain.sol\":1253:1262  NodeStats */\n      0x02\n        /* \"contracts/storageChain.sol\":1253:1268  NodeStats[user] */\n      0x00\n        /* \"contracts/storageChain.sol\":1263:1267  user */\n      dup7\n        /* \"contracts/storageChain.sol\":1253:1268  NodeStats[user] */\n      0xffffffffffffffffffffffffffffffffffffffff\n      and\n      0xffffffffffffffffffffffffffffffffffffffff\n      and\n      dup2\n      mstore\n      0x20\n      add\n      swap1\n      dup2\n      mstore\n      0x20\n      add\n      0x00\n      keccak256\n        /* \"contracts/storageChain.sol\":1253:1278  NodeStats[user].storageGB */\n      0x03\n      add\n        /* \"contracts/storageChain.sol\":1284:1294  _storageGB */\n      dup2\n        /* \"contracts/storageChain.sol\":1253:1295  NodeStats[user].storageGB.push(_storageGB) */\n      swap1\n      dup1\n      0x01\n      dup2\n      sload\n      add\n      dup1\n      dup3\n      sstore\n      dup1\n      swap2\n      pop\n      pop\n      0x01\n      swap1\n      sub\n      swap1\n      0x00\n      mstore\n      keccak256(0x00, 0x20)\n      add\n      0x00\n      swap1\n      swap2\n      swap1\n      swap2\n      swap1\n      swap2\n      pop\n      sstore\n        /* \"contracts/storageChain.sol\":1336:1340  user */\n      dup5\n        /* \"contracts/storageChain.sol\":1310:1449  StatsUpdated(... */\n      0xffffffffffffffffffffffffffffffffffffffff\n      and\n      0xb4dc03f150e6d614b4a64b5aa6600a4f413726a20001138df59ecc01bb8f7983\n        /* \"contracts/storageChain.sol\":1354:1370  _validationRatio */\n      dup6\n        /* \"contracts/storageChain.sol\":1384:1391  _upTime */\n      dup6\n        /* \"contracts/storageChain.sol\":1405:1415  _bandWidth */\n      dup6\n        /* \"contracts/storageChain.sol\":1429:1439  _storageGB */\n      dup6\n        /* \"contracts/storageChain.sol\":1310:1449  StatsUpdated(... */\n      mload(0x40)\n      tag_134\n      swap5\n      swap4\n      swap3\n      swap2\n      swap1\n      tag_135\n      jump\t// in\n    tag_134:\n      mload(0x40)\n      dup1\n      swap2\n      sub\n      swap1\n      log2\n        /* \"contracts/storageChain.sol\":820:1456  function updateStats(... */\n      pop\n      pop\n      pop\n      pop\n      pop\n      jump\t// out\n        /* \"contracts/storageChain.sol\":1528:1784  function deleteStats(address user) external onlyOwner {... */\n    tag_43:\n        /* \"@openzeppelin/contracts/access/Ownable.sol\":1094:1107  _checkOwner() */\n      tag_137\n        /* \"@openzeppelin/contracts/access/Ownable.sol\":1094:1105  _checkOwner */\n      tag_117\n        /* \"@openzeppelin/contracts/access/Ownable.sol\":1094:1107  _checkOwner() */\n      jump\t// in\n    tag_137:\n        /* \"contracts/storageChain.sol\":1634:1635  0 */\n      0x00\n        /* \"contracts/storageChain.sol\":1613:1624  tokenAmount */\n      0x01\n        /* \"contracts/storageChain.sol\":1613:1630  tokenAmount[user] */\n      0x00\n        /* \"contracts/storageChain.sol\":1625:1629  user */\n      dup4\n        /* \"contracts/storageChain.sol\":1613:1630  tokenAmount[user] */\n      0xffffffffffffffffffffffffffffffffffffffff\n      and\n      0xffffffffffffffffffffffffffffffffffffffff\n      and\n      dup2\n      mstore\n      0x20\n      add\n      swap1\n      dup2\n      mstore\n      0x20\n      add\n      0x00\n      keccak256\n      sload\n        /* \"contracts/storageChain.sol\":1613:1635  tokenAmount[user] == 0 */\n      eq\n        /* \"contracts/storageChain.sol\":1592:1698  require(... */\n      tag_139\n      jumpi\n      mload(0x40)\n      0x08c379a000000000000000000000000000000000000000000000000000000000\n      dup2\n      mstore\n      0x04\n      add\n      tag_140\n      swap1\n      tag_141\n      jump\t// in\n    tag_140:\n      mload(0x40)\n      dup1\n      swap2\n      sub\n      swap1\n      revert\n    tag_139:\n        /* \"contracts/storageChain.sol\":1715:1724  NodeStats */\n      0x02\n        /* \"contracts/storageChain.sol\":1715:1730  NodeStats[user] */\n      0x00\n        /* \"contracts/storageChain.sol\":1725:1729  user */\n      dup3\n        /* \"contracts/storageChain.sol\":1715:1730  NodeStats[user] */\n      0xffffffffffffffffffffffffffffffffffffffff\n      and\n      0xffffffffffffffffffffffffffffffffffffffff\n      and\n      dup2\n      mstore\n      0x20\n      add\n      swap1\n      dup2\n      mstore\n      0x20\n      add\n      0x00\n      keccak256\n      0x00\n        /* \"contracts/storageChain.sol\":1708:1730  delete NodeStats[user] */\n      dup1\n      dup3\n      add\n      0x00\n      tag_142\n      swap2\n      swap1\n      tag_143\n      jump\t// in\n    tag_142:\n      0x01\n      dup3\n      add\n      0x00\n      tag_144\n      swap2\n      swap1\n      tag_143\n      jump\t// in\n    tag_144:\n      0x02\n      dup3\n      add\n      0x00\n      tag_145\n      swap2\n      swap1\n      tag_143\n      jump\t// in\n    tag_145:\n      0x03\n      dup3\n      add\n      0x00\n      tag_146\n      swap2\n      swap1\n      tag_143\n      jump\t// in\n    tag_146:\n      0x04\n      dup3\n      add\n      exp(0x0100, 0x00)\n      dup2\n      sload\n      swap1\n      0xff\n      mul\n      not\n      and\n      swap1\n      sstore\n      pop\n      pop\n        /* \"contracts/storageChain.sol\":1770:1774  user */\n      dup1\n        /* \"contracts/storageChain.sol\":1745:1775  StaorageNodeStatsDeleted(user) */\n      0xffffffffffffffffffffffffffffffffffffffff\n      and\n      0x9e9385d28c8138c95cb67f6eb795218b4839cae3ff4305a567f01395b9317c9f\n      mload(0x40)\n      mload(0x40)\n      dup1\n      swap2\n      sub\n      swap1\n      log2\n        /* \"contracts/storageChain.sol\":1528:1784  function deleteStats(address user) external onlyOwner {... */\n      pop\n      jump\t// out\n        /* \"contracts/storageChain.sol\":356:388  uint256 public totalStakedTokens */\n    tag_46:\n      sload(0x05)\n      dup2\n      jump\t// out\n        /* \"contracts/storageChain.sol\":4440:4552  function getNodeStats(address user) external view returns (Stats memory) {... */\n    tag_51:\n        /* \"contracts/storageChain.sol\":4499:4511  Stats memory */\n      tag_147\n      tag_148\n      jump\t// in\n    tag_147:\n        /* \"contracts/storageChain.sol\":4530:4539  NodeStats */\n      0x02\n        /* \"contracts/storageChain.sol\":4530:4545  NodeStats[user] */\n      0x00\n        /* \"contracts/storageChain.sol\":4540:4544  user */\n      dup4\n        /* \"contracts/storageChain.sol\":4530:4545  NodeStats[user] */\n      0xffffffffffffffffffffffffffffffffffffffff\n      and\n      0xffffffffffffffffffffffffffffffffffffffff\n      and\n      dup2\n      mstore\n      0x20\n      add\n      swap1\n      dup2\n      mstore\n      0x20\n      add\n      0x00\n      keccak256\n        /* \"contracts/storageChain.sol\":4523:4545  return NodeStats[user] */\n      mload(0x40)\n      dup1\n      0xa0\n      add\n      0x40\n      mstore\n      swap1\n      dup2\n      0x00\n      dup3\n      add\n      dup1\n      sload\n      dup1\n      0x20\n      mul\n      0x20\n      add\n      mload(0x40)\n      swap1\n      dup2\n      add\n      0x40\n      mstore\n      dup1\n      swap3\n      swap2\n      swap1\n      dup2\n      dup2\n      mstore\n      0x20\n      add\n      dup3\n      dup1\n      sload\n      dup1\n      iszero\n      tag_150\n      jumpi\n      0x20\n      mul\n      dup3\n      add\n      swap2\n      swap1\n      0x00\n      mstore\n      keccak256(0x00, 0x20)\n      swap1\n    tag_151:\n      dup2\n      sload\n      dup2\n      mstore\n      0x20\n      add\n      swap1\n      0x01\n      add\n      swap1\n      dup1\n      dup4\n      gt\n      tag_151\n      jumpi\n    tag_150:\n      pop\n      pop\n      pop\n      pop\n      pop\n      dup2\n      mstore\n      0x20\n      add\n      0x01\n      dup3\n      add\n      dup1\n      sload\n      dup1\n      0x20\n      mul\n      0x20\n      add\n      mload(0x40)\n      swap1\n      dup2\n      add\n      0x40\n      mstore\n      dup1\n      swap3\n      swap2\n      swap1\n      dup2\n      dup2\n      mstore\n      0x20\n      add\n      dup3\n      dup1\n      sload\n      dup1\n      iszero\n      tag_152\n      jumpi\n      0x20\n      mul\n      dup3\n      add\n      swap2\n      swap1\n      0x00\n      mstore\n      keccak256(0x00, 0x20)\n      swap1\n    tag_153:\n      dup2\n      sload\n      dup2\n      mstore\n      0x20\n      add\n      swap1\n      0x01\n      add\n      swap1\n      dup1\n      dup4\n      gt\n      tag_153\n      jumpi\n    tag_152:\n      pop\n      pop\n      pop\n      pop\n      pop\n      dup2\n      mstore\n      0x20\n      add\n      0x02\n      dup3\n      add\n      dup1\n      sload\n      dup1\n      0x20\n      mul\n      0x20\n      add\n      mload(0x40)\n      swap1\n      dup2\n      add\n      0x40\n      mstore\n      dup1\n      swap3\n      swap2\n      swap1\n      dup2\n      dup2\n      mstore\n      0x20\n      add\n      dup3\n      dup1\n      sload\n      dup1\n      iszero\n      tag_154\n      jumpi\n      0x20\n      mul\n      dup3\n      add\n      swap2\n      swap1\n      0x00\n      mstore\n      keccak256(0x00, 0x20)\n      swap1\n    tag_155:\n      dup2\n      sload\n      dup2\n      mstore\n      0x20\n      add\n      swap1\n      0x01\n      add\n      swap1\n      dup1\n      dup4\n      gt\n      tag_155\n      jumpi\n    tag_154:\n      pop\n      pop\n      pop\n      pop\n      pop\n      dup2\n      mstore\n      0x20\n      add\n      0x03\n      dup3\n      add\n      dup1\n      sload\n      dup1\n      0x20\n      mul\n      0x20\n      add\n      mload(0x40)\n      swap1\n      dup2\n      add\n      0x40\n      mstore\n      dup1\n      swap3\n      swap2\n      swap1\n      dup2\n      dup2\n      mstore\n      0x20\n      add\n      dup3\n      dup1\n      sload\n      dup1\n      iszero\n      tag_156\n      jumpi\n      0x20\n      mul\n      dup3\n      add\n      swap2\n      swap1\n      0x00\n      mstore\n      keccak256(0x00, 0x20)\n      swap1\n    tag_157:\n      dup2\n      sload\n      dup2\n      mstore\n      0x20\n      add\n      swap1\n      0x01\n      add\n      swap1\n      dup1\n      dup4\n      gt\n      tag_157\n      jumpi\n    tag_156:\n      pop\n      pop\n      pop\n      pop\n      pop\n      dup2\n      mstore\n      0x20\n      add\n      0x04\n      dup3\n      add\n      0x00\n      swap1\n      sload\n      swap1\n      0x0100\n      exp\n      swap1\n      div\n      0xff\n      and\n      iszero\n      iszero\n      iszero\n      iszero\n      dup2\n      mstore\n      pop\n      pop\n      swap1\n      pop\n        /* \"contracts/storageChain.sol\":4440:4552  function getNodeStats(address user) external view returns (Stats memory) {... */\n      swap2\n      swap1\n      pop\n      jump\t// out\n        /* \"contracts/storageChain.sol\":271:289  bool public paused */\n    tag_56:\n      0x04\n      0x00\n      swap1\n      sload\n      swap1\n      0x0100\n      exp\n      swap1\n      div\n      0xff\n      and\n      dup2\n      jump\t// out\n        /* \"contracts/storageChain.sol\":1830:1935  function getContractBalance() public view returns (uint256) {... */\n    tag_61:\n        /* \"contracts/storageChain.sol\":1881:1888  uint256 */\n      0x00\n        /* \"contracts/storageChain.sol\":1907:1928  address(this).balance */\n      selfbalance\n        /* \"contracts/storageChain.sol\":1900:1928  return address(this).balance */\n      swap1\n      pop\n        /* \"contracts/storageChain.sol\":1830:1935  function getContractBalance() public view returns (uint256) {... */\n      swap1\n      jump\t// out\n        /* \"@openzeppelin/contracts/access/Ownable.sol\":1831:1932  function renounceOwnership() public virtual onlyOwner {... */\n    tag_65:\n        /* \"@openzeppelin/contracts/access/Ownable.sol\":1094:1107  _checkOwner() */\n      tag_160\n        /* \"@openzeppelin/contracts/access/Ownable.sol\":1094:1105  _checkOwner */\n      tag_117\n        /* \"@openzeppelin/contracts/access/Ownable.sol\":1094:1107  _checkOwner() */\n      jump\t// in\n    tag_160:\n        /* \"@openzeppelin/contracts/access/Ownable.sol\":1895:1925  _transferOwnership(address(0)) */\n      tag_162\n        /* \"@openzeppelin/contracts/access/Ownable.sol\":1922:1923  0 */\n      0x00\n        /* \"@openzeppelin/contracts/access/Ownable.sol\":1895:1913  _transferOwnership */\n      tag_163\n        /* \"@openzeppelin/contracts/access/Ownable.sol\":1895:1925  _transferOwnership(address(0)) */\n      jump\t// in\n    tag_162:\n        /* \"@openzeppelin/contracts/access/Ownable.sol\":1831:1932  function renounceOwnership() public virtual onlyOwner {... */\n      jump\t// out\n        /* \"contracts/storageChain.sol\":4279:4384  function getStake(address user) external view returns (uint256) {... */\n    tag_69:\n        /* \"contracts/storageChain.sol\":4334:4341  uint256 */\n      0x00\n        /* \"contracts/storageChain.sol\":4360:4371  tokenAmount */\n      0x01\n        /* \"contracts/storageChain.sol\":4360:4377  tokenAmount[user] */\n      0x00\n        /* \"contracts/storageChain.sol\":4372:4376  user */\n      dup4\n        /* \"contracts/storageChain.sol\":4360:4377  tokenAmount[user] */\n      0xffffffffffffffffffffffffffffffffffffffff\n      and\n      0xffffffffffffffffffffffffffffffffffffffff\n      and\n      dup2\n      mstore\n      0x20\n      add\n      swap1\n      dup2\n      mstore\n      0x20\n      add\n      0x00\n      keccak256\n      sload\n        /* \"contracts/storageChain.sol\":4353:4377  return tokenAmount[user] */\n      swap1\n      pop\n        /* \"contracts/storageChain.sol\":4279:4384  function getStake(address user) external view returns (uint256) {... */\n      swap2\n      swap1\n      pop\n      jump\t// out\n        /* \"contracts/storageChain.sol\":3107:3621  function transferRewards(... */\n    tag_75:\n        /* \"@openzeppelin/contracts/access/Ownable.sol\":1094:1107  _checkOwner() */\n      tag_166\n        /* \"@openzeppelin/contracts/access/Ownable.sol\":1094:1105  _checkOwner */\n      tag_117\n        /* \"@openzeppelin/contracts/access/Ownable.sol\":1094:1107  _checkOwner() */\n      jump\t// in\n    tag_166:\n        /* \"contracts/storageChain.sol\":3247:3253  paused */\n      0x04\n      0x00\n      swap1\n      sload\n      swap1\n      0x0100\n      exp\n      swap1\n      div\n      0xff\n      and\n        /* \"contracts/storageChain.sol\":3246:3253  !paused */\n      iszero\n        /* \"contracts/storageChain.sol\":3238:3275  require(!paused, \"Staking is paused\") */\n      tag_168\n      jumpi\n      mload(0x40)\n      0x08c379a000000000000000000000000000000000000000000000000000000000\n      dup2\n      mstore\n      0x04\n      add\n      tag_169\n      swap1\n      tag_170\n      jump\t// in\n    tag_169:\n      mload(0x40)\n      dup1\n      swap2\n      sub\n      swap1\n      revert\n    tag_168:\n        /* \"contracts/storageChain.sol\":3322:3335  adminTreasury */\n      sload(0x03)\n        /* \"contracts/storageChain.sol\":3306:3318  rewardAmount */\n      dup2\n        /* \"contracts/storageChain.sol\":3306:3335  rewardAmount <= adminTreasury */\n      gt\n      iszero\n        /* \"contracts/storageChain.sol\":3285:3393  require(... */\n      tag_171\n      jumpi\n      mload(0x40)\n      0x08c379a000000000000000000000000000000000000000000000000000000000\n      dup2\n      mstore\n      0x04\n      add\n      tag_172\n      swap1\n      tag_173\n      jump\t// in\n    tag_172:\n      mload(0x40)\n      dup1\n      swap2\n      sub\n      swap1\n      revert\n    tag_171:\n        /* \"contracts/storageChain.sol\":3439:3440  0 */\n      0x00\n        /* \"contracts/storageChain.sol\":3411:3422  tokenAmount */\n      0x01\n        /* \"contracts/storageChain.sol\":3411:3436  tokenAmount[_msgSender()] */\n      0x00\n        /* \"contracts/storageChain.sol\":3423:3435  _msgSender() */\n      tag_174\n        /* \"contracts/storageChain.sol\":3423:3433  _msgSender */\n      tag_103\n        /* \"contracts/storageChain.sol\":3423:3435  _msgSender() */\n      jump\t// in\n    tag_174:\n        /* \"contracts/storageChain.sol\":3411:3436  tokenAmount[_msgSender()] */\n      0xffffffffffffffffffffffffffffffffffffffff\n      and\n      0xffffffffffffffffffffffffffffffffffffffff\n      and\n      dup2\n      mstore\n      0x20\n      add\n      swap1\n      dup2\n      mstore\n      0x20\n      add\n      0x00\n      keccak256\n      sload\n        /* \"contracts/storageChain.sol\":3411:3440  tokenAmount[_msgSender()] > 0 */\n      gt\n        /* \"contracts/storageChain.sol\":3403:3468  require(tokenAmount[_msgSender()] > 0, \"User Does't have Staked\") */\n      tag_175\n      jumpi\n      mload(0x40)\n      0x08c379a000000000000000000000000000000000000000000000000000000000\n      dup2\n      mstore\n      0x04\n      add\n      tag_176\n      swap1\n      tag_177\n      jump\t// in\n    tag_176:\n      mload(0x40)\n      dup1\n      swap2\n      sub\n      swap1\n      revert\n    tag_175:\n        /* \"contracts/storageChain.sol\":3478:3493  receiverAddress */\n      dup2\n        /* \"contracts/storageChain.sol\":3478:3502  receiverAddress.transfer */\n      0xffffffffffffffffffffffffffffffffffffffff\n      and\n        /* \"contracts/storageChain.sol\":3478:3516  receiverAddress.transfer(rewardAmount) */\n      0x08fc\n        /* \"contracts/storageChain.sol\":3503:3515  rewardAmount */\n      dup3\n        /* \"contracts/storageChain.sol\":3478:3516  receiverAddress.transfer(rewardAmount) */\n      swap1\n      dup2\n      iszero\n      mul\n      swap1\n      mload(0x40)\n      0x00\n      mload(0x40)\n      dup1\n      dup4\n      sub\n      dup2\n      dup6\n      dup9\n      dup9\n      call\n      swap4\n      pop\n      pop\n      pop\n      pop\n      iszero\n      dup1\n      iszero\n      tag_179\n      jumpi\n      returndatasize\n      0x00\n      dup1\n      returndatacopy\n      revert(0x00, returndatasize)\n    tag_179:\n      pop\n        /* \"contracts/storageChain.sol\":3543:3555  rewardAmount */\n      dup1\n        /* \"contracts/storageChain.sol\":3526:3539  adminTreasury */\n      0x03\n      0x00\n        /* \"contracts/storageChain.sol\":3526:3555  adminTreasury -= rewardAmount */\n      dup3\n      dup3\n      sload\n      tag_180\n      swap2\n      swap1\n      tag_111\n      jump\t// in\n    tag_180:\n      swap3\n      pop\n      pop\n      dup2\n      swap1\n      sstore\n      pop\n        /* \"contracts/storageChain.sol\":3584:3599  receiverAddress */\n      dup2\n        /* \"contracts/storageChain.sol\":3570:3614  TokenTransfer(receiverAddress, rewardAmount) */\n      0xffffffffffffffffffffffffffffffffffffffff\n      and\n      0x1d72140a7ccdb496bef50918d2598dd7edefb514f70e6d4beb528cbd16c80b7d\n        /* \"contracts/storageChain.sol\":3601:3613  rewardAmount */\n      dup3\n        /* \"contracts/storageChain.sol\":3570:3614  TokenTransfer(receiverAddress, rewardAmount) */\n      mload(0x40)\n      tag_181\n      swap2\n      swap1\n      tag_26\n      jump\t// in\n    tag_181:\n      mload(0x40)\n      dup1\n      swap2\n      sub\n      swap1\n      log2\n        /* \"contracts/storageChain.sol\":3107:3621  function transferRewards(... */\n      pop\n      pop\n      jump\t// out\n        /* \"@openzeppelin/contracts/access/Ownable.sol\":1201:1286  function owner() public view virtual returns (address) {... */\n    tag_78:\n        /* \"@openzeppelin/contracts/access/Ownable.sol\":1247:1254  address */\n      0x00\n        /* \"@openzeppelin/contracts/access/Ownable.sol\":1273:1279  _owner */\n      dup1\n      0x00\n      swap1\n      sload\n      swap1\n      0x0100\n      exp\n      swap1\n      div\n      0xffffffffffffffffffffffffffffffffffffffff\n      and\n        /* \"@openzeppelin/contracts/access/Ownable.sol\":1266:1279  return _owner */\n      swap1\n      pop\n        /* \"@openzeppelin/contracts/access/Ownable.sol\":1201:1286  function owner() public view virtual returns (address) {... */\n      swap1\n      jump\t// out\n        /* \"contracts/storageChain.sol\":3894:4228  function withDrawFromTreasury(... */\n    tag_84:\n        /* \"@openzeppelin/contracts/access/Ownable.sol\":1094:1107  _checkOwner() */\n      tag_184\n        /* \"@openzeppelin/contracts/access/Ownable.sol\":1094:1105  _checkOwner */\n      tag_117\n        /* \"@openzeppelin/contracts/access/Ownable.sol\":1094:1107  _checkOwner() */\n      jump\t// in\n    tag_184:\n        /* \"contracts/storageChain.sol\":4050:4056  amount */\n      dup2\n        /* \"contracts/storageChain.sol\":4033:4046  adminTreasury */\n      sload(0x03)\n        /* \"contracts/storageChain.sol\":4033:4056  adminTreasury >= amount */\n      lt\n      iszero\n        /* \"contracts/storageChain.sol\":4025:4091  require(adminTreasury >= amount, \"Insufficient Funds to Withdraw\") */\n      tag_186\n      jumpi\n      mload(0x40)\n      0x08c379a000000000000000000000000000000000000000000000000000000000\n      dup2\n      mstore\n      0x04\n      add\n      tag_187\n      swap1\n      tag_188\n      jump\t// in\n    tag_187:\n      mload(0x40)\n      dup1\n      swap2\n      sub\n      swap1\n      revert\n    tag_186:\n        /* \"contracts/storageChain.sol\":4101:4117  _receiverAddress */\n      dup1\n        /* \"contracts/storageChain.sol\":4101:4126  _receiverAddress.transfer */\n      0xffffffffffffffffffffffffffffffffffffffff\n      and\n        /* \"contracts/storageChain.sol\":4101:4134  _receiverAddress.transfer(amount) */\n      0x08fc\n        /* \"contracts/storageChain.sol\":4127:4133  amount */\n      dup4\n        /* \"contracts/storageChain.sol\":4101:4134  _receiverAddress.transfer(amount) */\n      swap1\n      dup2\n      iszero\n      mul\n      swap1\n      mload(0x40)\n      0x00\n      mload(0x40)\n      dup1\n      dup4\n      sub\n      dup2\n      dup6\n      dup9\n      dup9\n      call\n      swap4\n      pop\n      pop\n      pop\n      pop\n      iszero\n      dup1\n      iszero\n      tag_190\n      jumpi\n      returndatasize\n      0x00\n      dup1\n      returndatacopy\n      revert(0x00, returndatasize)\n    tag_190:\n      pop\n        /* \"contracts/storageChain.sol\":4161:4167  amount */\n      dup2\n        /* \"contracts/storageChain.sol\":4144:4157  adminTreasury */\n      0x03\n      0x00\n        /* \"contracts/storageChain.sol\":4144:4167  adminTreasury -= amount */\n      dup3\n      dup3\n      sload\n      tag_191\n      swap2\n      swap1\n      tag_111\n      jump\t// in\n    tag_191:\n      swap3\n      pop\n      pop\n      dup2\n      swap1\n      sstore\n      pop\n        /* \"contracts/storageChain.sol\":4196:4212  _receiverAddress */\n      dup1\n        /* \"contracts/storageChain.sol\":4182:4221  TokenTransfer(_receiverAddress, amount) */\n      0xffffffffffffffffffffffffffffffffffffffff\n      and\n      0x1d72140a7ccdb496bef50918d2598dd7edefb514f70e6d4beb528cbd16c80b7d\n        /* \"contracts/storageChain.sol\":4214:4220  amount */\n      dup4\n        /* \"contracts/storageChain.sol\":4182:4221  TokenTransfer(_receiverAddress, amount) */\n      mload(0x40)\n      tag_192\n      swap2\n      swap1\n      tag_26\n      jump\t// in\n    tag_192:\n      mload(0x40)\n      dup1\n      swap2\n      sub\n      swap1\n      log2\n        /* \"contracts/storageChain.sol\":3894:4228  function withDrawFromTreasury(... */\n      pop\n      pop\n      jump\t// out\n        /* \"contracts/storageChain.sol\":237:265  uint256 public adminTreasury */\n    tag_87:\n      sload(0x03)\n      dup2\n      jump\t// out\n        /* \"contracts/storageChain.sol\":2856:3021  function FlipPauseStatus() external onlyOwner {... */\n    tag_91:\n        /* \"@openzeppelin/contracts/access/Ownable.sol\":1094:1107  _checkOwner() */\n      tag_194\n        /* \"@openzeppelin/contracts/access/Ownable.sol\":1094:1105  _checkOwner */\n      tag_117\n        /* \"@openzeppelin/contracts/access/Ownable.sol\":1094:1107  _checkOwner() */\n      jump\t// in\n    tag_194:\n        /* \"contracts/storageChain.sol\":2926:2930  true */\n      0x01\n        /* \"contracts/storageChain.sol\":2916:2930  paused == true */\n      iszero\n      iszero\n        /* \"contracts/storageChain.sol\":2916:2922  paused */\n      0x04\n      0x00\n      swap1\n      sload\n      swap1\n      0x0100\n      exp\n      swap1\n      div\n      0xff\n      and\n        /* \"contracts/storageChain.sol\":2916:2930  paused == true */\n      iszero\n      iszero\n      sub\n        /* \"contracts/storageChain.sol\":2912:3015  if (paused == true) {... */\n      tag_196\n      jumpi\n        /* \"contracts/storageChain.sol\":2955:2960  false */\n      0x00\n        /* \"contracts/storageChain.sol\":2946:2952  paused */\n      0x04\n      0x00\n        /* \"contracts/storageChain.sol\":2946:2960  paused = false */\n      0x0100\n      exp\n      dup2\n      sload\n      dup2\n      0xff\n      mul\n      not\n      and\n      swap1\n      dup4\n      iszero\n      iszero\n      mul\n      or\n      swap1\n      sstore\n      pop\n        /* \"contracts/storageChain.sol\":2912:3015  if (paused == true) {... */\n      jump(tag_197)\n    tag_196:\n        /* \"contracts/storageChain.sol\":3000:3004  true */\n      0x01\n        /* \"contracts/storageChain.sol\":2991:2997  paused */\n      0x04\n      0x00\n        /* \"contracts/storageChain.sol\":2991:3004  paused = true */\n      0x0100\n      exp\n      dup2\n      sload\n      dup2\n      0xff\n      mul\n      not\n      and\n      swap1\n      dup4\n      iszero\n      iszero\n      mul\n      or\n      swap1\n      sstore\n      pop\n        /* \"contracts/storageChain.sol\":2912:3015  if (paused == true) {... */\n    tag_197:\n        /* \"contracts/storageChain.sol\":2856:3021  function FlipPauseStatus() external onlyOwner {... */\n      jump\t// out\n        /* \"contracts/storageChain.sol\":1987:2267  function stakeTokens() external payable {... */\n    tag_93:\n        /* \"contracts/storageChain.sol\":2046:2052  paused */\n      0x04\n      0x00\n      swap1\n      sload\n      swap1\n      0x0100\n      exp\n      swap1\n      div\n      0xff\n      and\n        /* \"contracts/storageChain.sol\":2045:2052  !paused */\n      iszero\n        /* \"contracts/storageChain.sol\":2037:2074  require(!paused, \"Staking is paused\") */\n      tag_199\n      jumpi\n      mload(0x40)\n      0x08c379a000000000000000000000000000000000000000000000000000000000\n      dup2\n      mstore\n      0x04\n      add\n      tag_200\n      swap1\n      tag_170\n      jump\t// in\n    tag_200:\n      mload(0x40)\n      dup1\n      swap2\n      sub\n      swap1\n      revert\n    tag_199:\n        /* \"contracts/storageChain.sol\":2104:2105  0 */\n      0x00\n        /* \"contracts/storageChain.sol\":2092:2101  msg.value */\n      callvalue\n        /* \"contracts/storageChain.sol\":2092:2105  msg.value > 0 */\n      gt\n        /* \"contracts/storageChain.sol\":2084:2124  require(msg.value > 0, \"Cannot stake 0\") */\n      tag_201\n      jumpi\n      mload(0x40)\n      0x08c379a000000000000000000000000000000000000000000000000000000000\n      dup2\n      mstore\n      0x04\n      add\n      tag_202\n      swap1\n      tag_203\n      jump\t// in\n    tag_202:\n      mload(0x40)\n      dup1\n      swap2\n      sub\n      swap1\n      revert\n    tag_201:\n        /* \"contracts/storageChain.sol\":2163:2172  msg.value */\n      callvalue\n        /* \"contracts/storageChain.sol\":2134:2145  tokenAmount */\n      0x01\n        /* \"contracts/storageChain.sol\":2134:2159  tokenAmount[_msgSender()] */\n      0x00\n        /* \"contracts/storageChain.sol\":2146:2158  _msgSender() */\n      tag_204\n        /* \"contracts/storageChain.sol\":2146:2156  _msgSender */\n      tag_103\n        /* \"contracts/storageChain.sol\":2146:2158  _msgSender() */\n      jump\t// in\n    tag_204:\n        /* \"contracts/storageChain.sol\":2134:2159  tokenAmount[_msgSender()] */\n      0xffffffffffffffffffffffffffffffffffffffff\n      and\n      0xffffffffffffffffffffffffffffffffffffffff\n      and\n      dup2\n      mstore\n      0x20\n      add\n      swap1\n      dup2\n      mstore\n      0x20\n      add\n      0x00\n      keccak256\n      0x00\n        /* \"contracts/storageChain.sol\":2134:2172  tokenAmount[_msgSender()] += msg.value */\n      dup3\n      dup3\n      sload\n      tag_205\n      swap2\n      swap1\n      tag_123\n      jump\t// in\n    tag_205:\n      swap3\n      pop\n      pop\n      dup2\n      swap1\n      sstore\n      pop\n        /* \"contracts/storageChain.sol\":2203:2212  msg.value */\n      callvalue\n        /* \"contracts/storageChain.sol\":2182:2199  totalStakedTokens */\n      0x05\n      0x00\n        /* \"contracts/storageChain.sol\":2182:2212  totalStakedTokens += msg.value */\n      dup3\n      dup3\n      sload\n      tag_206\n      swap2\n      swap1\n      tag_123\n      jump\t// in\n    tag_206:\n      swap3\n      pop\n      pop\n      dup2\n      swap1\n      sstore\n      pop\n        /* \"contracts/storageChain.sol\":2256:2260  true */\n      0x01\n        /* \"contracts/storageChain.sol\":2222:2231  NodeStats */\n      0x02\n        /* \"contracts/storageChain.sol\":2222:2245  NodeStats[_msgSender()] */\n      0x00\n        /* \"contracts/storageChain.sol\":2232:2244  _msgSender() */\n      tag_207\n        /* \"contracts/storageChain.sol\":2232:2242  _msgSender */\n      tag_103\n        /* \"contracts/storageChain.sol\":2232:2244  _msgSender() */\n      jump\t// in\n    tag_207:\n        /* \"contracts/storageChain.sol\":2222:2245  NodeStats[_msgSender()] */\n      0xffffffffffffffffffffffffffffffffffffffff\n      and\n      0xffffffffffffffffffffffffffffffffffffffff\n      and\n      dup2\n      mstore\n      0x20\n      add\n      swap1\n      dup2\n      mstore\n      0x20\n      add\n      0x00\n      keccak256\n        /* \"contracts/storageChain.sol\":2222:2253  NodeStats[_msgSender()].oldUser */\n      0x04\n      add\n      0x00\n        /* \"contracts/storageChain.sol\":2222:2260  NodeStats[_msgSender()].oldUser = true */\n      0x0100\n      exp\n      dup2\n      sload\n      dup2\n      0xff\n      mul\n      not\n      and\n      swap1\n      dup4\n      iszero\n      iszero\n      mul\n      or\n      swap1\n      sstore\n      pop\n        /* \"contracts/storageChain.sol\":1987:2267  function stakeTokens() external payable {... */\n      jump\t// out\n        /* \"@openzeppelin/contracts/access/Ownable.sol\":2081:2279  function transferOwnership(address newOwner) public virtual onlyOwner {... */\n    tag_97:\n        /* \"@openzeppelin/contracts/access/Ownable.sol\":1094:1107  _checkOwner() */\n      tag_209\n        /* \"@openzeppelin/contracts/access/Ownable.sol\":1094:1105  _checkOwner */\n      tag_117\n        /* \"@openzeppelin/contracts/access/Ownable.sol\":1094:1107  _checkOwner() */\n      jump\t// in\n    tag_209:\n        /* \"@openzeppelin/contracts/access/Ownable.sol\":2189:2190  0 */\n      0x00\n        /* \"@openzeppelin/contracts/access/Ownable.sol\":2169:2191  newOwner != address(0) */\n      0xffffffffffffffffffffffffffffffffffffffff\n      and\n        /* \"@openzeppelin/contracts/access/Ownable.sol\":2169:2177  newOwner */\n      dup2\n        /* \"@openzeppelin/contracts/access/Ownable.sol\":2169:2191  newOwner != address(0) */\n      0xffffffffffffffffffffffffffffffffffffffff\n      and\n      sub\n        /* \"@openzeppelin/contracts/access/Ownable.sol\":2161:2234  require(newOwner != address(0), \"Ownable: new owner is the zero address\") */\n      tag_211\n      jumpi\n      mload(0x40)\n      0x08c379a000000000000000000000000000000000000000000000000000000000\n      dup2\n      mstore\n      0x04\n      add\n      tag_212\n      swap1\n      tag_213\n      jump\t// in\n    tag_212:\n      mload(0x40)\n      dup1\n      swap2\n      sub\n      swap1\n      revert\n    tag_211:\n        /* \"@openzeppelin/contracts/access/Ownable.sol\":2244:2272  _transferOwnership(newOwner) */\n      tag_214\n        /* \"@openzeppelin/contracts/access/Ownable.sol\":2263:2271  newOwner */\n      dup2\n        /* \"@openzeppelin/contracts/access/Ownable.sol\":2244:2262  _transferOwnership */\n      tag_163\n        /* \"@openzeppelin/contracts/access/Ownable.sol\":2244:2272  _transferOwnership(newOwner) */\n      jump\t// in\n    tag_214:\n        /* \"@openzeppelin/contracts/access/Ownable.sol\":2081:2279  function transferOwnership(address newOwner) public virtual onlyOwner {... */\n      pop\n      jump\t// out\n        /* \"@openzeppelin/contracts/utils/Context.sol\":640:736  function _msgSender() internal view virtual returns (address) {... */\n    tag_103:\n        /* \"@openzeppelin/contracts/utils/Context.sol\":693:700  address */\n      0x00\n        /* \"@openzeppelin/contracts/utils/Context.sol\":719:729  msg.sender */\n      caller\n        /* \"@openzeppelin/contracts/utils/Context.sol\":712:729  return msg.sender */\n      swap1\n      pop\n        /* \"@openzeppelin/contracts/utils/Context.sol\":640:736  function _msgSender() internal view virtual returns (address) {... */\n      swap1\n      jump\t// out\n        /* \"@openzeppelin/contracts/access/Ownable.sol\":1359:1489  function _checkOwner() internal view virtual {... */\n    tag_117:\n        /* \"@openzeppelin/contracts/access/Ownable.sol\":1433:1445  _msgSender() */\n      tag_217\n        /* \"@openzeppelin/contracts/access/Ownable.sol\":1433:1443  _msgSender */\n      tag_103\n        /* \"@openzeppelin/contracts/access/Ownable.sol\":1433:1445  _msgSender() */\n      jump\t// in\n    tag_217:\n        /* \"@openzeppelin/contracts/access/Ownable.sol\":1422:1445  owner() == _msgSender() */\n      0xffffffffffffffffffffffffffffffffffffffff\n      and\n        /* \"@openzeppelin/contracts/access/Ownable.sol\":1422:1429  owner() */\n      tag_218\n        /* \"@openzeppelin/contracts/access/Ownable.sol\":1422:1427  owner */\n      tag_78\n        /* \"@openzeppelin/contracts/access/Ownable.sol\":1422:1429  owner() */\n      jump\t// in\n    tag_218:\n        /* \"@openzeppelin/contracts/access/Ownable.sol\":1422:1445  owner() == _msgSender() */\n      0xffffffffffffffffffffffffffffffffffffffff\n      and\n      eq\n        /* \"@openzeppelin/contracts/access/Ownable.sol\":1414:1482  require(owner() == _msgSender(), \"Ownable: caller is not the owner\") */\n      tag_219\n      jumpi\n      mload(0x40)\n      0x08c379a000000000000000000000000000000000000000000000000000000000\n      dup2\n      mstore\n      0x04\n      add\n      tag_220\n      swap1\n      tag_221\n      jump\t// in\n    tag_220:\n      mload(0x40)\n      dup1\n      swap2\n      sub\n      swap1\n      revert\n    tag_219:\n        /* \"@openzeppelin/contracts/access/Ownable.sol\":1359:1489  function _checkOwner() internal view virtual {... */\n      jump\t// out\n        /* \"@openzeppelin/contracts/access/Ownable.sol\":2433:2620  function _transferOwnership(address newOwner) internal virtual {... */\n    tag_163:\n        /* \"@openzeppelin/contracts/access/Ownable.sol\":2506:2522  address oldOwner */\n      0x00\n        /* \"@openzeppelin/contracts/access/Ownable.sol\":2525:2531  _owner */\n      dup1\n      0x00\n      swap1\n      sload\n      swap1\n      0x0100\n      exp\n      swap1\n      div\n      0xffffffffffffffffffffffffffffffffffffffff\n      and\n        /* \"@openzeppelin/contracts/access/Ownable.sol\":2506:2531  address oldOwner = _owner */\n      swap1\n      pop\n        /* \"@openzeppelin/contracts/access/Ownable.sol\":2550:2558  newOwner */\n      dup2\n        /* \"@openzeppelin/contracts/access/Ownable.sol\":2541:2547  _owner */\n      0x00\n      dup1\n        /* \"@openzeppelin/contracts/access/Ownable.sol\":2541:2558  _owner = newOwner */\n      0x0100\n      exp\n      dup2\n      sload\n      dup2\n      0xffffffffffffffffffffffffffffffffffffffff\n      mul\n      not\n      and\n      swap1\n      dup4\n      0xffffffffffffffffffffffffffffffffffffffff\n      and\n      mul\n      or\n      swap1\n      sstore\n      pop\n        /* \"@openzeppelin/contracts/access/Ownable.sol\":2604:2612  newOwner */\n      dup2\n        /* \"@openzeppelin/contracts/access/Ownable.sol\":2573:2613  OwnershipTransferred(oldOwner, newOwner) */\n      0xffffffffffffffffffffffffffffffffffffffff\n      and\n        /* \"@openzeppelin/contracts/access/Ownable.sol\":2594:2602  oldOwner */\n      dup2\n        /* \"@openzeppelin/contracts/access/Ownable.sol\":2573:2613  OwnershipTransferred(oldOwner, newOwner) */\n      0xffffffffffffffffffffffffffffffffffffffff\n      and\n      0x8be0079c531659141344cd1fd0a4f28419497f9722a3daafe3b4186f6b6457e0\n      mload(0x40)\n      mload(0x40)\n      dup1\n      swap2\n      sub\n      swap1\n      log3\n        /* \"@openzeppelin/contracts/access/Ownable.sol\":2496:2620  {... */\n      pop\n        /* \"@openzeppelin/contracts/access/Ownable.sol\":2433:2620  function _transferOwnership(address newOwner) internal virtual {... */\n      pop\n      jump\t// out\n    tag_143:\n      pop\n      dup1\n      sload\n      0x00\n      dup3\n      sstore\n      swap1\n      0x00\n      mstore\n      keccak256(0x00, 0x20)\n      swap1\n      dup2\n      add\n      swap1\n      tag_224\n      swap2\n      swap1\n      tag_225\n      jump\t// in\n    tag_224:\n      pop\n      jump\t// out\n    tag_148:\n      mload(0x40)\n      dup1\n      0xa0\n      add\n      0x40\n      mstore\n      dup1\n      0x60\n      dup2\n      mstore\n      0x20\n      add\n      0x60\n      dup2\n      mstore\n      0x20\n      add\n      0x60\n      dup2\n      mstore\n      0x20\n      add\n      0x60\n      dup2\n      mstore\n      0x20\n      add\n      iszero(iszero(0x00))\n      dup2\n      mstore\n      pop\n      swap1\n      jump\t// out\n    tag_225:\n    tag_226:\n      dup1\n      dup3\n      gt\n      iszero\n      tag_227\n      jumpi\n      0x00\n      dup2\n      0x00\n      swap1\n      sstore\n      pop\n      0x01\n      add\n      jump(tag_226)\n    tag_227:\n      pop\n      swap1\n      jump\t// out\n        /* \"#utility.yul\":7:84   */\n    tag_228:\n        /* \"#utility.yul\":44:51   */\n      0x00\n        /* \"#utility.yul\":73:78   */\n      dup2\n        /* \"#utility.yul\":62:78   */\n      swap1\n      pop\n        /* \"#utility.yul\":7:84   */\n      swap2\n      swap1\n      pop\n      jump\t// out\n        /* \"#utility.yul\":90:208   */\n    tag_229:\n        /* \"#utility.yul\":177:201   */\n      tag_283\n        /* \"#utility.yul\":195:200   */\n      dup2\n        /* \"#utility.yul\":177:201   */\n      tag_228\n      jump\t// in\n    tag_283:\n        /* \"#utility.yul\":172:175   */\n      dup3\n        /* \"#utility.yul\":165:202   */\n      mstore\n        /* \"#utility.yul\":90:208   */\n      pop\n      pop\n      jump\t// out\n        /* \"#utility.yul\":214:436   */\n    tag_26:\n        /* \"#utility.yul\":307:311   */\n      0x00\n        /* \"#utility.yul\":345:347   */\n      0x20\n        /* \"#utility.yul\":334:343   */\n      dup3\n        /* \"#utility.yul\":330:348   */\n      add\n        /* \"#utility.yul\":322:348   */\n      swap1\n      pop\n        /* \"#utility.yul\":358:429   */\n      tag_285\n        /* \"#utility.yul\":426:427   */\n      0x00\n        /* \"#utility.yul\":415:424   */\n      dup4\n        /* \"#utility.yul\":411:428   */\n      add\n        /* \"#utility.yul\":402:408   */\n      dup5\n        /* \"#utility.yul\":358:429   */\n      tag_229\n      jump\t// in\n    tag_285:\n        /* \"#utility.yul\":214:436   */\n      swap3\n      swap2\n      pop\n      pop\n      jump\t// out\n        /* \"#utility.yul\":523:640   */\n    tag_231:\n        /* \"#utility.yul\":632:633   */\n      0x00\n        /* \"#utility.yul\":629:630   */\n      dup1\n        /* \"#utility.yul\":622:634   */\n      revert\n        /* \"#utility.yul\":769:891   */\n    tag_233:\n        /* \"#utility.yul\":842:866   */\n      tag_290\n        /* \"#utility.yul\":860:865   */\n      dup2\n        /* \"#utility.yul\":842:866   */\n      tag_228\n      jump\t// in\n    tag_290:\n        /* \"#utility.yul\":835:840   */\n      dup2\n        /* \"#utility.yul\":832:867   */\n      eq\n        /* \"#utility.yul\":822:885   */\n      tag_291\n      jumpi\n        /* \"#utility.yul\":881:882   */\n      0x00\n        /* \"#utility.yul\":878:879   */\n      dup1\n        /* \"#utility.yul\":871:883   */\n      revert\n        /* \"#utility.yul\":822:885   */\n    tag_291:\n        /* \"#utility.yul\":769:891   */\n      pop\n      jump\t// out\n        /* \"#utility.yul\":897:1036   */\n    tag_234:\n        /* \"#utility.yul\":943:948   */\n      0x00\n        /* \"#utility.yul\":981:987   */\n      dup2\n        /* \"#utility.yul\":968:988   */\n      calldataload\n        /* \"#utility.yul\":959:988   */\n      swap1\n      pop\n        /* \"#utility.yul\":997:1030   */\n      tag_293\n        /* \"#utility.yul\":1024:1029   */\n      dup2\n        /* \"#utility.yul\":997:1030   */\n      tag_233\n      jump\t// in\n    tag_293:\n        /* \"#utility.yul\":897:1036   */\n      swap3\n      swap2\n      pop\n      pop\n      jump\t// out\n        /* \"#utility.yul\":1042:1168   */\n    tag_235:\n        /* \"#utility.yul\":1079:1086   */\n      0x00\n        /* \"#utility.yul\":1119:1161   */\n      0xffffffffffffffffffffffffffffffffffffffff\n        /* \"#utility.yul\":1112:1117   */\n      dup3\n        /* \"#utility.yul\":1108:1162   */\n      and\n        /* \"#utility.yul\":1097:1162   */\n      swap1\n      pop\n        /* \"#utility.yul\":1042:1168   */\n      swap2\n      swap1\n      pop\n      jump\t// out\n        /* \"#utility.yul\":1174:1278   */\n    tag_236:\n        /* \"#utility.yul\":1219:1226   */\n      0x00\n        /* \"#utility.yul\":1248:1272   */\n      tag_296\n        /* \"#utility.yul\":1266:1271   */\n      dup3\n        /* \"#utility.yul\":1248:1272   */\n      tag_235\n      jump\t// in\n    tag_296:\n        /* \"#utility.yul\":1237:1272   */\n      swap1\n      pop\n        /* \"#utility.yul\":1174:1278   */\n      swap2\n      swap1\n      pop\n      jump\t// out\n        /* \"#utility.yul\":1284:1422   */\n    tag_237:\n        /* \"#utility.yul\":1365:1397   */\n      tag_298\n        /* \"#utility.yul\":1391:1396   */\n      dup2\n        /* \"#utility.yul\":1365:1397   */\n      tag_236\n      jump\t// in\n    tag_298:\n        /* \"#utility.yul\":1358:1363   */\n      dup2\n        /* \"#utility.yul\":1355:1398   */\n      eq\n        /* \"#utility.yul\":1345:1416   */\n      tag_299\n      jumpi\n        /* \"#utility.yul\":1412:1413   */\n      0x00\n        /* \"#utility.yul\":1409:1410   */\n      dup1\n        /* \"#utility.yul\":1402:1414   */\n      revert\n        /* \"#utility.yul\":1345:1416   */\n    tag_299:\n        /* \"#utility.yul\":1284:1422   */\n      pop\n      jump\t// out\n        /* \"#utility.yul\":1428:1583   */\n    tag_238:\n        /* \"#utility.yul\":1482:1487   */\n      0x00\n        /* \"#utility.yul\":1520:1526   */\n      dup2\n        /* \"#utility.yul\":1507:1527   */\n      calldataload\n        /* \"#utility.yul\":1498:1527   */\n      swap1\n      pop\n        /* \"#utility.yul\":1536:1577   */\n      tag_301\n        /* \"#utility.yul\":1571:1576   */\n      dup2\n        /* \"#utility.yul\":1536:1577   */\n      tag_237\n      jump\t// in\n    tag_301:\n        /* \"#utility.yul\":1428:1583   */\n      swap3\n      swap2\n      pop\n      pop\n      jump\t// out\n        /* \"#utility.yul\":1589:2079   */\n    tag_30:\n        /* \"#utility.yul\":1665:1671   */\n      0x00\n        /* \"#utility.yul\":1673:1679   */\n      dup1\n        /* \"#utility.yul\":1722:1724   */\n      0x40\n        /* \"#utility.yul\":1710:1719   */\n      dup4\n        /* \"#utility.yul\":1701:1708   */\n      dup6\n        /* \"#utility.yul\":1697:1720   */\n      sub\n        /* \"#utility.yul\":1693:1725   */\n      slt\n        /* \"#utility.yul\":1690:1809   */\n      iszero\n      tag_303\n      jumpi\n        /* \"#utility.yul\":1728:1807   */\n      tag_304\n      tag_231\n      jump\t// in\n    tag_304:\n        /* \"#utility.yul\":1690:1809   */\n    tag_303:\n        /* \"#utility.yul\":1848:1849   */\n      0x00\n        /* \"#utility.yul\":1873:1926   */\n      tag_305\n        /* \"#utility.yul\":1918:1925   */\n      dup6\n        /* \"#utility.yul\":1909:1915   */\n      dup3\n        /* \"#utility.yul\":1898:1907   */\n      dup7\n        /* \"#utility.yul\":1894:1916   */\n      add\n        /* \"#utility.yul\":1873:1926   */\n      tag_234\n      jump\t// in\n    tag_305:\n        /* \"#utility.yul\":1863:1926   */\n      swap3\n      pop\n        /* \"#utility.yul\":1819:1936   */\n      pop\n        /* \"#utility.yul\":1975:1977   */\n      0x20\n        /* \"#utility.yul\":2001:2062   */\n      tag_306\n        /* \"#utility.yul\":2054:2061   */\n      dup6\n        /* \"#utility.yul\":2045:2051   */\n      dup3\n        /* \"#utility.yul\":2034:2043   */\n      dup7\n        /* \"#utility.yul\":2030:2052   */\n      add\n        /* \"#utility.yul\":2001:2062   */\n      tag_238\n      jump\t// in\n    tag_306:\n        /* \"#utility.yul\":1991:2062   */\n      swap2\n      pop\n        /* \"#utility.yul\":1946:2072   */\n      pop\n        /* \"#utility.yul\":1589:2079   */\n      swap3\n      pop\n      swap3\n      swap1\n      pop\n      jump\t// out\n        /* \"#utility.yul\":2085:2181   */\n    tag_239:\n        /* \"#utility.yul\":2122:2129   */\n      0x00\n        /* \"#utility.yul\":2151:2175   */\n      tag_308\n        /* \"#utility.yul\":2169:2174   */\n      dup3\n        /* \"#utility.yul\":2151:2175   */\n      tag_235\n      jump\t// in\n    tag_308:\n        /* \"#utility.yul\":2140:2175   */\n      swap1\n      pop\n        /* \"#utility.yul\":2085:2181   */\n      swap2\n      swap1\n      pop\n      jump\t// out\n        /* \"#utility.yul\":2187:2309   */\n    tag_240:\n        /* \"#utility.yul\":2260:2284   */\n      tag_310\n        /* \"#utility.yul\":2278:2283   */\n      dup2\n        /* \"#utility.yul\":2260:2284   */\n      tag_239\n      jump\t// in\n    tag_310:\n        /* \"#utility.yul\":2253:2258   */\n      dup2\n        /* \"#utility.yul\":2250:2285   */\n      eq\n        /* \"#utility.yul\":2240:2303   */\n      tag_311\n      jumpi\n        /* \"#utility.yul\":2299:2300   */\n      0x00\n        /* \"#utility.yul\":2296:2297   */\n      dup1\n        /* \"#utility.yul\":2289:2301   */\n      revert\n        /* \"#utility.yul\":2240:2303   */\n    tag_311:\n        /* \"#utility.yul\":2187:2309   */\n      pop\n      jump\t// out\n        /* \"#utility.yul\":2315:2454   */\n    tag_241:\n        /* \"#utility.yul\":2361:2366   */\n      0x00\n        /* \"#utility.yul\":2399:2405   */\n      dup2\n        /* \"#utility.yul\":2386:2406   */\n      calldataload\n        /* \"#utility.yul\":2377:2406   */\n      swap1\n      pop\n        /* \"#utility.yul\":2415:2448   */\n      tag_313\n        /* \"#utility.yul\":2442:2447   */\n      dup2\n        /* \"#utility.yul\":2415:2448   */\n      tag_240\n      jump\t// in\n    tag_313:\n        /* \"#utility.yul\":2315:2454   */\n      swap3\n      swap2\n      pop\n      pop\n      jump\t// out\n        /* \"#utility.yul\":2460:3371   */\n    tag_37:\n        /* \"#utility.yul\":2555:2561   */\n      0x00\n        /* \"#utility.yul\":2563:2569   */\n      dup1\n        /* \"#utility.yul\":2571:2577   */\n      0x00\n        /* \"#utility.yul\":2579:2585   */\n      dup1\n        /* \"#utility.yul\":2587:2593   */\n      0x00\n        /* \"#utility.yul\":2636:2639   */\n      0xa0\n        /* \"#utility.yul\":2624:2633   */\n      dup7\n        /* \"#utility.yul\":2615:2622   */\n      dup9\n        /* \"#utility.yul\":2611:2634   */\n      sub\n        /* \"#utility.yul\":2607:2640   */\n      slt\n        /* \"#utility.yul\":2604:2724   */\n      iszero\n      tag_315\n      jumpi\n        /* \"#utility.yul\":2643:2722   */\n      tag_316\n      tag_231\n      jump\t// in\n    tag_316:\n        /* \"#utility.yul\":2604:2724   */\n    tag_315:\n        /* \"#utility.yul\":2763:2764   */\n      0x00\n        /* \"#utility.yul\":2788:2841   */\n      tag_317\n        /* \"#utility.yul\":2833:2840   */\n      dup9\n        /* \"#utility.yul\":2824:2830   */\n      dup3\n        /* \"#utility.yul\":2813:2822   */\n      dup10\n        /* \"#utility.yul\":2809:2831   */\n      add\n        /* \"#utility.yul\":2788:2841   */\n      tag_241\n      jump\t// in\n    tag_317:\n        /* \"#utility.yul\":2778:2841   */\n      swap6\n      pop\n        /* \"#utility.yul\":2734:2851   */\n      pop\n        /* \"#utility.yul\":2890:2892   */\n      0x20\n        /* \"#utility.yul\":2916:2969   */\n      tag_318\n        /* \"#utility.yul\":2961:2968   */\n      dup9\n        /* \"#utility.yul\":2952:2958   */\n      dup3\n        /* \"#utility.yul\":2941:2950   */\n      dup10\n        /* \"#utility.yul\":2937:2959   */\n      add\n        /* \"#utility.yul\":2916:2969   */\n      tag_234\n      jump\t// in\n    tag_318:\n        /* \"#utility.yul\":2906:2969   */\n      swap5\n      pop\n        /* \"#utility.yul\":2861:2979   */\n      pop\n        /* \"#utility.yul\":3018:3020   */\n      0x40\n        /* \"#utility.yul\":3044:3097   */\n      tag_319\n        /* \"#utility.yul\":3089:3096   */\n      dup9\n        /* \"#utility.yul\":3080:3086   */\n      dup3\n        /* \"#utility.yul\":3069:3078   */\n      dup10\n        /* \"#utility.yul\":3065:3087   */\n      add\n        /* \"#utility.yul\":3044:3097   */\n      tag_234\n      jump\t// in\n    tag_319:\n        /* \"#utility.yul\":3034:3097   */\n      swap4\n      pop\n        /* \"#utility.yul\":2989:3107   */\n      pop\n        /* \"#utility.yul\":3146:3148   */\n      0x60\n        /* \"#utility.yul\":3172:3225   */\n      tag_320\n        /* \"#utility.yul\":3217:3224   */\n      dup9\n        /* \"#utility.yul\":3208:3214   */\n      dup3\n        /* \"#utility.yul\":3197:3206   */\n      dup10\n        /* \"#utility.yul\":3193:3215   */\n      add\n        /* \"#utility.yul\":3172:3225   */\n      tag_234\n      jump\t// in\n    tag_320:\n        /* \"#utility.yul\":3162:3225   */\n      swap3\n      pop\n        /* \"#utility.yul\":3117:3235   */\n      pop\n        /* \"#utility.yul\":3274:3277   */\n      0x80\n        /* \"#utility.yul\":3301:3354   */\n      tag_321\n        /* \"#utility.yul\":3346:3353   */\n      dup9\n        /* \"#utility.yul\":3337:3343   */\n      dup3\n        /* \"#utility.yul\":3326:3335   */\n      dup10\n        /* \"#utility.yul\":3322:3344   */\n      add\n        /* \"#utility.yul\":3301:3354   */\n      tag_234\n      jump\t// in\n    tag_321:\n        /* \"#utility.yul\":3291:3354   */\n      swap2\n      pop\n        /* \"#utility.yul\":3245:3364   */\n      pop\n        /* \"#utility.yul\":2460:3371   */\n      swap3\n      swap6\n      pop\n      swap3\n      swap6\n      swap1\n      swap4\n      pop\n      jump\t// out\n        /* \"#utility.yul\":3377:3706   */\n    tag_42:\n        /* \"#utility.yul\":3436:3442   */\n      0x00\n        /* \"#utility.yul\":3485:3487   */\n      0x20\n        /* \"#utility.yul\":3473:3482   */\n      dup3\n        /* \"#utility.yul\":3464:3471   */\n      dup5\n        /* \"#utility.yul\":3460:3483   */\n      sub\n        /* \"#utility.yul\":3456:3488   */\n      slt\n        /* \"#utility.yul\":3453:3572   */\n      iszero\n      tag_323\n      jumpi\n        /* \"#utility.yul\":3491:3570   */\n      tag_324\n      tag_231\n      jump\t// in\n    tag_324:\n        /* \"#utility.yul\":3453:3572   */\n    tag_323:\n        /* \"#utility.yul\":3611:3612   */\n      0x00\n        /* \"#utility.yul\":3636:3689   */\n      tag_325\n        /* \"#utility.yul\":3681:3688   */\n      dup5\n        /* \"#utility.yul\":3672:3678   */\n      dup3\n        /* \"#utility.yul\":3661:3670   */\n      dup6\n        /* \"#utility.yul\":3657:3679   */\n      add\n        /* \"#utility.yul\":3636:3689   */\n      tag_241\n      jump\t// in\n    tag_325:\n        /* \"#utility.yul\":3626:3689   */\n      swap2\n      pop\n        /* \"#utility.yul\":3582:3699   */\n      pop\n        /* \"#utility.yul\":3377:3706   */\n      swap3\n      swap2\n      pop\n      pop\n      jump\t// out\n        /* \"#utility.yul\":3712:3826   */\n    tag_242:\n        /* \"#utility.yul\":3779:3785   */\n      0x00\n        /* \"#utility.yul\":3813:3818   */\n      dup2\n        /* \"#utility.yul\":3807:3819   */\n      mload\n        /* \"#utility.yul\":3797:3819   */\n      swap1\n      pop\n        /* \"#utility.yul\":3712:3826   */\n      swap2\n      swap1\n      pop\n      jump\t// out\n        /* \"#utility.yul\":3832:4006   */\n    tag_243:\n        /* \"#utility.yul\":3921:3932   */\n      0x00\n        /* \"#utility.yul\":3955:3961   */\n      dup3\n        /* \"#utility.yul\":3950:3953   */\n      dup3\n        /* \"#utility.yul\":3943:3962   */\n      mstore\n        /* \"#utility.yul\":3995:3999   */\n      0x20\n        /* \"#utility.yul\":3990:3993   */\n      dup3\n        /* \"#utility.yul\":3986:4000   */\n      add\n        /* \"#utility.yul\":3971:4000   */\n      swap1\n      pop\n        /* \"#utility.yul\":3832:4006   */\n      swap3\n      swap2\n      pop\n      pop\n      jump\t// out\n        /* \"#utility.yul\":4012:4144   */\n    tag_244:\n        /* \"#utility.yul\":4079:4083   */\n      0x00\n        /* \"#utility.yul\":4102:4105   */\n      dup2\n        /* \"#utility.yul\":4094:4105   */\n      swap1\n      pop\n        /* \"#utility.yul\":4132:4136   */\n      0x20\n        /* \"#utility.yul\":4127:4130   */\n      dup3\n        /* \"#utility.yul\":4123:4137   */\n      add\n        /* \"#utility.yul\":4115:4137   */\n      swap1\n      pop\n        /* \"#utility.yul\":4012:4144   */\n      swap2\n      swap1\n      pop\n      jump\t// out\n        /* \"#utility.yul\":4150:4258   */\n    tag_245:\n        /* \"#utility.yul\":4227:4251   */\n      tag_330\n        /* \"#utility.yul\":4245:4250   */\n      dup2\n        /* \"#utility.yul\":4227:4251   */\n      tag_228\n      jump\t// in\n    tag_330:\n        /* \"#utility.yul\":4222:4225   */\n      dup3\n        /* \"#utility.yul\":4215:4252   */\n      mstore\n        /* \"#utility.yul\":4150:4258   */\n      pop\n      pop\n      jump\t// out\n        /* \"#utility.yul\":4264:4443   */\n    tag_246:\n        /* \"#utility.yul\":4333:4343   */\n      0x00\n        /* \"#utility.yul\":4354:4400   */\n      tag_332\n        /* \"#utility.yul\":4396:4399   */\n      dup4\n        /* \"#utility.yul\":4388:4394   */\n      dup4\n        /* \"#utility.yul\":4354:4400   */\n      tag_245\n      jump\t// in\n    tag_332:\n        /* \"#utility.yul\":4432:4436   */\n      0x20\n        /* \"#utility.yul\":4427:4430   */\n      dup4\n        /* \"#utility.yul\":4423:4437   */\n      add\n        /* \"#utility.yul\":4409:4437   */\n      swap1\n      pop\n        /* \"#utility.yul\":4264:4443   */\n      swap3\n      swap2\n      pop\n      pop\n      jump\t// out\n        /* \"#utility.yul\":4449:4562   */\n    tag_247:\n        /* \"#utility.yul\":4519:4523   */\n      0x00\n        /* \"#utility.yul\":4551:4555   */\n      0x20\n        /* \"#utility.yul\":4546:4549   */\n      dup3\n        /* \"#utility.yul\":4542:4556   */\n      add\n        /* \"#utility.yul\":4534:4556   */\n      swap1\n      pop\n        /* \"#utility.yul\":4449:4562   */\n      swap2\n      swap1\n      pop\n      jump\t// out\n        /* \"#utility.yul\":4598:5310   */\n    tag_248:\n        /* \"#utility.yul\":4707:4710   */\n      0x00\n        /* \"#utility.yul\":4736:4790   */\n      tag_335\n        /* \"#utility.yul\":4784:4789   */\n      dup3\n        /* \"#utility.yul\":4736:4790   */\n      tag_242\n      jump\t// in\n    tag_335:\n        /* \"#utility.yul\":4806:4882   */\n      tag_336\n        /* \"#utility.yul\":4875:4881   */\n      dup2\n        /* \"#utility.yul\":4870:4873   */\n      dup6\n        /* \"#utility.yul\":4806:4882   */\n      tag_243\n      jump\t// in\n    tag_336:\n        /* \"#utility.yul\":4799:4882   */\n      swap4\n      pop\n        /* \"#utility.yul\":4906:4962   */\n      tag_337\n        /* \"#utility.yul\":4956:4961   */\n      dup4\n        /* \"#utility.yul\":4906:4962   */\n      tag_244\n      jump\t// in\n    tag_337:\n        /* \"#utility.yul\":4985:4992   */\n      dup1\n        /* \"#utility.yul\":5016:5017   */\n      0x00\n        /* \"#utility.yul\":5001:5285   */\n    tag_338:\n        /* \"#utility.yul\":5026:5032   */\n      dup4\n        /* \"#utility.yul\":5023:5024   */\n      dup2\n        /* \"#utility.yul\":5020:5033   */\n      lt\n        /* \"#utility.yul\":5001:5285   */\n      iszero\n      tag_340\n      jumpi\n        /* \"#utility.yul\":5102:5108   */\n      dup2\n        /* \"#utility.yul\":5096:5109   */\n      mload\n        /* \"#utility.yul\":5129:5192   */\n      tag_341\n        /* \"#utility.yul\":5188:5191   */\n      dup9\n        /* \"#utility.yul\":5173:5186   */\n      dup3\n        /* \"#utility.yul\":5129:5192   */\n      tag_246\n      jump\t// in\n    tag_341:\n        /* \"#utility.yul\":5122:5192   */\n      swap8\n      pop\n        /* \"#utility.yul\":5215:5275   */\n      tag_342\n        /* \"#utility.yul\":5268:5274   */\n      dup4\n        /* \"#utility.yul\":5215:5275   */\n      tag_247\n      jump\t// in\n    tag_342:\n        /* \"#utility.yul\":5205:5275   */\n      swap3\n      pop\n        /* \"#utility.yul\":5061:5285   */\n      pop\n        /* \"#utility.yul\":5048:5049   */\n      0x01\n        /* \"#utility.yul\":5045:5046   */\n      dup2\n        /* \"#utility.yul\":5041:5050   */\n      add\n        /* \"#utility.yul\":5036:5050   */\n      swap1\n      pop\n        /* \"#utility.yul\":5001:5285   */\n      jump(tag_338)\n    tag_340:\n        /* \"#utility.yul\":5005:5019   */\n      pop\n        /* \"#utility.yul\":5301:5304   */\n      dup6\n        /* \"#utility.yul\":5294:5304   */\n      swap4\n      pop\n        /* \"#utility.yul\":4712:5310   */\n      pop\n      pop\n      pop\n        /* \"#utility.yul\":4598:5310   */\n      swap3\n      swap2\n      pop\n      pop\n      jump\t// out\n        /* \"#utility.yul\":5316:5406   */\n    tag_249:\n        /* \"#utility.yul\":5350:5357   */\n      0x00\n        /* \"#utility.yul\":5393:5398   */\n      dup2\n        /* \"#utility.yul\":5386:5399   */\n      iszero\n        /* \"#utility.yul\":5379:5400   */\n      iszero\n        /* \"#utility.yul\":5368:5400   */\n      swap1\n      pop\n        /* \"#utility.yul\":5316:5406   */\n      swap2\n      swap1\n      pop\n      jump\t// out\n        /* \"#utility.yul\":5412:5511   */\n    tag_250:\n        /* \"#utility.yul\":5483:5504   */\n      tag_345\n        /* \"#utility.yul\":5498:5503   */\n      dup2\n        /* \"#utility.yul\":5483:5504   */\n      tag_249\n      jump\t// in\n    tag_345:\n        /* \"#utility.yul\":5478:5481   */\n      dup3\n        /* \"#utility.yul\":5471:5505   */\n      mstore\n        /* \"#utility.yul\":5412:5511   */\n      pop\n      pop\n      jump\t// out\n        /* \"#utility.yul\":5585:7060   */\n    tag_251:\n        /* \"#utility.yul\":5698:5701   */\n      0x00\n        /* \"#utility.yul\":5734:5738   */\n      0xa0\n        /* \"#utility.yul\":5729:5732   */\n      dup4\n        /* \"#utility.yul\":5725:5739   */\n      add\n        /* \"#utility.yul\":5832:5836   */\n      0x00\n        /* \"#utility.yul\":5825:5830   */\n      dup4\n        /* \"#utility.yul\":5821:5837   */\n      add\n        /* \"#utility.yul\":5815:5838   */\n      mload\n        /* \"#utility.yul\":5885:5888   */\n      dup5\n        /* \"#utility.yul\":5879:5883   */\n      dup3\n        /* \"#utility.yul\":5875:5889   */\n      sub\n        /* \"#utility.yul\":5868:5872   */\n      0x00\n        /* \"#utility.yul\":5863:5866   */\n      dup7\n        /* \"#utility.yul\":5859:5873   */\n      add\n        /* \"#utility.yul\":5852:5890   */\n      mstore\n        /* \"#utility.yul\":5911:6014   */\n      tag_347\n        /* \"#utility.yul\":6009:6013   */\n      dup3\n        /* \"#utility.yul\":5995:6007   */\n      dup3\n        /* \"#utility.yul\":5911:6014   */\n      tag_248\n      jump\t// in\n    tag_347:\n        /* \"#utility.yul\":5903:6014   */\n      swap2\n      pop\n        /* \"#utility.yul\":5749:6025   */\n      pop\n        /* \"#utility.yul\":6109:6113   */\n      0x20\n        /* \"#utility.yul\":6102:6107   */\n      dup4\n        /* \"#utility.yul\":6098:6114   */\n      add\n        /* \"#utility.yul\":6092:6115   */\n      mload\n        /* \"#utility.yul\":6162:6165   */\n      dup5\n        /* \"#utility.yul\":6156:6160   */\n      dup3\n        /* \"#utility.yul\":6152:6166   */\n      sub\n        /* \"#utility.yul\":6145:6149   */\n      0x20\n        /* \"#utility.yul\":6140:6143   */\n      dup7\n        /* \"#utility.yul\":6136:6150   */\n      add\n        /* \"#utility.yul\":6129:6167   */\n      mstore\n        /* \"#utility.yul\":6188:6291   */\n      tag_348\n        /* \"#utility.yul\":6286:6290   */\n      dup3\n        /* \"#utility.yul\":6272:6284   */\n      dup3\n        /* \"#utility.yul\":6188:6291   */\n      tag_248\n      jump\t// in\n    tag_348:\n        /* \"#utility.yul\":6180:6291   */\n      swap2\n      pop\n        /* \"#utility.yul\":6035:6302   */\n      pop\n        /* \"#utility.yul\":6389:6393   */\n      0x40\n        /* \"#utility.yul\":6382:6387   */\n      dup4\n        /* \"#utility.yul\":6378:6394   */\n      add\n        /* \"#utility.yul\":6372:6395   */\n      mload\n        /* \"#utility.yul\":6442:6445   */\n      dup5\n        /* \"#utility.yul\":6436:6440   */\n      dup3\n        /* \"#utility.yul\":6432:6446   */\n      sub\n        /* \"#utility.yul\":6425:6429   */\n      0x40\n        /* \"#utility.yul\":6420:6423   */\n      dup7\n        /* \"#utility.yul\":6416:6430   */\n      add\n        /* \"#utility.yul\":6409:6447   */\n      mstore\n        /* \"#utility.yul\":6468:6571   */\n      tag_349\n        /* \"#utility.yul\":6566:6570   */\n      dup3\n        /* \"#utility.yul\":6552:6564   */\n      dup3\n        /* \"#utility.yul\":6468:6571   */\n      tag_248\n      jump\t// in\n    tag_349:\n        /* \"#utility.yul\":6460:6571   */\n      swap2\n      pop\n        /* \"#utility.yul\":6312:6582   */\n      pop\n        /* \"#utility.yul\":6669:6673   */\n      0x60\n        /* \"#utility.yul\":6662:6667   */\n      dup4\n        /* \"#utility.yul\":6658:6674   */\n      add\n        /* \"#utility.yul\":6652:6675   */\n      mload\n        /* \"#utility.yul\":6722:6725   */\n      dup5\n        /* \"#utility.yul\":6716:6720   */\n      dup3\n        /* \"#utility.yul\":6712:6726   */\n      sub\n        /* \"#utility.yul\":6705:6709   */\n      0x60\n        /* \"#utility.yul\":6700:6703   */\n      dup7\n        /* \"#utility.yul\":6696:6710   */\n      add\n        /* \"#utility.yul\":6689:6727   */\n      mstore\n        /* \"#utility.yul\":6748:6851   */\n      tag_350\n        /* \"#utility.yul\":6846:6850   */\n      dup3\n        /* \"#utility.yul\":6832:6844   */\n      dup3\n        /* \"#utility.yul\":6748:6851   */\n      tag_248\n      jump\t// in\n    tag_350:\n        /* \"#utility.yul\":6740:6851   */\n      swap2\n      pop\n        /* \"#utility.yul\":6592:6862   */\n      pop\n        /* \"#utility.yul\":6947:6951   */\n      0x80\n        /* \"#utility.yul\":6940:6945   */\n      dup4\n        /* \"#utility.yul\":6936:6952   */\n      add\n        /* \"#utility.yul\":6930:6953   */\n      mload\n        /* \"#utility.yul\":6966:7023   */\n      tag_351\n        /* \"#utility.yul\":7017:7021   */\n      0x80\n        /* \"#utility.yul\":7012:7015   */\n      dup7\n        /* \"#utility.yul\":7008:7022   */\n      add\n        /* \"#utility.yul\":6994:7006   */\n      dup3\n        /* \"#utility.yul\":6966:7023   */\n      tag_250\n      jump\t// in\n    tag_351:\n        /* \"#utility.yul\":6872:7033   */\n      pop\n        /* \"#utility.yul\":7050:7054   */\n      dup1\n        /* \"#utility.yul\":7043:7054   */\n      swap2\n      pop\n        /* \"#utility.yul\":5703:7060   */\n      pop\n        /* \"#utility.yul\":5585:7060   */\n      swap3\n      swap2\n      pop\n      pop\n      jump\t// out\n        /* \"#utility.yul\":7066:7427   */\n    tag_53:\n        /* \"#utility.yul\":7203:7207   */\n      0x00\n        /* \"#utility.yul\":7241:7243   */\n      0x20\n        /* \"#utility.yul\":7230:7239   */\n      dup3\n        /* \"#utility.yul\":7226:7244   */\n      add\n        /* \"#utility.yul\":7218:7244   */\n      swap1\n      pop\n        /* \"#utility.yul\":7290:7299   */\n      dup2\n        /* \"#utility.yul\":7284:7288   */\n      dup2\n        /* \"#utility.yul\":7280:7300   */\n      sub\n        /* \"#utility.yul\":7276:7277   */\n      0x00\n        /* \"#utility.yul\":7265:7274   */\n      dup4\n        /* \"#utility.yul\":7261:7278   */\n      add\n        /* \"#utility.yul\":7254:7301   */\n      mstore\n        /* \"#utility.yul\":7318:7420   */\n      tag_353\n        /* \"#utility.yul\":7415:7419   */\n      dup2\n        /* \"#utility.yul\":7406:7412   */\n      dup5\n        /* \"#utility.yul\":7318:7420   */\n      tag_251\n      jump\t// in\n    tag_353:\n        /* \"#utility.yul\":7310:7420   */\n      swap1\n      pop\n        /* \"#utility.yul\":7066:7427   */\n      swap3\n      swap2\n      pop\n      pop\n      jump\t// out\n        /* \"#utility.yul\":7433:7542   */\n    tag_252:\n        /* \"#utility.yul\":7514:7535   */\n      tag_355\n        /* \"#utility.yul\":7529:7534   */\n      dup2\n        /* \"#utility.yul\":7514:7535   */\n      tag_249\n      jump\t// in\n    tag_355:\n        /* \"#utility.yul\":7509:7512   */\n      dup3\n        /* \"#utility.yul\":7502:7536   */\n      mstore\n        /* \"#utility.yul\":7433:7542   */\n      pop\n      pop\n      jump\t// out\n        /* \"#utility.yul\":7548:7758   */\n    tag_58:\n        /* \"#utility.yul\":7635:7639   */\n      0x00\n        /* \"#utility.yul\":7673:7675   */\n      0x20\n        /* \"#utility.yul\":7662:7671   */\n      dup3\n        /* \"#utility.yul\":7658:7676   */\n      add\n        /* \"#utility.yul\":7650:7676   */\n      swap1\n      pop\n        /* \"#utility.yul\":7686:7751   */\n      tag_357\n        /* \"#utility.yul\":7748:7749   */\n      0x00\n        /* \"#utility.yul\":7737:7746   */\n      dup4\n        /* \"#utility.yul\":7733:7750   */\n      add\n        /* \"#utility.yul\":7724:7730   */\n      dup5\n        /* \"#utility.yul\":7686:7751   */\n      tag_252\n      jump\t// in\n    tag_357:\n        /* \"#utility.yul\":7548:7758   */\n      swap3\n      swap2\n      pop\n      pop\n      jump\t// out\n        /* \"#utility.yul\":7764:8254   */\n    tag_74:\n        /* \"#utility.yul\":7840:7846   */\n      0x00\n        /* \"#utility.yul\":7848:7854   */\n      dup1\n        /* \"#utility.yul\":7897:7899   */\n      0x40\n        /* \"#utility.yul\":7885:7894   */\n      dup4\n        /* \"#utility.yul\":7876:7883   */\n      dup6\n        /* \"#utility.yul\":7872:7895   */\n      sub\n        /* \"#utility.yul\":7868:7900   */\n      slt\n        /* \"#utility.yul\":7865:7984   */\n      iszero\n      tag_359\n      jumpi\n        /* \"#utility.yul\":7903:7982   */\n      tag_360\n      tag_231\n      jump\t// in\n    tag_360:\n        /* \"#utility.yul\":7865:7984   */\n    tag_359:\n        /* \"#utility.yul\":8023:8024   */\n      0x00\n        /* \"#utility.yul\":8048:8109   */\n      tag_361\n        /* \"#utility.yul\":8101:8108   */\n      dup6\n        /* \"#utility.yul\":8092:8098   */\n      dup3\n        /* \"#utility.yul\":8081:8090   */\n      dup7\n        /* \"#utility.yul\":8077:8099   */\n      add\n        /* \"#utility.yul\":8048:8109   */\n      tag_238\n      jump\t// in\n    tag_361:\n        /* \"#utility.yul\":8038:8109   */\n      swap3\n      pop\n        /* \"#utility.yul\":7994:8119   */\n      pop\n        /* \"#utility.yul\":8158:8160   */\n      0x20\n        /* \"#utility.yul\":8184:8237   */\n      tag_362\n        /* \"#utility.yul\":8229:8236   */\n      dup6\n        /* \"#utility.yul\":8220:8226   */\n      dup3\n        /* \"#utility.yul\":8209:8218   */\n      dup7\n        /* \"#utility.yul\":8205:8227   */\n      add\n        /* \"#utility.yul\":8184:8237   */\n      tag_234\n      jump\t// in\n    tag_362:\n        /* \"#utility.yul\":8174:8237   */\n      swap2\n      pop\n        /* \"#utility.yul\":8129:8247   */\n      pop\n        /* \"#utility.yul\":7764:8254   */\n      swap3\n      pop\n      swap3\n      swap1\n      pop\n      jump\t// out\n        /* \"#utility.yul\":8260:8378   */\n    tag_253:\n        /* \"#utility.yul\":8347:8371   */\n      tag_364\n        /* \"#utility.yul\":8365:8370   */\n      dup2\n        /* \"#utility.yul\":8347:8371   */\n      tag_239\n      jump\t// in\n    tag_364:\n        /* \"#utility.yul\":8342:8345   */\n      dup3\n        /* \"#utility.yul\":8335:8372   */\n      mstore\n        /* \"#utility.yul\":8260:8378   */\n      pop\n      pop\n      jump\t// out\n        /* \"#utility.yul\":8384:8606   */\n    tag_80:\n        /* \"#utility.yul\":8477:8481   */\n      0x00\n        /* \"#utility.yul\":8515:8517   */\n      0x20\n        /* \"#utility.yul\":8504:8513   */\n      dup3\n        /* \"#utility.yul\":8500:8518   */\n      add\n        /* \"#utility.yul\":8492:8518   */\n      swap1\n      pop\n        /* \"#utility.yul\":8528:8599   */\n      tag_366\n        /* \"#utility.yul\":8596:8597   */\n      0x00\n        /* \"#utility.yul\":8585:8594   */\n      dup4\n        /* \"#utility.yul\":8581:8598   */\n      add\n        /* \"#utility.yul\":8572:8578   */\n      dup5\n        /* \"#utility.yul\":8528:8599   */\n      tag_253\n      jump\t// in\n    tag_366:\n        /* \"#utility.yul\":8384:8606   */\n      swap3\n      swap2\n      pop\n      pop\n      jump\t// out\n        /* \"#utility.yul\":8612:8781   */\n    tag_254:\n        /* \"#utility.yul\":8696:8707   */\n      0x00\n        /* \"#utility.yul\":8730:8736   */\n      dup3\n        /* \"#utility.yul\":8725:8728   */\n      dup3\n        /* \"#utility.yul\":8718:8737   */\n      mstore\n        /* \"#utility.yul\":8770:8774   */\n      0x20\n        /* \"#utility.yul\":8765:8768   */\n      dup3\n        /* \"#utility.yul\":8761:8775   */\n      add\n        /* \"#utility.yul\":8746:8775   */\n      swap1\n      pop\n        /* \"#utility.yul\":8612:8781   */\n      swap3\n      swap2\n      pop\n      pop\n      jump\t// out\n        /* \"#utility.yul\":8787:8955   */\n    tag_255:\n        /* \"#utility.yul\":8927:8947   */\n      0x436f6e7472616374206973205061757365640000000000000000000000000000\n        /* \"#utility.yul\":8923:8924   */\n      0x00\n        /* \"#utility.yul\":8915:8921   */\n      dup3\n        /* \"#utility.yul\":8911:8925   */\n      add\n        /* \"#utility.yul\":8904:8948   */\n      mstore\n        /* \"#utility.yul\":8787:8955   */\n      pop\n      jump\t// out\n        /* \"#utility.yul\":8961:9327   */\n    tag_256:\n        /* \"#utility.yul\":9103:9106   */\n      0x00\n        /* \"#utility.yul\":9124:9191   */\n      tag_370\n        /* \"#utility.yul\":9188:9190   */\n      0x12\n        /* \"#utility.yul\":9183:9186   */\n      dup4\n        /* \"#utility.yul\":9124:9191   */\n      tag_254\n      jump\t// in\n    tag_370:\n        /* \"#utility.yul\":9117:9191   */\n      swap2\n      pop\n        /* \"#utility.yul\":9200:9293   */\n      tag_371\n        /* \"#utility.yul\":9289:9292   */\n      dup3\n        /* \"#utility.yul\":9200:9293   */\n      tag_255\n      jump\t// in\n    tag_371:\n        /* \"#utility.yul\":9318:9320   */\n      0x20\n        /* \"#utility.yul\":9313:9316   */\n      dup3\n        /* \"#utility.yul\":9309:9321   */\n      add\n        /* \"#utility.yul\":9302:9321   */\n      swap1\n      pop\n        /* \"#utility.yul\":8961:9327   */\n      swap2\n      swap1\n      pop\n      jump\t// out\n        /* \"#utility.yul\":9333:9752   */\n    tag_101:\n        /* \"#utility.yul\":9499:9503   */\n      0x00\n        /* \"#utility.yul\":9537:9539   */\n      0x20\n        /* \"#utility.yul\":9526:9535   */\n      dup3\n        /* \"#utility.yul\":9522:9540   */\n      add\n        /* \"#utility.yul\":9514:9540   */\n      swap1\n      pop\n        /* \"#utility.yul\":9586:9595   */\n      dup2\n        /* \"#utility.yul\":9580:9584   */\n      dup2\n        /* \"#utility.yul\":9576:9596   */\n      sub\n        /* \"#utility.yul\":9572:9573   */\n      0x00\n        /* \"#utility.yul\":9561:9570   */\n      dup4\n        /* \"#utility.yul\":9557:9574   */\n      add\n        /* \"#utility.yul\":9550:9597   */\n      mstore\n        /* \"#utility.yul\":9614:9745   */\n      tag_373\n        /* \"#utility.yul\":9740:9744   */\n      dup2\n        /* \"#utility.yul\":9614:9745   */\n      tag_256\n      jump\t// in\n    tag_373:\n        /* \"#utility.yul\":9606:9745   */\n      swap1\n      pop\n        /* \"#utility.yul\":9333:9752   */\n      swap2\n      swap1\n      pop\n      jump\t// out\n        /* \"#utility.yul\":9758:9939   */\n    tag_257:\n        /* \"#utility.yul\":9898:9931   */\n      0x496e73756666696369656e7420546f6b656e7320746f20576974684472617700\n        /* \"#utility.yul\":9894:9895   */\n      0x00\n        /* \"#utility.yul\":9886:9892   */\n      dup3\n        /* \"#utility.yul\":9882:9896   */\n      add\n        /* \"#utility.yul\":9875:9932   */\n      mstore\n        /* \"#utility.yul\":9758:9939   */\n      pop\n      jump\t// out\n        /* \"#utility.yul\":9945:10311   */\n    tag_258:\n        /* \"#utility.yul\":10087:10090   */\n      0x00\n        /* \"#utility.yul\":10108:10175   */\n      tag_376\n        /* \"#utility.yul\":10172:10174   */\n      0x1f\n        /* \"#utility.yul\":10167:10170   */\n      dup4\n        /* \"#utility.yul\":10108:10175   */\n      tag_254\n      jump\t// in\n    tag_376:\n        /* \"#utility.yul\":10101:10175   */\n      swap2\n      pop\n        /* \"#utility.yul\":10184:10277   */\n      tag_377\n        /* \"#utility.yul\":10273:10276   */\n      dup3\n        /* \"#utility.yul\":10184:10277   */\n      tag_257\n      jump\t// in\n    tag_377:\n        /* \"#utility.yul\":10302:10304   */\n      0x20\n        /* \"#utility.yul\":10297:10300   */\n      dup3\n        /* \"#utility.yul\":10293:10305   */\n      add\n        /* \"#utility.yul\":10286:10305   */\n      swap1\n      pop\n        /* \"#utility.yul\":9945:10311   */\n      swap2\n      swap1\n      pop\n      jump\t// out\n        /* \"#utility.yul\":10317:10736   */\n    tag_106:\n        /* \"#utility.yul\":10483:10487   */\n      0x00\n        /* \"#utility.yul\":10521:10523   */\n      0x20\n        /* \"#utility.yul\":10510:10519   */\n      dup3\n        /* \"#utility.yul\":10506:10524   */\n      add\n        /* \"#utility.yul\":10498:10524   */\n      swap1\n      pop\n        /* \"#utility.yul\":10570:10579   */\n      dup2\n        /* \"#utility.yul\":10564:10568   */\n      dup2\n        /* \"#utility.yul\":10560:10580   */\n      sub\n        /* \"#utility.yul\":10556:10557   */\n      0x00\n        /* \"#utility.yul\":10545:10554   */\n      dup4\n        /* \"#utility.yul\":10541:10558   */\n      add\n        /* \"#utility.yul\":10534:10581   */\n      mstore\n        /* \"#utility.yul\":10598:10729   */\n      tag_379\n        /* \"#utility.yul\":10724:10728   */\n      dup2\n        /* \"#utility.yul\":10598:10729   */\n      tag_258\n      jump\t// in\n    tag_379:\n        /* \"#utility.yul\":10590:10729   */\n      swap1\n      pop\n        /* \"#utility.yul\":10317:10736   */\n      swap2\n      swap1\n      pop\n      jump\t// out\n        /* \"#utility.yul\":10742:10922   */\n    tag_259:\n        /* \"#utility.yul\":10790:10867   */\n      0x4e487b7100000000000000000000000000000000000000000000000000000000\n        /* \"#utility.yul\":10787:10788   */\n      0x00\n        /* \"#utility.yul\":10780:10868   */\n      mstore\n        /* \"#utility.yul\":10887:10891   */\n      0x11\n        /* \"#utility.yul\":10884:10885   */\n      0x04\n        /* \"#utility.yul\":10877:10892   */\n      mstore\n        /* \"#utility.yul\":10911:10915   */\n      0x24\n        /* \"#utility.yul\":10908:10909   */\n      0x00\n        /* \"#utility.yul\":10901:10916   */\n      revert\n        /* \"#utility.yul\":10928:11122   */\n    tag_111:\n        /* \"#utility.yul\":10968:10972   */\n      0x00\n        /* \"#utility.yul\":10988:11008   */\n      tag_382\n        /* \"#utility.yul\":11006:11007   */\n      dup3\n        /* \"#utility.yul\":10988:11008   */\n      tag_228\n      jump\t// in\n    tag_382:\n        /* \"#utility.yul\":10983:11008   */\n      swap2\n      pop\n        /* \"#utility.yul\":11022:11042   */\n      tag_383\n        /* \"#utility.yul\":11040:11041   */\n      dup4\n        /* \"#utility.yul\":11022:11042   */\n      tag_228\n      jump\t// in\n    tag_383:\n        /* \"#utility.yul\":11017:11042   */\n      swap3\n      pop\n        /* \"#utility.yul\":11066:11067   */\n      dup3\n        /* \"#utility.yul\":11063:11064   */\n      dup3\n        /* \"#utility.yul\":11059:11068   */\n      sub\n        /* \"#utility.yul\":11051:11068   */\n      swap1\n      pop\n        /* \"#utility.yul\":11090:11091   */\n      dup2\n        /* \"#utility.yul\":11084:11088   */\n      dup2\n        /* \"#utility.yul\":11081:11092   */\n      gt\n        /* \"#utility.yul\":11078:11115   */\n      iszero\n      tag_384\n      jumpi\n        /* \"#utility.yul\":11095:11113   */\n      tag_385\n      tag_259\n      jump\t// in\n    tag_385:\n        /* \"#utility.yul\":11078:11115   */\n    tag_384:\n        /* \"#utility.yul\":10928:11122   */\n      swap3\n      swap2\n      pop\n      pop\n      jump\t// out\n        /* \"#utility.yul\":11128:11292   */\n    tag_260:\n        /* \"#utility.yul\":11268:11284   */\n      0x496e76616c696420416d6f756e74000000000000000000000000000000000000\n        /* \"#utility.yul\":11264:11265   */\n      0x00\n        /* \"#utility.yul\":11256:11262   */\n      dup3\n        /* \"#utility.yul\":11252:11266   */\n      add\n        /* \"#utility.yul\":11245:11285   */\n      mstore\n        /* \"#utility.yul\":11128:11292   */\n      pop\n      jump\t// out\n        /* \"#utility.yul\":11298:11664   */\n    tag_261:\n        /* \"#utility.yul\":11440:11443   */\n      0x00\n        /* \"#utility.yul\":11461:11528   */\n      tag_388\n        /* \"#utility.yul\":11525:11527   */\n      0x0e\n        /* \"#utility.yul\":11520:11523   */\n      dup4\n        /* \"#utility.yul\":11461:11528   */\n      tag_254\n      jump\t// in\n    tag_388:\n        /* \"#utility.yul\":11454:11528   */\n      swap2\n      pop\n        /* \"#utility.yul\":11537:11630   */\n      tag_389\n        /* \"#utility.yul\":11626:11629   */\n      dup3\n        /* \"#utility.yul\":11537:11630   */\n      tag_260\n      jump\t// in\n    tag_389:\n        /* \"#utility.yul\":11655:11657   */\n      0x20\n        /* \"#utility.yul\":11650:11653   */\n      dup3\n        /* \"#utility.yul\":11646:11658   */\n      add\n        /* \"#utility.yul\":11639:11658   */\n      swap1\n      pop\n        /* \"#utility.yul\":11298:11664   */\n      swap2\n      swap1\n      pop\n      jump\t// out\n        /* \"#utility.yul\":11670:12089   */\n    tag_121:\n        /* \"#utility.yul\":11836:11840   */\n      0x00\n        /* \"#utility.yul\":11874:11876   */\n      0x20\n        /* \"#utility.yul\":11863:11872   */\n      dup3\n        /* \"#utility.yul\":11859:11877   */\n      add\n        /* \"#utility.yul\":11851:11877   */\n      swap1\n      pop\n        /* \"#utility.yul\":11923:11932   */\n      dup2\n        /* \"#utility.yul\":11917:11921   */\n      dup2\n        /* \"#utility.yul\":11913:11933   */\n      sub\n        /* \"#utility.yul\":11909:11910   */\n      0x00\n        /* \"#utility.yul\":11898:11907   */\n      dup4\n        /* \"#utility.yul\":11894:11911   */\n      add\n        /* \"#utility.yul\":11887:11934   */\n      mstore\n        /* \"#utility.yul\":11951:12082   */\n      tag_391\n        /* \"#utility.yul\":12077:12081   */\n      dup2\n        /* \"#utility.yul\":11951:12082   */\n      tag_261\n      jump\t// in\n    tag_391:\n        /* \"#utility.yul\":11943:12082   */\n      swap1\n      pop\n        /* \"#utility.yul\":11670:12089   */\n      swap2\n      swap1\n      pop\n      jump\t// out\n        /* \"#utility.yul\":12095:12286   */\n    tag_123:\n        /* \"#utility.yul\":12135:12138   */\n      0x00\n        /* \"#utility.yul\":12154:12174   */\n      tag_393\n        /* \"#utility.yul\":12172:12173   */\n      dup3\n        /* \"#utility.yul\":12154:12174   */\n      tag_228\n      jump\t// in\n    tag_393:\n        /* \"#utility.yul\":12149:12174   */\n      swap2\n      pop\n        /* \"#utility.yul\":12188:12208   */\n      tag_394\n        /* \"#utility.yul\":12206:12207   */\n      dup4\n        /* \"#utility.yul\":12188:12208   */\n      tag_228\n      jump\t// in\n    tag_394:\n        /* \"#utility.yul\":12183:12208   */\n      swap3\n      pop\n        /* \"#utility.yul\":12231:12232   */\n      dup3\n        /* \"#utility.yul\":12228:12229   */\n      dup3\n        /* \"#utility.yul\":12224:12233   */\n      add\n        /* \"#utility.yul\":12217:12233   */\n      swap1\n      pop\n        /* \"#utility.yul\":12252:12255   */\n      dup1\n        /* \"#utility.yul\":12249:12250   */\n      dup3\n        /* \"#utility.yul\":12246:12256   */\n      gt\n        /* \"#utility.yul\":12243:12279   */\n      iszero\n      tag_395\n      jumpi\n        /* \"#utility.yul\":12259:12277   */\n      tag_396\n      tag_259\n      jump\t// in\n    tag_396:\n        /* \"#utility.yul\":12243:12279   */\n    tag_395:\n        /* \"#utility.yul\":12095:12286   */\n      swap3\n      swap2\n      pop\n      pop\n      jump\t// out\n        /* \"#utility.yul\":12292:12513   */\n    tag_262:\n        /* \"#utility.yul\":12432:12466   */\n      0x4e6f205374616b656420616d6f756e7420616761696e73742074686973207573\n        /* \"#utility.yul\":12428:12429   */\n      0x00\n        /* \"#utility.yul\":12420:12426   */\n      dup3\n        /* \"#utility.yul\":12416:12430   */\n      add\n        /* \"#utility.yul\":12409:12467   */\n      mstore\n        /* \"#utility.yul\":12501:12505   */\n      0x6572000000000000000000000000000000000000000000000000000000000000\n        /* \"#utility.yul\":12496:12498   */\n      0x20\n        /* \"#utility.yul\":12488:12494   */\n      dup3\n        /* \"#utility.yul\":12484:12499   */\n      add\n        /* \"#utility.yul\":12477:12506   */\n      mstore\n        /* \"#utility.yul\":12292:12513   */\n      pop\n      jump\t// out\n        /* \"#utility.yul\":12519:12885   */\n    tag_263:\n        /* \"#utility.yul\":12661:12664   */\n      0x00\n        /* \"#utility.yul\":12682:12749   */\n      tag_399\n        /* \"#utility.yul\":12746:12748   */\n      0x22\n        /* \"#utility.yul\":12741:12744   */\n      dup4\n        /* \"#utility.yul\":12682:12749   */\n      tag_254\n      jump\t// in\n    tag_399:\n        /* \"#utility.yul\":12675:12749   */\n      swap2\n      pop\n        /* \"#utility.yul\":12758:12851   */\n      tag_400\n        /* \"#utility.yul\":12847:12850   */\n      dup3\n        /* \"#utility.yul\":12758:12851   */\n      tag_262\n      jump\t// in\n    tag_400:\n        /* \"#utility.yul\":12876:12878   */\n      0x40\n        /* \"#utility.yul\":12871:12874   */\n      dup3\n        /* \"#utility.yul\":12867:12879   */\n      add\n        /* \"#utility.yul\":12860:12879   */\n      swap1\n      pop\n        /* \"#utility.yul\":12519:12885   */\n      swap2\n      swap1\n      pop\n      jump\t// out\n        /* \"#utility.yul\":12891:13310   */\n    tag_129:\n        /* \"#utility.yul\":13057:13061   */\n      0x00\n        /* \"#utility.yul\":13095:13097   */\n      0x20\n        /* \"#utility.yul\":13084:13093   */\n      dup3\n        /* \"#utility.yul\":13080:13098   */\n      add\n        /* \"#utility.yul\":13072:13098   */\n      swap1\n      pop\n        /* \"#utility.yul\":13144:13153   */\n      dup2\n        /* \"#utility.yul\":13138:13142   */\n      dup2\n        /* \"#utility.yul\":13134:13154   */\n      sub\n        /* \"#utility.yul\":13130:13131   */\n      0x00\n        /* \"#utility.yul\":13119:13128   */\n      dup4\n        /* \"#utility.yul\":13115:13132   */\n      add\n        /* \"#utility.yul\":13108:13155   */\n      mstore\n        /* \"#utility.yul\":13172:13303   */\n      tag_402\n        /* \"#utility.yul\":13298:13302   */\n      dup2\n        /* \"#utility.yul\":13172:13303   */\n      tag_263\n      jump\t// in\n    tag_402:\n        /* \"#utility.yul\":13164:13303   */\n      swap1\n      pop\n        /* \"#utility.yul\":12891:13310   */\n      swap2\n      swap1\n      pop\n      jump\t// out\n        /* \"#utility.yul\":13316:13869   */\n    tag_135:\n        /* \"#utility.yul\":13493:13497   */\n      0x00\n        /* \"#utility.yul\":13531:13534   */\n      0x80\n        /* \"#utility.yul\":13520:13529   */\n      dup3\n        /* \"#utility.yul\":13516:13535   */\n      add\n        /* \"#utility.yul\":13508:13535   */\n      swap1\n      pop\n        /* \"#utility.yul\":13545:13616   */\n      tag_404\n        /* \"#utility.yul\":13613:13614   */\n      0x00\n        /* \"#utility.yul\":13602:13611   */\n      dup4\n        /* \"#utility.yul\":13598:13615   */\n      add\n        /* \"#utility.yul\":13589:13595   */\n      dup8\n        /* \"#utility.yul\":13545:13616   */\n      tag_229\n      jump\t// in\n    tag_404:\n        /* \"#utility.yul\":13626:13698   */\n      tag_405\n        /* \"#utility.yul\":13694:13696   */\n      0x20\n        /* \"#utility.yul\":13683:13692   */\n      dup4\n        /* \"#utility.yul\":13679:13697   */\n      add\n        /* \"#utility.yul\":13670:13676   */\n      dup7\n        /* \"#utility.yul\":13626:13698   */\n      tag_229\n      jump\t// in\n    tag_405:\n        /* \"#utility.yul\":13708:13780   */\n      tag_406\n        /* \"#utility.yul\":13776:13778   */\n      0x40\n        /* \"#utility.yul\":13765:13774   */\n      dup4\n        /* \"#utility.yul\":13761:13779   */\n      add\n        /* \"#utility.yul\":13752:13758   */\n      dup6\n        /* \"#utility.yul\":13708:13780   */\n      tag_229\n      jump\t// in\n    tag_406:\n        /* \"#utility.yul\":13790:13862   */\n      tag_407\n        /* \"#utility.yul\":13858:13860   */\n      0x60\n        /* \"#utility.yul\":13847:13856   */\n      dup4\n        /* \"#utility.yul\":13843:13861   */\n      add\n        /* \"#utility.yul\":13834:13840   */\n      dup5\n        /* \"#utility.yul\":13790:13862   */\n      tag_229\n      jump\t// in\n    tag_407:\n        /* \"#utility.yul\":13316:13869   */\n      swap6\n      swap5\n      pop\n      pop\n      pop\n      pop\n      pop\n      jump\t// out\n        /* \"#utility.yul\":13875:14099   */\n    tag_264:\n        /* \"#utility.yul\":14015:14049   */\n      0x556e7374616b6520746f6b656e73206265666f72652064656c6574696e672053\n        /* \"#utility.yul\":14011:14012   */\n      0x00\n        /* \"#utility.yul\":14003:14009   */\n      dup3\n        /* \"#utility.yul\":13999:14013   */\n      add\n        /* \"#utility.yul\":13992:14050   */\n      mstore\n        /* \"#utility.yul\":14084:14091   */\n      0x7461742773000000000000000000000000000000000000000000000000000000\n        /* \"#utility.yul\":14079:14081   */\n      0x20\n        /* \"#utility.yul\":14071:14077   */\n      dup3\n        /* \"#utility.yul\":14067:14082   */\n      add\n        /* \"#utility.yul\":14060:14092   */\n      mstore\n        /* \"#utility.yul\":13875:14099   */\n      pop\n      jump\t// out\n        /* \"#utility.yul\":14105:14471   */\n    tag_265:\n        /* \"#utility.yul\":14247:14250   */\n      0x00\n        /* \"#utility.yul\":14268:14335   */\n      tag_410\n        /* \"#utility.yul\":14332:14334   */\n      0x25\n        /* \"#utility.yul\":14327:14330   */\n      dup4\n        /* \"#utility.yul\":14268:14335   */\n      tag_254\n      jump\t// in\n    tag_410:\n        /* \"#utility.yul\":14261:14335   */\n      swap2\n      pop\n        /* \"#utility.yul\":14344:14437   */\n      tag_411\n        /* \"#utility.yul\":14433:14436   */\n      dup3\n        /* \"#utility.yul\":14344:14437   */\n      tag_264\n      jump\t// in\n    tag_411:\n        /* \"#utility.yul\":14462:14464   */\n      0x40\n        /* \"#utility.yul\":14457:14460   */\n      dup3\n        /* \"#utility.yul\":14453:14465   */\n      add\n        /* \"#utility.yul\":14446:14465   */\n      swap1\n      pop\n        /* \"#utility.yul\":14105:14471   */\n      swap2\n      swap1\n      pop\n      jump\t// out\n        /* \"#utility.yul\":14477:14896   */\n    tag_141:\n        /* \"#utility.yul\":14643:14647   */\n      0x00\n        /* \"#utility.yul\":14681:14683   */\n      0x20\n        /* \"#utility.yul\":14670:14679   */\n      dup3\n        /* \"#utility.yul\":14666:14684   */\n      add\n        /* \"#utility.yul\":14658:14684   */\n      swap1\n      pop\n        /* \"#utility.yul\":14730:14739   */\n      dup2\n        /* \"#utility.yul\":14724:14728   */\n      dup2\n        /* \"#utility.yul\":14720:14740   */\n      sub\n        /* \"#utility.yul\":14716:14717   */\n      0x00\n        /* \"#utility.yul\":14705:14714   */\n      dup4\n        /* \"#utility.yul\":14701:14718   */\n      add\n        /* \"#utility.yul\":14694:14741   */\n      mstore\n        /* \"#utility.yul\":14758:14889   */\n      tag_413\n        /* \"#utility.yul\":14884:14888   */\n      dup2\n        /* \"#utility.yul\":14758:14889   */\n      tag_265\n      jump\t// in\n    tag_413:\n        /* \"#utility.yul\":14750:14889   */\n      swap1\n      pop\n        /* \"#utility.yul\":14477:14896   */\n      swap2\n      swap1\n      pop\n      jump\t// out\n        /* \"#utility.yul\":14902:15069   */\n    tag_266:\n        /* \"#utility.yul\":15042:15061   */\n      0x5374616b696e6720697320706175736564000000000000000000000000000000\n        /* \"#utility.yul\":15038:15039   */\n      0x00\n        /* \"#utility.yul\":15030:15036   */\n      dup3\n        /* \"#utility.yul\":15026:15040   */\n      add\n        /* \"#utility.yul\":15019:15062   */\n      mstore\n        /* \"#utility.yul\":14902:15069   */\n      pop\n      jump\t// out\n        /* \"#utility.yul\":15075:15441   */\n    tag_267:\n        /* \"#utility.yul\":15217:15220   */\n      0x00\n        /* \"#utility.yul\":15238:15305   */\n      tag_416\n        /* \"#utility.yul\":15302:15304   */\n      0x11\n        /* \"#utility.yul\":15297:15300   */\n      dup4\n        /* \"#utility.yul\":15238:15305   */\n      tag_254\n      jump\t// in\n    tag_416:\n        /* \"#utility.yul\":15231:15305   */\n      swap2\n      pop\n        /* \"#utility.yul\":15314:15407   */\n      tag_417\n        /* \"#utility.yul\":15403:15406   */\n      dup3\n        /* \"#utility.yul\":15314:15407   */\n      tag_266\n      jump\t// in\n    tag_417:\n        /* \"#utility.yul\":15432:15434   */\n      0x20\n        /* \"#utility.yul\":15427:15430   */\n      dup3\n        /* \"#utility.yul\":15423:15435   */\n      add\n        /* \"#utility.yul\":15416:15435   */\n      swap1\n      pop\n        /* \"#utility.yul\":15075:15441   */\n      swap2\n      swap1\n      pop\n      jump\t// out\n        /* \"#utility.yul\":15447:15866   */\n    tag_170:\n        /* \"#utility.yul\":15613:15617   */\n      0x00\n        /* \"#utility.yul\":15651:15653   */\n      0x20\n        /* \"#utility.yul\":15640:15649   */\n      dup3\n        /* \"#utility.yul\":15636:15654   */\n      add\n        /* \"#utility.yul\":15628:15654   */\n      swap1\n      pop\n        /* \"#utility.yul\":15700:15709   */\n      dup2\n        /* \"#utility.yul\":15694:15698   */\n      dup2\n        /* \"#utility.yul\":15690:15710   */\n      sub\n        /* \"#utility.yul\":15686:15687   */\n      0x00\n        /* \"#utility.yul\":15675:15684   */\n      dup4\n        /* \"#utility.yul\":15671:15688   */\n      add\n        /* \"#utility.yul\":15664:15711   */\n      mstore\n        /* \"#utility.yul\":15728:15859   */\n      tag_419\n        /* \"#utility.yul\":15854:15858   */\n      dup2\n        /* \"#utility.yul\":15728:15859   */\n      tag_267\n      jump\t// in\n    tag_419:\n        /* \"#utility.yul\":15720:15859   */\n      swap1\n      pop\n        /* \"#utility.yul\":15447:15866   */\n      swap2\n      swap1\n      pop\n      jump\t// out\n        /* \"#utility.yul\":15872:16054   */\n    tag_268:\n        /* \"#utility.yul\":16012:16046   */\n      0x54726561737572792068617320496e73756666696369656e7420546f6b656e73\n        /* \"#utility.yul\":16008:16009   */\n      0x00\n        /* \"#utility.yul\":16000:16006   */\n      dup3\n        /* \"#utility.yul\":15996:16010   */\n      add\n        /* \"#utility.yul\":15989:16047   */\n      mstore\n        /* \"#utility.yul\":15872:16054   */\n      pop\n      jump\t// out\n        /* \"#utility.yul\":16060:16426   */\n    tag_269:\n        /* \"#utility.yul\":16202:16205   */\n      0x00\n        /* \"#utility.yul\":16223:16290   */\n      tag_422\n        /* \"#utility.yul\":16287:16289   */\n      0x20\n        /* \"#utility.yul\":16282:16285   */\n      dup4\n        /* \"#utility.yul\":16223:16290   */\n      tag_254\n      jump\t// in\n    tag_422:\n        /* \"#utility.yul\":16216:16290   */\n      swap2\n      pop\n        /* \"#utility.yul\":16299:16392   */\n      tag_423\n        /* \"#utility.yul\":16388:16391   */\n      dup3\n        /* \"#utility.yul\":16299:16392   */\n      tag_268\n      jump\t// in\n    tag_423:\n        /* \"#utility.yul\":16417:16419   */\n      0x20\n        /* \"#utility.yul\":16412:16415   */\n      dup3\n        /* \"#utility.yul\":16408:16420   */\n      add\n        /* \"#utility.yul\":16401:16420   */\n      swap1\n      pop\n        /* \"#utility.yul\":16060:16426   */\n      swap2\n      swap1\n      pop\n      jump\t// out\n        /* \"#utility.yul\":16432:16851   */\n    tag_173:\n        /* \"#utility.yul\":16598:16602   */\n      0x00\n        /* \"#utility.yul\":16636:16638   */\n      0x20\n        /* \"#utility.yul\":16625:16634   */\n      dup3\n        /* \"#utility.yul\":16621:16639   */\n      add\n        /* \"#utility.yul\":16613:16639   */\n      swap1\n      pop\n        /* \"#utility.yul\":16685:16694   */\n      dup2\n        /* \"#utility.yul\":16679:16683   */\n      dup2\n        /* \"#utility.yul\":16675:16695   */\n      sub\n        /* \"#utility.yul\":16671:16672   */\n      0x00\n        /* \"#utility.yul\":16660:16669   */\n      dup4\n        /* \"#utility.yul\":16656:16673   */\n      add\n        /* \"#utility.yul\":16649:16696   */\n      mstore\n        /* \"#utility.yul\":16713:16844   */\n      tag_425\n        /* \"#utility.yul\":16839:16843   */\n      dup2\n        /* \"#utility.yul\":16713:16844   */\n      tag_269\n      jump\t// in\n    tag_425:\n        /* \"#utility.yul\":16705:16844   */\n      swap1\n      pop\n        /* \"#utility.yul\":16432:16851   */\n      swap2\n      swap1\n      pop\n      jump\t// out\n        /* \"#utility.yul\":16857:17030   */\n    tag_270:\n        /* \"#utility.yul\":16997:17022   */\n      0x5573657220446f657327742068617665205374616b6564000000000000000000\n        /* \"#utility.yul\":16993:16994   */\n      0x00\n        /* \"#utility.yul\":16985:16991   */\n      dup3\n        /* \"#utility.yul\":16981:16995   */\n      add\n        /* \"#utility.yul\":16974:17023   */\n      mstore\n        /* \"#utility.yul\":16857:17030   */\n      pop\n      jump\t// out\n        /* \"#utility.yul\":17036:17402   */\n    tag_271:\n        /* \"#utility.yul\":17178:17181   */\n      0x00\n        /* \"#utility.yul\":17199:17266   */\n      tag_428\n        /* \"#utility.yul\":17263:17265   */\n      0x17\n        /* \"#utility.yul\":17258:17261   */\n      dup4\n        /* \"#utility.yul\":17199:17266   */\n      tag_254\n      jump\t// in\n    tag_428:\n        /* \"#utility.yul\":17192:17266   */\n      swap2\n      pop\n        /* \"#utility.yul\":17275:17368   */\n      tag_429\n        /* \"#utility.yul\":17364:17367   */\n      dup3\n        /* \"#utility.yul\":17275:17368   */\n      tag_270\n      jump\t// in\n    tag_429:\n        /* \"#utility.yul\":17393:17395   */\n      0x20\n        /* \"#utility.yul\":17388:17391   */\n      dup3\n        /* \"#utility.yul\":17384:17396   */\n      add\n        /* \"#utility.yul\":17377:17396   */\n      swap1\n      pop\n        /* \"#utility.yul\":17036:17402   */\n      swap2\n      swap1\n      pop\n      jump\t// out\n        /* \"#utility.yul\":17408:17827   */\n    tag_177:\n        /* \"#utility.yul\":17574:17578   */\n      0x00\n        /* \"#utility.yul\":17612:17614   */\n      0x20\n        /* \"#utility.yul\":17601:17610   */\n      dup3\n        /* \"#utility.yul\":17597:17615   */\n      add\n        /* \"#utility.yul\":17589:17615   */\n      swap1\n      pop\n        /* \"#utility.yul\":17661:17670   */\n      dup2\n        /* \"#utility.yul\":17655:17659   */\n      dup2\n        /* \"#utility.yul\":17651:17671   */\n      sub\n        /* \"#utility.yul\":17647:17648   */\n      0x00\n        /* \"#utility.yul\":17636:17645   */\n      dup4\n        /* \"#utility.yul\":17632:17649   */\n      add\n        /* \"#utility.yul\":17625:17672   */\n      mstore\n        /* \"#utility.yul\":17689:17820   */\n      tag_431\n        /* \"#utility.yul\":17815:17819   */\n      dup2\n        /* \"#utility.yul\":17689:17820   */\n      tag_271\n      jump\t// in\n    tag_431:\n        /* \"#utility.yul\":17681:17820   */\n      swap1\n      pop\n        /* \"#utility.yul\":17408:17827   */\n      swap2\n      swap1\n      pop\n      jump\t// out\n        /* \"#utility.yul\":17833:18013   */\n    tag_272:\n        /* \"#utility.yul\":17973:18005   */\n      0x496e73756666696369656e742046756e647320746f2057697468647261770000\n        /* \"#utility.yul\":17969:17970   */\n      0x00\n        /* \"#utility.yul\":17961:17967   */\n      dup3\n        /* \"#utility.yul\":17957:17971   */\n      add\n        /* \"#utility.yul\":17950:18006   */\n      mstore\n        /* \"#utility.yul\":17833:18013   */\n      pop\n      jump\t// out\n        /* \"#utility.yul\":18019:18385   */\n    tag_273:\n        /* \"#utility.yul\":18161:18164   */\n      0x00\n        /* \"#utility.yul\":18182:18249   */\n      tag_434\n        /* \"#utility.yul\":18246:18248   */\n      0x1e\n        /* \"#utility.yul\":18241:18244   */\n      dup4\n        /* \"#utility.yul\":18182:18249   */\n      tag_254\n      jump\t// in\n    tag_434:\n        /* \"#utility.yul\":18175:18249   */\n      swap2\n      pop\n        /* \"#utility.yul\":18258:18351   */\n      tag_435\n        /* \"#utility.yul\":18347:18350   */\n      dup3\n        /* \"#utility.yul\":18258:18351   */\n      tag_272\n      jump\t// in\n    tag_435:\n        /* \"#utility.yul\":18376:18378   */\n      0x20\n        /* \"#utility.yul\":18371:18374   */\n      dup3\n        /* \"#utility.yul\":18367:18379   */\n      add\n        /* \"#utility.yul\":18360:18379   */\n      swap1\n      pop\n        /* \"#utility.yul\":18019:18385   */\n      swap2\n      swap1\n      pop\n      jump\t// out\n        /* \"#utility.yul\":18391:18810   */\n    tag_188:\n        /* \"#utility.yul\":18557:18561   */\n      0x00\n        /* \"#utility.yul\":18595:18597   */\n      0x20\n        /* \"#utility.yul\":18584:18593   */\n      dup3\n        /* \"#utility.yul\":18580:18598   */\n      add\n        /* \"#utility.yul\":18572:18598   */\n      swap1\n      pop\n        /* \"#utility.yul\":18644:18653   */\n      dup2\n        /* \"#utility.yul\":18638:18642   */\n      dup2\n        /* \"#utility.yul\":18634:18654   */\n      sub\n        /* \"#utility.yul\":18630:18631   */\n      0x00\n        /* \"#utility.yul\":18619:18628   */\n      dup4\n        /* \"#utility.yul\":18615:18632   */\n      add\n        /* \"#utility.yul\":18608:18655   */\n      mstore\n        /* \"#utility.yul\":18672:18803   */\n      tag_437\n        /* \"#utility.yul\":18798:18802   */\n      dup2\n        /* \"#utility.yul\":18672:18803   */\n      tag_273\n      jump\t// in\n    tag_437:\n        /* \"#utility.yul\":18664:18803   */\n      swap1\n      pop\n        /* \"#utility.yul\":18391:18810   */\n      swap2\n      swap1\n      pop\n      jump\t// out\n        /* \"#utility.yul\":18816:18980   */\n    tag_274:\n        /* \"#utility.yul\":18956:18972   */\n      0x43616e6e6f74207374616b652030000000000000000000000000000000000000\n        /* \"#utility.yul\":18952:18953   */\n      0x00\n        /* \"#utility.yul\":18944:18950   */\n      dup3\n        /* \"#utility.yul\":18940:18954   */\n      add\n        /* \"#utility.yul\":18933:18973   */\n      mstore\n        /* \"#utility.yul\":18816:18980   */\n      pop\n      jump\t// out\n        /* \"#utility.yul\":18986:19352   */\n    tag_275:\n        /* \"#utility.yul\":19128:19131   */\n      0x00\n        /* \"#utility.yul\":19149:19216   */\n      tag_440\n        /* \"#utility.yul\":19213:19215   */\n      0x0e\n        /* \"#utility.yul\":19208:19211   */\n      dup4\n        /* \"#utility.yul\":19149:19216   */\n      tag_254\n      jump\t// in\n    tag_440:\n        /* \"#utility.yul\":19142:19216   */\n      swap2\n      pop\n        /* \"#utility.yul\":19225:19318   */\n      tag_441\n        /* \"#utility.yul\":19314:19317   */\n      dup3\n        /* \"#utility.yul\":19225:19318   */\n      tag_274\n      jump\t// in\n    tag_441:\n        /* \"#utility.yul\":19343:19345   */\n      0x20\n        /* \"#utility.yul\":19338:19341   */\n      dup3\n        /* \"#utility.yul\":19334:19346   */\n      add\n        /* \"#utility.yul\":19327:19346   */\n      swap1\n      pop\n        /* \"#utility.yul\":18986:19352   */\n      swap2\n      swap1\n      pop\n      jump\t// out\n        /* \"#utility.yul\":19358:19777   */\n    tag_203:\n        /* \"#utility.yul\":19524:19528   */\n      0x00\n        /* \"#utility.yul\":19562:19564   */\n      0x20\n        /* \"#utility.yul\":19551:19560   */\n      dup3\n        /* \"#utility.yul\":19547:19565   */\n      add\n        /* \"#utility.yul\":19539:19565   */\n      swap1\n      pop\n        /* \"#utility.yul\":19611:19620   */\n      dup2\n        /* \"#utility.yul\":19605:19609   */\n      dup2\n        /* \"#utility.yul\":19601:19621   */\n      sub\n        /* \"#utility.yul\":19597:19598   */\n      0x00\n        /* \"#utility.yul\":19586:19595   */\n      dup4\n        /* \"#utility.yul\":19582:19599   */\n      add\n        /* \"#utility.yul\":19575:19622   */\n      mstore\n        /* \"#utility.yul\":19639:19770   */\n      tag_443\n        /* \"#utility.yul\":19765:19769   */\n      dup2\n        /* \"#utility.yul\":19639:19770   */\n      tag_275\n      jump\t// in\n    tag_443:\n        /* \"#utility.yul\":19631:19770   */\n      swap1\n      pop\n        /* \"#utility.yul\":19358:19777   */\n      swap2\n      swap1\n      pop\n      jump\t// out\n        /* \"#utility.yul\":19783:20008   */\n    tag_276:\n        /* \"#utility.yul\":19923:19957   */\n      0x4f776e61626c653a206e6577206f776e657220697320746865207a65726f2061\n        /* \"#utility.yul\":19919:19920   */\n      0x00\n        /* \"#utility.yul\":19911:19917   */\n      dup3\n        /* \"#utility.yul\":19907:19921   */\n      add\n        /* \"#utility.yul\":19900:19958   */\n      mstore\n        /* \"#utility.yul\":19992:20000   */\n      0x6464726573730000000000000000000000000000000000000000000000000000\n        /* \"#utility.yul\":19987:19989   */\n      0x20\n        /* \"#utility.yul\":19979:19985   */\n      dup3\n        /* \"#utility.yul\":19975:19990   */\n      add\n        /* \"#utility.yul\":19968:20001   */\n      mstore\n        /* \"#utility.yul\":19783:20008   */\n      pop\n      jump\t// out\n        /* \"#utility.yul\":20014:20380   */\n    tag_277:\n        /* \"#utility.yul\":20156:20159   */\n      0x00\n        /* \"#utility.yul\":20177:20244   */\n      tag_446\n        /* \"#utility.yul\":20241:20243   */\n      0x26\n        /* \"#utility.yul\":20236:20239   */\n      dup4\n        /* \"#utility.yul\":20177:20244   */\n      tag_254\n      jump\t// in\n    tag_446:\n        /* \"#utility.yul\":20170:20244   */\n      swap2\n      pop\n        /* \"#utility.yul\":20253:20346   */\n      tag_447\n        /* \"#utility.yul\":20342:20345   */\n      dup3\n        /* \"#utility.yul\":20253:20346   */\n      tag_276\n      jump\t// in\n    tag_447:\n        /* \"#utility.yul\":20371:20373   */\n      0x40\n        /* \"#utility.yul\":20366:20369   */\n      dup3\n        /* \"#utility.yul\":20362:20374   */\n      add\n        /* \"#utility.yul\":20355:20374   */\n      swap1\n      pop\n        /* \"#utility.yul\":20014:20380   */\n      swap2\n      swap1\n      pop\n      jump\t// out\n        /* \"#utility.yul\":20386:20805   */\n    tag_213:\n        /* \"#utility.yul\":20552:20556   */\n      0x00\n        /* \"#utility.yul\":20590:20592   */\n      0x20\n        /* \"#utility.yul\":20579:20588   */\n      dup3\n        /* \"#utility.yul\":20575:20593   */\n      add\n        /* \"#utility.yul\":20567:20593   */\n      swap1\n      pop\n        /* \"#utility.yul\":20639:20648   */\n      dup2\n        /* \"#utility.yul\":20633:20637   */\n      dup2\n        /* \"#utility.yul\":20629:20649   */\n      sub\n        /* \"#utility.yul\":20625:20626   */\n      0x00\n        /* \"#utility.yul\":20614:20623   */\n      dup4\n        /* \"#utility.yul\":20610:20627   */\n      add\n        /* \"#utility.yul\":20603:20650   */\n      mstore\n        /* \"#utility.yul\":20667:20798   */\n      tag_449\n        /* \"#utility.yul\":20793:20797   */\n      dup2\n        /* \"#utility.yul\":20667:20798   */\n      tag_277\n      jump\t// in\n    tag_449:\n        /* \"#utility.yul\":20659:20798   */\n      swap1\n      pop\n        /* \"#utility.yul\":20386:20805   */\n      swap2\n      swap1\n      pop\n      jump\t// out\n        /* \"#utility.yul\":20811:20993   */\n    tag_278:\n        /* \"#utility.yul\":20951:20985   */\n      0x4f776e61626c653a2063616c6c6572206973206e6f7420746865206f776e6572\n        /* \"#utility.yul\":20947:20948   */\n      0x00\n        /* \"#utility.yul\":20939:20945   */\n      dup3\n        /* \"#utility.yul\":20935:20949   */\n      add\n        /* \"#utility.yul\":20928:20986   */\n      mstore\n        /* \"#utility.yul\":20811:20993   */\n      pop\n      jump\t// out\n        /* \"#utility.yul\":20999:21365   */\n    tag_279:\n        /* \"#utility.yul\":21141:21144   */\n      0x00\n        /* \"#utility.yul\":21162:21229   */\n      tag_452\n        /* \"#utility.yul\":21226:21228   */\n      0x20\n        /* \"#utility.yul\":21221:21224   */\n      dup4\n        /* \"#utility.yul\":21162:21229   */\n      tag_254\n      jump\t// in\n    tag_452:\n        /* \"#utility.yul\":21155:21229   */\n      swap2\n      pop\n        /* \"#utility.yul\":21238:21331   */\n      tag_453\n        /* \"#utility.yul\":21327:21330   */\n      dup3\n        /* \"#utility.yul\":21238:21331   */\n      tag_278\n      jump\t// in\n    tag_453:\n        /* \"#utility.yul\":21356:21358   */\n      0x20\n        /* \"#utility.yul\":21351:21354   */\n      dup3\n        /* \"#utility.yul\":21347:21359   */\n      add\n        /* \"#utility.yul\":21340:21359   */\n      swap1\n      pop\n        /* \"#utility.yul\":20999:21365   */\n      swap2\n      swap1\n      pop\n      jump\t// out\n        /* \"#utility.yul\":21371:21790   */\n    tag_221:\n        /* \"#utility.yul\":21537:21541   */\n      0x00\n        /* \"#utility.yul\":21575:21577   */\n      0x20\n        /* \"#utility.yul\":21564:21573   */\n      dup3\n        /* \"#utility.yul\":21560:21578   */\n      add\n        /* \"#utility.yul\":21552:21578   */\n      swap1\n      pop\n        /* \"#utility.yul\":21624:21633   */\n      dup2\n        /* \"#utility.yul\":21618:21622   */\n      dup2\n        /* \"#utility.yul\":21614:21634   */\n      sub\n        /* \"#utility.yul\":21610:21611   */\n      0x00\n        /* \"#utility.yul\":21599:21608   */\n      dup4\n        /* \"#utility.yul\":21595:21612   */\n      add\n        /* \"#utility.yul\":21588:21635   */\n      mstore\n        /* \"#utility.yul\":21652:21783   */\n      tag_455\n        /* \"#utility.yul\":21778:21782   */\n      dup2\n        /* \"#utility.yul\":21652:21783   */\n      tag_279\n      jump\t// in\n    tag_455:\n        /* \"#utility.yul\":21644:21783   */\n      swap1\n      pop\n        /* \"#utility.yul\":21371:21790   */\n      swap2\n      swap1\n      pop\n      jump\t// out\n\n    auxdata: 0xa264697066735822122048d6b7b38305a227f4b56e09db2be0a6c75959fdb1c80b6ba328a4f6a6e7317264736f6c63430008100033\n}\n",
				"bytecode": {
					"linkReferences": {},
					"object": "608060405234801561001057600080fd5b5061002d61002261003260201b60201c565b61003a60201b60201c565b6100fe565b600033905090565b60008060009054906101000a900473ffffffffffffffffffffffffffffffffffffffff169050816000806101000a81548173ffffffffffffffffffffffffffffffffffffffff021916908373ffffffffffffffffffffffffffffffffffffffff1602179055508173ffffffffffffffffffffffffffffffffffffffff168173ffffffffffffffffffffffffffffffffffffffff167f8be0079c531659141344cd1fd0a4f28419497f9722a3daafe3b4186f6b6457e060405160405180910390a35050565b611e338061010d6000396000f3fe6080604052600436106101025760003560e01c8063715018a6116100955780638e080dee116100645780638e080dee1461034757806396cad0db14610370578063a405b0481461039b578063ce46643b146103b2578063f2fde38b146103bc57610157565b8063715018a61461029f5780637a766460146102b657806382723192146102f35780638da5cb5b1461031c57610157565b80633ae73259116100d15780633ae73259146101e157806352b391b21461020c5780635c975abb146102495780636f9fb98a1461027457610157565b806306608c3c1461015c5780630d8f7614146101855780631241a45a1461018f5780631a2cf140146101b857610157565b36610157573373ffffffffffffffffffffffffffffffffffffffff167f1e57e3bb474320be3d2c77138f75b7c3941292d647f5f9634e33a8e94e0e069b3460405161014d91906113a4565b60405180910390a2005b600080fd5b34801561016857600080fd5b50610183600480360381019061017e919061144e565b6103e5565b005b61018d6105d4565b005b34801561019b57600080fd5b506101b660048036038101906101b191906114cc565b61063a565b005b3480156101c457600080fd5b506101df60048036038101906101da9190611547565b6108c3565b005b3480156101ed57600080fd5b506101f6610a29565b60405161020391906113a4565b60405180910390f35b34801561021857600080fd5b50610233600480360381019061022e9190611547565b610a2f565b60405161024091906116d8565b60405180910390f35b34801561025557600080fd5b5061025e610c03565b60405161026b9190611709565b60405180910390f35b34801561028057600080fd5b50610289610c16565b60405161029691906113a4565b60405180910390f35b3480156102ab57600080fd5b506102b4610c1e565b005b3480156102c257600080fd5b506102dd60048036038101906102d89190611547565b610c32565b6040516102ea91906113a4565b60405180910390f35b3480156102ff57600080fd5b5061031a60048036038101906103159190611724565b610c7b565b005b34801561032857600080fd5b50610331610e53565b60405161033e9190611773565b60405180910390f35b34801561035357600080fd5b5061036e6004803603810190610369919061144e565b610e7c565b005b34801561037c57600080fd5b50610385610f7b565b60405161039291906113a4565b60405180910390f35b3480156103a757600080fd5b506103b0610f81565b005b6103ba610fe2565b005b3480156103c857600080fd5b506103e360048036038101906103de9190611547565b61114f565b005b600460009054906101000a900460ff1615610435576040517f08c379a000000000000000000000000000000000000000000000000000000000815260040161042c906117eb565b60405180910390fd5b81600160006104426111d2565b73ffffffffffffffffffffffffffffffffffffffff1673ffffffffffffffffffffffffffffffffffffffff1681526020019081526020016000205410156104be576040517f08c379a00000000000000000000000000000000000000000000000000000000081526004016104b590611857565b60405180910390fd5b8073ffffffffffffffffffffffffffffffffffffffff166108fc839081150290604051600060405180830381858888f19350505050158015610504573d6000803e3d6000fd5b5081600160006105126111d2565b73ffffffffffffffffffffffffffffffffffffffff1673ffffffffffffffffffffffffffffffffffffffff168152602001908152602001600020600082825461055b91906118a6565b92505081905550816005600082825461057491906118a6565b925050819055506105836111d2565b73ffffffffffffffffffffffffffffffffffffffff167f1d72140a7ccdb496bef50918d2598dd7edefb514f70e6d4beb528cbd16c80b7d836040516105c891906113a4565b60405180910390a25050565b6105dc6111da565b6000341161061f576040517f08c379a000000000000000000000000000000000000000000000000000000000815260040161061690611926565b60405180910390fd5b34600360008282546106319190611946565b92505081905550565b6106426111da565b6000600160008773ffffffffffffffffffffffffffffffffffffffff1673ffffffffffffffffffffffffffffffffffffffff16815260200190815260200160002054116106c4576040517f08c379a00000000000000000000000000000000000000000000000000000000081526004016106bb906119ec565b60405180910390fd5b600260008673ffffffffffffffffffffffffffffffffffffffff1673ffffffffffffffffffffffffffffffffffffffff168152602001908152602001600020600001849080600181540180825580915050600190039060005260206000200160009091909190915055600260008673ffffffffffffffffffffffffffffffffffffffff1673ffffffffffffffffffffffffffffffffffffffff168152602001908152602001600020600101839080600181540180825580915050600190039060005260206000200160009091909190915055600260008673ffffffffffffffffffffffffffffffffffffffff1673ffffffffffffffffffffffffffffffffffffffff168152602001908152602001600020600201829080600181540180825580915050600190039060005260206000200160009091909190915055600260008673ffffffffffffffffffffffffffffffffffffffff1673ffffffffffffffffffffffffffffffffffffffff1681526020019081526020016000206003018190806001815401808255809150506001900390600052602060002001600090919091909150558473ffffffffffffffffffffffffffffffffffffffff167fb4dc03f150e6d614b4a64b5aa6600a4f413726a20001138df59ecc01bb8f7983858585856040516108b49493929190611a0c565b60405180910390a25050505050565b6108cb6111da565b6000600160008373ffffffffffffffffffffffffffffffffffffffff1673ffffffffffffffffffffffffffffffffffffffff168152602001908152602001600020541461094d576040517f08c379a000000000000000000000000000000000000000000000000000000000815260040161094490611ac3565b60405180910390fd5b600260008273ffffffffffffffffffffffffffffffffffffffff1673ffffffffffffffffffffffffffffffffffffffff1681526020019081526020016000206000808201600061099d919061131c565b6001820160006109ad919061131c565b6002820160006109bd919061131c565b6003820160006109cd919061131c565b6004820160006101000a81549060ff021916905550508073ffffffffffffffffffffffffffffffffffffffff167f9e9385d28c8138c95cb67f6eb795218b4839cae3ff4305a567f01395b9317c9f60405160405180910390a250565b60055481565b610a3761133d565b600260008373ffffffffffffffffffffffffffffffffffffffff1673ffffffffffffffffffffffffffffffffffffffff1681526020019081526020016000206040518060a001604052908160008201805480602002602001604051908101604052809291908181526020018280548015610ad057602002820191906000526020600020905b815481526020019060010190808311610abc575b5050505050815260200160018201805480602002602001604051908101604052809291908181526020018280548015610b2857602002820191906000526020600020905b815481526020019060010190808311610b14575b5050505050815260200160028201805480602002602001604051908101604052809291908181526020018280548015610b8057602002820191906000526020600020905b815481526020019060010190808311610b6c575b5050505050815260200160038201805480602002602001604051908101604052809291908181526020018280548015610bd857602002820191906000526020600020905b815481526020019060010190808311610bc4575b505050505081526020016004820160009054906101000a900460ff1615151515815250509050919050565b600460009054906101000a900460ff1681565b600047905090565b610c266111da565b610c306000611258565b565b6000600160008373ffffffffffffffffffffffffffffffffffffffff1673ffffffffffffffffffffffffffffffffffffffff168152602001908152602001600020549050919050565b610c836111da565b600460009054906101000a900460ff1615610cd3576040517f08c379a0000000000000000000000000000000000000000000000000000000008152600401610cca90611b2f565b60405180910390fd5b600354811115610d18576040517f08c379a0000000000000000000000000000000000000000000000000000000008152600401610d0f90611b9b565b60405180910390fd5b600060016000610d266111d2565b73ffffffffffffffffffffffffffffffffffffffff1673ffffffffffffffffffffffffffffffffffffffff1681526020019081526020016000205411610da1576040517f08c379a0000000000000000000000000000000000000000000000000000000008152600401610d9890611c07565b60405180910390fd5b8173ffffffffffffffffffffffffffffffffffffffff166108fc829081150290604051600060405180830381858888f19350505050158015610de7573d6000803e3d6000fd5b508060036000828254610dfa91906118a6565b925050819055508173ffffffffffffffffffffffffffffffffffffffff167f1d72140a7ccdb496bef50918d2598dd7edefb514f70e6d4beb528cbd16c80b7d82604051610e4791906113a4565b60405180910390a25050565b60008060009054906101000a900473ffffffffffffffffffffffffffffffffffffffff16905090565b610e846111da565b816003541015610ec9576040517f08c379a0000000000000000000000000000000000000000000000000000000008152600401610ec090611c73565b60405180910390fd5b8073ffffffffffffffffffffffffffffffffffffffff166108fc839081150290604051600060405180830381858888f19350505050158015610f0f573d6000803e3d6000fd5b508160036000828254610f2291906118a6565b925050819055508073ffffffffffffffffffffffffffffffffffffffff167f1d72140a7ccdb496bef50918d2598dd7edefb514f70e6d4beb528cbd16c80b7d83604051610f6f91906113a4565b60405180910390a25050565b60035481565b610f896111da565b60011515600460009054906101000a900460ff16151503610fc4576000600460006101000a81548160ff021916908315150217905550610fe0565b6001600460006101000a81548160ff0219169083151502179055505b565b600460009054906101000a900460ff1615611032576040517f08c379a000000000000000000000000000000000000000000000000000000000815260040161102990611b2f565b60405180910390fd5b60003411611075576040517f08c379a000000000000000000000000000000000000000000000000000000000815260040161106c90611cdf565b60405180910390fd5b34600160006110826111d2565b73ffffffffffffffffffffffffffffffffffffffff1673ffffffffffffffffffffffffffffffffffffffff16815260200190815260200160002060008282546110cb9190611946565b9250508190555034600560008282546110e49190611946565b925050819055506001600260006110f96111d2565b73ffffffffffffffffffffffffffffffffffffffff1673ffffffffffffffffffffffffffffffffffffffff16815260200190815260200160002060040160006101000a81548160ff021916908315150217905550565b6111576111da565b600073ffffffffffffffffffffffffffffffffffffffff168173ffffffffffffffffffffffffffffffffffffffff16036111c6576040517f08c379a00000000000000000000000000000000000000000000000000000000081526004016111bd90611d71565b60405180910390fd5b6111cf81611258565b50565b600033905090565b6111e26111d2565b73ffffffffffffffffffffffffffffffffffffffff16611200610e53565b73ffffffffffffffffffffffffffffffffffffffff1614611256576040517f08c379a000000000000000000000000000000000000000000000000000000000815260040161124d90611ddd565b60405180910390fd5b565b60008060009054906101000a900473ffffffffffffffffffffffffffffffffffffffff169050816000806101000a81548173ffffffffffffffffffffffffffffffffffffffff021916908373ffffffffffffffffffffffffffffffffffffffff1602179055508173ffffffffffffffffffffffffffffffffffffffff168173ffffffffffffffffffffffffffffffffffffffff167f8be0079c531659141344cd1fd0a4f28419497f9722a3daafe3b4186f6b6457e060405160405180910390a35050565b508054600082559060005260206000209081019061133a919061136e565b50565b6040518060a00160405280606081526020016060815260200160608152602001606081526020016000151581525090565b5b8082111561138757600081600090555060010161136f565b5090565b6000819050919050565b61139e8161138b565b82525050565b60006020820190506113b96000830184611395565b92915050565b600080fd5b6113cd8161138b565b81146113d857600080fd5b50565b6000813590506113ea816113c4565b92915050565b600073ffffffffffffffffffffffffffffffffffffffff82169050919050565b600061141b826113f0565b9050919050565b61142b81611410565b811461143657600080fd5b50565b60008135905061144881611422565b92915050565b60008060408385031215611465576114646113bf565b5b6000611473858286016113db565b925050602061148485828601611439565b9150509250929050565b6000611499826113f0565b9050919050565b6114a98161148e565b81146114b457600080fd5b50565b6000813590506114c6816114a0565b92915050565b600080600080600060a086880312156114e8576114e76113bf565b5b60006114f6888289016114b7565b9550506020611507888289016113db565b9450506040611518888289016113db565b9350506060611529888289016113db565b925050608061153a888289016113db565b9150509295509295909350565b60006020828403121561155d5761155c6113bf565b5b600061156b848285016114b7565b91505092915050565b600081519050919050565b600082825260208201905092915050565b6000819050602082019050919050565b6115a98161138b565b82525050565b60006115bb83836115a0565b60208301905092915050565b6000602082019050919050565b60006115df82611574565b6115e9818561157f565b93506115f483611590565b8060005b8381101561162557815161160c88826115af565b9750611617836115c7565b9250506001810190506115f8565b5085935050505092915050565b60008115159050919050565b61164781611632565b82525050565b600060a083016000830151848203600086015261166a82826115d4565b9150506020830151848203602086015261168482826115d4565b9150506040830151848203604086015261169e82826115d4565b915050606083015184820360608601526116b882826115d4565b91505060808301516116cd608086018261163e565b508091505092915050565b600060208201905081810360008301526116f2818461164d565b905092915050565b61170381611632565b82525050565b600060208201905061171e60008301846116fa565b92915050565b6000806040838503121561173b5761173a6113bf565b5b600061174985828601611439565b925050602061175a858286016113db565b9150509250929050565b61176d8161148e565b82525050565b60006020820190506117886000830184611764565b92915050565b600082825260208201905092915050565b7f436f6e7472616374206973205061757365640000000000000000000000000000600082015250565b60006117d560128361178e565b91506117e08261179f565b602082019050919050565b60006020820190508181036000830152611804816117c8565b9050919050565b7f496e73756666696369656e7420546f6b656e7320746f20576974684472617700600082015250565b6000611841601f8361178e565b915061184c8261180b565b602082019050919050565b6000602082019050818103600083015261187081611834565b9050919050565b7f4e487b7100000000000000000000000000000000000000000000000000000000600052601160045260246000fd5b60006118b18261138b565b91506118bc8361138b565b92508282039050818111156118d4576118d3611877565b5b92915050565b7f496e76616c696420416d6f756e74000000000000000000000000000000000000600082015250565b6000611910600e8361178e565b915061191b826118da565b602082019050919050565b6000602082019050818103600083015261193f81611903565b9050919050565b60006119518261138b565b915061195c8361138b565b925082820190508082111561197457611973611877565b5b92915050565b7f4e6f205374616b656420616d6f756e7420616761696e7374207468697320757360008201527f6572000000000000000000000000000000000000000000000000000000000000602082015250565b60006119d660228361178e565b91506119e18261197a565b604082019050919050565b60006020820190508181036000830152611a05816119c9565b9050919050565b6000608082019050611a216000830187611395565b611a2e6020830186611395565b611a3b6040830185611395565b611a486060830184611395565b95945050505050565b7f556e7374616b6520746f6b656e73206265666f72652064656c6574696e67205360008201527f7461742773000000000000000000000000000000000000000000000000000000602082015250565b6000611aad60258361178e565b9150611ab882611a51565b604082019050919050565b60006020820190508181036000830152611adc81611aa0565b9050919050565b7f5374616b696e6720697320706175736564000000000000000000000000000000600082015250565b6000611b1960118361178e565b9150611b2482611ae3565b602082019050919050565b60006020820190508181036000830152611b4881611b0c565b9050919050565b7f54726561737572792068617320496e73756666696369656e7420546f6b656e73600082015250565b6000611b8560208361178e565b9150611b9082611b4f565b602082019050919050565b60006020820190508181036000830152611bb481611b78565b9050919050565b7f5573657220446f657327742068617665205374616b6564000000000000000000600082015250565b6000611bf160178361178e565b9150611bfc82611bbb565b602082019050919050565b60006020820190508181036000830152611c2081611be4565b9050919050565b7f496e73756666696369656e742046756e647320746f2057697468647261770000600082015250565b6000611c5d601e8361178e565b9150611c6882611c27565b602082019050919050565b60006020820190508181036000830152611c8c81611c50565b9050919050565b7f43616e6e6f74207374616b652030000000000000000000000000000000000000600082015250565b6000611cc9600e8361178e565b9150611cd482611c93565b602082019050919050565b60006020820190508181036000830152611cf881611cbc565b9050919050565b7f4f776e61626c653a206e6577206f776e657220697320746865207a65726f206160008201527f6464726573730000000000000000000000000000000000000000000000000000602082015250565b6000611d5b60268361178e565b9150611d6682611cff565b604082019050919050565b60006020820190508181036000830152611d8a81611d4e565b9050919050565b7f4f776e61626c653a2063616c6c6572206973206e6f7420746865206f776e6572600082015250565b6000611dc760208361178e565b9150611dd282611d91565b602082019050919050565b60006020820190508181036000830152611df681611dba565b905091905056fea264697066735822122048d6b7b38305a227f4b56e09db2be0a6c75959fdb1c80b6ba328a4f6a6e7317264736f6c63430008100033",
					"opcodes": "PUSH1 0x80 PUSH1 0x40 MSTORE CALLVALUE DUP1 ISZERO PUSH2 0x10 JUMPI PUSH1 0x0 DUP1 REVERT JUMPDEST POP PUSH2 0x2D PUSH2 0x22 PUSH2 0x32 PUSH1 0x20 SHL PUSH1 0x20 SHR JUMP JUMPDEST PUSH2 0x3A PUSH1 0x20 SHL PUSH1 0x20 SHR JUMP JUMPDEST PUSH2 0xFE JUMP JUMPDEST PUSH1 0x0 CALLER SWAP1 POP SWAP1 JUMP JUMPDEST PUSH1 0x0 DUP1 PUSH1 0x0 SWAP1 SLOAD SWAP1 PUSH2 0x100 EXP SWAP1 DIV PUSH20 0xFFFFFFFFFFFFFFFFFFFFFFFFFFFFFFFFFFFFFFFF AND SWAP1 POP DUP2 PUSH1 0x0 DUP1 PUSH2 0x100 EXP DUP2 SLOAD DUP2 PUSH20 0xFFFFFFFFFFFFFFFFFFFFFFFFFFFFFFFFFFFFFFFF MUL NOT AND SWAP1 DUP4 PUSH20 0xFFFFFFFFFFFFFFFFFFFFFFFFFFFFFFFFFFFFFFFF AND MUL OR SWAP1 SSTORE POP DUP2 PUSH20 0xFFFFFFFFFFFFFFFFFFFFFFFFFFFFFFFFFFFFFFFF AND DUP2 PUSH20 0xFFFFFFFFFFFFFFFFFFFFFFFFFFFFFFFFFFFFFFFF AND PUSH32 0x8BE0079C531659141344CD1FD0A4F28419497F9722A3DAAFE3B4186F6B6457E0 PUSH1 0x40 MLOAD PUSH1 0x40 MLOAD DUP1 SWAP2 SUB SWAP1 LOG3 POP POP JUMP JUMPDEST PUSH2 0x1E33 DUP1 PUSH2 0x10D PUSH1 0x0 CODECOPY PUSH1 0x0 RETURN INVALID PUSH1 0x80 PUSH1 0x40 MSTORE PUSH1 0x4 CALLDATASIZE LT PUSH2 0x102 JUMPI PUSH1 0x0 CALLDATALOAD PUSH1 0xE0 SHR DUP1 PUSH4 0x715018A6 GT PUSH2 0x95 JUMPI DUP1 PUSH4 0x8E080DEE GT PUSH2 0x64 JUMPI DUP1 PUSH4 0x8E080DEE EQ PUSH2 0x347 JUMPI DUP1 PUSH4 0x96CAD0DB EQ PUSH2 0x370 JUMPI DUP1 PUSH4 0xA405B048 EQ PUSH2 0x39B JUMPI DUP1 PUSH4 0xCE46643B EQ PUSH2 0x3B2 JUMPI DUP1 PUSH4 0xF2FDE38B EQ PUSH2 0x3BC JUMPI PUSH2 0x157 JUMP JUMPDEST DUP1 PUSH4 0x715018A6 EQ PUSH2 0x29F JUMPI DUP1 PUSH4 0x7A766460 EQ PUSH2 0x2B6 JUMPI DUP1 PUSH4 0x82723192 EQ PUSH2 0x2F3 JUMPI DUP1 PUSH4 0x8DA5CB5B EQ PUSH2 0x31C JUMPI PUSH2 0x157 JUMP JUMPDEST DUP1 PUSH4 0x3AE73259 GT PUSH2 0xD1 JUMPI DUP1 PUSH4 0x3AE73259 EQ PUSH2 0x1E1 JUMPI DUP1 PUSH4 0x52B391B2 EQ PUSH2 0x20C JUMPI DUP1 PUSH4 0x5C975ABB EQ PUSH2 0x249 JUMPI DUP1 PUSH4 0x6F9FB98A EQ PUSH2 0x274 JUMPI PUSH2 0x157 JUMP JUMPDEST DUP1 PUSH4 0x6608C3C EQ PUSH2 0x15C JUMPI DUP1 PUSH4 0xD8F7614 EQ PUSH2 0x185 JUMPI DUP1 PUSH4 0x1241A45A EQ PUSH2 0x18F JUMPI DUP1 PUSH4 0x1A2CF140 EQ PUSH2 0x1B8 JUMPI PUSH2 0x157 JUMP JUMPDEST CALLDATASIZE PUSH2 0x157 JUMPI CALLER PUSH20 0xFFFFFFFFFFFFFFFFFFFFFFFFFFFFFFFFFFFFFFFF AND PUSH32 0x1E57E3BB474320BE3D2C77138F75B7C3941292D647F5F9634E33A8E94E0E069B CALLVALUE PUSH1 0x40 MLOAD PUSH2 0x14D SWAP2 SWAP1 PUSH2 0x13A4 JUMP JUMPDEST PUSH1 0x40 MLOAD DUP1 SWAP2 SUB SWAP1 LOG2 STOP JUMPDEST PUSH1 0x0 DUP1 REVERT JUMPDEST CALLVALUE DUP1 ISZERO PUSH2 0x168 JUMPI PUSH1 0x0 DUP1 REVERT JUMPDEST POP PUSH2 0x183 PUSH1 0x4 DUP1 CALLDATASIZE SUB DUP2 ADD SWAP1 PUSH2 0x17E SWAP2 SWAP1 PUSH2 0x144E JUMP JUMPDEST PUSH2 0x3E5 JUMP JUMPDEST STOP JUMPDEST PUSH2 0x18D PUSH2 0x5D4 JUMP JUMPDEST STOP JUMPDEST CALLVALUE DUP1 ISZERO PUSH2 0x19B JUMPI PUSH1 0x0 DUP1 REVERT JUMPDEST POP PUSH2 0x1B6 PUSH1 0x4 DUP1 CALLDATASIZE SUB DUP2 ADD SWAP1 PUSH2 0x1B1 SWAP2 SWAP1 PUSH2 0x14CC JUMP JUMPDEST PUSH2 0x63A JUMP JUMPDEST STOP JUMPDEST CALLVALUE DUP1 ISZERO PUSH2 0x1C4 JUMPI PUSH1 0x0 DUP1 REVERT JUMPDEST POP PUSH2 0x1DF PUSH1 0x4 DUP1 CALLDATASIZE SUB DUP2 ADD SWAP1 PUSH2 0x1DA SWAP2 SWAP1 PUSH2 0x1547 JUMP JUMPDEST PUSH2 0x8C3 JUMP JUMPDEST STOP JUMPDEST CALLVALUE DUP1 ISZERO PUSH2 0x1ED JUMPI PUSH1 0x0 DUP1 REVERT JUMPDEST POP PUSH2 0x1F6 PUSH2 0xA29 JUMP JUMPDEST PUSH1 0x40 MLOAD PUSH2 0x203 SWAP2 SWAP1 PUSH2 0x13A4 JUMP JUMPDEST PUSH1 0x40 MLOAD DUP1 SWAP2 SUB SWAP1 RETURN JUMPDEST CALLVALUE DUP1 ISZERO PUSH2 0x218 JUMPI PUSH1 0x0 DUP1 REVERT JUMPDEST POP PUSH2 0x233 PUSH1 0x4 DUP1 CALLDATASIZE SUB DUP2 ADD SWAP1 PUSH2 0x22E SWAP2 SWAP1 PUSH2 0x1547 JUMP JUMPDEST PUSH2 0xA2F JUMP JUMPDEST PUSH1 0x40 MLOAD PUSH2 0x240 SWAP2 SWAP1 PUSH2 0x16D8 JUMP JUMPDEST PUSH1 0x40 MLOAD DUP1 SWAP2 SUB SWAP1 RETURN JUMPDEST CALLVALUE DUP1 ISZERO PUSH2 0x255 JUMPI PUSH1 0x0 DUP1 REVERT JUMPDEST POP PUSH2 0x25E PUSH2 0xC03 JUMP JUMPDEST PUSH1 0x40 MLOAD PUSH2 0x26B SWAP2 SWAP1 PUSH2 0x1709 JUMP JUMPDEST PUSH1 0x40 MLOAD DUP1 SWAP2 SUB SWAP1 RETURN JUMPDEST CALLVALUE DUP1 ISZERO PUSH2 0x280 JUMPI PUSH1 0x0 DUP1 REVERT JUMPDEST POP PUSH2 0x289 PUSH2 0xC16 JUMP JUMPDEST PUSH1 0x40 MLOAD PUSH2 0x296 SWAP2 SWAP1 PUSH2 0x13A4 JUMP JUMPDEST PUSH1 0x40 MLOAD DUP1 SWAP2 SUB SWAP1 RETURN JUMPDEST CALLVALUE DUP1 ISZERO PUSH2 0x2AB JUMPI PUSH1 0x0 DUP1 REVERT JUMPDEST POP PUSH2 0x2B4 PUSH2 0xC1E JUMP JUMPDEST STOP JUMPDEST CALLVALUE DUP1 ISZERO PUSH2 0x2C2 JUMPI PUSH1 0x0 DUP1 REVERT JUMPDEST POP PUSH2 0x2DD PUSH1 0x4 DUP1 CALLDATASIZE SUB DUP2 ADD SWAP1 PUSH2 0x2D8 SWAP2 SWAP1 PUSH2 0x1547 JUMP JUMPDEST PUSH2 0xC32 JUMP JUMPDEST PUSH1 0x40 MLOAD PUSH2 0x2EA SWAP2 SWAP1 PUSH2 0x13A4 JUMP JUMPDEST PUSH1 0x40 MLOAD DUP1 SWAP2 SUB SWAP1 RETURN JUMPDEST CALLVALUE DUP1 ISZERO PUSH2 0x2FF JUMPI PUSH1 0x0 DUP1 REVERT JUMPDEST POP PUSH2 0x31A PUSH1 0x4 DUP1 CALLDATASIZE SUB DUP2 ADD SWAP1 PUSH2 0x315 SWAP2 SWAP1 PUSH2 0x1724 JUMP JUMPDEST PUSH2 0xC7B JUMP JUMPDEST STOP JUMPDEST CALLVALUE DUP1 ISZERO PUSH2 0x328 JUMPI PUSH1 0x0 DUP1 REVERT JUMPDEST POP PUSH2 0x331 PUSH2 0xE53 JUMP JUMPDEST PUSH1 0x40 MLOAD PUSH2 0x33E SWAP2 SWAP1 PUSH2 0x1773 JUMP JUMPDEST PUSH1 0x40 MLOAD DUP1 SWAP2 SUB SWAP1 RETURN JUMPDEST CALLVALUE DUP1 ISZERO PUSH2 0x353 JUMPI PUSH1 0x0 DUP1 REVERT JUMPDEST POP PUSH2 0x36E PUSH1 0x4 DUP1 CALLDATASIZE SUB DUP2 ADD SWAP1 PUSH2 0x369 SWAP2 SWAP1 PUSH2 0x144E JUMP JUMPDEST PUSH2 0xE7C JUMP JUMPDEST STOP JUMPDEST CALLVALUE DUP1 ISZERO PUSH2 0x37C JUMPI PUSH1 0x0 DUP1 REVERT JUMPDEST POP PUSH2 0x385 PUSH2 0xF7B JUMP JUMPDEST PUSH1 0x40 MLOAD PUSH2 0x392 SWAP2 SWAP1 PUSH2 0x13A4 JUMP JUMPDEST PUSH1 0x40 MLOAD DUP1 SWAP2 SUB SWAP1 RETURN JUMPDEST CALLVALUE DUP1 ISZERO PUSH2 0x3A7 JUMPI PUSH1 0x0 DUP1 REVERT JUMPDEST POP PUSH2 0x3B0 PUSH2 0xF81 JUMP JUMPDEST STOP JUMPDEST PUSH2 0x3BA PUSH2 0xFE2 JUMP JUMPDEST STOP JUMPDEST CALLVALUE DUP1 ISZERO PUSH2 0x3C8 JUMPI PUSH1 0x0 DUP1 REVERT JUMPDEST POP PUSH2 0x3E3 PUSH1 0x4 DUP1 CALLDATASIZE SUB DUP2 ADD SWAP1 PUSH2 0x3DE SWAP2 SWAP1 PUSH2 0x1547 JUMP JUMPDEST PUSH2 0x114F JUMP JUMPDEST STOP JUMPDEST PUSH1 0x4 PUSH1 0x0 SWAP1 SLOAD SWAP1 PUSH2 0x100 EXP SWAP1 DIV PUSH1 0xFF AND ISZERO PUSH2 0x435 JUMPI PUSH1 0x40 MLOAD PUSH32 0x8C379A000000000000000000000000000000000000000000000000000000000 DUP2 MSTORE PUSH1 0x4 ADD PUSH2 0x42C SWAP1 PUSH2 0x17EB JUMP JUMPDEST PUSH1 0x40 MLOAD DUP1 SWAP2 SUB SWAP1 REVERT JUMPDEST DUP2 PUSH1 0x1 PUSH1 0x0 PUSH2 0x442 PUSH2 0x11D2 JUMP JUMPDEST PUSH20 0xFFFFFFFFFFFFFFFFFFFFFFFFFFFFFFFFFFFFFFFF AND PUSH20 0xFFFFFFFFFFFFFFFFFFFFFFFFFFFFFFFFFFFFFFFF AND DUP2 MSTORE PUSH1 0x20 ADD SWAP1 DUP2 MSTORE PUSH1 0x20 ADD PUSH1 0x0 KECCAK256 SLOAD LT ISZERO PUSH2 0x4BE JUMPI PUSH1 0x40 MLOAD PUSH32 0x8C379A000000000000000000000000000000000000000000000000000000000 DUP2 MSTORE PUSH1 0x4 ADD PUSH2 0x4B5 SWAP1 PUSH2 0x1857 JUMP JUMPDEST PUSH1 0x40 MLOAD DUP1 SWAP2 SUB SWAP1 REVERT JUMPDEST DUP1 PUSH20 0xFFFFFFFFFFFFFFFFFFFFFFFFFFFFFFFFFFFFFFFF AND PUSH2 0x8FC DUP4 SWAP1 DUP2 ISZERO MUL SWAP1 PUSH1 0x40 MLOAD PUSH1 0x0 PUSH1 0x40 MLOAD DUP1 DUP4 SUB DUP2 DUP6 DUP9 DUP9 CALL SWAP4 POP POP POP POP ISZERO DUP1 ISZERO PUSH2 0x504 JUMPI RETURNDATASIZE PUSH1 0x0 DUP1 RETURNDATACOPY RETURNDATASIZE PUSH1 0x0 REVERT JUMPDEST POP DUP2 PUSH1 0x1 PUSH1 0x0 PUSH2 0x512 PUSH2 0x11D2 JUMP JUMPDEST PUSH20 0xFFFFFFFFFFFFFFFFFFFFFFFFFFFFFFFFFFFFFFFF AND PUSH20 0xFFFFFFFFFFFFFFFFFFFFFFFFFFFFFFFFFFFFFFFF AND DUP2 MSTORE PUSH1 0x20 ADD SWAP1 DUP2 MSTORE PUSH1 0x20 ADD PUSH1 0x0 KECCAK256 PUSH1 0x0 DUP3 DUP3 SLOAD PUSH2 0x55B SWAP2 SWAP1 PUSH2 0x18A6 JUMP JUMPDEST SWAP3 POP POP DUP2 SWAP1 SSTORE POP DUP2 PUSH1 0x5 PUSH1 0x0 DUP3 DUP3 SLOAD PUSH2 0x574 SWAP2 SWAP1 PUSH2 0x18A6 JUMP JUMPDEST SWAP3 POP POP DUP2 SWAP1 SSTORE POP PUSH2 0x583 PUSH2 0x11D2 JUMP JUMPDEST PUSH20 0xFFFFFFFFFFFFFFFFFFFFFFFFFFFFFFFFFFFFFFFF AND PUSH32 0x1D72140A7CCDB496BEF50918D2598DD7EDEFB514F70E6D4BEB528CBD16C80B7D DUP4 PUSH1 0x40 MLOAD PUSH2 0x5C8 SWAP2 SWAP1 PUSH2 0x13A4 JUMP JUMPDEST PUSH1 0x40 MLOAD DUP1 SWAP2 SUB SWAP1 LOG2 POP POP JUMP JUMPDEST PUSH2 0x5DC PUSH2 0x11DA JUMP JUMPDEST PUSH1 0x0 CALLVALUE GT PUSH2 0x61F JUMPI PUSH1 0x40 MLOAD PUSH32 0x8C379A000000000000000000000000000000000000000000000000000000000 DUP2 MSTORE PUSH1 0x4 ADD PUSH2 0x616 SWAP1 PUSH2 0x1926 JUMP JUMPDEST PUSH1 0x40 MLOAD DUP1 SWAP2 SUB SWAP1 REVERT JUMPDEST CALLVALUE PUSH1 0x3 PUSH1 0x0 DUP3 DUP3 SLOAD PUSH2 0x631 SWAP2 SWAP1 PUSH2 0x1946 JUMP JUMPDEST SWAP3 POP POP DUP2 SWAP1 SSTORE POP JUMP JUMPDEST PUSH2 0x642 PUSH2 0x11DA JUMP JUMPDEST PUSH1 0x0 PUSH1 0x1 PUSH1 0x0 DUP8 PUSH20 0xFFFFFFFFFFFFFFFFFFFFFFFFFFFFFFFFFFFFFFFF AND PUSH20 0xFFFFFFFFFFFFFFFFFFFFFFFFFFFFFFFFFFFFFFFF AND DUP2 MSTORE PUSH1 0x20 ADD SWAP1 DUP2 MSTORE PUSH1 0x20 ADD PUSH1 0x0 KECCAK256 SLOAD GT PUSH2 0x6C4 JUMPI PUSH1 0x40 MLOAD PUSH32 0x8C379A000000000000000000000000000000000000000000000000000000000 DUP2 MSTORE PUSH1 0x4 ADD PUSH2 0x6BB SWAP1 PUSH2 0x19EC JUMP JUMPDEST PUSH1 0x40 MLOAD DUP1 SWAP2 SUB SWAP1 REVERT JUMPDEST PUSH1 0x2 PUSH1 0x0 DUP7 PUSH20 0xFFFFFFFFFFFFFFFFFFFFFFFFFFFFFFFFFFFFFFFF AND PUSH20 0xFFFFFFFFFFFFFFFFFFFFFFFFFFFFFFFFFFFFFFFF AND DUP2 MSTORE PUSH1 0x20 ADD SWAP1 DUP2 MSTORE PUSH1 0x20 ADD PUSH1 0x0 KECCAK256 PUSH1 0x0 ADD DUP5 SWAP1 DUP1 PUSH1 0x1 DUP2 SLOAD ADD DUP1 DUP3 SSTORE DUP1 SWAP2 POP POP PUSH1 0x1 SWAP1 SUB SWAP1 PUSH1 0x0 MSTORE PUSH1 0x20 PUSH1 0x0 KECCAK256 ADD PUSH1 0x0 SWAP1 SWAP2 SWAP1 SWAP2 SWAP1 SWAP2 POP SSTORE PUSH1 0x2 PUSH1 0x0 DUP7 PUSH20 0xFFFFFFFFFFFFFFFFFFFFFFFFFFFFFFFFFFFFFFFF AND PUSH20 0xFFFFFFFFFFFFFFFFFFFFFFFFFFFFFFFFFFFFFFFF AND DUP2 MSTORE PUSH1 0x20 ADD SWAP1 DUP2 MSTORE PUSH1 0x20 ADD PUSH1 0x0 KECCAK256 PUSH1 0x1 ADD DUP4 SWAP1 DUP1 PUSH1 0x1 DUP2 SLOAD ADD DUP1 DUP3 SSTORE DUP1 SWAP2 POP POP PUSH1 0x1 SWAP1 SUB SWAP1 PUSH1 0x0 MSTORE PUSH1 0x20 PUSH1 0x0 KECCAK256 ADD PUSH1 0x0 SWAP1 SWAP2 SWAP1 SWAP2 SWAP1 SWAP2 POP SSTORE PUSH1 0x2 PUSH1 0x0 DUP7 PUSH20 0xFFFFFFFFFFFFFFFFFFFFFFFFFFFFFFFFFFFFFFFF AND PUSH20 0xFFFFFFFFFFFFFFFFFFFFFFFFFFFFFFFFFFFFFFFF AND DUP2 MSTORE PUSH1 0x20 ADD SWAP1 DUP2 MSTORE PUSH1 0x20 ADD PUSH1 0x0 KECCAK256 PUSH1 0x2 ADD DUP3 SWAP1 DUP1 PUSH1 0x1 DUP2 SLOAD ADD DUP1 DUP3 SSTORE DUP1 SWAP2 POP POP PUSH1 0x1 SWAP1 SUB SWAP1 PUSH1 0x0 MSTORE PUSH1 0x20 PUSH1 0x0 KECCAK256 ADD PUSH1 0x0 SWAP1 SWAP2 SWAP1 SWAP2 SWAP1 SWAP2 POP SSTORE PUSH1 0x2 PUSH1 0x0 DUP7 PUSH20 0xFFFFFFFFFFFFFFFFFFFFFFFFFFFFFFFFFFFFFFFF AND PUSH20 0xFFFFFFFFFFFFFFFFFFFFFFFFFFFFFFFFFFFFFFFF AND DUP2 MSTORE PUSH1 0x20 ADD SWAP1 DUP2 MSTORE PUSH1 0x20 ADD PUSH1 0x0 KECCAK256 PUSH1 0x3 ADD DUP2 SWAP1 DUP1 PUSH1 0x1 DUP2 SLOAD ADD DUP1 DUP3 SSTORE DUP1 SWAP2 POP POP PUSH1 0x1 SWAP1 SUB SWAP1 PUSH1 0x0 MSTORE PUSH1 0x20 PUSH1 0x0 KECCAK256 ADD PUSH1 0x0 SWAP1 SWAP2 SWAP1 SWAP2 SWAP1 SWAP2 POP SSTORE DUP5 PUSH20 0xFFFFFFFFFFFFFFFFFFFFFFFFFFFFFFFFFFFFFFFF AND PUSH32 0xB4DC03F150E6D614B4A64B5AA6600A4F413726A20001138DF59ECC01BB8F7983 DUP6 DUP6 DUP6 DUP6 PUSH1 0x40 MLOAD PUSH2 0x8B4 SWAP5 SWAP4 SWAP3 SWAP2 SWAP1 PUSH2 0x1A0C JUMP JUMPDEST PUSH1 0x40 MLOAD DUP1 SWAP2 SUB SWAP1 LOG2 POP POP POP POP POP JUMP JUMPDEST PUSH2 0x8CB PUSH2 0x11DA JUMP JUMPDEST PUSH1 0x0 PUSH1 0x1 PUSH1 0x0 DUP4 PUSH20 0xFFFFFFFFFFFFFFFFFFFFFFFFFFFFFFFFFFFFFFFF AND PUSH20 0xFFFFFFFFFFFFFFFFFFFFFFFFFFFFFFFFFFFFFFFF AND DUP2 MSTORE PUSH1 0x20 ADD SWAP1 DUP2 MSTORE PUSH1 0x20 ADD PUSH1 0x0 KECCAK256 SLOAD EQ PUSH2 0x94D JUMPI PUSH1 0x40 MLOAD PUSH32 0x8C379A000000000000000000000000000000000000000000000000000000000 DUP2 MSTORE PUSH1 0x4 ADD PUSH2 0x944 SWAP1 PUSH2 0x1AC3 JUMP JUMPDEST PUSH1 0x40 MLOAD DUP1 SWAP2 SUB SWAP1 REVERT JUMPDEST PUSH1 0x2 PUSH1 0x0 DUP3 PUSH20 0xFFFFFFFFFFFFFFFFFFFFFFFFFFFFFFFFFFFFFFFF AND PUSH20 0xFFFFFFFFFFFFFFFFFFFFFFFFFFFFFFFFFFFFFFFF AND DUP2 MSTORE PUSH1 0x20 ADD SWAP1 DUP2 MSTORE PUSH1 0x20 ADD PUSH1 0x0 KECCAK256 PUSH1 0x0 DUP1 DUP3 ADD PUSH1 0x0 PUSH2 0x99D SWAP2 SWAP1 PUSH2 0x131C JUMP JUMPDEST PUSH1 0x1 DUP3 ADD PUSH1 0x0 PUSH2 0x9AD SWAP2 SWAP1 PUSH2 0x131C JUMP JUMPDEST PUSH1 0x2 DUP3 ADD PUSH1 0x0 PUSH2 0x9BD SWAP2 SWAP1 PUSH2 0x131C JUMP JUMPDEST PUSH1 0x3 DUP3 ADD PUSH1 0x0 PUSH2 0x9CD SWAP2 SWAP1 PUSH2 0x131C JUMP JUMPDEST PUSH1 0x4 DUP3 ADD PUSH1 0x0 PUSH2 0x100 EXP DUP2 SLOAD SWAP1 PUSH1 0xFF MUL NOT AND SWAP1 SSTORE POP POP DUP1 PUSH20 0xFFFFFFFFFFFFFFFFFFFFFFFFFFFFFFFFFFFFFFFF AND PUSH32 0x9E9385D28C8138C95CB67F6EB795218B4839CAE3FF4305A567F01395B9317C9F PUSH1 0x40 MLOAD PUSH1 0x40 MLOAD DUP1 SWAP2 SUB SWAP1 LOG2 POP JUMP JUMPDEST PUSH1 0x5 SLOAD DUP2 JUMP JUMPDEST PUSH2 0xA37 PUSH2 0x133D JUMP JUMPDEST PUSH1 0x2 PUSH1 0x0 DUP4 PUSH20 0xFFFFFFFFFFFFFFFFFFFFFFFFFFFFFFFFFFFFFFFF AND PUSH20 0xFFFFFFFFFFFFFFFFFFFFFFFFFFFFFFFFFFFFFFFF AND DUP2 MSTORE PUSH1 0x20 ADD SWAP1 DUP2 MSTORE PUSH1 0x20 ADD PUSH1 0x0 KECCAK256 PUSH1 0x40 MLOAD DUP1 PUSH1 0xA0 ADD PUSH1 0x40 MSTORE SWAP1 DUP2 PUSH1 0x0 DUP3 ADD DUP1 SLOAD DUP1 PUSH1 0x20 MUL PUSH1 0x20 ADD PUSH1 0x40 MLOAD SWAP1 DUP2 ADD PUSH1 0x40 MSTORE DUP1 SWAP3 SWAP2 SWAP1 DUP2 DUP2 MSTORE PUSH1 0x20 ADD DUP3 DUP1 SLOAD DUP1 ISZERO PUSH2 0xAD0 JUMPI PUSH1 0x20 MUL DUP3 ADD SWAP2 SWAP1 PUSH1 0x0 MSTORE PUSH1 0x20 PUSH1 0x0 KECCAK256 SWAP1 JUMPDEST DUP2 SLOAD DUP2 MSTORE PUSH1 0x20 ADD SWAP1 PUSH1 0x1 ADD SWAP1 DUP1 DUP4 GT PUSH2 0xABC JUMPI JUMPDEST POP POP POP POP POP DUP2 MSTORE PUSH1 0x20 ADD PUSH1 0x1 DUP3 ADD DUP1 SLOAD DUP1 PUSH1 0x20 MUL PUSH1 0x20 ADD PUSH1 0x40 MLOAD SWAP1 DUP2 ADD PUSH1 0x40 MSTORE DUP1 SWAP3 SWAP2 SWAP1 DUP2 DUP2 MSTORE PUSH1 0x20 ADD DUP3 DUP1 SLOAD DUP1 ISZERO PUSH2 0xB28 JUMPI PUSH1 0x20 MUL DUP3 ADD SWAP2 SWAP1 PUSH1 0x0 MSTORE PUSH1 0x20 PUSH1 0x0 KECCAK256 SWAP1 JUMPDEST DUP2 SLOAD DUP2 MSTORE PUSH1 0x20 ADD SWAP1 PUSH1 0x1 ADD SWAP1 DUP1 DUP4 GT PUSH2 0xB14 JUMPI JUMPDEST POP POP POP POP POP DUP2 MSTORE PUSH1 0x20 ADD PUSH1 0x2 DUP3 ADD DUP1 SLOAD DUP1 PUSH1 0x20 MUL PUSH1 0x20 ADD PUSH1 0x40 MLOAD SWAP1 DUP2 ADD PUSH1 0x40 MSTORE DUP1 SWAP3 SWAP2 SWAP1 DUP2 DUP2 MSTORE PUSH1 0x20 ADD DUP3 DUP1 SLOAD DUP1 ISZERO PUSH2 0xB80 JUMPI PUSH1 0x20 MUL DUP3 ADD SWAP2 SWAP1 PUSH1 0x0 MSTORE PUSH1 0x20 PUSH1 0x0 KECCAK256 SWAP1 JUMPDEST DUP2 SLOAD DUP2 MSTORE PUSH1 0x20 ADD SWAP1 PUSH1 0x1 ADD SWAP1 DUP1 DUP4 GT PUSH2 0xB6C JUMPI JUMPDEST POP POP POP POP POP DUP2 MSTORE PUSH1 0x20 ADD PUSH1 0x3 DUP3 ADD DUP1 SLOAD DUP1 PUSH1 0x20 MUL PUSH1 0x20 ADD PUSH1 0x40 MLOAD SWAP1 DUP2 ADD PUSH1 0x40 MSTORE DUP1 SWAP3 SWAP2 SWAP1 DUP2 DUP2 MSTORE PUSH1 0x20 ADD DUP3 DUP1 SLOAD DUP1 ISZERO PUSH2 0xBD8 JUMPI PUSH1 0x20 MUL DUP3 ADD SWAP2 SWAP1 PUSH1 0x0 MSTORE PUSH1 0x20 PUSH1 0x0 KECCAK256 SWAP1 JUMPDEST DUP2 SLOAD DUP2 MSTORE PUSH1 0x20 ADD SWAP1 PUSH1 0x1 ADD SWAP1 DUP1 DUP4 GT PUSH2 0xBC4 JUMPI JUMPDEST POP POP POP POP POP DUP2 MSTORE PUSH1 0x20 ADD PUSH1 0x4 DUP3 ADD PUSH1 0x0 SWAP1 SLOAD SWAP1 PUSH2 0x100 EXP SWAP1 DIV PUSH1 0xFF AND ISZERO ISZERO ISZERO ISZERO DUP2 MSTORE POP POP SWAP1 POP SWAP2 SWAP1 POP JUMP JUMPDEST PUSH1 0x4 PUSH1 0x0 SWAP1 SLOAD SWAP1 PUSH2 0x100 EXP SWAP1 DIV PUSH1 0xFF AND DUP2 JUMP JUMPDEST PUSH1 0x0 SELFBALANCE SWAP1 POP SWAP1 JUMP JUMPDEST PUSH2 0xC26 PUSH2 0x11DA JUMP JUMPDEST PUSH2 0xC30 PUSH1 0x0 PUSH2 0x1258 JUMP JUMPDEST JUMP JUMPDEST PUSH1 0x0 PUSH1 0x1 PUSH1 0x0 DUP4 PUSH20 0xFFFFFFFFFFFFFFFFFFFFFFFFFFFFFFFFFFFFFFFF AND PUSH20 0xFFFFFFFFFFFFFFFFFFFFFFFFFFFFFFFFFFFFFFFF AND DUP2 MSTORE PUSH1 0x20 ADD SWAP1 DUP2 MSTORE PUSH1 0x20 ADD PUSH1 0x0 KECCAK256 SLOAD SWAP1 POP SWAP2 SWAP1 POP JUMP JUMPDEST PUSH2 0xC83 PUSH2 0x11DA JUMP JUMPDEST PUSH1 0x4 PUSH1 0x0 SWAP1 SLOAD SWAP1 PUSH2 0x100 EXP SWAP1 DIV PUSH1 0xFF AND ISZERO PUSH2 0xCD3 JUMPI PUSH1 0x40 MLOAD PUSH32 0x8C379A000000000000000000000000000000000000000000000000000000000 DUP2 MSTORE PUSH1 0x4 ADD PUSH2 0xCCA SWAP1 PUSH2 0x1B2F JUMP JUMPDEST PUSH1 0x40 MLOAD DUP1 SWAP2 SUB SWAP1 REVERT JUMPDEST PUSH1 0x3 SLOAD DUP2 GT ISZERO PUSH2 0xD18 JUMPI PUSH1 0x40 MLOAD PUSH32 0x8C379A000000000000000000000000000000000000000000000000000000000 DUP2 MSTORE PUSH1 0x4 ADD PUSH2 0xD0F SWAP1 PUSH2 0x1B9B JUMP JUMPDEST PUSH1 0x40 MLOAD DUP1 SWAP2 SUB SWAP1 REVERT JUMPDEST PUSH1 0x0 PUSH1 0x1 PUSH1 0x0 PUSH2 0xD26 PUSH2 0x11D2 JUMP JUMPDEST PUSH20 0xFFFFFFFFFFFFFFFFFFFFFFFFFFFFFFFFFFFFFFFF AND PUSH20 0xFFFFFFFFFFFFFFFFFFFFFFFFFFFFFFFFFFFFFFFF AND DUP2 MSTORE PUSH1 0x20 ADD SWAP1 DUP2 MSTORE PUSH1 0x20 ADD PUSH1 0x0 KECCAK256 SLOAD GT PUSH2 0xDA1 JUMPI PUSH1 0x40 MLOAD PUSH32 0x8C379A000000000000000000000000000000000000000000000000000000000 DUP2 MSTORE PUSH1 0x4 ADD PUSH2 0xD98 SWAP1 PUSH2 0x1C07 JUMP JUMPDEST PUSH1 0x40 MLOAD DUP1 SWAP2 SUB SWAP1 REVERT JUMPDEST DUP2 PUSH20 0xFFFFFFFFFFFFFFFFFFFFFFFFFFFFFFFFFFFFFFFF AND PUSH2 0x8FC DUP3 SWAP1 DUP2 ISZERO MUL SWAP1 PUSH1 0x40 MLOAD PUSH1 0x0 PUSH1 0x40 MLOAD DUP1 DUP4 SUB DUP2 DUP6 DUP9 DUP9 CALL SWAP4 POP POP POP POP ISZERO DUP1 ISZERO PUSH2 0xDE7 JUMPI RETURNDATASIZE PUSH1 0x0 DUP1 RETURNDATACOPY RETURNDATASIZE PUSH1 0x0 REVERT JUMPDEST POP DUP1 PUSH1 0x3 PUSH1 0x0 DUP3 DUP3 SLOAD PUSH2 0xDFA SWAP2 SWAP1 PUSH2 0x18A6 JUMP JUMPDEST SWAP3 POP POP DUP2 SWAP1 SSTORE POP DUP2 PUSH20 0xFFFFFFFFFFFFFFFFFFFFFFFFFFFFFFFFFFFFFFFF AND PUSH32 0x1D72140A7CCDB496BEF50918D2598DD7EDEFB514F70E6D4BEB528CBD16C80B7D DUP3 PUSH1 0x40 MLOAD PUSH2 0xE47 SWAP2 SWAP1 PUSH2 0x13A4 JUMP JUMPDEST PUSH1 0x40 MLOAD DUP1 SWAP2 SUB SWAP1 LOG2 POP POP JUMP JUMPDEST PUSH1 0x0 DUP1 PUSH1 0x0 SWAP1 SLOAD SWAP1 PUSH2 0x100 EXP SWAP1 DIV PUSH20 0xFFFFFFFFFFFFFFFFFFFFFFFFFFFFFFFFFFFFFFFF AND SWAP1 POP SWAP1 JUMP JUMPDEST PUSH2 0xE84 PUSH2 0x11DA JUMP JUMPDEST DUP2 PUSH1 0x3 SLOAD LT ISZERO PUSH2 0xEC9 JUMPI PUSH1 0x40 MLOAD PUSH32 0x8C379A000000000000000000000000000000000000000000000000000000000 DUP2 MSTORE PUSH1 0x4 ADD PUSH2 0xEC0 SWAP1 PUSH2 0x1C73 JUMP JUMPDEST PUSH1 0x40 MLOAD DUP1 SWAP2 SUB SWAP1 REVERT JUMPDEST DUP1 PUSH20 0xFFFFFFFFFFFFFFFFFFFFFFFFFFFFFFFFFFFFFFFF AND PUSH2 0x8FC DUP4 SWAP1 DUP2 ISZERO MUL SWAP1 PUSH1 0x40 MLOAD PUSH1 0x0 PUSH1 0x40 MLOAD DUP1 DUP4 SUB DUP2 DUP6 DUP9 DUP9 CALL SWAP4 POP POP POP POP ISZERO DUP1 ISZERO PUSH2 0xF0F JUMPI RETURNDATASIZE PUSH1 0x0 DUP1 RETURNDATACOPY RETURNDATASIZE PUSH1 0x0 REVERT JUMPDEST POP DUP2 PUSH1 0x3 PUSH1 0x0 DUP3 DUP3 SLOAD PUSH2 0xF22 SWAP2 SWAP1 PUSH2 0x18A6 JUMP JUMPDEST SWAP3 POP POP DUP2 SWAP1 SSTORE POP DUP1 PUSH20 0xFFFFFFFFFFFFFFFFFFFFFFFFFFFFFFFFFFFFFFFF AND PUSH32 0x1D72140A7CCDB496BEF50918D2598DD7EDEFB514F70E6D4BEB528CBD16C80B7D DUP4 PUSH1 0x40 MLOAD PUSH2 0xF6F SWAP2 SWAP1 PUSH2 0x13A4 JUMP JUMPDEST PUSH1 0x40 MLOAD DUP1 SWAP2 SUB SWAP1 LOG2 POP POP JUMP JUMPDEST PUSH1 0x3 SLOAD DUP2 JUMP JUMPDEST PUSH2 0xF89 PUSH2 0x11DA JUMP JUMPDEST PUSH1 0x1 ISZERO ISZERO PUSH1 0x4 PUSH1 0x0 SWAP1 SLOAD SWAP1 PUSH2 0x100 EXP SWAP1 DIV PUSH1 0xFF AND ISZERO ISZERO SUB PUSH2 0xFC4 JUMPI PUSH1 0x0 PUSH1 0x4 PUSH1 0x0 PUSH2 0x100 EXP DUP2 SLOAD DUP2 PUSH1 0xFF MUL NOT AND SWAP1 DUP4 ISZERO ISZERO MUL OR SWAP1 SSTORE POP PUSH2 0xFE0 JUMP JUMPDEST PUSH1 0x1 PUSH1 0x4 PUSH1 0x0 PUSH2 0x100 EXP DUP2 SLOAD DUP2 PUSH1 0xFF MUL NOT AND SWAP1 DUP4 ISZERO ISZERO MUL OR SWAP1 SSTORE POP JUMPDEST JUMP JUMPDEST PUSH1 0x4 PUSH1 0x0 SWAP1 SLOAD SWAP1 PUSH2 0x100 EXP SWAP1 DIV PUSH1 0xFF AND ISZERO PUSH2 0x1032 JUMPI PUSH1 0x40 MLOAD PUSH32 0x8C379A000000000000000000000000000000000000000000000000000000000 DUP2 MSTORE PUSH1 0x4 ADD PUSH2 0x1029 SWAP1 PUSH2 0x1B2F JUMP JUMPDEST PUSH1 0x40 MLOAD DUP1 SWAP2 SUB SWAP1 REVERT JUMPDEST PUSH1 0x0 CALLVALUE GT PUSH2 0x1075 JUMPI PUSH1 0x40 MLOAD PUSH32 0x8C379A000000000000000000000000000000000000000000000000000000000 DUP2 MSTORE PUSH1 0x4 ADD PUSH2 0x106C SWAP1 PUSH2 0x1CDF JUMP JUMPDEST PUSH1 0x40 MLOAD DUP1 SWAP2 SUB SWAP1 REVERT JUMPDEST CALLVALUE PUSH1 0x1 PUSH1 0x0 PUSH2 0x1082 PUSH2 0x11D2 JUMP JUMPDEST PUSH20 0xFFFFFFFFFFFFFFFFFFFFFFFFFFFFFFFFFFFFFFFF AND PUSH20 0xFFFFFFFFFFFFFFFFFFFFFFFFFFFFFFFFFFFFFFFF AND DUP2 MSTORE PUSH1 0x20 ADD SWAP1 DUP2 MSTORE PUSH1 0x20 ADD PUSH1 0x0 KECCAK256 PUSH1 0x0 DUP3 DUP3 SLOAD PUSH2 0x10CB SWAP2 SWAP1 PUSH2 0x1946 JUMP JUMPDEST SWAP3 POP POP DUP2 SWAP1 SSTORE POP CALLVALUE PUSH1 0x5 PUSH1 0x0 DUP3 DUP3 SLOAD PUSH2 0x10E4 SWAP2 SWAP1 PUSH2 0x1946 JUMP JUMPDEST SWAP3 POP POP DUP2 SWAP1 SSTORE POP PUSH1 0x1 PUSH1 0x2 PUSH1 0x0 PUSH2 0x10F9 PUSH2 0x11D2 JUMP JUMPDEST PUSH20 0xFFFFFFFFFFFFFFFFFFFFFFFFFFFFFFFFFFFFFFFF AND PUSH20 0xFFFFFFFFFFFFFFFFFFFFFFFFFFFFFFFFFFFFFFFF AND DUP2 MSTORE PUSH1 0x20 ADD SWAP1 DUP2 MSTORE PUSH1 0x20 ADD PUSH1 0x0 KECCAK256 PUSH1 0x4 ADD PUSH1 0x0 PUSH2 0x100 EXP DUP2 SLOAD DUP2 PUSH1 0xFF MUL NOT AND SWAP1 DUP4 ISZERO ISZERO MUL OR SWAP1 SSTORE POP JUMP JUMPDEST PUSH2 0x1157 PUSH2 0x11DA JUMP JUMPDEST PUSH1 0x0 PUSH20 0xFFFFFFFFFFFFFFFFFFFFFFFFFFFFFFFFFFFFFFFF AND DUP2 PUSH20 0xFFFFFFFFFFFFFFFFFFFFFFFFFFFFFFFFFFFFFFFF AND SUB PUSH2 0x11C6 JUMPI PUSH1 0x40 MLOAD PUSH32 0x8C379A000000000000000000000000000000000000000000000000000000000 DUP2 MSTORE PUSH1 0x4 ADD PUSH2 0x11BD SWAP1 PUSH2 0x1D71 JUMP JUMPDEST PUSH1 0x40 MLOAD DUP1 SWAP2 SUB SWAP1 REVERT JUMPDEST PUSH2 0x11CF DUP2 PUSH2 0x1258 JUMP JUMPDEST POP JUMP JUMPDEST PUSH1 0x0 CALLER SWAP1 POP SWAP1 JUMP JUMPDEST PUSH2 0x11E2 PUSH2 0x11D2 JUMP JUMPDEST PUSH20 0xFFFFFFFFFFFFFFFFFFFFFFFFFFFFFFFFFFFFFFFF AND PUSH2 0x1200 PUSH2 0xE53 JUMP JUMPDEST PUSH20 0xFFFFFFFFFFFFFFFFFFFFFFFFFFFFFFFFFFFFFFFF AND EQ PUSH2 0x1256 JUMPI PUSH1 0x40 MLOAD PUSH32 0x8C379A000000000000000000000000000000000000000000000000000000000 DUP2 MSTORE PUSH1 0x4 ADD PUSH2 0x124D SWAP1 PUSH2 0x1DDD JUMP JUMPDEST PUSH1 0x40 MLOAD DUP1 SWAP2 SUB SWAP1 REVERT JUMPDEST JUMP JUMPDEST PUSH1 0x0 DUP1 PUSH1 0x0 SWAP1 SLOAD SWAP1 PUSH2 0x100 EXP SWAP1 DIV PUSH20 0xFFFFFFFFFFFFFFFFFFFFFFFFFFFFFFFFFFFFFFFF AND SWAP1 POP DUP2 PUSH1 0x0 DUP1 PUSH2 0x100 EXP DUP2 SLOAD DUP2 PUSH20 0xFFFFFFFFFFFFFFFFFFFFFFFFFFFFFFFFFFFFFFFF MUL NOT AND SWAP1 DUP4 PUSH20 0xFFFFFFFFFFFFFFFFFFFFFFFFFFFFFFFFFFFFFFFF AND MUL OR SWAP1 SSTORE POP DUP2 PUSH20 0xFFFFFFFFFFFFFFFFFFFFFFFFFFFFFFFFFFFFFFFF AND DUP2 PUSH20 0xFFFFFFFFFFFFFFFFFFFFFFFFFFFFFFFFFFFFFFFF AND PUSH32 0x8BE0079C531659141344CD1FD0A4F28419497F9722A3DAAFE3B4186F6B6457E0 PUSH1 0x40 MLOAD PUSH1 0x40 MLOAD DUP1 SWAP2 SUB SWAP1 LOG3 POP POP JUMP JUMPDEST POP DUP1 SLOAD PUSH1 0x0 DUP3 SSTORE SWAP1 PUSH1 0x0 MSTORE PUSH1 0x20 PUSH1 0x0 KECCAK256 SWAP1 DUP2 ADD SWAP1 PUSH2 0x133A SWAP2 SWAP1 PUSH2 0x136E JUMP JUMPDEST POP JUMP JUMPDEST PUSH1 0x40 MLOAD DUP1 PUSH1 0xA0 ADD PUSH1 0x40 MSTORE DUP1 PUSH1 0x60 DUP2 MSTORE PUSH1 0x20 ADD PUSH1 0x60 DUP2 MSTORE PUSH1 0x20 ADD PUSH1 0x60 DUP2 MSTORE PUSH1 0x20 ADD PUSH1 0x60 DUP2 MSTORE PUSH1 0x20 ADD PUSH1 0x0 ISZERO ISZERO DUP2 MSTORE POP SWAP1 JUMP JUMPDEST JUMPDEST DUP1 DUP3 GT ISZERO PUSH2 0x1387 JUMPI PUSH1 0x0 DUP2 PUSH1 0x0 SWAP1 SSTORE POP PUSH1 0x1 ADD PUSH2 0x136F JUMP JUMPDEST POP SWAP1 JUMP JUMPDEST PUSH1 0x0 DUP2 SWAP1 POP SWAP2 SWAP1 POP JUMP JUMPDEST PUSH2 0x139E DUP2 PUSH2 0x138B JUMP JUMPDEST DUP3 MSTORE POP POP JUMP JUMPDEST PUSH1 0x0 PUSH1 0x20 DUP3 ADD SWAP1 POP PUSH2 0x13B9 PUSH1 0x0 DUP4 ADD DUP5 PUSH2 0x1395 JUMP JUMPDEST SWAP3 SWAP2 POP POP JUMP JUMPDEST PUSH1 0x0 DUP1 REVERT JUMPDEST PUSH2 0x13CD DUP2 PUSH2 0x138B JUMP JUMPDEST DUP2 EQ PUSH2 0x13D8 JUMPI PUSH1 0x0 DUP1 REVERT JUMPDEST POP JUMP JUMPDEST PUSH1 0x0 DUP2 CALLDATALOAD SWAP1 POP PUSH2 0x13EA DUP2 PUSH2 0x13C4 JUMP JUMPDEST SWAP3 SWAP2 POP POP JUMP JUMPDEST PUSH1 0x0 PUSH20 0xFFFFFFFFFFFFFFFFFFFFFFFFFFFFFFFFFFFFFFFF DUP3 AND SWAP1 POP SWAP2 SWAP1 POP JUMP JUMPDEST PUSH1 0x0 PUSH2 0x141B DUP3 PUSH2 0x13F0 JUMP JUMPDEST SWAP1 POP SWAP2 SWAP1 POP JUMP JUMPDEST PUSH2 0x142B DUP2 PUSH2 0x1410 JUMP JUMPDEST DUP2 EQ PUSH2 0x1436 JUMPI PUSH1 0x0 DUP1 REVERT JUMPDEST POP JUMP JUMPDEST PUSH1 0x0 DUP2 CALLDATALOAD SWAP1 POP PUSH2 0x1448 DUP2 PUSH2 0x1422 JUMP JUMPDEST SWAP3 SWAP2 POP POP JUMP JUMPDEST PUSH1 0x0 DUP1 PUSH1 0x40 DUP4 DUP6 SUB SLT ISZERO PUSH2 0x1465 JUMPI PUSH2 0x1464 PUSH2 0x13BF JUMP JUMPDEST JUMPDEST PUSH1 0x0 PUSH2 0x1473 DUP6 DUP3 DUP7 ADD PUSH2 0x13DB JUMP JUMPDEST SWAP3 POP POP PUSH1 0x20 PUSH2 0x1484 DUP6 DUP3 DUP7 ADD PUSH2 0x1439 JUMP JUMPDEST SWAP2 POP POP SWAP3 POP SWAP3 SWAP1 POP JUMP JUMPDEST PUSH1 0x0 PUSH2 0x1499 DUP3 PUSH2 0x13F0 JUMP JUMPDEST SWAP1 POP SWAP2 SWAP1 POP JUMP JUMPDEST PUSH2 0x14A9 DUP2 PUSH2 0x148E JUMP JUMPDEST DUP2 EQ PUSH2 0x14B4 JUMPI PUSH1 0x0 DUP1 REVERT JUMPDEST POP JUMP JUMPDEST PUSH1 0x0 DUP2 CALLDATALOAD SWAP1 POP PUSH2 0x14C6 DUP2 PUSH2 0x14A0 JUMP JUMPDEST SWAP3 SWAP2 POP POP JUMP JUMPDEST PUSH1 0x0 DUP1 PUSH1 0x0 DUP1 PUSH1 0x0 PUSH1 0xA0 DUP7 DUP9 SUB SLT ISZERO PUSH2 0x14E8 JUMPI PUSH2 0x14E7 PUSH2 0x13BF JUMP JUMPDEST JUMPDEST PUSH1 0x0 PUSH2 0x14F6 DUP9 DUP3 DUP10 ADD PUSH2 0x14B7 JUMP JUMPDEST SWAP6 POP POP PUSH1 0x20 PUSH2 0x1507 DUP9 DUP3 DUP10 ADD PUSH2 0x13DB JUMP JUMPDEST SWAP5 POP POP PUSH1 0x40 PUSH2 0x1518 DUP9 DUP3 DUP10 ADD PUSH2 0x13DB JUMP JUMPDEST SWAP4 POP POP PUSH1 0x60 PUSH2 0x1529 DUP9 DUP3 DUP10 ADD PUSH2 0x13DB JUMP JUMPDEST SWAP3 POP POP PUSH1 0x80 PUSH2 0x153A DUP9 DUP3 DUP10 ADD PUSH2 0x13DB JUMP JUMPDEST SWAP2 POP POP SWAP3 SWAP6 POP SWAP3 SWAP6 SWAP1 SWAP4 POP JUMP JUMPDEST PUSH1 0x0 PUSH1 0x20 DUP3 DUP5 SUB SLT ISZERO PUSH2 0x155D JUMPI PUSH2 0x155C PUSH2 0x13BF JUMP JUMPDEST JUMPDEST PUSH1 0x0 PUSH2 0x156B DUP5 DUP3 DUP6 ADD PUSH2 0x14B7 JUMP JUMPDEST SWAP2 POP POP SWAP3 SWAP2 POP POP JUMP JUMPDEST PUSH1 0x0 DUP2 MLOAD SWAP1 POP SWAP2 SWAP1 POP JUMP JUMPDEST PUSH1 0x0 DUP3 DUP3 MSTORE PUSH1 0x20 DUP3 ADD SWAP1 POP SWAP3 SWAP2 POP POP JUMP JUMPDEST PUSH1 0x0 DUP2 SWAP1 POP PUSH1 0x20 DUP3 ADD SWAP1 POP SWAP2 SWAP1 POP JUMP JUMPDEST PUSH2 0x15A9 DUP2 PUSH2 0x138B JUMP JUMPDEST DUP3 MSTORE POP POP JUMP JUMPDEST PUSH1 0x0 PUSH2 0x15BB DUP4 DUP4 PUSH2 0x15A0 JUMP JUMPDEST PUSH1 0x20 DUP4 ADD SWAP1 POP SWAP3 SWAP2 POP POP JUMP JUMPDEST PUSH1 0x0 PUSH1 0x20 DUP3 ADD SWAP1 POP SWAP2 SWAP1 POP JUMP JUMPDEST PUSH1 0x0 PUSH2 0x15DF DUP3 PUSH2 0x1574 JUMP JUMPDEST PUSH2 0x15E9 DUP2 DUP6 PUSH2 0x157F JUMP JUMPDEST SWAP4 POP PUSH2 0x15F4 DUP4 PUSH2 0x1590 JUMP JUMPDEST DUP1 PUSH1 0x0 JUMPDEST DUP4 DUP2 LT ISZERO PUSH2 0x1625 JUMPI DUP2 MLOAD PUSH2 0x160C DUP9 DUP3 PUSH2 0x15AF JUMP JUMPDEST SWAP8 POP PUSH2 0x1617 DUP4 PUSH2 0x15C7 JUMP JUMPDEST SWAP3 POP POP PUSH1 0x1 DUP2 ADD SWAP1 POP PUSH2 0x15F8 JUMP JUMPDEST POP DUP6 SWAP4 POP POP POP POP SWAP3 SWAP2 POP POP JUMP JUMPDEST PUSH1 0x0 DUP2 ISZERO ISZERO SWAP1 POP SWAP2 SWAP1 POP JUMP JUMPDEST PUSH2 0x1647 DUP2 PUSH2 0x1632 JUMP JUMPDEST DUP3 MSTORE POP POP JUMP JUMPDEST PUSH1 0x0 PUSH1 0xA0 DUP4 ADD PUSH1 0x0 DUP4 ADD MLOAD DUP5 DUP3 SUB PUSH1 0x0 DUP7 ADD MSTORE PUSH2 0x166A DUP3 DUP3 PUSH2 0x15D4 JUMP JUMPDEST SWAP2 POP POP PUSH1 0x20 DUP4 ADD MLOAD DUP5 DUP3 SUB PUSH1 0x20 DUP7 ADD MSTORE PUSH2 0x1684 DUP3 DUP3 PUSH2 0x15D4 JUMP JUMPDEST SWAP2 POP POP PUSH1 0x40 DUP4 ADD MLOAD DUP5 DUP3 SUB PUSH1 0x40 DUP7 ADD MSTORE PUSH2 0x169E DUP3 DUP3 PUSH2 0x15D4 JUMP JUMPDEST SWAP2 POP POP PUSH1 0x60 DUP4 ADD MLOAD DUP5 DUP3 SUB PUSH1 0x60 DUP7 ADD MSTORE PUSH2 0x16B8 DUP3 DUP3 PUSH2 0x15D4 JUMP JUMPDEST SWAP2 POP POP PUSH1 0x80 DUP4 ADD MLOAD PUSH2 0x16CD PUSH1 0x80 DUP7 ADD DUP3 PUSH2 0x163E JUMP JUMPDEST POP DUP1 SWAP2 POP POP SWAP3 SWAP2 POP POP JUMP JUMPDEST PUSH1 0x0 PUSH1 0x20 DUP3 ADD SWAP1 POP DUP2 DUP2 SUB PUSH1 0x0 DUP4 ADD MSTORE PUSH2 0x16F2 DUP2 DUP5 PUSH2 0x164D JUMP JUMPDEST SWAP1 POP SWAP3 SWAP2 POP POP JUMP JUMPDEST PUSH2 0x1703 DUP2 PUSH2 0x1632 JUMP JUMPDEST DUP3 MSTORE POP POP JUMP JUMPDEST PUSH1 0x0 PUSH1 0x20 DUP3 ADD SWAP1 POP PUSH2 0x171E PUSH1 0x0 DUP4 ADD DUP5 PUSH2 0x16FA JUMP JUMPDEST SWAP3 SWAP2 POP POP JUMP JUMPDEST PUSH1 0x0 DUP1 PUSH1 0x40 DUP4 DUP6 SUB SLT ISZERO PUSH2 0x173B JUMPI PUSH2 0x173A PUSH2 0x13BF JUMP JUMPDEST JUMPDEST PUSH1 0x0 PUSH2 0x1749 DUP6 DUP3 DUP7 ADD PUSH2 0x1439 JUMP JUMPDEST SWAP3 POP POP PUSH1 0x20 PUSH2 0x175A DUP6 DUP3 DUP7 ADD PUSH2 0x13DB JUMP JUMPDEST SWAP2 POP POP SWAP3 POP SWAP3 SWAP1 POP JUMP JUMPDEST PUSH2 0x176D DUP2 PUSH2 0x148E JUMP JUMPDEST DUP3 MSTORE POP POP JUMP JUMPDEST PUSH1 0x0 PUSH1 0x20 DUP3 ADD SWAP1 POP PUSH2 0x1788 PUSH1 0x0 DUP4 ADD DUP5 PUSH2 0x1764 JUMP JUMPDEST SWAP3 SWAP2 POP POP JUMP JUMPDEST PUSH1 0x0 DUP3 DUP3 MSTORE PUSH1 0x20 DUP3 ADD SWAP1 POP SWAP3 SWAP2 POP POP JUMP JUMPDEST PUSH32 0x436F6E7472616374206973205061757365640000000000000000000000000000 PUSH1 0x0 DUP3 ADD MSTORE POP JUMP JUMPDEST PUSH1 0x0 PUSH2 0x17D5 PUSH1 0x12 DUP4 PUSH2 0x178E JUMP JUMPDEST SWAP2 POP PUSH2 0x17E0 DUP3 PUSH2 0x179F JUMP JUMPDEST PUSH1 0x20 DUP3 ADD SWAP1 POP SWAP2 SWAP1 POP JUMP JUMPDEST PUSH1 0x0 PUSH1 0x20 DUP3 ADD SWAP1 POP DUP2 DUP2 SUB PUSH1 0x0 DUP4 ADD MSTORE PUSH2 0x1804 DUP2 PUSH2 0x17C8 JUMP JUMPDEST SWAP1 POP SWAP2 SWAP1 POP JUMP JUMPDEST PUSH32 0x496E73756666696369656E7420546F6B656E7320746F20576974684472617700 PUSH1 0x0 DUP3 ADD MSTORE POP JUMP JUMPDEST PUSH1 0x0 PUSH2 0x1841 PUSH1 0x1F DUP4 PUSH2 0x178E JUMP JUMPDEST SWAP2 POP PUSH2 0x184C DUP3 PUSH2 0x180B JUMP JUMPDEST PUSH1 0x20 DUP3 ADD SWAP1 POP SWAP2 SWAP1 POP JUMP JUMPDEST PUSH1 0x0 PUSH1 0x20 DUP3 ADD SWAP1 POP DUP2 DUP2 SUB PUSH1 0x0 DUP4 ADD MSTORE PUSH2 0x1870 DUP2 PUSH2 0x1834 JUMP JUMPDEST SWAP1 POP SWAP2 SWAP1 POP JUMP JUMPDEST PUSH32 0x4E487B7100000000000000000000000000000000000000000000000000000000 PUSH1 0x0 MSTORE PUSH1 0x11 PUSH1 0x4 MSTORE PUSH1 0x24 PUSH1 0x0 REVERT JUMPDEST PUSH1 0x0 PUSH2 0x18B1 DUP3 PUSH2 0x138B JUMP JUMPDEST SWAP2 POP PUSH2 0x18BC DUP4 PUSH2 0x138B JUMP JUMPDEST SWAP3 POP DUP3 DUP3 SUB SWAP1 POP DUP2 DUP2 GT ISZERO PUSH2 0x18D4 JUMPI PUSH2 0x18D3 PUSH2 0x1877 JUMP JUMPDEST JUMPDEST SWAP3 SWAP2 POP POP JUMP JUMPDEST PUSH32 0x496E76616C696420416D6F756E74000000000000000000000000000000000000 PUSH1 0x0 DUP3 ADD MSTORE POP JUMP JUMPDEST PUSH1 0x0 PUSH2 0x1910 PUSH1 0xE DUP4 PUSH2 0x178E JUMP JUMPDEST SWAP2 POP PUSH2 0x191B DUP3 PUSH2 0x18DA JUMP JUMPDEST PUSH1 0x20 DUP3 ADD SWAP1 POP SWAP2 SWAP1 POP JUMP JUMPDEST PUSH1 0x0 PUSH1 0x20 DUP3 ADD SWAP1 POP DUP2 DUP2 SUB PUSH1 0x0 DUP4 ADD MSTORE PUSH2 0x193F DUP2 PUSH2 0x1903 JUMP JUMPDEST SWAP1 POP SWAP2 SWAP1 POP JUMP JUMPDEST PUSH1 0x0 PUSH2 0x1951 DUP3 PUSH2 0x138B JUMP JUMPDEST SWAP2 POP PUSH2 0x195C DUP4 PUSH2 0x138B JUMP JUMPDEST SWAP3 POP DUP3 DUP3 ADD SWAP1 POP DUP1 DUP3 GT ISZERO PUSH2 0x1974 JUMPI PUSH2 0x1973 PUSH2 0x1877 JUMP JUMPDEST JUMPDEST SWAP3 SWAP2 POP POP JUMP JUMPDEST PUSH32 0x4E6F205374616B656420616D6F756E7420616761696E73742074686973207573 PUSH1 0x0 DUP3 ADD MSTORE PUSH32 0x6572000000000000000000000000000000000000000000000000000000000000 PUSH1 0x20 DUP3 ADD MSTORE POP JUMP JUMPDEST PUSH1 0x0 PUSH2 0x19D6 PUSH1 0x22 DUP4 PUSH2 0x178E JUMP JUMPDEST SWAP2 POP PUSH2 0x19E1 DUP3 PUSH2 0x197A JUMP JUMPDEST PUSH1 0x40 DUP3 ADD SWAP1 POP SWAP2 SWAP1 POP JUMP JUMPDEST PUSH1 0x0 PUSH1 0x20 DUP3 ADD SWAP1 POP DUP2 DUP2 SUB PUSH1 0x0 DUP4 ADD MSTORE PUSH2 0x1A05 DUP2 PUSH2 0x19C9 JUMP JUMPDEST SWAP1 POP SWAP2 SWAP1 POP JUMP JUMPDEST PUSH1 0x0 PUSH1 0x80 DUP3 ADD SWAP1 POP PUSH2 0x1A21 PUSH1 0x0 DUP4 ADD DUP8 PUSH2 0x1395 JUMP JUMPDEST PUSH2 0x1A2E PUSH1 0x20 DUP4 ADD DUP7 PUSH2 0x1395 JUMP JUMPDEST PUSH2 0x1A3B PUSH1 0x40 DUP4 ADD DUP6 PUSH2 0x1395 JUMP JUMPDEST PUSH2 0x1A48 PUSH1 0x60 DUP4 ADD DUP5 PUSH2 0x1395 JUMP JUMPDEST SWAP6 SWAP5 POP POP POP POP POP JUMP JUMPDEST PUSH32 0x556E7374616B6520746F6B656E73206265666F72652064656C6574696E672053 PUSH1 0x0 DUP3 ADD MSTORE PUSH32 0x7461742773000000000000000000000000000000000000000000000000000000 PUSH1 0x20 DUP3 ADD MSTORE POP JUMP JUMPDEST PUSH1 0x0 PUSH2 0x1AAD PUSH1 0x25 DUP4 PUSH2 0x178E JUMP JUMPDEST SWAP2 POP PUSH2 0x1AB8 DUP3 PUSH2 0x1A51 JUMP JUMPDEST PUSH1 0x40 DUP3 ADD SWAP1 POP SWAP2 SWAP1 POP JUMP JUMPDEST PUSH1 0x0 PUSH1 0x20 DUP3 ADD SWAP1 POP DUP2 DUP2 SUB PUSH1 0x0 DUP4 ADD MSTORE PUSH2 0x1ADC DUP2 PUSH2 0x1AA0 JUMP JUMPDEST SWAP1 POP SWAP2 SWAP1 POP JUMP JUMPDEST PUSH32 0x5374616B696E6720697320706175736564000000000000000000000000000000 PUSH1 0x0 DUP3 ADD MSTORE POP JUMP JUMPDEST PUSH1 0x0 PUSH2 0x1B19 PUSH1 0x11 DUP4 PUSH2 0x178E JUMP JUMPDEST SWAP2 POP PUSH2 0x1B24 DUP3 PUSH2 0x1AE3 JUMP JUMPDEST PUSH1 0x20 DUP3 ADD SWAP1 POP SWAP2 SWAP1 POP JUMP JUMPDEST PUSH1 0x0 PUSH1 0x20 DUP3 ADD SWAP1 POP DUP2 DUP2 SUB PUSH1 0x0 DUP4 ADD MSTORE PUSH2 0x1B48 DUP2 PUSH2 0x1B0C JUMP JUMPDEST SWAP1 POP SWAP2 SWAP1 POP JUMP JUMPDEST PUSH32 0x54726561737572792068617320496E73756666696369656E7420546F6B656E73 PUSH1 0x0 DUP3 ADD MSTORE POP JUMP JUMPDEST PUSH1 0x0 PUSH2 0x1B85 PUSH1 0x20 DUP4 PUSH2 0x178E JUMP JUMPDEST SWAP2 POP PUSH2 0x1B90 DUP3 PUSH2 0x1B4F JUMP JUMPDEST PUSH1 0x20 DUP3 ADD SWAP1 POP SWAP2 SWAP1 POP JUMP JUMPDEST PUSH1 0x0 PUSH1 0x20 DUP3 ADD SWAP1 POP DUP2 DUP2 SUB PUSH1 0x0 DUP4 ADD MSTORE PUSH2 0x1BB4 DUP2 PUSH2 0x1B78 JUMP JUMPDEST SWAP1 POP SWAP2 SWAP1 POP JUMP JUMPDEST PUSH32 0x5573657220446F657327742068617665205374616B6564000000000000000000 PUSH1 0x0 DUP3 ADD MSTORE POP JUMP JUMPDEST PUSH1 0x0 PUSH2 0x1BF1 PUSH1 0x17 DUP4 PUSH2 0x178E JUMP JUMPDEST SWAP2 POP PUSH2 0x1BFC DUP3 PUSH2 0x1BBB JUMP JUMPDEST PUSH1 0x20 DUP3 ADD SWAP1 POP SWAP2 SWAP1 POP JUMP JUMPDEST PUSH1 0x0 PUSH1 0x20 DUP3 ADD SWAP1 POP DUP2 DUP2 SUB PUSH1 0x0 DUP4 ADD MSTORE PUSH2 0x1C20 DUP2 PUSH2 0x1BE4 JUMP JUMPDEST SWAP1 POP SWAP2 SWAP1 POP JUMP JUMPDEST PUSH32 0x496E73756666696369656E742046756E647320746F2057697468647261770000 PUSH1 0x0 DUP3 ADD MSTORE POP JUMP JUMPDEST PUSH1 0x0 PUSH2 0x1C5D PUSH1 0x1E DUP4 PUSH2 0x178E JUMP JUMPDEST SWAP2 POP PUSH2 0x1C68 DUP3 PUSH2 0x1C27 JUMP JUMPDEST PUSH1 0x20 DUP3 ADD SWAP1 POP SWAP2 SWAP1 POP JUMP JUMPDEST PUSH1 0x0 PUSH1 0x20 DUP3 ADD SWAP1 POP DUP2 DUP2 SUB PUSH1 0x0 DUP4 ADD MSTORE PUSH2 0x1C8C DUP2 PUSH2 0x1C50 JUMP JUMPDEST SWAP1 POP SWAP2 SWAP1 POP JUMP JUMPDEST PUSH32 0x43616E6E6F74207374616B652030000000000000000000000000000000000000 PUSH1 0x0 DUP3 ADD MSTORE POP JUMP JUMPDEST PUSH1 0x0 PUSH2 0x1CC9 PUSH1 0xE DUP4 PUSH2 0x178E JUMP JUMPDEST SWAP2 POP PUSH2 0x1CD4 DUP3 PUSH2 0x1C93 JUMP JUMPDEST PUSH1 0x20 DUP3 ADD SWAP1 POP SWAP2 SWAP1 POP JUMP JUMPDEST PUSH1 0x0 PUSH1 0x20 DUP3 ADD SWAP1 POP DUP2 DUP2 SUB PUSH1 0x0 DUP4 ADD MSTORE PUSH2 0x1CF8 DUP2 PUSH2 0x1CBC JUMP JUMPDEST SWAP1 POP SWAP2 SWAP1 POP JUMP JUMPDEST PUSH32 0x4F776E61626C653A206E6577206F776E657220697320746865207A65726F2061 PUSH1 0x0 DUP3 ADD MSTORE PUSH32 0x6464726573730000000000000000000000000000000000000000000000000000 PUSH1 0x20 DUP3 ADD MSTORE POP JUMP JUMPDEST PUSH1 0x0 PUSH2 0x1D5B PUSH1 0x26 DUP4 PUSH2 0x178E JUMP JUMPDEST SWAP2 POP PUSH2 0x1D66 DUP3 PUSH2 0x1CFF JUMP JUMPDEST PUSH1 0x40 DUP3 ADD SWAP1 POP SWAP2 SWAP1 POP JUMP JUMPDEST PUSH1 0x0 PUSH1 0x20 DUP3 ADD SWAP1 POP DUP2 DUP2 SUB PUSH1 0x0 DUP4 ADD MSTORE PUSH2 0x1D8A DUP2 PUSH2 0x1D4E JUMP JUMPDEST SWAP1 POP SWAP2 SWAP1 POP JUMP JUMPDEST PUSH32 0x4F776E61626C653A2063616C6C6572206973206E6F7420746865206F776E6572 PUSH1 0x0 DUP3 ADD MSTORE POP JUMP JUMPDEST PUSH1 0x0 PUSH2 0x1DC7 PUSH1 0x20 DUP4 PUSH2 0x178E JUMP JUMPDEST SWAP2 POP PUSH2 0x1DD2 DUP3 PUSH2 0x1D91 JUMP JUMPDEST PUSH1 0x20 DUP3 ADD SWAP1 POP SWAP2 SWAP1 POP JUMP JUMPDEST PUSH1 0x0 PUSH1 0x20 DUP3 ADD SWAP1 POP DUP2 DUP2 SUB PUSH1 0x0 DUP4 ADD MSTORE PUSH2 0x1DF6 DUP2 PUSH2 0x1DBA JUMP JUMPDEST SWAP1 POP SWAP2 SWAP1 POP JUMP INVALID LOG2 PUSH5 0x6970667358 0x22 SLT KECCAK256 BASEFEE 0xD6 0xB7 0xB3 DUP4 SDIV LOG2 0x27 DELEGATECALL 0xB5 PUSH15 0x9DB2BE0A6C75959FDB1C80B6BA328 LOG4 0xF6 0xA6 0xE7 BALANCE PUSH19 0x64736F6C634300081000330000000000000000 "
				},
				"gasEstimates": {
					"creation": {
						"codeDepositCost": "1546200",
						"executionCost": "infinite",
						"totalCost": "infinite"
					},
					"external": {
						"FlipPauseStatus()": "28923",
						"adminTreasury()": "2473",
						"deleteStats(address)": "infinite",
						"fillTreasury()": "infinite",
						"getContractBalance()": "428",
						"getNodeStats(address)": "infinite",
						"getStake(address)": "2886",
						"owner()": "2611",
						"paused()": "2538",
						"renounceOwnership()": "30421",
						"stakeTokens()": "infinite",
						"totalStakedTokens()": "2452",
						"transferOwnership(address)": "30854",
						"transferRewards(address,uint256)": "infinite",
						"unStakeTokens(uint256,address)": "infinite",
						"updateStats(address,uint256,uint256,uint256,uint256)": "infinite",
						"withDrawFromTreasury(uint256,address)": "infinite"
					}
				},
				"methodIdentifiers": {
					"FlipPauseStatus()": "a405b048",
					"adminTreasury()": "96cad0db",
					"deleteStats(address)": "1a2cf140",
					"fillTreasury()": "0d8f7614",
					"getContractBalance()": "6f9fb98a",
					"getNodeStats(address)": "52b391b2",
					"getStake(address)": "7a766460",
					"owner()": "8da5cb5b",
					"paused()": "5c975abb",
					"renounceOwnership()": "715018a6",
					"stakeTokens()": "ce46643b",
					"totalStakedTokens()": "3ae73259",
					"transferOwnership(address)": "f2fde38b",
					"transferRewards(address,uint256)": "82723192",
					"unStakeTokens(uint256,address)": "06608c3c",
					"updateStats(address,uint256,uint256,uint256,uint256)": "1241a45a",
					"withDrawFromTreasury(uint256,address)": "8e080dee"
				}
			},
			"storageLayout": {
				"storage": [
					{
						"astId": 7,
						"contract": "contracts/storageChain.sol:StakingContract",
						"label": "_owner",
						"offset": 0,
						"slot": "0",
						"type": "t_address"
					},
					{
						"astId": 143,
						"contract": "contracts/storageChain.sol:StakingContract",
						"label": "tokenAmount",
						"offset": 0,
						"slot": "1",
						"type": "t_mapping(t_address,t_uint256)"
					},
					{
						"astId": 148,
						"contract": "contracts/storageChain.sol:StakingContract",
						"label": "NodeStats",
						"offset": 0,
						"slot": "2",
						"type": "t_mapping(t_address,t_struct(Stats)169_storage)"
					},
					{
						"astId": 150,
						"contract": "contracts/storageChain.sol:StakingContract",
						"label": "adminTreasury",
						"offset": 0,
						"slot": "3",
						"type": "t_uint256"
					},
					{
						"astId": 152,
						"contract": "contracts/storageChain.sol:StakingContract",
						"label": "paused",
						"offset": 0,
						"slot": "4",
						"type": "t_bool"
					},
					{
						"astId": 154,
						"contract": "contracts/storageChain.sol:StakingContract",
						"label": "totalStakedTokens",
						"offset": 0,
						"slot": "5",
						"type": "t_uint256"
					}
				],
				"types": {
					"t_address": {
						"encoding": "inplace",
						"label": "address",
						"numberOfBytes": "20"
					},
					"t_array(t_uint256)dyn_storage": {
						"base": "t_uint256",
						"encoding": "dynamic_array",
						"label": "uint256[]",
						"numberOfBytes": "32"
					},
					"t_bool": {
						"encoding": "inplace",
						"label": "bool",
						"numberOfBytes": "1"
					},
					"t_mapping(t_address,t_struct(Stats)169_storage)": {
						"encoding": "mapping",
						"key": "t_address",
						"label": "mapping(address => struct StakingContract.Stats)",
						"numberOfBytes": "32",
						"value": "t_struct(Stats)169_storage"
					},
					"t_mapping(t_address,t_uint256)": {
						"encoding": "mapping",
						"key": "t_address",
						"label": "mapping(address => uint256)",
						"numberOfBytes": "32",
						"value": "t_uint256"
					},
					"t_struct(Stats)169_storage": {
						"encoding": "inplace",
						"label": "struct StakingContract.Stats",
						"members": [
							{
								"astId": 157,
								"contract": "contracts/storageChain.sol:StakingContract",
								"label": "validationRatio",
								"offset": 0,
								"slot": "0",
								"type": "t_array(t_uint256)dyn_storage"
							},
							{
								"astId": 160,
								"contract": "contracts/storageChain.sol:StakingContract",
								"label": "upTime",
								"offset": 0,
								"slot": "1",
								"type": "t_array(t_uint256)dyn_storage"
							},
							{
								"astId": 163,
								"contract": "contracts/storageChain.sol:StakingContract",
								"label": "bandWidth",
								"offset": 0,
								"slot": "2",
								"type": "t_array(t_uint256)dyn_storage"
							},
							{
								"astId": 166,
								"contract": "contracts/storageChain.sol:StakingContract",
								"label": "storageGB",
								"offset": 0,
								"slot": "3",
								"type": "t_array(t_uint256)dyn_storage"
							},
							{
								"astId": 168,
								"contract": "contracts/storageChain.sol:StakingContract",
								"label": "oldUser",
								"offset": 0,
								"slot": "4",
								"type": "t_bool"
							}
						],
						"numberOfBytes": "160"
					},
					"t_uint256": {
						"encoding": "inplace",
						"label": "uint256",
						"numberOfBytes": "32"
					}
				}
			},
			"userdoc": {
				"kind": "user",
				"methods": {},
				"version": 1
			}
		}
	}
}