{
	"data": {
		"bytecode": {
			"linkReferences": {},
			"object": "60806040526040518060800160405280600f60ff168152602001601e60ff168152602001602d60ff168152602001603c60ff168152506001906004620000479291906200018c565b506040518060800160405280600460ff168152602001600660ff168152602001600860ff168152602001600960ff1681525060029060046200008b9291906200018c565b503480156200009957600080fd5b50620000ba620000ae620000c060201b60201c565b620000c860201b60201c565b62000202565b600033905090565b60008060009054906101000a900473ffffffffffffffffffffffffffffffffffffffff169050816000806101000a81548173ffffffffffffffffffffffffffffffffffffffff021916908373ffffffffffffffffffffffffffffffffffffffff1602179055508173ffffffffffffffffffffffffffffffffffffffff168173ffffffffffffffffffffffffffffffffffffffff167f8be0079c531659141344cd1fd0a4f28419497f9722a3daafe3b4186f6b6457e060405160405180910390a35050565b828054828255906000526020600020908101928215620001d0579160200282015b82811115620001cf578251829060ff16905591602001919060010190620001ad565b5b509050620001df9190620001e3565b5090565b5b80821115620001fe576000816000905550600101620001e4565b5090565b6127b280620002126000396000f3fe6080604052600436106101185760003560e01c80637b0472f0116100a0578063b5d5b5fa11610064578063b5d5b5fa14610433578063bc20a7af14610474578063dd418ae2146104b1578063e9fad8ee146104ee578063f2fde38b146105055761016d565b80637b0472f014610326578063825e0e801461034f57806386efe63c1461038c5780638da5cb5b146103ca5780639bfd8d61146103f55761016d565b80632e17de78116100e75780632e17de78146102675780633472d465146102905780635c975abb146102b95780636f9fb98a146102e4578063715018a61461030f5761016d565b806304238994146101ad5780630a861f2a146101ea57806316078d041461021357806316c38b3c1461023e5761016d565b3661016d573373ffffffffffffffffffffffffffffffffffffffff167f1e57e3bb474320be3d2c77138f75b7c3941292d647f5f9634e33a8e94e0e069b346040516101639190611b47565b60405180910390a2005b7f0982457c3a668694541d4a16bdeb0b0f7ac3b524083fb913475e679112a9cb5160003633346040516101a39493929190611c01565b60405180910390a1005b3480156101b957600080fd5b506101d460048036038101906101cf9190611c72565b61052e565b6040516101e19190611e1a565b60405180910390f35b3480156101f657600080fd5b50610211600480360381019061020c9190611e68565b61067c565b005b34801561021f57600080fd5b50610228610687565b6040516102359190611b47565b60405180910390f35b34801561024a57600080fd5b5061026560048036038101906102609190611ec1565b61068d565b005b34801561027357600080fd5b5061028e60048036038101906102899190611e68565b61070f565b005b34801561029c57600080fd5b506102b760048036038101906102b29190611eee565b6109f8565b005b3480156102c557600080fd5b506102ce610a0e565b6040516102db9190611f3d565b60405180910390f35b3480156102f057600080fd5b506102f9610a21565b6040516103069190611b47565b60405180910390f35b34801561031b57600080fd5b50610324610a31565b005b34801561033257600080fd5b5061034d60048036038101906103489190611eee565b610a45565b005b34801561035b57600080fd5b5061037660048036038101906103719190611e68565b610aa4565b6040516103839190611b47565b60405180910390f35b34801561039857600080fd5b506103b360048036038101906103ae9190611c72565b610ad7565b6040516103c1929190611f58565b60405180910390f35b3480156103d657600080fd5b506103df610d4f565b6040516103ec9190611f81565b60405180910390f35b34801561040157600080fd5b5061041c60048036038101906104179190611c72565b610d78565b60405161042a929190611f58565b60405180910390f35b34801561043f57600080fd5b5061045a60048036038101906104559190611f9c565b610f45565b60405161046b959493929190611feb565b60405180910390f35b34801561048057600080fd5b5061049b60048036038101906104969190611e68565b610fd0565b6040516104a89190611b47565b60405180910390f35b3480156104bd57600080fd5b506104d860048036038101906104d39190611e68565b610ff4565b6040516104e59190611b47565b60405180910390f35b3480156104fa57600080fd5b50610503611018565b005b34801561051157600080fd5b5061052c60048036038101906105279190611c72565b611312565b005b6060600560008373ffffffffffffffffffffffffffffffffffffffff1673ffffffffffffffffffffffffffffffffffffffff168152602001908152602001600020805480602002602001604051908101604052809291908181526020016000905b8282101561067157838290600052602060002090600402016040518060a00160405290816000820154815260200160018201548152602001600282015481526020016003820160009054906101000a90047effffffffffffffffffffffffffffffffffffffffffffffffffffffffffffff167effffffffffffffffffffffffffffffffffffffffffffffffffffffffffffff167effffffffffffffffffffffffffffffffffffffffffffffffffffffffffffff16815260200160038201601f9054906101000a900460ff1615151515815250508152602001906001019061058f565b505050509050919050565b610684611395565b50565b60035481565b610695611395565b80600460006101000a81548160ff0219169083151502179055503373ffffffffffffffffffffffffffffffffffffffff167fe8699cf681560fd07de85543bd994263f4557bdc5179dd702f256d15fd083e1d600460009054906101000a900460ff166040516107049190611f3d565b60405180910390a250565b6000600560003373ffffffffffffffffffffffffffffffffffffffff1673ffffffffffffffffffffffffffffffffffffffff16815260200190815260200160002090506000818054905011610799576040517f08c379a00000000000000000000000000000000000000000000000000000000081526004016107909061209b565b60405180910390fd5b600080826001856107aa91906120ea565b815481106107bb576107ba61211e565b5b90600052602060002090600402016040518060a00160405290816000820154815260200160018201548152602001600282015481526020016003820160009054906101000a90047effffffffffffffffffffffffffffffffffffffffffffffffffffffffffffff167effffffffffffffffffffffffffffffffffffffffffffffffffffffffffffff167effffffffffffffffffffffffffffffffffffffffffffffffffffffffffffff16815260200160038201601f9054906101000a900460ff1615151515815250509050806080015115801561089b5750428160200151105b6108da576040517f08c379a00000000000000000000000000000000000000000000000000000000081526004016108d190612199565b60405180910390fd5b6001836001866108ea91906120ea565b815481106108fb576108fa61211e565b5b9060005260206000209060040201600301601f6101000a81548160ff02191690831515021790555061093e61092f82611413565b8361149590919063ffffffff16565b915060008211610983576040517f08c379a000000000000000000000000000000000000000000000000000000000815260040161097a90612205565b60405180910390fd5b610998826003546114ab90919063ffffffff16565b6003819055503373ffffffffffffffffffffffffffffffffffffffff167f92ccf450a286a957af52509bc1c9939d1a6a481783e142e41e2499f0bb66ebc68383600001516040516109ea929190611f58565b60405180910390a250505050565b610a00611395565b610a0a82826114c1565b5050565b600460009054906101000a900460ff1681565b6000610a2b611395565b47905090565b610a39611395565b610a436000611616565b565b600460009054906101000a900460ff1615610a95576040517f08c379a0000000000000000000000000000000000000000000000000000000008152600401610a8c90612271565b60405180910390fd5b610aa03383836116da565b5050565b6000610aaf826117be565b7effffffffffffffffffffffffffffffffffffffffffffffffffffffffffffff169050919050565b6000806000600560008573ffffffffffffffffffffffffffffffffffffffff1673ffffffffffffffffffffffffffffffffffffffff168152602001908152602001600020805480602002602001604051908101604052809291908181526020016000905b82821015610c1d57838290600052602060002090600402016040518060a00160405290816000820154815260200160018201548152602001600282015481526020016003820160009054906101000a90047effffffffffffffffffffffffffffffffffffffffffffffffffffffffffffff167effffffffffffffffffffffffffffffffffffffffffffffffffffffffffffff167effffffffffffffffffffffffffffffffffffffffffffffffffffffffffffff16815260200160038201601f9054906101000a900460ff16151515158152505081526020019060010190610b3b565b50505050905060005b8151811015610d4857818181518110610c4257610c4161211e565b5b602002602001015160800151610d3557610c83828281518110610c6857610c6761211e565b5b6020026020010151600001518561149590919063ffffffff16565b9350610d2e610d1f612710610d11610ce46064878781518110610ca957610ca861211e565b5b6020026020010151606001517effffffffffffffffffffffffffffffffffffffffffffffffffffffffffffff1661182d90919063ffffffff16565b868681518110610cf757610cf661211e565b5b60200260200101516000015161182d90919063ffffffff16565b61184390919063ffffffff16565b8561149590919063ffffffff16565b9350815192505b8080610d4090612291565b915050610c26565b5050915091565b60008060009054906101000a900473ffffffffffffffffffffffffffffffffffffffff16905090565b6000806000600560008573ffffffffffffffffffffffffffffffffffffffff1673ffffffffffffffffffffffffffffffffffffffff168152602001908152602001600020805480602002602001604051908101604052809291908181526020016000905b82821015610ebe57838290600052602060002090600402016040518060a00160405290816000820154815260200160018201548152602001600282015481526020016003820160009054906101000a90047effffffffffffffffffffffffffffffffffffffffffffffffffffffffffffff167effffffffffffffffffffffffffffffffffffffffffffffffffffffffffffff167effffffffffffffffffffffffffffffffffffffffffffffffffffffffffffff16815260200160038201601f9054906101000a900460ff16151515158152505081526020019060010190610ddc565b50505050905060005b8151811015610f3e57818181518110610ee357610ee261211e565b5b602002602001015160800151610f2b57610f24828281518110610f0957610f0861211e565b5b6020026020010151600001518561149590919063ffffffff16565b9350815192505b8080610f3690612291565b915050610ec7565b5050915091565b60056020528160005260406000208181548110610f6157600080fd5b9060005260206000209060040201600091509150508060000154908060010154908060020154908060030160009054906101000a90047effffffffffffffffffffffffffffffffffffffffffffffffffffffffffffff169080600301601f9054906101000a900460ff16905085565b60018181548110610fe057600080fd5b906000526020600020016000915090505481565b6002818154811061100457600080fd5b906000526020600020016000915090505481565b6000600560003373ffffffffffffffffffffffffffffffffffffffff1673ffffffffffffffffffffffffffffffffffffffff168152602001908152602001600020905060008180549050116110a2576040517f08c379a00000000000000000000000000000000000000000000000000000000081526004016110999061209b565b60405180910390fd5b6000806000838054905090505b6000846001836110bf91906120ea565b815481106110d0576110cf61211e565b5b90600052602060002090600402016040518060a00160405290816000820154815260200160018201548152602001600282015481526020016003820160009054906101000a90047effffffffffffffffffffffffffffffffffffffffffffffffffffffffffffff167effffffffffffffffffffffffffffffffffffffffffffffffffffffffffffff167effffffffffffffffffffffffffffffffffffffffffffffffffffffffffffff16815260200160038201601f9054906101000a900460ff16151515158152505090504281602001511080156111af575080608001515b156111ba575061125e565b4281602001511015611246576001856001846111d691906120ea565b815481106111e7576111e661211e565b5b9060005260206000209060040201600301601f6101000a81548160ff02191690831515021790555061122a61121b82611413565b8561149590919063ffffffff16565b935061124381600001518461149590919063ffffffff16565b92505b8180611251906122d9565b92505050600081116110af575b600083116112a1576040517f08c379a00000000000000000000000000000000000000000000000000000000081526004016112989061234e565b60405180910390fd5b6112b6836003546114ab90919063ffffffff16565b6003819055503373ffffffffffffffffffffffffffffffffffffffff167f92ccf450a286a957af52509bc1c9939d1a6a481783e142e41e2499f0bb66ebc68484604051611304929190611f58565b60405180910390a250505050565b61131a611395565b600073ffffffffffffffffffffffffffffffffffffffff168173ffffffffffffffffffffffffffffffffffffffff1603611389576040517f08c379a0000000000000000000000000000000000000000000000000000000008152600401611380906123e0565b60405180910390fd5b61139281611616565b50565b61139d611859565b73ffffffffffffffffffffffffffffffffffffffff166113bb610d4f565b73ffffffffffffffffffffffffffffffffffffffff1614611411576040517f08c379a00000000000000000000000000000000000000000000000000000000081526004016114089061244c565b60405180910390fd5b565b600061148e61147b61271061146d61145a606487606001517effffffffffffffffffffffffffffffffffffffffffffffffffffffffffffff1661182d90919063ffffffff16565b866000015161182d90919063ffffffff16565b61184390919063ffffffff16565b836000015161149590919063ffffffff16565b9050919050565b600081836114a3919061246c565b905092915050565b600081836114b991906120ea565b905092915050565b7effffffffffffffffffffffffffffffffffffffffffffffffffffffffffffff80168110611524576040517f08c379a000000000000000000000000000000000000000000000000000000000815260040161151b906124ec565b60405180910390fd5b600281908060018154018082558091505060019003906000526020600020016000909190919091505560018290806001815401808255809150506001900390600052602060002001600090919091909150553373ffffffffffffffffffffffffffffffffffffffff167f11057bbe5bee4e90eb5a0638dc2399b71076401177a7b8ddbfcd90d6597a427e826040516115bc9190611b47565b60405180910390a23373ffffffffffffffffffffffffffffffffffffffff167fbc2f4a9bf3002c736651b6e23160254684d657f11497502a66d96ce15bf17c2f8360405161160a9190611b47565b60405180910390a25050565b60008060009054906101000a900473ffffffffffffffffffffffffffffffffffffffff169050816000806101000a81548173ffffffffffffffffffffffffffffffffffffffff021916908373ffffffffffffffffffffffffffffffffffffffff1602179055508173ffffffffffffffffffffffffffffffffffffffff168173ffffffffffffffffffffffffffffffffffffffff167f8be0079c531659141344cd1fd0a4f28419497f9722a3daafe3b4186f6b6457e060405160405180910390a35050565b6000821161171d576040517f08c379a000000000000000000000000000000000000000000000000000000000815260040161171490612558565b60405180910390fd5b6000611728826117be565b90506000817effffffffffffffffffffffffffffffffffffffffffffffffffffffffffffff161161178e576040517f08c379a0000000000000000000000000000000000000000000000000000000008152600401611785906125c4565b60405180910390fd5b6117b884600184815481106117a6576117a561211e565b5b90600052602060002001548386611861565b50505050565b60006001805490508210611807576040517f08c379a00000000000000000000000000000000000000000000000000000000081526004016117fe90612630565b60405180910390fd5b6002828154811061181b5761181a61211e565b5b90600052602060002001549050919050565b6000818361183b9190612650565b905092915050565b6000818361185191906126d9565b905092915050565b600033905090565b6000600560008673ffffffffffffffffffffffffffffffffffffffff1673ffffffffffffffffffffffffffffffffffffffff168152602001908152602001600020905060006118b9854261149590919063ffffffff16565b90506000828054905090508260018160018154018082558091505003906000526020600020905050848382815481106118f5576118f461211e565b5b906000526020600020906004020160030160006101000a8154817effffffffffffffffffffffffffffffffffffffffffffffffffffffffffffff02191690837effffffffffffffffffffffffffffffffffffffffffffffffffffffffffffff1602179055508183828154811061196e5761196d61211e565b5b906000526020600020906004020160010181905550858382815481106119975761199661211e565b5b906000526020600020906004020160020181905550838382815481106119c0576119bf61211e565b5b906000526020600020906004020160000181905550611acd611abc8483815481106119ee576119ed61211e565b5b90600052602060002090600402016040518060a00160405290816000820154815260200160018201548152602001600282015481526020016003820160009054906101000a90047effffffffffffffffffffffffffffffffffffffffffffffffffffffffffffff167effffffffffffffffffffffffffffffffffffffffffffffffffffffffffffff167effffffffffffffffffffffffffffffffffffffffffffffffffffffffffffff16815260200160038201601f9054906101000a900460ff161515151581525050611413565b60035461149590919063ffffffff16565b6003819055508673ffffffffffffffffffffffffffffffffffffffff167fb4caaf29adda3eefee3ad552a8e85058589bf834c7466cae4ee58787f70589ed858888604051611b1d93929190612745565b60405180910390a250505050505050565b6000819050919050565b611b4181611b2e565b82525050565b6000602082019050611b5c6000830184611b38565b92915050565b600082825260208201905092915050565b82818337600083830152505050565b6000601f19601f8301169050919050565b6000611b9f8385611b62565b9350611bac838584611b73565b611bb583611b82565b840190509392505050565b600073ffffffffffffffffffffffffffffffffffffffff82169050919050565b6000611beb82611bc0565b9050919050565b611bfb81611be0565b82525050565b60006060820190508181036000830152611c1c818688611b93565b9050611c2b6020830185611bf2565b611c386040830184611b38565b95945050505050565b600080fd5b611c4f81611be0565b8114611c5a57600080fd5b50565b600081359050611c6c81611c46565b92915050565b600060208284031215611c8857611c87611c41565b5b6000611c9684828501611c5d565b91505092915050565b600081519050919050565b600082825260208201905092915050565b6000819050602082019050919050565b611cd481611b2e565b82525050565b60007effffffffffffffffffffffffffffffffffffffffffffffffffffffffffffff82169050919050565b611d0e81611cda565b82525050565b60008115159050919050565b611d2981611d14565b82525050565b60a082016000820151611d456000850182611ccb565b506020820151611d586020850182611ccb565b506040820151611d6b6040850182611ccb565b506060820151611d7e6060850182611d05565b506080820151611d916080850182611d20565b50505050565b6000611da38383611d2f565b60a08301905092915050565b6000602082019050919050565b6000611dc782611c9f565b611dd18185611caa565b9350611ddc83611cbb565b8060005b83811015611e0d578151611df48882611d97565b9750611dff83611daf565b925050600181019050611de0565b5085935050505092915050565b60006020820190508181036000830152611e348184611dbc565b905092915050565b611e4581611b2e565b8114611e5057600080fd5b50565b600081359050611e6281611e3c565b92915050565b600060208284031215611e7e57611e7d611c41565b5b6000611e8c84828501611e53565b91505092915050565b611e9e81611d14565b8114611ea957600080fd5b50565b600081359050611ebb81611e95565b92915050565b600060208284031215611ed757611ed6611c41565b5b6000611ee584828501611eac565b91505092915050565b60008060408385031215611f0557611f04611c41565b5b6000611f1385828601611e53565b9250506020611f2485828601611e53565b9150509250929050565b611f3781611d14565b82525050565b6000602082019050611f526000830184611f2e565b92915050565b6000604082019050611f6d6000830185611b38565b611f7a6020830184611b38565b9392505050565b6000602082019050611f966000830184611bf2565b92915050565b60008060408385031215611fb357611fb2611c41565b5b6000611fc185828601611c5d565b9250506020611fd285828601611e53565b9150509250929050565b611fe581611cda565b82525050565b600060a0820190506120006000830188611b38565b61200d6020830187611b38565b61201a6040830186611b38565b6120276060830185611fdc565b6120346080830184611f2e565b9695505050505050565b600082825260208201905092915050565b7f4e6f7468696e67207374616b6564000000000000000000000000000000000000600082015250565b6000612085600e8361203e565b91506120908261204f565b602082019050919050565b600060208201905081810360008301526120b481612078565b9050919050565b7f4e487b7100000000000000000000000000000000000000000000000000000000600052601160045260246000fd5b60006120f582611b2e565b915061210083611b2e565b9250828203905081811115612118576121176120bb565b5b92915050565b7f4e487b7100000000000000000000000000000000000000000000000000000000600052603260045260246000fd5b7f596f752063616e6e6f7420756e7374616b65642074686973206e6f7700000000600082015250565b6000612183601c8361203e565b915061218e8261214d565b602082019050919050565b600060208201905081810360008301526121b281612176565b9050919050565b7f5374616b6520697320696e206c6f636b2d757000000000000000000000000000600082015250565b60006121ef60138361203e565b91506121fa826121b9565b602082019050919050565b6000602082019050818103600083015261221e816121e2565b9050919050565b7f5374616b696e6720706175736564000000000000000000000000000000000000600082015250565b600061225b600e8361203e565b915061226682612225565b602082019050919050565b6000602082019050818103600083015261228a8161224e565b9050919050565b600061229c82611b2e565b91507fffffffffffffffffffffffffffffffffffffffffffffffffffffffffffffffff82036122ce576122cd6120bb565b5b600182019050919050565b60006122e482611b2e565b9150600082036122f7576122f66120bb565b5b600182039050919050565b7f416c6c207374616b657320696e206c6f636b2d75700000000000000000000000600082015250565b600061233860158361203e565b915061234382612302565b602082019050919050565b600060208201905081810360008301526123678161232b565b9050919050565b7f4f776e61626c653a206e6577206f776e657220697320746865207a65726f206160008201527f6464726573730000000000000000000000000000000000000000000000000000602082015250565b60006123ca60268361203e565b91506123d58261236e565b604082019050919050565b600060208201905081810360008301526123f9816123bd565b9050919050565b7f4f776e61626c653a2063616c6c6572206973206e6f7420746865206f776e6572600082015250565b600061243660208361203e565b915061244182612400565b602082019050919050565b6000602082019050818103600083015261246581612429565b9050919050565b600061247782611b2e565b915061248283611b2e565b925082820190508082111561249a576124996120bb565b5b92915050565b7f4d61782072617465206578636565646564000000000000000000000000000000600082015250565b60006124d660118361203e565b91506124e1826124a0565b602082019050919050565b60006020820190508181036000830152612505816124c9565b9050919050565b7f43616e6e6f74207374616b652030000000000000000000000000000000000000600082015250565b6000612542600e8361203e565b915061254d8261250c565b602082019050919050565b6000602082019050818103600083015261257181612535565b9050919050565b7f496e76616c6964206475726174696f6e00000000000000000000000000000000600082015250565b60006125ae60108361203e565b91506125b982612578565b602082019050919050565b600060208201905081810360008301526125dd816125a1565b9050919050565b7f7075742076616c6964206475726174696f6e0000000000000000000000000000600082015250565b600061261a60128361203e565b9150612625826125e4565b602082019050919050565b600060208201905081810360008301526126498161260d565b9050919050565b600061265b82611b2e565b915061266683611b2e565b9250817fffffffffffffffffffffffffffffffffffffffffffffffffffffffffffffffff048311821515161561269f5761269e6120bb565b5b828202905092915050565b7f4e487b7100000000000000000000000000000000000000000000000000000000600052601260045260246000fd5b60006126e482611b2e565b91506126ef83611b2e565b9250826126ff576126fe6126aa565b5b828204905092915050565b6000819050919050565b600061272f61272a61272584611cda565b61270a565b611b2e565b9050919050565b61273f81612714565b82525050565b600060608201905061275a6000830186611b38565b6127676020830185611b38565b6127746040830184612736565b94935050505056fea2646970667358221220d23483366d8561c11e9c6cb3769fb35e696b1a6e5a87e24fb957f676e4a0860a64736f6c63430008100033",
			"opcodes": "PUSH1 0x80 PUSH1 0x40 MSTORE PUSH1 0x40 MLOAD DUP1 PUSH1 0x80 ADD PUSH1 0x40 MSTORE DUP1 PUSH1 0xF PUSH1 0xFF AND DUP2 MSTORE PUSH1 0x20 ADD PUSH1 0x1E PUSH1 0xFF AND DUP2 MSTORE PUSH1 0x20 ADD PUSH1 0x2D PUSH1 0xFF AND DUP2 MSTORE PUSH1 0x20 ADD PUSH1 0x3C PUSH1 0xFF AND DUP2 MSTORE POP PUSH1 0x1 SWAP1 PUSH1 0x4 PUSH3 0x47 SWAP3 SWAP2 SWAP1 PUSH3 0x18C JUMP JUMPDEST POP PUSH1 0x40 MLOAD DUP1 PUSH1 0x80 ADD PUSH1 0x40 MSTORE DUP1 PUSH1 0x4 PUSH1 0xFF AND DUP2 MSTORE PUSH1 0x20 ADD PUSH1 0x6 PUSH1 0xFF AND DUP2 MSTORE PUSH1 0x20 ADD PUSH1 0x8 PUSH1 0xFF AND DUP2 MSTORE PUSH1 0x20 ADD PUSH1 0x9 PUSH1 0xFF AND DUP2 MSTORE POP PUSH1 0x2 SWAP1 PUSH1 0x4 PUSH3 0x8B SWAP3 SWAP2 SWAP1 PUSH3 0x18C JUMP JUMPDEST POP CALLVALUE DUP1 ISZERO PUSH3 0x99 JUMPI PUSH1 0x0 DUP1 REVERT JUMPDEST POP PUSH3 0xBA PUSH3 0xAE PUSH3 0xC0 PUSH1 0x20 SHL PUSH1 0x20 SHR JUMP JUMPDEST PUSH3 0xC8 PUSH1 0x20 SHL PUSH1 0x20 SHR JUMP JUMPDEST PUSH3 0x202 JUMP JUMPDEST PUSH1 0x0 CALLER SWAP1 POP SWAP1 JUMP JUMPDEST PUSH1 0x0 DUP1 PUSH1 0x0 SWAP1 SLOAD SWAP1 PUSH2 0x100 EXP SWAP1 DIV PUSH20 0xFFFFFFFFFFFFFFFFFFFFFFFFFFFFFFFFFFFFFFFF AND SWAP1 POP DUP2 PUSH1 0x0 DUP1 PUSH2 0x100 EXP DUP2 SLOAD DUP2 PUSH20 0xFFFFFFFFFFFFFFFFFFFFFFFFFFFFFFFFFFFFFFFF MUL NOT AND SWAP1 DUP4 PUSH20 0xFFFFFFFFFFFFFFFFFFFFFFFFFFFFFFFFFFFFFFFF AND MUL OR SWAP1 SSTORE POP DUP2 PUSH20 0xFFFFFFFFFFFFFFFFFFFFFFFFFFFFFFFFFFFFFFFF AND DUP2 PUSH20 0xFFFFFFFFFFFFFFFFFFFFFFFFFFFFFFFFFFFFFFFF AND PUSH32 0x8BE0079C531659141344CD1FD0A4F28419497F9722A3DAAFE3B4186F6B6457E0 PUSH1 0x40 MLOAD PUSH1 0x40 MLOAD DUP1 SWAP2 SUB SWAP1 LOG3 POP POP JUMP JUMPDEST DUP3 DUP1 SLOAD DUP3 DUP3 SSTORE SWAP1 PUSH1 0x0 MSTORE PUSH1 0x20 PUSH1 0x0 KECCAK256 SWAP1 DUP2 ADD SWAP3 DUP3 ISZERO PUSH3 0x1D0 JUMPI SWAP2 PUSH1 0x20 MUL DUP3 ADD JUMPDEST DUP3 DUP2 GT ISZERO PUSH3 0x1CF JUMPI DUP3 MLOAD DUP3 SWAP1 PUSH1 0xFF AND SWAP1 SSTORE SWAP2 PUSH1 0x20 ADD SWAP2 SWAP1 PUSH1 0x1 ADD SWAP1 PUSH3 0x1AD JUMP JUMPDEST JUMPDEST POP SWAP1 POP PUSH3 0x1DF SWAP2 SWAP1 PUSH3 0x1E3 JUMP JUMPDEST POP SWAP1 JUMP JUMPDEST JUMPDEST DUP1 DUP3 GT ISZERO PUSH3 0x1FE JUMPI PUSH1 0x0 DUP2 PUSH1 0x0 SWAP1 SSTORE POP PUSH1 0x1 ADD PUSH3 0x1E4 JUMP JUMPDEST POP SWAP1 JUMP JUMPDEST PUSH2 0x27B2 DUP1 PUSH3 0x212 PUSH1 0x0 CODECOPY PUSH1 0x0 RETURN INVALID PUSH1 0x80 PUSH1 0x40 MSTORE PUSH1 0x4 CALLDATASIZE LT PUSH2 0x118 JUMPI PUSH1 0x0 CALLDATALOAD PUSH1 0xE0 SHR DUP1 PUSH4 0x7B0472F0 GT PUSH2 0xA0 JUMPI DUP1 PUSH4 0xB5D5B5FA GT PUSH2 0x64 JUMPI DUP1 PUSH4 0xB5D5B5FA EQ PUSH2 0x433 JUMPI DUP1 PUSH4 0xBC20A7AF EQ PUSH2 0x474 JUMPI DUP1 PUSH4 0xDD418AE2 EQ PUSH2 0x4B1 JUMPI DUP1 PUSH4 0xE9FAD8EE EQ PUSH2 0x4EE JUMPI DUP1 PUSH4 0xF2FDE38B EQ PUSH2 0x505 JUMPI PUSH2 0x16D JUMP JUMPDEST DUP1 PUSH4 0x7B0472F0 EQ PUSH2 0x326 JUMPI DUP1 PUSH4 0x825E0E80 EQ PUSH2 0x34F JUMPI DUP1 PUSH4 0x86EFE63C EQ PUSH2 0x38C JUMPI DUP1 PUSH4 0x8DA5CB5B EQ PUSH2 0x3CA JUMPI DUP1 PUSH4 0x9BFD8D61 EQ PUSH2 0x3F5 JUMPI PUSH2 0x16D JUMP JUMPDEST DUP1 PUSH4 0x2E17DE78 GT PUSH2 0xE7 JUMPI DUP1 PUSH4 0x2E17DE78 EQ PUSH2 0x267 JUMPI DUP1 PUSH4 0x3472D465 EQ PUSH2 0x290 JUMPI DUP1 PUSH4 0x5C975ABB EQ PUSH2 0x2B9 JUMPI DUP1 PUSH4 0x6F9FB98A EQ PUSH2 0x2E4 JUMPI DUP1 PUSH4 0x715018A6 EQ PUSH2 0x30F JUMPI PUSH2 0x16D JUMP JUMPDEST DUP1 PUSH4 0x4238994 EQ PUSH2 0x1AD JUMPI DUP1 PUSH4 0xA861F2A EQ PUSH2 0x1EA JUMPI DUP1 PUSH4 0x16078D04 EQ PUSH2 0x213 JUMPI DUP1 PUSH4 0x16C38B3C EQ PUSH2 0x23E JUMPI PUSH2 0x16D JUMP JUMPDEST CALLDATASIZE PUSH2 0x16D JUMPI CALLER PUSH20 0xFFFFFFFFFFFFFFFFFFFFFFFFFFFFFFFFFFFFFFFF AND PUSH32 0x1E57E3BB474320BE3D2C77138F75B7C3941292D647F5F9634E33A8E94E0E069B CALLVALUE PUSH1 0x40 MLOAD PUSH2 0x163 SWAP2 SWAP1 PUSH2 0x1B47 JUMP JUMPDEST PUSH1 0x40 MLOAD DUP1 SWAP2 SUB SWAP1 LOG2 STOP JUMPDEST PUSH32 0x982457C3A668694541D4A16BDEB0B0F7AC3B524083FB913475E679112A9CB51 PUSH1 0x0 CALLDATASIZE CALLER CALLVALUE PUSH1 0x40 MLOAD PUSH2 0x1A3 SWAP5 SWAP4 SWAP3 SWAP2 SWAP1 PUSH2 0x1C01 JUMP JUMPDEST PUSH1 0x40 MLOAD DUP1 SWAP2 SUB SWAP1 LOG1 STOP JUMPDEST CALLVALUE DUP1 ISZERO PUSH2 0x1B9 JUMPI PUSH1 0x0 DUP1 REVERT JUMPDEST POP PUSH2 0x1D4 PUSH1 0x4 DUP1 CALLDATASIZE SUB DUP2 ADD SWAP1 PUSH2 0x1CF SWAP2 SWAP1 PUSH2 0x1C72 JUMP JUMPDEST PUSH2 0x52E JUMP JUMPDEST PUSH1 0x40 MLOAD PUSH2 0x1E1 SWAP2 SWAP1 PUSH2 0x1E1A JUMP JUMPDEST PUSH1 0x40 MLOAD DUP1 SWAP2 SUB SWAP1 RETURN JUMPDEST CALLVALUE DUP1 ISZERO PUSH2 0x1F6 JUMPI PUSH1 0x0 DUP1 REVERT JUMPDEST POP PUSH2 0x211 PUSH1 0x4 DUP1 CALLDATASIZE SUB DUP2 ADD SWAP1 PUSH2 0x20C SWAP2 SWAP1 PUSH2 0x1E68 JUMP JUMPDEST PUSH2 0x67C JUMP JUMPDEST STOP JUMPDEST CALLVALUE DUP1 ISZERO PUSH2 0x21F JUMPI PUSH1 0x0 DUP1 REVERT JUMPDEST POP PUSH2 0x228 PUSH2 0x687 JUMP JUMPDEST PUSH1 0x40 MLOAD PUSH2 0x235 SWAP2 SWAP1 PUSH2 0x1B47 JUMP JUMPDEST PUSH1 0x40 MLOAD DUP1 SWAP2 SUB SWAP1 RETURN JUMPDEST CALLVALUE DUP1 ISZERO PUSH2 0x24A JUMPI PUSH1 0x0 DUP1 REVERT JUMPDEST POP PUSH2 0x265 PUSH1 0x4 DUP1 CALLDATASIZE SUB DUP2 ADD SWAP1 PUSH2 0x260 SWAP2 SWAP1 PUSH2 0x1EC1 JUMP JUMPDEST PUSH2 0x68D JUMP JUMPDEST STOP JUMPDEST CALLVALUE DUP1 ISZERO PUSH2 0x273 JUMPI PUSH1 0x0 DUP1 REVERT JUMPDEST POP PUSH2 0x28E PUSH1 0x4 DUP1 CALLDATASIZE SUB DUP2 ADD SWAP1 PUSH2 0x289 SWAP2 SWAP1 PUSH2 0x1E68 JUMP JUMPDEST PUSH2 0x70F JUMP JUMPDEST STOP JUMPDEST CALLVALUE DUP1 ISZERO PUSH2 0x29C JUMPI PUSH1 0x0 DUP1 REVERT JUMPDEST POP PUSH2 0x2B7 PUSH1 0x4 DUP1 CALLDATASIZE SUB DUP2 ADD SWAP1 PUSH2 0x2B2 SWAP2 SWAP1 PUSH2 0x1EEE JUMP JUMPDEST PUSH2 0x9F8 JUMP JUMPDEST STOP JUMPDEST CALLVALUE DUP1 ISZERO PUSH2 0x2C5 JUMPI PUSH1 0x0 DUP1 REVERT JUMPDEST POP PUSH2 0x2CE PUSH2 0xA0E JUMP JUMPDEST PUSH1 0x40 MLOAD PUSH2 0x2DB SWAP2 SWAP1 PUSH2 0x1F3D JUMP JUMPDEST PUSH1 0x40 MLOAD DUP1 SWAP2 SUB SWAP1 RETURN JUMPDEST CALLVALUE DUP1 ISZERO PUSH2 0x2F0 JUMPI PUSH1 0x0 DUP1 REVERT JUMPDEST POP PUSH2 0x2F9 PUSH2 0xA21 JUMP JUMPDEST PUSH1 0x40 MLOAD PUSH2 0x306 SWAP2 SWAP1 PUSH2 0x1B47 JUMP JUMPDEST PUSH1 0x40 MLOAD DUP1 SWAP2 SUB SWAP1 RETURN JUMPDEST CALLVALUE DUP1 ISZERO PUSH2 0x31B JUMPI PUSH1 0x0 DUP1 REVERT JUMPDEST POP PUSH2 0x324 PUSH2 0xA31 JUMP JUMPDEST STOP JUMPDEST CALLVALUE DUP1 ISZERO PUSH2 0x332 JUMPI PUSH1 0x0 DUP1 REVERT JUMPDEST POP PUSH2 0x34D PUSH1 0x4 DUP1 CALLDATASIZE SUB DUP2 ADD SWAP1 PUSH2 0x348 SWAP2 SWAP1 PUSH2 0x1EEE JUMP JUMPDEST PUSH2 0xA45 JUMP JUMPDEST STOP JUMPDEST CALLVALUE DUP1 ISZERO PUSH2 0x35B JUMPI PUSH1 0x0 DUP1 REVERT JUMPDEST POP PUSH2 0x376 PUSH1 0x4 DUP1 CALLDATASIZE SUB DUP2 ADD SWAP1 PUSH2 0x371 SWAP2 SWAP1 PUSH2 0x1E68 JUMP JUMPDEST PUSH2 0xAA4 JUMP JUMPDEST PUSH1 0x40 MLOAD PUSH2 0x383 SWAP2 SWAP1 PUSH2 0x1B47 JUMP JUMPDEST PUSH1 0x40 MLOAD DUP1 SWAP2 SUB SWAP1 RETURN JUMPDEST CALLVALUE DUP1 ISZERO PUSH2 0x398 JUMPI PUSH1 0x0 DUP1 REVERT JUMPDEST POP PUSH2 0x3B3 PUSH1 0x4 DUP1 CALLDATASIZE SUB DUP2 ADD SWAP1 PUSH2 0x3AE SWAP2 SWAP1 PUSH2 0x1C72 JUMP JUMPDEST PUSH2 0xAD7 JUMP JUMPDEST PUSH1 0x40 MLOAD PUSH2 0x3C1 SWAP3 SWAP2 SWAP1 PUSH2 0x1F58 JUMP JUMPDEST PUSH1 0x40 MLOAD DUP1 SWAP2 SUB SWAP1 RETURN JUMPDEST CALLVALUE DUP1 ISZERO PUSH2 0x3D6 JUMPI PUSH1 0x0 DUP1 REVERT JUMPDEST POP PUSH2 0x3DF PUSH2 0xD4F JUMP JUMPDEST PUSH1 0x40 MLOAD PUSH2 0x3EC SWAP2 SWAP1 PUSH2 0x1F81 JUMP JUMPDEST PUSH1 0x40 MLOAD DUP1 SWAP2 SUB SWAP1 RETURN JUMPDEST CALLVALUE DUP1 ISZERO PUSH2 0x401 JUMPI PUSH1 0x0 DUP1 REVERT JUMPDEST POP PUSH2 0x41C PUSH1 0x4 DUP1 CALLDATASIZE SUB DUP2 ADD SWAP1 PUSH2 0x417 SWAP2 SWAP1 PUSH2 0x1C72 JUMP JUMPDEST PUSH2 0xD78 JUMP JUMPDEST PUSH1 0x40 MLOAD PUSH2 0x42A SWAP3 SWAP2 SWAP1 PUSH2 0x1F58 JUMP JUMPDEST PUSH1 0x40 MLOAD DUP1 SWAP2 SUB SWAP1 RETURN JUMPDEST CALLVALUE DUP1 ISZERO PUSH2 0x43F JUMPI PUSH1 0x0 DUP1 REVERT JUMPDEST POP PUSH2 0x45A PUSH1 0x4 DUP1 CALLDATASIZE SUB DUP2 ADD SWAP1 PUSH2 0x455 SWAP2 SWAP1 PUSH2 0x1F9C JUMP JUMPDEST PUSH2 0xF45 JUMP JUMPDEST PUSH1 0x40 MLOAD PUSH2 0x46B SWAP6 SWAP5 SWAP4 SWAP3 SWAP2 SWAP1 PUSH2 0x1FEB JUMP JUMPDEST PUSH1 0x40 MLOAD DUP1 SWAP2 SUB SWAP1 RETURN JUMPDEST CALLVALUE DUP1 ISZERO PUSH2 0x480 JUMPI PUSH1 0x0 DUP1 REVERT JUMPDEST POP PUSH2 0x49B PUSH1 0x4 DUP1 CALLDATASIZE SUB DUP2 ADD SWAP1 PUSH2 0x496 SWAP2 SWAP1 PUSH2 0x1E68 JUMP JUMPDEST PUSH2 0xFD0 JUMP JUMPDEST PUSH1 0x40 MLOAD PUSH2 0x4A8 SWAP2 SWAP1 PUSH2 0x1B47 JUMP JUMPDEST PUSH1 0x40 MLOAD DUP1 SWAP2 SUB SWAP1 RETURN JUMPDEST CALLVALUE DUP1 ISZERO PUSH2 0x4BD JUMPI PUSH1 0x0 DUP1 REVERT JUMPDEST POP PUSH2 0x4D8 PUSH1 0x4 DUP1 CALLDATASIZE SUB DUP2 ADD SWAP1 PUSH2 0x4D3 SWAP2 SWAP1 PUSH2 0x1E68 JUMP JUMPDEST PUSH2 0xFF4 JUMP JUMPDEST PUSH1 0x40 MLOAD PUSH2 0x4E5 SWAP2 SWAP1 PUSH2 0x1B47 JUMP JUMPDEST PUSH1 0x40 MLOAD DUP1 SWAP2 SUB SWAP1 RETURN JUMPDEST CALLVALUE DUP1 ISZERO PUSH2 0x4FA JUMPI PUSH1 0x0 DUP1 REVERT JUMPDEST POP PUSH2 0x503 PUSH2 0x1018 JUMP JUMPDEST STOP JUMPDEST CALLVALUE DUP1 ISZERO PUSH2 0x511 JUMPI PUSH1 0x0 DUP1 REVERT JUMPDEST POP PUSH2 0x52C PUSH1 0x4 DUP1 CALLDATASIZE SUB DUP2 ADD SWAP1 PUSH2 0x527 SWAP2 SWAP1 PUSH2 0x1C72 JUMP JUMPDEST PUSH2 0x1312 JUMP JUMPDEST STOP JUMPDEST PUSH1 0x60 PUSH1 0x5 PUSH1 0x0 DUP4 PUSH20 0xFFFFFFFFFFFFFFFFFFFFFFFFFFFFFFFFFFFFFFFF AND PUSH20 0xFFFFFFFFFFFFFFFFFFFFFFFFFFFFFFFFFFFFFFFF AND DUP2 MSTORE PUSH1 0x20 ADD SWAP1 DUP2 MSTORE PUSH1 0x20 ADD PUSH1 0x0 KECCAK256 DUP1 SLOAD DUP1 PUSH1 0x20 MUL PUSH1 0x20 ADD PUSH1 0x40 MLOAD SWAP1 DUP2 ADD PUSH1 0x40 MSTORE DUP1 SWAP3 SWAP2 SWAP1 DUP2 DUP2 MSTORE PUSH1 0x20 ADD PUSH1 0x0 SWAP1 JUMPDEST DUP3 DUP3 LT ISZERO PUSH2 0x671 JUMPI DUP4 DUP3 SWAP1 PUSH1 0x0 MSTORE PUSH1 0x20 PUSH1 0x0 KECCAK256 SWAP1 PUSH1 0x4 MUL ADD PUSH1 0x40 MLOAD DUP1 PUSH1 0xA0 ADD PUSH1 0x40 MSTORE SWAP1 DUP2 PUSH1 0x0 DUP3 ADD SLOAD DUP2 MSTORE PUSH1 0x20 ADD PUSH1 0x1 DUP3 ADD SLOAD DUP2 MSTORE PUSH1 0x20 ADD PUSH1 0x2 DUP3 ADD SLOAD DUP2 MSTORE PUSH1 0x20 ADD PUSH1 0x3 DUP3 ADD PUSH1 0x0 SWAP1 SLOAD SWAP1 PUSH2 0x100 EXP SWAP1 DIV PUSH31 0xFFFFFFFFFFFFFFFFFFFFFFFFFFFFFFFFFFFFFFFFFFFFFFFFFFFFFFFFFFFFFF AND PUSH31 0xFFFFFFFFFFFFFFFFFFFFFFFFFFFFFFFFFFFFFFFFFFFFFFFFFFFFFFFFFFFFFF AND PUSH31 0xFFFFFFFFFFFFFFFFFFFFFFFFFFFFFFFFFFFFFFFFFFFFFFFFFFFFFFFFFFFFFF AND DUP2 MSTORE PUSH1 0x20 ADD PUSH1 0x3 DUP3 ADD PUSH1 0x1F SWAP1 SLOAD SWAP1 PUSH2 0x100 EXP SWAP1 DIV PUSH1 0xFF AND ISZERO ISZERO ISZERO ISZERO DUP2 MSTORE POP POP DUP2 MSTORE PUSH1 0x20 ADD SWAP1 PUSH1 0x1 ADD SWAP1 PUSH2 0x58F JUMP JUMPDEST POP POP POP POP SWAP1 POP SWAP2 SWAP1 POP JUMP JUMPDEST PUSH2 0x684 PUSH2 0x1395 JUMP JUMPDEST POP JUMP JUMPDEST PUSH1 0x3 SLOAD DUP2 JUMP JUMPDEST PUSH2 0x695 PUSH2 0x1395 JUMP JUMPDEST DUP1 PUSH1 0x4 PUSH1 0x0 PUSH2 0x100 EXP DUP2 SLOAD DUP2 PUSH1 0xFF MUL NOT AND SWAP1 DUP4 ISZERO ISZERO MUL OR SWAP1 SSTORE POP CALLER PUSH20 0xFFFFFFFFFFFFFFFFFFFFFFFFFFFFFFFFFFFFFFFF AND PUSH32 0xE8699CF681560FD07DE85543BD994263F4557BDC5179DD702F256D15FD083E1D PUSH1 0x4 PUSH1 0x0 SWAP1 SLOAD SWAP1 PUSH2 0x100 EXP SWAP1 DIV PUSH1 0xFF AND PUSH1 0x40 MLOAD PUSH2 0x704 SWAP2 SWAP1 PUSH2 0x1F3D JUMP JUMPDEST PUSH1 0x40 MLOAD DUP1 SWAP2 SUB SWAP1 LOG2 POP JUMP JUMPDEST PUSH1 0x0 PUSH1 0x5 PUSH1 0x0 CALLER PUSH20 0xFFFFFFFFFFFFFFFFFFFFFFFFFFFFFFFFFFFFFFFF AND PUSH20 0xFFFFFFFFFFFFFFFFFFFFFFFFFFFFFFFFFFFFFFFF AND DUP2 MSTORE PUSH1 0x20 ADD SWAP1 DUP2 MSTORE PUSH1 0x20 ADD PUSH1 0x0 KECCAK256 SWAP1 POP PUSH1 0x0 DUP2 DUP1 SLOAD SWAP1 POP GT PUSH2 0x799 JUMPI PUSH1 0x40 MLOAD PUSH32 0x8C379A000000000000000000000000000000000000000000000000000000000 DUP2 MSTORE PUSH1 0x4 ADD PUSH2 0x790 SWAP1 PUSH2 0x209B JUMP JUMPDEST PUSH1 0x40 MLOAD DUP1 SWAP2 SUB SWAP1 REVERT JUMPDEST PUSH1 0x0 DUP1 DUP3 PUSH1 0x1 DUP6 PUSH2 0x7AA SWAP2 SWAP1 PUSH2 0x20EA JUMP JUMPDEST DUP2 SLOAD DUP2 LT PUSH2 0x7BB JUMPI PUSH2 0x7BA PUSH2 0x211E JUMP JUMPDEST JUMPDEST SWAP1 PUSH1 0x0 MSTORE PUSH1 0x20 PUSH1 0x0 KECCAK256 SWAP1 PUSH1 0x4 MUL ADD PUSH1 0x40 MLOAD DUP1 PUSH1 0xA0 ADD PUSH1 0x40 MSTORE SWAP1 DUP2 PUSH1 0x0 DUP3 ADD SLOAD DUP2 MSTORE PUSH1 0x20 ADD PUSH1 0x1 DUP3 ADD SLOAD DUP2 MSTORE PUSH1 0x20 ADD PUSH1 0x2 DUP3 ADD SLOAD DUP2 MSTORE PUSH1 0x20 ADD PUSH1 0x3 DUP3 ADD PUSH1 0x0 SWAP1 SLOAD SWAP1 PUSH2 0x100 EXP SWAP1 DIV PUSH31 0xFFFFFFFFFFFFFFFFFFFFFFFFFFFFFFFFFFFFFFFFFFFFFFFFFFFFFFFFFFFFFF AND PUSH31 0xFFFFFFFFFFFFFFFFFFFFFFFFFFFFFFFFFFFFFFFFFFFFFFFFFFFFFFFFFFFFFF AND PUSH31 0xFFFFFFFFFFFFFFFFFFFFFFFFFFFFFFFFFFFFFFFFFFFFFFFFFFFFFFFFFFFFFF AND DUP2 MSTORE PUSH1 0x20 ADD PUSH1 0x3 DUP3 ADD PUSH1 0x1F SWAP1 SLOAD SWAP1 PUSH2 0x100 EXP SWAP1 DIV PUSH1 0xFF AND ISZERO ISZERO ISZERO ISZERO DUP2 MSTORE POP POP SWAP1 POP DUP1 PUSH1 0x80 ADD MLOAD ISZERO DUP1 ISZERO PUSH2 0x89B JUMPI POP TIMESTAMP DUP2 PUSH1 0x20 ADD MLOAD LT JUMPDEST PUSH2 0x8DA JUMPI PUSH1 0x40 MLOAD PUSH32 0x8C379A000000000000000000000000000000000000000000000000000000000 DUP2 MSTORE PUSH1 0x4 ADD PUSH2 0x8D1 SWAP1 PUSH2 0x2199 JUMP JUMPDEST PUSH1 0x40 MLOAD DUP1 SWAP2 SUB SWAP1 REVERT JUMPDEST PUSH1 0x1 DUP4 PUSH1 0x1 DUP7 PUSH2 0x8EA SWAP2 SWAP1 PUSH2 0x20EA JUMP JUMPDEST DUP2 SLOAD DUP2 LT PUSH2 0x8FB JUMPI PUSH2 0x8FA PUSH2 0x211E JUMP JUMPDEST JUMPDEST SWAP1 PUSH1 0x0 MSTORE PUSH1 0x20 PUSH1 0x0 KECCAK256 SWAP1 PUSH1 0x4 MUL ADD PUSH1 0x3 ADD PUSH1 0x1F PUSH2 0x100 EXP DUP2 SLOAD DUP2 PUSH1 0xFF MUL NOT AND SWAP1 DUP4 ISZERO ISZERO MUL OR SWAP1 SSTORE POP PUSH2 0x93E PUSH2 0x92F DUP3 PUSH2 0x1413 JUMP JUMPDEST DUP4 PUSH2 0x1495 SWAP1 SWAP2 SWAP1 PUSH4 0xFFFFFFFF AND JUMP JUMPDEST SWAP2 POP PUSH1 0x0 DUP3 GT PUSH2 0x983 JUMPI PUSH1 0x40 MLOAD PUSH32 0x8C379A000000000000000000000000000000000000000000000000000000000 DUP2 MSTORE PUSH1 0x4 ADD PUSH2 0x97A SWAP1 PUSH2 0x2205 JUMP JUMPDEST PUSH1 0x40 MLOAD DUP1 SWAP2 SUB SWAP1 REVERT JUMPDEST PUSH2 0x998 DUP3 PUSH1 0x3 SLOAD PUSH2 0x14AB SWAP1 SWAP2 SWAP1 PUSH4 0xFFFFFFFF AND JUMP JUMPDEST PUSH1 0x3 DUP2 SWAP1 SSTORE POP CALLER PUSH20 0xFFFFFFFFFFFFFFFFFFFFFFFFFFFFFFFFFFFFFFFF AND PUSH32 0x92CCF450A286A957AF52509BC1C9939D1A6A481783E142E41E2499F0BB66EBC6 DUP4 DUP4 PUSH1 0x0 ADD MLOAD PUSH1 0x40 MLOAD PUSH2 0x9EA SWAP3 SWAP2 SWAP1 PUSH2 0x1F58 JUMP JUMPDEST PUSH1 0x40 MLOAD DUP1 SWAP2 SUB SWAP1 LOG2 POP POP POP POP JUMP JUMPDEST PUSH2 0xA00 PUSH2 0x1395 JUMP JUMPDEST PUSH2 0xA0A DUP3 DUP3 PUSH2 0x14C1 JUMP JUMPDEST POP POP JUMP JUMPDEST PUSH1 0x4 PUSH1 0x0 SWAP1 SLOAD SWAP1 PUSH2 0x100 EXP SWAP1 DIV PUSH1 0xFF AND DUP2 JUMP JUMPDEST PUSH1 0x0 PUSH2 0xA2B PUSH2 0x1395 JUMP JUMPDEST SELFBALANCE SWAP1 POP SWAP1 JUMP JUMPDEST PUSH2 0xA39 PUSH2 0x1395 JUMP JUMPDEST PUSH2 0xA43 PUSH1 0x0 PUSH2 0x1616 JUMP JUMPDEST JUMP JUMPDEST PUSH1 0x4 PUSH1 0x0 SWAP1 SLOAD SWAP1 PUSH2 0x100 EXP SWAP1 DIV PUSH1 0xFF AND ISZERO PUSH2 0xA95 JUMPI PUSH1 0x40 MLOAD PUSH32 0x8C379A000000000000000000000000000000000000000000000000000000000 DUP2 MSTORE PUSH1 0x4 ADD PUSH2 0xA8C SWAP1 PUSH2 0x2271 JUMP JUMPDEST PUSH1 0x40 MLOAD DUP1 SWAP2 SUB SWAP1 REVERT JUMPDEST PUSH2 0xAA0 CALLER DUP4 DUP4 PUSH2 0x16DA JUMP JUMPDEST POP POP JUMP JUMPDEST PUSH1 0x0 PUSH2 0xAAF DUP3 PUSH2 0x17BE JUMP JUMPDEST PUSH31 0xFFFFFFFFFFFFFFFFFFFFFFFFFFFFFFFFFFFFFFFFFFFFFFFFFFFFFFFFFFFFFF AND SWAP1 POP SWAP2 SWAP1 POP JUMP JUMPDEST PUSH1 0x0 DUP1 PUSH1 0x0 PUSH1 0x5 PUSH1 0x0 DUP6 PUSH20 0xFFFFFFFFFFFFFFFFFFFFFFFFFFFFFFFFFFFFFFFF AND PUSH20 0xFFFFFFFFFFFFFFFFFFFFFFFFFFFFFFFFFFFFFFFF AND DUP2 MSTORE PUSH1 0x20 ADD SWAP1 DUP2 MSTORE PUSH1 0x20 ADD PUSH1 0x0 KECCAK256 DUP1 SLOAD DUP1 PUSH1 0x20 MUL PUSH1 0x20 ADD PUSH1 0x40 MLOAD SWAP1 DUP2 ADD PUSH1 0x40 MSTORE DUP1 SWAP3 SWAP2 SWAP1 DUP2 DUP2 MSTORE PUSH1 0x20 ADD PUSH1 0x0 SWAP1 JUMPDEST DUP3 DUP3 LT ISZERO PUSH2 0xC1D JUMPI DUP4 DUP3 SWAP1 PUSH1 0x0 MSTORE PUSH1 0x20 PUSH1 0x0 KECCAK256 SWAP1 PUSH1 0x4 MUL ADD PUSH1 0x40 MLOAD DUP1 PUSH1 0xA0 ADD PUSH1 0x40 MSTORE SWAP1 DUP2 PUSH1 0x0 DUP3 ADD SLOAD DUP2 MSTORE PUSH1 0x20 ADD PUSH1 0x1 DUP3 ADD SLOAD DUP2 MSTORE PUSH1 0x20 ADD PUSH1 0x2 DUP3 ADD SLOAD DUP2 MSTORE PUSH1 0x20 ADD PUSH1 0x3 DUP3 ADD PUSH1 0x0 SWAP1 SLOAD SWAP1 PUSH2 0x100 EXP SWAP1 DIV PUSH31 0xFFFFFFFFFFFFFFFFFFFFFFFFFFFFFFFFFFFFFFFFFFFFFFFFFFFFFFFFFFFFFF AND PUSH31 0xFFFFFFFFFFFFFFFFFFFFFFFFFFFFFFFFFFFFFFFFFFFFFFFFFFFFFFFFFFFFFF AND PUSH31 0xFFFFFFFFFFFFFFFFFFFFFFFFFFFFFFFFFFFFFFFFFFFFFFFFFFFFFFFFFFFFFF AND DUP2 MSTORE PUSH1 0x20 ADD PUSH1 0x3 DUP3 ADD PUSH1 0x1F SWAP1 SLOAD SWAP1 PUSH2 0x100 EXP SWAP1 DIV PUSH1 0xFF AND ISZERO ISZERO ISZERO ISZERO DUP2 MSTORE POP POP DUP2 MSTORE PUSH1 0x20 ADD SWAP1 PUSH1 0x1 ADD SWAP1 PUSH2 0xB3B JUMP JUMPDEST POP POP POP POP SWAP1 POP PUSH1 0x0 JUMPDEST DUP2 MLOAD DUP2 LT ISZERO PUSH2 0xD48 JUMPI DUP2 DUP2 DUP2 MLOAD DUP2 LT PUSH2 0xC42 JUMPI PUSH2 0xC41 PUSH2 0x211E JUMP JUMPDEST JUMPDEST PUSH1 0x20 MUL PUSH1 0x20 ADD ADD MLOAD PUSH1 0x80 ADD MLOAD PUSH2 0xD35 JUMPI PUSH2 0xC83 DUP3 DUP3 DUP2 MLOAD DUP2 LT PUSH2 0xC68 JUMPI PUSH2 0xC67 PUSH2 0x211E JUMP JUMPDEST JUMPDEST PUSH1 0x20 MUL PUSH1 0x20 ADD ADD MLOAD PUSH1 0x0 ADD MLOAD DUP6 PUSH2 0x1495 SWAP1 SWAP2 SWAP1 PUSH4 0xFFFFFFFF AND JUMP JUMPDEST SWAP4 POP PUSH2 0xD2E PUSH2 0xD1F PUSH2 0x2710 PUSH2 0xD11 PUSH2 0xCE4 PUSH1 0x64 DUP8 DUP8 DUP2 MLOAD DUP2 LT PUSH2 0xCA9 JUMPI PUSH2 0xCA8 PUSH2 0x211E JUMP JUMPDEST JUMPDEST PUSH1 0x20 MUL PUSH1 0x20 ADD ADD MLOAD PUSH1 0x60 ADD MLOAD PUSH31 0xFFFFFFFFFFFFFFFFFFFFFFFFFFFFFFFFFFFFFFFFFFFFFFFFFFFFFFFFFFFFFF AND PUSH2 0x182D SWAP1 SWAP2 SWAP1 PUSH4 0xFFFFFFFF AND JUMP JUMPDEST DUP7 DUP7 DUP2 MLOAD DUP2 LT PUSH2 0xCF7 JUMPI PUSH2 0xCF6 PUSH2 0x211E JUMP JUMPDEST JUMPDEST PUSH1 0x20 MUL PUSH1 0x20 ADD ADD MLOAD PUSH1 0x0 ADD MLOAD PUSH2 0x182D SWAP1 SWAP2 SWAP1 PUSH4 0xFFFFFFFF AND JUMP JUMPDEST PUSH2 0x1843 SWAP1 SWAP2 SWAP1 PUSH4 0xFFFFFFFF AND JUMP JUMPDEST DUP6 PUSH2 0x1495 SWAP1 SWAP2 SWAP1 PUSH4 0xFFFFFFFF AND JUMP JUMPDEST SWAP4 POP DUP2 MLOAD SWAP3 POP JUMPDEST DUP1 DUP1 PUSH2 0xD40 SWAP1 PUSH2 0x2291 JUMP JUMPDEST SWAP2 POP POP PUSH2 0xC26 JUMP JUMPDEST POP POP SWAP2 POP SWAP2 JUMP JUMPDEST PUSH1 0x0 DUP1 PUSH1 0x0 SWAP1 SLOAD SWAP1 PUSH2 0x100 EXP SWAP1 DIV PUSH20 0xFFFFFFFFFFFFFFFFFFFFFFFFFFFFFFFFFFFFFFFF AND SWAP1 POP SWAP1 JUMP JUMPDEST PUSH1 0x0 DUP1 PUSH1 0x0 PUSH1 0x5 PUSH1 0x0 DUP6 PUSH20 0xFFFFFFFFFFFFFFFFFFFFFFFFFFFFFFFFFFFFFFFF AND PUSH20 0xFFFFFFFFFFFFFFFFFFFFFFFFFFFFFFFFFFFFFFFF AND DUP2 MSTORE PUSH1 0x20 ADD SWAP1 DUP2 MSTORE PUSH1 0x20 ADD PUSH1 0x0 KECCAK256 DUP1 SLOAD DUP1 PUSH1 0x20 MUL PUSH1 0x20 ADD PUSH1 0x40 MLOAD SWAP1 DUP2 ADD PUSH1 0x40 MSTORE DUP1 SWAP3 SWAP2 SWAP1 DUP2 DUP2 MSTORE PUSH1 0x20 ADD PUSH1 0x0 SWAP1 JUMPDEST DUP3 DUP3 LT ISZERO PUSH2 0xEBE JUMPI DUP4 DUP3 SWAP1 PUSH1 0x0 MSTORE PUSH1 0x20 PUSH1 0x0 KECCAK256 SWAP1 PUSH1 0x4 MUL ADD PUSH1 0x40 MLOAD DUP1 PUSH1 0xA0 ADD PUSH1 0x40 MSTORE SWAP1 DUP2 PUSH1 0x0 DUP3 ADD SLOAD DUP2 MSTORE PUSH1 0x20 ADD PUSH1 0x1 DUP3 ADD SLOAD DUP2 MSTORE PUSH1 0x20 ADD PUSH1 0x2 DUP3 ADD SLOAD DUP2 MSTORE PUSH1 0x20 ADD PUSH1 0x3 DUP3 ADD PUSH1 0x0 SWAP1 SLOAD SWAP1 PUSH2 0x100 EXP SWAP1 DIV PUSH31 0xFFFFFFFFFFFFFFFFFFFFFFFFFFFFFFFFFFFFFFFFFFFFFFFFFFFFFFFFFFFFFF AND PUSH31 0xFFFFFFFFFFFFFFFFFFFFFFFFFFFFFFFFFFFFFFFFFFFFFFFFFFFFFFFFFFFFFF AND PUSH31 0xFFFFFFFFFFFFFFFFFFFFFFFFFFFFFFFFFFFFFFFFFFFFFFFFFFFFFFFFFFFFFF AND DUP2 MSTORE PUSH1 0x20 ADD PUSH1 0x3 DUP3 ADD PUSH1 0x1F SWAP1 SLOAD SWAP1 PUSH2 0x100 EXP SWAP1 DIV PUSH1 0xFF AND ISZERO ISZERO ISZERO ISZERO DUP2 MSTORE POP POP DUP2 MSTORE PUSH1 0x20 ADD SWAP1 PUSH1 0x1 ADD SWAP1 PUSH2 0xDDC JUMP JUMPDEST POP POP POP POP SWAP1 POP PUSH1 0x0 JUMPDEST DUP2 MLOAD DUP2 LT ISZERO PUSH2 0xF3E JUMPI DUP2 DUP2 DUP2 MLOAD DUP2 LT PUSH2 0xEE3 JUMPI PUSH2 0xEE2 PUSH2 0x211E JUMP JUMPDEST JUMPDEST PUSH1 0x20 MUL PUSH1 0x20 ADD ADD MLOAD PUSH1 0x80 ADD MLOAD PUSH2 0xF2B JUMPI PUSH2 0xF24 DUP3 DUP3 DUP2 MLOAD DUP2 LT PUSH2 0xF09 JUMPI PUSH2 0xF08 PUSH2 0x211E JUMP JUMPDEST JUMPDEST PUSH1 0x20 MUL PUSH1 0x20 ADD ADD MLOAD PUSH1 0x0 ADD MLOAD DUP6 PUSH2 0x1495 SWAP1 SWAP2 SWAP1 PUSH4 0xFFFFFFFF AND JUMP JUMPDEST SWAP4 POP DUP2 MLOAD SWAP3 POP JUMPDEST DUP1 DUP1 PUSH2 0xF36 SWAP1 PUSH2 0x2291 JUMP JUMPDEST SWAP2 POP POP PUSH2 0xEC7 JUMP JUMPDEST POP POP SWAP2 POP SWAP2 JUMP JUMPDEST PUSH1 0x5 PUSH1 0x20 MSTORE DUP2 PUSH1 0x0 MSTORE PUSH1 0x40 PUSH1 0x0 KECCAK256 DUP2 DUP2 SLOAD DUP2 LT PUSH2 0xF61 JUMPI PUSH1 0x0 DUP1 REVERT JUMPDEST SWAP1 PUSH1 0x0 MSTORE PUSH1 0x20 PUSH1 0x0 KECCAK256 SWAP1 PUSH1 0x4 MUL ADD PUSH1 0x0 SWAP2 POP SWAP2 POP POP DUP1 PUSH1 0x0 ADD SLOAD SWAP1 DUP1 PUSH1 0x1 ADD SLOAD SWAP1 DUP1 PUSH1 0x2 ADD SLOAD SWAP1 DUP1 PUSH1 0x3 ADD PUSH1 0x0 SWAP1 SLOAD SWAP1 PUSH2 0x100 EXP SWAP1 DIV PUSH31 0xFFFFFFFFFFFFFFFFFFFFFFFFFFFFFFFFFFFFFFFFFFFFFFFFFFFFFFFFFFFFFF AND SWAP1 DUP1 PUSH1 0x3 ADD PUSH1 0x1F SWAP1 SLOAD SWAP1 PUSH2 0x100 EXP SWAP1 DIV PUSH1 0xFF AND SWAP1 POP DUP6 JUMP JUMPDEST PUSH1 0x1 DUP2 DUP2 SLOAD DUP2 LT PUSH2 0xFE0 JUMPI PUSH1 0x0 DUP1 REVERT JUMPDEST SWAP1 PUSH1 0x0 MSTORE PUSH1 0x20 PUSH1 0x0 KECCAK256 ADD PUSH1 0x0 SWAP2 POP SWAP1 POP SLOAD DUP2 JUMP JUMPDEST PUSH1 0x2 DUP2 DUP2 SLOAD DUP2 LT PUSH2 0x1004 JUMPI PUSH1 0x0 DUP1 REVERT JUMPDEST SWAP1 PUSH1 0x0 MSTORE PUSH1 0x20 PUSH1 0x0 KECCAK256 ADD PUSH1 0x0 SWAP2 POP SWAP1 POP SLOAD DUP2 JUMP JUMPDEST PUSH1 0x0 PUSH1 0x5 PUSH1 0x0 CALLER PUSH20 0xFFFFFFFFFFFFFFFFFFFFFFFFFFFFFFFFFFFFFFFF AND PUSH20 0xFFFFFFFFFFFFFFFFFFFFFFFFFFFFFFFFFFFFFFFF AND DUP2 MSTORE PUSH1 0x20 ADD SWAP1 DUP2 MSTORE PUSH1 0x20 ADD PUSH1 0x0 KECCAK256 SWAP1 POP PUSH1 0x0 DUP2 DUP1 SLOAD SWAP1 POP GT PUSH2 0x10A2 JUMPI PUSH1 0x40 MLOAD PUSH32 0x8C379A000000000000000000000000000000000000000000000000000000000 DUP2 MSTORE PUSH1 0x4 ADD PUSH2 0x1099 SWAP1 PUSH2 0x209B JUMP JUMPDEST PUSH1 0x40 MLOAD DUP1 SWAP2 SUB SWAP1 REVERT JUMPDEST PUSH1 0x0 DUP1 PUSH1 0x0 DUP4 DUP1 SLOAD SWAP1 POP SWAP1 POP JUMPDEST PUSH1 0x0 DUP5 PUSH1 0x1 DUP4 PUSH2 0x10BF SWAP2 SWAP1 PUSH2 0x20EA JUMP JUMPDEST DUP2 SLOAD DUP2 LT PUSH2 0x10D0 JUMPI PUSH2 0x10CF PUSH2 0x211E JUMP JUMPDEST JUMPDEST SWAP1 PUSH1 0x0 MSTORE PUSH1 0x20 PUSH1 0x0 KECCAK256 SWAP1 PUSH1 0x4 MUL ADD PUSH1 0x40 MLOAD DUP1 PUSH1 0xA0 ADD PUSH1 0x40 MSTORE SWAP1 DUP2 PUSH1 0x0 DUP3 ADD SLOAD DUP2 MSTORE PUSH1 0x20 ADD PUSH1 0x1 DUP3 ADD SLOAD DUP2 MSTORE PUSH1 0x20 ADD PUSH1 0x2 DUP3 ADD SLOAD DUP2 MSTORE PUSH1 0x20 ADD PUSH1 0x3 DUP3 ADD PUSH1 0x0 SWAP1 SLOAD SWAP1 PUSH2 0x100 EXP SWAP1 DIV PUSH31 0xFFFFFFFFFFFFFFFFFFFFFFFFFFFFFFFFFFFFFFFFFFFFFFFFFFFFFFFFFFFFFF AND PUSH31 0xFFFFFFFFFFFFFFFFFFFFFFFFFFFFFFFFFFFFFFFFFFFFFFFFFFFFFFFFFFFFFF AND PUSH31 0xFFFFFFFFFFFFFFFFFFFFFFFFFFFFFFFFFFFFFFFFFFFFFFFFFFFFFFFFFFFFFF AND DUP2 MSTORE PUSH1 0x20 ADD PUSH1 0x3 DUP3 ADD PUSH1 0x1F SWAP1 SLOAD SWAP1 PUSH2 0x100 EXP SWAP1 DIV PUSH1 0xFF AND ISZERO ISZERO ISZERO ISZERO DUP2 MSTORE POP POP SWAP1 POP TIMESTAMP DUP2 PUSH1 0x20 ADD MLOAD LT DUP1 ISZERO PUSH2 0x11AF JUMPI POP DUP1 PUSH1 0x80 ADD MLOAD JUMPDEST ISZERO PUSH2 0x11BA JUMPI POP PUSH2 0x125E JUMP JUMPDEST TIMESTAMP DUP2 PUSH1 0x20 ADD MLOAD LT ISZERO PUSH2 0x1246 JUMPI PUSH1 0x1 DUP6 PUSH1 0x1 DUP5 PUSH2 0x11D6 SWAP2 SWAP1 PUSH2 0x20EA JUMP JUMPDEST DUP2 SLOAD DUP2 LT PUSH2 0x11E7 JUMPI PUSH2 0x11E6 PUSH2 0x211E JUMP JUMPDEST JUMPDEST SWAP1 PUSH1 0x0 MSTORE PUSH1 0x20 PUSH1 0x0 KECCAK256 SWAP1 PUSH1 0x4 MUL ADD PUSH1 0x3 ADD PUSH1 0x1F PUSH2 0x100 EXP DUP2 SLOAD DUP2 PUSH1 0xFF MUL NOT AND SWAP1 DUP4 ISZERO ISZERO MUL OR SWAP1 SSTORE POP PUSH2 0x122A PUSH2 0x121B DUP3 PUSH2 0x1413 JUMP JUMPDEST DUP6 PUSH2 0x1495 SWAP1 SWAP2 SWAP1 PUSH4 0xFFFFFFFF AND JUMP JUMPDEST SWAP4 POP PUSH2 0x1243 DUP2 PUSH1 0x0 ADD MLOAD DUP5 PUSH2 0x1495 SWAP1 SWAP2 SWAP1 PUSH4 0xFFFFFFFF AND JUMP JUMPDEST SWAP3 POP JUMPDEST DUP2 DUP1 PUSH2 0x1251 SWAP1 PUSH2 0x22D9 JUMP JUMPDEST SWAP3 POP POP POP PUSH1 0x0 DUP2 GT PUSH2 0x10AF JUMPI JUMPDEST PUSH1 0x0 DUP4 GT PUSH2 0x12A1 JUMPI PUSH1 0x40 MLOAD PUSH32 0x8C379A000000000000000000000000000000000000000000000000000000000 DUP2 MSTORE PUSH1 0x4 ADD PUSH2 0x1298 SWAP1 PUSH2 0x234E JUMP JUMPDEST PUSH1 0x40 MLOAD DUP1 SWAP2 SUB SWAP1 REVERT JUMPDEST PUSH2 0x12B6 DUP4 PUSH1 0x3 SLOAD PUSH2 0x14AB SWAP1 SWAP2 SWAP1 PUSH4 0xFFFFFFFF AND JUMP JUMPDEST PUSH1 0x3 DUP2 SWAP1 SSTORE POP CALLER PUSH20 0xFFFFFFFFFFFFFFFFFFFFFFFFFFFFFFFFFFFFFFFF AND PUSH32 0x92CCF450A286A957AF52509BC1C9939D1A6A481783E142E41E2499F0BB66EBC6 DUP5 DUP5 PUSH1 0x40 MLOAD PUSH2 0x1304 SWAP3 SWAP2 SWAP1 PUSH2 0x1F58 JUMP JUMPDEST PUSH1 0x40 MLOAD DUP1 SWAP2 SUB SWAP1 LOG2 POP POP POP POP JUMP JUMPDEST PUSH2 0x131A PUSH2 0x1395 JUMP JUMPDEST PUSH1 0x0 PUSH20 0xFFFFFFFFFFFFFFFFFFFFFFFFFFFFFFFFFFFFFFFF AND DUP2 PUSH20 0xFFFFFFFFFFFFFFFFFFFFFFFFFFFFFFFFFFFFFFFF AND SUB PUSH2 0x1389 JUMPI PUSH1 0x40 MLOAD PUSH32 0x8C379A000000000000000000000000000000000000000000000000000000000 DUP2 MSTORE PUSH1 0x4 ADD PUSH2 0x1380 SWAP1 PUSH2 0x23E0 JUMP JUMPDEST PUSH1 0x40 MLOAD DUP1 SWAP2 SUB SWAP1 REVERT JUMPDEST PUSH2 0x1392 DUP2 PUSH2 0x1616 JUMP JUMPDEST POP JUMP JUMPDEST PUSH2 0x139D PUSH2 0x1859 JUMP JUMPDEST PUSH20 0xFFFFFFFFFFFFFFFFFFFFFFFFFFFFFFFFFFFFFFFF AND PUSH2 0x13BB PUSH2 0xD4F JUMP JUMPDEST PUSH20 0xFFFFFFFFFFFFFFFFFFFFFFFFFFFFFFFFFFFFFFFF AND EQ PUSH2 0x1411 JUMPI PUSH1 0x40 MLOAD PUSH32 0x8C379A000000000000000000000000000000000000000000000000000000000 DUP2 MSTORE PUSH1 0x4 ADD PUSH2 0x1408 SWAP1 PUSH2 0x244C JUMP JUMPDEST PUSH1 0x40 MLOAD DUP1 SWAP2 SUB SWAP1 REVERT JUMPDEST JUMP JUMPDEST PUSH1 0x0 PUSH2 0x148E PUSH2 0x147B PUSH2 0x2710 PUSH2 0x146D PUSH2 0x145A PUSH1 0x64 DUP8 PUSH1 0x60 ADD MLOAD PUSH31 0xFFFFFFFFFFFFFFFFFFFFFFFFFFFFFFFFFFFFFFFFFFFFFFFFFFFFFFFFFFFFFF AND PUSH2 0x182D SWAP1 SWAP2 SWAP1 PUSH4 0xFFFFFFFF AND JUMP JUMPDEST DUP7 PUSH1 0x0 ADD MLOAD PUSH2 0x182D SWAP1 SWAP2 SWAP1 PUSH4 0xFFFFFFFF AND JUMP JUMPDEST PUSH2 0x1843 SWAP1 SWAP2 SWAP1 PUSH4 0xFFFFFFFF AND JUMP JUMPDEST DUP4 PUSH1 0x0 ADD MLOAD PUSH2 0x1495 SWAP1 SWAP2 SWAP1 PUSH4 0xFFFFFFFF AND JUMP JUMPDEST SWAP1 POP SWAP2 SWAP1 POP JUMP JUMPDEST PUSH1 0x0 DUP2 DUP4 PUSH2 0x14A3 SWAP2 SWAP1 PUSH2 0x246C JUMP JUMPDEST SWAP1 POP SWAP3 SWAP2 POP POP JUMP JUMPDEST PUSH1 0x0 DUP2 DUP4 PUSH2 0x14B9 SWAP2 SWAP1 PUSH2 0x20EA JUMP JUMPDEST SWAP1 POP SWAP3 SWAP2 POP POP JUMP JUMPDEST PUSH31 0xFFFFFFFFFFFFFFFFFFFFFFFFFFFFFFFFFFFFFFFFFFFFFFFFFFFFFFFFFFFFFF DUP1 AND DUP2 LT PUSH2 0x1524 JUMPI PUSH1 0x40 MLOAD PUSH32 0x8C379A000000000000000000000000000000000000000000000000000000000 DUP2 MSTORE PUSH1 0x4 ADD PUSH2 0x151B SWAP1 PUSH2 0x24EC JUMP JUMPDEST PUSH1 0x40 MLOAD DUP1 SWAP2 SUB SWAP1 REVERT JUMPDEST PUSH1 0x2 DUP2 SWAP1 DUP1 PUSH1 0x1 DUP2 SLOAD ADD DUP1 DUP3 SSTORE DUP1 SWAP2 POP POP PUSH1 0x1 SWAP1 SUB SWAP1 PUSH1 0x0 MSTORE PUSH1 0x20 PUSH1 0x0 KECCAK256 ADD PUSH1 0x0 SWAP1 SWAP2 SWAP1 SWAP2 SWAP1 SWAP2 POP SSTORE PUSH1 0x1 DUP3 SWAP1 DUP1 PUSH1 0x1 DUP2 SLOAD ADD DUP1 DUP3 SSTORE DUP1 SWAP2 POP POP PUSH1 0x1 SWAP1 SUB SWAP1 PUSH1 0x0 MSTORE PUSH1 0x20 PUSH1 0x0 KECCAK256 ADD PUSH1 0x0 SWAP1 SWAP2 SWAP1 SWAP2 SWAP1 SWAP2 POP SSTORE CALLER PUSH20 0xFFFFFFFFFFFFFFFFFFFFFFFFFFFFFFFFFFFFFFFF AND PUSH32 0x11057BBE5BEE4E90EB5A0638DC2399B71076401177A7B8DDBFCD90D6597A427E DUP3 PUSH1 0x40 MLOAD PUSH2 0x15BC SWAP2 SWAP1 PUSH2 0x1B47 JUMP JUMPDEST PUSH1 0x40 MLOAD DUP1 SWAP2 SUB SWAP1 LOG2 CALLER PUSH20 0xFFFFFFFFFFFFFFFFFFFFFFFFFFFFFFFFFFFFFFFF AND PUSH32 0xBC2F4A9BF3002C736651B6E23160254684D657F11497502A66D96CE15BF17C2F DUP4 PUSH1 0x40 MLOAD PUSH2 0x160A SWAP2 SWAP1 PUSH2 0x1B47 JUMP JUMPDEST PUSH1 0x40 MLOAD DUP1 SWAP2 SUB SWAP1 LOG2 POP POP JUMP JUMPDEST PUSH1 0x0 DUP1 PUSH1 0x0 SWAP1 SLOAD SWAP1 PUSH2 0x100 EXP SWAP1 DIV PUSH20 0xFFFFFFFFFFFFFFFFFFFFFFFFFFFFFFFFFFFFFFFF AND SWAP1 POP DUP2 PUSH1 0x0 DUP1 PUSH2 0x100 EXP DUP2 SLOAD DUP2 PUSH20 0xFFFFFFFFFFFFFFFFFFFFFFFFFFFFFFFFFFFFFFFF MUL NOT AND SWAP1 DUP4 PUSH20 0xFFFFFFFFFFFFFFFFFFFFFFFFFFFFFFFFFFFFFFFF AND MUL OR SWAP1 SSTORE POP DUP2 PUSH20 0xFFFFFFFFFFFFFFFFFFFFFFFFFFFFFFFFFFFFFFFF AND DUP2 PUSH20 0xFFFFFFFFFFFFFFFFFFFFFFFFFFFFFFFFFFFFFFFF AND PUSH32 0x8BE0079C531659141344CD1FD0A4F28419497F9722A3DAAFE3B4186F6B6457E0 PUSH1 0x40 MLOAD PUSH1 0x40 MLOAD DUP1 SWAP2 SUB SWAP1 LOG3 POP POP JUMP JUMPDEST PUSH1 0x0 DUP3 GT PUSH2 0x171D JUMPI PUSH1 0x40 MLOAD PUSH32 0x8C379A000000000000000000000000000000000000000000000000000000000 DUP2 MSTORE PUSH1 0x4 ADD PUSH2 0x1714 SWAP1 PUSH2 0x2558 JUMP JUMPDEST PUSH1 0x40 MLOAD DUP1 SWAP2 SUB SWAP1 REVERT JUMPDEST PUSH1 0x0 PUSH2 0x1728 DUP3 PUSH2 0x17BE JUMP JUMPDEST SWAP1 POP PUSH1 0x0 DUP2 PUSH31 0xFFFFFFFFFFFFFFFFFFFFFFFFFFFFFFFFFFFFFFFFFFFFFFFFFFFFFFFFFFFFFF AND GT PUSH2 0x178E JUMPI PUSH1 0x40 MLOAD PUSH32 0x8C379A000000000000000000000000000000000000000000000000000000000 DUP2 MSTORE PUSH1 0x4 ADD PUSH2 0x1785 SWAP1 PUSH2 0x25C4 JUMP JUMPDEST PUSH1 0x40 MLOAD DUP1 SWAP2 SUB SWAP1 REVERT JUMPDEST PUSH2 0x17B8 DUP5 PUSH1 0x1 DUP5 DUP2 SLOAD DUP2 LT PUSH2 0x17A6 JUMPI PUSH2 0x17A5 PUSH2 0x211E JUMP JUMPDEST JUMPDEST SWAP1 PUSH1 0x0 MSTORE PUSH1 0x20 PUSH1 0x0 KECCAK256 ADD SLOAD DUP4 DUP7 PUSH2 0x1861 JUMP JUMPDEST POP POP POP POP JUMP JUMPDEST PUSH1 0x0 PUSH1 0x1 DUP1 SLOAD SWAP1 POP DUP3 LT PUSH2 0x1807 JUMPI PUSH1 0x40 MLOAD PUSH32 0x8C379A000000000000000000000000000000000000000000000000000000000 DUP2 MSTORE PUSH1 0x4 ADD PUSH2 0x17FE SWAP1 PUSH2 0x2630 JUMP JUMPDEST PUSH1 0x40 MLOAD DUP1 SWAP2 SUB SWAP1 REVERT JUMPDEST PUSH1 0x2 DUP3 DUP2 SLOAD DUP2 LT PUSH2 0x181B JUMPI PUSH2 0x181A PUSH2 0x211E JUMP JUMPDEST JUMPDEST SWAP1 PUSH1 0x0 MSTORE PUSH1 0x20 PUSH1 0x0 KECCAK256 ADD SLOAD SWAP1 POP SWAP2 SWAP1 POP JUMP JUMPDEST PUSH1 0x0 DUP2 DUP4 PUSH2 0x183B SWAP2 SWAP1 PUSH2 0x2650 JUMP JUMPDEST SWAP1 POP SWAP3 SWAP2 POP POP JUMP JUMPDEST PUSH1 0x0 DUP2 DUP4 PUSH2 0x1851 SWAP2 SWAP1 PUSH2 0x26D9 JUMP JUMPDEST SWAP1 POP SWAP3 SWAP2 POP POP JUMP JUMPDEST PUSH1 0x0 CALLER SWAP1 POP SWAP1 JUMP JUMPDEST PUSH1 0x0 PUSH1 0x5 PUSH1 0x0 DUP7 PUSH20 0xFFFFFFFFFFFFFFFFFFFFFFFFFFFFFFFFFFFFFFFF AND PUSH20 0xFFFFFFFFFFFFFFFFFFFFFFFFFFFFFFFFFFFFFFFF AND DUP2 MSTORE PUSH1 0x20 ADD SWAP1 DUP2 MSTORE PUSH1 0x20 ADD PUSH1 0x0 KECCAK256 SWAP1 POP PUSH1 0x0 PUSH2 0x18B9 DUP6 TIMESTAMP PUSH2 0x1495 SWAP1 SWAP2 SWAP1 PUSH4 0xFFFFFFFF AND JUMP JUMPDEST SWAP1 POP PUSH1 0x0 DUP3 DUP1 SLOAD SWAP1 POP SWAP1 POP DUP3 PUSH1 0x1 DUP2 PUSH1 0x1 DUP2 SLOAD ADD DUP1 DUP3 SSTORE DUP1 SWAP2 POP POP SUB SWAP1 PUSH1 0x0 MSTORE PUSH1 0x20 PUSH1 0x0 KECCAK256 SWAP1 POP POP DUP5 DUP4 DUP3 DUP2 SLOAD DUP2 LT PUSH2 0x18F5 JUMPI PUSH2 0x18F4 PUSH2 0x211E JUMP JUMPDEST JUMPDEST SWAP1 PUSH1 0x0 MSTORE PUSH1 0x20 PUSH1 0x0 KECCAK256 SWAP1 PUSH1 0x4 MUL ADD PUSH1 0x3 ADD PUSH1 0x0 PUSH2 0x100 EXP DUP2 SLOAD DUP2 PUSH31 0xFFFFFFFFFFFFFFFFFFFFFFFFFFFFFFFFFFFFFFFFFFFFFFFFFFFFFFFFFFFFFF MUL NOT AND SWAP1 DUP4 PUSH31 0xFFFFFFFFFFFFFFFFFFFFFFFFFFFFFFFFFFFFFFFFFFFFFFFFFFFFFFFFFFFFFF AND MUL OR SWAP1 SSTORE POP DUP2 DUP4 DUP3 DUP2 SLOAD DUP2 LT PUSH2 0x196E JUMPI PUSH2 0x196D PUSH2 0x211E JUMP JUMPDEST JUMPDEST SWAP1 PUSH1 0x0 MSTORE PUSH1 0x20 PUSH1 0x0 KECCAK256 SWAP1 PUSH1 0x4 MUL ADD PUSH1 0x1 ADD DUP2 SWAP1 SSTORE POP DUP6 DUP4 DUP3 DUP2 SLOAD DUP2 LT PUSH2 0x1997 JUMPI PUSH2 0x1996 PUSH2 0x211E JUMP JUMPDEST JUMPDEST SWAP1 PUSH1 0x0 MSTORE PUSH1 0x20 PUSH1 0x0 KECCAK256 SWAP1 PUSH1 0x4 MUL ADD PUSH1 0x2 ADD DUP2 SWAP1 SSTORE POP DUP4 DUP4 DUP3 DUP2 SLOAD DUP2 LT PUSH2 0x19C0 JUMPI PUSH2 0x19BF PUSH2 0x211E JUMP JUMPDEST JUMPDEST SWAP1 PUSH1 0x0 MSTORE PUSH1 0x20 PUSH1 0x0 KECCAK256 SWAP1 PUSH1 0x4 MUL ADD PUSH1 0x0 ADD DUP2 SWAP1 SSTORE POP PUSH2 0x1ACD PUSH2 0x1ABC DUP5 DUP4 DUP2 SLOAD DUP2 LT PUSH2 0x19EE JUMPI PUSH2 0x19ED PUSH2 0x211E JUMP JUMPDEST JUMPDEST SWAP1 PUSH1 0x0 MSTORE PUSH1 0x20 PUSH1 0x0 KECCAK256 SWAP1 PUSH1 0x4 MUL ADD PUSH1 0x40 MLOAD DUP1 PUSH1 0xA0 ADD PUSH1 0x40 MSTORE SWAP1 DUP2 PUSH1 0x0 DUP3 ADD SLOAD DUP2 MSTORE PUSH1 0x20 ADD PUSH1 0x1 DUP3 ADD SLOAD DUP2 MSTORE PUSH1 0x20 ADD PUSH1 0x2 DUP3 ADD SLOAD DUP2 MSTORE PUSH1 0x20 ADD PUSH1 0x3 DUP3 ADD PUSH1 0x0 SWAP1 SLOAD SWAP1 PUSH2 0x100 EXP SWAP1 DIV PUSH31 0xFFFFFFFFFFFFFFFFFFFFFFFFFFFFFFFFFFFFFFFFFFFFFFFFFFFFFFFFFFFFFF AND PUSH31 0xFFFFFFFFFFFFFFFFFFFFFFFFFFFFFFFFFFFFFFFFFFFFFFFFFFFFFFFFFFFFFF AND PUSH31 0xFFFFFFFFFFFFFFFFFFFFFFFFFFFFFFFFFFFFFFFFFFFFFFFFFFFFFFFFFFFFFF AND DUP2 MSTORE PUSH1 0x20 ADD PUSH1 0x3 DUP3 ADD PUSH1 0x1F SWAP1 SLOAD SWAP1 PUSH2 0x100 EXP SWAP1 DIV PUSH1 0xFF AND ISZERO ISZERO ISZERO ISZERO DUP2 MSTORE POP POP PUSH2 0x1413 JUMP JUMPDEST PUSH1 0x3 SLOAD PUSH2 0x1495 SWAP1 SWAP2 SWAP1 PUSH4 0xFFFFFFFF AND JUMP JUMPDEST PUSH1 0x3 DUP2 SWAP1 SSTORE POP DUP7 PUSH20 0xFFFFFFFFFFFFFFFFFFFFFFFFFFFFFFFFFFFFFFFF AND PUSH32 0xB4CAAF29ADDA3EEFEE3AD552A8E85058589BF834C7466CAE4EE58787F70589ED DUP6 DUP9 DUP9 PUSH1 0x40 MLOAD PUSH2 0x1B1D SWAP4 SWAP3 SWAP2 SWAP1 PUSH2 0x2745 JUMP JUMPDEST PUSH1 0x40 MLOAD DUP1 SWAP2 SUB SWAP1 LOG2 POP POP POP POP POP POP POP JUMP JUMPDEST PUSH1 0x0 DUP2 SWAP1 POP SWAP2 SWAP1 POP JUMP JUMPDEST PUSH2 0x1B41 DUP2 PUSH2 0x1B2E JUMP JUMPDEST DUP3 MSTORE POP POP JUMP JUMPDEST PUSH1 0x0 PUSH1 0x20 DUP3 ADD SWAP1 POP PUSH2 0x1B5C PUSH1 0x0 DUP4 ADD DUP5 PUSH2 0x1B38 JUMP JUMPDEST SWAP3 SWAP2 POP POP JUMP JUMPDEST PUSH1 0x0 DUP3 DUP3 MSTORE PUSH1 0x20 DUP3 ADD SWAP1 POP SWAP3 SWAP2 POP POP JUMP JUMPDEST DUP3 DUP2 DUP4 CALLDATACOPY PUSH1 0x0 DUP4 DUP4 ADD MSTORE POP POP POP JUMP JUMPDEST PUSH1 0x0 PUSH1 0x1F NOT PUSH1 0x1F DUP4 ADD AND SWAP1 POP SWAP2 SWAP1 POP JUMP JUMPDEST PUSH1 0x0 PUSH2 0x1B9F DUP4 DUP6 PUSH2 0x1B62 JUMP JUMPDEST SWAP4 POP PUSH2 0x1BAC DUP4 DUP6 DUP5 PUSH2 0x1B73 JUMP JUMPDEST PUSH2 0x1BB5 DUP4 PUSH2 0x1B82 JUMP JUMPDEST DUP5 ADD SWAP1 POP SWAP4 SWAP3 POP POP POP JUMP JUMPDEST PUSH1 0x0 PUSH20 0xFFFFFFFFFFFFFFFFFFFFFFFFFFFFFFFFFFFFFFFF DUP3 AND SWAP1 POP SWAP2 SWAP1 POP JUMP JUMPDEST PUSH1 0x0 PUSH2 0x1BEB DUP3 PUSH2 0x1BC0 JUMP JUMPDEST SWAP1 POP SWAP2 SWAP1 POP JUMP JUMPDEST PUSH2 0x1BFB DUP2 PUSH2 0x1BE0 JUMP JUMPDEST DUP3 MSTORE POP POP JUMP JUMPDEST PUSH1 0x0 PUSH1 0x60 DUP3 ADD SWAP1 POP DUP2 DUP2 SUB PUSH1 0x0 DUP4 ADD MSTORE PUSH2 0x1C1C DUP2 DUP7 DUP9 PUSH2 0x1B93 JUMP JUMPDEST SWAP1 POP PUSH2 0x1C2B PUSH1 0x20 DUP4 ADD DUP6 PUSH2 0x1BF2 JUMP JUMPDEST PUSH2 0x1C38 PUSH1 0x40 DUP4 ADD DUP5 PUSH2 0x1B38 JUMP JUMPDEST SWAP6 SWAP5 POP POP POP POP POP JUMP JUMPDEST PUSH1 0x0 DUP1 REVERT JUMPDEST PUSH2 0x1C4F DUP2 PUSH2 0x1BE0 JUMP JUMPDEST DUP2 EQ PUSH2 0x1C5A JUMPI PUSH1 0x0 DUP1 REVERT JUMPDEST POP JUMP JUMPDEST PUSH1 0x0 DUP2 CALLDATALOAD SWAP1 POP PUSH2 0x1C6C DUP2 PUSH2 0x1C46 JUMP JUMPDEST SWAP3 SWAP2 POP POP JUMP JUMPDEST PUSH1 0x0 PUSH1 0x20 DUP3 DUP5 SUB SLT ISZERO PUSH2 0x1C88 JUMPI PUSH2 0x1C87 PUSH2 0x1C41 JUMP JUMPDEST JUMPDEST PUSH1 0x0 PUSH2 0x1C96 DUP5 DUP3 DUP6 ADD PUSH2 0x1C5D JUMP JUMPDEST SWAP2 POP POP SWAP3 SWAP2 POP POP JUMP JUMPDEST PUSH1 0x0 DUP2 MLOAD SWAP1 POP SWAP2 SWAP1 POP JUMP JUMPDEST PUSH1 0x0 DUP3 DUP3 MSTORE PUSH1 0x20 DUP3 ADD SWAP1 POP SWAP3 SWAP2 POP POP JUMP JUMPDEST PUSH1 0x0 DUP2 SWAP1 POP PUSH1 0x20 DUP3 ADD SWAP1 POP SWAP2 SWAP1 POP JUMP JUMPDEST PUSH2 0x1CD4 DUP2 PUSH2 0x1B2E JUMP JUMPDEST DUP3 MSTORE POP POP JUMP JUMPDEST PUSH1 0x0 PUSH31 0xFFFFFFFFFFFFFFFFFFFFFFFFFFFFFFFFFFFFFFFFFFFFFFFFFFFFFFFFFFFFFF DUP3 AND SWAP1 POP SWAP2 SWAP1 POP JUMP JUMPDEST PUSH2 0x1D0E DUP2 PUSH2 0x1CDA JUMP JUMPDEST DUP3 MSTORE POP POP JUMP JUMPDEST PUSH1 0x0 DUP2 ISZERO ISZERO SWAP1 POP SWAP2 SWAP1 POP JUMP JUMPDEST PUSH2 0x1D29 DUP2 PUSH2 0x1D14 JUMP JUMPDEST DUP3 MSTORE POP POP JUMP JUMPDEST PUSH1 0xA0 DUP3 ADD PUSH1 0x0 DUP3 ADD MLOAD PUSH2 0x1D45 PUSH1 0x0 DUP6 ADD DUP3 PUSH2 0x1CCB JUMP JUMPDEST POP PUSH1 0x20 DUP3 ADD MLOAD PUSH2 0x1D58 PUSH1 0x20 DUP6 ADD DUP3 PUSH2 0x1CCB JUMP JUMPDEST POP PUSH1 0x40 DUP3 ADD MLOAD PUSH2 0x1D6B PUSH1 0x40 DUP6 ADD DUP3 PUSH2 0x1CCB JUMP JUMPDEST POP PUSH1 0x60 DUP3 ADD MLOAD PUSH2 0x1D7E PUSH1 0x60 DUP6 ADD DUP3 PUSH2 0x1D05 JUMP JUMPDEST POP PUSH1 0x80 DUP3 ADD MLOAD PUSH2 0x1D91 PUSH1 0x80 DUP6 ADD DUP3 PUSH2 0x1D20 JUMP JUMPDEST POP POP POP POP JUMP JUMPDEST PUSH1 0x0 PUSH2 0x1DA3 DUP4 DUP4 PUSH2 0x1D2F JUMP JUMPDEST PUSH1 0xA0 DUP4 ADD SWAP1 POP SWAP3 SWAP2 POP POP JUMP JUMPDEST PUSH1 0x0 PUSH1 0x20 DUP3 ADD SWAP1 POP SWAP2 SWAP1 POP JUMP JUMPDEST PUSH1 0x0 PUSH2 0x1DC7 DUP3 PUSH2 0x1C9F JUMP JUMPDEST PUSH2 0x1DD1 DUP2 DUP6 PUSH2 0x1CAA JUMP JUMPDEST SWAP4 POP PUSH2 0x1DDC DUP4 PUSH2 0x1CBB JUMP JUMPDEST DUP1 PUSH1 0x0 JUMPDEST DUP4 DUP2 LT ISZERO PUSH2 0x1E0D JUMPI DUP2 MLOAD PUSH2 0x1DF4 DUP9 DUP3 PUSH2 0x1D97 JUMP JUMPDEST SWAP8 POP PUSH2 0x1DFF DUP4 PUSH2 0x1DAF JUMP JUMPDEST SWAP3 POP POP PUSH1 0x1 DUP2 ADD SWAP1 POP PUSH2 0x1DE0 JUMP JUMPDEST POP DUP6 SWAP4 POP POP POP POP SWAP3 SWAP2 POP POP JUMP JUMPDEST PUSH1 0x0 PUSH1 0x20 DUP3 ADD SWAP1 POP DUP2 DUP2 SUB PUSH1 0x0 DUP4 ADD MSTORE PUSH2 0x1E34 DUP2 DUP5 PUSH2 0x1DBC JUMP JUMPDEST SWAP1 POP SWAP3 SWAP2 POP POP JUMP JUMPDEST PUSH2 0x1E45 DUP2 PUSH2 0x1B2E JUMP JUMPDEST DUP2 EQ PUSH2 0x1E50 JUMPI PUSH1 0x0 DUP1 REVERT JUMPDEST POP JUMP JUMPDEST PUSH1 0x0 DUP2 CALLDATALOAD SWAP1 POP PUSH2 0x1E62 DUP2 PUSH2 0x1E3C JUMP JUMPDEST SWAP3 SWAP2 POP POP JUMP JUMPDEST PUSH1 0x0 PUSH1 0x20 DUP3 DUP5 SUB SLT ISZERO PUSH2 0x1E7E JUMPI PUSH2 0x1E7D PUSH2 0x1C41 JUMP JUMPDEST JUMPDEST PUSH1 0x0 PUSH2 0x1E8C DUP5 DUP3 DUP6 ADD PUSH2 0x1E53 JUMP JUMPDEST SWAP2 POP POP SWAP3 SWAP2 POP POP JUMP JUMPDEST PUSH2 0x1E9E DUP2 PUSH2 0x1D14 JUMP JUMPDEST DUP2 EQ PUSH2 0x1EA9 JUMPI PUSH1 0x0 DUP1 REVERT JUMPDEST POP JUMP JUMPDEST PUSH1 0x0 DUP2 CALLDATALOAD SWAP1 POP PUSH2 0x1EBB DUP2 PUSH2 0x1E95 JUMP JUMPDEST SWAP3 SWAP2 POP POP JUMP JUMPDEST PUSH1 0x0 PUSH1 0x20 DUP3 DUP5 SUB SLT ISZERO PUSH2 0x1ED7 JUMPI PUSH2 0x1ED6 PUSH2 0x1C41 JUMP JUMPDEST JUMPDEST PUSH1 0x0 PUSH2 0x1EE5 DUP5 DUP3 DUP6 ADD PUSH2 0x1EAC JUMP JUMPDEST SWAP2 POP POP SWAP3 SWAP2 POP POP JUMP JUMPDEST PUSH1 0x0 DUP1 PUSH1 0x40 DUP4 DUP6 SUB SLT ISZERO PUSH2 0x1F05 JUMPI PUSH2 0x1F04 PUSH2 0x1C41 JUMP JUMPDEST JUMPDEST PUSH1 0x0 PUSH2 0x1F13 DUP6 DUP3 DUP7 ADD PUSH2 0x1E53 JUMP JUMPDEST SWAP3 POP POP PUSH1 0x20 PUSH2 0x1F24 DUP6 DUP3 DUP7 ADD PUSH2 0x1E53 JUMP JUMPDEST SWAP2 POP POP SWAP3 POP SWAP3 SWAP1 POP JUMP JUMPDEST PUSH2 0x1F37 DUP2 PUSH2 0x1D14 JUMP JUMPDEST DUP3 MSTORE POP POP JUMP JUMPDEST PUSH1 0x0 PUSH1 0x20 DUP3 ADD SWAP1 POP PUSH2 0x1F52 PUSH1 0x0 DUP4 ADD DUP5 PUSH2 0x1F2E JUMP JUMPDEST SWAP3 SWAP2 POP POP JUMP JUMPDEST PUSH1 0x0 PUSH1 0x40 DUP3 ADD SWAP1 POP PUSH2 0x1F6D PUSH1 0x0 DUP4 ADD DUP6 PUSH2 0x1B38 JUMP JUMPDEST PUSH2 0x1F7A PUSH1 0x20 DUP4 ADD DUP5 PUSH2 0x1B38 JUMP JUMPDEST SWAP4 SWAP3 POP POP POP JUMP JUMPDEST PUSH1 0x0 PUSH1 0x20 DUP3 ADD SWAP1 POP PUSH2 0x1F96 PUSH1 0x0 DUP4 ADD DUP5 PUSH2 0x1BF2 JUMP JUMPDEST SWAP3 SWAP2 POP POP JUMP JUMPDEST PUSH1 0x0 DUP1 PUSH1 0x40 DUP4 DUP6 SUB SLT ISZERO PUSH2 0x1FB3 JUMPI PUSH2 0x1FB2 PUSH2 0x1C41 JUMP JUMPDEST JUMPDEST PUSH1 0x0 PUSH2 0x1FC1 DUP6 DUP3 DUP7 ADD PUSH2 0x1C5D JUMP JUMPDEST SWAP3 POP POP PUSH1 0x20 PUSH2 0x1FD2 DUP6 DUP3 DUP7 ADD PUSH2 0x1E53 JUMP JUMPDEST SWAP2 POP POP SWAP3 POP SWAP3 SWAP1 POP JUMP JUMPDEST PUSH2 0x1FE5 DUP2 PUSH2 0x1CDA JUMP JUMPDEST DUP3 MSTORE POP POP JUMP JUMPDEST PUSH1 0x0 PUSH1 0xA0 DUP3 ADD SWAP1 POP PUSH2 0x2000 PUSH1 0x0 DUP4 ADD DUP9 PUSH2 0x1B38 JUMP JUMPDEST PUSH2 0x200D PUSH1 0x20 DUP4 ADD DUP8 PUSH2 0x1B38 JUMP JUMPDEST PUSH2 0x201A PUSH1 0x40 DUP4 ADD DUP7 PUSH2 0x1B38 JUMP JUMPDEST PUSH2 0x2027 PUSH1 0x60 DUP4 ADD DUP6 PUSH2 0x1FDC JUMP JUMPDEST PUSH2 0x2034 PUSH1 0x80 DUP4 ADD DUP5 PUSH2 0x1F2E JUMP JUMPDEST SWAP7 SWAP6 POP POP POP POP POP POP JUMP JUMPDEST PUSH1 0x0 DUP3 DUP3 MSTORE PUSH1 0x20 DUP3 ADD SWAP1 POP SWAP3 SWAP2 POP POP JUMP JUMPDEST PUSH32 0x4E6F7468696E67207374616B6564000000000000000000000000000000000000 PUSH1 0x0 DUP3 ADD MSTORE POP JUMP JUMPDEST PUSH1 0x0 PUSH2 0x2085 PUSH1 0xE DUP4 PUSH2 0x203E JUMP JUMPDEST SWAP2 POP PUSH2 0x2090 DUP3 PUSH2 0x204F JUMP JUMPDEST PUSH1 0x20 DUP3 ADD SWAP1 POP SWAP2 SWAP1 POP JUMP JUMPDEST PUSH1 0x0 PUSH1 0x20 DUP3 ADD SWAP1 POP DUP2 DUP2 SUB PUSH1 0x0 DUP4 ADD MSTORE PUSH2 0x20B4 DUP2 PUSH2 0x2078 JUMP JUMPDEST SWAP1 POP SWAP2 SWAP1 POP JUMP JUMPDEST PUSH32 0x4E487B7100000000000000000000000000000000000000000000000000000000 PUSH1 0x0 MSTORE PUSH1 0x11 PUSH1 0x4 MSTORE PUSH1 0x24 PUSH1 0x0 REVERT JUMPDEST PUSH1 0x0 PUSH2 0x20F5 DUP3 PUSH2 0x1B2E JUMP JUMPDEST SWAP2 POP PUSH2 0x2100 DUP4 PUSH2 0x1B2E JUMP JUMPDEST SWAP3 POP DUP3 DUP3 SUB SWAP1 POP DUP2 DUP2 GT ISZERO PUSH2 0x2118 JUMPI PUSH2 0x2117 PUSH2 0x20BB JUMP JUMPDEST JUMPDEST SWAP3 SWAP2 POP POP JUMP JUMPDEST PUSH32 0x4E487B7100000000000000000000000000000000000000000000000000000000 PUSH1 0x0 MSTORE PUSH1 0x32 PUSH1 0x4 MSTORE PUSH1 0x24 PUSH1 0x0 REVERT JUMPDEST PUSH32 0x596F752063616E6E6F7420756E7374616B65642074686973206E6F7700000000 PUSH1 0x0 DUP3 ADD MSTORE POP JUMP JUMPDEST PUSH1 0x0 PUSH2 0x2183 PUSH1 0x1C DUP4 PUSH2 0x203E JUMP JUMPDEST SWAP2 POP PUSH2 0x218E DUP3 PUSH2 0x214D JUMP JUMPDEST PUSH1 0x20 DUP3 ADD SWAP1 POP SWAP2 SWAP1 POP JUMP JUMPDEST PUSH1 0x0 PUSH1 0x20 DUP3 ADD SWAP1 POP DUP2 DUP2 SUB PUSH1 0x0 DUP4 ADD MSTORE PUSH2 0x21B2 DUP2 PUSH2 0x2176 JUMP JUMPDEST SWAP1 POP SWAP2 SWAP1 POP JUMP JUMPDEST PUSH32 0x5374616B6520697320696E206C6F636B2D757000000000000000000000000000 PUSH1 0x0 DUP3 ADD MSTORE POP JUMP JUMPDEST PUSH1 0x0 PUSH2 0x21EF PUSH1 0x13 DUP4 PUSH2 0x203E JUMP JUMPDEST SWAP2 POP PUSH2 0x21FA DUP3 PUSH2 0x21B9 JUMP JUMPDEST PUSH1 0x20 DUP3 ADD SWAP1 POP SWAP2 SWAP1 POP JUMP JUMPDEST PUSH1 0x0 PUSH1 0x20 DUP3 ADD SWAP1 POP DUP2 DUP2 SUB PUSH1 0x0 DUP4 ADD MSTORE PUSH2 0x221E DUP2 PUSH2 0x21E2 JUMP JUMPDEST SWAP1 POP SWAP2 SWAP1 POP JUMP JUMPDEST PUSH32 0x5374616B696E6720706175736564000000000000000000000000000000000000 PUSH1 0x0 DUP3 ADD MSTORE POP JUMP JUMPDEST PUSH1 0x0 PUSH2 0x225B PUSH1 0xE DUP4 PUSH2 0x203E JUMP JUMPDEST SWAP2 POP PUSH2 0x2266 DUP3 PUSH2 0x2225 JUMP JUMPDEST PUSH1 0x20 DUP3 ADD SWAP1 POP SWAP2 SWAP1 POP JUMP JUMPDEST PUSH1 0x0 PUSH1 0x20 DUP3 ADD SWAP1 POP DUP2 DUP2 SUB PUSH1 0x0 DUP4 ADD MSTORE PUSH2 0x228A DUP2 PUSH2 0x224E JUMP JUMPDEST SWAP1 POP SWAP2 SWAP1 POP JUMP JUMPDEST PUSH1 0x0 PUSH2 0x229C DUP3 PUSH2 0x1B2E JUMP JUMPDEST SWAP2 POP PUSH32 0xFFFFFFFFFFFFFFFFFFFFFFFFFFFFFFFFFFFFFFFFFFFFFFFFFFFFFFFFFFFFFFFF DUP3 SUB PUSH2 0x22CE JUMPI PUSH2 0x22CD PUSH2 0x20BB JUMP JUMPDEST JUMPDEST PUSH1 0x1 DUP3 ADD SWAP1 POP SWAP2 SWAP1 POP JUMP JUMPDEST PUSH1 0x0 PUSH2 0x22E4 DUP3 PUSH2 0x1B2E JUMP JUMPDEST SWAP2 POP PUSH1 0x0 DUP3 SUB PUSH2 0x22F7 JUMPI PUSH2 0x22F6 PUSH2 0x20BB JUMP JUMPDEST JUMPDEST PUSH1 0x1 DUP3 SUB SWAP1 POP SWAP2 SWAP1 POP JUMP JUMPDEST PUSH32 0x416C6C207374616B657320696E206C6F636B2D75700000000000000000000000 PUSH1 0x0 DUP3 ADD MSTORE POP JUMP JUMPDEST PUSH1 0x0 PUSH2 0x2338 PUSH1 0x15 DUP4 PUSH2 0x203E JUMP JUMPDEST SWAP2 POP PUSH2 0x2343 DUP3 PUSH2 0x2302 JUMP JUMPDEST PUSH1 0x20 DUP3 ADD SWAP1 POP SWAP2 SWAP1 POP JUMP JUMPDEST PUSH1 0x0 PUSH1 0x20 DUP3 ADD SWAP1 POP DUP2 DUP2 SUB PUSH1 0x0 DUP4 ADD MSTORE PUSH2 0x2367 DUP2 PUSH2 0x232B JUMP JUMPDEST SWAP1 POP SWAP2 SWAP1 POP JUMP JUMPDEST PUSH32 0x4F776E61626C653A206E6577206F776E657220697320746865207A65726F2061 PUSH1 0x0 DUP3 ADD MSTORE PUSH32 0x6464726573730000000000000000000000000000000000000000000000000000 PUSH1 0x20 DUP3 ADD MSTORE POP JUMP JUMPDEST PUSH1 0x0 PUSH2 0x23CA PUSH1 0x26 DUP4 PUSH2 0x203E JUMP JUMPDEST SWAP2 POP PUSH2 0x23D5 DUP3 PUSH2 0x236E JUMP JUMPDEST PUSH1 0x40 DUP3 ADD SWAP1 POP SWAP2 SWAP1 POP JUMP JUMPDEST PUSH1 0x0 PUSH1 0x20 DUP3 ADD SWAP1 POP DUP2 DUP2 SUB PUSH1 0x0 DUP4 ADD MSTORE PUSH2 0x23F9 DUP2 PUSH2 0x23BD JUMP JUMPDEST SWAP1 POP SWAP2 SWAP1 POP JUMP JUMPDEST PUSH32 0x4F776E61626C653A2063616C6C6572206973206E6F7420746865206F776E6572 PUSH1 0x0 DUP3 ADD MSTORE POP JUMP JUMPDEST PUSH1 0x0 PUSH2 0x2436 PUSH1 0x20 DUP4 PUSH2 0x203E JUMP JUMPDEST SWAP2 POP PUSH2 0x2441 DUP3 PUSH2 0x2400 JUMP JUMPDEST PUSH1 0x20 DUP3 ADD SWAP1 POP SWAP2 SWAP1 POP JUMP JUMPDEST PUSH1 0x0 PUSH1 0x20 DUP3 ADD SWAP1 POP DUP2 DUP2 SUB PUSH1 0x0 DUP4 ADD MSTORE PUSH2 0x2465 DUP2 PUSH2 0x2429 JUMP JUMPDEST SWAP1 POP SWAP2 SWAP1 POP JUMP JUMPDEST PUSH1 0x0 PUSH2 0x2477 DUP3 PUSH2 0x1B2E JUMP JUMPDEST SWAP2 POP PUSH2 0x2482 DUP4 PUSH2 0x1B2E JUMP JUMPDEST SWAP3 POP DUP3 DUP3 ADD SWAP1 POP DUP1 DUP3 GT ISZERO PUSH2 0x249A JUMPI PUSH2 0x2499 PUSH2 0x20BB JUMP JUMPDEST JUMPDEST SWAP3 SWAP2 POP POP JUMP JUMPDEST PUSH32 0x4D61782072617465206578636565646564000000000000000000000000000000 PUSH1 0x0 DUP3 ADD MSTORE POP JUMP JUMPDEST PUSH1 0x0 PUSH2 0x24D6 PUSH1 0x11 DUP4 PUSH2 0x203E JUMP JUMPDEST SWAP2 POP PUSH2 0x24E1 DUP3 PUSH2 0x24A0 JUMP JUMPDEST PUSH1 0x20 DUP3 ADD SWAP1 POP SWAP2 SWAP1 POP JUMP JUMPDEST PUSH1 0x0 PUSH1 0x20 DUP3 ADD SWAP1 POP DUP2 DUP2 SUB PUSH1 0x0 DUP4 ADD MSTORE PUSH2 0x2505 DUP2 PUSH2 0x24C9 JUMP JUMPDEST SWAP1 POP SWAP2 SWAP1 POP JUMP JUMPDEST PUSH32 0x43616E6E6F74207374616B652030000000000000000000000000000000000000 PUSH1 0x0 DUP3 ADD MSTORE POP JUMP JUMPDEST PUSH1 0x0 PUSH2 0x2542 PUSH1 0xE DUP4 PUSH2 0x203E JUMP JUMPDEST SWAP2 POP PUSH2 0x254D DUP3 PUSH2 0x250C JUMP JUMPDEST PUSH1 0x20 DUP3 ADD SWAP1 POP SWAP2 SWAP1 POP JUMP JUMPDEST PUSH1 0x0 PUSH1 0x20 DUP3 ADD SWAP1 POP DUP2 DUP2 SUB PUSH1 0x0 DUP4 ADD MSTORE PUSH2 0x2571 DUP2 PUSH2 0x2535 JUMP JUMPDEST SWAP1 POP SWAP2 SWAP1 POP JUMP JUMPDEST PUSH32 0x496E76616C6964206475726174696F6E00000000000000000000000000000000 PUSH1 0x0 DUP3 ADD MSTORE POP JUMP JUMPDEST PUSH1 0x0 PUSH2 0x25AE PUSH1 0x10 DUP4 PUSH2 0x203E JUMP JUMPDEST SWAP2 POP PUSH2 0x25B9 DUP3 PUSH2 0x2578 JUMP JUMPDEST PUSH1 0x20 DUP3 ADD SWAP1 POP SWAP2 SWAP1 POP JUMP JUMPDEST PUSH1 0x0 PUSH1 0x20 DUP3 ADD SWAP1 POP DUP2 DUP2 SUB PUSH1 0x0 DUP4 ADD MSTORE PUSH2 0x25DD DUP2 PUSH2 0x25A1 JUMP JUMPDEST SWAP1 POP SWAP2 SWAP1 POP JUMP JUMPDEST PUSH32 0x7075742076616C6964206475726174696F6E0000000000000000000000000000 PUSH1 0x0 DUP3 ADD MSTORE POP JUMP JUMPDEST PUSH1 0x0 PUSH2 0x261A PUSH1 0x12 DUP4 PUSH2 0x203E JUMP JUMPDEST SWAP2 POP PUSH2 0x2625 DUP3 PUSH2 0x25E4 JUMP JUMPDEST PUSH1 0x20 DUP3 ADD SWAP1 POP SWAP2 SWAP1 POP JUMP JUMPDEST PUSH1 0x0 PUSH1 0x20 DUP3 ADD SWAP1 POP DUP2 DUP2 SUB PUSH1 0x0 DUP4 ADD MSTORE PUSH2 0x2649 DUP2 PUSH2 0x260D JUMP JUMPDEST SWAP1 POP SWAP2 SWAP1 POP JUMP JUMPDEST PUSH1 0x0 PUSH2 0x265B DUP3 PUSH2 0x1B2E JUMP JUMPDEST SWAP2 POP PUSH2 0x2666 DUP4 PUSH2 0x1B2E JUMP JUMPDEST SWAP3 POP DUP2 PUSH32 0xFFFFFFFFFFFFFFFFFFFFFFFFFFFFFFFFFFFFFFFFFFFFFFFFFFFFFFFFFFFFFFFF DIV DUP4 GT DUP3 ISZERO ISZERO AND ISZERO PUSH2 0x269F JUMPI PUSH2 0x269E PUSH2 0x20BB JUMP JUMPDEST JUMPDEST DUP3 DUP3 MUL SWAP1 POP SWAP3 SWAP2 POP POP JUMP JUMPDEST PUSH32 0x4E487B7100000000000000000000000000000000000000000000000000000000 PUSH1 0x0 MSTORE PUSH1 0x12 PUSH1 0x4 MSTORE PUSH1 0x24 PUSH1 0x0 REVERT JUMPDEST PUSH1 0x0 PUSH2 0x26E4 DUP3 PUSH2 0x1B2E JUMP JUMPDEST SWAP2 POP PUSH2 0x26EF DUP4 PUSH2 0x1B2E JUMP JUMPDEST SWAP3 POP DUP3 PUSH2 0x26FF JUMPI PUSH2 0x26FE PUSH2 0x26AA JUMP JUMPDEST JUMPDEST DUP3 DUP3 DIV SWAP1 POP SWAP3 SWAP2 POP POP JUMP JUMPDEST PUSH1 0x0 DUP2 SWAP1 POP SWAP2 SWAP1 POP JUMP JUMPDEST PUSH1 0x0 PUSH2 0x272F PUSH2 0x272A PUSH2 0x2725 DUP5 PUSH2 0x1CDA JUMP JUMPDEST PUSH2 0x270A JUMP JUMPDEST PUSH2 0x1B2E JUMP JUMPDEST SWAP1 POP SWAP2 SWAP1 POP JUMP JUMPDEST PUSH2 0x273F DUP2 PUSH2 0x2714 JUMP JUMPDEST DUP3 MSTORE POP POP JUMP JUMPDEST PUSH1 0x0 PUSH1 0x60 DUP3 ADD SWAP1 POP PUSH2 0x275A PUSH1 0x0 DUP4 ADD DUP7 PUSH2 0x1B38 JUMP JUMPDEST PUSH2 0x2767 PUSH1 0x20 DUP4 ADD DUP6 PUSH2 0x1B38 JUMP JUMPDEST PUSH2 0x2774 PUSH1 0x40 DUP4 ADD DUP5 PUSH2 0x2736 JUMP JUMPDEST SWAP5 SWAP4 POP POP POP POP JUMP INVALID LOG2 PUSH5 0x6970667358 0x22 SLT KECCAK256 0xD2 CALLVALUE DUP4 CALLDATASIZE PUSH14 0x8561C11E9C6CB3769FB35E696B1A PUSH15 0x5A87E24FB957F676E4A0860A64736F PUSH13 0x63430008100033000000000000 "
		},
		"gasEstimates": {
			"creation": {
				"codeDepositCost": "2032400",
				"executionCost": "infinite",
				"totalCost": "infinite"
			},
			"external": {
				"": "infinite",
				"addNewDurationRates(uint256,uint256)": "infinite",
				"durationRewardRate(uint256)": "infinite",
				"durations(uint256)": "infinite",
				"exit()": "infinite",
				"getAllStakes(address)": "infinite",
				"getContractBalance()": "2780",
				"owner()": "2611",
				"paused()": "2538",
				"rates(uint256)": "infinite",
				"renounceOwnership()": "30509",
				"setPaused(bool)": "infinite",
				"stake(uint256,uint256)": "infinite",
				"totalHoldings(address)": "infinite",
				"totalOutstanding()": "2497",
				"totalStaked(address)": "infinite",
				"transferOwnership(address)": "30854",
				"unstake(uint256)": "infinite",
				"userStakes(address,uint256)": "infinite",
				"withdrawLiquidity(uint256)": "2994"
			},
			"internal": {
				"_addNewDurationRates(uint256,uint256)": "infinite",
				"_findDurationRate(uint256)": "infinite",
				"_stake(address,uint256,uint248,uint256)": "infinite",
				"_stakeWithChecks(address,uint256,uint256)": "infinite",
				"_totalExpected(struct UpdatedV3DynamicStakingContract.Stake memory)": "infinite"
			}
		},
		"methodIdentifiers": {
			"addNewDurationRates(uint256,uint256)": "3472d465",
			"durationRewardRate(uint256)": "825e0e80",
			"durations(uint256)": "bc20a7af",
			"exit()": "e9fad8ee",
			"getAllStakes(address)": "04238994",
			"getContractBalance()": "6f9fb98a",
			"owner()": "8da5cb5b",
			"paused()": "5c975abb",
			"rates(uint256)": "dd418ae2",
			"renounceOwnership()": "715018a6",
			"setPaused(bool)": "16c38b3c",
			"stake(uint256,uint256)": "7b0472f0",
			"totalHoldings(address)": "86efe63c",
			"totalOutstanding()": "16078d04",
			"totalStaked(address)": "9bfd8d61",
			"transferOwnership(address)": "f2fde38b",
			"unstake(uint256)": "2e17de78",
			"userStakes(address,uint256)": "b5d5b5fa",
			"withdrawLiquidity(uint256)": "0a861f2a"
		}
	},
	"abi": [
		{
			"anonymous": false,
			"inputs": [
				{
					"indexed": true,
					"internalType": "address",
					"name": "sender",
					"type": "address"
				},
				{
					"indexed": false,
					"internalType": "uint256",
					"name": "value",
					"type": "uint256"
				}
			],
			"name": "EtherReceived",
			"type": "event"
		},
		{
			"anonymous": false,
			"inputs": [
				{
					"indexed": false,
					"internalType": "bytes",
					"name": "data",
					"type": "bytes"
				},
				{
					"indexed": false,
					"internalType": "address",
					"name": "sender",
					"type": "address"
				},
				{
					"indexed": false,
					"internalType": "uint256",
					"name": "value",
					"type": "uint256"
				}
			],
			"name": "FallbackTriggered",
			"type": "event"
		},
		{
			"anonymous": false,
			"inputs": [
				{
					"indexed": true,
					"internalType": "address",
					"name": "user",
					"type": "address"
				},
				{
					"indexed": false,
					"internalType": "uint256",
					"name": "durations",
					"type": "uint256"
				}
			],
			"name": "NewDurationAdded",
			"type": "event"
		},
		{
			"anonymous": false,
			"inputs": [
				{
					"indexed": true,
					"internalType": "address",
					"name": "user",
					"type": "address"
				},
				{
					"indexed": false,
					"internalType": "uint256",
					"name": "rates",
					"type": "uint256"
				}
			],
			"name": "NewRateAdded",
			"type": "event"
		},
		{
			"anonymous": false,
			"inputs": [
				{
					"indexed": true,
					"internalType": "address",
					"name": "previousOwner",
					"type": "address"
				},
				{
					"indexed": true,
					"internalType": "address",
					"name": "newOwner",
					"type": "address"
				}
			],
			"name": "OwnershipTransferred",
			"type": "event"
		},
		{
			"anonymous": false,
			"inputs": [
				{
					"indexed": true,
					"internalType": "address",
					"name": "user",
					"type": "address"
				},
				{
					"indexed": false,
					"internalType": "bool",
					"name": "yes",
					"type": "bool"
				}
			],
			"name": "Paused",
			"type": "event"
		},
		{
			"anonymous": false,
			"inputs": [
				{
					"indexed": true,
					"internalType": "address",
					"name": "user",
					"type": "address"
				},
				{
					"indexed": false,
					"internalType": "uint256",
					"name": "amount",
					"type": "uint256"
				},
				{
					"indexed": false,
					"internalType": "uint256",
					"name": "duration",
					"type": "uint256"
				},
				{
					"indexed": false,
					"internalType": "uint256",
					"name": "rate",
					"type": "uint256"
				}
			],
			"name": "Staked",
			"type": "event"
		},
		{
			"anonymous": false,
			"inputs": [
				{
					"indexed": true,
					"internalType": "address",
					"name": "user",
					"type": "address"
				},
				{
					"indexed": false,
					"internalType": "uint256",
					"name": "amount",
					"type": "uint256"
				},
				{
					"indexed": false,
					"internalType": "uint256",
					"name": "stakedAmount",
					"type": "uint256"
				}
			],
			"name": "Withdrawn",
			"type": "event"
		},
		{
			"stateMutability": "payable",
			"type": "fallback"
		},
		{
			"inputs": [
				{
					"internalType": "uint256",
					"name": "_durations",
					"type": "uint256"
				},
				{
					"internalType": "uint256",
					"name": "_rates",
					"type": "uint256"
				}
			],
			"name": "addNewDurationRates",
			"outputs": [],
			"stateMutability": "nonpayable",
			"type": "function"
		},
		{
			"inputs": [
				{
					"internalType": "uint256",
					"name": "_duration",
					"type": "uint256"
				}
			],
			"name": "durationRewardRate",
			"outputs": [
				{
					"internalType": "uint256",
					"name": "",
					"type": "uint256"
				}
			],
			"stateMutability": "view",
			"type": "function"
		},
		{
			"inputs": [
				{
					"internalType": "uint256",
					"name": "",
					"type": "uint256"
				}
			],
			"name": "durations",
			"outputs": [
				{
					"internalType": "uint256",
					"name": "",
					"type": "uint256"
				}
			],
			"stateMutability": "view",
			"type": "function"
		},
		{
			"inputs": [],
			"name": "exit",
			"outputs": [],
			"stateMutability": "nonpayable",
			"type": "function"
		},
		{
			"inputs": [
				{
					"internalType": "address",
					"name": "account",
					"type": "address"
				}
			],
			"name": "getAllStakes",
			"outputs": [
				{
					"components": [
						{
							"internalType": "uint256",
							"name": "amount",
							"type": "uint256"
						},
						{
							"internalType": "uint256",
							"name": "end",
							"type": "uint256"
						},
						{
							"internalType": "uint256",
							"name": "duration",
							"type": "uint256"
						},
						{
							"internalType": "uint248",
							"name": "rate",
							"type": "uint248"
						},
						{
							"internalType": "bool",
							"name": "paid",
							"type": "bool"
						}
					],
					"internalType": "struct UpdatedV3DynamicStakingContract.Stake[]",
					"name": "",
					"type": "tuple[]"
				}
			],
			"stateMutability": "view",
			"type": "function"
		},
		{
			"inputs": [],
			"name": "getContractBalance",
			"outputs": [
				{
					"internalType": "uint256",
					"name": "",
					"type": "uint256"
				}
			],
			"stateMutability": "view",
			"type": "function"
		},
		{
			"inputs": [],
			"name": "owner",
			"outputs": [
				{
					"internalType": "address",
					"name": "",
					"type": "address"
				}
			],
			"stateMutability": "view",
			"type": "function"
		},
		{
			"inputs": [],
			"name": "paused",
			"outputs": [
				{
					"internalType": "bool",
					"name": "",
					"type": "bool"
				}
			],
			"stateMutability": "view",
			"type": "function"
		},
		{
			"inputs": [
				{
					"internalType": "uint256",
					"name": "",
					"type": "uint256"
				}
			],
			"name": "rates",
			"outputs": [
				{
					"internalType": "uint256",
					"name": "",
					"type": "uint256"
				}
			],
			"stateMutability": "view",
			"type": "function"
		},
		{
			"inputs": [],
			"name": "renounceOwnership",
			"outputs": [],
			"stateMutability": "nonpayable",
			"type": "function"
		},
		{
			"inputs": [
				{
					"internalType": "bool",
					"name": "_paused",
					"type": "bool"
				}
			],
			"name": "setPaused",
			"outputs": [],
			"stateMutability": "nonpayable",
			"type": "function"
		},
		{
			"inputs": [
				{
					"internalType": "uint256",
					"name": "amount",
					"type": "uint256"
				},
				{
					"internalType": "uint256",
					"name": "duration",
					"type": "uint256"
				}
			],
			"name": "stake",
			"outputs": [],
			"stateMutability": "nonpayable",
			"type": "function"
		},
		{
			"inputs": [
				{
					"internalType": "address",
					"name": "account",
					"type": "address"
				}
			],
			"name": "totalHoldings",
			"outputs": [
				{
					"internalType": "uint256",
					"name": "total",
					"type": "uint256"
				},
				{
					"internalType": "uint256",
					"name": "totalStakeCount",
					"type": "uint256"
				}
			],
			"stateMutability": "view",
			"type": "function"
		},
		{
			"inputs": [],
			"name": "totalOutstanding",
			"outputs": [
				{
					"internalType": "uint256",
					"name": "",
					"type": "uint256"
				}
			],
			"stateMutability": "view",
			"type": "function"
		},
		{
			"inputs": [
				{
					"internalType": "address",
					"name": "account",
					"type": "address"
				}
			],
			"name": "totalStaked",
			"outputs": [
				{
					"internalType": "uint256",
					"name": "total",
					"type": "uint256"
				},
				{
					"internalType": "uint256",
					"name": "totalStakeCount",
					"type": "uint256"
				}
			],
			"stateMutability": "view",
			"type": "function"
		},
		{
			"inputs": [
				{
					"internalType": "address",
					"name": "newOwner",
					"type": "address"
				}
			],
			"name": "transferOwnership",
			"outputs": [],
			"stateMutability": "nonpayable",
			"type": "function"
		},
		{
			"inputs": [
				{
					"internalType": "uint256",
					"name": "_stakeId",
					"type": "uint256"
				}
			],
			"name": "unstake",
			"outputs": [],
			"stateMutability": "nonpayable",
			"type": "function"
		},
		{
			"inputs": [
				{
					"internalType": "address",
					"name": "",
					"type": "address"
				},
				{
					"internalType": "uint256",
					"name": "",
					"type": "uint256"
				}
			],
			"name": "userStakes",
			"outputs": [
				{
					"internalType": "uint256",
					"name": "amount",
					"type": "uint256"
				},
				{
					"internalType": "uint256",
					"name": "end",
					"type": "uint256"
				},
				{
					"internalType": "uint256",
					"name": "duration",
					"type": "uint256"
				},
				{
					"internalType": "uint248",
					"name": "rate",
					"type": "uint248"
				},
				{
					"internalType": "bool",
					"name": "paid",
					"type": "bool"
				}
			],
			"stateMutability": "view",
			"type": "function"
		},
		{
			"inputs": [
				{
					"internalType": "uint256",
					"name": "amount",
					"type": "uint256"
				}
			],
			"name": "withdrawLiquidity",
			"outputs": [],
			"stateMutability": "nonpayable",
			"type": "function"
		},
		{
			"stateMutability": "payable",
			"type": "receive"
		}
	]
}